:020000021000EC
:1000000000800010850101000102010007020100CB
:100010000D0201001302010019020100000000009E
:10002000000000000000000000000000D1190100E5
:100030002502010000000000C11A0100091B010097
:10004000370201000D73010021730100D972010014
:100050003702010037020100ED8801000580010030
:1000600037020100370201003702010037020100A8
:100070003702010037020100370201003702010098
:100080003702010037020100E9770100F177010032
:10009000F9770100C577010037020100370201003E
:1000A000CD8901003702010037020100370201004B
:1000B0003702010037020100370201003702010058
:1000C0003702010037020100370201002049020017
:1000D00000000010A00300002049020000C007201B
:1000E000000000002049020000C8072000000000B6
:1000F000A00300106409000000C0072000000000F9
:1001000000C80720B43D000080B489B000AFF8609B
:10011000B9607A60BB68FB61FB68BB6100237B61EF
:100120000AE0BA69131DBB61FB69191DF961126808
:100130001A607B6904337B617A697B689A42F0D3E9
:1001400000BF00BF2437BD4680BC704780B485B077
:1001500000AF786039607B68FB600023BB6007E01C
:10016000FB681A1DFA6000221A60BB680433BB608A
:10017000BA683B689A42F3D300BF00BF1437BD464C
:1001800080BC704780B584B000AF72B6194BFB607D
:1001900013E0FB681A1DFA601B683B60FB681A1DC0
:1001A000FA601B68BB60FB681A1DFA601B687B6005
:1001B0007A68B9683868FFF7A7FFFB680E4A934270
:1001C000E7D30DE0FB681A1DFA601B68BB60FB6893
:1001D0001A1DFA601B687B607968B868FFF7B6FF84
:1001E000FB68064A9342EDD300F032FE00F00EFEAB
:1001F000FEE700BFCC000100F00001000801010093
:1002000080B400AFFEE780B400AFFEE780B400AF7B
:10021000FEE780B400AFFEE780B400AFFEE780B435
:1002200000AFFEE780B400AFFEE780B400AFFEE7AA
:1002300080B400AFFEE780B400AFFEE7FFFFFFFF32
:10024000FFFFFFFFFFFFFFFFFFFFFFFFFFFFFFFFBE
:10025000FFFFFFFFFFFFFFFFFFFFFFFFFFFFFFFFAE
:10026000FFFFFFFFFFFFFFFFFFFFFFFFFFFFFFFF9E
:10027000FFFFFFFFFFFFFFFFFFFFFFFFFFFFFFFF8E
:10028000FFFFFFFFFFFFFFFFFFFFFFFFFFFFFFFF7E
:10029000FFFFFFFFFFFFFFFFFFFFFFFFFFFFFFFF6E
:1002A000FFFFFFFFFFFFFFFFFFFFFFFFFFFFFFFF5E
:1002B000FFFFFFFFFFFFFFFFFFFFFFFFFFFFFFFF4E
:1002C000FFFFFFFFFFFFFFFFFFFFFFFFFFFFFFFF3E
:1002D000FFFFFFFFFFFFFFFFFFFFFFFFFFFFFFFF2E
:1002E000FFFFFFFFFFFFFFFFFFFFFFFFFFFFFFFF1E
:1002F000FFFFFFFFFFFFFFFFFFFFFFFFFFFFFFFF0E
:1003000080B487B000AFF8607B600B46FB72134689
:10031000BB72BB7A03F00F03DBB25B00FB75FB7AA9
:100320005B00DAB2BB7A1B09DBB21344BB75BA7D42
:10033000FB6853F82220FB7D032101FA03F3DB4322
:1003400013403B6197F82020FB7D02FA03F3194626
:10035000BA7D3B691943FB6843F82210BA7DFB68FC
:10036000103253F82220FB7D032101FA03F3DB4313
:1003700013403B61FB7D7A6802FA03F1BA7D3B6969
:100380001943FB68103243F8221000BF1C37BD46EA
:1003900080BC704780B483B000AF786008461146D7
:1003A0001A460346FB700B46BB7013467B707B7886
:1003B000002B0ED0FB785B017A6813449969BB78F7
:1003C00001229A40FB785B01786803440A439A61F2
:1003D0000DE0FB785B017A681344D969BB78012290
:1003E0009A40FB785B01786803440A43DA6100BFF6
:1003F0000C37BD4680BC704780B584B000AFF86054
:10040000B96011461A460B46FB711346BB71BB68B7
:10041000D9B2BB79FA79F868FFF7BCFF00BF103793
:10042000BD4680BD80B483B000AF78600B46FB70E2
:100430001346BB70FB785B017A6813441968BB787C
:1004400001229A40FB785B01786803440A431A60F2
:1004500000BF0C37BD4680BC704780B483B000AF8E
:1004600078600B46FB701346BB70FB785B017A68C3
:1004700013441968BB78012202FA03F3DA43FB78CC
:100480005B01786803440A401A6000BF0C37BD4620
:1004900080BC704780B582B000AF786008461146D6
:1004A0001A460346FB700B46BB7013467B707B7885
:1004B000002B06D0BA78FB7819467868FFF7B2FFB0
:1004C00005E0BA78FB7819467868FFF7C6FF00BFE9
:1004D0000837BD4680BD80B582B000AF7860084661
:1004E00011461A460346FB700B46BB7013467B70E1
:1004F0007B78BA78F9787868FFF7CCFF00BF0837C7
:10050000BD4680BD80B582B000AF7860044B1B88CB
:100510007968184604F090FF00BF0837BD4680BDDB
:10052000A203001080B500AF064B1B880649184691
:1005300004F082FF0023002202210448FFF75CFF41
:1005400000BF80BDA00300103C2B020000C00920AA
:1005500080B500AF064B1B880649184604F06CFFB7
:100560000023072202210448FFF746FF00BF80BD99
:10057000A0030010602B020000C0092080B582B0EB
:1005800002AF2A4804F0A8FF03461A46284B1A80F7
:10059000284804F0A1FF03461A46274B1A8000237F
:1005A00000930823002202212448FFF7A9FE00231C
:1005B00000930823072202212048FFF7A1FE012310
:1005C000002202211E48FFF786FF01230722022195
:1005D0001B48FFF780FFFFF7A5FFFFF7B9FF07F004
:1005E0004FF806F039FE06F001FE06F0F1FB0BF0C5
:1005F000B9F807F031FB0AF047FE08F093FA08F06B
:10060000D7F808F0D7FA08F057FE09F00DF809F00E
:1006100029FC09F067FE0AF0CDF80AF02EFE0BF077
:100620002FFA07F0DFFD00BFBD4680BD702B020032
:10063000A00300107C2B0200A203001000C00240A7
:1006400000C0092080B584B000AF0223FB60002306
:10065000BB6001237B604FF040200CF0FFFA4FF0AD
:100660004022FB6853604FF04022BB6853604FF05C
:10067000402340F6FF12DA604FF040227B6853605F
:1006800000BF1037BD4680BD80B584B000AF786034
:10069000322002F0E1FC02F0F3FE0346FB600BF0B7
:1006A00031FB03460121184608F04AFF07F10C030D
:1006B0006421184602F048FCF1E7FFFF80B594B0D2
:1006C00002AFA44BFB61A44BBB61A44B3B6209236B
:1006D00087F82430002387F8253007F118031846DF
:1006E00009F060FD9E4B7B609E4BBB604FF00003AA
:1006F000FB6000237B614FF000033B613B1D18460C
:1007000009F0A2FD97F82530012B7CD109F01AFEE3
:10071000786309F021FE38637B6B012283F8342073
:100720007B6B914A9A607B6B904ADA607B6B904A54
:100730001A617B6B4FF000029A617B6B8D4A1A62E3
:100740007B6B8D4A5A627B6B01221A773B6B0122CD
:1007500083F834203B6B4FF080429A603B6B4FF044
:100760000002DA603B6B4FF000021A613B6B4FF006
:1007700000029A613B6B7F4A1A623B6B7E4A5A6267
:100780003B6B01221A770AF061F8F8620AF068F808
:10079000B862FB6A012283F83420FB6A774A9A60C8
:1007A000FB6A4FF00002DA60FB6A4FF07E521A617A
:1007B000FB6A4FF000029A61FB6A714A1A62FB6A97
:1007C000704A5A62FB6A00221A77BB6A012283F8D8
:1007D0003420BB6A4FF080429A60BB6A4FF000023F
:1007E000DA60BB6A4FF07C521A61BB6A4FF00002BC
:1007F0009A61BB6A624A1A62BB6A624A5A62BB6AFF
:1008000000221A7776E009F09DFD786409F0A4FDD6
:1008100038647B6C012283F834207B6C4FF07E526D
:100820009A607B6C584ADA607B6C584A1A617B6C20
:100830004FF000029A617B6C554A1A627B6C554AF4
:100840005A627B6C00221A773B6C012283F83420B9
:100850003B6C514A9A603B6C4B4ADA603B6C4F4AA6
:100860001A613B6C4FF000029A613B6C484A1A6275
:100870003B6C484A5A623B6C01221A7709F0E6FF4A
:10088000F86309F0EDFFB863FB6B012283F83420B5
:10089000FB6B434A9A60FB6B4FF00002DA60FB6B24
:1008A000404A1A61FB6B4FF000029A61FB6B344ABD
:1008B0001A62FB6B334A5A62FB6B00221A77BB6BDE
:1008C000012283F83420BB6B374A9A60BB6B4FF030
:1008D0000002DA60BB6B334A1A61BB6B4FF0000257
:1008E0009A61BB6B264A1A62BB6B264A5A62BB6B83
:1008F00000221A774FF07E524FF07E512B4809F0BC
:10090000E7FF4FF080424FF08041284809F0F6FFA2
:1009100000230193022300930023502224492548F9
:1009200002F02CF800230193022300930023642299
:100930002149224802F022F8002301930223009368
:10094000002350221E491F4802F018F800BF483704
:10095000BD4680BD6666E841008CAB457CF230BB8D
:1009600000007A4300007A443D0A573F0AD7A33B70
:100970000AD7A33A00004842000048C23333F33F8D
:1009800000002041000020C1CDCC4C3DCDCC4C3CE2
:100990000000F0410000F0C19A99193FCDCCCC3C49
:1009A0008FC2F53C6666663F0AD7233C0000A04133
:1009B000882B020089060100902B0200C909010062
:1009C000982B0200C10A010080B59EB000AF78608C
:1009D00041F2883002F040FB02F052FD03463B67D3
:1009E00000237B6707F170033221184602F0ACFA4E
:1009F00000237B677B6FDAB27B6FDB0007F1780146
:100A00000B4403F8682C09F021FF03461A687B6F3A
:100A1000DB0007F178010B4443F8642C7B6F013352
:100A20007B677B6FDAB27B6FDB0007F178010B44E9
:100A300003F8682C09F00AFF03465A687B6FDB0055
:100A400007F178010B4443F8642C7B6F01337B671B
:100A50007B6FDAB27B6FDB0007F178010B4403F8A0
:100A6000682C09F0FDFE03461A687B6FDB0007F176
:100A700078010B4443F8642C7B6F01337B677B6FF9
:100A8000DAB27B6FDB0007F178010B4403F8682CC6
:100A900009F0E6FE03465A687B6FDB0007F1780138
:100AA0000B4443F8642C7B6F01337B677B6FDBB2B5
:100AB0003B7307F10C030121184608F06DFD91E727
:100AC000B0B58AB000AF786042F2107002F0C4FA9C
:100AD00009F0B0FE09F0BAFE786209F0C1FE386292
:100AE0007B6A012283F834207B6A4FF000029A600F
:100AF0007B6A4FF00002DA607B6A4FF000021A61F5
:100B00007B6A4FF000029A617B6A384A1A627B6AFC
:100B1000374A5A627B6A00221A773B6A012283F8BD
:100B200034203B6A4FF000029A603B6A4FF00002AB
:100B3000DA603B6A4FF000021A613B6A4FF0000234
:100B40009A613B6A294A1A623B6A294A5A623B6A9D
:100B500000221A7702F094FC0346FB6007F10C03B5
:100B60006421184602F0F0F907F11003184606F068
:100B7000FFFD3B69FB617B69BB61FA69BB6913449B
:100B80005D1009F063FE044628460DF027FF03467A
:100B90006360FA69BB69D51A09F062FE044628460B
:100BA0000DF01CFF0346636009F050FE0346184633
:100BB00008F0E2FF09F054FE0346184608F0DCFF97
:100BC00009F044FE03469B6B18460EF021F90446DB
:100BD00009F046FE03469B6B18460EF019F90346D2
:100BE0001946204609F064FEB8E700BF0000204126
:100BF000000020C180B483B000AF78600846114681
:100C00001A460346FB700B46BB7013467B707B781D
:100C1000002B0ED0FB785B017A6813449969BB788E
:100C200001229A40FB785B01786803440A439A6189
:100C30000DE0FB785B017A681344D969BB78012227
:100C40009A40FB785B01786803440A43DA6100BF8D
:100C50000C37BD4680BC704780B584B000AFF860EB
:100C6000B96011461A460B46FB711346BB71BB684F
:100C7000D9B2BB79FA79F868FFF7BCFF00BF10372B
:100C8000BD4680BD80B483B000AF78600B46FB707A
:100C90001346BB70FB785B017A6813441968BB7814
:100CA00001229A40FB785B01786803440A431A608A
:100CB00000BF0C37BD4680BC704780B483B000AF26
:100CC00078600B46FB701346BB70FB785B017A685B
:100CD00013441968BB78012202FA03F3DA43FB7864
:100CE0005B01786803440A401A6000BF0C37BD46B8
:100CF00080BC704780B582B000AF7860084611466E
:100D00001A460346FB700B46BB7013467B707B781C
:100D1000002B06D0BA78FB7819467868FFF7B2FF47
:100D200005E0BA78FB7819467868FFF7C6FF00BF80
:100D30000837BD4680BD80B582B000AF78600846F8
:100D400011461A460346FB700B46BB7013467B7078
:100D50007B78BA78F9787868FFF7CCFF00BF08375E
:100D6000BD4680BD80B500AF074908480BF086FE40
:100D700005480CF00BFA0BF02FF90CF015FA0448AB
:100D800000F0A6FC00BF80BD001BB7000020A1073B
:100D90000000001080B584B000AF78600023FB73C2
:100DA0000123162200211848FFF7C5FF01230F2257
:100DB00001211548FFF7BFFF01231022012112482E
:100DC000FFF7B9FF0023102201210F48FFF744FF6E
:100DD00000230F2201210C48FFF73EFF00231622BB
:100DE00000210948FFF738FFFB7B16220021064847
:100DF000FFF732FFFB7B83F00103FB7340F60550E6
:100E000002F02AF9F0E700BF00C0092080B582B0E7
:100E100002AFFFF7A7FF002003F016FEFFF7AEFBBF
:100E2000002301930123009300233222064907483F
:100E300001F0A4FDFFF742FC62B600BF02F016FA13
:100E400001231846BD4680BDA42B0200950D01006C
:100E500080B582B000AF054B7B60054A7B681A60A5
:100E60000BF0CEFE00BF0837BD4680BD08ED00E0A8
:100E70000000010080B485B000AF786039604FF0A9
:100E8000280383F31188BFF36F8FBFF34F8FFB608D
:100E900000BFFEE780B582B000AF1C2000F0DAFA98
:100EA00078607B68002B4DD07B6800221A607B68DD
:100EB0000433184600F096FC062005F0A5F9034619
:100EC0009BB21946786803F0F4FB2A4B1B8819463D
:100ED000786803F004FC786803F0D0FB0346DBB2CB
:100EE0001946062005F08EFA03F022FC0346184648
:100EF00003F043FB03461A461F4B1B8813409BB26B
:100F0000002B14D0786803F0C6FB03461A461A4B30
:100F10001B8813409BB2002B09D0786803F0AEFB0E
:100F20000346DBB21A460621C22004F0E7FB7868CC
:100F300003F0A4FB0346DBB200221946062004F0AE
:100F40002DFF11E003F0F4FB0346184603F015FBF8
:100F500003461A46084B1B8813409BB2002B03D054
:100F60000021C32004F00EFD7B6818460837BD46FB
:100F700080BD00BF220000102000001080B58CB0A2
:100F800000AFF860B9607A603B60FB683B620023A9
:100F9000BB6200237B6202F0C3F93B6A1B68FB6102
:100FA0003A68B968F86900F0E0F9B861BB69002BEC
:100FB0000ED0FB69FB620023BB637B68002B65D00E
:100FC0003B6A1A68BB68DB431A403B6A1A605DE003
:100FD000BB6B002B04D1FB69FB6201237B6255E0F4
:100FE0007B68002B03D0BB6A43F08073BB623B6815
:100FF000002B03D0BB6A43F08063BB623B6A181DC1
:10100000BA68BB6A1343BA6B194602F0D3FB0023DC
:10101000FB6203F08DFB0346184603F0AEFA03466D
:101020001A465F4B1B8813409BB2002B15D0F86803
:1010300003F031FB03461A46594B1B8813409BB201
:10104000002B0AD0F86803F019FB0346DBB21A46FE
:10105000BB680621C62004F0CFFB03F069FB034602
:10106000184603F08AFA03461A464D4B1B88134074
:101070009BB2002B0AD003F05BFB0346184603F03B
:101080006FFA0346DBB2184604F000FF02F056F98F
:101090007861BB6B002B31D07B69002B07D1414BB2
:1010A0004FF080521A60BFF34F8FBFF36F8F02F083
:1010B000D5FEF862FB6A03F00073002B1AD100F032
:1010C000CBFC3B6A1B68FB623A68B968F86A00F0BF
:1010D0004CF90346002B09D07B68002B06D03B6AF5
:1010E0001A68BB68DB431A403B6A1A6001237B62C3
:1010F00000F0CCFCFB6A23F07F43FB627B6A002B91
:1011000024D003F015FB0346184603F036FA0346D5
:101110001A46234B1B8813409BB2002B3AD0F86829
:1011200003F0B9FA03461A461D4B1B8813409BB2C5
:10113000002B2FD0F86803F0A1FA0346DBB21A4661
:10114000BB680621CD2004F057FB23E003F0F0FA42
:101150000346184603F011FA03461A46104B1B8843
:1011600013409BB2002B15D0F86803F094FA0346A5
:101170001A460B4B1B8813409BB2002B0AD0F86811
:1011800003F07CFA0346DBB21A46BB680621C7208F
:1011900004F032FBFB6A18463037BD4680BD00BF05
:1011A0002000001004ED00E080B584B000AF78604E
:1011B00039607B68FB6000F04FFC03F0B9FA03462E
:1011C000184603F0DAF903461A46164B1B881340FB
:1011D0009BB2002B15D0786803F05DFA03461A46DF
:1011E000104B1B8813409BB2002B0AD0786803F089
:1011F00045FA0346DBB21A463B680621C82004F0D4
:10120000FBFAFB681B68BB60FB681A683B68DB4342
:101210001A40FB681A6000F039FCBB6818461037AA
:10122000BD4680BD2000001080B58CB000AF786056
:1012300039600023BB627B683B6200237B623B6AB0
:101240000433FB61FB690833BB6102F069F803F00A
:101250006FFA0346184603F090F903461A463B4BD3
:101260001B8813409BB2002B15D0786803F013FA4B
:1012700003461A46354B1B8813409BB2002B0AD0FD
:10128000786803F0FBF90346DBB21A463B68062197
:10129000CA2004F0B1FAFB69DB68FB623B6A1A689A
:1012A0003B681A433B6A1A603CE0FB6A5B687B61FF
:1012B000FB6A1B683B6100237B623B6903F07F4351
:1012C000FB603B6923F07F433B61FB6803F0806375
:1012D000002B08D13B6A1A683B691340002B0BD0E6
:1012E00001237B6208E03B6A1A683B6913403A6954
:1012F0009A4201D101237B627B6A002B10D0FB68EC
:1013000003F08073002B03D0BA6A3B691343BB62BE
:101310003B6A1B6843F000731946F86A02F02CFB25
:101320007B69FB62FA6ABB699A42BED13B6A1A6862
:10133000BB6ADB431A403B6A1A6001F0FFFF3B6A5D
:101340001B6818463037BD4680BD00BF2000001026
:1013500080B582B000AF7860396039687868FFF78F
:1013600063FF00BF0837BD4680BD80B487B000AFC3
:10137000F860B9607A6000237B617B68002B07D13D
:10138000FA68BB681340002B0AD001237B6107E099
:10139000FA68BB681340BA689A4201D101237B61A5
:1013A0007B6918461C37BD4680BC704780B586B047
:1013B00000AFF860B9607A60F86803F06CF9034632
:1013C0001A46104B1B8813409BB2002B0AD0F868BA
:1013D00003F054F90346DBB21A46BB680621CE205F
:1013E00004F00AFA084B01221A607B68BA68F968AF
:1013F000064803F07DF878617B6918461837BD46CA
:1014000080BD00BF200000106005001051130100D6
:1014100080B485B000AF78607B68BB607B68002BD0
:1014200002D10023FB6002E0BB689B69FB60FB68A4
:1014300018461437BD4680BC704780B483B000AFF7
:10144000786039607B683A689A6100BF0C37BD46A6
:1014500080BC704780B586B000AF78600023FB6029
:1014600001F05EFF444B1A687B681340002B72D179
:101470007B68002B0DD008227B6813447B607B685F
:1014800003F00703002B04D07B6823F00703083325
:101490007B607B68002B5ED0384B1B687A689A4271
:1014A00059D8374B3B61364B1B687B6104E07B6945
:1014B0003B617B691B687B617B695B687A689A42E8
:1014C00003D97B691B68002BF1D12E4B1B687A690D
:1014D0009A4240D03B691B6808221344FB607B6939
:1014E0001A683B691A607B695A687B68D21A0823BC
:1014F0005B009A420FD97A697B681344BB607B69B1
:101500005A687B68D21ABB685A607B697A685A60ED
:10151000B86800F085F8194B1A687B695B68D31AC4
:10152000164A1360154B1A68174B1B689A4203D270
:10153000124B1B68144A13607B695A680E4B1B6878
:101540001A437B695A607B6900221A600F4B1B6843
:1015500001330E4A1360FB68002B05D0FB687A68E4
:101560001946942004F040F801F0E8FEFB681846A4
:101570001837BD4680BD00BFC0030010B003001087
:10158000A4030010AC030010B4030010B803001053
:1015900080B584B000AF78607B68FB607B68002B0F
:1015A00034D008235B42FA681344FB60FB68BB60DD
:1015B000BB685A68174B1B681340002B26D0BB68CA
:1015C0001B68002B22D1BB685A68124B1B68DB4397
:1015D0001A40BB685A6001F0A3FEBB685A680E4B04
:1015E0001B6813440C4A13607968BB685B685B42F4
:1015F0001A46962003F0F8FFB86800F011F8074B80
:101600001B680133054A136001F098FE00BF1037D4
:10161000BD4680BDC0030010B0030010BC03001025
:1016200080B485B000AF7860274BFB6002E0FB68B8
:101630001B68FB60FB681B687A689A42F7D8FB68F6
:10164000BB60FB685B68BA6813447A689A4208D149
:10165000FB685A687B685B681A44FB685A60FB68E1
:101660007B607B68BB607B685B68BA681A44FB6818
:101670001B689A4218D1FB681A68144B1B689A427F
:101680000DD07B685A68FB681B685B681A447B68EE
:101690005A60FB681B681A687B681A6008E00B4B8D
:1016A0001A687B681A6003E0FB681A687B681A6036
:1016B000FA687B689A4202D0FB687A681A6000BFB9
:1016C0001437BD4680BC7047A4030010AC03001063
:1016D00080B48BB000AF786000233B6100233B6295
:1016E0000023FB61FB69DB007A6813447B615CE0EB
:1016F0007B695B687B627B691B68BB61BB6903F0CC
:101700000703002B0ED0BB690733BB61BB6923F015
:101710000703BB617B691B681A46BB69D31A7A6AE7
:1017200013447B62BB69FB60FB69002B05D1FB683E
:10173000274A1360264B00225A60264B1B68BB6069
:10174000FA687B6A1344BB610822BB699B1ABB61C0
:10175000BB6923F00703BB61BB691E4A13601D4BC5
:101760001B6800225A601B4B1B6800221A60FB6832
:101770003B613B69BA69D21A3B695A60154B1A68DA
:101780003B691A60BB68002B02D0BB683A691A60DB
:101790003B695B683A6A13443B62FB690133FB6156
:1017A000FB69DB007A6813447B617B695B68002B13
:1017B0009ED1094A3B6A1360084A3B6A1360084B92
:1017C0004FF000421A6000BF2C37BD4680BC704706
:1017D000A4030010AC030010B4030010B003001009
:1017E000C003001080B483B000AF78607B6803F161
:1017F00008027B685A607B684FF0FF329A607B6812
:1018000003F108027B68DA607B6803F108027B68F9
:101810001A617B6800221A6000BF0C37BD4680BC8D
:10182000704780B483B000AF78607B6800221A6193
:1018300000BF0C37BD4680BC704780B485B000AF98
:10184000786039607B685B68FB603B68FA685A6067
:10185000FB689A683B689A60FB689B683A685A60C4
:10186000FB683A689A603B687A681A617B681B6813
:101870005A1C7B681A6000BF1437BD4680BC704795
:1018800080B485B000AF786039603B681B68BB608E
:10189000BB68B3F1FF3F03D17B681B69FB600CE0C1
:1018A0007B680833FB6002E0FB685B68FB60FB68F9
:1018B0005B681B68BA689A42F6D2FB685A683B6854
:1018C0005A603B685B683A689A603B68FA689A605D
:1018D000FB683A685A603B687A681A617B681B68E3
:1018E0005A1C7B681A6000BF1437BD4680BC704725
:1018F00080B485B000AF78607B681B69FB607B6853
:101900005B687A6892689A607B689B687A685268BC
:101910005A60FB685B687A689A4203D17B689A6870
:10192000FB685A607B6800221A61FB681B685A1EBC
:10193000FB681A60FB681B6818461437BD4680BCFC
:101940007047FFFF80B485B000AFF860B9607A607F
:10195000FB68043BFB60FB684FF080721A60FB6819
:10196000043BFB60BB6823F00102FB681A60FB6864
:10197000043BFB60084AFB681A60FB68143BFB6091
:101980007A68FB681A60FB68203BFB60FB681846BE
:101990001437BD4680BC70479D19010080B483B0E8
:1019A00000AF00233B604FF0280383F31188BFF39F
:1019B0006F8FBFF34F8F7B6000BF00BF3B68002B72
:1019C000FCD000BF00BF0C37BD4680BC7047FFFF96
:1019D000074B19680868B0E8F00F80F30988BFF377
:1019E0006F8F4FF0000080F311884EF00D0E70479E
:1019F0001404001000BF00BF06480068006880F3B0
:101A0000088862B661B6BFF34F8FBFF36F8F00DFF8
:101A100000BF00BF08ED00E080B500AF0C4B1B68B5
:101A20000B4A43F478031360094B1B68084A43F0E0
:101A30007843136000F08AF8064B00221A60FFF723
:101A4000DBFF01F0FDFDFFF7A9FF0023184680BD75
:101A500020ED00E01000001080B483B000AF4FF024
:101A6000280383F31188BFF36F8FBFF34F8F7B6021
:101A700000BF054B1B680133034A136000BF0C37DE
:101A8000BD4680BC704700BF1000001080B483B01A
:101A900000AF0A4B1B68013B084A1360074B1B68E9
:101AA000002B05D100237B607B6883F3118800BF86
:101AB00000BF0C37BD4680BC704700BF100000104F
:101AC000EFF30980BFF36F8F0D4B1A6820E9F00F19
:101AD00010602DE908404FF0280080F3118801F0D4
:101AE000AFFD4FF0000080F31188BDE80840196891
:101AF0000868B0E8F00F80F30988BFF36F8F704774
:101B00001404001000BF00BF80B582B000AF4FF0DA
:101B1000280383F31188BFF36F8FBFF34F8F7B6070
:101B200000BF01F0BBFC0346002B03D0064B4FF077
:101B300080521A6000233B603B6883F3118800BF2A
:101B400000BF0837BD4680BD04ED00E080B400AFA3
:101B5000084B00221A60084B00221A60074B43F220
:101B6000FF121A60034B07221A6000BFBD4680BCFB
:101B7000704700BF10E000E018E000E014E000E073
:101B800080B584B000AF786039607B68FB60FFF798
:101B900063FFFB681A68FB68DB6BF968096C01FB83
:101BA00003F31A44FB689A60FB6800229A63FB689F
:101BB0001A68FB685A60FB681A68FB68DB6B013BBC
:101BC000F968096C01FB03F31A44FB68DA60FB68EF
:101BD000FF2283F84420FB68FF2283F845203B68FE
:101BE000002B14D1FB681B69002B1AD0FB68103343
:101BF000184601F057FE0346002B12D00C4B4FF055
:101C000080521A60BFF34F8FBFF36F8F09E0FB68FC
:101C100010331846FFF7E6FDFB6824331846FFF73C
:101C2000E1FDFFF733FF012318461037BD4680BDA5
:101C300004ED00E080B58AB002AFF860B9601346E9
:101C4000FB71FB68BA6802FB03F3FB61FB6950336D
:101C50001846FFF7FFFBB861BB69002B0ED0BB69CC
:101C60007B617B6950337B61FA79BB6900931346D2
:101C70007A69B968F86800F021F816E002F058FDBA
:101C80000346184602F079FC03461A46094B1B88A6
:101C900013409BB2002B08D0FB79074AD35C40333A
:101CA000DBB20021184603F06DFEBB6918462037F1
:101CB000BD4680BD2000001014000010B0B584B0F7
:101CC00000AFF860B9607A60FB70BB68002B03D18D
:101CD0003B6A3A6A1A6002E03B6A7A681A603B6AB9
:101CE000FA68DA633B6ABA681A640121386AFFF756
:101CF00047FF3B6AFA7883F84C20386A02F024FCEC
:101D000003461A46344B9B5C184604F07DFA0346A2
:101D10009BB21946386A02F085FC304B1B88194685
:101D2000386A02F095FC386A02F00EFC03461A4647
:101D3000294B9C5C386A02F05AFC0346DBB2194618
:101D4000204604F05FFB02F0F3FC0346184602F065
:101D500014FC03461A46224B1B8813409BB2002BEF
:101D600025D0386A02F050FC03461A461C4B1B88EB
:101D700013409BB2002B1AD0386A02F0E5FB0346F1
:101D80001A46154B9B5C1833DBB21D46386A02F0CD
:101D9000DBFB03461A46104B9C5C386A02F027FCBA
:101DA0000346DBB21A462146284603F0A7FC386AF0
:101DB00002F0CAFB03461A46074B9C5C386A02F0E5
:101DC00016FC0346DBB200221946204603F0E6FF6C
:101DD00000BF1037BD46B0BD140000102200001037
:101DE00020000010B0B58AB000AFF860B9607A602A
:101DF0003B6000237B62FB683B62FFF72DFE3B6A82
:101E00009A6B3B6ADB6B9A4202D33B68022B7ED112
:101E100002F08EFC0346184602F0AFFB03461A465A
:101E2000BD4B1B8813409BB2002B25D0386A02F0B3
:101E3000EBFB03461A46B84B1B8813409BB2002BA2
:101E40001AD0386A02F080FB03461A46B34B9B5CFB
:101E50002033DBB21D46386A02F076FB03461A4691
:101E6000AE4B9C5C386A02F0C2FB0346DBB21A46FA
:101E70002146284603F042FC386A02F065FB03461F
:101E80001A46A64B9C5C386A02F0B1FB0346DDB2F1
:101E9000386A02F059FB03461A46A04B9B5C022BA2
:101EA00005D03B6A9B6BDBB20133DBB200E0002361
:101EB0001A462946204603F071FF3A68B968386A25
:101EC00000F0DEFBF8613B6A5B6A002B10D03B6AD6
:101ED0002433184601F0E6FC0346002B13D0904B48
:101EE0004FF080521A60BFF34F8FBFF36F8F0AE03D
:101EF000FB69002B07D08A4B4FF080521A60BFF36A
:101F00004F8FBFF36F8FFFF7C1FD0123FFE07B68A9
:101F1000002B37D1FFF7BAFD02F00AFC0346184642
:101F200002F02BFB03461A467B4B1B8813409BB2E7
:101F3000002B25D0386A02F067FB03461A46764B21
:101F40001B8813409BB2002B1AD0386A02F0FCFAAF
:101F500003461A46714B9B5C4833DBB21D46386A18
:101F600002F0F2FA03461A466C4B9C5C386A02F0A7
:101F70003EFB0346DBB21A462146284603F0BEFB71
:101F80000023C4E07B6A002B06D107F11403184636
:101F900001F04AFD01237B62FFF778FD01F0C0F9F3
:101FA000FFF75AFD3B6A93F844305BB2B3F1FF3F51
:101FB00003D13B6A002283F844203B6A93F8453002
:101FC0005BB2B3F1FF3F03D13B6A002283F84520A7
:101FD000FFF75CFD3A1D07F114031146184601F0A6
:101FE00039FD0346002B58D1386A00F041FC034606
:101FF000002B4CD002F09CFB0346184602F0BDFAC1
:1020000003461A46444B1B8813409BB2002B25D035
:10201000386A02F0F9FA03461A463F4B1B88134010
:102020009BB2002B1AD0386A02F08EFA03461A4689
:102030003A4B9B5C7033DBB21D46386A02F084FA7F
:1020400003461A46354B9C5C386A02F0D0FA0346C8
:10205000DBB21A462146284603F050FB3B6A103398
:102060007A681146184601F08FFB386A00F098FB39
:1020700001F064F90346002B7FF4BFAE284B4FF00C
:1020800080521A60BFF34F8FBFF36F8FB5E6386A87
:1020900000F086FB01F052F9AFE6386A00F080FBF1
:1020A00001F04CF902F044FB0346184602F065FAD1
:1020B00003461A46184B1B8813409BB2002B25D0B1
:1020C000386A02F0A1FA03461A46134B1B881340E4
:1020D0009BB2002B1AD0386A02F036FA03461A4631
:1020E0000E4B9B5C4833DBB21D46386A02F02CFA7B
:1020F00003461A46094B9C5C386A02F078FA03469C
:10210000DBB21A462146284603F0F8FA00231846A7
:102110002837BD46B0BD00BF2000001014000010DD
:1021200004ED00E0B0B58CB000AFF860B9607A6043
:102130003B60FB68BB62EFF311824FF0280383F32F
:102140001188BFF36F8FBFF34F8FBA617B61BB699B
:102150007B62BB6A9A6BBB6ADB6B9A4202D33B68B9
:10216000022B6AD1BB6A93F8453087F82330BB6AEB
:102170009B6BFB61B86A02F047FA03461A46484B6C
:102180001B8813409BB2002B1AD0B86A02F0DCF90E
:1021900003461A46434B9B5C3033DBB21D46B86A9C
:1021A00002F0D2F903461A463E4B9C5CB86A02F034
:1021B0001EFA0346DBB21A462146284603F09EFA71
:1021C000B86A02F0C1F903461A46364B9C5CB86AFD
:1021D00002F00DFA0346D9B2BB6A9B6BDBB2013346
:1021E000DBB21A46204603F0D9FD3A68B968B86AEE
:1021F00000F046FA97F92330B3F1FF3F12D1BB6AE2
:102200005B6A002B16D0BB6A2433184601F04AFBE8
:102210000346002B0ED07B68002B0BD07B6801227D
:102220001A6007E097F823300133DBB25AB2BB6A79
:1022300083F845200123FB6227E0B86A02F0E4F945
:1022400003461A46164B1B8813409BB2002B1AD02C
:10225000B86A02F079F903461A46124B9B5C583370
:10226000DBB21D46B86A02F06FF903461A460D4B01
:102270009C5CB86A02F0BBF90346DBB21A46214601
:10228000284603F03BFA0023FB627B6A3B613B6913
:1022900083F3118800BFFB6A18463037BD46B0BDD6
:1022A0002000001014000010B0B58AB000AFF86034
:1022B000B9607A600023FB61FB687B62FFF7CCFBAF
:1022C0007B6A9B6B3B623B6A002B7BD0B968786A68
:1022D00000F040FA02F02CFA0346184602F04DF9DD
:1022E00003461A46AC4B1B8813409BB2002B25D0EB
:1022F000786A02F089F903461A46A74B1B881340F7
:102300009BB2002B1AD0786A02F01EF903461A46D7
:10231000A24B9B5C2833DBB21D46786A02F014F9AD
:1023200003461A469D4B9C5C786A02F060F90346AE
:10233000DBB21A462146284603F0E0F9786A02F03B
:1023400003F903461A46954B9C5C786A02F04FF9F4
:102350000346DDB2786A02F0F7F803461A468F4B5F
:102360009B5C022B08D102F0E3F90346184602F009
:10237000F7F80346DBB204E07B6A9B6BDBB2013B00
:10238000DBB21A462946204603F008FD3B6A5A1E76
:102390007B6A9A637B6A1B69002B0FD07B6A1033C0
:1023A000184601F07FFA0346002B07D07C4B4FF014
:1023B00080521A60BFF34F8FBFF36F8FFFF766FB3A
:1023C000012330E17B68002B37D1FFF75FFB02F080
:1023D000AFF90346184602F0D0F803461A466E4B92
:1023E0001B8813409BB2002B25D0786A02F00CF9B1
:1023F00003461A46684B1B8813409BB2002B1AD029
:10240000786A02F0A1F803461A46644B9B5C50338D
:10241000DBB21D46786A02F097F803461A465F4B16
:102420009C5C786A02F0E3F80346DBB21A46214668
:10243000284603F063F90023F5E0FB69002B06D181
:1024400007F11403184601F0EFFA0123FB61FFF7CF
:102450001DFB00F065FFFFF7FFFA7B6A93F844303D
:102460005BB2B3F1FF3F03D17B6A002283F84420C3
:102470007B6A93F845305BB2B3F1FF3F03D17B6ACF
:10248000002283F84520FFF701FB3A1D07F11403F2
:102490001146184601F0DEFA0346002B40F0828018
:1024A000786A00F0CFF90346002B6ED002F040F9B5
:1024B0000346184602F061F803461A46364B1B885D
:1024C00013409BB2002B25D0786A02F09DF803469A
:1024D0001A46314B1B8813409BB2002B1AD0786AE6
:1024E00002F032F803461A462C4B9B5C6833DBB291
:1024F0001D46786A02F028F803461A46274B9C5C72
:10250000786A02F074F80346DBB21A462146284680
:1025100003F0F4F8786A02F017F803461A461F4BE6
:102520009B5C022B18D002F003F90346184602F018
:1025300024F803461A46184B1B8813409BB2002B05
:102540000AD002F0F5F80346184602F009F80346EF
:10255000DBB2184603F09AFC7B6A24337A68114692
:10256000184601F011F9786A00F01AF900F0E6FE59
:102570000346002B7FF4A2AE094B4FF080521A6045
:10258000BFF34F8FBFF36F8F98E6786A00F008F9BA
:1025900000F0D4FE92E600BF2000001014000010EE
:1025A00004ED00E0786A00F0FBF800F0C7FE786AFE
:1025B00000F048F90346002B3FF480AE02F0B8F873
:1025C0000346184601F0D9FF03461A46184B1B88EC
:1025D00013409BB2002B25D0786A02F015F8034611
:1025E0001A46134B1B8813409BB2002B1AD0786AF3
:1025F00001F0AAFF03461A460E4B9B5C5033DBB238
:102600001D46786A01F0A0FF03461A46094B9C5C00
:10261000786A01F0ECFF0346DBB21A4621462846F1
:1026200003F06CF8002318462837BD46B0BD00BF44
:10263000200000101400001080B483B000AF786058
:102640007B689B6C18460C37BD4680BC704780B4D5
:1026500083B000AF786039607B683A689A6400BFE5
:102660000C37BD4680BC704780B483B000AF786043
:102670007B6893F84C3018460C37BD4680BC7047D9
:1026800080B586B000AFF860B9607A6000237B61E6
:10269000FB689B6B3B61FB681B6C002B0DD1FB68DF
:1026A0001B68002B4DD1FB689B68184601F02EFB80
:1026B0007861FB6800229A6043E07B68002B19D1A7
:1026C000FB685868FB681B6C1A46B9680CF0E6FB9F
:1026D000FB685A68FB681B6C1A44FB685A60FB680D
:1026E0005A68FB689B689A422BD3FB681A68FB68A0
:1026F0005A6026E0FB68D868FB681B6C1A46B9680C
:102700000CF0CCFBFB68DA68FB681B6C5B421A447C
:10271000FB68DA60FB68DA68FB681B689A4207D2DC
:10272000FB689A68FB681B6C5B421A44FB68DA60C2
:102730007B68022B05D13B69002B02D03B69013B32
:102740003B613B695A1CFB689A637B6918461837E2
:10275000BD4680BD80B582B000AF786039607B68CF
:102760001B6C002B18D07B68DA687B681B6C1A44E2
:102770007B68DA607B68DA687B689B689A4203D37F
:102780007B681A687B68DA607B68D9687B681B6C39
:102790001A4638680CF082FB00BF0837BD4680BD82
:1027A00080B584B000AF7860FFF756F97B6893F886
:1027B0004530FB7311E07B685B6A002B12D07B68AD
:1027C0002433184601F06EF80346002B01D001F0C7
:1027D00087F9FB7B013BDBB2FB7397F90F30002BD2
:1027E000E9DC00E000BF7B68FF2283F84520FFF7AB
:1027F0004DF9FFF731F97B6893F84430BB7311E072
:102800007B681B69002B12D07B681033184601F0DF
:1028100049F80346002B01D001F062F9BB7B013B74
:10282000DBB2BB7397F90E30002BE9DC00E000BF90
:102830007B68FF2283F84420FFF728F900BF103798
:10284000BD4680BD80B584B000AF7860FFF704F965
:102850007B689B6B002B02D10123FB6001E000230E
:10286000FB60FFF713F9FB6818461037BD4680BDC3
:1028700080B584B000AF7860FFF7EEF87B689A6BA4
:102880007B68DB6B9A4202D10123FB6001E00023ED
:10289000FB60FFF7FBF8FB6818461037BD4680BDAC
:1028A00090B585B000AF786039600023FB6025E00B
:1028B000164AFB6852F83330002B1CD11349FB68D1
:1028C0003A6841F83320114AFB68DB0013447A6808
:1028D0005A60786801F038FE03461A460C4B9C5C3F
:1028E000786801F084FE0346DBB23A681946204658
:1028F00003F0CCFD06E0FB680133FB60FB68092BAD
:10290000D6D900BF00BF1437BD4690BDC403001028
:102910001400001080B586B000AFF860B9607A602E
:10292000FB687B61FFF798F87B6993F844305BB2F2
:10293000B3F1FF3F03D17B69002283F844207B6918
:1029400093F845305BB2B3F1FF3F03D17B690022BE
:1029500083F84520FFF79AF87B699B6B002B06D123
:102960007B6924337A68B968184600F041FF7869BA
:10297000FFF716FF00BF1837BD4680BD80B58CB08D
:1029800004AFF860B9603B601346FB80FB889B0096
:102990001846FEF75FFD78617B69002B0ED068203A
:1029A000FEF758FDF861FB69002B03D0FB697A69DB
:1029B0001A6305E07869FEF7EBFD01E00023FB6197
:1029C000FB69002B13D0FA8800230393FB69029361
:1029D000FB6A0193BB6A00933B68B968F86800F032
:1029E0000EF8F86900F090F80123BB6102E04FF0A7
:1029F000FF33BB61BB6918462037BD4680BD80B53B
:102A000086B000AFF860B9607A603B60BB6A186B53
:102A10007B689B001A46A5210CF04EFABB6A1A6B24
:102A20007B6803F18043013B9B0013443B613B699E
:102A300023F007033B61BB6A3A699A64BB68002BC9
:102A40001FD000237B6112E0BA687B6913441978B8
:102A5000BA6A7B69134434330A461A70BA687B69D0
:102A600013441B78002B06D07B6901337B617B69A3
:102A7000132BE9D900E000BFBB6A002283F847208E
:102A800003E0BB6A002283F834203B6A042B01D99F
:102A900004233B62BB6A3A6ADA62BB6A3A6A5A65E5
:102AA000BB6A00229A65BB6A04331846FEF7B9FE7A
:102AB000BB6A18331846FEF7B4FEBB6ABA6A1A61DD
:102AC0003B6AC3F10502BB6A9A61BB6ABA6A5A6281
:102AD000BB6A0022DA65BB6A00221A66BB6A002262
:102AE00083F864203A68F9683869FEF72BFF0246DC
:102AF000BB6A1A607B6A002B02D07B6ABA6A1A60D2
:102B000000BF1837BD4680BD80B582B000AF786089
:102B1000FEF7A2FF5C4B1B6801335B4A13605B4B03
:102B20001B68002B09D1594A7B681360564B1B6800
:102B3000012B10D101F020F80DE0554B1B68002B44
:102B400009D1524B1B68DA6A7B68DB6A9A4202D869
:102B50004E4A7B6813604F4B1B6801334D4A13602C
:102B60004C4B1A687B68DA647B68002B48D00320E2
:102B700003F04AFB03469BB21946786801F00BFD4F
:102B8000454B1B881946786801F01BFD786801F0F9
:102B9000E7FC0346D9B27B6834331A46032003F0BE
:102BA00075FC786801F0DCFC0346D9B27B68DB6A0F
:102BB000DBB21A46032003F077F801F0B9FD0346B3
:102BC000184601F0DAFC03461A46344B1B881340C2
:102BD0009BB2002B14D0786801F0CFFC03461A4654
:102BE0002E4B1B8813409BB2002B09D0786801F054
:102BF000B7FC0346DBB21A4603211B2002F07EFD20
:102C0000786801F0BAFC03461A46244B1B8813402F
:102C10009BB2002B07D0786801F0A2FC0346DBB220
:102C2000184602F07DFC7B68DB6A01229A401C4B4F
:102C30001B6813431A4A13607B68DA6A13469B00C9
:102C400013449B00174A1A447B6804331946104604
:102C5000FEF7F3FDFEF71AFF0D4B1B68002B0ED09D
:102C60000A4B1B68DA6A7B68DB6A9A4207D20E4B12
:102C70004FF080521A60BFF34F8FBFF36F8F00BFCA
:102C80000837BD4680BD00BFEC04001014040010DE
:102C9000F8040010080500102200001020000010A9
:102CA000F40400101804001004ED00E080B58CB0AE
:102CB00000AF7860FEF7D0FE7B68002B02D1984B06
:102CC0001B6800E07B68FB62FB6A04331846FEF772
:102CD0000FFE0346002B15D1FB6ADA6A91491346B1
:102CE0009B0013449B000B441B68002B0AD1FB6A1A
:102CF000DB6A012202FA03F3DA438B4B1B681340B1
:102D0000894A1360FB6A9B6A002B04D0FB6A183364
:102D10001846FEF7EDFD854B1B680133834A1360AF
:102D20007F4B1B68FA6A9A4271D1FB6A04331946D9
:102D30007F48FEF782FD7F4B1B6801337D4A13609D
:102D4000EFF31083FB61FB697B6201233B623B6A0B
:102D500083F3108800BF01F0EBFC0346184601F036
:102D60000CFC03461A46744B1B8813409BB2002B85
:102D700014D0F86A01F001FC03461A466E4B1B881A
:102D800013409BB2002B09D0F86A01F0E9FB03461F
:102D9000DBB21A460321832002F0B0FCF86A01F08E
:102DA000DFFB0346DBB2032219460B2002F0C2FE12
:102DB000F86A01F0D5FB0346DBB203221946132063
:102DC00002F00AFFF86A01F0CBFB0346D9B2FB6AB6
:102DD000DB6ADBB21A46032002F066FFF86A01F0F4
:102DE000BFFB0346DBB200221946032002F0D6FFE8
:102DF000F86A01F0B5FB0346DBB21946032003F085
:102E0000B1FA7B6ABB61BB6983F3108870E04B4BFE
:102E10001B68013B494A1360EFF310833B613B6938
:102E2000BB6201237B617B6983F3108800BF01F0E3
:102E30007FFC0346184601F0A0FB03461A463E4BB2
:102E40001B8813409BB2002B14D0F86A01F095FB4D
:102E500003461A46384B1B8813409BB2002B09D0FF
:102E6000F86A01F07DFB0346DBB21A46032183209A
:102E700002F044FCF86A01F073FB0346DBB2032264
:102E800019460B2002F056FEF86A01F069FB034672
:102E9000DBB203221946132002F09EFEF86A01F00D
:102EA0005FFB0346D9B2FB6ADB6ADBB21A4603203A
:102EB00002F0FAFEF86A01F053FB0346DBB200228F
:102EC0001946032002F06AFFF86A01F049FB034645
:102ED000DBB21946032003F045FABB6AFB60FB68CE
:102EE00083F3108800BFF86A00F0B4FE00F0C2FE61
:102EF000FEF7CCFD124B1B68002B0CD0084B1B6857
:102F0000FA6A9A4207D10F4B4FF080521A60BFF312
:102F10004F8FBFF36F8F00BF3037BD4680BD00BFFE
:102F20001404001018040010F40400100805001028
:102F3000C0040010D404001020000010EC040010A5
:102F4000F804001004ED00E080B586B000AF7860B2
:102F5000396000237B6100F0E3F93B4B1B683B6168
:102F60007B681B683A681344FB607B681B683A699E
:102F70009A420BD27B681B68FA689A4211D2FA68AF
:102F80003B699A420DD901237B610AE07B681B688B
:102F9000FA689A4203D3FA683B699A4201D901233D
:102FA0007B617B68FA681A607B69002B3AD0274BFB
:102FB0001B68184601F0E1FA03461A46244B1B88A9
:102FC00013409BB2002B0DD0F968882002F0DAFC88
:102FD0001E4B1B68184601F0C3FA0346DBB21846C5
:102FE00002F054FF01F0A4FB0346184601F0C5FAB5
:102FF00003461A46164B1B8813409BB2002B0AD07F
:1030000001F096FB0346184601F0AAFA0346DBB22C
:10301000184602F03BFFFA683B69D31A00211846B4
:1030200000F034FF00F08AF9B860BB68002B07D1CC
:10303000084B4FF080521A60BFF34F8FBFF36F8F72
:1030400000BF1837BD4680BDF00400101404001006
:103050002000001004ED00E080B584B000AF78607F
:103060000023FB607B68002B3CD000F059F9254B16
:103070001B68184601F081FA03461A46224B1B884A
:1030800013409BB2002B0DD07968892002F07AFCA6
:103090001C4B1B68184601F063FA0346DBB2184666
:1030A00002F0F4FE01F044FB0346184601F065FA15
:1030B00003461A46144B1B8813409BB2002B0AD0C0
:1030C00001F036FB0346184601F04AFA0346DBB22C
:1030D000184602F0DBFE0021786800F0D7FE00F011
:1030E0002DF9F860FB68002B07D1084B4FF0805298
:1030F0001A60BFF34F8FBFF36F8F00BF1037BD460D
:1031000080BD00BF140400102000001004ED00E09A
:1031100080B584B000AF7860FEF79EFC7B68002B22
:1031200002D14A4B1B6800E07B68FB6001F000FBAA
:103130000346184601F021FA03461A46444B1B8801
:1031400013409BB2002B14D0F86801F016FA034626
:103150001A463F4B1B8813409BB2002B09D0F868DE
:1031600001F0FEF90346DBB21A4603218A2002F081
:10317000C5FAF86801F0F4F90346DBB2184602F02C
:1031800085FEFB6804331846FEF7B2FB0346002BAE
:1031900015D1FB68DA6A2F4913469B0013449B0044
:1031A0000B441B68002B0AD1FB68DB6A012202FA80
:1031B00003F3DA43284B1B681340274A1360FB686C
:1031C0009B6A002B04D0FB6818331846FEF790FB6F
:1031D000FB68043319462148FEF72FFBFB6893F880
:1031E0006430DBB2012B03D1FB68002283F864203A
:1031F000FEF74CFC1A4B1B68002B05D0FEF72CFC8D
:1032000000F038FDFEF742FC104B1B68FA689A424A
:1032100018D1134B1B68002B08D0124B4FF0805273
:103220001A60BFF34F8FBFF36F8F0BE00B4B1A6821
:103230000D4B1B689A4203D1044B00221A6001E037
:1032400000F0FEF900BF1037BD4680BD1404001029
:103250002000001018040010F4040010D80400101E
:10326000F804001004ED00E0EC04001080B584B018
:1032700002AF244B01930023009300233222224902
:103280002248FFF77BFB78607B68012B02D100F0BE
:1032900063FE78607B68012B30D14FF0280383F305
:1032A0001188BFF36F8FBFF34F8F3B6000BF184B88
:1032B0004FF0FF321A60174B01221A60164B0022A2
:1032C0001A60FDF7BFF901F033FA0346184601F022
:1032D00054F903461A46114B1B8813409BB2002B2E
:1032E0000AD001F025FA0346184601F039F90346E1
:1032F000DBB2184602F0ACFBFEF78EFB00BF0837CE
:10330000BD4680BD10050010B42B0200493B0100F2
:103310000C050010F8040010F0040010200000104C
:1033200080B400AF044B1B680133034A136000BF35
:10333000BD4680BC704700BF1405001080B584B046
:1033400000AF0023FB600023BB60FEF785FB424B10
:103350001B68013B404A13603F4B1B68002B74D134
:103360003E4B1B68002B70D041E03D4BDB68DB68B7
:10337000FB60FB6818331846FEF7BAFAFB680433A3
:103380001846FEF7B5FAF86801F0F7F803461A4652
:10339000344B1B8813409BB2002B07D0F86801F018
:1033A000DFF80346DBB2184602F0BAF8FB68DB6AC6
:1033B00001229A402C4B1B6813432B4A1360FB6875
:1033C000DA6A13469B0013449B00284A1A44FB68A0
:1033D000043319461046FEF730FAFB68DA6A244BCC
:1033E0001B68DB6A9A4202D3224B01221A601C4BF3
:1033F0001B68002BB9D1FB68002B01D000F03AFC10
:103400001D4B1B687B607B68002B10D000F046F8DA
:103410000346002B02D0174B01221A607B68013B48
:103420007B607B68002BF1D1134B00221A60114B9B
:103430001B68002B09D00123BB60104B4FF080525A
:103440001A60BFF34F8FBFF36F8FFEF71FFBBB6890
:1034500018461037BD4680BD14050010EC0400105E
:10346000AC04001020000010F40400101804001038
:103470001404001000050010FC04001004ED00E02E
:1034800080B483B000AF044B1B687B607B68184638
:103490000C37BD4680BC7047F004001080B586B084
:1034A00000AF00237B61594B1B68012B03D0584BA5
:1034B0001B68002B07D1574B1B680133554A13601B
:1034C000002003F037FB514B1B68504B1B68002B4F
:1034D00040F09180504B1B6801333B614E4A3B6981
:1034E00013603B69002B10D14C4B1B68FB604C4BAD
:1034F0001B684A4A13604A4AFB681360494B1B68C1
:103500000133484A136000F0B5FB474B1B683A692A
:103510009A425BD3414B1B681B68002B04D1424B82
:103520004FF0FF321A6051E03C4B1B68DB68DB68F0
:10353000BB60BB685B687B603A697B689A4203D278
:10354000394A7B68136041E0BB6804331846FEF7D4
:10355000CFF9BB689B6A002B04D0BB6818331846B0
:10356000FEF7C6F9B86801F008F803461A462F4B73
:103570001B8813409BB2002B07D0B86800F0F0FF07
:103580000346DBB2184601F0CBFFBB68DB6A0122C1
:103590009A40274B1B681343254A1360BB68DA6ABD
:1035A00013469B0013449B00224A1A44BB68043311
:1035B00019461046FEF741F9BB68DA6A1E4B1B68D4
:1035C000DB6A9A42A6D301237B61A3E71A4B1B68EF
:1035D000DA6A184913469B0013449B000B441B688E
:1035E000012B01D901237B61144B1B68002B07D0F1
:1035F00001237B6104E0064B1B680133044A13601E
:103600007B6918461837BD4680BD00BF1405001001
:10361000FC04001070050010F0040010A404001059
:10362000A8040010040500100C0500102000001074
:10363000F404001018040010140400100005001019
:1036400080B586B000AF484B1B68002B03D0474BBA
:1036500001221A6083E0454B00221A604FF040239C
:103660009B68434A1360424B1A68424B1B689A425C
:1036700009D9414B1B68D96D3D4A10683D4A126813
:10368000821A0A44DA653A4B1B683A4A13603A4B8D
:103690001B681B6B7B614FF0A5333B617B691B682B
:1036A0003A699A4211D17B6904331B683A699A429C
:1036B0000BD17B6908331B683A699A4205D17B6953
:1036C0000C331B683A699A4208D02B4B1A682A4B74
:1036D0001B68343319461046FDF7CCFB274B1B689B
:1036E0007B607B68B3FA83F3FB70FB78C3F11F0345
:1036F000FB60FA6813469B0013449B00204A134466
:10370000BB60BB685B685A68BB685A60BB685A6834
:10371000BB6808339A4204D1BB685B685A68BB68CF
:103720005A60BB685B68DB68134A136001F000F8FD
:103730000346184600F021FF03461A46114B1B882A
:1037400013409BB2002B0AD000F0F2FF034618464C
:1037500000F006FF0346DBB2184602F079F900BF1D
:103760001837BD4680BD00BF1405001000050010CD
:103770001C0500101805001014040010F4040010BB
:10378000180400102000001080B582B000AF7860EF
:103790003960074B1B68183319467868FEF770F8D4
:1037A0000121386800F072FB00BF0837BD4680BDBC
:1037B0001404001080B584B000AFF860B9607A607E
:1037C0000A4B1B68BA6842F000429A61074B1B68BB
:1037D00018331946F868FEF730F80121786800F0D0
:1037E00055FB00BF1037BD4680BD00BF140400105C
:1037F00080B584B000AFF860B9607A60264B1B6872
:1038000018331946F868FEF718F87B68002B02D0C9
:103810004FF0FF33BB60204B1B68184600F0ADFE35
:1038200003461A461D4B1B8813409BB2002B11D038
:103830001B4B1A68BB6813441946882002F0A2F893
:10384000154B1B68184600F08BFE0346DBB218468A
:1038500002F01CFB00F06CFF0346184600F08DFEE2
:1038600003461A460D4B1B8813409BB2002B0AD00F
:1038700000F05EFF0346184600F072FE0346DBB21E
:10388000184602F003FB7968B86800F0FFFA00BF41
:103890001037BD4680BD00BF14040010200000108A
:1038A000F004001080B584B000AF78607B68DB68FE
:1038B000DB68BB60BB6818331846FEF719F8274B66
:1038C0001B68002B2FD1BB6804331846FEF710F895
:1038D000B86800F052FE03461A46214B1B8813407D
:1038E0009BB2002B07D0B86800F03AFE0346DBB26B
:1038F000184601F015FEBB68DB6A01229A40194B9D
:103900001B681343174A1360BB68DA6A13469B00AF
:1039100013449B00144A1A44BB68043319461046EA
:10392000FDF78BFF05E0BB68183319460F48FDF71C
:1039300084FFBB68DA6A0E4B1B68DB6A9A4205D9C2
:103940000123FB600B4B01221A6001E00023FB60A6
:10395000FB6818461037BD4680BD00BF1405001037
:1039600020000010F404001018040010AC04001033
:10397000140400100005001080B584B000AF78601A
:1039800039603B6843F000427B681A607B68DB6803
:10399000FB607868FDF7ACFFFB6804331846FDF761
:1039A000A7FFF86800F0E9FD03461A46194B1B888B
:1039B00013409BB2002B07D0F86800F0D1FD0346FE
:1039C000DBB2184601F0ACFDFB68DB6A01229A40CD
:1039D000114B1B681343104A1360FB68DA6A1346E5
:1039E0009B0013449B000D4A1A44FB68043319469C
:1039F0001046FDF722FFFB68DA6A094B1B68DB6A99
:103A00009A4202D9074B01221A6000BF1037BD4607
:103A100080BD00BF20000010F40400101804001046
:103A2000140400100005001080B483B000AF78606B
:103A3000064B1A687B681A60054B1A687B685A60E7
:103A400000BF0C37BD4680BC704700BF04050010A6
:103A5000F004001080B586B000AF78603960FDF7E3
:103A6000FBFF1D4B1B683B617B685B683A69D31A9F
:103A7000FB603B681B68B3F1FF3F02D100237B6111
:103A800023E07B681A68154B1B689A4207D07B6855
:103A90005B683A699A4202D301237B6115E03B6877
:103AA0001B68FA689A420BD23B681A68FB68D21A04
:103AB0003B681A607868FFF7B7FF00237B6104E07A
:103AC0003B6800221A6001237B61FDF7DFFF7B6901
:103AD00018461837BD4680BDF004001004050010DC
:103AE00080B400AF034B01221A6000BFBD4680BC0A
:103AF000704700BF0005001080B485B000AF78604B
:103B00007B68002B05D07B68BB60BB681B6DFB60CE
:103B100001E00023FB60FB6818461437BD4680BCFB
:103B2000704780B485B000AF786039607B68002B47
:103B300004D07B68FB60FB683A681A6500BF1437E5
:103B4000BD4680BC7047FFFF80B582B000AF786093
:103B500000F052F8064B1B68012BF9D9054B4FF0CA
:103B600080521A60BFF34F8FBFF36F8FF0E700BF33
:103B70001804001004ED00E080B582B000AF00230F
:103B80007B600CE07A6813469B0013449B00124A4A
:103B900013441846FDF726FE7B6801337B607B6883
:103BA000042BEFD90D48FDF71DFE0D48FDF71AFE59
:103BB0000C48FDF717FE0C48FDF714FE0B48FDF707
:103BC00011FE0B4B054A1A600A4B054A1A6000BFEA
:103BD0000837BD4680BD00BF180400107C040010EB
:103BE00090040010AC040010C0040010D8040010B1
:103BF000A4040010A804001080B582B000AF19E042
:103C0000FDF72AFF104BDB68DB687B607B680433C1
:103C10001846FDF76DFE0D4B1B68013B0B4A136008
:103C20000B4B1B68013B0A4A1360FDF72FFF7868B6
:103C300000F010F8064B1B68002BE1D100BF00BF5D
:103C40000837BD4680BD00BFC0040010EC04001062
:103C5000D404001080B582B000AF78607B681B6B25
:103C60001846FDF795FC7868FDF792FC00BF083711
:103C7000BD4680BD80B483B000AF0C4B1B681B6891
:103C8000002B04D10A4B4FF0FF321A6008E0074BBB
:103C90001B68DB68DB687B607B685B68044A1360D9
:103CA00000BF0C37BD4680BC704700BFA4040010A5
:103CB0000C05001080B483B000AF044B1B687B6020
:103CC0007B6818460C37BD4680BC70471404001052
:103CD00080B483B000AF0B4B1B68002B02D10123D3
:103CE0007B6008E0084B1B68002B02D102237B603D
:103CF00001E000237B607B6818460C37BD4680BC22
:103D0000704700BFF80400101405001090B585B08E
:103D100000AF78607B68BB600023FB607B68002B92
:103D200000F09080BB689B6D5A1EBB689A65BB68AB
:103D3000DA6ABB685B6D9A4200F08480BB689B6D59
:103D4000002B7FD1BB6804331846FDF7D1FD034635
:103D5000002B15D1BB68DA6A3D4913469B0013441A
:103D60009B000B441B68002B0AD1BB68DB6A012255
:103D700002FA03F3DA43374B1B681340354A1360EA
:103D8000B86800F0FAFB03461A46334B1B88134011
:103D90009BB2002B20D0B86800F0E2FB0346DBB2F8
:103DA0001C46B86800F0DCFB0346DBB21946032072
:103DB00001F0B6FF0346224603218F2001F01CFDCF
:103DC000B86800F0CDFB0346D9B2BB685B6DDBB2CF
:103DD0001A46032001F068FFBB685A6DBB68DA62BF
:103DE000BB68DB6AC3F10502BB689A61B86800F082
:103DF000C4FB03461A46184B1B8813409BB2002B8A
:103E000007D0B86800F0ACFB0346DBB2184601F0FF
:103E100087FBBB68DB6A01229A400E4B1B68134389
:103E20000C4A1360BB68DA6A13469B0013449B007C
:103E3000074A1A44BB68043319461046FDF7FDFCD7
:103E40000123FB60FB6818461437BD4690BD00BFD8
:103E500018040010F40400102000001080B483B097
:103E600000AF094B1B689B697B60074B1B68DA6AD4
:103E7000054B1B68C2F105029A617B6818460C3736
:103E8000BD4680BC704700BF1404001080B584B0EC
:103E900000AF78603960294B1B68FB60284B1B68BA
:103EA00004331846FDF724FD0346002B0BD1244BA9
:103EB0001B68DB6A012202FA03F3DA43214B1B6819
:103EC0001340204A13607B68B3F1FF3F0AD13B687F
:103ED000002B07D01A4B1B68043319461A48FDF70C
:103EE000ACFC26E0FA687B681344BB60144B1B688B
:103EF000BA685A60BA68FB689A4209D2134B1A68CA
:103F00000F4B1B68043319461046FDF7B9FC10E04F
:103F10000F4B1A680A4B1B68043319461046FDF70D
:103F2000AFFC0C4B1B68BA689A4202D2094ABB68C4
:103F3000136000BF1037BD4680BD00BFF004001005
:103F400014040010F4040010D8040010A804001099
:103F5000A40400100C05001080B584B002AF00234B
:103F60007B6000F08FFA0A4B1B68002B0AD0094BCC
:103F70000193042300930023642207490748FEF7B6
:103F8000FDFC78607B6818460837BD4680BD00BFE1
:103F90005005001054050010BC2B0200A140010088
:103FA00080B58AB000AFF860B9607A603B600023EA
:103FB0007B621A4B1B68002B2AD0BB687B617B6835
:103FC000BB61FB68FB61BB68052B18DCFFF780FE5B
:103FD0000346022B09D1114B186807F11401002385
:103FE0003A6BFDF7FFFE786212E00C4B186807F1A0
:103FF000140100230022FDF7F5FE786208E0074B6C
:10400000186807F1140100233A68FEF78BF878620C
:104010007B6A18462837BD4680BD00BF500500109A
:1040200080B586B002AF786039601C4B1B68DB68D6
:10403000DB68FB60FB6804331846FDF759FCFB683E
:1040400093F8283003F00403002B15D0FB689A691D
:104050007B68D1187B683A68F86800F0C3F80346BB
:10406000002B12D00023009300237A680021F86807
:10407000FFF796FFB86008E0FB6893F8283023F05C
:104080000103DAB2FB6883F82820FB681B6AF86832
:10409000984700BF1037BD4680BD00BF48050010DF
:1040A00080B584B000AF786007F10803184600F0CF
:1040B00057F8F860BB681946F86800F003F800F09C
:1040C000D3F8F1E780B584B000AF78603960FFF7CE
:1040D00027F907F10803184600F064F8F860BB6898
:1040E000002B30D13B68002B0AD17A68FB689A42DA
:1040F00006D8FFF723F9F9687868FFF791FF24E005
:104100003B68002B08D0134B1B681B68002B01D1A8
:10411000012300E000233B600F4B18687A68FB68BE
:10412000D31A3A681946FEF7F5FBFFF707F903467D
:10413000002B0AD1094B4FF080521A60BFF34F8F0A
:10414000BFF36F8F01E0FFF7F9F800BF1037BD46EE
:1041500080BD00BF4C0500105005001004ED00E0CC
:1041600080B485B000AF78600D4B1B681B68002BD6
:1041700001D1012200E000227B681A607B681B6885
:10418000002B05D1064B1B68DB681B68FB6001E058
:104190000023FB60FB6818461437BD4680BC70479F
:1041A0004805001080B584B000AF7860FFF768F96B
:1041B000F8600B4B1B68FA689A4205D200F00CF9C4
:1041C0007B6801221A6002E07B6800221A60044AC0
:1041D000FB681360FB6818461037BD4680BD00BF02
:1041E0005805001080B586B000AFF860B9607A60FD
:1041F0003B6000237B61FB68BA685A60FB68FA6821
:104200001A61BA687B689A4212D87A683B68D21AF7
:10421000FB689B699A4202D301237B611BE0104B30
:104220001A68FB68043319461046FDF729FB12E0B3
:104230007A683B689A4206D2BA683B689A4202D3CF
:1042400001237B6107E0074B1A68FB6804331946BA
:104250001046FDF715FB7B6918461837BD4680BD33
:104260004C0500104805001080B58CB002AFA0E0EE
:10427000BB68002B0BDA07F1080304337B627B6A0F
:104280001B687A6A50687A6A926811469847BB68D8
:10429000002BC0F28D803B693B623B6A5B69002B5F
:1042A00004D03B6A04331846FDF722FB3B1D184639
:1042B000FFF778FFF861BB68092B7AD801A252F8A2
:1042C00023F000BFED420100ED420100ED4201008C
:1042D000474301005B43010087430100ED420100B9
:1042E000ED420100474301005B4301003B6A93F844
:1042F000283043F00103DAB23B6A83F82820FA68D9
:104300003B6A9B69D118FB68FA69386AFFF76AFF54
:104310000346002B4DD03B6A1B6A386A98473B6ABC
:1043200093F8283003F00403002B42D0FA683B6A6C
:104330009B691A440023009300230021386AFFF789
:104340002FFEB86135E03B6A93F8283023F0010373
:10435000DAB23B6A83F828202BE03B6A93F82830D6
:1043600043F00103DAB23B6A83F82820FA683B6A1B
:104370009A613B6A9A69FB69D118FB69FA69386AE4
:10438000FFF730FF15E03B6A93F8283003F0020393
:10439000002B03D1386AFDF7FBF80AE03B6A93F87B
:1043A000283023F00103DAB23B6A83F8282000E0CA
:1043B00000BF084B1B6807F1080100221846FDF7F3
:1043C00073FF0346002B7FF453AF00BF00BF2837B5
:1043D000BD4680BD5005001080B588B002AF3AE000
:1043E000264B1B68DB681B683B61244B1B68DB6842
:1043F000DB68FB60FB6804331846FDF779FAFB685D
:104400001B6AF8689847FB6893F8283003F00403A8
:10441000002B20D0FB689B693A691344BB60BA68E3
:104420003B699A420ED9FB68BA685A60FB68FA6821
:104430001A61124B1A68FB68043319461046FDF7DF
:104440001FFA08E00023009300233A690021F8686E
:10445000FFF7A6FD7860094B1B681B68002BBFD1D6
:10446000064B1B687B61064B1B68044A1360044AB9
:104470007B69136000BF1837BD4680BD480500103A
:104480004C05001080B500AFFDF7E6FA124B1B6833
:10449000002B1DD11148FDF7A5F91148FDF7A2F930
:1044A000104B0E4A1A60104B0D4A1A600022102160
:1044B0000520FDF7BFFB0346074A1360064B1B6848
:1044C000002B05D0044B1B6808491846FEF7E8F995
:1044D000FDF7DCFA00BF80BD50050010200500107C
:1044E00034050010480500104C050010C42B0200D4
:1044F00080B58AB000AFF860B9607A603B606FF059
:1045000001037B61FB68BB61BB68FB617B683B624D
:10451000064B186807F1140100233A68FDF702FE04
:1045200078627B6A18462837BD4680BD500500106A
:1045300080B582B000AF78607868FEF77DF80346FA
:1045400018460837BD4680BD80B582B000AF7860A0
:104550007868FEF789F8034618460837BD4680BDDF
:1045600080B582B000AF78607868FFF7C5FA03467F
:104570009BB218460837BD4680BD80B582B000AFFB
:1045800078607868FFF7B8FA03461B0C9BB21846B0
:104590000837BD4680BD80B582B000AF78600B465D
:1045A0007B807868FFF7A8FA03461B0C1B047A8807
:1045B000134319467868FFF7B4FA00BF0837BD46C1
:1045C00080BD80B582B000AF78600B467B80786894
:1045D000FFF792FA03469AB27B881B0413431946ED
:1045E0007868FFF79EFA00BF0837BD4680BD80B5EA
:1045F00082B000AF78607868FFF79AFF03469BB2FD
:1046000018460837BD4680BD80B582B000AF7860DF
:104610007868FFF78DFF03461B0C9BB218460837DE
:10462000BD4680BD80B582B000AF78600B467B8010
:104630007868FFF77DFF03461B0C1B047A88134341
:1046400019467868FEF703F800BF0837BD4680BDFD
:1046500080B582B000AF78600B467B807868FFF74A
:1046600067FF03469AB27B881B0413431946786898
:10467000FDF7EDFF00BF0837BD4680BD80B582B0B5
:1046800000AF78607868FCF7C3FE03469BB218461B
:104690000837BD4680BD80B582B000AF78607868CD
:1046A000FCF7B6FE03461B0C9BB218460837BD4606
:1046B00080BD80B582B000AF78600B467B807868A3
:1046C000FCF7A6FE03461B0C1B047A88134319460D
:1046D0007868FCF7B2FE00BF0837BD4680BD80B5E4
:1046E00082B000AF78600B467B807868FCF790FE64
:1046F00003469AB27B881B04134319467868FCF77B
:104700009CFE00BF0837BD4680BD80B582B000AFBB
:10471000786039607868FFF7B1FF0346DBB23A682A
:104720001946062001F0B2FE00BF0837BD4680BD25
:1047300080B500AFFFF7BEFA0346184680BDFFFF05
:1047400080B400AF634B1B680922DA65614B1B68BC
:104750000A2283F864205F4B1B680A2283F86520D5
:104760005C4B1B680A2283F866205A4B1B680F2299
:1047700083F86720574B1B68052283F86820554B48
:104780001B68052283F86920524B1B68052283F8B9
:104790006A20504B1B68052283F86B204D4B1B6829
:1047A000052283F86C204B4B1B680F2283F8702086
:1047B000484B1B680F2283F87120464B1B680F2261
:1047C00083F87220434B1B680F2283F87320414B00
:1047D0001B680F2283F874203E4B1B680F2283F85E
:1047E00075203C4B1B680F2283F87620394B1B68E1
:1047F0000F2283F87720374B1B680F2283F878202D
:10480000344B1B68102283F87C20324B1B6810222B
:1048100083F87D202F4B1B68102283F87E202D4BC0
:104820001B68132283F87F202A4B1B68112283F810
:104830008020284B1B68102283F88120254B1B68A1
:10484000132283F88220234B1B68132283F88320D2
:10485000204B1B68132283F884201E4B1B68002208
:10486000A3F888201B4B1B68A022A3F88A20194BB1
:104870001B684FF4A072A3F88C20164B1B684FF4F2
:10488000F072A3F88E20134B1B6840F2FD22A3F8B0
:104890009020104B1B6840F25232A3F892200D4B2F
:1048A0001B6840F2A232A3F894200A4B1B6840F226
:1048B0000142A3F89620074B1B684FF48C62A3F8C3
:1048C0009820044B1B6840F2BF421A6600BFBD46E9
:1048D00080BC70472806001080B400AF2E4B002229
:1048E0005A822D4B5A8A2C4B1A802B4B0A229A82C1
:1048F000294B9A8A284B5A80274B1422DA82264B5E
:10490000DA8A254B9A80244B1E221A83224B1A8B5B
:10491000214BDA80204B2D225A831F4B5A8B1E4B82
:104920001A811D4B32229A831B4B9A8B1A4B5A8148
:10493000194B3722DA83184BDA8B174B9A81164BB7
:104940003C221A84144B1A8C134BDA81124B4122ED
:104950005A84114B5A8C104B1A820F4B09229A849D
:104960000D4B1322DA840C4B1D221A850A4B2C2284
:104970005A85094B31229A85074B3622DA85064B38
:104980003B221A86044B40225A86034B45229A86C4
:1049900000BFBD4680BC70479405001080B483B052
:1049A00000AF0346FB71FB79082B27D801A252F810
:1049B00023F000BFE9490100E1490100E549010098
:1049C000D9490100DD490100ED490100F14901002B
:1049D000F5490100F94901000B4B10E00B4B0EE0CB
:1049E0000B4B0CE00B4B0AE00B4B08E00B4B06E0CB
:1049F0000B4B04E00B4B02E00B4B00E00B4B18465B
:104A00000C37BD4680BC7047CC2B0200142C020032
:104A10005C2C0200B02C0200FC2C0200482D02008D
:104A2000942D0200E82D0200402E02009C2E020070
:104A300080B500AFFFF74CF90346002B0CBF0123F4
:104A40000023DBB2184680BD80B582B000AF78602D
:104A500001F046FA7B68012B02D100F087F80CE0E8
:104A60007B68022B03D1074801F0C0FD05E07B689D
:104A7000002B02D0044801F0B9FD00BF0837BD4645
:104A800080BD00BFCC2E02000C2F020080B586B086
:104A900000AF0023FB75304B1B68002B0AD12E4B57
:104AA0001B68002B04D12D4801F0A0FD00234EE02F
:104AB00000234CE0284B1B681B6B012B01D1012309
:104AC00045E0274B1B68002B3ED1EFF31083BB6002
:104AD000BB683B610123FB60FB6883F3108800BF68
:104AE000204B1B6801331F4A13601B4B1B680122BC
:104AF0001A63FFF7DFF803461846FFF731FD034658
:104B0000FB75FB7D002B10D1032001F07DFB0346DC
:104B1000FB75FB7D144A1946032001F0B7FCFB7DB1
:104B200000221946032001F0BFF8FB7D184600F073
:104B30008FFF0C4B1B68013B0A4A13603B697B608B
:104B40007B6883F3108800BF034B1B681B6B184600
:104B50001837BD4680BD00BF28060010402F020058
:104B6000840500107C050010842F020080B500AF82
:104B7000FFF78CFF00BF80BD80B500AF084B1B68FE
:104B8000002B03D0064B1B6800221A63054B1B68E1
:104B9000002B02D0034B1B68984700BF80BD00BFAD
:104BA000280600108C05001080B582B000AF786038
:104BB0000B46FB701B4B1B68002B04D11A4801F0FD
:104BC00015FD00232AE0174B1B6893F86820174B4C
:104BD0001B789A4204D2164801F008FD00231DE01C
:104BE0007B68002B04D1134801F000FD002315E081
:104BF0000E4B1B780133DAB20C4B1A700B4B1B783F
:104C00007A681946042001F041FC084B1B78FA78B9
:104C10001946042001F048F8044B1B781846083761
:104C2000BD4680BD28060010902F02002C06001003
:104C3000D42F02001430020080B588B000AF0346C4
:104C4000FB713C4B1B68002B03D03B4801F0CEFCB2
:104C50006CE0EFF31083FB60FB68FB6101233B61B9
:104C60003B6983F3108800BF324B1B680133314A24
:104C70001360324B1B681B6B002B4CD0304B1B78E6
:104C8000002B48D0FB79002B03D12E4801F0AEFC5D
:104C90004CE02A4B1B6893F86830FA799A4203D9A2
:104CA000294801F0A3FC41E04FF6FF7001F0E8FC59
:104CB00003467B83214B1B681B6B002B2BD0234BA4
:104CC00093F90030072B23DCFB797B761F4B93F99C
:104CD000003019461E4AFB7953541C4B93F900309F
:104CE000DBB20133DBB25AB2184B1A7001F010FA82
:104CF00078617B69002B0ED07B6904221A707B6976
:104D00007A8B5A807B697A7E5A7001F09BFC02E0B4
:104D1000104801F06BFC074B1B68013B054A136010
:104D2000FB69BB60BB6883F3108800BF2037BD46BA
:104D300080BD00BF7C05001048300200280600102E
:104D40008905001080300200C03002008805001084
:104D5000640500100031020080B58AB000AF7860B1
:104D6000002387F82730002387F82630424B1B6842
:104D70001B6B002B7CD0414B1B78002B78D0404B19
:104D80001B68002B03D03F4801F030FC71E03E4B24
:104D900093F90030002B03D13C4801F027FC68E078
:104DA000EFF310833B613B693B6201237B617B69CD
:104DB00083F3108800BF324B1B680133304A136005
:104DC000334B1A687B681343314A13602E4B93F9B7
:104DD0000030DBB2013BDBB25AB22B4B1A702A4BCC
:104DE00093F90030002B0BDD052387F82630264B86
:104DF00093F90030013B274AD35C87F827300FE056
:104E0000234B1B68002B04D0FFF712FE0346002B38
:104E100006D0072387F82630184B1B7887F82730F1
:104E200097F82630002B18D04FF6FF7001F028FCC1
:104E30000346FB8301F06CF9B861BB69002B0CD011
:104E4000BB6997F826201A70BB6997F827205A701B
:104E5000BB69FA8B5A8001F0F5FB094B1B68013BDB
:104E6000074A13603B6AFB60FB6883F3108800E02D
:104E700000BF2837BD4680BD2806001089050010F8
:104E80007C0500101C31020088050010543102001E
:104E90006C0500106405001080B582B000AF78602A
:104EA0000B46FB701346BB707B68002B04D10D488A
:104EB00001F09CFB002311E0FB78232B01D9FF2399
:104EC0000CE0FB787A681344BA781A70FB78232BCD
:104ED00001D9FF2302E0FB780133DBB21846083723
:104EE000BD4680BD9831020080B582B000AF7860C9
:104EF0000B46FB7013463B807B68002B11D1164894
:104F000001F074FB002322E0FB78232B01D9FF235F
:104F10001DE0FB787A68134400221A70FB78013395
:104F2000FB70FB7803F00103DBB2002BECD1FB78C4
:104F3000222B01D9FF230AE0FB785B08DBB25B0080
:104F40007A6813443A881A80FB780233DBB2184639
:104F50000837BD4680BD00BFC031020080B584B0B7
:104F600000AFF8600B467A60FB72FB68002B11D132
:104F7000154801F03BFB002322E0FB7A232B01D9EB
:104F8000FF231DE0FB7AFA68134400221A70FB7AB3
:104F90000133FB72FB7A03F00303DBB2002BECD18D
:104FA000FB7A202B01D9FF230AE0FB7A9B08DBB2B6
:104FB0009B00FA6813447A681A60FB7A0433DBB208
:104FC00018461037BD4680BDEC31020080B586B072
:104FD00000AFF860B9607A60FB700023FB820023A9
:104FE0007B75FB783B7553E1FB8AFA6813441B78A9
:104FF000252B40F042817B7D01337B757B7D0F2B20
:1050000004D9AC4801F0F2FA00234FE1FB8A0133E6
:10501000FB8202E0FB8A0133FB82FB8AFA681344BD
:105020001B782F2B05D9FB8AFA6813441B78392B80
:10503000F0D9FB8AFA6813441B78232BEAD0FB8A49
:10504000FA6813441B782E2BE4D0FB8AFA681344C9
:105050001B78002B00F02481FB8AFA6813441B782C
:10506000583B202B00F2098101A252F823F000BF27
:105070000D5101007B5201007B5201007B52010067
:105080007B5201007B5201007B5201007B520100E8
:105090007B5201007B5201002B5201007B52010028
:1050A000F55001007B520100475101007B52010085
:1050B000DD5101007B5201007B5201007B52010057
:1050C000735101007B5201007B5201007B520100B1
:1050D0007B5201007B5201007B52010025510100EF
:1050E0007B5201000D5101007B5201007B520100F7
:1050F0000D510100BB681A1DBA601A683B7D194644
:105100007868FFF72BFF03463B75B6E0BB681A1DB6
:10511000BA601A683B7D19467868FFF71FFF03469F
:105120003B75AAE0BB681A1DBA601B68184600F000
:10513000D3F903461A463B7D19467868FFF7D4FE3B
:1051400003463B7599E0BB68073323F0070303F17F
:105150000802BA60D3E900231046194609F014FB8F
:1051600002463B7D19467868FFF7F8FE03463B751B
:1051700083E0FB8A0133FB82FB8AFA6813441B78C5
:10518000662B79D1BB68073323F0070303F10802CC
:10519000BA60D3E900231046194609F0F5FA024631
:1051A0003B7D19467868FFF7D9FE03463B75BB681F
:1051B000073323F0070303F10802BA60D3E90023A1
:1051C0001046194609F0E0FA02463B7D1946786818
:1051D000FFF7C4FE03463B7500BF4DE0FB8A013379
:1051E000FB82FB8AFA6813441B78642B02D0752B70
:1051F0000DD042E0BB681A1DBA601B689AB23B7DB5
:1052000019467868FFF770FE03463B750CE0BB68F3
:105210001A1DBA601B689AB23B7D19467868FFF781
:1052200063FE03463B7500BF27E0FB8A0133FB8228
:10523000FB8AFA6813441B78642B02D0752B0DD0BF
:105240001BE0BB681A1DBA601B68DAB23B7D1946C9
:105250007868FFF721FE03463B750CE0BB681A1D1A
:10526000BA601B68DAB23B7D19467868FFF714FE16
:1052700003463B7500BF00E000BFFB8A0133FB82A1
:105280003B7DFF2B04D10C4801F0B0F900230DE069
:10529000FB8AFA6813441B78002B7FF4A5AE00E06C
:1052A00000BF3B7D0333DBB29B08DBB218461837E7
:1052B000BD4680BD183202004C3202000EB480B5EB
:1052C00085B000AF0346FB8007F12003FB60FB883D
:1052D000FA68F969184600F007F800BF1437BD46B0
:1052E000BDE8804003B0704780B594B000AF03467E
:1052F000B9607A60FB81BB68002B03D14A4801F09A
:1053000075F98EE0EFF31083FB63FB6BFB64012305
:105310003B643B6C83F3108800BF444B1B68013334
:10532000424A1360424B1B681B6B002B6ED0414BF3
:105330001B78002B6AD007F11403BB64BB6CAA2254
:105340001A7007F1140204237968B868FFF73EFE6B
:1053500003467B64FB891946B86801F0F5F80346FB
:105360001A46BB6C5A80FF2001F08AF90346DAB274
:10537000BB6C5A702E4B1B681B6B002B46D02C4B02
:105380001B68DA697B6C1A44294B1B689B699A423B
:1053900001D9FFF7F1FB264B1B681B6B002B35D0A7
:1053A000234B1A68224B1B68DB699B0003F66813CA
:1053B000D0187B6C9A0007F11403194609F06EFDB2
:1053C0007B6CD9B21A4B1A68194B1B68DB699B00BE
:1053D0006939C9B213440A4683F86829144B1B681B
:1053E000D969134B1B687A6C0A44DA61104B1B684D
:1053F00059690F4B1B687A6C0A445A610C4B1B6845
:10540000DB69B3F5FA7F01D3FFF7B6FB074B1B68E7
:10541000013B064A1360FB6CBB63BB6B83F31088D4
:1054200000BF5037BD4680BD883202007C050010A9
:10543000280600108905001080B588B000AF03462B
:105440003960FB80EFF31083FB60FB68FB61012395
:105450003B613B6983F3108800BF1C4B1B68013321
:105460001A4A13601A4B1B681B6B002B1FD0194B79
:105470001B78002B1BD0FF2001F002F90346FB76BE
:1054800000F046FE78617B69002B10D07B69FA7EC4
:105490005A707B6998221A70FB881946386801F0A7
:1054A00053F803461A467B695A8001F0CBF8074B44
:1054B0001B68013B054A1360FB69BB60BB6883F353
:1054C000108800BF00BF2037BD4680BD7C0500109E
:1054D000280600108905001080B582B000AF786002
:1054E0007B68002B04D10B4801F080F800230DE00D
:1054F000094B1B68002B04D1084801F077F8002302
:1055000004E00021786801F01FF8034618460837C8
:10551000BD4680BDC032020028060010902F020058
:1055200080B588B000AF0346FB71FB79002B4BD0F0
:10553000284B1B68002B49D0FB790F2B03D9264839
:1055400001F054F843E0254B1B68002B03D024489E
:1055500001F04CF83BE0EFF31083FB60FB68FB616C
:1055600001233B613B6983F3108800BF1B4B1B6821
:1055700001331A4A13601B4B1B681B6B002B18D09E
:105580004FF6FF7001F07CF803467B83FB797B7656
:1055900000F0BEFD78617B69002B0AD07B69022296
:1055A0001A707B697A8B5A807B697A7E5A7001F017
:1055B00049F80A4B1B68013B084A1360FB69BB6052
:1055C000BB6883F3108802E000BF00E000BF203713
:1055D000BD4680BD1C000010F43202007C050010A6
:1055E000343302002806001080B58EB000AFF8609A
:1055F000B9607A603E4B1B68002B75D07B68002B2E
:1056000003DA7B685B427B6301E07B687B63EFF3DB
:105610001083BB61BB693B630123FB61FB6983F3BF
:10562000108800BF334B1B680133324A1360324B82
:105630001A687B681344304A13602D4B1B681B6B40
:10564000002B46D0FF2001F01BF8034687F82F30CF
:10565000796B4FF6FF7000F059F90346BB8500F0F7
:1056600057FDB862BB6A002B33D0BB6A97F82F2076
:105670005A70BB6A00221A70BB6ABA8D5A8000F059
:10568000E1FFB9684FF6FF7000F040F90346FB8474
:10569000002387F8253000F03BFD38623B6A002B81
:1056A00017D03B6AFA8C5A803B6A97F825205A70CB
:1056B000FB68DBB20133DAB23B6A1A70FB68DAB21C
:1056C000BB6A1A7000F0BEFF094B1B680A4A1268D9
:1056D0001A65084B1B68013B064A13603B6B7B61F4
:1056E0007B6983F3108800E000BF3837BD4680BD7A
:1056F000280600107C0500109005001080B58AB0C7
:1057000000AFF8600B467A60FB72FB68FE2B03D992
:10571000324800F06BFF5DE0FB7A082B03D930487C
:1057200000F064FF56E02F4B1A68FB7A134493F89D
:1057300064301A467B68934203D92B4800F056FF29
:1057400048E02A4B1B68002B03D0294800F04EFF8D
:1057500040E0284B1B78002B3BD0EFF310837B619C
:105760007B697B620123BB61BB6983F3108800BF47
:105770001E4B1B6801331D4A13601A4B1B681B6BC1
:10578000002B1BD04FF6FF7000F07AFF03467B849E
:105790007B6887F8213000F0BBFCF861FB69002BC7
:1057A0000CD0FB697A8C5A80FB68DAB2FB691A70FC
:1057B000FB6997F821205A7000F044FF0B4B1B68DF
:1057C000013B0A4A13607B6A3B613B6983F31088A3
:1057D00000E000BF2837BD4680BD00BF6C3302002B
:1057E000A433020028060010EC3302007C050010F0
:1057F000343402008905001080B58AB000AFF8602B
:105800007A603B600B46FB72FB68FE2B03D938487D
:1058100000F0ECFE68E0FB7A082B03D9354800F075
:10582000E5FE61E0344B1A68FB7A134493F8643068
:105830001A467B68934203D9304800F0D7FE53E004
:105840002F4B1B68002B03D02E4800F0CFFE4BE0FF
:10585000EFF310837B617B697B620123BB61BB69D2
:1058600083F3108800BF264B1B680133244A136062
:10587000214B1B681B6B002B2BD0234B1B78002B61
:1058800027D0FF2000F0FCFE034687F8233039685C
:10589000FF2000F03BF8034687F822307B6887F84A
:1058A000213000F035FCF861FB69002B11D0FB6959
:1058B00097F82320DA70FB68DAB2FB691A70FB698B
:1058C00097F821205A70FB6997F822209A7000F00F
:1058D000B9FE0B4B1B68013B094A13607B6A3B61B5
:1058E0003B6983F3108800BF2837BD4680BD00BFE9
:1058F0006C340200AC34020028060010FC340200B4
:105900007C0500104C3502008905001080B584B07C
:1059100000AF786039607B68FF2B09D07B684FF659
:10592000FF72934204D0164800F060FE3B6823E00B
:105930003A687B689A4201D83B681DE000F0E8FBBA
:10594000F860FB68002B14D0FB6801221A707B689A
:10595000DA433B6813401B0ADAB2FB685A707B6873
:10596000DA433B6813401B0C9AB2FB685A8000F084
:1059700069FE3A687B68134018461037BD4680BD03
:105980008435020080B58AB000AF786039600023AA
:10599000FB847B68FE2B03D9284800F027FE49E0F2
:1059A000274B1B68002B03D0264800F01FFE41E068
:1059B000EFF310833B613B693B6201237B617B69B1
:1059C00083F3108800BF1E4B1B6801331C4A136011
:1059D0001D4B1B681B6B002B21D01C4B1B78002B15
:1059E0001DD0FF2000F04CFE0346FB7739684FF6D0
:1059F000FF70FFF78BFF0346FB8400F089FBB86163
:105A0000BB69002B0BD0BB69FA7F5A707B68DAB296
:105A1000BB691A70BB69FA8C5A8000F013FE084B00
:105A20001B68013B064A13603B6AFB60FB6883F31B
:105A3000108800BF2837BD4680BD00BFC0350200BA
:105A40007C05001018360200280600108905001099
:105A500080B588B000AF0346FB71FB790F2B03D9EB
:105A60002F4800F0C3FD58E0EFF31083FB60FB68A4
:105A7000FB6101233B613B6983F3108800BF294B25
:105A80001B680133274A1360274B1B78FA799A4227
:105A900038D0264B1B681B6B002B33D0244B0022C5
:105AA0001A604FF6FF7000F0EBFD03467B831E4A41
:105AB000FB7913701C4B1B787B7600F029FB786117
:105AC0007B69002B1ED0184B1B781946032000F071
:105AD000A1F90346012B03D17B6907221A7002E06A
