:020000021000EC
:100000000080001015060100F9050100FD05010042
:1000100001060100050601000906010000000000BC
:10002000000000000000000000000000B115010009
:100030000D060100000000004116010085160100B8
:100040001106010011060100110601001106010050
:100050001106010011060100110601001106010040
:100060001106010011060100110601001106010030
:100070001106010011060100110601001106010020
:100080001106010011060100110601001106010010
:100090001106010011060100110601001106010000
:1000A00011060100110601001106010011060100F0
:1000B00011060100110601001106010011060100E0
:1000C0001106010011060100110601004421010082
:1000D00000000010140000004421010000C00720AF
:1000E0000000000014000010C066000000C00720DF
:1000F0000000000010B483B0344BD3F8883013F004
:10010000407F10D0314B0122C3F88020AA21C3F8D0
:100110008C105522C3F88C200024C3F88040C3F80B
:100120008C10C3F88C202A4B1C6804221A60002211
:100130009A60F8B1012842D12022244BC3F8A021B3
:10014000244B01932149019B5A1E019223B1D1F8FE
:10015000A03113F0400FF6D0019B002B31D01B4B88
:100160000122C3F80C210022C3F804211A4A1B4BB8
:100170001A6011E0154B0022C3F80C21C3F80421CA
:100180001749164A1160D3F8A83013F4807F03D1C1
:1001900000220E4BC3F8A021104B1A68114BA3FB91
:1001A00002129209013A0A4B5A601C60074B1A6806
:1001B00022F4704242F480421A60012002E00020E2
:1001C00000E0002003B05DF8044B704700C00F4012
:1001D00010E000E0A08601000024F400306500106B
:1001E00000093D001F85EB51F8B504460120FFF7DB
:1001F00081FF5A4BD3F80C3113F0030318D0012BB5
:1002000002D0A4E0013201E0002255491301CB588D
:10021000A34201D0002BF5D1002B00F09A80504B67
:1002200003EB021359689A68D86812E0013201E0C2
:1002300000224C491301CB58A34201D0002BF5D129
:10024000002B00F08880474B03EB021359689A6833
:10025000D868424BD3F8883013F0407F10D03F4B22
:100260000125C3F88050AA26C3F88C605525C3F831
:100270008C500027C3F88070C3F88C60C3F88C5092
:1002800001EB0242354BC3F88420AA21C3F88C103D
:100290005522C3F88C200125C3F88050C3F88C1078
:1002A000C3F88C201A46D2F8883013F0806FFAD049
:1002B0002A4B1A6822F4704242F480421A60C3F852
:1002C00004010322C3F88020AA22C3F88C205522FF
:1002D000C3F88C201A46D2F8883013F0407FFAD049
:1002E000214B9C4207DD1D4B1A6822F4704242F4F8
:1002F00080421A6025E01D4B9C4207DD174B1A68AF
:1003000022F4704242F440521A601AE0184B9C42A8
:1003100007DD124B1A6822F4704242F400521A6050
:100320000FE0144B9C4207DD0C4B1A6822F470421C
:1003300042F480521A6004E0084B1A6822F47042BA
:100340001A600D4B1C600D4B1C600120F8BD002095
:10035000F8BD0020F8BD0020F8BD00BF00C00F4070
:10036000141E0100C41E010000B4C40400879303DE
:10037000005A6202002D31010000001030650010AB
:100380004AB10A4B53F820301A68012000FA01F1F3
:10039000114319607047054B53F820301A6801204B
:1003A00000FA01F122EA010119607047841F01007F
:1003B0004AB10A4B53F820309A69012000FA01F142
:1003C000114399617047054B53F82030DA690120D9
:1003D00000FA01F11143D961704700BF841F010089
:1003E0002DE9F0410B204221002200F09DFADFF8B8
:1003F000BC81C8F800000B204221002200F094FAD2
:10040000664F38600B204221002200F08DFA644EC6
:1004100030600B204221002200F086FA614D2860F6
:10042000614CD8F8000021463222002300F09EFAE9
:10043000386821463222002300F098FA30682146BD
:100440003222002300F092FA28682146322200234B
:1004500000F08CFAD8F8000021463222002300F088
:1004600085FA386821463222002300F07FFA30688E
:1004700021463222002300F079FA286821463222F0
:10048000002300F073FAD8F800002146322200233E
:1004900000F06CFA386821463222002300F066FA38
:1004A000306821463222002300F060FA2868214695
:1004B0003222002300F05AFAD8F8000021463222F6
:1004C000002300F053FA386821463222002300F05E
:1004D0004DFA306821463222002300F047FA28689E
:1004E00021463222002300F041FAD8F800002146CC
:1004F0003222002300F03AFA3868214632220023E3
:1005000000F034FA306821463222002300F02EFA3F
:10051000286821463222002300F028FAD8F800008B
:1005200021463222002300F021FA38682146322287
:10053000002300F01BFA306821463222002300F02D
:1005400015FA286821463222002300F00FFA002510
:100550004746124E1AE0386821463222002300F046
:1005600071FA306821463222002300F06BFA0C4BFE
:10057000186821463222002300F064FA094B1868FB
:1005800021463222002300F05DFA0135022DE2DD22
:1005900000F0ACFE00F01AFCBDE8F08180650010B0
:1005A0007C6500108465001038650010346500100B
:1005B00000B585B0002016210122FFF7E1FE0120E1
:1005C0000F210246FFF7DCFE01200E210246FFF755
:1005D000D7FE002300930193029303930448054937
:1005E00040F2262200F076FB05B05DF804FB00BF68
:1005F000E1030100941F0100FEE700BFFEE700BF1A
:10060000FEE700BFFEE700BFFEE700BFFEE700BF5A
:10061000FEE700BF08B50B4B0B4A0C4803E011681E
:100620001960043304328342F9D3094809494FF071
:1006300000028842B8BF40F8042BFFF6FAAF01F081
:1006400055F8FEE7000000104421010014000010DE
:1006500014000010D466001070B50B4C0026012564
:1006600023680BB9256000E0266028460F21226828
:10067000FFF79EFE304616212268FFF799FE3220D2
:1006800000F0FEFCECE700BF1400001008B50248C3
:10069000FFF7AAFD08BD00BF0020A10700B585B087
:1006A000FFF7F4FFFFF784FF002300930193029309
:1006B000039305480549962200F00CFB00F0BCFBB3
:1006C000012005B05DF804FB59060100A01F0100E0
:1006D0000D4BD3F8C42042F00202C3F8C420D3F873
:1006E000A82122F00C0242F00402C3F8A8214FF026
:1006F000402302225A6000225A6040F6FF12DA605C
:1007000001225A60704700BF00C00F4000F108038B
:1007100043604FF0FF328260C360036100230360D7
:10072000704700BF00230361704700BF43684B6000
:100730009A688A609A685160996008610368013319
:100740000360704730B40D68B5F1FF3F01D1026915
:1007500007E000F1080200E01A4653681C68AC424A
:10076000FAD953684B6099608A60516008610368E8
:100770000133036030BC704703694268816891604F
:100780008268416851605A68824201D182685A6029
:1007900000220261186801381860704710B50446DD
:1007A00000F030FFA26BE36B9A4201D1012400E01C
:1007B000002400F039FF204610BD00BF10B50446EC
:1007C00000F020FFA36B0BB9012400E0002400F02F
:1007D0002BFF204610BD00BF38B504461546026CFD
:1007E0003AB9036843BB406800F0C8FD002363606A
:1007F00022E065B9806800F083FFA268236C13448F
:10080000A3606268934217D32368A36014E0C068B2
:1008100000F076FF226C5242E3681344E3602168E3
:100820008B4202D263681A44E260022D04D1A36BAA
:1008300013B1A36B013BA363A36B0133A36338BD67
:1008400038B5034605685DB1026CC4681444C460E1
:100850004068844200D3DD600846D96800F050FF4C
:1008600038BD00BF38B5044600F0CCFE04F12405C5
:100870000AE0636A5BB1284600F0BEFC08B100F0F4
:100880002FFDA36C013BA364A36C002BF1DC4FF0A4
:10089000FF33A36400F0C8FE00F0B4FE04F11005BD
:1008A0000AE023695BB1284600F0A6FC08B100F01D
:1008B00017FD636C013B6364636C002BF1DC4FF04C
:1008C000FF33636400F0B0FE38BD00BF38B50446A6
:1008D0000D4600F097FE2368E06B226C02FB0031AE
:1008E00061600021A163A360013800FB0233E36073
:1008F0004FF0FF336364A36455B9236983B104F1F6
:10090000100000F079FC01280AD100F063FE07E036
:1009100004F11000FFF7FAFE04F12400FFF7F6FEE1
:1009200000F082FE012038BDF8B50D461746064698
:10093000C8B1542000F09CFD0446A8B105FB06F0A8
:10094000013000F095FD206040B1E663256420464B
:100950000121FFF7BBFF84F8507005E0204600F04E
:10096000E5FD002400E000242046F8BD2DE9F04715
:1009700084B004468A4601921F4600264FF00109C2
:10098000B04600F03FFEA56BE06B854201D3022F1D
:1009900012D1204651463A46FFF71EFF636A3BB12B
:1009A00004F1240000F028FC012801D100F012FE1F
:1009B00000F03AFE012042E0019B1BB900F034FE3A
:1009C00000203CE01EB902A800F052FC4E4600F0A8
:1009D0002BFE00F057FA00F015FE636CB3F1FF3FF9
:1009E00001D1C4F84480A36CB3F1FF3F01D1C4F836
:1009F000488000F019FE02A801A900F045FCC0B92A
:100A00002046FFF7CBFE70B104F11000019900F011
:100A1000D3FB2046FFF726FF00F0C8FA0028B0D12C
:100A200000F0D8FDADE72046FFF71CFF00F0BEFA4E
:100A3000A7E72046FFF716FF00F0B8FA002004B041
:100A4000BDE8F0872DE9F04385B004468946019260
:100A50009846002501272E4600F0D4FDA26B42B334
:100A6000E56820464946FFF7EBFEB8F1000F12D1CA
:100A7000A36B013BA363236813B900F037FC6060EC
:100A8000236993B104F1100000F0B6FB01280CD1EA
:100A900000F0A0FD09E0E560636A33B104F12400D1
:100AA00000F0AAFB08B100F095FD00F0BDFD0120AB
:100AB00049E0019A1AB900F0B7FD002043E01DB9E2
:100AC00002A800F0D5FB3D4600F0AEFD00F0DAF9DB
:100AD00000F098FD636CB3F1FF3F00D16664A36C36
:100AE000B3F1FF3F00D1A66400F09EFD02A801A96A
:100AF00000F0CAFB08BB2046FFF760FEB8B12368D0
:100B000033B900F07FFD606800F0F6FB00F08CFD6B
:100B100004F12400019900F04FFB2046FFF7A2FEEC
:100B200000F044FA002897D100F054FD94E72046E5
:100B3000FFF798FE00F03AFA8EE72046FFF792FEA4
:100B400000F034FA002005B0BDE8F0830A4B1B68C2
:100B50001B680BB9012300E0002323B14FF0FF32E3
:100B6000064B1A607047044B1B68DB68DB685A68E9
:100B7000024B1A60704700BF1C00001004000010F8
:100B800010B50446006B00F0D1FC204600F0CEFC0E
:100B900010BD00BF70B506460D46502000F068FC41
:100BA000044680B11DB9B00000F062FC00E02846A8
:100BB000206320B9204600F0B9FC002403E0A52101
:100BC000B20000F09FFD204670BD00BF70B5044626
:100BD0001646002306E0CD5CE01880F83450C85C6F
:100BE00010B101330B2BF6D9002384F83F30042ECB
:100BF00000D90426E662A664201DFFF793FD04F1E8
:100C00001800FFF78FFD2461C6F10506A661646236
:100C10000023E36470BD00BF38B50024104D06E02A
:100C200004EB840080002844FFF770FD0134042C9D
:100C3000F6D90C4D2846FFF769FD0B4C2046FFF70F
:100C400065FD0A48FFF762FD0948FFF75FFD0948A7
:100C5000FFF75CFD084B1D60084B1C6038BD00BFF2
:100C600054000010EC0000103C000010C800001000
:100C700028000010000100101C000010E40000100B
:100C800010B504460E4B1B6858600E4B1B6898420B
:100C900007D20D4B18680A4B19680431FFF752FD53
:100CA00010BD0A4B1868064B19680431FFF74AFD5E
:100CB000074B1B689C4201D2054B1C6010BD00BF56
:100CC000C4000010E0000010E40000101C00001040
:100CD000040000102DE9F04F83B082468B46154684
:100CE00099460C9FDDF8348010460E99FFF752FFAD
:100CF000044600284CD0036B05F18046013E03EB0F
:100D0000860626F00706009559463A460F9BFFF7E0
:100D10005DFF304651464A4600F03AFC2060B8F18B
:100D2000000F01D0C8F8004000F06CFC214B1A689D
:100D300001321A60204B1B6843B91F4B1C601D4BCE
:100D40001B68012B0CD1FFF767FF09E01B4B1B68E9
:100D500033B9194B1B68DB6ABB4201D8164B1C60C8
:100D6000174A1368013313602364E06A154B1B684C
:100D7000984201D9134B186000EB80008000124BA1
:100D80001844211DFFF7D2FC00F04EFC012401E0C5
:100D90004FF0FF34012C09D1084B1B6833B1064BCF
:100DA0001B68DB6ABB4201D200F014FC204603B092
:100DB000BDE8F08FC0000010C4000010200000103B
:100DC000E8000010140100105400001038B504466B
:100DD00000F018FC0CB9134B1C68251D2846FFF7C2
:100DE000CBFCA36A1BB104F11800FFF7C5FC0E4849
:100DF0002946FFF79BFC0D4B1A6801321A600C4B19
:100E00001A6801321A6000F00FFC0A4B1B6843B1EC
:100E1000044B1B689C4202D100F0DCFB38BDFFF79D
:100E200095FE38BDC40000102800001024000010FA
:100E3000E80000102000001000B585B000230093EA
:100E40000193029303930B480B494022FFF742FFA3
:100E500001280BD100F0CAFB0122084B1A600022C6
:100E6000074B1A60FFF734FC00F028FC05B05DF872
:100E700004FB00BF09110100AC1F0100200000109D
:100E8000E0000010024B1A6801321A60704700BF80
:100E9000B80000102DE9F047394B1B68002B61D1D9
:100EA000384B1A6801321A60D3F80080B8F1000F8D
:100EB0000BD1354A1168354B186810601960344BF6
:100EC0001A6801321A60FFF741FE324B1B689845E1
:100ED00003D200273BE0012705E000272A4EDFF878
:100EE000C890DFF8B8A033681B680BB9012300E095
:100EF000002323B14FF0FF32264B1A6027E03368FE
:100F0000DB68DC686368984502D2224A13601EE001
:100F1000251D2846FFF730FCA36A1BB104F1180019
:100F2000FFF72AFCE36AD9F80020934201D9C9F8F7
:100F3000003003EB8300800050442946FFF7F6FBA6
:100F4000E26A154B1B68DB6A9A42C4D2CBE7124BAC
:100F50001B68DB6A03EB83039B00104AD358012B09
:100F600006D806E00E4B1A6801321A60002700E02E
:100F700001270C4B1B6803B101273846BDE8F087F9
:100F8000B8000010E00000101C000010E400001089
:100F9000DC00001004000010C40000105400001019
:100FA0005000001018010010140100102DE9F0414C
:100FB00000F028FB2A4B1A68013A1A601B68002BC4
:100FC00045D1284B1B680BBB002443E0F368DC6869
:100FD00004F11800FFF7D0FB251D2846FFF7CCFBD6
:100FE000E36A3A68934200D93B6003EB83008000D8
:100FF00040442946FFF79AFBE26A1B4B1B68DB6AF9
:101000009A4207D30122194B1A6003E0184E194F78
:10101000DFF868803368002BD8D1174B1B6843B9C1
:101020000DE0FFF737FF00B135602368013B236017
:1010300002E0114C0D4E01252368002BF1D10B4B22
:101040001B68012B05D100F0C5FA012402E0002441
:1010500000E0002400F0E8FA2046BDE8F08100BF7F
:10106000B8000010C0000010C400001018010010EB
:10107000C8000010140100105000001054000010AF
:1010800010B5044678B1FFF7FDFE094B1B681C4400
:10109000084B18680430FFF76FFB2046FFF7F0FDA0
:1010A000FFF784FF00E0002008B900F093FA10BDBC
:1010B000E0000010C4000010F8B5104D104E114FA4
:1010C00017E0FFF7DFFE3468FFF770FF8CB100F028
:1010D00099FAF368DC68201DFFF74EFB3B68013B83
:1010E0003B602B68013B2B6000F09EFA2046FFF727
:1010F00047FD2B68002BE4D1F8BD00BF2400001091
:1011000028000010C000001008B5044CFFF7D4FF01
:101110002368012BFAD900F05DFAF7E754000010BC
:101120001E4B1B681BB101221D4B1A607047002229
:101130001B4B1A604FF040239B681A4A13601A4AEF
:101140001268934205D9194909689A1AC86C104463
:10115000C864154A1360164A164902E01368013B39
:101160001360136803EB83039B00CB58002BF5D06F
:101170000F4B1B6803EB83039B000E4A13445A6812
:1011800052685A6003F108018A4201D152685A60DC
:101190005B68DA68054B1A60704700BFB800001042
:1011A00018010010BC00001018000010C40000104E
:1011B000140100105400001038B50D460B4C216886
:1011C0001831FFF7BFFA20680430FFF7D5FAB5F100
:1011D000FF3F05D1216806480431FFF7A7FA38BD63
:1011E000044B18682844FFF74BFD38BDC4000010BD
:1011F00000010010E000001038B5C368DC6804F19D
:1012000018052846FFF7B8FA134B1B689BB9251D34
:101210002846FFF7B1FAE36A104A1268934201D9EF
:101220000E4A136003EB83039B000D4818442946C4
:10123000FFF77CFA03E00B482946FFF777FAE26AEA
:10124000094B1B68DB6A9A4203D90120074B1860DF
:1012500038BD002038BD00BFB800001014010010D8
:1012600054000010C8000010C40000101801001045
:10127000034B1B680360034B1B684360704700BF50
:10128000DC000010E000001038B504460D4600F008
:10129000B9F9114B1A682B68B3F1FF3F13D02168DD
:1012A0000E480068814202D0616891420DD96168A0
:1012B000501A83420BD98A1A13442B602046FFF739
:1012C000D7FF002404E0002402E0012400E0012410
:1012D00000F0AAF9204638BDE0000010DC00001044
:1012E0000122014B1A60704718010010014B186869
:1012F000704700BFC400001038B50446002836D03F
:10130000C36A1B4A1268D26A934230D28369002BA7
:1013100005DB174B1B68DB6AC3F105038361626958
:10132000E36A03EB83039B0012490B449A4201D109
:10133000012300E00023B3B1251D2846FFF71CFA66
:101340000B4B1B68DB6AE3620B4A1268934201D9BC
:10135000094A136003EB83039B000648184429469F
:10136000FFF7E4F938BD024B1B68DB6AE36238BD66
:10137000C4000010540000101401001038B50446D9
:10138000F0B1C26A836C9A421AD0051D2846FFF755
:10139000F3F9A36CE362A269002A02DBC3F105033F
:1013A000A361E36A074A1268934201D9054A1360B0
:1013B00003EB83039B00044818442946FFF7B6F962
:1013C00038BD00BF140100105400001010B40D4BC4
:1013D00023F007030C4A13600020506046F2F031FE
:1013E0005A180A4C22605060585059601A60084BD5
:1013F0001A68083A1A604FF00042064B1A605DF80E
:10140000044B704730010010200100101C01001037
:101410000C0000102865001010B4134A00E01A46B2
:1014200013688342FBD351685418844203D1406847
:1014300001445160104641684418A3420CD10B4C42
:101440002468A34206D05B681944416013681B6896
:10145000036002E0046000E00360824200D010609C
:101460005DF8044B704700BF200100101C01001004
:1014700070B50546FFF706FD274B1B680BB9FFF754
:10148000A5FF264B1B681D423BD135B1083515F031
:10149000070F02D025F007050835002D33D0204B6B
:1014A0001B689D4231D81F4A146801E022461C4641
:1014B0006368AB4202D22368002BF7D1164B1B683E
:1014C0009C4224D0166808362368136063685B1B4F
:1014D000102B04D9601943606560FFF79DFF6268B7
:1014E0000F490B689B1A0B600F4909688B4201D2A8
:1014F0000D490B60094B1B681A436260002323608F
:1015000006E0002604E0002602E0002600E00026B7
:10151000FFF74CFD304670BD1C010010286500101F
:101520000C000010200100100800001038B504461F
:10153000D8B1A0F1080550F8043C0C4A12681342D7
:1015400013D050F8081C81B923EA020340F8043C88
:10155000FFF798FC54F8041C054B1A680A441A60FB
:101560002846FFF759FFFFF721FD38BD2865001019
:101570000C00001005480068006880F3088862B617
:10158000BFF34F8FBFF36F8F00DF00BF08ED00E0A8
:101590004FF0807340F8043C40F8081C034B40F8BF
:1015A0000C3C40F8202C4038704700BFFD1501006E
:1015B000074B19680868B0E8F00F80F30988BFF39B
:1015C0006F8F4FF0000080F311884EF00D0E7047C2
:1015D000C40000104FF08052034B1A60BFF34F8FCE
:1015E000BFF36F8F704700BF04ED00E0EFF3118091
:1015F0004FF0000181F311887047002008B5FFF714
:10160000F5FFFEE708B5FFF7F1FF044B1A6801325A
:101610001A60BFF34F8FBFF36F8F08BD100000102B
:1016200080F31188704700BF08B5044A1368013B76
:10163000136013B90020FFF7F3FF08BD100000107E
:10164000EFF30980BFF36F8F0D4B1A6820E9F00F9D
:1016500010602DE908404FF0000080F31188FFF77B
:101660005FFD4FF0000080F31188BDE80840196865
:101670000868B0E8F00F80F30988BFF36F8F7047F8
:10168000C400001008B5FFF7B1FFFFF703FC18B165
:101690004FF08052024B1A600020FFF7C1FF08BDD7
:1016A00004ED00E0034A044B1A600722043B1A6071
:1016B000704700BFFFF3010014E000E008B5094BDC
:1016C0001A6842F478021A601A6842F078421A6086
:1016D000FFF7E8FF0022044B1A60FFF74BFFFFF70C
:1016E0008DFF00BF20ED00E01000001008B50020C5
:1016F0000146024600F008F8BDE80840FEF7CEBFFC
:1017000000F01EBB00F039BB10B500214FF4A072F1
:101710002248FFF7F7FFC02000F0B0F9204C00216D
:10172000C0222060FFF7EEFF206800231B4C282218
:10173000182102FB034201FB03010133082B516214
:10174000F4D122461749002000F097F84FF4805357
:10175000204600214FF4806200F028F804F12802AE
:101760001149012000F089F84FF4805304F128005A
:1017700000214FF4806200F019F804F150020A4988
:10178000022000F07AF804F1500000214FF480624A
:101790004FF48053BDE8104000F008B88C6500108D
:1017A00088650010282101002A21010070B5C46855
:1017B000A50717D0B2F5007F09D0B2F5806F03D02E
:1017C000B2F5807F0ED102E0416A012303E0064DAD
:1017D0005E1EAE4206D8224301610160C361C26051
:1017E000002070BD012070BDFEFFFF0010B5411C40
:1017F000830705D010F8013B002BF9D1401A10BD2A
:10180000024650F8043BA3F1013424EA030414F027
:10181000803FF5D013F0FF0F0AD013F47F4F05D0AF
:1018200013F47F0F14BF0346D31C02E0931C00E0A7
:10183000531C581A10BDC368426A23F0200310B528
:101840005268C3608369044693420FD000F04AF89F
:10185000E368626A23F4405323F0100343F010035B
:10186000E3605368A361236993602360E36823F412
:10187000804323F04003E36010BDF8B50E460746F1
:101880001046154600F00AF93378722B07D0772BF3
:1018900008D0612B23D1082348F2020404E000237E
:1018A000012401E00423022416F8012F2B2A06D07C
:1018B000622A09D144F0040443F00103F4E744F040
:1018C000030443F00203EFE71B07EC606F61284657
:1018D00007D50021022200F02FF92846F8BD00208C
:1018E000F8BDF8BD38B50268436A04460569C068AA
:1018F000996820F40023E36000F08203022B02D0F9
:101900004FF0FF3038BD10F4803016D0914238BF10
:101910001146A94209D1636A00209D60E3682560F1
:1019200023F48033A060E36038BD2846491B22467B
:1019300000F004F80028EED0E2E738BD2DE9F041D0
:10194000D5688046EB020E461446576905D53846E1
:1019500000F03CFA45F01005A061134B2B4053B149
:101960003846A16900F044FA002814DB25F400355C
:1019700025F01005E56032463846414600F044FA4D
:10198000801B18BF6FF0000020F00043F61AA36917
:101990003344A36128B1E3684FF0FF3043F0800384
:1019A000E360BDE8F08100BF10000200F8B52F4BE6
:1019B000C51C1C68AD081F46C0B100260FE0236897
:1019C000B3F1805FA36842D11A68B2F1805F6268A8
:1019D0000ED159680A44033262609A68A260002CF2
:1019E000EDD10C3000F05EF9431C33D10020F8BD7E
:1019F000AA4208DBE91C914205DB20464FF0005368
:101A000040F80C3BF8BD05F10A018A4211D9204685
:101A10004FF00051656040F80C1B00EB8501521B34
:101A2000A160033A4FF0805440F825404A608B6033
:101A3000F8BD63B9A0EB820000F034F90130D5D0D5
:101A40004FF0005384E8280004F10C00F8BD26464E
:101A50001C46C4E74FF0005380E8280084600EB9AC
:101A6000386000E0B0600C30F8BD00BFCC660010FC
:101A700018B14FF0805340F80C3C704710B5FFF799
:101A800095FF044628B90449172200F0BDF900F07B
:101A900091F9204610BD00BF2C2101002DE9F04135
:101AA00000F10C0595E8A001A90788B00446466A34
:101AB00025D02A0716D400F027F8404600F080F918
:101AC0002B0502D53846FFF7D3FFAD0DAD0515F157
:101AD000A54F07D16846216A202200F08FF9684699
:101AE00000F0D6F800211822606AFFF70BFE2046AE
:101AF00000212822FFF706FE6662002001E04FF079
:101B0000FF3008B0BDE8F08138B5044618B1BDE833
:101B1000384000F0E7B805460648204400F0E2F8F7
:101B20002834002818BF4FF0FF35B4F5A07FF3D15B
:101B3000284638BD8C6500102DE9F843C668404B37
:101B4000044633400D469046D0F81490002B72D0D6
:101B5000484600F041F9074600286CD1B8F1010F62
:101B600006D0B8F1020F08D0B8F1000F63D126E01B
:101B7000204600F067F8054421E0484600F026F9C9
:101B8000B0F1000CE06804DA40F08000E06001276A
:101B900052E0626A23689168D4F8188099422CBF99
:101BA000884498442169C1EB0803810603D5526833
:101BB0009342B8BF13466345ACBFED186544002D92
:101BC00039DB16F4005F636A04D022689968914299
:101BD00038BF9A60A269954211DB216898688842F3
:101BE00038BF0846216900EB020CC1EB0C0C6545BF
:101BF00005DCD3F80CC002EB0C08454506DB0022DF
:101C0000A260626046F020065D600EE0AD1AB20789
:101C100044BFCCEB0503A360F30702D5081A2844A0
:101C200060600D44256026F0200626F4032626F089
:101C30004006E66000E002273846BDE8F88300BFB2
:101C400003001000C3689A0705D1104B21221A60C7
:101C50004FF0FF30704713F4002F03F020030AD039
:101C600013B1436A586804E0026883690169134448
:101C7000581A0138704713B1436A586870470268B0
:101C8000836901691344581A704700BF2C6500101E
:101C900010B50446FFF7AAFD01462046BDE81040F6
:101CA00000F0A0B838B50C4B1A680AB90B4A1A6094
:101CB000C51C1C6825F003052544284600F034F8AF
:101CC00018B9054B20461D6038BD054B0C221A6023
:101CD0004FF0FF3038BD00BFD0660010D466001052
:101CE0002C650010C36870B513F00302044619D0C8
:101CF0009B0604D5436A5D68FFF79DFD04E0836998
:101D000005681D440369ED1AE368204623F4405337
:101D1000E360FFF7E7FD0022064629462046FFF76D
:101D20000BFF3246104670BD044B23B1984234BFBE
:101D30000020012070471846704700BF00000000D7
:101D400040EA0103DB07034600F10E800346043A34
:101D500022BF51F804CB43F804CBB2F10402BFF424
:101D6000F7AF043208BF7047013A24BF11F801CB26
:101D700003F801CB3FF6F8AF7047034613F0030FAB
:101D800040F0108001F0FF0141EA012141EA0141E8
:101D9000043A24BF43F8041BB2F10402BFF4F9AFC4
:101DA00002F10402013A24BF03F8011BFFF7FABF56
:101DB0007047000018200149ABBE704726000200A2
:101DC00003B469460220ABBE02B0704703B4694653
:101DD0000C20ABBE02B0704703B469460920ABBE0D
:101DE00002B0704703B469460E20ABBE02B0704724
:101DF00003B469460A20ABBE02B070470FB469460F
:101E00000D20ABBE04B070470FB469460520ABBED1
:101E100004B070470044950808000000000000006E
:101E2000010000000020A1070B00000000000000DE
:101E300002000000AABE4F070B00000000000000D7
:101E40000200000000E1F50518000000010000009C
:101E50000300000000D8B8050800000000000000E2
:101E60000200000000B4C4041800000001000000DB
:101E7000040000000090D0030B00000001000000EF
:101E800002000000006CDC020800000001000000FD
:101E9000020000000048E8010B0000000300000001
:101EA000020000000024F400000000000300000015
:101EB0000100000000000000000000000000000021
:101EC00000000000000E27072C00000000000000AA
:101ED0000200000000E1F5054A00000001000000DA
:101EE00002000000804A5D0559000000010000006A
:101EF0000300000000B4C4046300000001000000FF
:101F000004000000801D2C044500000001000000BA
:101F10000300000000879303590000000100000047
:101F20000500000080F0FA026300000001000000DC
:101F300007000000005A6202630000000100000078
:101F40000900000080C3C901590000000100000021
:101F50000B000000002D31014500000001000000D1
:101F60000D00000080969800450000000100000070
:101F70001B00000000000000000000000000000046
:101F80000000000000C0092020C0092040C0092036
:101F900060C0092074657374000000000D494100A1
:101FA00048617274206265617400000049444C45C8
:101FB000000000000D0D467265654279746573522C
:101FC000656D61696E696E67203D20256C640D2A20
:101FD0002A2A2A2A2A2A2A2A2A2A2A2A2A2A2A2A61
:101FE0002A2A2A2A2A2A2A2A2A2A2A2A2A2A2A2A51
:101FF0002A2A2A2A2A2A2A2A2A2A2A2A2A2A2A2A41
:102000002A2A2A2A2A2A2A2A2A2A2A2A2A2A2A0D4D
:10201000000000005461736B20202020202020202D
:1020200020202020202020202020537461747573EC
:102030002020202020205072696F7269747920203E
:10204000202020202020537461636B20202020203A
:1020500020204E756D0D2A2A2A2A2A2A2A2A2A2A5F
:102060002A2A2A2A2A2A2A2A2A2A2A2A2A2A2A2AD0
:102070002A2A2A2A2A2A2A2A2A2A2A2A2A2A2A2AC0
:102080002A2A2A2A2A2A2A2A2A2A2A2A2A2A2A2AB0
:102090002A2A2A2A2A2A0D00252D3132730925637E
:1020A0000925750925750925750D00000D54617305
:1020B0006B202020202020202020202020202041B4
:1020C00062732054696D652020202020202020206C
:1020D0002525200D2A2A2A2A2A2A2A2A2A2A2A2A91
:1020E0002A2A2A2A2A2A2A2A2A2A2A2A2A2A2A2A50
:1020F0002A2A2A2A2A2A2A2A2A2A2A2A2A0D0000B1
:10210000252D31327309252D37750909252E3166A4
:1021100025250D00252D31327309252D3775090927
:102120003025250D00000000720077002A2A2A20A1
:102130005F437379735F616C6C6F63206661696C78
:0421400065640A00C8
:1021440000093D00FFFFFFFFF8630000F863000093
:04215400AAAAAAAADF
:0400000310000615CE
:00000001FF
