:020000021000EC
:100000000080001045010100090101000B01010001
:100010000D0101000F0101001101010000000000AD
:10002000000000000000000000000000210E0100A0
:100030001301010000000000810E0100C50E010047
:10004000150101000524010019240100C923010044
:100050001501010015010100E9310100A52C010085
:100060001501010015010100150101001501010034
:100070001501010015010100150101001501010024
:100080001501010015010100F128010001290100FD
:1000900011290100212801001501010015010100AD
:1000A00015010100150101001501010015010100F4
:1000B00015010100150101001501010015010100E4
:1000C000150101001501010015010100F8B601003C
:1000D00000000010EC010000F8B6010000C007208D
:1000E00000000000F8B6010000C807200000000072
:1000F000EC0100109816000000C00720000000006E
:1001000000C80720383F0000FEE7FEE7FEE7FEE7F5
:10011000FEE7FEE7FEE70023934209D210B450F851
:10012000044B41F8044B04339342F8D310BC70479E
:10013000704700238B4204D2002240F8042B043382
:10014000F8E7704710B572B60E4B07E003F10C04E8
:100150009A6859681868FFF7DEFF23460A4A9342F7
:10016000F4D306E01C46596854F8080BFFF7E1FF8A
:100170002346064A9342F5D300F080FB00F062FB71
:10018000FEE700BFCC000100F00001000801010003
:10019000FEE7FEE7FEE700BFFFFFFFFFFFFFFFFFF9
:1001A000FFFFFFFFFFFFFFFFFFFFFFFFFFFFFFFF5F
:1001B000FFFFFFFFFFFFFFFFFFFFFFFFFFFFFFFF4F
:1001C000FFFFFFFFFFFFFFFFFFFFFFFFFFFFFFFF3F
:1001D000FFFFFFFFFFFFFFFFFFFFFFFFFFFFFFFF2F
:1001E000FFFFFFFFFFFFFFFFFFFFFFFFFFFFFFFF1F
:1001F000FFFFFFFFFFFFFFFFFFFFFFFFFFFFFFFF0F
:10020000FFFFFFFFFFFFFFFFFFFFFFFFFFFFFFFFFE
:10021000FFFFFFFFFFFFFFFFFFFFFFFFFFFFFFFFEE
:10022000FFFFFFFFFFFFFFFFFFFFFFFFFFFFFFFFDE
:10023000FFFFFFFFFFFFFFFFFFFFFFFFFFFFFFFFCE
:10024000FFFFFFFFFFFFFFFFFFFFFFFFFFFFFFFFBE
:10025000FFFFFFFFFFFFFFFFFFFFFFFFFFFFFFFFAE
:10026000FFFFFFFFFFFFFFFFFFFFFFFFFFFFFFFF9E
:10027000FFFFFFFFFFFFFFFFFFFFFFFFFFFFFFFF8E
:10028000FFFFFFFFFFFFFFFFFFFFFFFFFFFFFFFF7E
:10029000FFFFFFFFFFFFFFFFFFFFFFFFFFFFFFFF6E
:1002A000FFFFFFFFFFFFFFFFFFFFFFFFFFFFFFFF5E
:1002B000FFFFFFFFFFFFFFFFFFFFFFFFFFFFFFFF4E
:1002C000FFFFFFFFFFFFFFFFFFFFFFFFFFFFFFFF3E
:1002D000FFFFFFFFFFFFFFFFFFFFFFFFFFFFFFFF2E
:1002E000FFFFFFFFFFFFFFFFFFFFFFFFFFFFFFFF1E
:1002F000FFFFFFFFFFFFFFFFFFFFFFFFFFFFFFFF0E
:100300007047FFFF024A936943F00103936170470E
:1003100040C00920024AD36943F00103D36170470A
:1003200040C00920024AD36943F08003D36170477B
:1003300040C0092008B5234B1A6922F003021A6154
:100340001A6D22F0030242F008021A651A6922F4BB
:1003500040421A611A6D22F4404242F400321A659A
:10036000194B1A6842F001021A601A6842F08002C2
:100370001A60FFF7CFFFFFF7D5FF02F0C5F901F0D4
:10038000E3FF01F0ABFF01F089FF05F05DFB02F038
:100390007FFD02F0C5FA05F041F902F0C3FF02F05B
:1003A000F7FE03F075F903F003FA03F083FB04F0A2
:1003B0008BFA04F0E3FA04F009FD05F02DF905F0DD
:1003C00005FC08BD00C0024040C0092008B54FF040
:1003D000402006F039F84FF0402302225A600022F4
:1003E0005A6040F6FF12DA6001225A6008BDFFFF32
:1003F00080B596B000AF734BBB61734BFB61734B21
:100400003B62012387F82430012387F8253007F168
:100410001803184604F0F2F96D4B3B606D4B7B609E
:100420004FF00003BB604FF000033B614FF000034F
:10043000FB603B46184604F011FA97F82430012B74
:1004400040F0D88004F0D4FAF86304F0CDFAB86331
:10045000FB6B012283F83420FB6B4FF07E529A60D5
:10046000FB6B4FF00002DA60FB6B4FF000021A6189
:10047000FB6B4FF000029A61FB6B574A1A62FB6BF1
:10048000564A5A62FB6B01221A77BB6B012283F832
:100490003420BB6B4FF07E529A60BB6B4FF0000272
:1004A000DA60BB6B4FF000021A61BB6B4FF00002C9
:1004B0009A61BB6B484A1A62BB6B484A5A62BB6B73
:1004C00001221A7704F088FA786304F089FA386315
:1004D0007B6B012283F834207B6B4FF07E529A6055
:1004E0007B6B4FF00002DA607B6B4FF000021A6109
:1004F0007B6B4FF000029A617B6B394A1A627B6B0F
:10050000384A5A627B6B01221A773B6B012283F8CF
:1005100034203B6B4FF07E529A603B6B4FF00002F1
:10052000DA603B6B4FF000021A613B6B4FF0000248
:100530009A613B6B2A4A1A623B6B2A4A5A623B6BAE
:1005400001221A7704F080FCF86204F081FCB862A2
:10055000FB6A012283F83420FB6A4FF07E529A60D6
:10056000FB6A4FF00002DA60FB6A1F4A1A61FB6AFD
:100570004FF000029A61FB6A1C4A1A62FB6A1C4A2D
:100580005A62FB6A00221A77BB6A012283F8342080
:10059000BB6A4FF07E529A60BB6A4FF00002DA608D
:1005A000BB6A114A1A61BB6A4FF000029A61BB6ACA
:1005B0000E4A1A62BB6A0E4A5A62BB6A00221A7756
:1005C000CCE000BF6666E841008CAB457CF230BBF6
:1005D00000007A4300007A440000F0410000F0C1BE
:1005E00000004842000048C20AD7233C00002041D6
:1005F000000020C104F0FCF9786504F0F5F93865D5
:100600007B6D012283F834207B6D5D4A9A607B6D9F
:100610004FF00002DA607B6D5A4A1A617B6D4FF031
:1006200000029A617B6D584A1A627B6D574A5A6282
:100630007B6D01221A773B6D012283F834203B6DDC
:100640004F4A9A603B6D4FF00002DA603B6D4D4AB5
:100650001A613B6D4FF000029A613B6D4A4A1A6283
:100660003B6D4A4A5A623B6D01221A7704F0B4F995
:10067000F86404F0B5F9B864FB6C012283F8342007
:10068000FB6C4FF07E529A60FB6C414ADA60FB6C67
:10069000404A1A61FB6C4FF000029A61FB6C3A4AC7
:1006A0001A62FB6C394A5A62FB6C01221A77BB6CE6
:1006B000012283F83420BB6C374A9A60BB6C344A01
:1006C000DA60BB6C354A1A61BB6C4FF000029A616C
:1006D000BB6C2D4A1A62BB6C2C4A5A62BB6C01225D
:1006E0001A7704F0B1FB786404F0B2FB38647B6CD9
:1006F000012283F834207B6C254A9A607B6C4FF092
:100700000002DA607B6C4FF000021A617B6C4FF0E4
:1007100000029A617B6C224A1A627B6C214A5A62FF
:100720007B6C00221A773B6C012283F834203B6CEF
:100730001D4A9A603B6C4FF00002DA603B6C1B4A2A
:100740001A613B6C4FF000029A613B6C144A1A62CA
:100750003B6C144A5A623B6C00221A774FF07E526F
:100760004FF07E51084804F093FB4FF080424FF069
:100770008041054804F094FB00BF5837BD4680BD5A
:100780007B14AE3DCDCC0C3F0000F0410000F0C129
:10079000CDCC4C3DCDCC4C3C9A99193FCDCCCC3CEA
:1007A00000002041000020C10AD7233C6666663F56
:1007B00010B5084C2146084805F0D6FD204605F046
:1007C00021FF05F085FB05F023FF044800F068FADF
:1007D00010BD00BF0024F4000020A107000000109D
:1007E00010B5174B1A6842F480421A601A6842F436
:1007F00000421A601A6842F480321A60DA6942F4E0
:100800008032DA61DA6942F40042DA61DA6942F48C
:100810008042DA6100240AE0094A936943F4804384
:10082000936184F0010442F2107001F08DF9002C04
:10083000F2D1034AD36943F48043D361F1E700BFA7
:1008400020C0092010B582B0FFF7B2FFFFF772FD9C
:10085000002301930124009432220649064800F047
:1008600079FFFFF7C5FD62B601F008F8204602B037
:1008700010BD00BFD8AC0100E107010008B5034A74
:10088000034B1A6005F0DEFD08BD00BF000001004B
:1008900008ED00E038B50A46454C4649204607F0C9
:1008A0005DF85A2384F84830FE2384F84930022347
:1008B00084F8A230062384F8A130204607F06EF8B1
:1008C0004B2832D94B233A4880F8A03007F066F81D
:1008D0004B282FD94B22364C214604F1A30006F0B9
:1008E000C7FB4E2384F84A30502204F1A00104F1E2
:1008F0004B0006F0BDFB0A23A4F89C3004F148002D
:1009000002F0FCFE014604F1F0055D22284606F0E7
:10091000AFFB8022294604F5A87006F0A9FB03214D
:10092000022002F054FB00230BE0204607F036F8CB
:10093000C3B2C8E71E4807F031F80246CBE700BF54
:10094000013340F6B7329342F9DD0321022002F071
:1009500033FB00220FE000BF01330F2BFBDD164BF2
:100960005B6913F0260F05D100230F2BF7DC00BFC6
:100970000133FAE701325C2A07DC0D4B134493F88C
:1009800050110D4B19600023E7E70023632B02DCB5
:1009900000BF0133FAE70321022002F018FB4FF0F9
:1009A000280383F31188BFF36F8FBFF34F8FFEE7E8
:1009B00000000820E8AC0100000001401AB908421C
:1009C00006D11046704731EA000303D0002070477B
:1009D000012070470120704710B5182000F0D4F8AE
:1009E000044620B1002340F8043B00F09BF9204668
:1009F00010BDFFFF2DE9F84306460D4690461F4601
:100A0000DDF8209000F072FF34683A46294620460F
:100A1000FFF7D4FF40B1B8F1000F19D024EA050365
:100A200033604FF0000915E0B9F1000F12D0B8F1B2
:100A3000000F0AD100210FB141F080614A462943DD
:100A4000301D01F0FFF8002404E04FF08071F2E760
:100A50004FF0000900F0D8FFB9F1000F10D038B9FD
:100A6000124B4FF080521A60BFF34F8FBFF36F8F5E
:100A700001F00AFA044610F0007F04D024F07F440D
:100A80002046BDE8F88300F0DDF934683A4629468F
:100A90002046FFF793FF28B1B8F1000F02D024EAF7
:100AA0000505356000F0DEF9E8E700BF04ED00E081
:100AB00070B505460C4600F0C5F92E6826EA040418
:100AC0002C6000F0CFF9304670BDF8B504460D46F5
:100AD00000F10C0600F00AFF206923682B43236015
:100AE00000270AE0216832EA010105D111E02168FE
:100AF00041F0007101F006F92846B0420ED0456879
:100B0000036823F07F4213F0806FEBD1216811421C
:100B1000F2D013F0807FEAD01743E8E7236823EA96
:100B20000707276000F070FF2068F8BD08B5FFF7E1
:100B3000CCFF08BD10B4124B1A461B688342FBD38E
:100B400051685418844209D041684418A3420AD01D
:100B50000360904200D0106010BC704740680144B0
:100B600051601046F0E7074C2468A34206D05B684A
:100B70001944416013681B680360EAE70460E8E712
:100B800004020010EC01001070B5054600F0AEFE46
:100B9000274B1B681D4243D135B1083515F0070FAF
:100BA00002D025F007050835002D3BD0214B1B68EE
:100BB000AB4239D3204A146801E022461C466368E0
:100BC000AB4202D22368002BF7D11C4B1B68A34217
:100BD0002CD0166808362368136063685B1B102BE3
:100BE00018D8626813490B689B1A0B60144909688E
:100BF0008B4201D212490B600D4B1B68134363609B
:100C0000002323600F4A13680133136000F0FCFED9
:100C1000304670BD601943606560FFF78BFFE0E709
:100C20000026F3E70026F1E70026EFE70026EDE7D0
:100C3000F0010010F401001004020010EC0100109B
:100C4000F8010010FC01001018B338B50446A0F1FB
:100C5000080550F8043C0F4A1268134202D050F8BD
:100C6000081C01B138BD23EA020340F8043C00F03F
:100C70003DFE54F8041C084A13680B4413602846D0
:100C8000FFF758FF054A13680133136000F0BCFEFC
:100C9000E8E77047F0010010F401001000020010B6
:100CA000F0B4024600210E4614E0194C25681344A6
:100CB000083B23F00703236000245C601C6014469B
:100CC0009F1A5760136005B12A6063681E440131A2
:100CD00000EBC102536883B1126812F0070F05D010
:100CE000D41D24F00704121B134422460029DCD132
:100CF000084C226000256560D7E7074B1E60074B54
:100D00001E60074B4FF000421A60F0BC704700BFF6
:100D1000EC01001004020010F8010010F4010010B2
:100D2000F001001000F1080343604FF0FF328260D1
:100D3000C3600361002303607047002303617047B1
:100D400043684B609A688A605160996008610368E3
:100D500001330360704730B40D68B5F1FF3F11D027
:100D600000F108031C465B681A68AA42FAD9636856
:100D70004B6099608C6061600861036801330360B7
:100D800030BC70470469F2E70369416882688A6091
:100D9000416851605A68824206D0002202611A6896
:100DA000013A1A601868704782685A60F5E782B0A5
:100DB000002301934FF0280383F31188BFF36F8F53
:100DC000BFF34F8F019B002BFCD002B07047FFFF99
:100DD00006480068006880F3088862B661B6BFF311
:100DE0004F8FBFF36F8F00DF00BF000008ED00E002
:100DF0004FF0807340F8043C21F0010140F8081CDA
:100E0000034B40F80C3C40F8202C4038704700BFA2
:100E1000AF0D0100FFFFFFFFFFFFFFFFFFFFFFFF21
:100E2000074B19680868B0E8F00F80F30988BFF332
:100E30006F8F4FF0000080F311884EF00D0E704759
:100E40005C0200104FF0280383F31188BFF36F8F0B
:100E5000BFF34F8F024A136801331360704700BF1E
:100E600010000010034A1368013B13600BB983F3B1
:100E70001188704710000010FFFFFFFFFFFFFFFF0A
:100E8000EFF30980BFF36F8F0D4B1A6820E9F00F65
:100E900010602DE908404FF0280080F3118800F021
:100EA0006DFE4FF0000080F31188BDE8084019681E
:100EB0000868B0E8F00F80F30988BFF36F8F7047C0
:100EC0005C02001008B54FF0280383F31188BFF3CC
:100ED0006F8FBFF34F8F00F017FD18B1034B4FF02A
:100EE00080521A60002383F3118808BD04ED00E0EE
:100EF000054B00221A6005490A60054A43F2FF11BA
:100F0000116007221A60704710E000E018E000E06E
:100F100014E000E010B50B4B1A6842F478021A6036
:100F20001A6842F078421A60FFF7E2FF0024064B8D
:100F30001C60FFF74DFF00F021FEFFF738FF204651
:100F400010BD00BF20ED00E01000001010B50446F9
:100F5000FFF778FFA26BE36B9A4204D00024FFF7FF
:100F600081FF204610BD0124F9E710B50446FFF7C4
:100F700069FFA36B23B90124FFF774FF204610BD5E
:100F80000024F9E770B504461546866B026C5AB921
:100F900003681BB100200136A66370BD806800F0B5
:100FA00033FF0023A360F6E76DB9406806F060F8F0
:100FB000226C636813446360A268934219D3236868
:100FC00063602846E7E7C06806F052F8226C514299
:100FD000E3689B1AE3602268934202D2A3680B4441
:100FE000E360022D01D00020D5E726B1013E0020AC
:100FF000D1E72846CFE70020CDE70346026C6AB16F
:1010000010B50846D9681144D9609C68A14201D343
:101010001968D960D96806F02BF810BD704738B54B
:101020000546FFF70FFF95F8454064B203E000F076
:10103000CFFE013C64B2002C08DD6B6A33B105F1D0
:10104000240000F023FE0028F3D0F0E7FF2385F80A
:101050004530FFF707FFFFF7F5FE95F8444064B20F
:1010600003E000F0B5FE013C64B2002C08DD2B6902
:1010700033B105F1100000F009FE0028F3D0F0E7CD
:10108000FF2385F84430FFF7EDFE38BD38B5044640
:101090000D46FFF7D7FE2168E26B236C03FB0210BD
:1010A000A0600020A0636160013A02FB0313E360CB
:1010B000FF2384F8443084F84530A5B923691BB96F
:1010C000FFF7D0FE012038BD04F1100000F0DEFD76
:1010D0000028F5D0084B4FF080521A60BFF34F8FB5
:1010E000BFF36F8FECE704F11000FFF71BFE04F174
:1010F0002400FFF717FEE3E704ED00E010B5034618
:1011000002980C4631B90060C36304640121FFF703
:10111000BDFF10BD0260F7E7F0B583B004460D4691
:10112000164601FB00F04830FFF72EFD074638B1A8
:101130000090334600F1480229462046FFF7DEFFC3
:10114000384603B0F0BDFFFFF0B585B004460F464A
:1011500001921D46002639E02A4639462046FFF70F
:1011600011FF636A6BB938B13C4B4FF080521A6083
:10117000BFF34F8FBFF36F8FFFF774FE012005B0F1
:10118000F0BD04F1240000F081FD0028F4D0334BC1
:101190004FF080521A60BFF34F8FBFF36F8FEBE7B2
:1011A000FFF760FE0020EAE702A800F0D7FD012665
:1011B00019E0002384F8443021E0002384F845300E
:1011C00023E02046FFF72BFF00F01EFCFFF73AFE5E
:1011D000A26BE36B9A42BFD3022DBDD0019B002BC3
:1011E000DED0002EE0D0FFF73DFE00F07FFBFFF7E2
:1011F00029FE94F8442052B2B2F1FF3FD9D094F8BE
:10120000452052B2B2F1FF3FD7D0FFF72BFE01A924
:1012100002A800F0AFFDC8B92046FFF797FE0028EE
:10122000CFD0019904F1100000F0FEFC2046FFF73A
:10123000F6FE00F0E9FB0028C8D1084B4FF08052C1
:101240001A60BFF34F8FBFF36F8FBFE72046FFF7E2
:10125000E6FE00F0D9FB002091E700BF04ED00E0BE
:10126000F8B5044616461A46EFF311874FF02803E7
:1012700083F31188BFF36F8FBFF34F8F806BE36BE6
:10128000984205D3022A03D0002087F31188F8BDC5
:1012900094F845506DB2A36B2046FFF773FEB5F18D
:1012A000FF3F05D001356DB284F845500120ECE7D1
:1012B000636A0BB90120E8E704F1240000F0E6FCC2
:1012C00018B126B101203060DFE70120DDE7012001
:1012D000DBE7FFFFF0B585B004460F46019200261C
:1012E0003CE039462046FFF788FE013DA5632369AF
:1012F00023B9FFF7B7FD012005B0F0BD04F11000E0
:1013000000F0C4FC0028F4D0344B4FF080521A6037
:10131000BFF34F8FBFF36F8FEBE7FFF7A3FD002005
:10132000EAE702A800F01AFD012621E0002384F874
:10133000443029E0002384F845302BE02046FFF7B5
:101340006EFE00F061FB09E02046FFF768FE00F04A
:101350005BFB2046FFF709FE00283DD1FFF772FD39
:10136000A56B002DBDD1019B002BD6D0002ED8D06F
:10137000FFF778FD00F0BAFAFFF764FD94F8443007
:101380005BB2B3F1FF3FD1D094F845305BB2B3F11B
:10139000FF3FCFD0FFF766FD01A902A800F0EAFCED
:1013A0000028D1D12046FFF7E0FD0028C6D00199E2
:1013B00004F1240000F038FC2046FFF730FE00F076
:1013C00023FB0028CAD1054B4FF080521A60BFF3AF
:1013D0004F8FBFF36F8FC1E700208DE704ED00E072
:1013E0000023092B0CD8074A52F833200AB10133E5
:1013F000F7E7044A42F8331002EBC3035860704722
:10140000704700BF0C02001070B504460D4616462A
:10141000FFF718FD94F844305BB2B3F1FF3F0DD0F5
:1014200094F845305BB2B3F1FF3F0BD0FFF71AFDE4
:10143000A36B5BB12046FFF7F2FD70BD002384F87B
:101440004430EDE7002384F84530EFE73246294683
:1014500004F1240000F008FCECE7FFFF084B1B68D8
:101460001B6823B9074B4FF0FF321A607047044BDB
:101470001B68DB68DB685A68024B1A60704700BF64
:10148000600200100C03001010B50446006BFFF75B
:10149000DBFB2046FFF7D8FB10BD2DE9F047804667
:1014A0000D4617469946089EDDF824A00A9C920036
:1014B000A521206B05F0EAFD236B07F18042013A7C
:1014C00003EB820727F00707A76485B30022132ADE
:1014D00007D8A95CA31883F83410AB5C0BB10132B8
:1014E000F5E7002384F84730042E00D90426E6628D
:1014F000E66400252565201DFFF71FFC04F1180098
:10150000FFF71BFC2461C6F10506A66164626565F0
:1015100084F858504A4641463846FFF769FC206037
:10152000BAF1000F01D0CAF80040BDE8F0870023EF
:1015300084F83430D8E7FFFF38B50024042C08D8ED
:1015400004EB840293000E481844FFF7EBFB0134D0
:10155000F4E70C4D2846FFF7E5FB0B4C2046FFF760
:10156000E1FB0A48FFF7DEFB0948FFF7DBFB094810
:10157000FFF7D8FB084B1D60084B1C6038BD00BF4F
:1015800068020010E0020010F402001018030010BE
:1015900044030010300300106002001064020010C9
:1015A00010B50446FFF74EFC204A13680133136060
:1015B0001F4B1B685BB11F4B1B686BB91C4B1B6837
:1015C000DA6AE36A9A4207D8194B1C6004E0184BA8
:1015D0001C601368012B26D0174A1368013313606F
:1015E000E06A01238340154A11680B43136000EB46
:1015F0008000211D124B03EB8000FFF7A1FBFFF7DA
:1016000031FC0C4B1B686BB1094B1B68DA6AE36A4F
:101610009A4207D20B4B4FF080521A60BFF34F8FA4
:10162000BFF36F8F10BDFFF787FFD5E7CC02001027
:101630005C0200102C030010D8020010DC02001025
:101640006802001004ED00E00F4B1B68D3B110B529
:10165000FFF7F8FB0D4BDB68DC68201DFFF794FB00
:101660000B4A1368013B1360074A1368013B136080
:10167000FFF7F8FB2046FFF707FF034B1B68002B23
:10168000E6D110BD704700BFD00200104403001027
:10169000CC02001008B5FFF7D7FF064B1B68012BE3
:1016A000F9D9054B4FF080521A60BFF34F8FBFF34B
:1016B0006F8FF0E76802001004ED00E070B504469B
:1016C0000D461D4B1E681D4B18680430FFF75CFB70
:1016D00050B91A4B1B68DA6A012303FA02F218495F
:1016E0000B6823EA02030B60B4F1FF3F0DD03444D2
:1016F000124B1B685C60A64210D9124B18680F4B46
:1017000019680431FFF727FB70BD002DEFD00B4B9C
:10171000196804310C48FFF713FBF5E70B4B186809
:10172000064B19680431FFF716FB094B1B68A342EF
:10173000EAD9074B1C60E7E7580300105C02001071
:10174000DC02001064020010300300106002001080
:101750000C0300102DE9F04385B007468846144677
:101760001E469000FFF710FAF0B181465C20FFF7AB
:101770000BFA0546A0B1C0F83090D5B10023039311
:1017800002950D9B01930C9B0093334622464146E4
:101790003846FFF782FE2846FFF702FF012005E0EA
:1017A0004846FFF751FAE8E74FF0FF3005B0BDE8D3
:1017B000F0834FF0FF30F9E738B50446FFF742FBFE
:1017C000002C33D0251D2846FFF7DEFA68B9E26AFF
:1017D00002EB82039B002049CB5833B9012393408D
:1017E0001E490A6822EA03020A60A36A1BB104F1D7
:1017F0001800FFF7C9FA1A4A136801331360194B2E
:101800001B68A34215D0184A1368013B1360204699
:10181000FFF73AFEFFF722FEFFF724FB134B1B688E
:101820001BB1104B1B68A3420CD038BD0D4B1C687C
:10183000C8E729460E48FFF783FA0E4A13680133BA
:101840001360E9E70C4B4FF080521A60BFF34F8FE3
:10185000BFF36F8FE9E700BF68020010DC020010E1
:10186000D80200105C020010CC0200102C03001003
:1018700044030010D002001004ED00E000B583B076
:10188000144B019300230093322213491348FFF7AE
:1018900061FF012804D0012805D003B05DF804FBE6
:1018A00000F060FBF7E74FF0280383F31188BFF3E4
:1018B0006F8FBFF34F8F0A4B4FF0FF321A60094B07
:1018C00001221A60084B00221A60FEF77FFDFFF725
:1018D00021FBE2E70803001014AD0100951601009A
:1018E0000C0300102C03001058030010024A136868
:1018F00001331360704700BFD4020010014B186819
:10190000704700BF58030010F8B5344B1B68002B1C
:101910005DD1334B1E6801361E60AEB1314B1B6882
:10192000B3424AD90027304B1B68DB6A03EB8303C1
:101930009A002E4B9B58012B00D901272C4B1B687A
:10194000002B49D0012747E02A4A11682A4B186822
:1019500010601960294A136801331360FFF77EFD98
:10196000DCE70127234B1B681B6843B3214B1B6833
:10197000DB68DC6863689E4226D3251D2846FFF796
:1019800003FAA36A1BB104F11800FFF7FDF9E36A3B
:1019900001229A401A49086802430A6003EB830354
:1019A0009A00294611481044FFF7CAF9E26A0E4B23
:1019B0001B68DB6A9A42D4D2D4E70027D2E7094BEE
:1019C0004FF0FF321A60AEE7064A1360ABE70D4AEC
:1019D00013680133136000273846F8BDD4020010A5
:1019E000580300100C0300105C0200106802001085
:1019F0005C0300106002001064020010100300106D
:101A0000DC0200101403001038B5FFF71BFA2D4B51
:101A10001A68013A1A601B68002B4DD12A4B1B68CB
:101A20000BB9002449E00024284B1B681BB3274B4B
:101A3000DB68DC6804F11800FFF7A6F9251D2846CD
:101A4000FFF7A2F9E06A01238340214A11680B43A2
:101A5000136000EB800029461E4B03EB8000FFF76C
:101A60006FF9E26A1C4B1B68DB6A9A42DCD31B4BA2
:101A700001221A60D8E70CB1FFF7F0FC184B1C6884
:101A800074B9164B1C68C4B1164B4FF080521A60E3
:101A9000BFF34F8FBFF36F8F01240EE0013C07D0DF
:101AA000FFF732FF0028F9D00C4B01221A60F5E74E
:101AB0000B4B00221A60E4E70024FFF7D3F920461D
:101AC00038BD00BFD4020010CC0200101803001073
:101AD000DC020010680200105C0200105C030010C1
:101AE0001403001004ED00E038B505460C46FFF77E
:101AF000FDFE134B18682A681444824209D9A24299
:101B000001D82C600EE0A04201D32C600AE02C60CA
:101B100004E0A24201D8A04210D22C600021201A79
:101B2000FFF7CCFDFFF770FF38B9064B4FF080523E
:101B30001A60BFF34F8FBFF36F8F38BD2C60F1E792
:101B40005803001004ED00E010B540B90A4B4FF007
:101B500080521A60BFF34F8FBFF36F8F10BD0446E2
:101B6000FFF7C4FE00212046FFF7A8FDFFF74CFF5A
:101B70000028F3D1EAE700BF04ED00E0254B1B6825
:101B80001BB1254B01221A60704710B5224B002271
:101B90001A60224B1B681B6B1A68B2F1A53F03D178
:101BA0005A68B2F1A53F26D01C4B18681968343129
:101BB000FEF770FE1A4B1B68B3FA83F3DBB2C3F176
:101BC0001F03184903EB830082000A4450684068F1
:101BD000506003EB8304A20014460832114488428B
:101BE00012D003EB83039A000E4B13445B68DA6850
:101BF0000A4B1A6010BD9A68B2F1A53FD4D1DB68D8
:101C0000B3F1A53FD0D1D5E74068064A22445060E1
:101C1000E7E700BFD40200105C0300105C02001074
:101C2000DC0200106802001010B50C46044B196865
:101C30001831FFF790F801212046FFF73FFD10BD56
:101C40005C02001010B51446064B1A6841F00041C2
:101C5000916119681831FFF773F801212046FFF7E9
:101C60002DFD10BD5C02001038B50D461446064B24
:101C700019681831FFF764F80CB14FF0FF352146B1
:101C80002846FFF71BFD38BD5C02001038B5C3685D
:101C9000DC6804F118052846FFF776F8134B1B683B
:101CA000E3B9251D2846FFF76FF8E06A012383405A
:101CB0000F4A11680B43136000EB800029460D4B5F
:101CC00003EB8000FFF73CF8E26A0B4B1B68DB6A12
:101CD0009A4208D90120094B186038BD29460848A6
:101CE000FFF72EF8F0E70020F7E700BFD40200105E
:101CF000DC020010680200105C0200105C0300109F
:101D00001803001038B541F000410160C468FFF7C6
:101D10003BF8251D2846FFF737F8E06A012383408A
:101D20000A4A11680B43136000EB80002946084BF8
:101D300003EB8000FFF704F8E26A064B1B68DB6ADE
:101D40009A4202D9044B01221A6038BDDC0200100D
:101D5000680200105C0200105C030010034B1B685B
:101D60000360034B1B684360704700BF1003001003
:101D700058030010F8B504460D46FFF763F8124B00
:101D800019686368C81A2A68B2F1FF3F14D027683F
:101D90000E4E3668B74201D08B4212D9824203D828
:101DA00000232B60012408E05B1A13442B602046BB
:101DB000FFF7D4FF002400E00024FFF753F820468B
:101DC000F8BD0124F9E700BF58030010100300100C
:101DD000014B01221A6070475C030010014B186828
:101DE000704700BF5C020010054B1B6833B1054B08
:101DF0001B680BB10020704702207047012070471C
:101E00002C030010D4020010002834D038B504464A
:101E1000036D013B0365C16AC26C91422DD00BB1C9
:101E2000002038BD051D2846FEF7AEFF68B9E26AFE
:101E300002EB82039B001249CB5833B90123934034
:101E400010490A6822EA03020A60E06CE062C0F10D
:101E50000503A361012404FA00F30A4A11680B4345
:101E6000136000EB80002946054B03EB8000FEF772
:101E700067FF2046D5E7002070470020D1E700BF6C
:101E800068020010DC020010044A136898691368A5
:101E9000DB6A1268C3F10503936170475C020010AE
:101EA000064B1A6813682BB90123036023B9D36862
:101EB000186870470023F8E700207047600300109F
:101EC00008B54160006191420CD8D21A83699A42E8
:101ED00001D3012008BD011D094B1868FEF73BFF27
:101EE0000020F7E79A4201D2994206D2011D054B24
:101EF0001868FEF730FF0020ECE70120EAE700BF9A
:101F0000640300106003001038B5FEF79BFF0F4B11
:101F10001B6813B1FEF7A6FF38BD0D4D2846FEF72E
:101F200001FF0C4C2046FEF7FDFE0B4B1D600B4BDA
:101F30001C60002210210520FFF7EEF8034B18600B
:101F40000028E7D00649FFF74BFAE3E794030010B7
:101F5000680300107C03001060030010640300108D
:101F60001CAD010000B583B0FFF7CEFF084B1B6826
:101F700063B1084B019304230093002364220649B4
:101F80000648FFF7E7FB03B05DF804FB0020FAE723
:101F9000940300109803001024AD01003D220100BD
:101FA00030B585B01C46134B1D6805B300910192F6
:101FB0000290052913DCFFF717FF022807D0002342
:101FC0001A4669460B480068FFF7BEF80DE000238B
:101FD000089A694607480068FFF7B6F805E000234D
:101FE000224669462846FFF73BF905B030BD002080
:101FF000FBE700BF9403001070B582B0164B1B685E
:102000001A6812B3DB681E68DC68251D2846FEF7D7
:10201000BBFE236A2046984794F8243013F0040F3F
:10202000ECD0A36933449E4207D263602461294601
:10203000094B1868FEF78FFEE0E7002100910B4680
:1020400032462046FFF7ACFFD8E7044A1068024941
:102050000860136002B070BD6003001064030010DC
:1020600038B50546FFF74AFC0446074B1B68834218
:1020700005D800232B60044B1C60204638BDFFF7B9
:10208000BBFF01232B60F6E79003001070B582B010
:1020900006460D46124B1B68DB68DC68201DFEF708
:1020A00073FE94F8243013F0040F08D123F00103D9
:1020B00084F82430236A2046984702B070BDA16995
:1020C00033462A4631442046FFF7FAFE0028F1D075
:1020D000002100910B4632462046FFF761FFE9E7F9
:1020E0006003001070B582B006460C46FFF7FEFB99
:1020F00001A8FFF7B5FF019B23BB05460CB9B04211
:1021000017D224B1114A12681268CAB901242246B2
:10211000711B0F4B1868FFF777F9FFF775FC98B93B
:102120000C4B4FF080521A60BFF34F8FBFF36F8F8D
:102130000AE0FFF769FC29463046FFF7A7FF03E0F6
:102140001C46E4E7FFF760FC02B070BD64030010BA
:102150009403001004ED00E010B588B006E0079984
:102160000698059B9847049B002B0BDA002204A9D4
:10217000314B1868FFF7AEF800285BD0049B002BAA
:10218000F1DAECE7069C636913B1201DFEF7FCFD54
:1021900003A8FFF765FF049B092BE7D8DFE803F0EE
:1021A000050505262D3C0505262D94F8243043F021
:1021B000010384F82430059BA16902461944204696
:1021C000FFF77EFE0028D1D0236A2046984794F876
:1021D000243013F0040FC9D0A269002100910B46EE
:1021E000059802442046FFF7DBFEBFE794F8243051
:1021F00023F0010384F82430B8E794F8243043F046
:10220000010384F824300599A16103460246014484
:102210002046FFF755FEA9E794F8243013F0020F8B
:1022200004D023F0010384F824309FE72046FEF712
:102230000BFD9BE708B010BD9403001000B583B000
:1022400001A8FFF72DFE0199FFF74CFFFFF784FF70
:10225000F6E7FFFF10B584B014461A466FF001038D
:10226000009301900291039400236946024800689C
:10227000FEF7F6FF04B010BD9403001028B1064A23
:10228000936943F0006393617047034AD36943F055
:102290000063D361704700BF20C0092008B50D4A14
:1022A000D36823F44003D360D36C23F4400343F09A
:1022B0000073D364084A136843F00063136000207E
:1022C000FFF7DCFF46F2905003F0F6FE012003F02A
:1022D0004BFF08BD00C0024020C0092080B582B07D
:1022E00002AF00230093082304220021144800F0C9
:1022F0009DF9012304220021124800F0CDF90223A8
:10230000009308231C2204210D4800F08FF90023BC
:102310000093082311220121094800F087F90123C5
:1023200011220121074800F0B7F902230093082386
:102330001D220421024800F079F900BFBD4680BD8E
:1023400000C0024000C0092080B500AF1D4804F065
:102350007BF81C4804F08EF81A4B00229A61194B46
:102360000022DA61174B4FF4FA621A62154BFF2212
:102370001A600021134800F0B3F90121114800F060
:10238000AFF902210F4800F0A1F902210D4800F039
:10239000B1F90023012200210A4804F077F8012353
:1023A00001220021074804F071F8064800F088F97E
:1023B0000521032000F026F9032000F0FFF800BFFC
:1023C00080BD00BF000009400C4B9A69322A03D936
:1023D000DA6B42F00102DA63084BDA69322A03D978
:1023E000DA6B42F00202DA630820044A04491368F7
:1023F00043F004031360C1F88001704700000940F6
:1024000000E100E080B500AF012000F0E3F801201A
:1024100000F0ECF800BF80BD80B500AF022000F0F6
:10242000D9F8022000F0E2F800BF80BD90B587B077
:1024300000AFF8600B467A60FB72786804F0B4FB7A
:1024400003467B617B68642B01D964237B607B68D6
:10245000042B01D800237B60134B1B7883F001030E
:10246000DBB2002B01D000237B60FB681B6A7A681B
:1024700002FB03F3184604F097FB03467B610B490C
:10248000786904F09DFC03467B6197F90B407869FD
:1024900004F0CEFD0146FB68A21D43F8221000BFE8
:1024A0001C37BD4690BD00BF9C0300100000C84211
:1024B00080B582B000AF03460A46FB711346BB717C
:1024C000FB7904220021064800F0D0F8BB791122E4
:1024D0000121034800F0CAF800BF0837BD4680BD9F
:1024E00000C0092080B584B002AF03460A46FB71E4
:1024F0001346BB71294ABB791370FB79002B02D0BC
:10250000012B18D02FE0BB79002B08D002230093B9
:1025100008231C220421224800F088F83AE0002316
:10252000009308231C2204211D4800F07FF81D4B56
:1025300000229A612EE0BB79002B08D00223009381
:1025400008231D220421164800F070F822E0002321
:10255000009308231D220421114800F067F8114B55
:102560000022DA6116E00023009308231C220421D4
:102570000B4800F05BF80023009308231D22042180
:10258000074800F053F8074B00229A61054B0022E0
:10259000DA6100BF00BF0837BD4680BD9C03001054
:1025A00000C002400000094080B400AF024B1B781D
:1025B0001846BD4680BC70479C03001000F01F0207
:1025C000400901239340024A42F82030704700BF7F
:1025D00000E100E000F01F02400901239340203099
:1025E000014A42F82030704700E100E000F01F028D
:1025F0004009012393406030014A42F8203070477F
:1026000000E100E0002808DBC900C9B200F1604029
:1026100000F5614080F80013704700F00F00C9001A
:10262000C9B2014B1954704714ED00E070B402F0C8
:102630000F0464004900C9B201EB1212D2B250F883
:1026400022600325A54026EA05069DF80C10A1404E
:10265000314340F82210103250F8221021EA0505CB
:10266000A3402B4340F8223070BC70474BB1C9B235
:1026700000EB41108369012101FA02F21A438261E1
:102680007047C9B200EB4110C369012101FA02F29F
:102690001A43C261704700BF10B443B149014358A7
:1026A000012404FA02F21A43425010BC7047490157
:1026B0004358012404FA02F223EA02024250F4E7EA
:1026C000436843F001034360704700BF436901EB77
:1026D0004101012202FA01F10B434361704700BF3F
:1026E000436901EB4101012202FA01F123EA0103EE
:1026F00043617047436901EB41010131012202FA54
:1027000001F10B4343617047324A136823F08003A1
:102710001360314B196821F440411960196C21F4A0
:1027200040411964116821F040011160196821F4D9
:1027300040511960196C21F440511964116821F459
:1027400000711160196821F440211960196C21F49D
:1027500040211964116821F4807111601A6822F413
:1027600040321A601A6C22F440321A641B4BC022A9
:102770001A601B4B4FF440721A601A4B5A6942F0B0
:1027800040025A611A6942F040021A615A6942F0E5
:1027900080025A611A6942F080021A615A6942F451
:1027A00000725A611A6942F400721A615A6942F45D
:1027B00080725A611A6942F480721A610022DA60EA
:1027C000094B082283F815234FF40012C3F8802127
:1027D0001A60704700C0092000C00240AC0300101E
:1027E000B00300108080024000E100E00346034A8D
:1027F00092E8030083E8030018467047A403001022
:1028000038B505460C46FFF7CFFE30B1034B1868CC
:102810002844186059682144596038BDA403001049
:1028200038B52A4B1A68D20700D438BD28499868B1
:102830005A68096802430A421CD02648D960416997
:102840004369254CDB095B00207803F00203C1F3E8
:1028500080110B43214D83422B700BD080EA530033
:1028600010F0010F1E48016814BF01F1FF31013162
:10287000016023701B4B1B681A421DD0134A154977
:10288000D3604A694B6918481B0A5B00017803F062
:102890000203C2F340221343144C8B4223700BD02B
:1028A00081EA530111F0010F0D494A6814BF02F18A
:1028B000FF3201324A600370FFF776FE0028B4D081
:1028C000074B1A681A605A685A6038BD8080024007
:1028D000AC03001000C009209E0300109D030010EF
:1028E000A4030010B0030010A00300109F03001009
:1028F0004FF48022014BC3F88021704700E100E0D3
:102900004FF40022014BC3F88021704700E100E042
:102910004FF48012014BC3F88021704700E100E0C2
:1029200038B5284CE36823F04073E360E36C23F090
:10293000407343F00063E364234A136843F0805319
:102940001360002000F04EF8236923F040632361F8
:10295000236D23F0406343F0005323651B4A136843
:1029600043F40053136004F5D824204603F0B4FD6B
:102970001749204603F0D5FD0323E360204603F00A
:10298000CDFD144D802301222946134803F0F8FBA6
:1029900080230122E918114803F0F2FB8723A3608A
:1029A000636843F005036360636823F002036360B8
:1029B00000F0D4F90A4B8022C3F88021302283F83A
:1029C000072338BD00C0024020C0092040C00920B4
:1029D00040420F00D00108204C0400106004001099
:1029E00000E100E028B1064A936943F08053936107
:1029F0007047034AD36943F08053D361704700BFE7
:102A000020C0092080B584B000AF78600023FB604F
:102A10000023FB7200237B720023BB720BE007F1E3
:102A2000090319463A4803F00FFCBB7A0133BB7225
:102A3000BB7A032B64D87B7AFF2BF0D10023BB72C7
:102A400000237B720BE007F109031946304803F0BD
:102A5000FBFBBB7A0133BB72BB7A032B52D87B7A68
:102A6000FF2BF0D12B492A4803F0EEFB294B1B78B2
:102A70001A46FB681344FB602749254803F0E4FB32
:102A8000244B5B781A46FB681344FB6023492048BB
:102A900003F0DAFB1F4B9B781A46FB681344FB607C
:102AA0000023FB7215E0FB7A442B2DD8FB7A194AE0
:102AB000134403331946164803F0C6FBFB7A154A44
:102AC0001344DB781A46FB681344FB60FB7A01333E
:102AD000FB72FA7A0F4B5B78023B9A42E3DB07F119
:102AE000090319460A4803F0AFFBFB68DB43FB60B0
:102AF00000234FF0FF3207497868FEF725FB04E01A
:102B000000BF02E000BF00E000BF1037BD4680BD3F
:102B10004C0400100404001005040010060400100A
:102B200080B584B000AF78600023FB8100237B7305
:102B30007B7B5A1C7A731A463B4BFF2199547B7B53
:102B40005A1C7A731A46384BFF2199547B7B5A1CC6
:102B50007A731A467B681978334B99547B681B78D3
:102B60009AB2FB891344FB817B7B5A1C7A731A4609
:102B70007B6859782C4B99547B685B789AB2FB89B7
:102B80001344FB817B7B5A1C7A731A467B689978C5
:102B9000254B99547B689B789AB2FB891344FB813F
:102BA0000023BB6019E0BB68442B1DDC7B7B5A1CF7
:102BB0007A7319467A68BB68134403331A781A4B40
:102BC0005A547A68BB68134403331B789AB2FB8962
:102BD0001344FB81BB680133BB607B685B78023BBD
:102BE000BA689A42DFDB00E000BFFB89DB43FB8170
:102BF0007B68002283F847207B7B5A1C7A731A4635
:102C0000FB89D9B2084B99547B7B1A460649074881
:102C100003F0D6FA7B7B1A460449054800F00AF80F
:102C200000BF1037BD4680BDB40300106004001023
:102C30000080094080B586B000AFF860B9607A6066
:102C400000F066F800F0B7F80FE0FB7C1946F86872
:102C500000F019F900BF00E000BFF86800F015F9B6
:102C6000034603F02603002BF6D007F113031946A1
:102C7000B86803F0E9FA0346002BE6D100237B6134
:102C800000237B6102E07B6901337B617B69C72B99
:102C9000F9DD00F063F800F087F800BF1837BD4693
:102CA00080BDFFFF10B582B000230193114C124A82
:102CB0002146124803F072FC204603F01BFB052856
:102CC0000FDC019B3BB10E4B4FF080521A60BFF3FB
:102CD0004F8FBFF36F8F0B4B8022C3F8802102B060
:102CE00010BD01AB1022084909680848FFF7B2FA85
:102CF000E7E700BF4C0400106004001000800940AA
:102D000004ED00E000E100E0940500102D0B01004F
:102D100080B582B002AF01230D2202210D4800F0E0
:102D200089F80023009308230B2200210A4800F0B1
:102D300061F800230B220021064800F090F80123DF
:102D4000009308230A220021034800F053F800BF33
:102D5000BD4680BD00C0092000C0024080B582B0E1
:102D600002AF00230D2202210D4800F063F800237A
:102D7000009308230A2200210A4800F03BF80023B0
:102D80000A220021064800F06AF801230093082374
:102D90000B220021034800F02DF800BFBD4680BD86
:102DA00000C0092000C0024080B500AF072000F03D
:102DB00009F800BF80BD80B500AF072000F00EF815
:102DC00000BF80BD00F01F02400901239340024A6A
:102DD00042F82030704700BF00E100E000F01F0221
:102DE0004009012393402030014A42F820307047C7
:102DF00000E100E070B402F00F0464004900C9B2C1
:102E000001EB1212D2B250F822600325A54026EA47
:102E100005069DF80C10A140314340F822101032F5
:102E200050F8221021EA0505A3402B4340F8223038
:102E300070BC70474BB1C9B200EB411083690121EE
:102E400001FA02F21A4382617047C9B200EB4110E5
:102E5000C369012101FA02F21A43C261704710B43A
:102E600043B149014358012404FA02F21A43425083
:102E700010BC704749014358012404FA02F223EAC6
:102E800002024250F4E70160704740697047FFFF5B
:102E900008B52149214802F0ADFF214B5A6822F4C0
:102EA000404242F480425A605A6C22F4404242F45A
:102EB00000325A645A6822F4403242F480325A6036
:102EC0005A6C22F4403242F400225A645A6822F4C6
:102ED000402242F480225A605A6C22F4402242F48A
:102EE00000125A645A6822F4401242F480125A6066
:102EF0005A6C22F4401242F400025A641A6822F01A
:102F0000C00242F080021A601A6C22F0C00242F441
:102F100000721A6408BD00BF740400100040034032
:102F200000C00240072840D8DFE800F00404040491
:102F30000404040410B582B00446012201461C4872
:102F400002F0A9FF1B4B1B78FBB10121184802F0CE
:102F5000B2FF184B1B78EBB100222146144802F057
:102F600078FF0128F8D10DF106022146104802F041
:102F700065FF104B1B789BB9002221460C4802F0DC
:102F80008AFFBDF8060002B010BD0021084802F01B
:102F900092FFDEE700220121054802F070FFDBE727
:102FA0000021034802F087FFE6E70020704700BFDA
:102FB000004003407C040010400100F1005000F587
:102FC0001C20836901228A401343836170474001BA
:102FD00000F1005000F51C20C36901228A40134310
:102FE000C3617047F8B501F00F077F004300DBB203
:102FF00003EB1113DBB2124E56F823E0032505FA5A
:1030000007FC2EEA0C0546F82350103356F82350DF
:1030100025EA0C054FF0080C0CFA07F73D4346F87B
:103020002350430103F1005303F51C231A680125C3
:1030300005FA01F414431C60FFF7C9FFF8BD00BF97
:1030400000C0024080B586B000AFF860B9607A6019
:10305000FDF758F903210220FFF7AEFF0DE0FB7CDE
:103060001946F86800F042F800BFF86800F040F830
:10307000034603F02603002BF7D007F1130319468C
:10308000B86803F0E1F80346002BE8D100237B6128
:1030900003E000BF7B6901337B617B69632BF8DD53
:1030A00003210220FFF793FFFDF734F900BF183723
:1030B000BD4680BD00B583B04FF0FF3300930123C0
:1030C0001A46802103480068FDF794FC03B05DF8C0
:1030D00004FB00BF9405001008B58021024B18685E
:1030E000FDF7F3FC08BD00BF9405001001607047B8
:1030F0004069704710B5204B1A6822F0404242F0F8
:1031000080421A601A6C22F040421A645A6822F017
:10311000030242F001025A605A6C22F0030242F0AC
:1031200008025A6403210220FFF75CFF134C20467B
:1031300003F0D2F91249204603F0F3F90323E360C8
:10314000204603F0EBF94FF4007301220D490E48BD
:1031500003F016F88723A360636843F005036360F8
:10316000636823F002036360084B4022C3F88021A8
:10317000302283F8062310BD00C002400000014049
:1031800080841E00D00208206C05001000E100E0E1
:1031900030B583B0802301220E490F4802F0F0FFC2
:1031A000FFF7A8FF00225D210A20FDF7B5FF0B4DB8
:1031B00028600B4C2146FEF713F9002301930323EB
:1031C00000932B68642204F114010648FEF7C2FA4A
:1031D00003B030BDD004082080050010E0040010CA
:1031E0002CAD0100B932010010B582B0002301936B
:1031F000274803F07FF80A2802DC264B00221A70C9
:10320000234C254A2146254803F0C8F9204603F0FF
:1032100071F80A2802DD1F4B1B78DBB11C4803F054
:1032200069F8FF2821DC1A4803F064F81C4B1B687E
:10323000984227DC019B3BB11A4B4FF080521A6039
:10324000BFF34F8FBFF36F8F174B4022C3F880211E
:1032500002B010BD01AB0422144909681448FEF7FE
:10326000F9FF0C4B01221A70DDE7124A936943F40F
:103270000043936101AB04220C4909680C48FEF736
:10328000E9FFD0E7024803F035F8054B1860D1E7B5
:103290006C050010E40400108005001000000140DF
:1032A0006805001004ED00E000E100E09405001066
:1032B0002D0B010020C0092008B504463220FEF77E
:1032C00043FC1AE0134D294611F8012B124802F075
:1032D00077FF95F85C30012B12D00F4D284603F094
:1032E00009F802460D49284602F0C6FF00220949A6
:1032F0002046FDF7EFFF0128E4D0FFF7DBFEF5E7FE
:103300002A7805490648FFF79DFE0120FEF71CFCC0
:10331000ECE700BF8004001080050010E8040010F6
:103320000000014008B5FDF757FB014B186008BDD0
:103330009405001090B587B000AF78607B68FB60A3
:10334000FB68002B01D100233BE10023FB7200232B
:10335000FB8200237B750023BB7207F10B03194628
:10336000F86802F071FF994B00221A7020E007F113
:103370000B031946F86802F067FF0346002B10D0D4
:10338000924B1B780133DAB2904B1A708F4B1B783B
:10339000052B0DD98E4B1B6801338D4A136000231A
:1033A0000FE18B4B1B680133894A1360002308E14E
:1033B000FB7A7E2BDBD103228649F86802F05CFFA2
:1033C000844B1B781AB2844B1A80834BB3F90030BC
:1033D0001B021AB2804B1A807E4B5B789AB27E4BEE
:1033E000B3F900309BB213449BB21AB27A4B1A80E5
:1033F000794BB3F900305B2B06DD754B1B6801334D
:10340000734A13600023DCE0724B9B789AB2FB8A0C
:1034100013449BB2FB826F4B9B78892B0BD1032209
:103420006C49F86802F028FF694B1B680133684A51
:1034300013600023C5E0654B00221A7013E0634B54
:103440001B780133DAB2614B1A70604B1B78052B85
:1034500006D95F4B1B6801335D4A13600023B0E05F
:103460000120FEF771FBF86802F044FF02465A4B58
:10347000B3F90030013B9A42E1DB06225549F86876
:1034800002F0FAFE00233B610BE0524A3B69134411
:103490001B789AB2FB8A13449BB2FB823B690133CF
:1034A0003B613B69032BF0DD4A4B1A794B4B1A7099
:1034B0004A4B1B789AB2FB8A13449BB2FB82454B62
:1034C0005B795AB2454B5A70444B93F90130DBB2E9
:1034D0009AB2FB8A13449BB2FB823F4BB3F9003094
:1034E000DBB2073BDAB23D4B9A703C4B9B78502BDA
:1034F00061D8364B00221A7013E0344B1B7801332D
:10350000DAB2324B1A70314B1B78052B06D9304B8F
:103510001B6801332E4A1360002352E00120FEF79E
:1035200013FB2E4B9B781C46F86802F0E3FE034623
:103530009C42E2DA294B9B781A462949F86802F046
:103540009BFE00237B750BE07B7D244A1344DB78D4
:103550009AB2FB8A13449BB2FB827B7D01337B755D
:103560001E4B9B787A7D9A42EED307F10A031946E7
:10357000F86802F069FEFB8ADBB2FB82FB8ADBB2F1
:10358000DB43DBB2FB82B7F91630BA7A934208D13B
:10359000144B1B680133134A1360104800F024F8E1
:1035A0000EE00B4B1B680133094A1360012000F049
:1035B0007FF9002305E0064B1B680133044A1360C2
:1035C000002318461C37BD4690BD00BF980500106B
:1035D0009C050010080608209A050010B005082078
:1035E000B3050820A005001008B590F90120B2F13C
:1035F000FF3F11D00A494B6913F4807F0CBF0223AF
:103600000023496911F0100F08BF43F00103013393
:103610009A4201D0002008BD00F04EFA0120FAE7DE
:1036200020C0092010B582B03220FEF78DFA104B71
:1036300040221A60002404E00E4C204602F05AFE9C
:1036400088B94FF0FF330093002301220C210A4870
:103650000068FDF7CFF910F0040FEDD110F0080F5E
:10366000EBD00024E9E72046FFF764FEE5E700BF62
:1036700000E100E06C0500109405001008B503217E
:10368000024B1868FDF721FA08BD00BF9405001031
:1036900000B583B0FFF7F2FF0023019302220092EE
:1036A0004FF4A07203490448FEF754F803B05DF8E4
:1036B00004FB00BF54AD01002536010000B583B006
:1036C000009001231A46194606480068FDF792F952
:1036D00010F0010F03D1002003B05DF804FB0120BE
:1036E000FAE700BF9405001008B50121024B1868E5
:1036F000FDF7EBF908BD00BF9405001030B41D4A7A
:103700007E2353708378D91D0B3313700B0A93708B
:10371000D170012313715371B0F85430190A9171AB
:10372000D371002313720178517290F901109172D4
:1037300084789C4209D903F10A04C218D1780D4A51
:10374000224451700133DBB2F2E70022032306E08A
:103750000849194449780A4412B20133DBB204F132
:1037600009011D469942F3DAD243024805446A70C2
:1037700030BC70475005082010B50C46FFF7BEFF5F
:10378000094981F85C4000234FF4FA720748006849
:10379000FDF7DAFC20B90446FFF7A6FF204610BD6E
:1037A000FFF7A2FF0124F9E750050820E00400100C
:1037B0007047FFFFF8B504460E4615461F463220F7
:1037C000FFF77CFF00B9F8BD374B5A221A70FE2272
:1037D0005A70364B9E705D70204604F0DFF880B260
:1037E0004A284FD8204604F0D9F84B281DD94B2041
:1037F0002E4B1870204604F0D1F84B281AD94B22D2
:103800002A4D2146E81C03F033FC274C4E23A370BD
:1038100050222946E01C03F02BFC0A23A4F8543064
:1038200039462046FFF7A8FFCDE7204604F0B6F85A
:10383000C0B2DDE7204604F0B1F80246E0E72046DA
:1038400004F0ACF8C0B225E0204604F0A7F8024628
:10385000164E2146F01C03F00BFC134D4E23AB70AB
:1038600050223146E81C03F003FC0023A5F8543035
:1038700039462846FFF780FF33781C44204604F081
:103880008DF880B200289ED0204604F087F84B289F
:10389000D5D94B20054B1870204604F07FF84B28F3
:1038A000D2D94B22D4E700BF64060820A40500103B
:1038B00010B582B000F0C4FB024615494B6913F401
:1038C000807F0CBF02230023496911F0100F08BF4D
:1038D00043F001030F4C216801910F4909680091E1
:1038E00031330E490E4804F039F82368042B07DC05
:1038F0000123042200210A48FFF75CFF02B010BD3B
:103900000123042202210648FFF754FFF6E700BF17
:1039100020C009209C050010A005001068AD010022
:10392000F405001030B589B005463220FFF7C6FE19
:1039300008B909B030BD2C4CFD232370FF23637000
:103940002A4A536913F4807F0CBF02230023526973
:1039500012F0100F08BF43F0010301338DF814304B
:10396000234B1B680693234B1B6807930C23A37000
:10397000502205A9E01C03F07BFB4FF6FF73A4F86F
:10398000543029462046FFF7F7FE1B4B1B781BB12E
:103990002846FFF78DFFCCE700F052FB02461349A3
:1039A0004B6913F4807F0CBF02230023496911F097
:1039B000100F08BF43F00103104C11490391114946
:1039C000029111490191114900913133104920466A
:1039D00003F0C4FF0123042200212046FFF7EAFE82
:1039E000054B01221A70D3E76406082020C0092085
:1039F000A00500109C050010F2050010F405001051
:103A0000D4AD0100E0AD0100ECAD0100F0AD01006E
:103A1000A0AD010070B505460C463220FFF74EFE02
:103A200000B970BD094E2A2333700023737034230C
:103A3000B37050222946F01C03F01AFB0A23A6F8A3
:103A4000543021463046FFF797FEEAE76406082027
:103A500030B583B00C46154A536913F4807F0CBF10
:103A600002230023526912F0100F08BF43F0010334
:103A700001338DF804308DF805003220FFF71EFE6B
:103A800008B903B030BD0A4D00232B706B700223C0
:103A9000AB70502201A9E81C03F0EAFA0A23A5F84A
:103AA000543021462846FFF767FEEAE720C0092088
:103AB000640608207047FFFF10B504465348FCF722
:103AC0001FFC534A1368013313602378462B25D813
:103AD0000A2B31D30A3B3C2B2ED8DFE803F02631EA
:103AE0002D2D2D2D2D2D2D2D392D2D2D2D2D2D2DFA
:103AF0002D2D412D2D2D2D2D2D2D2D2D49512D2DA2
:103B00002D2D2D2D2D2D592D6961712D2D2D2D2D05
:103B100079812D2D2D2D2D2D2D2D8900FC2B6FD054
:103B2000FE2B09D1FFF7D8FA06E0204600F074F822
:103B300001210420FFF78CFF3648FCF7E1FB10BDA4
:103B4000204600F093F801210420FFF781FFF3E7FE
:103B5000204600F0B9FA01210020FFF779FFEBE7DA
:103B6000204600F00BFA01210520FFF771FFE3E783
:103B7000204600F055FA01210A20FFF769FFDBE734
:103B800002F02CF90121FFF745FFFFF7A5FAD3E773
:103B9000204600F069FA01210846FFF759FFCBE7FC
:103BA000204600F075FA01210320FFF751FFC3E71B
:103BB000204600F07BFA01210220FFF749FFBBE716
:103BC000204600F043FA01210620FFF741FFB3E74A
:103BD000204600F05EF801210720FFF739FFABE730
:103BE000204600F063F801210820FFF731FFA3E72A
:103BF000204600F02BF901210920FFF729FF9BE760
:103C00000120FFF78FFEFFF767FA95E7F4AD01009B
:103C10003C0600100CAE010000B587B01822C11C94
:103C2000684603F025FA9DF8163063B9684601F03E
:103C300013F99DF81030062B08D09DF8163093B973
:103C400007B05DF804FB01F00FF9EFE700F0D0FEDC
:103C5000BDF90C1000F0CCFB00F0C6FEBDF90E1053
:103C600000F0C6FBE9E701F075F9E9E700B589B0B6
:103C70001E22C11C684603F0FBF99DF81C302BB9CD
:103C8000684600F07FFA09B05DF804FB01F0ECF83B
:103C9000F6E700B585B01022C11C684603F0E8F9CC
:103CA000684600F0ABFD05B05DF804FB30B587B0A9
:103CB0001822C11C684603F0DBF99DF80030042B84
:103CC00042D8DFE803F003436383A30000F08CFED7
:103CD00004469DF8153080F83430019B8360029BC8
:103CE000C360039B0361BDF9120002F061FFA06194
:103CF0009DF81050284602F057FF2062684202F0FB
:103D000057FF60629DF81430237700F071FE04467F
:103D10009DF8153080F83430019B8360029BC360AE
:103D2000039B0361BDF9120002F042FFA0619DF800
:103D30001050284602F038FF2062684202F038FF37
:103D400060629DF81430237707B030BD00F044FE68
:103D500004469DF8153080F83430019B8360029B47
:103D6000C360039B0361BDF9120002F021FFA06153
:103D70009DF81050284602F017FF2062684202F0BA
:103D800017FF60629DF814302377DDE700F028FE0E
:103D900004469DF8153080F83430019B8360029B07
:103DA000C360039B0361BDF9120002F001FFA06133
:103DB0009DF81050284602F0F7FE2062684202F09B
:103DC000F7FE60629DF814302377BDE701F03CF800
:103DD00004469DF8153080F83430019B8360029BC7
:103DE000C360039B0361BDF9120002F0E1FEA06114
:103DF0009DF81050284602F0D7FE2062684202F07B
:103E0000D7FE60629DF8143023779DE701F020F81B
:103E100004469DF8153080F83430019B8360029B86
:103E2000C360039B0361BDF9120002F0C1FEA061F3
:103E30009DF81050284602F0B7FE2062684202F05A
:103E4000B7FE60629DF8143023777DE7F0B585B04A
:103E50000C22C11C01A803F00BF900F0EBFC044696
:103E6000BDF8040002F0A0FE414902F0A9FF41495B
:103E700002F0F2FE01462768384602F0EDFE0546E4
:103E8000BDF8060002F090FE394902F099FF38496A
:103E900002F096FF384902F0DFFE364902F0DCFE00
:103EA0000146384602F0D8FE0646BDF8080002F08A
:103EB0007BFE2F4902F084FF2D4902F081FF2E493D
:103EC00002F0CAFE2B4902F0C7FE0146384602F056
:103ED000C3FE02463146284600F0DAFFBDF80A006C
:103EE00002F062FE224902F06BFF214902F068FFF6
:103EF000204902F0B1FE01466668304602F0ACFE91
:103F00000446BDF80C0002F04FFE194902F058FFBC
:103F1000174902F055FF164902F052FF164902F008
:103F20009BFE144902F098FE0146304602F094FED2
:103F30000546BDF80E0002F037FE0D4902F040FFC5
:103F40000B4902F03DFF0A4902F03AFF0A4902F02C
:103F500083FE084902F080FE0146304602F07CFEF6
:103F600002462946204600F09BFF05B0F0BD00BF89
:103F700000007A440000A0400000204110B590B03D
:103F80004022C11C684603F073F800240EE004EBE5
:103F9000440110AB03EB4101BDF8023031F8382C7D
:103FA00031F83A1CC0B201F0B5FB0134BDF8003065
:103FB000A3422FDD04EB440310AA02EB430333F8C2
:103FC0003C0C154AA2FB003214494B6913F4807F64
:103FD0000CBF02230023496911F0100F08BF43F002
:103FE00001030133B3EBD20FDFD1D30803EB83031B
:103FF000A0EB430080B20528C9D804EB440310AA03
:1040000002EB4303BDF8022033F83A1CC0B201F0C2
:104010005BFDCAE710B010BDCDCCCCCC20C00920D0
:1040200000B583B00122C11C01A803F021F89DF85E
:104030000420024B1A7003B05DF804FB3A0600102E
:10404000014B1878704700BF3A06001000B583B0E6
:104050000122C11C01A803F00BF89DF8040000F038
:104060001FFC03B05DF804FB00B583B00222C11C45
:1040700001A802F0FDFF9DF804100020FEF732FABF
:104080009DF805100120FEF72DFA03B05DF804FB42
:1040900000B583B00122C11C01A802F0E9FF9DF820
:1040A0000400FEF79FFC03B05DF804FB00B583B08D
:1040B0000122C11C01A802F0DBFF9DF80400FEF7FD
:1040C000DDF803B05DF804FB00B587B01822C11C11
:1040D000684602F0CDFF684600F0C0FB07B05DF80F
:1040E00004FBFFFF2DE9F84307468946164698462C
:1040F000089C21464FF07E5002F0A4FC054639464C
:1041000002F0AAFD0146284602F0A6FD0146284617
:1041100002F0A2FD07461A49484602F09DFD2146DD
:1041200002F09AFD0146284602F096FD0146284617
:1041300002F092FD394602F087FC074610494046DE
:1041400002F08AFD214602F087FD214602F084FD3F
:104150000146284602F080FD394602F075FC05460E
:104160003146204602F078FD214602F075FD2146D9
:1041700002F072FD294602F067FCBDE8F88300BF3B
:10418000000040402DE9F04F91B0054600230B930D
:104190000D93B0F9000002F00BFD0446B5F91200D2
:1041A00002F006FD06460146204602F009FE814661
:1041B000B5F9020002F0FCFC0746B5F9140002F064
:1041C000F7FC04460146384602F0FAFD8046B5F990
:1041D000040002F0EDFC314602F0F2FD8346B5F931
:1041E000060002F0E5FC214602F0EAFD0390B5F975
:1041F000080002F0DDFC314602F0E2FD0490B5F962
:104200000A0002F0D5FC214602F0DAFD0590B5F96E
:104210000C0002F0CDFC314602F0D2FD0690B5F95B
:104220000E0002F0C5FC214602F0CAFD8246687C01
:1042300002F0BAFC01464FF07E5002F0C1FD07903B
:104240002B7C002B40F0888007238DF83830EB7EE4
:104250008DF827302B8BADF824300998CDF83A0033
:10426000B5F90830ADF83030B5F90A30ADF8323074
:104270005E4C002384F8E833B5F9120002F098FC94
:10428000494602F0E9FC02F0D3FE2080B5F91400A3
:1042900002F08EFC414602F0DFFC02F0C9FE6080B5
:1042A00001238DF83930079C4FF07E51204602F0F3
:1042B00071FE002854D00094069B049A5946484643
:1042C000FFF710FF0646B5F9120002F071FC314607
:1042D00002F0C2FC074600945346059A03994046F3
:1042E000FFF700FF0646B5F9140002F061FC314605
:1042F00002F0B2FC0646384602F074FEADF8280023
:10430000304602F06FFEADF82A000AA800F0A4FDC6
:10431000364A92F8E833BDF8280003EB830602EB37
:104320004606B080BDF82A10F18003EB830602EB4D
:104330004606022737720133DBB282F8E83303EB1B
:10434000830622F8160002EB46035980079920469F
:1043500002F07AFB0446A7E708238DF8383076E7A9
:1043600000238DF839304FF07E540094069B049A58
:1043700059464846FFF7B6FE0646B5F9120002F068
:1043800017FC314602F068FC064600945346059A35
:1043900003994046FFF7A6FE0446B5F9140002F063
:1043A00007FC214602F058FC0446304602F01AFE93
:1043B000ADF82800204602F015FEADF82A000AA844
:1043C00000F04AFD094A92F8E833BDF8280003EBF3
:1043D000830122F81100BDF82A1003EB830302EBDE
:1043E0004303598011B0BDE8F08F00BF40060010B4
:1043F00010B50446084602F0DBFB206010BD10B586
:104400000446084602F0D4FB606010BD016201F171
:104410000041416270472DE9F04104464768394642
:10442000006802F00FFB05463946A06A02F00AFB5D
:1044300080466169284602F007FB6061A669314643
:1044400002F0C6FD00B1666106F1004631466069C2
:1044500002F0A0FD00B166610021284602F0B8FD1F
:10446000002841D00021606902F094FD002838D175
:10447000267F2946A06802F0EFFB054641462069E9
:1044800002F0EAFB0146284602F0DEFA0546D4F8BF
:104490003880304602F08CFB414602F0DDFB0146DD
:1044A000284602F0D1FA05466169E06802F0D4FBC3
:1044B000294602F0C9FA054694F8343003B90025BC
:1044C000266A2946304602F065FD30B9666A2946FB
:1044D000304602F07DFD00B92E46A663A762BDE816
:1044E000F08100236361C3E70021284602F052FDFA
:1044F0000028BDD00021606902F06AFD0028B7D015
:1045000000236361B4E738B50446056A2946806B29
:1045100002F05EFD00B1A563656A2946A06B02F05A
:1045200039FD00B1A56338BDF8B504464568294694
:10453000006802F087FA0646A16A284602F082FA6D
:1045400007466169304602F07FFA054660613146F0
:10455000A06802F081FB06463946206902F07CFB28
:10456000314602F071FA0646E168284602F074FB13
:10457000314602F069FA94F8343003B90020A063A0
:104580002046FFF7C0FF6368A362F8BD90B58FB007
:1045900000AFF860B9607A60BB685B688D4A1360F1
:1045A000BB681B688C4A13608A4B1A688A4B1B686D
:1045B0001344DA0F13445B101A46884B1A60FB68E9
:1045C0001C69844B1A68844B1B68D31A184602F086
:1045D000EFFA03461946204602F036FA034618461B
:1045E00002F000FD03467E4A13607C4B1A687D4B47
:1045F0001B68D31A3B637A4B1A687B4B1B68D31A30
:10460000FB62774B1A68784B1B681344DA0F13442C
:104610005B10BB62F86A02F0CBFA02467B685B680B
:104620001946104602F0CCFB03467B62B86A02F0E2
:10463000BFFA02467B685B681946104602F0C0FB71
:1046400003463B62FB6A002B03D14FF07E537B6332
:1046500015E04FF08041786A02F0B2FB034618463D
:1046600004F004FE04464FF08041786A02F0A8FB93
:1046700003461946204602F0A3FB03467B63386BD2
:1046800002F096FA0346796B184602F0E5FA034603
:104690001C46386A04F0AAFD03461946204602F07B
:1046A000DBFA0346FB61386B02F082FA0346796B52
:1046B000184602F0D1FA03461C46386A04F0D6FDCB
:1046C00003461946204602F0C7FA0346BB614FF085
:1046D0000001B86902F0C0FA03467B614FF00001A7
:1046E000F86902F0B9FA03463B617969F86902F0AA
:1046F000ABF90346FB613969B86902F0A5F90346D5
:10470000BB61FB681C687B681B681946F86902F08E
:1047100057FB03461946204602F096F903461A460F
:10472000FB681A60FB685C687B681B681946B8699F
:1047300002F046FB03461946204602F085F903467F
:104740001A46FB685A60FB683A6A9A6009E0FB689F
:104750009B682649184602F075F903461A46FB681D
:104760009A60FB689B682249184602F031FC0346B8
:10477000002BECD109E0FB689B681C49184602F04D
:1047800063F903461A46FB689A60FB689B681949FF
:10479000184602F0FFFB0346002BECD1FB689B6838
:1047A0001549184602F058FA03461149184602F016
:1047B00007FB03461A46FB68DA60094B1B680A4A86
:1047C0001360064B1B68074A136000BF3C37BD46A9
:1047D00090BD00BF2C0A0010300A0010340A0010EF
:1047E000380A00103C0A0010400A0010DB0FC940D4
:1047F000DB0F4940DB0F49C00000344338B50B4C98
:104800000FC884E80F004FF07C51A06802F024FA32
:1048100004464FF07E5102F017F9054D68612146BC
:104820004FF07E5002F00EF9286138BD5C0A00108E
:10483000440A0010004870475C0A001070B4064635
:104840000446054D0FCD0FC495E8030084E803002E
:10485000304670BC704700BF6C0A001070B50D4E3A
:10486000354604460FCC0FC594E8030085E80300E5
:10487000094B5968B06802F0EFF90446074B5868D5
:104880001B68C01A02F094F90146204602F0DAF8DB
:10489000306170BD6C0A00105C0A0010440A001000
:1048A000014B1873704700BF5C0A0010024B187B65
:1048B000003818BF012070475C0A0010014B1875C2
:1048C000704700BF6C0A001000B583B010220021B1
:1048D0000C4802F0DBFB182200210B4802F0D6FB4B
:1048E00018220021094802F0D1FB00230193042281
:1048F0000092A02206490748FCF72CFF03B05DF8A0
:1049000004FB00BF5C0A00106C0A0010440A00108F
:1049100020AE01001949010000B585B0FCF7EEFF9B
:10492000039003E0642103A8FDF7DEF8104B5B7BE6
:10493000032BF7D001A8FDF759FF0E4C65690198CC
:1049400002F036F9294602F087F902F04BFB60606D
:104950002569029802F02CF9294602F07DF902F04F
:1049600041FB2060024A21460348FFF70FFED9E7CA
:104970005C0A0010440A00106C0A001000B583B0F5
:104980003C2200210E4802F081FB3C2200210D4810
:1049900002F07CFB3C2200210B4802F077FB3C221A
:1049A00000210A4802F072FB0023019303220092C7
:1049B000782207490748FCF7CDFE03B05DF804FBF9
:1049C000840A0010C00A0010FC0A0010380B001006
:1049D00030AE0100394A010000487047840A0010D7
:1049E00000487047C00A001000487047FC0A0010D9
:1049F00000487047380B001008B501460148FFF722
:104A0000F7FC08BD840A001008B501460148FFF70D
:104A1000EFFC08BDC00A001008B501460148FFF7C9
:104A2000E7FC08BDFC0A001008B501460148FFF785
:104A3000DFFC08BD380B001000B583B00446FCF75E
:104A40005DFF019006E0204600F014F9322101A834
:104A5000FDF74AF8FFF7EEFE437B002BF3D0013B56
:104A6000DBB2012B07D8204600F00AF8322101A85A
:104A7000FDF73AF8EEE7322101A8FDF735F8E9E74E
:104A8000F0B583B06846FDF7B1FE009870490D6837
:104A9000451B019A6F4B1E68961B08601A606E4C8E
:104AA00029462046FFF7ABFC2046FFF7B4FC6B4CD1
:104AB00031462046FFF7A3FC2046FFF7ACFCA76B6E
:104AC000216A384602F07AFA20B9616A384602F063
:104AD0006BFAF0B1304602F06BF804F0C3FB044609
:104AE0005E4B186804F0BEFB4FF07C5102F0B4F846
:104AF0000146204602F04EFA002800F08E80584C05
:104B0000206802F055F8574901F09EFF02F06AFA5A
:104B10002060514B9C6B196A204602F04FFA28B96D
:104B20004D4B596A204602F03FFAE8B1284602F0A0
:104B30003FF804F097FB0446474B186804F092FBDB
:104B40004FF07C5102F088F80146204602F022FA2C
:104B5000002866D0424C206802F02AF8414901F052
:104B600073FF02F03FFA20603D4B1B68B3F5FA6F0C
:104B70005BDD0120FFF7A2FEFFF798FE002858D169
:104B8000354B9E6B354B9D6B3749304602F020FA12
:104B900000B1354E3549304602F0FCF900B1334ED4
:104BA0003149284602F014FA00B12F4D2F4928460A
:104BB00002F0F0F900B12D4D284604F053FB02F04D
:104BC00037FA02462A4C00212046FDF72FFC3046DA
:104BD00004F048FB02F02CFA024601212046FDF7C2
:104BE00025FC4FF001040021304602F0E7F908B936
:104BF0004FF00004E4B284F001044FF001060021FC
:104C0000284602F0DBF908B94FF00006214606F00D
:104C10000100FDF74DFC03B0F0BD114B00221A60FE
:104C200077E70F4B00221A609EE70020FFF746FE51
:104C3000A2E7094B9D6B094B986B02F0D3F9044630
:104C4000284602F0CFF92146FDF7DAFDE3E700BF81
:104C5000780B0010800B0010FC0A0010380B0010BD
:104C6000740B00100000A0400000C8420000C8C241
:104C70000000094070B582B06846FDF7B7FD009EA0
:104C80004B480568751B019A4A4B1C68141B29196F
:104C900006601A60484E41F34F013046FFF7AFFB04
:104CA0003046FFF741FC454E291B3046FFF7A7FB76
:104CB0003046FFF739FCFFF7F9FD002855D13E4B90
:104CC0009C6BB66B3146204601F0BEFE0546314670
:104CD000204601F0B7FE04463949284602F078F92B
:104CE00000B1374D3749284602F054F900B1354D2F
:104CF0003349204602F06CF900B1314C314920466D
:104D000002F048F900B12F4C204604F0ABFA02F053
:104D10008FF902462C4E00213046FDF787FB2846CE
:104D200004F0A0FA02F084F9024601213046FDF7B2
:104D30007DFB4FF001060021284602F03FF908B93B
:104D40004FF00006F6B286F001064FF00105002193
:104D5000204602F033F908B94FF00005314605F05E
:104D60000100FDF7A5FB02B070BD134B9C6B134B0C
:104D70009E6B3146204601F067FE054631462046CF
:104D800001F060FE04464FF07C51284601F064FFBC
:104D900005464FF07C51204601F05EFF02F022F9FB
:104DA0000446284602F01EF92146FDF729FDDAE700
:104DB0007C0B0010840B0010840A0010C00A001045
:104DC0000000C8420000C8C20000094000B583B01E
:104DD0003C220021124802F059F93C2200211148DE
:104DE00002F054F90123104A1376104A1376162262
:104DF00000210F4802F04AF9802316220D490E487F
:104E000001F0BEF90D4B01930323009300236422AC
:104E10000B490C48FCF79EFC03B05DF804FB00BF97
:104E2000D80B0010140C0010A00B0010BC0B0010CD
:104E3000880B0010500C0010501700106417001061
:104E400040AE01005553010000487047D80B0010D8
:104E500000487047140C001008B50146014801F0E5
:104E600097F908BD5017001008B5034801F046FA3D
:104E7000024B00221A7408BD50170010880B001056
:104E800010B50C46FFF7B8FD2046FFF7BDFD10BD7D
:104E9000024B19605A609860704700BFA00B001069
:104EA00038B505461046044C2160114601F0CCFD92
:104EB0006060A56038BD00BFBC0B0010014BD8601E
:104EC000704700BFA00B0010014BD860704700BFB7
:104ED000BC0B001070B50C4615461E46B0F9040018
:104EE00001F066FE164901F06BFFA16801F0AAFD12
:104EF0000446A87801F058FE114901F061FF05460B
:104F0000204604F0AFF9294602F04EF830B10023F4
:104F10000C4A13610C4A1361012070BD002528461C
:104F2000FFF7CCFF2146706801F096FEFFF7CCFF3B
:104F3000044B1D61044B4FF07E521A610020ECE7D8
:104F40000000C842A00B0010BC0B001008B501F017
:104F50007BF908BD08B50249024801F075F908BDA2
:104F6000880B00105017001070B50E461D46014604
:104F7000104601F067FD014601F06EFE0446314621
:104F8000284601F05FFD014601F066FE014620461D
:104F900001F05AFD04F0AAF970BDFFFF70B50E468E
:104FA0001D460146104601F04DFD04463146284697
:104FB00001F048FD0646204601F098FC04460D46E7
:104FC000304601F093FC22462B4604F08DF901F0A7
:104FD000E5FC04460B4901F0FBFF30B10A492046CD
:104FE00001F030FD0446204670BD0849204601F01E
:104FF000D1FF0028F7D00449204601F025FD0446E2
:10500000F1E700BFDB0F4940DB0FC940DB0F49C0B0
:105010002DE9F84F05460C4690469946B0F90070C8
:10502000B0F9020001F0C4FD0646384601F0C0FDAB
:105030000246334661682068FFF796FF0646B5F9D9
:1050400008A0B5F90A0001F0B3FD0746504601F08B
:10505000AFFD02463B4661682068FFF785FF0746C3
:10506000B5F900B0B5F9020001F0A2FD824658463C
:1050700001F09EFD0246534661682068FFF78EFFEF
:10508000A16801F0DFFC0446824901F0A1FF00287D
:1050900053D08149204601F0D5FC04462B7C022BDD
:1050A00057D0082B55D0304604F0DCF88246B8F8CB
:1050B000000001F079FD794901F082FE0146504679
:1050C00001F068FF00286CD00020754B1861FFF7D5
:1050D000FBFE4FF0010ABAF1000F2BD12B7C073BEE
:1050E000DBB2012B00D937463946D9F8000001F070
:1050F000B3FDFFF7E3FE2146D9F8040001F0ACFD53
:10510000FFF7E2FE98F8030001F04EFD634901F05D
:1051100057FE0546204604F0A5F8294601F044FF55
:10512000002840F08C805F4B00221A615C4B4FF0EE
:105130007E521A615046BDE8F88F5B49204601F067
:1051400029FF0028AAD05449204601F07DFC0446DE
:10515000A4E75649204601F03BFF20B954492046B8
:1051600001F018FF18B106F1004607F10047494960
:10517000204601F069FC0446464901F029FF20B1B0
:105180004549204601F05EFC04464749204601F0AF
:1051900001FF002887D04049204601F055FC044615
:1051A00081E7304604F05EF88246B8F8000001F06E
:1051B000FBFC404901F050FD384901F001FE014679
:1051C000504601F0E7FE78B32B7C012B04D0022B74
:1051D00016D04FF0000A7EE73449204601F0F8FE71
:1051E00020B93349204601F0D5FE00B306F1004650
:1051F0002849204601F028FC00244FF0000A6AE705
:105200002A49204601F0E4FE20B92949204601F050
:10521000C1FE80B106F100461E49204601F014FC93
:1052200000244FF0000A56E74FF0000A53E700242D
:105230004FF0000A4FE700244FF0000A4BE72046EA
:1052400004F010F80146284601F0FCFB294601F065
:10525000B7FD0646134B18612946204601F0B0FD04
:1052600004460F4B18610021304601F093FE58B9F7
:105270000021204601F08EFE00283FF45BAF04F1D0
:105280000044074B1C6155E706F10046054B1E61C3
:10529000EEE700BFDB0F4940DB0FC9400000C8420A
:1052A000BC0B0010A00B0010DB0F49C0DB0FC93F87
:1052B000DB0FC9BF0000404038B505460C4601F081
:1052C00069FE08B9204638BD2846FCE7F8B5037EDC
:1052D000002B3CD004460D4616460168406901F09B
:1052E000B3FB0746E6B1A668A1683846FFF7E4FFBE
:1052F0003146FFF7E1FF6061E06801F073FE0146AF
:105300002846FFF775F82169606901F0A5FC0146A0
:105310002846FFF77BF82169606901F09DFCF8BD24
:105320006068014601F090FB06466968E06801F09C
:1053300089FB03F097FF0146304601F08DFC4FF0EA
:105340007C5101F089FC03F0D1FF0646CCE7002038
:10535000E5E7FFFF2DE9F0418EB03220FCF7F4FBCA
:10536000FCF7CCFA0D9045E06846FFF767FA07AD09
:105370006C460FCC0FC594E8030085E80300FFF7E7
:1053800059FA0346A04800F1120207A9FFF7A2FD4F
:1053900000284BD000242046FFF790FD2046FFF761
:1053A00093FD9A4F3C619A4E3461FFF74DFD0546DF
:1053B000002201463846FFF789FFFFF749FD044602
:1053C000002201463046FFF781FF2846FFF723F809
:1053D0002046FFF720F88C498E48FFF7B7FDFFF70E
:1053E00029FA437B012B3FD05AB29AB3023BDBB27E
:1053F000012B2FD864210DA8FCF776FB824B1B7C78
:10540000013B072B40D801A252F823F0E9540100D8
:10541000E954010069530100F5530100F5530100FF
:10542000F5530100E9540100E9540100FFF710FDB4
:1054300004460021FEF7E3FF734B5A7C2146744873
:10544000FFF744FFFFF700FDFEF7E5FF2046FEF7FC
:10545000E2FFC4E7FFF7FCFC806B01F0C3FD0146EF
:105460000020FFF70DFDC5E7FFF7F2FC0446806B57
:1054700000F1004001F0B6FDFFF7D6FAA06B01F095
:10548000B1FDFFF7C9FAB5E700242046FFF716FD86
:105490002046FFF719FD5D4F3C615D4E3461FFF71B
:1054A000D3FC0546002201463846FFF70FFFFFF701
:1054B000CFFC0446002201463046FFF707FF28468E
:1054C000FEF7A9FF2046FEF7A6FF00210846FFF7DA
:1054D000D7FC0020FFF7A8FA0020FFF79DFA4A4901
:1054E0004C48FFF733FD85E76846FFF7A7F907AD9E
:1054F0006C460FCC0FC594E8030085E80300FFF766
:1055000099F90346404800F1120207A9FFF780FD10
:10551000002843D000242046FFF7D0FC2046FFF7A8
:10552000D3FCDFF8E880C8F81040394F3C61FFF742
:105530008BFC0546344E727C01464046FFF7C6FEA2
:10554000FFF786FC0446727C01463846FFF7BEFE34
:105550002846FEF760FF2046FEF75DFF31462D48E6
:10556000FFF7F4FCFFF766F9437B012B34D05AB206
:1055700022B1023BDBB2012B7FF63CAFFFF764FCAC
:10558000856BFFF765FC806B01F02CFD0446284617
:1055900001F028FD2146FFF773FC2BE7FFF754FCD1
:1055A00005460021FEF72BFFFFF752FC04460021C1
:1055B000FEF725FF144E727C29461448FFF786FE3D
:1055C000727C21461248FFF781FE2846FEF723FF32
:1055D0002046FEF720FFC5E7FFF736FC0446866B42
:1055E000FFF736FC0546816B304601F02BFA01F0DF
:1055F000F9FCFFF719FAA96BA06B01F025FA01F08D
:10560000F1FCFFF709FAF5E6880B0010A00B00107B
:10561000BC0B0010501700107047FFFF70B582B030
:10562000002248210220FBF777FD0E4D28600E4C2A
:105630002146FBF7D5FE00260196012300932B6837
:10564000642204F118010948FCF784F8019602234A
:1056500000932B68642204F124010548FCF77AF8D2
:1056600002B070BDB017001058AE0100CD56010059
:105670007556010008B504463220FCF765FA07E0CC
:105680000F4BDB78B3B920210E4B1868FBF71DFADE
:105690004FF0FF320A492046FBF71CFE0028F7D0E6
:1056A000074B5B78022BEBD048220549064801F0F6
:1056B000DFFCEDE74021034B1868FBF706FAE7E74C
:1056C000BC060820940500106817001000B583B0D0
:1056D00004463220FCF738FA94B14FF0FF330093C0
:1056E00000230122102109480068FBF783F90848CC
:1056F00000F000FE0028F0D02046FDF783F9F6E721
:10570000FCF76CFBFCF758F8E7E700BF94050010C6
:105710004C0400102DE9F0410E4617469846063815
:10572000C4B2204600F09AF8301A01F041FA0D494F
:1057300001F092FA0546404601F03AFA0146284641
:1057400001F03EFB084901F03BFB084901F038FB42
:1057500001F06EFC3B4682B23146204600F02EF846
:10576000BDE8F081E17A943E00007A44FA7E2A3F57
:1057700030B583B005460C4660210F4B1868FBF727
:1057800097F92846FDF7CCF90CB903B030BD0024D9
:105790006423009300230122202107480068FBF7BF
:1057A00029F90028F1D12846FDF7BAF90134E4B20D
:1057B000032CEDD9E9E700BF9405001090B59BB02C
:1057C00000AF0446084611461A462346FB710346BD
:1057D000BB800B467B8013463B80BB881B0A9BB279
:1057E0007B66BB88DBB23B667B881B0A9BB2FB6592
:1057F0007B88DBB2BB653B881B0A9BB27B653B8821
:10580000DBB23B65FB793B7209237B720323BB72DE
:105810001E23FB723B6EDBB23B737B6EDBB27B7392
:10582000BB6DDBB2BB73FB6DDBB2FB733B6DDBB2FD
:105830003B747B6DDBB27B7448220021064801F08B
:1058400025FC07F1080301211846FFF791FF00BF6F
:105850006C37BD4690BD00BF6817001080B596B08C
:1058600000AF0346FB710023A7F85630FB793B736A
:1058700004237B730223BB732423FB7302233B7437
:10588000482200210F4801F001FC07F10C0301211F
:105890001846FFF76DFF0B4B1B79A7F85630B7F88A
:1058A00056301B02A7F85630064BDB789AB2B7F891
:1058B00056301344A7F85630B7F8563018465837C4
:1058C000BD4680BD6817001080B485B000AF0346A8
:1058D0000A46FB711346BB71BB79FB60FB681B0278
:1058E000FB60FB79FA681344FB60FB6818461437C9
:1058F000BD4680BC7047FFFF80B596B000AF034641
:105900003960FB71002387F85730FB793B73042320
:105910007B730223BB732423FB7308233B7448224D
:105920000021484801F0B2FB07F10C0301211846A1
:10593000FFF71EFF434B5B78002B01D100237DE076
:1059400097F857303F4A1344DA7897F857300133C5
:105950003C490B44DB7819461046FFF7B5FF034678
:105960009AB23B685A8097F857300233354A13444D
:10597000DA7897F85730033332490B44DB7819460D
:105980001046FFF7A1FF03461AB23B689A803B68B6
:10599000B3F90430B3F5806F12DB3B68B3F9043020
:1059A0009BB2A3F2FF339BB21AB23B689A803B686A
:1059B000B3F904309BB25B429BB21AB23B689A8047
:1059C00097F8573004331F4A1344DA7897F8573062
:1059D00005331C490B44DB7819461046FFF774FF6A
:1059E00003461AB23B68DA803B68B3F90630B3F578
:1059F000806F12DB3B68B3F906309BB2A3F2FF3332
:105A00009BB21AB23B68DA803B68B3F906309BB2AE
:105A10005B429BB21AB23B68DA8097F85730063384
:105A2000084A1344DA783B685A7497F857300733BA
:105A3000044A1344DA783B681A740123184658372D
:105A4000BD4680BD6817001000B583B04822002114
:105A5000074801F01BFB002301930122009246221C
:105A600004490548FBF776FE03B05DF804FB00BF70
:105A7000B417001090AE0100595B010070B50446E8
:105A800029B90088608001F08FF8606070BD0D4B0F
:105A9000A3FB0130000901F08BF8064620886388DB
:105AA000C01A01F085F80546002101F073FA28B903
:105AB0003146284601F084F9A060E7E705F100458A
:105AC000F6E700BFCDCCCCCC10B5054B00EB4004C5
:105AD00023F82410114603EB8400FFF7CFFF10BD1D
