:020000021000EC
:100000000080001039010100090101000B0101000D
:100010000D0101000F0101001101010000000000AD
:10002000000000000000000000000000A10C010022
:100030001301010000000000010D0100450D010049
:1000400015010100BD200100D12001008120010027
:100050001501010015010100252E010005290100EF
:100060001501010015010100150101001501010034
:100070001501010015010100150101001501010024
:10008000150101001501010055250100652501003C
:1000900075250100992401001501010015010100D9
:1000A000C12E01001501010015010100150101001B
:1000B00015010100150101001501010015010100E4
:1000C00015010100150101001501010090BC01009E
:1000D00000000010F001000090BC010000C00720EB
:1000E0000000000090BC010000C8072000000000D4
:1000F000F00100106408000000C0072000000000AC
:1001000000C80720FC350000FEE7FEE7FEE7FEE73B
:10011000FEE7FEE7FEE7002310B5934200D310BDD3
:100120001C585C500433F8E700231A468B4200D376
:1001300070471A500433F9E738B572B60C4C0D4DC0
:10014000AC4207D30C4DAC420BD300F005FB00F0E2
:10015000E9FAFEE7D4E90001A2680C34FFF7DBFFFF
:10016000EEE754F8080B54F8041CFFF7DDFFEAE74C
:10017000CC000100F000010008010100FEE7FEE7ED
:10018000FEE700BFFFFFFFFFFFFFFFFFFFFFFFFFD7
:10019000FFFFFFFFFFFFFFFFFFFFFFFFFFFFFFFF6F
:1001A000FFFFFFFFFFFFFFFFFFFFFFFFFFFFFFFF5F
:1001B000FFFFFFFFFFFFFFFFFFFFFFFFFFFFFFFF4F
:1001C000FFFFFFFFFFFFFFFFFFFFFFFFFFFFFFFF3F
:1001D000FFFFFFFFFFFFFFFFFFFFFFFFFFFFFFFF2F
:1001E000FFFFFFFFFFFFFFFFFFFFFFFFFFFFFFFF1F
:1001F000FFFFFFFFFFFFFFFFFFFFFFFFFFFFFFFF0F
:10020000FFFFFFFFFFFFFFFFFFFFFFFFFFFFFFFFFE
:10021000FFFFFFFFFFFFFFFFFFFFFFFFFFFFFFFFEE
:10022000FFFFFFFFFFFFFFFFFFFFFFFFFFFFFFFFDE
:10023000FFFFFFFFFFFFFFFFFFFFFFFFFFFFFFFFCE
:10024000FFFFFFFFFFFFFFFFFFFFFFFFFFFFFFFFBE
:10025000FFFFFFFFFFFFFFFFFFFFFFFFFFFFFFFFAE
:10026000FFFFFFFFFFFFFFFFFFFFFFFFFFFFFFFF9E
:10027000FFFFFFFFFFFFFFFFFFFFFFFFFFFFFFFF8E
:10028000FFFFFFFFFFFFFFFFFFFFFFFFFFFFFFFF7E
:10029000FFFFFFFFFFFFFFFFFFFFFFFFFFFFFFFF6E
:1002A000FFFFFFFFFFFFFFFFFFFFFFFFFFFFFFFF5E
:1002B000FFFFFFFFFFFFFFFFFFFFFFFFFFFFFFFF4E
:1002C000FFFFFFFFFFFFFFFFFFFFFFFFFFFFFFFF3E
:1002D000FFFFFFFFFFFFFFFFFFFFFFFFFFFFFFFF2E
:1002E000FFFFFFFFFFFFFFFFFFFFFFFFFFFFFFFF1E
:1002F000FFFFFFFFFFFFFFFFFFFFFFFFFFFFFFFF0E
:100300007047FFFF024AD36943F00103D36170478E
:1003100040C00920024AD36943F08003D36170478B
:1003200040C0092008B5244B1A6922F003021A6163
:100330001A6D22F0030242F008021A651A6922F4CB
:1003400040421A611A6D22F4404242F400321A65AA
:100350001A4B1A6842F001021A601A6842F08002D1
:100360001A60FFF7CFFFFFF7D5FF02F01FF801F08B
:1003700047FE01F00FFE01F0EBFD04F0E3FC02F09C
:10038000A9FB02F0FFF804F0CDFA02F0DBFD02F069
:100390001DFD02F0B9FF03F059F803F0C9F903F0AD
:1003A000B9FD03F00DFE03F0A3FF04F0B9FABDE8B8
:1003B000084004F089BD00BF00C0024040C00920D1
:1003C00008B54FF0402005F09FF94FF0402302227E
:1003D0005A6000225A6040F6FF12DA6001225A6029
:1003E00008BDFFFF80B592B000AF984BFB61984B02
:1003F000BB61984B3B62092387F82430012387F8BF
:100400002530002387F8263007F11803184603F03B
:1004100025FD914B7B60914BBB604FF00003FB606F
:100420004FF000037B614FF000033B613B1D18461A
:1004300003F040FD97F82530012B7ED103F0EEFD4F
:10044000786303F0EFFD38637B6B012283F834207F
:100450007B6B4FF07E529A607B6B4FF00002DA604C
:100460007B6B4FF000021A617B6B4FF000029A61C8
:100470007B6B7B4A1A627B6B7A4A5A627B6B0122E6
:100480001A773B6B012283F834203B6B4FF07E528E
:100490009A603B6B4FF00002DA603B6B4FF000025A
:1004A0001A613B6B4FF000029A613B6B6C4A1A6217
:1004B0003B6B6C4A5A623B6B01221A7703F054FF84
:1004C000F86203F055FFB862FB6A012283F834201A
:1004D000FB6A4FF07E529A60FB6A4FF00002DA60CE
:1004E000FB6A614A1A61FB6A4FF000029A61FB6A7B
:1004F0005E4A1A62FB6A5E4A5A62FB6A00221A77F7
:10050000BB6A012283F83420BB6A4FF07E529A60A6
:10051000BB6A4FF00002DA60BB6A534A1A61BB6AD9
:100520004FF000029A61BB6A504A1A62BB6A504A95
:100530005A62BB6A00221A7776E003F06FFD786496
:1005400003F070FD38647B6C012283F834207B6CEF
:100550004FF07E529A607B6C464ADA607B6C464A6A
:100560001A617B6C4FF000029A617B6C434A1A62FD
:100570007B6C434A5A627B6C00221A773B6C0122E7
:1005800083F834203B6C3F4A9A603B6C394ADA600E
:100590003B6C3D4A1A613B6C4FF000029A613B6C28
:1005A000364A1A623B6C364A5A623B6C01221A7711
:1005B00003F0DAFEF86303F0DBFEB863FB6B0122A5
:1005C00083F83420FB6B314A9A60FB6B4FF00002DA
:1005D000DA60FB6B2E4A1A61FB6B4FF000029A61E6
:1005E000FB6B224A1A62FB6B214A5A62FB6B0022A8
:1005F0001A77BB6B012283F83420BB6B1A4A9A60CE
:10060000BB6B4FF00002DA60BB6B214A1A61BB6B17
:100610004FF000029A61BB6B144A1A62BB6B144A1A
:100620005A62BB6B00221A774FF07E524FF07E5118
:10063000184803F0BDFE4FF080424FF0804115484E
:1006400003F0BEFE00BF4837BD4680BD6666E84188
:10065000008CAB457CF230BB00007A4300007A444A
:1006600000004842000048C20AD7233C0000204155
:10067000000020C1CDCC4C3DCDCC4C3C0000F04125
:100680000000F0C19A99193FCDCCCC3C8FC2F53C0B
:100690006666663F0000A04110B5084C0848214638
:1006A00004F0C2FF204605F007F904F087FD05F0CD
:1006B00009F9BDE81040034800F034BA0024F40002
:1006C0000020A1070000001038B50025144C226856
:1006D00042F480422260226842F400422260226892
:1006E00042F480322260E26942F48032E261E269DF
:1006F00042F40042E261E26942F48042E26155B1B3
:10070000A36943F48043A36142F2107085F00105B0
:1007100001F0D0F8F3E7E36943F48043E361F3E7E2
:1007200020C0092013B5FFF7B7FF0124FFF7FAFD3A
:1007300000233222CDE900430549064800F014FEAB
:10074000FFF750FE62B600F059FF204602B010BD20
:10075000D8B10100C9060100024B034A1A6004F037
:10076000D1BF00BF08ED00E00000010010B53D4C16
:100770000A4620463C4907F06FFB4FF63863A4F861
:100780004630022384F88E300623204684F88D30CC
:1007900007F082FB3B285BD8204607F07DFBC0B208
:1007A00084F88C002F4807F077FB3B2852D82D485F
:1007B00007F072FB02462B4901F18F0006F0D6FECE
:1007C0003E232A494022A1F1430084F8483006F034
:1007D000CDFE00232648A4F88A3002F0DDFD4D222C
:1007E0000146244806F0C2FE2249802201F14D0054
:1007F00006F0BCFE0321022002F0FFF940F6B834F7
:1008000000BF013CFCD10321022002F0EBF91A4A9F
:100810001A4912F8013B0B60102300BF013BFCD1C9
:100820004B6913F0260F17D001344D2CF1D16423FE
:1008300000BF013BFCD10321022002F0DEF94FF0A2
:10084000280383F31188BFF36F8FBFF34F8FFEE749
:100850003B20A5E73B22AEE7102300BF013BFCD1C4
:10086000DEE700BF00F80720E7B101008CF80720A1
:1008700046F80720CAF8072017F9072000000140B2
:1008800010B5182000F0C8F8044620B1002340F845
:10089000043B00F08BF9204610BDFFFF2DE9F84323
:1008A00006460D4698461746DDF8209000F0DCFE1F
:1008B000346804EA0503B8F1000F14D1ABB9B9F1FB
:1008C000000F18D0002F0CBF00214FF08071B8F13D
:1008D000000F01D041F080614A462943301D01F0EC
:1008E00059F8002407E09D42E9D13FB34FF00009D9
:1008F00024EA0503336000F04BFFB9F1000F1AD072
:1009000038B94FF08052124B1A60BFF34F8FBFF3CC
:100910006F8F01F055F9830104460AD400F0D2F933
:10092000346805EA0403B8F1000F09D153B900F0A7
:10093000D9F924F07F442046BDE8F883B946DAE7C8
:100940009D42F4D1002FF2D024EA05053560EEE790
:1009500004ED00E070B505460C4600F0B3F92E68D2
:1009600026EA04042C6000F0BDF9304670BD2DE984
:10097000F04104460D4600F10C0600F075FE2368B8
:1009800020692B4300252360B042216807D121EA6A
:100990000501216000F0FCFE2068BDE8F081D0E98F
:1009A000002822F07F4312F0806F03EA010702D192
:1009B0001FB94046E8E7BB42FBD1D20141F00071CC
:1009C00048BF1D4301F048F8F3E7FFF7D0BFFFFF32
:1009D00010B50F4B1A461B688342FBD3546811199C
:1009E000884201BF416810460919516044680119E5
:1009F0008B4207D1074909688B421FBF59681B68A2
:100A0000091941609042036018BF106010BD00BF1B
:100A100008020010F00100102DE9F041044600F03A
:100A200023FE244B1F68274241D1002C37D004F10C
:100A3000080362071CBF23F007030833002B36D0DE
:100A40001D4A166890469E4231D31C4A1568686854
:100A5000984201D2296839BB19490968A94226D0B0
:100A6000296814681160C21A102A04F1080404D914
:100A7000E81842606B60FFF7ABFF00236A6811491A
:100A8000B61A1743104A08682B601368864203F1B0
:100A90000103C8F8006038BF0E606F60136000F09B
:100AA00077FE2046BDE8F0812A460D46CFE70024B8
:100AB000F5E700BFF4010010F80100100802001073
:100AC000F0010010FC0100100002001010B50446F7
:100AD00000B3114A50F8043C126813421AD050F87F
:100AE000081CB9B923EA020340F8043C00F0BCFD3D
:100AF0000A4A54F8043C1168A4F108000B4413603E
:100B0000FFF766FFBDE81040054A13680133136024
:100B100000F03EBE10BD00BFF4010010F80100104F
:100B20000402001000232DE9F0431C461D469E469A
:100B3000194EDFF874C0376800F1040858F8342003
:100B40005AB903B137604FF00042144B1D60144B8B
:100B50001D60144B1A60BDE8F08350F83490A2F188
:100B6000080319F0070F16BF09F10701494621F0E4
:100B700007010CB9CCE900144B4423F007035A1ABF
:100B8000C3E900EEC1E9003207B139601F461544E0
:100B900001230134D2E700BFF0010010FC01001076
:100BA000F8010010F4010010080200104FF0FF32AD
:100BB00000F10803C0E902234360036100230360DE
:100BC000704700230361704743689A684B608A60EE
:100BD0009A68516099600368086101330360704747
:100BE00030B50C68631C0AD103695A684A60916089
:100BF0008B605960036808610133036030BD00F108
:100C00000802134652681568A542FAD9EDE7036950
:100C1000D0E901128A6051605968814208BF5A6068
:100C2000002202611A68013A1A60186870470023AE
:100C300082B001934FF0280383F31188BFF36F8FC5
:100C4000BFF34F8F019B002BFCD002B07047FFFF1A
:100C500006480068006880F3088862B661B6BFF392
:100C60004F8FBFF36F8F00DF00BF000008ED00E083
:100C70004FF0807340F8043C054B21F0010140F82F
:100C8000081C40F80C3C40F8202C4038704700BF4E
:100C90002F0C0100FFFFFFFFFFFFFFFFFFFFFFFF24
:100CA000074B19680868B0E8F00F80F30988BFF3B4
:100CB0006F8F4FF0000080F311884EF00D0E7047DB
:100CC000600200104FF0280383F31188BFF36F8F89
:100CD000BFF34F8F024A136801331360704700BFA0
:100CE00010000010034A1368013B13600BB983F333
:100CF0001188704710000010FFFFFFFFFFFFFFFF8C
:100D0000EFF30980BFF36F8F0D4B1A6820E9F00FE6
:100D100010602DE908404FF0280080F3118800F0A2
:100D2000E1FD4FF0000080F31188BDE8084019682C
:100D30000868B0E8F00F80F30988BFF36F8F704741
:100D40006002001008B54FF0280383F31188BFF349
:100D50006F8FBFF34F8F00F095FC18B14FF08052AA
:100D6000024B1A60002383F3118808BD04ED00E0F4
:100D70000022054B05491A600A6043F2FF11044A3C
:100D8000116007221A60704710E000E018E000E0F0
:100D900014E000E010B500240A4B1A6842F478020F
:100DA0001A601A6842F078421A60FFF7E1FF064BBA
:100DB0001C60FFF74DFF00F095FDFFF738FF204660
:100DC00010BD00BF20ED00E01000001010B504467B
:100DD000FFF778FFA46BFFF785FFB4FA84F04009B2
:100DE00010BDF8B51546026C0446866B52B907680B
:100DF00047BB806800F0ACFE0546A7600136284678
:100E0000A663F8BD65B9406806F0B0FB6368226C64
:100E10001344A26863609342F0D323686360EDE7F4
:100E2000C06806F0A3FB226CE36851429B1A22685B
:100E3000E36093423EBFA3685B18E360022D01D1DB
:100E400016B1013E0025D9E73546D7E703461A6CAF
:100E5000084610B462B1DC68996814448C4228BF1B
:100E60001968DC6028BFD960D96810BC06F07EBB69
:100E700010BC704770B50446FFF724FF94F8455046
:100E800004F124066DB2002D14DCFF2384F84530F4
:100E9000FFF728FFFFF716FF94F8445004F11006FF
:100EA0006DB2002D12DCFF2384F84430BDE87040A1
:100EB000FFF718BF636A002BE7D0304600F094FDBF
:100EC00008B100F029FE013D6DB2DCE72369002B7B
:100ED000E9D0304600F088FD08B100F01DFE013D6C
:100EE0006DB2DEE738B504460D46FFF7EBFED4E9F8
:100EF0000F314B432268D0185B1A1344A060E360A3
:100F00000020FF23A063626084F8443084F84530F9
:100F100095B9236963B104F1100000F065FD38B1A3
:100F20004FF08052094B1A60BFF34F8FBFF36F8FA2
:100F3000FFF7D8FE012038BD04F11000FFF736FEA0
:100F400004F12400FFF732FEF2E700BF04ED00E0F9
:100F500070B50646484348300D46FFF75DFD044630
:100F600048B155B100F1480301212046C4E90F659D
:100F70002360FFF7B7FF204670BD0346F4E7FFFF8D
:100F80002DE9FF474FF0000804460F461E46C146B4
:100F9000DFF8ECA00192FFF795FEA26BE36B9A429B
:100FA00001D3022E19D1324639462046FFF719FFE8
:100FB000636A1BB104F1240000F016FD38B14FF054
:100FC00080522F4B1A60BFF34F8FBFF36F8FFFF725
:100FD00089FE012004B0BDE8F087019D1DB9FFF72F
:100FE00081FE0020F6E7B8F1000F02D102A800F060
:100FF0005FFDFFF777FE00F037FBFFF763FE94F825
:101000004430FF2B08BF84F8449094F84530FF2B00
:1010100008BF84F84590FFF765FE01A902A800F01B
:1010200053FD30BBFFF74EFEA26BE36B9A420FD12C
:10103000FFF758FE019904F1100000F09BFC2046D8
:10104000FFF718FF00F0A4FB50B14FF00108A2E732
:10105000FFF748FE2046FFF70DFF00F099FBF4E78D
:101060004FF08053CAF80030BFF34F8FBFF36F8F3C
:10107000EBE72046FFF7FEFE00F08AFBB1E700BF7A
:1010800004ED00E0F8B5174604461A46EFF3118662
:101090004FF0280383F31188BFF36F8FBFF34F8F97
:1010A000806BE36B984201D3022A1ED194F845501D
:1010B00020466DB2A36BFFF794FE6B1C10D1636AE0
:1010C0000BB9012009E004F1240000F08DFC002898
:1010D000F7D0002FF5D00120386086F31188F8BDD5
:1010E00001356DB284F84550EBE70020F5E7FFFFCE
:1010F0002DE9F043002704460E46B84685B0DFF8D8
:10110000DC900192FFF7DEFDA56BD5B1314620469C
:10111000013DFFF79BFEA563236963B104F1100055
:1011200000F062FC38B14FF080522C4B1A60BFF3D4
:101130004F8FBFF36F8FFFF7D5FD012005B0BDE8DE
:10114000F083019D1DB9FFF7CDFD0020F6E717B92B
:1011500002A800F0ADFCFFF7C5FD00F085FAFFF72F
:10116000B1FD94F84430FF2B08BF84F8448094F814
:101170004530FF2B08BF84F84580FFF7B3FD01A978
:1011800002A800F0A1FCF0B92046FFF71FFEA0B1B5
:10119000019904F1240000F0EDFB2046FFF76AFE00
:1011A00000F0F6FA38B94FF08053C9F80030BFF3B9
:1011B0004F8FBFF36F8F0127A4E72046FFF75AFE3A
:1011C00000F0E6FAF7E72046FFF754FE00F0E0FAF9
:1011D0002046FFF7FBFD0028EDD0B6E704ED00E068
:1011E000002310B5064A52F833402CB942F83310A8
:1011F00002EBC303586010BD01330A2BF3D1FAE7A9
:101200001002001070B504460D461646FFF75AFD51
:1012100094F84430FF2B04BF002384F8443094F842
:101220004530FF2B04BF002384F84530FFF75AFDFB
:10123000A36B2BB93246294604F1240000F0BEFB13
:101240002046BDE87040FFF715BEFFFF064A136851
:101250001968064B19B94FF0FF321A6070471268CF
:10126000D268D2685268F8E76402001010030010D8
:10127000F8B51B4B1B4F1C68054638680E460430FA
:10128000FFF7C5FC3B4640B939681748CF6A0121D2
:101290000268B94022EA010202606A1C07D136B135
:1012A000196812480431BDE8F840FFF78DBC1A6890
:1012B0006419546007D30E4A10681968BDE8F840F5
:1012C0000431FFF78DBC0B4A106819680431FFF731
:1012D00087FC094B1A68A24288BF1C60F8BD00BF9A
:1012E0005C03001060020010E002001034030010E4
:1012F00068020010640200101003001080B5DFF8CF
:101300006480144F144C154E236863B9144B1B684A
:10131000012BF8D94FF08053C8F80030BFF34F8F3E
:10132000BFF36F8FEEE7FFF7CDFCFB68DD68281D8C
:10133000FFF76DFC3368013B33602368013B23609A
:10134000FFF7D0FC286BFFF7C1FB2846FFF7BEFB79
:10135000DAE700BF48030010D4020010D0020010EA
:101360006C02001004ED00E02DE9F84F4FEA820A0C
:10137000064650460D461F46DDF82C90FFF74CFB05
:101380008046D0B15C20FFF747FB044690B152463F
:10139000C0F83080A521404606F0F6F8236BAAF18C
:1013A000040A9A442AF0070AC4F848A045B984F808
:1013B000345014E04046FFF789FB4FF0FF358EE0D4
:1013C0006B1E04F13402133513F8011F02F8011BE0
:1013D000197809B1AB42F7D1002384F847300A9D50
:1013E0004FF0000B042D28BF042504F104084046EB
:1013F000E562E564C4F850B0FFF7E3FBC5F105050D
:1014000004F11800FFF7DDFBC4F854B03A4631464A
:1014100050462461A561646284F858B0FFF728FC47
:101420002060B9F1000F01D0C9F80040FFF74AFC75
:10143000314B324E1A68324F01321A603268002A3C
:1014400050D134601B68012B25D12E48FFF7AEFB2D
:101450002D48FFF7ABFB2D48FFF7A8FBDFF8DC902A
:101460002B48FFF7A3FB2B4D2B48FFF79FFB48466C
:10147000FFF79CFB2846FFF799FB2848FFF796FBF0
:101480002748FFF793FB2748FFF790FB264BC3F84D
:101490000090264B1D600125254A264913680868DF
:1014A00001331360E26A05FA02F3034314200B6070
:1014B000144B414600FB0230FFF786FBFFF712FC9E
:1014C0003B6863B13368DA6AE36A9A4207D24FF045
:1014D0008052194B1A60BFF34F8FBFF36F8F2846AE
:1014E000BDE8F88F3B68002BD5D13368E26ADB6A30
:1014F0009A4228BF3460CEE7D0020010600200108C
:10150000300300106C0200108002001094020010E2
:10151000A8020010F8020010BC0200101C0300100A
:101520004803001034030010640200106802001029
:10153000DC020010E002001004ED00E0E402001004
:10154000F8B50446244DFFF7BDFB04B92C68261DF1
:101550003046FFF75CFB60B91420E76A1F4B784305
:101560001B5833B901221E49BA400B6823EA020313
:101570000B60A36A1BB104F11800FFF748FB194A7E
:101580001368013313602B68A34218D13146164803
:10159000FFF71AFB154A136801331360FFF7A2FB2C
:1015A000134B1B6853B12B68A34207D14FF08052F5
:1015B000104B1A60BFF34F8FBFF36F8FF8BD0E4A09
:1015C000206B1368013B1360FFF780FA2046FFF79A
:1015D0007DFAFFF73BFEE1E7600200106C020010AD
:1015E000E0020010DC02001048030010D4020010DA
:1015F0003003001004ED00E0D002001013B5002409
:10160000134B322201931349234613480094FFF7EA
:10161000ABFE01281AD100F029FB012816D14FF0AA
:10162000280383F31188BFF36F8FBFF34F8F4FF001
:10163000FF320A4B1A600A4B18600A4B1C60FEF717
:10164000BFFE02B0BDE81040FFF7A4BB02B010BD62
:101650000C03001010B20100FD1201001003001075
:10166000300300105C030010024A1368013313605A
:10167000704700BFD8020010014B1868704700BFC8
:101680005C0300102DE9F84F364B1B68002B62D12C
:10169000354B1D6801351D605DB9344A344B116806
:1016A00018681060334A1960136801331360FFF73C
:1016B000CDFD314E00243368304F9D4210D2304B67
:1016C0001B68DA6A14235343FB58022B2D4B28BFA7
:1016D00001241B68002B18BF01242046BDE8F88FA9
:1016E000DFF888A0DFF8A490DAF800301B681BB997
:1016F0004FF0FF333360E2E7DAF80030DB68D3F80D
:101700000CB0DBF80420954201D23260D7E70BF130
:1017100004084046FFF77BFADBF828201AB10BF1EA
:101720001800FFF774FA0122DBF82C00D9F800301A
:1017300082401A43C9F800201422414602FB00707F
:10174000FFF742FA0E4BDBF82C201968CB6A9A425D
:1017500028BF0124C8E70C4A002413680133136032
:10176000BBE700BFD80200105C0300106402001049
:101770006802001014030010100300106C02001027
:10178000600200106003001018030010E002001057
:101790002DE9F843FFF796FA2A4B1A68013A1A60C6
:1017A0001C682CB10024FFF79DFA2046BDE8F883A1
:1017B000254B1B68002BF5D0244D254EDFF8A48067
:1017C0001FE0EB680127DC6804F1040904F118004C
:1017D000FFF71DFA4846FFF71AFA1420E26A31684B
:1017E00007FA02F30B4300FB028049463360FFF720
:1017F000EBF9184BE26A1B68DB6A9A4201D3164B7D
:101800001F602B68002BDCD10CB1FFF71FFD134DBF
:101810002C6844B10127104EFFF734FF00B1376048
:10182000013CF9D12C600C4B1B68002BBAD04FF057
:1018300080520B4B1A60BFF34F8FBFF36F8F0124A1
:10184000B1E700BFD8020010D00200101C03001046
:10185000E002001060020010600300101803001086
:1018600004ED00E06C02001010B5FFF7FDFE0F4B19
:1018700004681A6863182CBF012100219442036098
:101880000CD961B9FFF784FF38B94FF08052084B8B
:101890001A60BFF34F8FBFF36F8F10BD09B99A4223
:1018A000F0D20021981AFFF7E3FCEBE75C0300108D
:1018B00004ED00E008B540B94FF08052084B1A60C3
:1018C000BFF34F8FBFF36F8F08BDFFF7CDFE002131
:1018D000FFF7CEFCFFF75CFF0028EDD0F4E700BF78
:1018E00004ED00E01E4B70B51A681E4B12B10122C8
:1018F0001A6070BD1C4C1A6023681B6B1A68B2F129
:10190000A53F0BD15A68B2F1A53F07D19A68B2F151
:10191000A53F03D1DB68B3F1A53F04D0206821685F
:101920003431FEF723FF114B1B68B3FA83F3142005
:10193000DBB2C3F11F0300FB03F20D498D186E6883
:10194000083276680A44964200FB031308BF7268A7
:101950006E6008BF6A605B68DB682360C9E700BF30
:10196000D80200106003001060020010E0020010B6
:101970006C02001010B50C46054B19681831FFF7C2
:101980002FF92046BDE810400121FFF771BC00BFD0
:101990006002001010B51446074B41F000411A6870
:1019A000916119681831FFF70FF92046BDE8104022
:1019B0000121FFF75DBC00BF6002001038B514467E
:1019C0000D46084B19681831FFF7FEF8002C214628
:1019D00008BF2846BDE8384018BF4FF0FF30FFF77A
:1019E00047BC00BF6002001038B5C368DC6804F172
:1019F00018052846FFF70BF9114B1B68E3B9251DA5
:101A00002846FFF704F901230E49E26A086893406B
:101A1000034314200B6029460B4B00FB0230FFF7F9
:101A2000D3F80A4BE26A1B68DB6A9A4285BF012041
:101A3000074B0020186038BD29460648EFE700BF75
:101A4000D8020010E00200106C02001060020010CA
:101A5000600300101C03001070B50125C46841F03C
:101A600000410160261DFFF7D2F83046FFF7CFF89E
:101A70000B49E26A086805FA02F3034314200B607D
:101A8000084B314600FB0230FFF79EF8064BE26A36
:101A90001B68DB6A9A4284BF044B1D6070BD00BFA7
:101AA000E00200106C0200106002001060030010E1
:101AB000034B1B680360034B1B684360704700BF08
:101AC000140300105C03001070B50C460546FFF7C8
:101AD000F9F80F4B196823685A1C10D00D482E686E
:101AE00000686A68864201D08A420FD9881A834208
:101AF0000AD95B1A134428462360FFF7D9FF002454
:101B0000FFF7F0F8204670BD002323600124F7E7BB
:101B10005C030010140300100122014B1A6070478F
:101B200060030010014B1868704700BF600200108E
:101B3000054B1B6833B1054B1B68002B0CBF022003
:101B4000002070470120704730030010D8020010B9
:101B5000F8B5044608B90020F8BD036DC16AC26C2F
:101B6000013B91420365F6D0002BF4D1061D3046AF
:101B7000FFF74DF8104F114A50B91421E06A414364
:101B80007B582BB901251368854023EA05031360B0
:101B9000E36C1420C3F10501A161E3620124116823
:101BA00004FA03F500FB03700D4331461560FFF79F
:101BB0000BF82046D0E700BF6C020010E0020010D6
:101BC000044B1A68196890691A68CB6AC3F1050357
:101BD0009361704760020010F8B50F4CFFF772F880
:101BE0002568ADB90D4F0E4E3846FEF7DFFF304683
:101BF000FEF7DCFF0B4B2A461F600B4B1021052024
:101C00001E60FFF7A5F9206010B10849FFF7E8FA58
:101C1000BDE8F840FFF766B8980300106C030010A9
:101C200080030010640300106803001015B2010067
:101C3000914208B5416000610AD8D21A83699A427C
:101C40000DD2084B011D1868FEF7CAFF002008BD21
:101C50009A4201D2994202D2034B011DF3E70120BF
:101C6000F5E700BF680300106403001007B5FFF735
:101C7000B3FF084B186848B1074B64220193042353
:101C80000649009306480023FFF76EFB03B05DF89A
:101C900004FB00BF980300109C0300101AB201005F
:101CA000551D01007FB50F4C0546206816461A46A3
:101CB00080B10529CDE9001602950DDCFFF738FF4C
:101CC0000023022818BF1A46694608BF089A2068F0
:101CD000FFF756F904B070BD00236946FFF7D2F94B
:101CE000F8E700BF980300102DE9F3414FF000081A
:101CF000164D2B681A6832B9154A116813602960AD
:101D000002B0BDE8F081DB68DC681E68271D38463C
:101D1000FEF77DFF236A2046984794F824305B073E
:101D2000E7D5A36933449E4206D2394628686360EA
:101D30002461FEF755FFDCE70023324619462046B2
:101D4000CDF80080FFF7AEFFD3E700BF64030010BB
:101D5000680300102DE9F04F674E87B0B146336835
:101D6000D3F800B0BBF1000F28D00024DB68D3F813
:101D700000B0FFF779FCFFF77FFC604D82462B68CF
:101D8000A84698425E4F1BD3286014B35D4B1B6876
:101D90001C68B4FA84F4640922463868ABEB0A0183
:101DA000FFF730FAFFF7F4FC80B94FF08053564A42
:101DB0001360BFF34F8FBFF36F8F07E00124D8E7A5
:101DC000FFF792FFC5F800A0FFF7E2FC4FF0000B11
:101DD0002CE08345E0D8FFF7DBFCD9F80030DB6866
:101DE000DD68281DFEF713FF95F82430580712D53B
:101DF000A9695B46524628465944FFF719FF30B19E
:101E000023465A46214628460094FFF74BFF2846B2
:101E10002B6A9847DAE723F0010385F82430F6E7C8
:101E2000039B05999847029B002B0ADA0022386829
:101E300002A9FFF75DF9002891D0029B0498002BBE
:101E4000EEDB049C6369A3B9FFF716FCD8F80030F9
:101E50000546984201D2FFF747FF029BC8F80050A1
:101E6000092BE3D8DFE803F00909092A3140090901
:101E70002A31201DFEF7CBFEE6E794F82430A16955
:101E800043F0010384F82430039B2A46204619447A
:101E9000FFF7CEFE0028C9D0236A2046984794F861
:101EA00024305907C2D50023A269039920460A4469
:101EB000CDF800B01946FFF7F5FEB7E794F82430E7
:101EC00023F0010384F82430B0E794F82430039918
:101ED00043F0010384F82430A1612B462A462046B2
:101EE0002944FFF7A5FEA1E794F824309A07E7D428
:101EF0002046FEF7EBFD99E7640300109403001001
:101F0000980300106803001004ED00E01FB51446AC
:101F10001A466FF00103CDE900300548CDE90214FF
:101F2000002369460068FFF7ADF804B010BD00BF9C
:101F300098030010054B20B19A6942F000629A6143
:101F40007047DA6942F00062DA61704720C0092008
:101F50000E4A08B5D368002023F44003D360D36C45
:101F600023F4400343F00073D364094A136843F039
:101F700000631360FFF7DEFF46F2905003F0FCF9B8
:101F8000BDE80840012003F04FBA00BF00C0024086
:101F900020C0092080B582B002AF0023009308233F
:101FA00004220021144800F095F9012304220021A5
:101FB000124800F0BDF90223009308231C220421DB
:101FC0000D4800F087F90023009308231122012116
:101FD000094800F07FF9012311220121074800F090
:101FE000A7F90223009308231D220421024800F0D0
:101FF00071F900BFBD4680BD00C0024000C009208D
:1020000080B500AF1D4803F07FFB1C4803F092FB36
:102010001A4B00229A61194B0022DA61174B4FF4D8
:10202000FA621A62154BFF221A600021134800F071
:102030009BF90121114800F097F902210F4800F0A7
:102040008BF902210D4800F099F9002301220021AB
:102050000A4803F07BFB012301220021074803F01B
:1020600075FB064800F073F90521032000F01EF906
:10207000032000F0F3F800BF80BD00BF000009405E
:1020800008200C4B0C499A69322A82BFDA6B42F065
:102090000102DA63074BDA69322A82BFDA6B42F057
:1020A0000202DA63034A136843F004031360C1F8C1
:1020B000800170470000094000E100E080B500AFFA
:1020C000012000F0D7F8012000F0E2F800BF80BD49
:1020D00080B500AF022000F0CDF8022000F0D8F863
:1020E00000BF80BD90B587B000AFF8600B467A6046
:1020F000FB72786804F0D6FF03467B617B68642B33
:1021000001D964237B607B68042B01D800237B60AA
:10211000FB681B6A7A6802FB03F3184604F0C2FFEF
:1021200003467B610949786905F0C8F803467B617D
:1021300097F90B40786905F0F9F90146FB68A21D93
:1021400043F8221000BF1C37BD4690BD0000C842B6
:1021500080B582B000AF03460A46FB711346BB71DF
:10216000FB7904220021064800F0D3F8BB79112244
:102170000121034800F0CDF800BF0837BD4680BDFF
:1021800000C0092080B584B002AF03460A46FB7147
:102190001346BB71294ABB791370FB79002B02D01F
:1021A000012B18D02FE0BB79002B08D0022300931D
:1021B00008231C220421224800F08CF83AE0002376
:1021C000009308231C2204211D4800F083F81D4BB6
:1021D00000229A612EE0BB79002B08D002230093E5
:1021E00008231D220421164800F074F822E0002381
:1021F000009308231D220421114800F06BF8114BB5
:102200000022DA6116E00023009308231C22042137
:102210000B4800F05FF80023009308231D220421DF
:10222000074800F057F8074B00229A61054B00223F
:10223000DA6100BF00BF0837BD4680BDA0030010B3
:1022400000C002400000094080B400AF024B1B7880
:102250001846BD4680BC7047A00300100123420908
:1022600000F01F0003FA00F0014B43F82200704712
:1022700000E100E00122430900F01F0002FA00F033
:10228000024A203342F82300704700BF00E100E01B
:102290000122430900F01F0002FA00F0024A6033F5
:1022A00042F82300704700BF00E100E00028ACBF07
:1022B00000F16040064B4FEAC101C9B2B5BF00F062
:1022C0000F0000F56140195480F80013704700BFFB
:1022D00014ED00E070B50325140904EB4101C9B207
:1022E00002F00F0250F821C052009DF810409540B6
:1022F00094402CEA050C44EA0C0400EB810640F8FB
:102300002140316C03FA02F221EA05052A433264C6
:1023100070BDC9B200EB4110012101FA02F21BB1FC
:1023200083691A4382617047C3691A43C261704767
:1023300010B50124490104FA02F21BB143581A43B3
:10234000425010BD435823EA02024250F9E7436865
:1023500043F001034360704701EB410301214269EF
:1023600099401143416170470122436901EB4101EA
:1023700002FA01F123EA010343617047012301EBF3
:1023800041014269013103FA01F111434161704792
:10239000012303FA00F0044B5A6902435A611A6997
:1023A00010431861704700BF80800240294A08B579
:1023B0001368062023F080031360274B196821F46B
:1023C00040411960196C21F440411964116821F0F1
:1023D00040011160196821F440511960196C21F411
:1023E00040511964116821F400711160196821F4D9
:1023F00040211960196C21F440211964116821F4FD
:10240000807111601A6822F440321A601A6C22F44A
:1024100040321A64C022114B1A604FF44072104BC4
:102420001A60FFF7B5FF0720FFF7B2FF0920FFF79B
:10243000AFFF0820FFF7ACFF00220A4BDA6008224A
:10244000094B83F815234FF40012C3F880211A605A
:1024500008BD00BF00C0092000C00240B00300104A
:10246000B40300108080024000E100E00346034A0C
:1024700092E8030083E8030018467047A4030010A5
:10248000044B10B51C6804441C605A680A445A6026
:1024900010BD00BFA4030010274B1A68D20700D458
:1024A0007047264998685A68096802430A4210B47E
:1024B0003CD02348D96043694169224C890920787E
:1024C00001F00201C3F38013194381422ED01E4B49
:1024D00080EA510010F0010F186814BF00F1FF30BE
:1024E000013018602170194909680A4218D0124851
:1024F000134AC16051695269154CD209207802F023
:102500000202C1F340210A43824209D0596880EA9D
:102510005200C0074CBF01F1FF31013159602270F8
:102520001A6810BC1A605A685A6070470749064B0F
:1025300009680A42F4D0DAE780800240B003001054
:1025400000C00920AC030010A4030010B403001065
:10255000AD0300104FF48022014BC3F88021704777
:1025600000E100E04FF40022014BC3F880217047E6
:1025700000E100E04FF48012014BC3F88021704766
:1025800000E100E038B5284C284AE368002023F039
:102590004073E360E36C264D23F0407343F0006327
:1025A000E364136843F08053136000F04DF823692F
:1025B000204A23F040632361236D23F0406343F0FE
:1025C00000532365136804F5D82443F400531360C3
:1025D000204603F0E1F81849204603F0FCF80323F5
:1025E0002046E36003F0F4F88023012229461348D3
:1025F00002F026FF80230122E918114802F020FF93
:102600008723A360636843F005036360636823F076
:102610000203636000F0D0F980220A4BC3F88021E6
:10262000302283F8072338BD00C0024020C00920B3
:1026300097F9072040C0092040420F0050040010C5
:102640006404001000E100E0054B20B19A6942F0FB
:1026500080529A617047DA6942F08052DA617047BD
:1026600020C0092080B584B000AF78600023FB60F3
:102670000023FB7200237B720023BB720BE007F187
:10268000090319463A4802F03FFFBB7A0133BB7297
:10269000BB7A032B64D87B7AFF2BF0D10023BB726B
:1026A00000237B720BE007F109031946304802F062
:1026B0002BFFBB7A0133BB72BB7A032B52D87B7AD8
:1026C000FF2BF0D12B492A4802F01EFF294B1B7823
:1026D0001A46FB681344FB602749254802F014FFA3
:1026E000244B5B781A46FB681344FB60234920485F
:1026F00002F00AFF1F4B9B781A46FB681344FB60ED
:102700000023FB7215E0FB7A442B2DD8FB7A194A83
:10271000134403331946164802F0F6FEFB7A154AB5
:102720001344DB781A46FB681344FB60FB7A0133E1
:10273000FB72FA7A0F4B5B78023B9A42E3DB07F1BC
:10274000090319460A4802F0DFFEFB68DB43FB6021
:1027500000234FF0FF3207497868FEF711FC04E0D0
:1027600000BF02E000BF00E000BF1037BD4680BDE3
:1027700050040010060400100704001008040010A4
:1027800080B584B000AF78600023FB8100237B73A9
:102790007B7B5A1C7A731A463B4BFF2199547B7BF7
:1027A0005A1C7A731A46384BFF2199547B7B5A1C6A
:1027B0007A731A467B681978334B99547B681B7877
:1027C0009AB2FB891344FB817B7B5A1C7A731A46AD
:1027D0007B6859782C4B99547B685B789AB2FB895B
:1027E0001344FB817B7B5A1C7A731A467B68997869
:1027F000254B99547B689B789AB2FB891344FB81E3
:102800000023BB6019E0BB68442B1DDC7B7B5A1C9A
:102810007A7319467A68BB68134403331A781A4BE3
:102820005A547A68BB68134403331B789AB2FB8905
:102830001344FB81BB680133BB607B685B78023B60
:10284000BA689A42DFDB00E000BFFB89DB43FB8113
:102850007B68002283F847207B7B5A1C7A731A46D8
:10286000FB89D9B2084B99547B7B1A460649074825
:1028700002F006FE7B7B1A460449054800F00AF880
:1028800000BF1037BD4680BDB803001064040010BF
:102890000080094080B586B000AFF860B9607A600A
:1028A00000F064F800F0B5F80FE0FB7C1946F8681A
:1028B00000F00CF900BF00E000BFF86800F008F974
:1028C000034603F02603002BF6D007F11303194645
:1028D000B86802F019FE0346002BE6D100237B61A5
:1028E00000237B6102E07B6901337B617B69C72B3D
:1028F000F9DD00F061F800F085F800BF1837BD463B
:1029000080BDFFFF002307B5114A12491248019309
:1029100002F09EFF0F4802F04DFE052806DD0F492C
:10292000102209680E4801ABFFF7F0FA019B3BB19A
:102930004FF080520B4B1A60BFF34F8FBFF36F8F76
:102940008022094BC3F8802103B05DF804FB00BF6F
:102950006404001050040010008009408805001035
:10296000CB09010004ED00E000E100E080B582B099
:1029700002AF01230D2202210D4800F089F8002347
:10298000009308230B2200210A4800F063F800237B
:102990000B220021064800F08AF801230093082347
:1029A0000A220021034800F055F800BFBD4680BD53
:1029B00000C0092000C0024080B582B002AF0023F1
:1029C0000D2202210D4800F063F800230093082334
:1029D0000A2200210A4800F03DF800230A220021C3
:1029E000064800F064F80123009308230B2200211D
:1029F000034800F02FF800BFBD4680BD00C009208D
:102A000000C0024080B500AF072000F009F800BF09
:102A100080BD80B500AF072000F00EF800BF80BD7C
:102A20000123420900F01F0003FA00F0014B43F8B4
:102A30002200704700E100E00122430900F01F007E
:102A400002FA00F0024A203342F82300704700BF28
:102A500000E100E0F0B50325140904EB4101C9B21F
:102A600002F00F0250F8217052009DF8144095407A
:102A7000944027EA05073C4300EB810640F82140DB
:102A8000316C03FA02F221EA05052A433264F0BDF3
:102A9000C9B200EB4110012101FA02F21BB18369B6
:102AA0001A4382617047C3691A43C261704710B507
:102AB0000124490104FA02F21BB143581A4342505F
:102AC00010BD435823EA02024250F9E70160704703
:102AD0004069704708B52149214802F001FB214BAC
:102AE0005A6822F4404242F480425A605A6C22F4FE
:102AF000404242F400325A645A6822F4403242F4AE
:102B000080325A605A6C22F4403242F400225A64F5
:102B10005A6822F4402242F480225A605A6C22F40D
:102B2000402242F400125A645A6822F4401242F4DD
:102B300080125A605A6C22F4401242F400025A6425
:102B40001A6822F0C00242F080021A601A6C22F069
:102B5000C00242F400721A6408BD00BF780400107D
:102B60000040034000C00240072873B5044632D835
:102B70001A4D014601221A4802F003FB2B7803F09C
:102B8000FF0103B10121164802F00BFB2B7803F083
:102B9000FF021BB90121124802F0E7FA104E002291
:102BA0002146304602F0CBFA0128F8D121460C48E4
:102BB0000DF1060202F0B8FA2B781BB1002108488B
:102BC00002F0EFFA06480022214602F0DAFABDF8D8
:102BD000060002B070BD0020FBE700BF80040010BB
:102BE000004003400123400100F1005000F51C208B
:102BF00082698B401343836170470123400100F1D8
:102C0000005000F51C20C2698B401343C36170471C
:102C10000A0902EB4002D2B2920002F18043032281
:102C2000F0B403F5303301F00F06D3F800C076009E
:102C300002FA06F72CEA07021A601A6C22EA070267
:102C4000082707FA06F632431A640122430103F10A
:102C5000005303F51C231C688A4022431A60F0BC11
:102C6000FFF7CBBF80B588B000AFF860B9607A607D
:102C700003210220FFF7B6FF21E0FB7C1946F8682C
:102C800000F052F80023FB6103E000BFFB69013351
:102C9000FB61FB690F2BF8DD09E00023BB6103E05A
:102CA00000BFBB690133BB61BB690F2BF8DDF8685E
:102CB00000F03CF8034603F02603002BEDD007F1AB
:102CC00013031946B86802F01FFC0346002BD4D149
:102CD00000237B6103E000BF7B6901337B617B697B
:102CE000632BF8DD03210220FFF787FF00BF2037A9
:102CF000BD4680BD4FF4967307B500930123054888
:102D00001A464FF000410068FDF7C8FD03B05DF8BA
:102D100004FB00BF88050010024B4FF0004118680B
:102D2000FDF725BE880500100160704740697047B7
:102D3000204B10B51A68204C22F0404242F08042ED
:102D40001A601A6C032122F040421A645A68022069
:102D500022F0030242F001025A605A6C22F0030290
:102D600042F008025A64FFF753FF204602F014FDB8
:102D70001249204602F02FFD03232046E36002F0B3
:102D800027FD4FF4807301220D490E4802F058FBD5
:102D900087234022A360636843F005036360636890
:102DA00023F002036360084BC3F88021302283F8CC
:102DB000062310BD00C002400000014080841E00B8
:102DC00097FA07206005001000E100E037B5802386
:102DD00001220F490F4802F033FBFFF7A9FF002241
:102DE0004D210520FEF7B4F80B4C0C4D2146286010
:102DF000FEF7F6F90323002204F11201CDE90032B7
:102E0000074864222B68FEF7AFFA03B030BD00BF5D
:102E100097FB07207405001044B20100D80400108D
:102E2000D92E010013B500241D48019402F0C2FB05
:102E30000A28D8BF1B4B1C4A19491C48D8BF1C7014
:102E400002F006FD164802F0B5FB0A281BDD154C02
:102E50002378C3B9164901AB042209681548FFF766
:102E600055F801232370019B3BB14FF08052124B68
:102E70001A60BFF34F8FBFF36F8F40220F4BC3F821
:102E8000802102B010BD064802F094FB7F28EADDE5
:102E900007490422096801AB0648FFF737F8E2E763
:102EA00060050010DC0400107405001000000140F3
:102EB00088050010CB09010004ED00E000E100E00E
:102EC000034B044A1B6810681B68DB68184700BF87
:102ED0001400001084040010064608B53220FEF7E6
:102EE000E9FC144C144D04F10108FFF703FF002224
:102EF00030461049FEF7FCF80128F6D14146284635
:102F0000227802F0BDFA94F84C30012B08D1294602
:102F100022780A48FFF7A6FE0A20FEF7CBFCE6E778
:102F2000284602F047FB06490246284602F004FB09
:102F3000F2E700BF88040010740500100000014093
:102F4000DD04001008B5FDF79BFC014B186008BDBF
:102F50008805001090B589B000AF786039603B6893
:102F6000002B01D100234FE17B68002B01D100230E
:102F70004AE14FF4FA7000F0F7F90023FB730023E5
:102F8000FB820023FB8300237B770023BB7300239A
:102F90003B7707F10F031946786802F0B5FA20E095
:102FA00007F10F031946786802F0AEFA0346002BCA
:102FB0000ED03B7F01333B773B7F022B11D900F0D2
:102FC000E3F9934B1B680133914A136000231BE123
:102FD00000F0DAF98E4B1B6801338D4A1360002331
:102FE00012E1FB7B7E2BDBD103228A49786802F059
:102FF000A3FA884B1B78FB82B7F916301B02FB82C1
:10300000844B5B789AB2FB8A13449BB2FB82B7F97C
:1030100016304B2B08DD00F0B7F97D4B1B680133F0
:103020007B4A13600023EFE07A4B9B789AB2FB8BCC
:1030300013449BB2FB83774B9B78892B0DD10322E2
:103040007449786802F078FA00F09EF9704B1B68BA
:1030500001336F4A13600023D6E000233B7711E071
:103060003B7F01333B773B7F052B08D900F08CF980
:10307000674B1B680133664A13600023C4E00120DC
:10308000FEF718FC786802F095FA0246B7F9163098
:10309000013B9A42E4DB06225E49786802F04CFA72
:1030A0000023BB610BE05B4ABB6913441B789AB2F7
:1030B000FB8B13449BB2FB83BB690133BB61BB69D0
:1030C000032BF0DD534B1A79534B1A70524B1B787C
:1030D0009AB2FB8B13449BB2FB834E4B5B795AB283
:1030E0004D4B5A704C4B93F90130DBB29AB2FB8BCB
:1030F00013449BB2FB83FB8ADBB2073BDAB2464B3D
:103100009A70454B9B78402B76D800233B7711E093
:103110003B7F01333B773B7F052B08D900F034F927
:103120003B4B1B6801333A4A136000236CE00120DB
:10313000FEF7C0FB384B9B781C46786802F03AFAE1
:1031400003469C42E4DA344B9B781A46334978684C
:1031500002F0F2F900237B770BE07B7F2E4A1344C9
:10316000DB789AB2FB8B13449BB2FB837B7F0133EA
:103170007B77294B9B787A7F9A42EED307F10E0337
:103180001946786802F0C0F9FB8BDBB2FB83FB8B3E
:10319000DBB2DB43DBB2FB83B7F91E30BA7B934271
:1031A0001ED11F4B1B6801331D4A136039681A4832
:1031B00000F03CF838613B69002B08D000F0E4F8DF
:1031C000184B1B680133174A136001231CE0164B90
:1031D0001B680133144A136000F0D6F8002313E093
:1031E00000F0D2F80A4B1B680133094A1360012032
:1031F00000F0F8F9002307E000F0C6F8044B1B6864
:103200000133034A1360002318462437BD4690BD9E
:1032100090050010ACFC072066FC072069FC072025
:1032200098050010940500108C05001010B4044699
:10323000084694F901104B1C0FD00D4B5A695B697D
:10324000C2F30022C3F3001382F0010283F00103F2
:1032500043EA42030133994206D1214600234FF04D
:10326000FF3210BCFDF78CBE002010BC704700BFC1
:1032700020C009202DE9774105463220FEF71AFBD0
:103280004022124B1A601DB9FEF74CFCFEF758F9AC
:1032900000244FF0FF380E4E002301220C2130682D
:1032A000CDF80080FDF7FAFA43070DD410F0080FAF
:1032B00018BF0024204602F07DF90028ECD02946F2
:1032C0002046FFF747FEF5E7024CF3E700E100E098
:1032D000880500106005001008B5002246210A206C
:1032E000FDF736FE054B06491860FDF779FF054BE3
:1032F00003211868BDE80840FDF739BB9C050010A4
:1033000067B201008805001007B5FFF7E5FF02234B
:103310000022CDE90032054B64221B6804490548B0
:10332000FEF722F803B05DF804FB00BF9C05001017
:103330007CB2010075320100012307B500900548F9
:103340001A4619460068FDF7A9FA00F0010003B01B
:103350005DF804FB88050010024B01211868FDF799
:1033600006BB00BF88050010012307B50090054883
:103370001A4602210068FDF791FAC0F3400003B03D
:103380005DF804FB88050010024B02211868FDF768
:10339000EEBA00BF880500107E2230B51C4B03300A
:1033A0005A7010F8014C04F10B021A70E21DDA7029
:1033B0001112012299701A715A71B0F84120110A44
:1033C000DA71002299711A7210F8031C597210F800
:1033D000021C997203F10B01D5B2AC420AD800224B
:1033E000032104F1090088420ADAD2430B445A70DF
:1033F000074830BD10F8015B013201F8015BEBE7D3
:103400005C1864780131224412B2C9B2EBE700BF04
:1034100018FC072010B50C46FFF7BEFF09480A4903
:1034200000236422006881F84C40FDF7A9FD0446A2
:1034300020B1FFF791FF0124204610BDFFF78CFF5C
:10344000FAE700BFD804001018FC07207047FFFF00
:1034500084B070B504AC84E80F0032209DF824607D
:10346000FFF76AFF58B31849049803F073FE04F09D
:1034700037F8164D14492880059803F06BFE04F0C8
:103480002FF813496880079803F064FE04F028F8C9
:103490004FF60A730F4C294623800623A88040224A
:1034A000E01CA37004F062F84FF6FF73314620462B
:1034B000A4F84430BDE8704004B0FFF7ABBFBDE8EE
:1034C000704004B0704700BF00002041A00500100C
:1034D0000000C842F8FC07202DE9F04704463220DE
:1034E000894690461F46FFF727FF002840D04FF639
:1034F0003863384D384E2046338085F8029085F881
:10350000018004F0C9FC80B23A2833D9A94605F1FC
:10351000030A06F10308204604F0BEFC3B2854D8F9
:10352000204604F0B9FCC0B22870204604F0B4FC78
:103530003B284CD8204604F0AFFC024621465046BA
:1035400004F014F83E23402249464046B37004F08C
:103550000DF8002339462048A6F84430FFF75AFFFB
:103560002B781C44204604F097FC80B20028D2D16E
:10357000BDE8F087204604F08FFC3B2821D8204688
:1035800004F08AFCC0B22870204604F085FC3B2879
:1035900019D8204604F080FC024621460F4803F06B
:1035A000E5FF3E230B4940220D48B37003F0DEFFD8
:1035B00000233946A6F844300748BDE8F047FFF736
:1035C00029BF3B20DFE73B22E7E73B20ACE73B227C
:1035D000B4E700BFA6050010F8FC0720A9050010FD
:1035E000FBFC0720144A13B553695269C3F3002347
:1035F000C2F3001283F0010382F0010242EA4302A7
:103600000E4B0F4C1B680F49019323683132009316
:103610000D4B0E481B6804F01FFC23680422042B8A
:10362000D8BF00214FF00103C8BF0221074802B0F4
:10363000BDE81040FFF750BF20C009208C050010E6
:10364000900500108DB2010098050010E5050010EE
:103650007FB504463220FFF76FFE002836D04FF6C4
:10366000FD731B481B4D0380002383704FF6FF73CF
:103670002146A0F84430FFF7CDFE2E7806BB164A4F
:10368000164953695269C3F30023C2F3001283F051
:10369000010382F0010242EA4302114B31320293EC
:1036A000104B11480193114B0093114B04F0D4FBC4
:1036B0000123042231460C48FFF70EFF01232B7033
:1036C000204604B0BDE87040FFF78CBF04B070BD69
:1036D000F8FC0720E405001020C00920CAB2010050
:1036E000F0B20100F9B20100E505001005B30100D8
:1036F000C8B2010070B5064632200D46FFF71CFE29
:1037000090B12423094C314623803023E01C402211
:10371000A37003F02BFF002329462046A4F8443071
:10372000BDE87040FFF776BE70BD00BFF8FC072013
:1037300007B503230022CDE90032054B96221B6812
:1037400004490548FDF710FE03B05DF804FB00BF17
:103750009C05001008B301005D3701002DE9804889
:1037600005468DB0002800F0BC80604C604EDFF84C
:1037700088B1DFF8888104F1030A0DF108094FF0E0
:10378000FF3221462846FDF7B3FC0028F7D040461B
:10379000FCF7B6FD554B32681B7801322E2B326098
:1037A0001BD82E2B1ED8DFE803F0841D1D1D1D1D08
:1037B0001D1D78671D1D1D1D1D1D1D1D1D1D601D51
:1037C0001D1D1D1D1D1D1D1D1D1D1D1D53481D1DC8
:1037D000351D1D1D281D1D1D2100FC2B02D10120A2
:1037E000FFF736FF4348FCF78BFDC8E7204600F0A3
:1037F00087F84048FCF784FDC1E70122514607A83D
:1038000003F0B4FE9DF81C0000F072FB3948FCF791
:1038100077FDB4E70222514607A803F0A7FE9DF802
:103820001C100020FEF7AEFC01209DF81D10FEF7D5
:10383000A9FC3048FCF764FDA1E701F045FC01213B
:10384000FFF758FFFFF768FA2A48FCF759FD96E79B
:103850000122514607A803F089FE9DF81C30254837
:103860008BF80030FCF74CFD89E7204600F0A4F807
:103870002048FCF745FD82E7484600F00FFB99E839
:103880000F004FF0010C069FCDF804C00097FFF722
:10389000DFFD1848FCF734FD71E71422514607A8F4
:1038A00003F064FE07A800F005FB1248FCF728FDB2
:1038B00065E71022514607A803F058FE9DF82A300C
:1038C00063B907A800F058FD9DF82A30002B89D075
:1038D00000F080FD0748FCF713FD50E700F052FDB3
:1038E000EFE7FEF71FF9FDF72BFE3EE73EFD072051
:1038F0002C06001034B301002B0600101CB301008D
:1039000030B587B0C11C1822684603F02FFE9DF821
:103910000030042B42D8DFE803F0034346494C0053
:1039200000F084FB9DF81530044680F83430019B8C
:103930008360029BC360039B0361BDF9120003F027
:10394000B5FB9DF81050A061284603F0ABFB206248
:10395000684203F0ABFB9DF814306062237700F0FF
:1039600069FB9DF81530044680F83430019B836074
:10397000029BC360039B0361BDF9120003F096FB39
:10398000A0619DF81050284603F08CFB206268422D
:1039900003F08CFB60629DF81430237707B030BDD4
:1039A00000F03CFBDDE700F03DFBDAE700F0DCFC7B
:1039B000D7E700F0DDFCD4E7F0B595B0C11C4C2290
:1039C00001A803F0D3FD00250A27164E01AC9DF88F
:1039D0000430AB4201DC15B0F0BD21797269B1FB56
:1039E000F7F07369C2F30022C3F3001382F00102FF
:1039F00083F0010343EA4203013398420AD107FBF3
:103A00001010C0B20528E188BDF8063005D81A4666
:103A100001F0D2F901350634D9E7228900F0FAFF26
:103A2000F8E700BF20C00920014B1878704700BF9D
:103A30002B06001010B50446084603F037FB206043
:103A400010BD10B50446084603F030FB606010BDA1
:103A5000016201F10041416270472DE9F74F47686B
:103A600004463946006803F06BFA6169064603F0C4
:103A700069FAA56960612946D4F8289003F026FD0B
:103A800000B1656105F100452946606903F000FD5C
:103A900000B165610021304603F018FD0025D4F81F
:103AA0001480294600284BD0404603F0F1FC00B1B9
:103AB0006561237FA26894F834102569D4F838B082
:103AC000D4F80C80D4F814A001930092002941D0BE
:103AD0003946484603F034FA294603F03BFB009A86
:103AE00005463146104603F035FB0146284603F0F3
:103AF00029FA019B0546184603F0D8FA594603F007
:103B000029FB0146284603F01DFA0546514640466A
:103B100003F020FB294603F015FA0546266A2946DC
:103B2000304603F0B5FC30B9666A2946304603F0EA
:103B3000CDFC00B92E46A663A76203B0BDE8F08FA6
:103B4000304603F0A5FC0028B3D02946404603F0D8
:103B5000BDFCACE70025E1E738B5056A0446294617
:103B6000806B03F0B3FC00B1A563656AA06B2946C6
:103B700003F08EFC00B1A56338BD2DE9F04747681E
:103B800004463946006803F0DBF96169064603F034
:103B9000D9F994F8343005466061D4F82890A068CB
:103BA000D4F810A0D4F80C80EBB1314603F0D2FA6F
:103BB00006464946384603F0C3F9514603F0CAFAAF
:103BC000314603F0BFF906464146284603F0C2FAE3
:103BD000314603F0B7F9A0632046FFF7BDFF6368E5
:103BE000A362BDE8F0870020F5E7FFFF90B58FB036
:103BF00000AFF860B9607A60BB685B688D4A13609B
:103C0000BB681B688C4A13608A4B1A688A4B1B6816
:103C10001344DA0F13445B101A46884B1A60FB6892
:103C20001C69844B1A68844B1B68D31A184603F02E
:103C30003DFA03461946204603F084F90346184628
:103C400003F04EFC03467E4A13607C4B1A687D4BA2
:103C50001B68D31A3B637A4B1A687B4B1B68D31AD9
:103C6000FB62774B1A68784B1B681344DA0F1344D6
:103C70005B10BB62F86A03F019FA02467B681B68A6
:103C80001946104603F01AFB03467B62B86A03F03C
:103C90000DFA02467B681B681946104603F00EFBBE
:103CA00003463B62FB6A002B03D14FF07E537B63DC
:103CB00015E04FF08041786A03F000FB0346184698
:103CC00005F054FD04464FF08041786A03F0F6FA9F
:103CD00003461946204603F0F1FA03467B63386B2E
:103CE00003F0E4F90346796B184603F033FA034610
:103CF0001C46386A05F0FAFC03461946204603F0D4
:103D000029FA0346FB61386B03F0D0F90346796B5F
:103D1000184603F01FFA03461C46386A05F026FDD4
:103D200003461946204603F015FA0346BB614FF0DF
:103D30000001B86903F00EFA03467B614FF0000101
:103D4000F86903F007FA03463B617969F86903F003
:103D5000F9F80346FB613969B86903F0F3F80346E3
:103D6000BB61FB681C687B685B681946F86903F0F7
:103D7000A5FA03461946204603F0E4F803461A461E
:103D8000FB681A60FB685C687B685B681946B86909
:103D900003F094FA03461946204603F0D3F803468D
:103DA0001A46FB685A60FB683A6A9A6009E0FB6849
:103DB0009B682649184603F0C3F803461A46FB6879
:103DC0009A60FB689B682249184603F07FFB034614
:103DD000002BECD109E0FB689B681C49184603F0F6
:103DE000B1F803461A46FB689A60FB689B6819495C
:103DF000184603F04DFB0346002BECD1FB689B6893
:103E00001549184603F0A6F903461149184603F070
:103E100055FA03461A46FB68DA60094B1B680A4AE2
:103E20001360064B1B68074A136000BF3C37BD4652
:103E300090BD00BF30060010340600103806001098
:103E40003C0600104006001044060010DB0FC9407D
:103E5000DB0F4940DB0F49C00000344338B50FC8C1
:103E60000A4C0B4D84E80F004FF07C51A06803F022
:103E700071F94FF07E51044603F064F82146686101
:103E80004FF07E5003F05CF8286138BD60060010EA
:103E900048060010004870476006001070B50446E0
:103EA0000646034D0FCD0FC42B683046236070BD0E
:103EB0007006001070B50B4E044635460FCC0FC58A
:103EC000094BB068196803F045F9084B0446586877
:103ED0001B68C01A03F0EAF80146204603F030F8E8
:103EE000306170BD700600106006001048060010BA
:103EF000014B5873704700BF60060010024B587B9F
:103F0000003818BF01207047600600100048704755
:103F10004806001007B5102200210C4803F034FBBE
:103F2000142200210A4803F02FFB1822002109481F
:103F300003F02AFB002304220749CDE900230748A8
:103F40007822FDF711FA03B05DF804FB600600105B
:103F5000700600104806001047B30100613F0100E1
:103F60001FB5FDF789FB134D134C144E0190AB7B2D
:103F7000032B19D002A8FEF779FA029803F096F8FD
:103F8000616903F0E7F803F0ABFA6060039803F0AF
:103F90008DF8216903F0DEF803F0A2FA2A462060CA
:103FA00005493046FFF722FE642101A8FDF75CFCBD
:103FB000DDE700BF60060010480600107006001024
:103FC00007B53C2200210F4803F0DEFA3C22002115
:103FD0000D4803F0D9FA3C2200210C4803F0D4FA32
:103FE0003C2200210A4803F0CFFA002303220949AA
:103FF000CDE9002308487822FDF7B6F903B05DF853
:1040000004FB00BF84060010C0060010FC06001070
:104010003807001057B301006D4001000048704799
:104020008406001000487047C00600100048704722
:10403000FC06001000487047380700100146014890
:10404000FFF7F8BC8406001001460148FFF7F2BCF8
:10405000C006001001460148FFF7ECBCFC0600104A
:1040600001460148FFF7E6BC3807001007B50446D3
:10407000FDF702FB0190FFF70DFF837B3BB1013B96
:10408000012B0CD9322101A8FDF7EEFBF3E7204606
:1040900000F090F8322101A8FDF7E6FBEBE720469F
:1040A00000F006F8322101A8FDF7DEFBE3E7FFFF91
:1040B00073B56846FEF7DAF9DDE900243648374E75
:1040C00003683168E51A0460354C3260511A2046A5
:1040D000344EFFF7B6FC2046FFF7BFFC29463046BA
:1040E000FFF7AFFC3046FFF7B8FCFFF707FF0028EB
:1040F00044D1A56B2C492846B46B03F0E7F900289E
:1041000038D12846294903F0C3F900B1274D20468C
:10411000254903F0DBF978BB2046244903F0B8F9C0
:1041200000B1224C204605F01DFB03F0FFF90021F1
:1041300002461F48FDF7D6FF284605F013FB03F0A3
:10414000F5F9012102461A48FDF7CCFF0021284667
:1041500003F0B2F90021051E204618BF012503F027
:10416000ABF9B0FA80F02946400902B0BDE87040D2
:10417000FDF7EEBF0C4DCAE70B4CD3E7B06B03F075
:10418000AFF90546A06B03F0ABF9294602B0BDE8D4
:104190007040FEF775B900BF7C070010740700106F
:1041A000FC060010380700100000C8420000C8C21A
:1041B00000000940F7B56846FEF758F9DDE900024E
:1041C000444B45491E680F68961BC71B434D08604A
:1041D000B91941F34F012846414C1A60FFF731FCF1
:1041E0002846FFF7CAFC2046B91BFFF72AFC2046E9
:1041F000FFF7C3FCFFF782FE00284ED1AE6BA46B25
:104200003046214602F09EFE21460546304602F029
:1042100097FE34490446284603F058F9002838D15F
:104220002846314903F034F900B12F4D20462D497D
:1042300003F04CF978BB20462B4903F029F900B173
:10424000294C204605F08EFA03F070F90021024651
:104250002648FDF747FF284605F084FA03F066F983
:10426000012102462148FDF73DFF0021284603F0C9
:1042700023F90021B0FA80F5204603F01DF96D09FD
:104280000038294618BF012003B0BDE8F040FDF713
:104290005FBF144DCAE7134CD3E7A66BAD6B314635
:1042A000284602F04DFE4FF07C5102F053FF03F020
:1042B00017F904463146284602F044FE4FF07C517F
:1042C00002F048FF03F00CF9214603B0BDE8F040CE
:1042D000FEF7D6B88007001078070010840600109B
:1042E000C00600100000C8420000C8C2000009401B
:1042F00007B53C220021124803F046F93C22002178
:10430000104803F041F901230F4A002113760F4AA8
:104310000F4813760E2203F037F910230E220D49B1
:104320000D4801F08DF80D4B6422019303230C49D5
:1043300000930C480023FDF717F803B05DF804FB69
:10434000CC0700100808001094070010B0070010F8
:1043500084070010440800102409001038090010D8
:1043600066B301004548010000487047CC070010C3
:1043700000487047080800100146014801F068B87D
:104380002409001008B5034801F018F90022024B77
:104390001A7208BD240900108407001010B50C46DD
:1043A000FFF74CFE2046BDE81040FFF74DBEFFFF73
:1043B000024B19605A609860704700BF9407001064
:1043C000024B19605A609860704700BFB007001038
:1043D00001F09AB80149024801F096B8840700102C
:1043E000240900102DE9F041037E04460E461546CF
:1043F000002B3DD00168406902F0A4FD8046002DED
:1044000034D16168084602F09DFD71680546E06898
:1044100002F096FD05F0A6F90146284602F09AFE44
:1044200005F0E4F90546A7684046394603F030F840
:1044300000B147463946284603F048F800B13D46EA
:10444000E068656103F04CF801463046FFF7F2FA88
:104450002169606902F07EFE01463046FFF7F8FAF6
:104460002169606902F076FEBDE8F081A568DAE7AF
:104470000020F9E770B5FFF749FD0446D0E90031A7
:10448000194D194428464910FFF7DBFAD4E90031E9
:10449000164CC91A2046FFF7D4FA4FF07E53144E3B
:1044A00014482946002233610361FFF79BFF002275
:1044B00021463046FFF796FF2846FFF7CEFA204602
:1044C000FFF7CBFAA16BA86B02F03CFD03F008F8F4
:1044D000FFF7C0FDA16BA86B02F032FD03F000F8FE
:1044E000BDE87040FFF7BCBDCC0700100808001005
:1044F000B00700109407001070B50E460146104634
:104500001D4602F01DFD31460446284602F018FD06
:1045100021460546204602F01DFE2946044628464F
:1045200002F018FE0146204602F00CFDBDE8704086
:1045300005F05CB9F8B50F46014610461E4602F07C
:10454000FFFC02F051FC04460D463046394602F0AD
:10455000F7FC02F049FC22462B4605F045F902F033
:104560009BFC0C49044602F0B1FF30B120460A49D9
:1045700002F0E6FC04462046F8BD2046074902F05A
:1045800087FF0028F7D02046034902F0DBFC0446F1
:10459000F1E700BFDB0F4940DB0FC940DB0F49C02B
:1045A0002DE9F74F0546B0F902000E461746019374
:1045B00002F07CFD0446B5F9000002F077FD2346C9
:1045C000024671683068FFF797FF0446B5F90200AC
:1045D00002F06CFD8046B5F9000002F067FD43462D
:1045E000024671683068FFF7A5FFB16802F0A8FCC9
:1045F0008949814602F06AFF00286ED04846874903
:1046000002F09EFC814695F80880854EDFF824A2D2
:10461000DFF824B2B8F1000F6BD0B8F1020F23D14C
:104620004846804902F052FF20B948467E4902F0D0
:104630002FFF08B104F100444846774902F082FC9C
:104640007549814602F042FF20B14846734902F0A5
:1046500077FC81464846754902F01AFF20B148466A
:104660006E4902F06FFC8146204605F07BF88046DB
:10467000388802F017FD6E4902F020FE01464046E0
:1046800002F006FF00284FD0002301243361F360BD
:1046900000216848FFF7D5F900216748FFF7D1F9F5
:1046A0006A7A64496548FFF79DFE6A7A62495C4808
:1046B000FFF798FE5F48FFF7D0F95F48FFF7CDF9A5
:1046C000DBF8380002F00CFF0546DAF8380002F09B
:1046D00007FF2946FFF762FE22E04846534902F0F1
:1046E000D7FE00288FD048464C4902F02BFC81466B
:1046F00089E70023514A5046D360F360FFF7ADF9D4
:104700005846FFF7AAF9DBF8380002F0E9FE044644
:10471000DAF8380002F0E4FE2146FFF73FFE444697
:10472000204603B0BDE8F08F204605F01BF8804618
:10473000388802F0B7FC424902F00CFD3C4902F017
:10474000BDFD0146404602F0A3FEB0B12A7A012A1F
:1047500004D0022A02D04FF000090EE04846314949
:1047600002F0B4FE28B948462F4902F091FE002815
:10477000F1D04FF0000904F10044019B2146586834
:1047800002F0E8FCDFF8B480019B4946C8F80C0051
:10479000186802F0DFFCF060F87802F083FC24492E
:1047A00002F08CFD0746484604F0DCFF394602F073
:1047B00079FE044640B3484604F0D4FF014638462B
:1047C00002F0BEFB394602F079FD39460446C8F8CE
:1047D0001000484602F072FD002107463061204675
:1047E00002F056FE18B104F10044C8F81040002150
:1047F000384602F04DFE044600283FF449AF07F169
:1048000000470024376143E70023C8F810304FF019
:104810007E5333613CE700BFDB0F4940DB0FC940EB
:10482000B0070010DB0FC93FDB0FC9BFDB0F49C06A
:104830000000C842CC0700100808001094070010C0
:10484000000040402DE9F04332208DB0FDF732F8F2
:10485000FCF712FF00260027DFF8BC8006906421D9
:1048600006A8FDF701F8FFF715FB837B23B1022BA8
:10487000F5D1FFF7FFFDF2E76C46684607ADFFF79D
:104880000DFB0FCC0FC523682B6098F80830013B57
:10489000012B09D8FFF7FEFA1A4A034607A9A2F12D
:1048A0000A00FFF77DFE06461EB998F80830002B77
:1048B000D5D1154DDFF86490144C154829460022D7
:1048C000C760C9F80C700761C9F81070FFF78AFD5E
:1048D000002221464846FFF785FD2846FFF7BDF830
:1048E0002046FFF7BAF8A06B02F0FAFD0446A86B69
:1048F00002F0F6FD2146FFF751FD41460548FFF75E
:1049000067FDACE78E070010CC0700100808001008
:10491000940700102409001084070010B00700104D
:104920007047FFFF73B5002248210220FCF710FBFF
:104930000E4C0F4D214600262860FCF751FC012348
:1049400004F11501CDE9003664222B680948FCF713
:104950000BFD02236422009301962B6804F11F01D2
:104960000548FCF701FD02B070BD00BF7BB301003C
:1049700084090010D14901007D49010080B5054638
:104980003220FCF797FF0F4C0F4E104F4FF0FF32C5
:1049900028460C49FCF7ACFB0028F7D06378022BC3
:1049A0000AD1E37838681BB92021FBF7E0FFEDE777
:1049B0004021FBF7DCFFE9E748222146304602F0C0
:1049C000D5FDE3E784FD07203C09001088050010B1
:1049D000044683B53220FCF76DFF1CB9FDF7A2F841
:1049E000FCF7AEFD4FF0FF36084D094F00230122C2
:1049F000102128680096FBF751FF384600F0DAFDD9
:104A00000028F3D02046FDF72DFEF6E788050010BC
:104A10005004001005382DE9F041C4B220469046FC
:104A20001E460F4600F098F8381A02F03FFB0D4979
:104A300002F090FB0546304602F038FB014628465E
:104A400002F03CFC084902F039FC084902F036FC4F
:104A500002F06CFD4346394682B22046BDE8F04183
:104A600000F02AB8E17A943E00007A44FA7E2A3FA8
:104A7000F7B506460F460F4D60212868FBF76AFF21
:104A80003046FDF77DFE97B903B0F0BD3046013CDE
:104A9000FDF776FE14F0FF04F6D00023012220215A
:104AA00028680097FBF7FAFE0028EFD0ECE7042413
:104AB0006427F2E78805001090B59BB000AF04466C
:104AC000084611461A462346FB710346BB800B4637
:104AD0007B8013463B80BB881B0A9BB27B66BB88EE
:104AE000DBB23B667B881B0A9BB2FB657B88DBB233
:104AF000BB653B881B0A9BB27B653B88DBB23B6591
:104B0000FB793B7209237B720323BB721E23FB726A
:104B10003B6EDBB23B737B6EDBB27B73BB6DDBB298
:104B2000BB73FB6DDBB2FB733B6DDBB23B747B6D28
:104B3000DBB27B7448220021064802F025FD07F114
:104B4000080301211846FFF793FF00BF6C37BD46ED
:104B500090BD00BF3C09001080B596B000AF034681
:104B6000FB710023A7F85630FB793B7304237B735A
:104B70000223BB732423FB7302233B7448220021CE
:104B80000F4802F001FD07F10C0301211846FFF761
:104B90006FFF0B4B1B79A7F85630B7F856301B0246
:104BA000A7F85630064BDB789AB2B7F85630134464
:104BB000A7F85630B7F8563018465837BD4680BD6E
:104BC0003C09001080B485B000AF03460A46FB7173
:104BD0001346BB71BB79FB60FB681B02FB60FB7972
:104BE000FA681344FB60FB6818461437BD4680BC66
:104BF0007047FFFF80B596B000AF03463960FB7188
:104C0000002387F85730FB793B7304237B7302231F
:104C1000BB732423FB7308233B74482200214848BC
:104C200002F0B2FC07F10C0301211846FFF720FF48
:104C3000434B5B78002B01D100237DE097F8573080
:104C40003F4A1344DA7897F8573001333C490B4414
:104C5000DB7819461046FFF7B5FF03469AB23B686A
:104C60005A8097F857300233354A1344DA7897F868
:104C70005730033332490B44DB7819461046FFF7AF
:104C8000A1FF03461AB23B689A803B68B3F904302F
:104C9000B3F5806F12DB3B68B3F904309BB2A3F22B
:104CA000FF339BB21AB23B689A803B68B3F9043079
:104CB0009BB25B429BB21AB23B689A8097F857301E
:104CC00004331F4A1344DA7897F8573005331C49E8
:104CD0000B44DB7819461046FFF774FF03461AB2FF
:104CE0003B68DA803B68B3F90630B3F5806F12DBBE
:104CF0003B68B3F906309BB2A3F2FF339BB21AB202
:104D00003B68DA803B68B3F906309BB25B429BB2EA
:104D10001AB23B68DA8097F857300633084A1344D2
:104D2000DA783B685A7497F857300733044A1344CB
:104D3000DA783B681A74012318465837BD4680BD9F
:104D40003C09001007B548220021074802F01CFC6E
:104D5000002301220549CDE9002305484622FCF73E
:104D600003FB03B05DF804FB88090010A6B3010043
:104D7000394E010070B50446058829B9458028469A
:104D800002F090F9606070BD1420B1FBF0F002F009
:104D90008DF906466088281A02F088F90021054638
:104DA00002F076FB08B105F100453146284602F0D5
:104DB00085FAA060E7E7FFFF0C23584310B4034CCB
:104DC00021522044114610BCFFF7D4BF88090010BF
:104DD0002DE9F0410446B0F80080404602F066F943
:104DE000656807462946A66802F070FBB0B12946FF
:104DF000384602F0A5F8314602F04AFB18B14046A9
:104E000002F050F903E03146284602F09BF860605A
:104E1000606802F08BFB6080BDE8F081394628466F
:104E200002F08EF8314602F033FB0028E7D131461C
:104E3000284602F085F8EAE773B54FF4FA60FCF70C
:104E400039FDFCF719FC154D154C019005F10C06C8
:104E50001248FFF7BDFF3046FFF7BAFF1148FFF7D2
:104E6000B7FF1148FFF7B4FF1048FFF7B1FF104834
:104E7000FFF7AEFFEB8FC821E3616B8E01A82362C1
:104E8000EB8C63626B8B2364EB8963646B88A36434
:104E90007F232365FCF7E8FCDAE700BF88090010F0
:104EA00000800140A0090010AC090010B8090010F2
:104EB000C409001010B504464822024902F056FB0E
:104EC000204610BD8809001007B530220021074890
:104ED00002F05AFB002302220549CDE900230548D0
:104EE0009622FCF741FA03B05DF804FBCCFD0720E5
:104EF000B0B30100F94E01002DE9F0430A209FB044
:104F0000FCF7D8FCFCF7B8FB654E664D664F189071
:104F1000642118A8FCF7A8FCFEF786FD634CDFF8B7
:104F20009C812070D8F81420D8F81430C2F30022E5
:104F3000C3F3001382F0010283F0010343EA42034A
:104F400001336370FDF780F98146FEF7D7FFD8F88B
:104F50001430D8F814205B0E520E02F0080203F051
:104F60000403134343EA0903514A43EA4003A3708D
:104F7000D8F81430D8F814E0D2F814C050694FEAC9
:104F8000DE7E516FC3F3807360324FEA1C7C52693E
:104F900043EA4E030CF0040C800E43EA0C0300F0CD
:104FA0000800490D01F010010343520DDFF8108194
:104FB0000B4302F02002134312A8E370FEF76EFFCA
:104FC000C6460DF1480CBCE80F00AEE80F00DCF857
:104FD00000303146CEF80030D8F8000002F0BAF8C0
:104FE00002F07EFA3146A080D8F8040002F0B2F850
:104FF00002F076FA2946E080D8F80C0002F0AAF810
:1050000002F06EFA20816846FFF754FF4822694695
:10501000284802F0ABFA0023264A04F10A0150881E
:105020000133062B21F8020B02F10C02F7D14FF0ED
:105030000008DFF8789019A95FFA88F0FFF7DAFD29
:1050400038B1BDF86630A9F81630BDF86A30A9F855
:105050001E3008F10108B8F1040F09F10209EAD184
:105060004FF00008DFF85C905FFA88F0FDF77CFDF8
:1050700008F10108B8F1040F29F8020BF4D1062059
:10508000FDF772FD02F00EF8394602F063F80A4BA4
:105090002946186002F05EF802F048FAE08537E72A
:1050A000000020410000C8429F8EC73BCCFD072076
:1050B00000C00920E40900102C0A001020C00920BB
:1050C000D0090010F2FD072000487047CCFD0720F2
:1050D000036823F0E06343EA016303607047FFFF66
:1050E00038B504460C200D4600F0AEF84FF470635E
:1050F00063630023094AE3600C20AB802A6000F060
:1051000030F9074B03EB40030648B3FBF0F3013BD8
:10511000DBB21B0243F40013236038BD400D0300D3
:10512000405DC60080BA8C01043150F82130002B5C
:10513000BDBFC3F30B130120138000207047012A69
:1051400007D0022A09D072B9006BC84000F00100F4
:1051500070470831006BC9B2F7E7036B1B0C14BF33
:1051600001200020704700207047012904D90368FE
:1051700022B143F000630360FFF7AABF23F000638E
:10518000F9E701239A4203FA01F103681DBF23F0F6
:10519000E06303600368194318BF23EA010101605B
:1051A0007047036823F0E0630360036819B923F4D0
:1051B00080330360704743F48033FAE708B500F0AA
:1051C000C7F8014B186008BD400A0010400100F10B
:1051D000804303F57C23D3F8802018460A43C3F8A4
:1051E0008020AA23C0F88C305523C0F88C3070473B
:1051F000400100F1804303F57C23D3F8802018465A
:1052000022EA0102C3F88020AA23C0F88C3055237B
:10521000C0F88C30704798B941EA02410122400140
:1052200000F1804303F57C23C3F884101846C3F8CB
:105230008020AA23C0F88C305523C0F88C307047EA
:1052400041EA4211EAE7FFFF0123044A8340D2F812
:10525000C4100B43C2F8C430704700BF00C00F40F9
:10526000024BD3F88800C0F34060704700C00F4085
:10527000014BC3F80401704700C00F40024BD3F844
:105280000401C0B20130704700C00F4002460C4913
:1052900013096A3351F82330400000F01F00C34067
:1052A00013F0030009D0012808D0022806D00D3AD7
:1052B000022A94BF0620082070470420704700BFD0
:1052C00000C00F40094BD3F80C3103F00303012B4E
:1052D00006D0022B07D0002B054818BF00207047CE
:1052E000044B18687047044BFBE700BF00C00F4039
:1052F00000093D001800001060B5010008B50B4B17
:10530000D3F8880010F080700FD0D3F88410D3F851
:105310008420FFF7D7FFC1F30E0101FB0000C2F3A9
:10532000074240000132B0FBF2F008BD00C00F4060
:1053300008B5FFF795FF28B1012807D1BDE808405F
:10534000FFF7DCBFBDE80840FFF7BCBF002008BD89
:1053500008B5FFF7EDFF0246FFF790FFB2FBF0F054
:1053600008BD38B50546FFF7F3FF04462846FFF7AA
:105370008DFFB4FBF0F038BD2A4BDA6822F0300222
:1053800042F02002DA60DA6C22F0300242F0800251
:10539000DA64DA6822F4407242F40072DA60DA6C9D
:1053A00022F4407242F40062DA64DA6822F4406265
:1053B00042F40062DA60DA6C22F4406242F4005295
:1053C000DA64DA6822F4404242F40042DA60DA6CCD
:1053D00022F4404242F40032DA64DA6822F44032C5
:1053E00042F40032DA60DA6C22F4403242F40022F5
:1053F000DA64DA6822F4401242F40012DA60DA6CFD
:1054000022F4401242F40002DA640222A3F5A0332F
:105410005A601422DA6001225A617F2298611A656B
:10542000704700BF00C00240012805D14FF4FC4284
:10543000024BDA6409225A60704700BF00800140C5
:10544000C0E9001300238260C0E9033301207047E4
:1054500010B50446C26800696368121A9A420DDAF0
:10546000E268013B13402068A26802FB030002F0DF
:105470007DF80120E3680133E36010BD0020FCE704
:105480002DE9F041C3688846016944685B1AA3426C
:10549000064637DAC3680569C06804F1FF3C5B1B48
:1054A0000CEA000CE31A03EB0C01A14234BF1C46CA
:1054B000A4EB0C049442A3EB0403A8BF1446151BF1
:1054C0009D42A8BF1D463768B068414604FB00F204
:1054D0000CFB007002F04AF8F3683068E218D6E975
:1054E0000137013B134007FB0300F26004FB078117
:1054F00005FB07F202F03AF8F36860192B44F360F9
:10550000BDE8F0810020FBE710B50446E26823699E
:1055100008469A420ED0D4E900132269013B134099
:10552000A26802FB031102F021F801202369013374
:10553000236110BD0020FCE72DE9F0418846C168D9
:1055400003690446994233D04568C36821690669F6
:10555000681E9B1B0140C818A84234BF1D466D1A27
:105560009542A3EB0503A8BF1546561B9E42A8BF54
:105570001E462768A368404605FB03F201FB037142
:1055800001F0F4FF2369E918D4E90130013B0B4035
:105590002161216806FB00F200FB031105FB00807E
:1055A00001F0E4FF2369A81933442361BDE8F081C9
:1055B0000020FBE7C2680069101A70470023C0E9A9
:1055C0000333704738B5174CD4F88820910103D5C0
:1055D00002210020FFF70CFED4F88830DA0103D551
:1055E00001210020FFF704FE00250E4C0020FFF7EC
:1055F0003FFE2A462C212846C4F80C51FFF70BFE2B
:1056000028460121FFF7E2FD0220FFF731FED4F822
:1056100088305B01FBD5BDE8384002210020FFF750
:10562000D5BD00BF00C00F40314B2DE9F04199427C
:105630000BD100222F4B00E001321101CC588442E3
:1056400011D0002CF8D1BDE8F0812B4B994210D13C
:1056500000222A4B00E001321101CC58844202D0D2
:10566000002CF8D1EFE70028EDD00B44DF68D3E938
:105670000156234CD4F88820930103D50221002041
:10568000FFF7B6FDD4F88830D80103D501210020FA
:10569000FFF7AEFD1A4CD4F8A03159065EBFD4F81E
:1056A000A03143F02003C4F8A031D4F8A0315A0649
:1056B000FBD54FF001080020FFF7DAFD32462946FE
:1056C0000020C4F80C81FFF7A6FD41460020FFF73B
:1056D0007DFD3846FFF7CCFD094AD2F888305B01E2
:1056E000FBD5BDE8F04102210020FFF76FBD00BFF0
:1056F000001BB700C0B301000024F400B0B40100E7
:1057000000C00F40FFF75EBF094B98420BD003F576
:105710000823984209D003F5804398420CBF172014
:105720000120FFF791BD0220FBE71620F9E700BF3B
:105730000080004000224368426001228260022211
:1057400042608268002AFCD143607047F0B50124B2
:1057500003279E1C7600C56B9C40B7403C43994094
:10576000B24025EA040411432143C463C163F0BD80
:10577000084B98420AD003F50823984208D003F555
:10578000804398420CBF19200320704704207047C3
:10579000182070470000014010B50446FFF7E8FFED
:1057A000FFF752FD0723A3600023084A23639442B6
:1057B0006360E3602362E3646365236504BF236180
:1057C000A3690323E3601023A36210BD000001401E
:1057D00080230363704738B505460C46FFF7C8FFC2
:1057E000FFF7BFFD2101B0FBF1F1EB68CAB243F056
:1057F0008003EB60C1F307232A606B60EB68B0FBAA
:10580000F1F023F08003EB6038BD37B504460D4658
:105810006369DB0701D403B030BD236828460DF16E
:1058200007018DF80730FFF713FEF1E737B504469F
:105830000D4663699B0605D528460DF10701FFF764
:1058400063FE08B903B030BD9DF807302360F0E770
:10585000436870B50E469907044615460AD51146A9
:10586000FFF7E4FFEA682B699A4202BF636823F0FE
:105870000203636031462046FFF7C7FFA368DA05DD
:105880000CD5236A43F480732362636823F4807326
:105890006360084B1A780AB901221A70A3689B0545
:1058A00007D5236A43F400732362636823F400730B
:1058B000636070BD300A0010014B1860704700BF74
:1058C0001800001008B50F20FFF7BEFCBDE8084027
:1058D0000F20FFF7B9BC034600F00F0040001B0685
:1058E00048BF01307047436810229A6019611A68F6
:1058F000D206FCD5704738B504461546FFF7F3FFCE
:1059000020462946BDE83840FFF7EDBF38B50446CC
:1059100008461546FFF7DFFF010441F4A061204669
:10592000FFF7E1FF20462946BDE83840FFF7DBBF1F
:10593000436830229A6019611A689206FCD558694A
:1059400070474FF40C707047044A0029D0F8C80122
:10595000034908BF4FF48072FFF7CDBF000101007B
:105960000005FE00D0F8C83100225B689A64D0F8C8
:10597000A021D179D96401219964D279DA641A68B5
:10598000D205FCD54FF0FF329A635A639A600C221D
:105990005A6070470346B3F89E31D0F8C8019B07A0
:1059A00003D50249024AFFF7A6BF70470005FE0073
:1059B000000101007047FFFF70B50904D0F8C8610D
:1059C000084D41F4000444F48074304629462246D0
:1059D000FFF791FF304629462246BDE87040FFF7A9
:1059E0008ABF00BF0005D00093682DE9F041B3F5F0
:1059F0000C7F8046144633D3566806F1100262606D
:105A0000A3F11002A2606568AA0702D001356560A3
:105A1000F9E705F50772A3F50B736260A36063688D
:105A200013F0030702D001336360F8E728462246EB
:105A300000F0E2FF39461022304601F0A5FD236850
:105A4000B5602846C5F8C8617360FFF78BFF28462C
:105A50003946FFF7B1FFC8F800503846BDE8F0817D
:105A60000148BDE8F08100BF0A00040010B50A4AF1
:105A7000D0F8C841002908BF4FF48072204607497A
:105A8000FFF739FF636803225A641A68D205FCD510
:105A90004FF480729A6010BD000101000005D8002B
:105AA00038B5054688780C46FFF715FF01210246F8
:105AB0009140D5F8C8315B68586C014359649A64C9
:105AC000A288DA641A68D205FCD54FF480729A6015
:105AD00038BD704710B504460846FFF7FCFE0104C8
