:020000021000EC
:100000000080001039010100090101000B0101000D
:100010000D0101000F0101001101010000000000AD
:10002000000000000000000000000000A10B010023
:100030001301010000000000010C0100450C01004B
:1000400015010100BD1F0100D11F0100811F01002A
:100050001501010015010100612C0100412701007B
:100060001501010015010100150101001501010034
:100070001501010015010100150101001501010024
:10008000150101001501010091230100A1230100C8
:10009000B1230100D5220100150101001501010065
:1000A000FD2C0100150101001501010015010100E1
:1000B00015010100150101001501010015010100E4
:1000C000150101001501010015010100A8B9010089
:1000D00000000010F0010000A8B9010000C00720D6
:1000E00000000000A8B9010000C8072000000000BF
:1000F000F00100106408000000C0072000000000AC
:1001000000C80720642C0000FEE7FEE7FEE7FEE7DC
:10011000FEE7FEE7FEE7002310B5934200D310BDD3
:100120001C585C500433F8E700231A468B4200D376
:1001300070471A500433F9E738B572B60C4C0D4DC0
:10014000AC4207D30C4DAC420BD300F007FB00F0E0
:10015000EBFAFEE7D4E90001A2680C34FFF7DBFFFD
:10016000EEE754F8080B54F8041CFFF7DDFFEAE74C
:10017000CC000100F000010008010100FEE7FEE7ED
:10018000FEE700BFFFFFFFFFFFFFFFFFFFFFFFFFD7
:10019000FFFFFFFFFFFFFFFFFFFFFFFFFFFFFFFF6F
:1001A000FFFFFFFFFFFFFFFFFFFFFFFFFFFFFFFF5F
:1001B000FFFFFFFFFFFFFFFFFFFFFFFFFFFFFFFF4F
:1001C000FFFFFFFFFFFFFFFFFFFFFFFFFFFFFFFF3F
:1001D000FFFFFFFFFFFFFFFFFFFFFFFFFFFFFFFF2F
:1001E000FFFFFFFFFFFFFFFFFFFFFFFFFFFFFFFF1F
:1001F000FFFFFFFFFFFFFFFFFFFFFFFFFFFFFFFF0F
:10020000FFFFFFFFFFFFFFFFFFFFFFFFFFFFFFFFFE
:10021000FFFFFFFFFFFFFFFFFFFFFFFFFFFFFFFFEE
:10022000FFFFFFFFFFFFFFFFFFFFFFFFFFFFFFFFDE
:10023000FFFFFFFFFFFFFFFFFFFFFFFFFFFFFFFFCE
:10024000FFFFFFFFFFFFFFFFFFFFFFFFFFFFFFFFBE
:10025000FFFFFFFFFFFFFFFFFFFFFFFFFFFFFFFFAE
:10026000FFFFFFFFFFFFFFFFFFFFFFFFFFFFFFFF9E
:10027000FFFFFFFFFFFFFFFFFFFFFFFFFFFFFFFF8E
:10028000FFFFFFFFFFFFFFFFFFFFFFFFFFFFFFFF7E
:10029000FFFFFFFFFFFFFFFFFFFFFFFFFFFFFFFF6E
:1002A000FFFFFFFFFFFFFFFFFFFFFFFFFFFFFFFF5E
:1002B000FFFFFFFFFFFFFFFFFFFFFFFFFFFFFFFF4E
:1002C000FFFFFFFFFFFFFFFFFFFFFFFFFFFFFFFF3E
:1002D000FFFFFFFFFFFFFFFFFFFFFFFFFFFFFFFF2E
:1002E000FFFFFFFFFFFFFFFFFFFFFFFFFFFFFFFF1E
:1002F000FFFFFFFFFFFFFFFFFFFFFFFFFFFFFFFF0E
:100300007047FFFF024AD36943F00103D36170478E
:1003100040C00920024AD36943F08003D36170478B
:1003200040C0092008B5244B1A6922F003021A6163
:100330001A6D22F0030242F008021A651A6922F4CB
:1003400040421A611A6D22F4404242F400321A65AA
:100350001A4B1A6842F001021A601A6842F08002D1
:100360001A60FFF7CFFFFFF7D5FF01F03DFF01F067
:10037000C7FD01F08FFD01F06BFD04F087FB02F07B
:10038000C7FA02F01DF804F071F902F0F5FC02F072
:100390003BFC02F0D1FE02F067FF03F0A9F803F086
:1003A0005DFC03F0B1FC03F047FE04F05DF9BDE82D
:1003B000084004F02DBC00BF00C0024040C009202E
:1003C00008B54FF0402005F047F84FF040230222D7
:1003D0005A6000225A6040F6FF12DA6001225A6029
:1003E00008BDFFFF80B592B000AF954BFB61954B08
:1003F000BB61954B3B62092387F82430002387F8C3
:10040000253007F11803184603F0D0FB8F4B7B60B3
:100410008F4BBB604FF00003FB6000237B614FF00C
:1004200000033B613B1D184603F0ECFB97F82530B9
:10043000012B7CD103F096FC786303F097FC3863C2
:100440007B6B012283F834207B6B824A9A607B6B42
:10045000814ADA607B6B814A1A617B6B4FF0000244
:100460009A617B6B7E4A1A627B6B7E4A5A627B6B17
:1004700001221A773B6B012283F834203B6B4FF04B
:1004800080429A603B6B4FF00002DA603B6B4FF0AA
:1004900000021A613B6B4FF000029A613B6B704A9D
:1004A0001A623B6B6F4A5A623B6B01221A7703F068
:1004B000FFFDF86203F000FEB862FB6A012283F8D8
:1004C0003420FB6A684A9A60FB6A4FF00002DA60E7
:1004D000FB6A4FF07E521A61FB6A4FF000029A618C
:1004E000FB6A624A1A62FB6A614A5A62FB6A00222C
:1004F0001A77BB6A012283F83420BB6A4FF080422E
:100500009A60BB6A4FF00002DA60BB6A4FF07C521F
:100510001A61BB6A4FF000029A61BB6A534A1A62C1
:10052000BB6A534A5A62BB6A00221A7776E003F02C
:1005300019FC786403F01AFC38647B6C012283F8A0
:1005400034207B6C4FF07E529A607B6C494ADA60B3
:100550007B6C494A1A617B6C4FF000029A617B6C9C
:10056000464A1A627B6C464A5A627B6C00221A77B2
:100570003B6C012283F834203B6C424A9A603B6C0E
:100580003C4ADA603B6C404A1A613B6C4FF0000217
:100590009A613B6C394A1A623B6C394A5A623B6C2D
:1005A00001221A7703F084FDF86303F085FDB86338
:1005B000FB6B012283F83420FB6B344A9A60FB6B9F
:1005C0004FF00002DA60FB6B314A1A61FB6B4FF0AF
:1005D00000029A61FB6B254A1A62FB6B244A5A623D
:1005E000FB6B00221A77BB6B012283F83420BB6BB4
:1005F000284A9A60BB6B4FF00002DA60BB6B244A5A
:100600001A61BB6B4FF000029A61BB6B174A1A620A
:10061000BB6B174A5A62BB6B00221A774FF07E52AF
:100620004FF07E511C4803F067FD4FF080424FF0C1
:100630008041194803F068FD00BF4837BD4680BDC2
:100640006666E841008CAB457CF230BB00007A4323
:1006500000007A443D0A573F0AD7A33B0AD7A33A82
:1006600000004842000048C23333F33F00002041FD
:10067000000020C1CDCC4C3DCDCC4C3C0000F04125
:100680000000F0C19A99193FCDCCCC3C8FC2F53C0B
:100690006666663F0AD7233C0000A04110B5084CAF
:1006A0000848214604F068FE204604F0BFFF04F02D
:1006B00029FC04F0C1FFBDE81040034800F0B2B9C6
:1006C0000024F4000020A1070000001038B5002528
:1006D000144C226842F480422260226842F40042B4
:1006E0002260226842F480322260E26942F4803261
:1006F000E261E26942F40042E261E26942F480426E
:10070000E26155B1A36943F48043A36142F21070E2
:1007100085F0010501F04EF8F3E7E36943F4804307
:10072000E361F3E720C0092013B5FFF7B7FF012409
:10073000FFF7F8FD00233222CDE9004305490648C2
:1007400000F092FDFFF74EFE62B600F0D7FE2046A5
:1007500002B010BD48AF0100CD060100024B034AB4
:100760001A6004F077BE00BF08ED00E00000010051
:100770004FF0280383F31188BFF36F8FBFF34F8FC0
:10078000FEE710B5182000F0C7F8044620B100239A
:1007900040F8043B00F08AF9204610BD2DE9F843EB
:1007A00006460D4698461746DDF8209000F0DCFE20
:1007B000346804EA0503B8F1000F14D1ABB9B9F1FC
:1007C000000F18D0002F0CBF00214FF08071B8F13E
:1007D000000F01D041F080614A462943301D01F0ED
:1007E00059F8002407E09D42E9D13FB34FF00009DA
:1007F00024EA0503336000F04BFFB9F1000F1AD073
:1008000038B94FF08052124B1A60BFF34F8FBFF3CD
:100810006F8F01F055F9830104460AD400F0D2F934
:10082000346805EA0403B8F1000F09D153B900F0A8
:10083000D9F924F07F442046BDE8F883B946DAE7C9
:100840009D42F4D1002FF2D024EA05053560EEE791
:1008500004ED00E070B505460C4600F0B3F92E68D3
:1008600026EA04042C6000F0BDF9304670BD2DE985
:10087000F04104460D4600F10C0600F075FE2368B9
:1008800020692B4300252360B042216807D121EA6B
:100890000501216000F0FCFE2068BDE8F081D0E990
:1008A000002822F07F4312F0806F03EA010702D193
:1008B0001FB94046E8E7BB42FBD1D20141F00071CD
:1008C00048BF1D4301F048F8F3E7FFF7D0BFFFFF33
:1008D00010B50F4B1A461B688342FBD3546811199D
:1008E000884201BF416810460919516044680119E6
:1008F0008B4207D1074909688B421FBF59681B68A3
:10090000091941609042036018BF106010BD00BF1C
:1009100008020010F00100102DE9F041044600F03B
:1009200023FE244B1F68274241D1002C37D004F10D
:10093000080362071CBF23F007030833002B36D0DF
:100940001D4A166890469E4231D31C4A1568686855
:10095000984201D2296839BB19490968A94226D0B1
:10096000296814681160C21A102A04F1080404D915
:10097000E81842606B60FFF7ABFF00236A6811491B
:10098000B61A1743104A08682B601368864203F1B1
:100990000103C8F8006038BF0E606F60136000F09C
:1009A00077FE2046BDE8F0812A460D46CFE70024B9
:1009B000F5E700BFF4010010F80100100802001074
:1009C000F0010010FC0100100002001010B50446F8
:1009D00000B3114A50F8043C126813421AD050F880
:1009E000081CB9B923EA020340F8043C00F0BCFD3E
:1009F0000A4A54F8043C1168A4F108000B4413603F
:100A0000FFF766FFBDE81040054A13680133136025
:100A100000F03EBE10BD00BFF4010010F801001050
:100A20000402001000232DE9F0431C461D469E469B
:100A3000194EDFF874C0376800F1040858F8342004
:100A40005AB903B137604FF00042144B1D60144B8C
:100A50001D60144B1A60BDE8F08350F83490A2F189
:100A6000080319F0070F16BF09F10701494621F0E5
:100A700007010CB9CCE900144B4423F007035A1AC0
:100A8000C3E900EEC1E9003207B139601F461544E1
:100A900001230134D2E700BFF0010010FC01001077
:100AA000F8010010F4010010080200104FF0FF32AE
:100AB00000F10803C0E902234360036100230360DF
:100AC000704700230361704743689A684B608A60EF
:100AD0009A68516099600368086101330360704748
:100AE00030B50C68631C0AD103695A684A6091608A
:100AF0008B605960036808610133036030BD00F109
:100B00000802134652681568A542FAD9EDE7036951
:100B1000D0E901128A6051605968814208BF5A6069
:100B2000002202611A68013A1A60186870470023AF
:100B300082B001934FF0280383F31188BFF36F8FC6
:100B4000BFF34F8F019B002BFCD002B07047FFFF1B
:100B500006480068006880F3088862B661B6BFF393
:100B60004F8FBFF36F8F00DF00BF000008ED00E084
:100B70004FF0807340F8043C054B21F0010140F830
:100B8000081C40F80C3C40F8202C4038704700BF4F
:100B90002F0B0100FFFFFFFFFFFFFFFFFFFFFFFF26
:100BA000074B19680868B0E8F00F80F30988BFF3B5
:100BB0006F8F4FF0000080F311884EF00D0E7047DC
:100BC000600200104FF0280383F31188BFF36F8F8A
:100BD000BFF34F8F024A136801331360704700BFA1
:100BE00010000010034A1368013B13600BB983F334
:100BF0001188704710000010FFFFFFFFFFFFFFFF8D
:100C0000EFF30980BFF36F8F0D4B1A6820E9F00FE7
:100C100010602DE908404FF0280080F3118800F0A3
:100C2000E1FD4FF0000080F31188BDE8084019682D
:100C30000868B0E8F00F80F30988BFF36F8F704742
:100C40006002001008B54FF0280383F31188BFF34A
:100C50006F8FBFF34F8F00F095FC18B14FF08052AB
:100C6000024B1A60002383F3118808BD04ED00E0F5
:100C70000022054B05491A600A6043F2FF11044A3D
:100C8000116007221A60704710E000E018E000E0F1
:100C900014E000E010B500240A4B1A6842F4780210
:100CA0001A601A6842F078421A60FFF7E1FF064BBB
:100CB0001C60FFF74DFF00F095FDFFF738FF204661
:100CC00010BD00BF20ED00E01000001010B504467C
:100CD000FFF778FFA46BFFF785FFB4FA84F04009B3
:100CE00010BDF8B51546026C0446866B52B907680C
:100CF00047BB806800F0ACFE0546A7600136284679
:100D0000A663F8BD65B9406806F0EAFA6368226C2C
:100D10001344A26863609342F0D323686360EDE7F5
:100D2000C06806F0DDFA226CE36851429B1A226823
:100D3000E36093423EBFA3685B18E360022D01D1DC
:100D400016B1013E0025D9E73546D7E703461A6CB0
:100D5000084610B462B1DC68996814448C4228BF1C
:100D60001968DC6028BFD960D96810BC06F0B8BA31
:100D700010BC704770B50446FFF724FF94F8455047
:100D800004F124066DB2002D14DCFF2384F84530F5
:100D9000FFF728FFFFF716FF94F8445004F1100600
:100DA0006DB2002D12DCFF2384F84430BDE87040A2
:100DB000FFF718BF636A002BE7D0304600F094FDC0
:100DC00008B100F029FE013D6DB2DCE72369002B7C
:100DD000E9D0304600F088FD08B100F01DFE013D6D
:100DE0006DB2DEE738B504460D46FFF7EBFED4E9F9
:100DF0000F314B432268D0185B1A1344A060E360A4
:100E00000020FF23A063626084F8443084F84530FA
:100E100095B9236963B104F1100000F065FD38B1A4
:100E20004FF08052094B1A60BFF34F8FBFF36F8FA3
:100E3000FFF7D8FE012038BD04F11000FFF736FEA1
:100E400004F12400FFF732FEF2E700BF04ED00E0FA
:100E500070B50646484348300D46FFF75DFD044631
:100E600048B155B100F1480301212046C4E90F659E
:100E70002360FFF7B7FF204670BD0346F4E7FFFF8E
:100E80002DE9FF474FF0000804460F461E46C146B5
:100E9000DFF8ECA00192FFF795FEA26BE36B9A429C
:100EA00001D3022E19D1324639462046FFF719FFE9
:100EB000636A1BB104F1240000F016FD38B14FF055
:100EC00080522F4B1A60BFF34F8FBFF36F8FFFF726
:100ED00089FE012004B0BDE8F087019D1DB9FFF730
:100EE00081FE0020F6E7B8F1000F02D102A800F061
:100EF0005FFDFFF777FE00F037FBFFF763FE94F826
:100F00004430FF2B08BF84F8449094F84530FF2B01
:100F100008BF84F84590FFF765FE01A902A800F01C
:100F200053FD30BBFFF74EFEA26BE36B9A420FD12D
:100F3000FFF758FE019904F1100000F09BFC2046D9
:100F4000FFF718FF00F0A4FB50B14FF00108A2E733
:100F5000FFF748FE2046FFF70DFF00F099FBF4E78E
:100F60004FF08053CAF80030BFF34F8FBFF36F8F3D
:100F7000EBE72046FFF7FEFE00F08AFBB1E700BF7B
:100F800004ED00E0F8B5174604461A46EFF3118663
:100F90004FF0280383F31188BFF36F8FBFF34F8F98
:100FA000806BE36B984201D3022A1ED194F845501E
:100FB00020466DB2A36BFFF794FE6B1C10D1636AE1
:100FC0000BB9012009E004F1240000F08DFC002899
:100FD000F7D0002FF5D00120386086F31188F8BDD6
:100FE00001356DB284F84550EBE70020F5E7FFFFCF
:100FF0002DE9F043002704460E46B84685B0DFF8D9
:10100000DC900192FFF7DEFDA56BD5B1314620469D
:10101000013DFFF79BFEA563236963B104F1100056
:1010200000F062FC38B14FF080522C4B1A60BFF3D5
:101030004F8FBFF36F8FFFF7D5FD012005B0BDE8DF
:10104000F083019D1DB9FFF7CDFD0020F6E717B92C
:1010500002A800F0ADFCFFF7C5FD00F085FAFFF730
:10106000B1FD94F84430FF2B08BF84F8448094F815
:101070004530FF2B08BF84F84580FFF7B3FD01A979
:1010800002A800F0A1FCF0B92046FFF71FFEA0B1B6
:10109000019904F1240000F0EDFB2046FFF76AFE01
:1010A00000F0F6FA38B94FF08053C9F80030BFF3BA
:1010B0004F8FBFF36F8F0127A4E72046FFF75AFE3B
:1010C00000F0E6FAF7E72046FFF754FE00F0E0FAFA
:1010D0002046FFF7FBFD0028EDD0B6E704ED00E069
:1010E000002310B5064A52F833402CB942F83310A9
:1010F00002EBC303586010BD01330A2BF3D1FAE7AA
:101100001002001070B504460D461646FFF75AFD52
:1011100094F84430FF2B04BF002384F8443094F843
:101120004530FF2B04BF002384F84530FFF75AFDFC
:10113000A36B2BB93246294604F1240000F0BEFB14
:101140002046BDE87040FFF715BEFFFF064A136852
:101150001968064B19B94FF0FF321A6070471268D0
:10116000D268D2685268F8E76402001010030010D9
:10117000F8B51B4B1B4F1C68054638680E460430FB
:10118000FFF7C5FC3B4640B939681748CF6A0121D3
:101190000268B94022EA010202606A1C07D136B136
:1011A000196812480431BDE8F840FFF78DBC1A6891
:1011B0006419546007D30E4A10681968BDE8F840F6
:1011C0000431FFF78DBC0B4A106819680431FFF732
:1011D00087FC094B1A68A24288BF1C60F8BD00BF9B
:1011E0005C03001060020010E002001034030010E5
:1011F00068020010640200101003001080B5DFF8D0
:101200006480144F144C154E236863B9144B1B684B
:10121000012BF8D94FF08053C8F80030BFF34F8F3F
:10122000BFF36F8FEEE7FFF7CDFCFB68DD68281D8D
:10123000FFF76DFC3368013B33602368013B23609B
:10124000FFF7D0FC286BFFF7C1FB2846FFF7BEFB7A
:10125000DAE700BF48030010D4020010D0020010EB
:101260006C02001004ED00E02DE9F84F4FEA820A0D
:10127000064650460D461F46DDF82C90FFF74CFB06
:101280008046D0B15C20FFF747FB044690B1524640
:10129000C0F83080A521404606F030F8236BAAF153
:1012A000040A9A442AF0070AC4F848A045B984F809
:1012B000345014E04046FFF789FB4FF0FF358EE0D5
:1012C0006B1E04F13402133513F8011F02F8011BE1
:1012D000197809B1AB42F7D1002384F847300A9D51
:1012E0004FF0000B042D28BF042504F104084046EC
:1012F000E562E564C4F850B0FFF7E3FBC5F105050E
:1013000004F11800FFF7DDFBC4F854B03A4631464B
:1013100050462461A561646284F858B0FFF728FC48
:101320002060B9F1000F01D0C9F80040FFF74AFC76
:10133000314B324E1A68324F01321A603268002A3D
:1013400050D134601B68012B25D12E48FFF7AEFB2E
:101350002D48FFF7ABFB2D48FFF7A8FBDFF8DC902B
:101360002B48FFF7A3FB2B4D2B48FFF79FFB48466D
:10137000FFF79CFB2846FFF799FB2848FFF796FBF1
:101380002748FFF793FB2748FFF790FB264BC3F84E
:101390000090264B1D600125254A264913680868E0
:1013A00001331360E26A05FA02F3034314200B6071
:1013B000144B414600FB0230FFF786FBFFF712FC9F
:1013C0003B6863B13368DA6AE36A9A4207D24FF046
:1013D0008052194B1A60BFF34F8FBFF36F8F2846AF
:1013E000BDE8F88F3B68002BD5D13368E26ADB6A31
:1013F0009A4228BF3460CEE7D0020010600200108D
:10140000300300106C0200108002001094020010E3
:10141000A8020010F8020010BC0200101C0300100B
:10142000480300103403001064020010680200102A
:10143000DC020010E002001004ED00E0E402001005
:10144000F8B50446244DFFF7BDFB04B92C68261DF2
:101450003046FFF75CFB60B91420E76A1F4B784306
:101460001B5833B901221E49BA400B6823EA020314
:101470000B60A36A1BB104F11800FFF748FB194A7F
:101480001368013313602B68A34218D13146164804
:10149000FFF71AFB154A136801331360FFF7A2FB2D
:1014A000134B1B6853B12B68A34207D14FF08052F6
:1014B000104B1A60BFF34F8FBFF36F8FF8BD0E4A0A
:1014C000206B1368013B1360FFF780FA2046FFF79B
:1014D0007DFAFFF73BFEE1E7600200106C020010AE
:1014E000E0020010DC02001048030010D4020010DB
:1014F0003003001004ED00E0D002001013B500240A
:10150000134B322201931349234613480094FFF7EB
:10151000ABFE01281AD100F029FB012816D14FF0AB
:10152000280383F31188BFF36F8FBFF34F8F4FF002
:10153000FF320A4B1A600A4B18600A4B1C60FEF718
:101540003FFF02B0BDE81040FFF7A4BB02B010BDE2
:101550000C03001057AF0100FD1101001003001033
:10156000300300105C030010024A1368013313605B
:10157000704700BFD8020010014B1868704700BFC9
:101580005C0300102DE9F84F364B1B68002B62D12D
:10159000354B1D6801351D605DB9344A344B116807
:1015A00018681060334A1960136801331360FFF73D
:1015B000CDFD314E00243368304F9D4210D2304B68
:1015C0001B68DA6A14235343FB58022B2D4B28BFA8
:1015D00001241B68002B18BF01242046BDE8F88FAA
:1015E000DFF888A0DFF8A490DAF800301B681BB998
:1015F0004FF0FF333360E2E7DAF80030DB68D3F80E
:101600000CB0DBF80420954201D23260D7E70BF131
:1016100004084046FFF77BFADBF828201AB10BF1EB
:101620001800FFF774FA0122DBF82C00D9F800301B
:1016300082401A43C9F800201422414602FB007080
:10164000FFF742FA0E4BDBF82C201968CB6A9A425E
:1016500028BF0124C8E70C4A002413680133136033
:10166000BBE700BFD80200105C030010640200104A
:101670006802001014030010100300106C02001028
:10168000600200106003001018030010E002001058
:101690002DE9F843FFF796FA2A4B1A68013A1A60C7
:1016A0001C682CB10024FFF79DFA2046BDE8F883A2
:1016B000254B1B68002BF5D0244D254EDFF8A48068
:1016C0001FE0EB680127DC6804F1040904F118004D
:1016D000FFF71DFA4846FFF71AFA1420E26A31684C
:1016E00007FA02F30B4300FB028049463360FFF721
:1016F000EBF9184BE26A1B68DB6A9A4201D3164B7E
:101700001F602B68002BDCD10CB1FFF71FFD134DC0
:101710002C6844B10127104EFFF734FF00B1376049
:10172000013CF9D12C600C4B1B68002BBAD04FF058
:1017300080520B4B1A60BFF34F8FBFF36F8F0124A2
:10174000B1E700BFD8020010D00200101C03001047
:10175000E002001060020010600300101803001087
:1017600004ED00E06C02001010B5FFF7FDFE0F4B1A
:1017700004681A6863182CBF012100219442036099
:101780000CD961B9FFF784FF38B94FF08052084B8C
:101790001A60BFF34F8FBFF36F8F10BD09B99A4224
:1017A000F0D20021981AFFF7E3FCEBE75C0300108E
:1017B00004ED00E008B540B94FF08052084B1A60C4
:1017C000BFF34F8FBFF36F8F08BDFFF7CDFE002132
:1017D000FFF7CEFCFFF75CFF0028EDD0F4E700BF79
:1017E00004ED00E01E4B70B51A681E4B12B10122C9
:1017F0001A6070BD1C4C1A6023681B6B1A68B2F12A
:10180000A53F0BD15A68B2F1A53F07D19A68B2F152
:10181000A53F03D1DB68B3F1A53F04D02068216860
:101820003431FEF7A5FF114B1B68B3FA83F3142084
:10183000DBB2C3F11F0300FB03F20D498D186E6884
:10184000083276680A44964200FB031308BF7268A8
:101850006E6008BF6A605B68DB682360C9E700BF31
:10186000D80200106003001060020010E0020010B7
:101870006C02001010B50C46054B19681831FFF7C3
:101880002FF92046BDE810400121FFF771BC00BFD1
:101890006002001010B51446074B41F000411A6871
:1018A000916119681831FFF70FF92046BDE8104023
:1018B0000121FFF75DBC00BF6002001038B514467F
:1018C0000D46084B19681831FFF7FEF8002C214629
:1018D00008BF2846BDE8384018BF4FF0FF30FFF77B
:1018E00047BC00BF6002001038B5C368DC6804F173
:1018F00018052846FFF70BF9114B1B68E3B9251DA6
:101900002846FFF704F901230E49E26A086893406C
:10191000034314200B6029460B4B00FB0230FFF7FA
:10192000D3F80A4BE26A1B68DB6A9A4285BF012042
:10193000074B0020186038BD29460648EFE700BF76
:10194000D8020010E00200106C02001060020010CB
:10195000600300101C03001070B50125C46841F03D
:1019600000410160261DFFF7D2F83046FFF7CFF89F
:101970000B49E26A086805FA02F3034314200B607E
:10198000084B314600FB0230FFF79EF8064BE26A37
:101990001B68DB6A9A4284BF044B1D6070BD00BFA8
:1019A000E00200106C0200106002001060030010E2
:1019B000034B1B680360034B1B684360704700BF09
:1019C000140300105C03001070B50C460546FFF7C9
:1019D000F9F80F4B196823685A1C10D00D482E686F
:1019E00000686A68864201D08A420FD9881A834209
:1019F0000AD95B1A134428462360FFF7D9FF002455
:101A0000FFF7F0F8204670BD002323600124F7E7BC
:101A10005C030010140300100122014B1A60704790
:101A200060030010014B1868704700BF600200108F
:101A3000054B1B6833B1054B1B68002B0CBF022004
:101A4000002070470120704730030010D8020010BA
:101A5000F8B5044608B90020F8BD036DC16AC26C30
:101A6000013B91420365F6D0002BF4D1061D3046B0
:101A7000FFF74DF8104F114A50B91421E06A414365
:101A80007B582BB901251368854023EA05031360B1
:101A9000E36C1420C3F10501A161E3620124116824
:101AA00004FA03F500FB03700D4331461560FFF7A0
:101AB0000BF82046D0E700BF6C020010E0020010D7
:101AC000044B1A68196890691A68CB6AC3F1050358
:101AD0009361704760020010F8B50F4CFFF772F881
:101AE0002568ADB90D4F0E4E3846FEF7DFFF304684
:101AF000FEF7DCFF0B4B2A461F600B4B1021052025
:101B00001E60FFF7A5F9206010B10849FFF7E8FA59
:101B1000BDE8F840FFF766B8980300106C030010AA
:101B20008003001064030010680300105CAF010024
:101B3000914208B5416000610AD8D21A83699A427D
:101B40000DD2084B011D1868FEF7CAFF002008BD22
:101B50009A4201D2994202D2034B011DF3E70120C0
:101B6000F5E700BF680300106403001007B5FFF736
:101B7000B3FF084B186848B1074B64220193042354
:101B80000649009306480023FFF76EFB03B05DF89B
:101B900004FB00BF980300109C03001061AF01001C
:101BA000551C01007FB50F4C0546206816461A46A5
:101BB00080B10529CDE9001602950DDCFFF738FF4D
:101BC0000023022818BF1A46694608BF089A2068F1
:101BD000FFF756F904B070BD00236946FFF7D2F94C
:101BE000F8E700BF980300102DE9F3414FF000081B
:101BF000164D2B681A6832B9154A116813602960AE
:101C000002B0BDE8F081DB68DC681E68271D38463D
:101C1000FEF77DFF236A2046984794F824305B073F
:101C2000E7D5A36933449E4206D2394628686360EB
:101C30002461FEF755FFDCE70023324619462046B3
:101C4000CDF80080FFF7AEFFD3E700BF64030010BC
:101C5000680300102DE9F04F674E87B0B146336836
:101C6000D3F800B0BBF1000F28D00024DB68D3F814
:101C700000B0FFF779FCFFF77FFC604D82462B68D0
:101C8000A84698425E4F1BD3286014B35D4B1B6877
:101C90001C68B4FA84F4640922463868ABEB0A0184
:101CA000FFF730FAFFF7F4FC80B94FF08053564A43
:101CB0001360BFF34F8FBFF36F8F07E00124D8E7A6
:101CC000FFF792FFC5F800A0FFF7E2FC4FF0000B12
:101CD0002CE08345E0D8FFF7DBFCD9F80030DB6867
:101CE000DD68281DFEF713FF95F82430580712D53C
:101CF000A9695B46524628465944FFF719FF30B19F
:101D000023465A46214628460094FFF74BFF2846B3
:101D10002B6A9847DAE723F0010385F82430F6E7C9
:101D2000039B05999847029B002B0ADA002238682A
:101D300002A9FFF75DF9002891D0029B0498002BBF
:101D4000EEDB049C6369A3B9FFF716FCD8F80030FA
:101D50000546984201D2FFF747FF029BC8F80050A2
:101D6000092BE3D8DFE803F00909092A3140090902
:101D70002A31201DFEF7CBFEE6E794F82430A16956
:101D800043F0010384F82430039B2A46204619447B
:101D9000FFF7CEFE0028C9D0236A2046984794F862
:101DA00024305907C2D50023A269039920460A446A
:101DB000CDF800B01946FFF7F5FEB7E794F82430E8
:101DC00023F0010384F82430B0E794F82430039919
:101DD00043F0010384F82430A1612B462A462046B3
:101DE0002944FFF7A5FEA1E794F824309A07E7D429
:101DF0002046FEF7EBFD99E7640300109403001002
:101E0000980300106803001004ED00E01FB51446AD
:101E10001A466FF00103CDE900300548CDE9021400
:101E2000002369460068FFF7ADF804B010BD00BF9D
:101E300098030010054B20B19A6942F000629A6144
:101E40007047DA6942F00062DA61704720C0092009
:101E50000E4A08B5D368002023F44003D360D36C46
:101E600023F4400343F00073D364094A136843F03A
:101E700000631360FFF7DEFF46F2905003F020F995
:101E8000BDE80840012003F073B900BF00C0024064
:101E900020C0092080B582B002AF00230093082340
:101EA00004220021144800F033F901230422002108
:101EB000124800F05BF90223009308231C2204213E
:101EC0000D4800F025F90023009308231122012179
:101ED000094800F01DF9012311220121074800F0F3
:101EE00045F90223009308231D220421024800F033
:101EF0000FF900BFBD4680BD00C0024000C00920F0
:101F000080B500AF1D4803F0A7FA1C4803F0BAFAE9
:101F10001A4B00229A61194B0022DA61174B4FF4D9
:101F2000FA621A62154BFF221A600021134800F072
:101F300039F90121114800F035F902210F4800F06C
:101F400029F902210D4800F037F900230122002170
:101F50000A4803F0A3FA012301220021074803F0F5
:101F60009DFA064800F011F90521032000F0BCF8A5
:101F7000032000F091F800BF80BD00BF00000940C1
:101F800008200C4B0C499A69322A82BFDA6B42F066
:101F90000102DA63074BDA69322A82BFDA6B42F058
:101FA0000202DA63034A136843F004031360C1F8C2
:101FB000800170470000094000E100E080B500AFFB
:101FC000012000F075F8012000F080F800BF80BD0E
:101FD00080B500AF022000F06BF8022000F076F828
:101FE00000BF80BD90B587B000AFF8600B467A6047
:101FF000FB72786804F010FF03467B617B68642BFA
:1020000001D964237B607B68042B01D800237B60AB
:10201000FB681B6A7A6802FB03F3184604F0FCFEB7
:1020200003467B610949786905F002F803467B6144
:1020300097F90B40786905F033F90146FB68A21D5A
:1020400043F8221000BF1C37BD4690BD0000C842B7
:1020500080B582B000AF03460A46FB711346BB71E0
:10206000FB7904220021064800F071F8BB791122A7
:102070000121034800F06BF800BF0837BD4680BD62
:1020800000C0092080B400AF024B1B781846BD4643
:1020900080BC7047A00300100123420900F01F001C
:1020A00003FA00F0014B43F82200704700E100E022
:1020B0000122430900F01F0002FA00F0024A203317
:1020C00042F82300704700BF00E100E0012243090D
:1020D00000F01F0002FA00F0024A603342F82300C9
:1020E000704700BF00E100E00028ACBF00F1604095
:1020F000064B4FEAC101C9B2B5BF00F00F0000F5B1
:102100006140195480F80013704700BF14ED00E0DF
:1021100070B50325140904EB4101C9B202F00F02A6
:1021200050F821C052009DF81040954094402CEA90
:10213000050C44EA0C0400EB810640F82140316CA8
:1021400003FA02F221EA05052A43326470BDC9B2DE
:1021500000EB4110012101FA02F21BB183691A431D
:1021600082617047C3691A43C261704710B5012488
:10217000490104FA02F21BB143581A43425010BD00
:10218000435823EA02024250F9E7436843F001034F
:102190004360704701EB41030121426999401143BB
:1021A000416170470122436901EB410102FA01F1EB
:1021B00023EA010343617047012301EB41014269B6
:1021C000013103FA01F1114341617047012303FA20
:1021D00000F0044B5A6902435A611A6910431861AE
:1021E000704700BF80800240294A08B51368062066
:1021F00023F080031360274B196821F440411960D4
:10220000196C21F440411964116821F040011160FA
:10221000196821F440511960196C21F44051196476
:10222000116821F400711160196821F440211960CE
:10223000196C21F440211964116821F48071116036
:102240001A6822F440321A601A6C22F440321A647E
:10225000C022114B1A604FF44072104B1A60FFF706
:10226000B5FF0720FFF7B2FF0920FFF7AFFF0820F7
:10227000FFF7ACFF00220A4BDA600822094B83F813
:1022800015234FF40012C3F880211A6008BD00BF67
:1022900000C0092000C00240B0030010B4030010C9
:1022A0008080024000E100E00346034A92E8030018
:1022B00083E8030018467047A4030010044B10B5D0
:1022C0001C6804441C605A680A445A6010BD00BF70
:1022D000A4030010274B1A68D20700D47047264980
:1022E00098685A68096802430A4210B43CD02348EF
:1022F000D96043694169224C8909207801F00201C3
:10230000C3F38013194381422ED01E4B80EA510043
:1023100010F0010F186814BF00F1FF300130186091
:102320002170194909680A4218D01248134AC1603D
:1023300051695269154CD209207802F00202C1F3AA
:1023400040210A43824209D0596880EA5200C007FE
:102350004CBF01F1FF310131596022701A6810BC85
:102360001A605A685A6070470749064B09680A4262
:10237000F4D0DAE780800240B003001000C00920EA
:10238000AC030010A4030010B4030010AD03001050
:102390004FF48022014BC3F88021704700E100E038
:1023A0004FF40022014BC3F88021704700E100E0A8
:1023B0004FF48012014BC3F88021704700E100E028
:1023C00038B5284C284AE368002023F04073E360C6
:1023D000E36C264D23F0407343F00063E36413681D
:1023E00043F08053136000F04DF82369204A23F036
:1023F00040632361236D23F0406343F00053236562
:10240000136804F5D82443F400531360204603F006
:1024100059F81849204603F085F803232046E36065
:1024200003F07CF8802301222946134802F0ACFE19
:1024300080230122E918114802F0A6FE8723A36039
:10244000636843F005036360636823F0020363601D
:1024500000F0D0F980220A4BC3F88021302283F8A3
:10246000072338BD00C0024020C0092000F007202B
:1024700040C0092040420F005004001064040010C6
:1024800000E100E0054B20B19A6942F080529A6168
:102490007047DA6942F08052DA61704720C0092043
:1024A00080B584B000AF78600023FB600023FB722E
:1024B00000237B720023BB720BE007F1090319466E
:1024C0003A4802F0C7FEBB7A0133BB72BB7A032BDA
:1024D00064D87B7AFF2BF0D10023BB7200237B7280
:1024E0000BE007F109031946304802F0B3FEBB7A4E
:1024F0000133BB72BB7A032B52D87B7AFF2BF0D10E
:102500002B492A4802F0A6FE294B1B781A46FB6885
:102510001344FB602749254802F09CFE244B5B785E
:102520001A46FB681344FB602349204802F092FEE0
:102530001F4B9B781A46FB681344FB600023FB7219
:1025400015E0FB7A442B2DD8FB7A194A1344033348
:102550001946164802F07EFEFB7A154A1344DB78D2
:102560001A46FB681344FB60FB7A0133FB72FA7A6C
:102570000F4B5B78023B9A42E3DB07F109031946F4
:102580000A4802F067FEFB68DB43FB6000234FF064
:10259000FF3207497868FEF773FC04E000BF02E0F1
:1025A00000BF00E000BF1037BD4680BD50040010E2
:1025B00006040010070400100804001080B584B061
:1025C00000AF78600023FB8100237B737B7B5A1C68
:1025D0007A731A463B4BFF2199547B7B5A1C7A73C2
:1025E0001A46384BFF2199547B7B5A1C7A731A4642
:1025F0007B681978334B99547B681B789AB2FB89B6
:102600001344FB817B7B5A1C7A731A467B6859788A
:102610002C4B99547B685B789AB2FB891344FB81FD
:102620007B7B5A1C7A731A467B689978254B9954A0
:102630007B689B789AB2FB891344FB810023BB60C3
:1026400019E0BB68442B1DDC7B7B5A1C7A7319464E
:102650007A68BB68134403331A781A4B5A547A6861
:10266000BB68134403331B789AB2FB891344FB8184
:10267000BB680133BB607B685B78023BBA689A42F7
:10268000DFDB00E000BFFB89DB43FB817B680022CE
:1026900083F847207B7B5A1C7A731A46FB89D9B290
:1026A000084B99547B7B1A460649074802F08CFD7B
:1026B0007B7B1A460449054800F00AF800BF103732
:1026C000BD4680BDB80300106404001000800940BE
:1026D00080B586B000AFF860B9607A6000F064F849
:1026E00000F0B5F80FE0FB7C1946F86800F00CF933
:1026F00000BF00E000BFF86800F008F9034603F0EF
:102700002603002BF6D007F113031946B86802F030
:10271000A1FD0346002BE6D100237B6100237B61F2
:1027200002E07B6901337B617B69C72BF9DD00F037
:1027300061F800F085F800BF1837BD4680BDFFFF87
:10274000002307B5114A12491248019302F03AFFDB
:102750000F4802F0D6FD052806DD0F491022096852
:102760000E4801ABFFF752FB019B3BB14FF080528B
:102770000B4B1A60BFF34F8FBFF36F8F8022094B53
:10278000C3F8802103B05DF804FB00BF64040010AF
:10279000500400100080094088050010CB0801009B
:1027A00004ED00E000E100E080B582B002AF01235B
:1027B0000D2202210D4800F089F800230093082320
:1027C0000B2200210A4800F063F800230B220021AD
:1027D000064800F08AF80123009308230A2200210A
:1027E000034800F055F800BFBD4680BD00C0092079
:1027F00000C0024080B582B002AF00230D2202214A
:102800000D4800F063F80023009308230A220021FA
:102810000A4800F03DF800230A220021064800F093
:1028200064F80123009308230B220021034800F0E1
:102830002FF800BFBD4680BD00C0092000C0024087
:1028400080B500AF072000F009F800BF80BD80B55B
:1028500000AF072000F00EF800BF80BD0123420941
:1028600000F01F0003FA00F0014B43F8220070470C
:1028700000E100E00122430900F01F0002FA00F02D
:10288000024A203342F82300704700BF00E100E015
:10289000F0B50325140904EB4101C9B202F00F029F
:1028A00050F8217052009DF814409540944027EA5A
:1028B00005073C4300EB810640F82140316C03FAE8
:1028C00002F221EA05052A433264F0BDC9B200EBE9
:1028D0004110012101FA02F21BB183691A4382619E
:1028E0007047C3691A43C261704710B5012449019A
:1028F00004FA02F21BB143581A43425010BD435828
:1029000023EA02024250F9E70160704740697047CC
:1029100008B52149214802F087FA214B5A6822F470
:10292000404242F480425A605A6C22F4404242F4DF
:1029300000325A645A6822F4403242F480325A60BB
:102940005A6C22F4403242F400225A645A6822F44B
:10295000402242F480225A605A6C22F4402242F40F
:1029600000125A645A6822F4401242F480125A60EB
:102970005A6C22F4401242F400025A641A6822F09F
:10298000C00242F080021A601A6C22F0C00242F4C7
:1029900000721A6408BD00BF7804001000400340B4
:1029A00000C00240072873B5044632D81A4D0146CC
:1029B00001221A4802F089FA2B7803F0FF0103B1D3
:1029C0000121164802F091FA2B7803F0FF021BB99F
:1029D0000121124802F06DFA104E002221463046C5
:1029E00002F051FA0128F8D121460C480DF10602F7
:1029F00002F03EFA2B781BB10021084802F075FA6C
:102A000006480022214602F060FABDF8060002B036
:102A100070BD0020FBE700BF8004001000400340B1
:102A20000123400100F1005000F51C2082698B4019
:102A30001343836170470123400100F1005000F50A
:102A40001C20C2698B401343C36170470A0902EB23
:102A50004002D2B2920002F180430322F0B403F5A7
:102A6000303301F00F06D3F800C0760002FA06F703
:102A70002CEA07021A601A6C22EA0702082707FAF2
:102A800006F632431A640122430103F1005303F5B1
:102A90001C231C688A4022431A60F0BCFFF7CBBF9E
:102AA00080B588B000AFF860B9607A600321022079
:102AB000FFF7B6FF21E0FB7C1946F86800F052F8FA
:102AC0000023FB6103E000BFFB690133FB61FB698D
:102AD0000F2BF8DD09E00023BB6103E000BFBB69F9
:102AE0000133BB61BB690F2BF8DDF86800F03CF8DF
:102AF000034603F02603002BEDD007F1130319461C
:102B0000B86802F0A7FB0346002BD4D100237B61F9
:102B100003E000BF7B6901337B617B69632BF8DDD8
:102B200003210220FFF787FF00BF2037BD4680BD8D
:102B30004FF4967307B50093012305481A464FF0EA
:102B400000410068FDF72AFE03B05DF804FB00BFFA
:102B500088050010024B4FF000411868FDF787BE52
:102B6000880500100160704740697047204B10B520
:102B70001A68204C22F0404242F080421A601A6CDF
:102B8000032122F040421A645A68022022F0030214
:102B900042F001025A605A6C22F0030242F008022D
:102BA0005A64FFF753FF204602F08CFC124920467E
:102BB00002F0B8FC03232046E36002F0AFFC4FF4C0
:102BC000807301220D490E4802F0DEFA872340226D
:102BD000A360636843F005036360636823F0020346
:102BE0006360084BC3F88021302283F8062310BDB0
:102BF00000C002400000014080841E0000F1072058
:102C00006005001000E100E037B5802301220F4984
:102C10000F4802F0B9FAFFF7A9FF00224D21052065
:102C2000FEF716F90B4C0C4D21462860FEF758FABA
:102C30000323002204F11201CDE900320748642287
:102C40002B68FEF711FB03B030BD00BF00F2072078
:102C5000740500108CAF0100D8040010152D010080
:102C600013B500241D48019402F04BFB0A28D8BF7D
:102C70001B4B1C4A19491C48D8BF1C7002F0A2FC0F
:102C8000164802F03EFB0A281BDD154C2378C3B919
:102C9000164901AB042209681548FFF7B7F801236C
:102CA0002370019B3BB14FF08052124B1A60BFF36F
:102CB0004F8FBFF36F8F40220F4BC3F8802102B0BC
:102CC00010BD064802F01DFB7F28EADD07490422FB
:102CD000096801AB0648FFF799F8E2E760050010C4
:102CE000DC0400107405001000000140880500108D
:102CF000CB08010004ED00E000E100E0034B044AD2
:102D00001B6810681B68DB68184700BF14000010C0
:102D100084040010064608B53220FEF74BFD124C25
:102D2000124D04F10108FFF703FF002230460E495F
:102D3000FEF75EF90128F6D141462846227802F0D6
:102D400043FA94F84C30012B05D1294622780848E3
:102D5000FFF7A6FEE9E7284602F0D3FA0549024646
:102D6000284602F08FFAE0E788040010740500108E
:102D700000000140DD04001008B5FDF702FD014B25
:102D8000186008BD8805001090B589B000AF786064
:102D900039603B68002B01D100234CE17B68002B9C
:102DA00001D1002347E14FF4FA7000F0F5F9002358
:102DB000FB730023FB820023FB8300237B7700232C
:102DC000BB7300233B7707F10F031946786802F0C5
:102DD00041FA20E007F10F031946786802F03AFA49
:102DE0000346002B0ED03B7F01333B773B7F022B0A
:102DF00011D900F0E1F9924B1B680133904A13603E
:102E0000002318E100F0D8F98D4B1B6801338C4A80
:102E1000136000230FE1FB7B7E2BDBD1032289496A
:102E2000786802F02FFA874B1B78FB82B7F91630CF
:102E30001B02FB82834B5B789AB2FB8A13449BB2E2
:102E4000FB82B7F916304B2B08DD00F0B5F97C4B4F
:102E50001B6801337A4A13600023ECE0794B9B78BE
:102E60009AB2FB8B13449BB2FB83764B9B78892BE6
:102E70000DD103227349786802F004FA00F09CF93E
:102E80006F4B1B6801336E4A13600023D3E00023AD
:102E90003B7711E03B7F01333B773B7F052B08D924
:102EA00000F08AF9664B1B680133654A1360002302
:102EB000C1E00120FEF77EFC786802F022FA0246AB
:102EC000B7F91630013B9A42E4DB06225D49786887
:102ED00002F0D8F90023BB610BE05A4ABB691344E6
:102EE0001B789AB2FB8B13449BB2FB83BB69013303
:102EF000BB61BB69032BF0DD524B1A79524B1A7040
:102F0000514B1B789AB2FB8B13449BB2FB834D4B06
:102F10005B795AB24C4B5A704B4B93F90130DBB290
:102F20009AB2FB8B13449BB2FB83FB8ADBB2073B59
:102F3000DAB2454B9A70444B9B78402B73D80023F0
:102F40003B7711E03B7F01333B773B7F052B08D973
:102F500000F032F93A4B1B680133394A1360002301
:102F600069E00120FEF726FC374B9B781C46786809
:102F700002F0C7F903469C42E4DA334B9B781A46C9
:102F80003249786802F07EF900237B770BE07B7F83
:102F90002D4A1344DB789AB2FB8B13449BB2FB831C
:102FA0007B7F01337B77284B9B787A7F9A42EED3E5
:102FB00007F10E031946786802F04CF9FB8BDBB27F
:102FC000FB83FB8BDBB2DB43DBB2FB83B7F91E3049
:102FD000BA7B93421ED11E4B1B6801331C4A1360FF
:102FE0003968194800F03AF838613B69002B08D07D
:102FF00000F0E2F8174B1B680133164A13600123F7
:1030000019E0154B1B680133134A136000F0D4F824
:10301000002310E000F0D0F8094B1B680133084A88
:103020001360002307E000F0C7F8054B1B6801336D
:10303000034A1360002318462437BD4690BD00BFE5
:103040009005001014F30720CEF20720D1F20720DC
:1030500098050010940500108C05001010B404466B
:10306000084694F901104B1C0FD00D4B5A695B694F
:10307000C2F30022C3F3001382F0010283F00103C4
:1030800043EA42030133994206D1214600234FF01F
:10309000FF3210BCFDF7F4BE002010BC704700BF2B
:1030A00020C009202DE9774105463220FEF782FB3A
:1030B0004022124B1A601DB9FEF7B4FCFEF7C0F9AE
:1030C00000244FF0FF380E4E002301220C213068FF
:1030D000CDF80080FDF762FB43070DD410F0080F18
:1030E00018BF0024204602F00CF90028ECD0294635
:1030F0002046FFF749FEF5E7024CF3E700E100E068
:10310000880500106005001008B500224621052042
:10311000FDF79EFE054B06491860FDF7E1FF054BE4
:1031200003211868BDE80840FDF7A1BB9C0500100D
:10313000AFAF01008805001007B5FFF7E5FF0223D8
:103140000022CDE90032054B64221B680449054882
:10315000FEF78AF803B05DF804FB00BF9C05001081
:10316000C4AF0100A5300100012307B50090054858
:103170001A4619460068FDF711FB00F0010003B084
:103180005DF804FB88050010024B01211868FDF76B
:103190006EBB00BF88050010012307B500900548ED
:1031A0001A4602210068FDF7F9FAC0F3400003B0A7
:1031B0005DF804FB88050010024B02211868FDF73A
:1031C00056BB00BF880500107E2270B5244B03302B
:1031D0005A7010F8014C04F10B021A70E21DDA70FB
:1031E000151201229D701A715A71B0F84120150A0A
:1031F000DA7100229D711A7210F8035C5D7210F88A
:10320000025C9D7203F10B05D6B2B44217D80020C0
:1032100003220934944218DAC0431A44507011480A
:1032200083F84C10642200230D490068FDF728FE46
:10323000044688B1FFF7A8FF0124204670BD10F8AE
:10324000016B013205F8016BDEE79D186D780132E4
:10325000284400B2D2B2DDE7FFF796FFEDE700BFEA
:1032600080F20720D80400107047FFFF84B070B5CB
:1032700004AC84E80F0032209DF82460FFF774FF4F
:1032800058B31849049803F01FFE03F0E3FF164DEE
:1032900014492880059803F017FE03F0DBFF13495B
:1032A0006880079803F010FE03F0D4FF4FF60A730E
:1032B0000F4C294623800623A8804022E01CA370DF
:1032C00004F00EF84FF6FF7331462046A4F8443060
:1032D000BDE8704004B0FFF777BFBDE8704004B0B0
:1032E000704700BF00002041A00500100000C84248
:1032F00060F307202DE9F0470446322089469046C6
:103300001F46FFF731FF002840D04FF63863384D95
:10331000384E2046338085F8029085F8018004F00D
:1033200075FC80B23A2833D9A94605F1030A06F1A3
:103330000308204604F06AFC3B2854D8204604F0D9
:1033400065FCC0B22870204604F060FC3B284CD8D5
:10335000204604F05BFC02462146504603F0C0FFC5
:103360003E23402249464046B37003F0B9FF002394
:1033700039462048A6F84430FFF726FF2B781C4436
:10338000204604F043FC80B20028D2D1BDE8F0878B
:10339000204604F03BFC3B2821D8204604F036FCB4
:1033A000C0B22870204604F031FC3B2819D82046D2
:1033B00004F02CFC024621460F4803F091FF3E2307
:1033C0000B4940220D48B37003F08AFF00233946B1
:1033D000A6F844300748BDE8F047FFF7F5BE3B20AC
:1033E000DFE73B22E7E73B20ACE73B22B4E700BF47
:1033F000A605001060F30720A905001063F307205D
:1034000030B5054685B03220FFF7AEFE00283AD031
:103410004FF6FD731D48002403804FF6FF732946C5
:103420008470A0F84430FFF7CFFE194A1949536958
:103430005269C3F30023C2F3001283F0010382F048
:10344000010242EA4302144B31320293134B1448F7
:103450000193144B0093144B04F0B8FB2146012355
:1034600004220F48FFF746FF104B11491A680C4819
:1034700004F0ACFB012304222146094805B0BDE855
:103480003040FFF737BF05B030BD00BF60F3072005
:1034900020C00920D7AF0100FDAF010006B0010038
:1034A000E405001012B00100D5AF01009005001036
:1034B00015B0010070B5064632200D46FFF754FEE8
:1034C00090B12423094C314623803023E01C402254
:1034D000A37003F005FF002329462046A4F84430DA
:1034E000BDE87040FFF770BE70BD00BF60F30720FD
:1034F00007B501230022CDE90032054B96221B6857
:1035000004490548FDF7B0FE03B05DF804FB00BFB9
:103510009C05001023B001001D3501002DE98048F5
:1035200005468DB0002800F090804A4C4A4EDFF8E6
:1035300030B1DFF8308104F1030A0DF11C094FF0BE
:10354000FF3221462846FDF753FD0028F7D04046BC
:10355000FCF7D6FE3F4B32681B7801322E2B3260CF
:103560001BD82E2B1ED8DFE803F0581D1D1D1D1D76
:103570001D1D1D471D1D1D1D1D1D1D1D1D1D401D2E
:103580001D1D1D1D1D1D1D1D1D1D1D1D33281D1D4A
:103590001D1D1D1D1D1D1D1D2100FC2B02D1012007
:1035A000FFF72EFF2D48FCF7ABFEC8E7204600F0E2
:1035B0005BF82A48FCF7A4FEC1E701F029FC0121D1
:1035C000FFF778FFFFF7C6FA2448FCF799FEB6E745
:1035D0000122514603A803F083FE9DF80C301F48DA
:1035E0008BF80030FCF78CFEA9E7204600F098F835
:1035F0001A48FCF785FEA2E7484600F0F7FA99E87A
:103600000F004FF0010C0B9FCDF804C00097FFF79F
:103610002DFE1248FCF774FE91E71022514603A8D4
:1036200003F05EFE9DF81A3063B903A800F048FD70
:103630009DF81A30002BB5D000F070FD0748FCF75C
:103640005FFE7CE700F042FDEFE7FEF7EBF9FDF7E8
:10365000F7FE6AE7A6F307202C0600104CB0010025
:103660002A06001034B0010030B587B0C11C182202
:10367000684603F035FE9DF80030042B42D8DFE8A1
:1036800003F0034346494C0000F074FB9DF81530ED
:10369000044680F83430019B8360029BC360039B27
:1036A0000361BDF9120003F0BBFB9DF81050A0614F
:1036B000284603F0B1FB2062684203F0B1FB9DF89D
:1036C00014306062237700F059FB9DF815300446F2
:1036D00080F83430019B8360029BC360039B0361CD
:1036E000BDF9120003F09CFBA0619DF81050284624
:1036F00003F092FB2062684203F092FB60629DF847
:103700001430237707B030BD00F02CFBDDE700F06C
:103710002DFBDAE700F0CCFCD7E700F0CDFCD4E7D6
:10372000F0B595B0C11C4C2201A803F0D9FD0025CD
:103730000A27164E01AC9DF80430AB4201DC15B0EF
:10374000F0BD21797269B1FBF7F07369C2F3002211
:10375000C3F3001382F0010283F0010343EA420342
:10376000013398420AD107FB1010C0B20528E18846
:10377000BDF8063005D81A4601F0C2F90135063405
:10378000D9E7228900F0EAFFF8E700BF20C009204E
:10379000014B1878704700BF2A06001010B5044688
:1037A000084603F03DFB206010BD10B504460846F6
:1037B00003F036FB606010BD016201F1004141621F
:1037C00070472DE9F74F476804463946006803F013
:1037D00071FA6169064603F06FFAA56960612946CE
:1037E000D4F8289003F02CFD00B1656105F1004587
:1037F0002946606903F006FD00B16561002130468D
:1038000003F01EFD0025D4F81480294600284BD073
:10381000404603F0F7FC00B16561237FA26894F88D
:1038200034102569D4F838B0D4F80C80D4F814A03A
:1038300001930092002941D03946484603F03AFAF4
:10384000294603F041FB009A05463146104603F035
:103850003BFB0146284603F02FFA019B054618461C
:1038600003F0DEFA594603F02FFB0146284603F029
:1038700023FA05465146404603F026FB294603F04D
:103880001BFA0546266A2946304603F0BBFC30B9D0
:10389000666A2946304603F0D3FC00B92E46A6637B
:1038A000A76203B0BDE8F08F304603F0ABFC002800
:1038B000B3D02946404603F0C3FCACE70025E1E75E
:1038C00038B5056A04462946806B03F0B9FC00B19F
:1038D000A563656AA06B294603F094FC00B1A5635B
:1038E00038BD2DE9F047476804463946006803F0C3
:1038F000E1F96169064603F0DFF994F834300546D2
:103900006061D4F82890A068D4F810A0D4F80C8096
:10391000EBB1314603F0D8FA06464946384603F083
:10392000C9F9514603F0D0FA314603F0C5F906460D
:103930004146284603F0C8FA314603F0BDF9A063BA
:103940002046FFF7BDFF6368A362BDE8F087002053
:10395000F5E7FFFF90B58FB000AFF860B9607A600F
:10396000BB685B68874A1360BB681B68864A136044
:10397000844B1A68844B1B681344DA0F13445B10A2
:103980001A46824B1A60FB681A697E4B19687E4B97
:103990001B68CB1A13447E4A13607C4B1A687D4B1C
:1039A0001B68D31A3B637A4B1A687B4B1B68D31A8C
:1039B000FB62774B1A68784B1B681344DA0F134489
:1039C0005B10BB62F86A03F02BFA02467B681B6847
:1039D0001946104603F02CFB03467B62B86A03F0DD
:1039E0001FFA02467B681B681946104603F020FB4D
:1039F00003463B62FB6A002B03D14FF07E537B638F
:103A000015E04FF08041786A03F012FB0346184638
:103A100005F064FD04464FF08041786A03F008FB2E
:103A200003461946204603F003FB03467B63386BCD
:103A300003F0F6F90346796B184603F045FA03469E
:103A40001C46386A05F00AFD03461946204603F075
:103A50003BFA0346FB61386B03F0E2F90346796BEE
:103A6000184603F031FA03461C46386A05F036FD65
:103A700003461946204603F027FA0346BB614FF080
:103A80000001B86903F020FA03467B614FF00001A2
:103A9000F86903F019FA03463B617969F86903F0A4
:103AA0000BF90346FB613969B86903F005F9034670
:103AB000BB61FB681C687B685B681946F86903F0AA
:103AC000B7FA03461946204603F0F6F803461A46AD
:103AD000FB681A60FB685C687B685B681946B869BC
:103AE00003F0A6FA03461946204603F0E5F803461C
:103AF0001A46FB685A60FB683A6A9A6009E0FB68FC
:103B00009B682649184603F0D5F803461A46FB6819
:103B10009A60FB689B682249184603F091FB0346B4
:103B2000002BECD109E0FB689B681C49184603F0A8
:103B3000C3F803461A46FB689A60FB689B681949FC
:103B4000184603F05FFB0346002BECD1FB689B6833
:103B50001549184603F0B8F903461149184603F011
:103B600067FA03461A46FB68DA60094B1B680A4A83
:103B70001360064B1B68074A136000BF3C37BD4605
:103B800090BD00BF3006001034060010380600104B
:103B90003C0600104006001044060010DB0FC94030
:103BA000DB0F4940DB0F49C00000344338B50FC874
:103BB0000A4C0B4D84E80F004FF07C51A06803F0D5
:103BC00083F94FF07E51044603F076F82146686190
:103BD0004FF07E5003F06EF8286138BD600600108B
:103BE00048060010004870476006001070B5044693
:103BF0000646034D0FCD0FC42B683046236070BDC1
:103C00007006001070B50C4E044635460FCC0FC53B
:103C10000A4BB068196803F057F9094B0446586815
:103C20001B68C01A03F0FCF80146204603F042F876
:103C300003F010FB306170BD7006001060060010CC
:103C400048060010024B587B003818BF012070470F
:103C500060060010004870474806001007B51022A3
:103C600000210C4803F04AFB142200210A4803F00B
:103C700045FB18220021094803F040FB00230422E1
:103C80000749CDE9002307487822FDF7EDFA03B094
:103C90005DF804FB60060010700600104806001076
:103CA0005FB00100A93C01001FB5FDF765FC134D95
:103CB000134C144E0190AB7B032B19D002A8FEF7D6
:103CC000F3FA029803F0ACF8616903F0FDF803F031
:103CD000C1FA6060039803F0A3F8216903F0F4F8D7
:103CE00003F0B8FA2A46206005493046FFF732FE55
:103CF000642101A8FDF738FDDDE700BF6006001074
:103D0000480600107006001007B53C2200210F483D
:103D100003F0F4FA3C2200210D4803F0EFFA3C22B4
:103D200000210C4803F0EAFA3C2200210A4803F083
:103D3000E5FA002303220949CDE900230848782247
:103D4000FDF792FA03B05DF804FB00BF8406001093
:103D5000C0060010FC060010380700106FB001000C
:103D6000B53D0100004870478406001000487047C8
:103D7000C006001000487047FC060010004870475D
:103D80003807001001460148FFF708BD84060010FF
:103D900001460148FFF702BDC00600100146014878
:103DA000FFF7FCBCFC06001001460148FFF7F6BC1B
:103DB0003807001007B50446FDF7DEFB0190FFF75A
:103DC00011FF837B3BB1013B012B0CD9322101A8B0
:103DD000FDF7CAFCF3E7204600F090F8322101A875
:103DE000FDF7C2FCEBE7204600F006F8322101A8FF
:103DF000FDF7BAFCE3E7FFFF73B56846FEF754FA38
:103E0000DDE900243648374E03683168E51A04605E
:103E1000354C3260511A2046344EFFF7C6FC20461E
:103E2000FFF7CFFC29463046FFF7BFFC3046FFF7CF
:103E3000C8FCFFF707FF002844D1A56B2C49284692
:103E4000B46B03F0FDF9002838D12846294903F066
:103E5000D9F900B1274D2046254903F0F1F978BB87
:103E60002046244903F0CEF900B1224C204605F04B
:103E700031FB03F015FA002102461F48FEF7B2F8A5
:103E8000284605F027FB03F00BFA012102461A48E9
:103E9000FEF7A8F80021284603F0C8F90021051E06
:103EA000204618BF012503F0C1F9B0FA80F0294679
:103EB000400902B0BDE87040FEF7CAB80C4DCAE731
:103EC0000B4CD3E7B06B03F0C5F90546A06B03F0CC
:103ED000C1F9294602B0BDE87040FEF7EFB900BF56
:103EE0007C07001074070010FC0600103807001053
:103EF0000000C8420000C8C200000940F7B568468B
:103F0000FEF7D2F9DDE90002444B45491E680F680F
:103F1000961BC71B434D0860B91941F34F01284652
:103F2000414C1A60FFF741FC2846FFF7DAFC2046B7
:103F3000B91BFFF73AFC2046FFF7D3FCFFF782FEE0
:103F400000284ED1AE6BA46B3046214602F0B4FE81
:103F500021460546304602F0ADFE34490446284667
:103F600003F06EF9002838D12846314903F04AF9A8
:103F700000B12F4D20462D4903F062F978BB204651
:103F80002B4903F03FF900B1294C204605F0A2FA75
:103F900003F086F9002102462648FEF723F828465A
:103FA00005F098FA03F07CF9012102462148FEF75A
:103FB00019F80021284603F039F90021B0FA80F5FC
:103FC000204603F033F96D090038294618BF012057
:103FD00003B0BDE8F040FEF73BB8144DCAE7134C00
:103FE000D3E7A66BAD6B3146284602F063FE4FF077
:103FF0007C5102F069FF03F02DF904463146284652
:1040000002F05AFE4FF07C5102F05EFF03F022F9FD
:10401000214603B0BDE8F040FEF750B9800700101C
:104020007807001084060010C00600100000C84287
:104030000000C8C20000094007B53C220021124818
:1040400003F05CF93C220021104803F057F90123EA
:104050000F4A002113760F4A0F4813760E2203F001
:104060004DF910230E220D490D4801F08DF80D4B2E
:104070006422019303230C4900930C480023FDF7AD
:10408000F3F803B05DF804FBCC070010080800103B
:1040900094070010B00700108407001044080010B7
:1040A00024090010380900107EB001008D45010080
:1040B00000487047CC0700100048704708080010FF
:1040C0000146014801F068B82409001008B503480A
:1040D00001F01BF90022024B1A7208BD24090010DE
:1040E0008407001010B50C46FFF74CFE2046BDE8D3
:1040F0001040FFF74DBEFFFF024B19605A609860F9
:10410000704700BF94070010024B19605A60986016
:10411000704700BFB007001001F09CB80149024889
:1041200001F098B884070010240900102DE9F0412F
:10413000037E04460E461546002B3DD001684069BB
:1041400002F0BAFD8046002D34D16168084602F0C5
:10415000B3FD71680546E06802F0ACFD05F0BAF900
:104160000146284602F0B0FE05F0F8F90546A768BA
:104170004046394603F046F800B1474639462846DE
:1041800003F05EF800B13D46E068656103F062F857
:1041900001463046FFF702FB2169606902F094FE98
:1041A00001463046FFF708FB2169606902F08CFE8A
:1041B000BDE8F081A568DAE70020F9E770B5FFF700
:1041C00049FD0446D0E90031194D194428464910EB
:1041D000FFF7EBFAD4E90031164CC91A2046FFF775
:1041E000E4FA4FF07E53144E1448294600223361FE
:1041F0000361FFF79BFF002221463046FFF796FF41
:104200002846FFF7DEFA2046FFF7DBFAA16BA86B22
:1042100002F052FD03F01EF8FFF7C0FDA16BA86B82
:1042200002F048FD03F016F8BDE87040FFF7BCBD92
:10423000CC07001008080010B00700109407001009
:1042400070B50E46014610461D4602F033FD31465C
:104250000446284602F02EFD21460546204602F07F
:1042600033FE29460446284602F02EFE014620462B
:1042700002F022FDBDE8704005F070B9F8B50F46B8
:10428000014610461E4602F015FD02F067FC04468A
:104290000D463046394602F00DFD02F05FFC224625
:1042A0002B4605F059F902F0B1FC0C49044602F026
:1042B000C7FF30B120460A4902F0FCFC0446204604
:1042C000F8BD2046074902F09DFF0028F7D02046A0
:1042D000034902F0F1FC0446F1E700BFDB0F49405F
:1042E000DB0FC940DB0F49C02DE9F74F0546B0F998
:1042F00002000E469046009302F092FD0446B5F986
:10430000000002F08DFD2346024671683068FFF719
:1043100097FF0446B5F9020002F082FD0746B5F9A1
:10432000000002F07DFD3B46024671683068FFF7F1
:10433000A5FFB16802F0BEFC8949814602F080FF0A
:1043400000286FD04846874902F0B4FC81462A7A9B
:10435000854F864EDFF828A2DFF828B2002A6DD0FC
:10436000022A23D14846824902F06AFF20B9484612
:10437000804902F047FF08B104F1004448467849FB
:1043800002F09AFC7649814602F05AFF20B1484675
:10439000744902F08FFC81464846774902F032FFAB
:1043A00020B148466F4902F087FC8146204605F05F
:1043B00091F80190B8F8000002F02EFD6F4902F06C
:1043C00037FE019A0146104602F01CFF002851D02A
:1043D000002301243361FB60F36000216848FFF78C
:1043E000E4F900216748FFF7E0F96A7A64495E481A
:1043F000FFF79CFE6A7A63495C48FFF797FE6048C6
:10440000FFF7DFF95F48FFF7DCF9DBF8380002F06F
:1044100021FF0546DAF8380002F01CFF2946FFF7B5
:1044200061FE23E04846544902F0ECFE00288ED09D
:1044300048464C4902F040FC814688E7002350463C
:104440000092FB60F360FFF7BCF95846FFF7B9F93B
:10445000DBF8380002F0FEFE0446DAF8380002F01D
:10446000F9FE2146FFF73EFE009A1446204603B0AF
:10447000BDE8F08F204605F02DF80190B8F8000057
:1044800002F0CAFC404902F01FFD3C4902F0D0FD99
:10449000019A0146104602F0B5FEB0B12A7A012A0F
:1044A00004D0022A02D04FF000090EE048463049FD
:1044B00002F0C6FE28B948462E4902F0A3FE0028A5
:1044C000F1D04FF0000904F10044009B21465868E8
:1044D00002F0FAFC009B4946F860186802F0F4FC10
:1044E000F06098F8030002F097FC244902F0A0FD68
:1044F0008046484604F0EEFF414602F08DFE044639
:1045000038B3484604F0E6FF0146404602F0D2FBCD
:10451000414602F08DFD414604463861484602F0AE
:1045200087FD002180463061204602F06BFE10B10D
:1045300004F100443C610021404602F063FE044661
:1045400000283FF44AAF08F100480024C6F8108064
:1045500043E700233B614FF07E5333613DE700BFEB
:10456000DB0F4940DB0FC94094070010B007001073
:10457000DB0FC93FDB0FC9BFDB0F49C00000C842DA
:10458000CC07001008080010000040402DE9F0435F
:1045900032208DB0FDF70EF9FCF7EEFF0026002764
:1045A000DFF8BC800690642106A8FDF7DDF8FFF770
:1045B00019FB837B23B1022BF5D1FFF7FFFDF2E757
:1045C0006C46684607ADFFF711FB0FCC0FC523689B
:1045D0002B6098F80830013B012B09D8FFF702FB4C
:1045E0001A4A034607A9A2F10A00FFF77DFE064614
:1045F0001EB998F80830002BD5D1154DDFF864901E
:10460000144C154829460022C760C9F80C70076190
:10461000C9F81070FFF78AFD002221464846FFF7CF
:1046200085FD2846FFF7CDF82046FFF7CAF8A06BB6
:1046300002F010FE0446A86B02F00CFE2146FFF7C4
:1046400051FD41460548FFF767FDACE78E070010B6
:10465000CC0700100808001094070010240900106F
:1046600084070010B00700107047FFFF73B50022E9
:1046700048210220FCF7ECFB0E4C0F4D2146002692
:104680002860FCF72DFD012304F11501CDE900366A
:1046900064222B680948FCF7E7FD0223642200939B
:1046A00001962B6804F11F010548FCF7DDFD02B0FF
:1046B00070BD00BF93B001008409001019470100CC
:1046C000C546010080B505463220FDF773F80F4C52
:1046D0000F4E104F4FF0FF3228460C49FCF788FC74
:1046E0000028F7D06378022B0AD1E37838681BB929
:1046F0002021FCF7BCF8EDE74021FCF7B8F8E9E72A
:1047000048222146304602F0EBFDE3E7ECF30720B8
:104710003C09001088050010044683B53220FDF7DF
:1047200049F81CB9FDF77EF9FCF78AFE4FF0FF3619
:10473000084D094F00230122102128680096FCF73C
:104740002DF8384600F0DDFD0028F3D02046FDF7B7
:10475000A7FEF6E7880500105004001005382DE983
:10476000F041C4B2204690461E460F4600F098F82D
:10477000381A02F055FB0D4902F0A6FB05463046FB
:1047800002F04EFB0146284602F052FC084902F0B6
:104790004FFC084902F04CFC02F082FD43463946CA
:1047A00082B22046BDE8F04100F02AB8E17A943E9A
:1047B00000007A44FA7E2A3FF7B506460F460F4DB1
:1047C00060212868FCF746F83046FDF7F7FE97B9F8
:1047D00003B0F0BD3046013CFDF7F0FE14F0FF04DD
:1047E000F6D000230122202128680097FBF7D6FF8E
:1047F0000028EFD0ECE704246427F2E788050010D6
:1048000090B59BB000AF0446084611461A462346B1
:10481000FB710346BB800B467B8013463B80BB8805
:104820001B0A9BB27B66BB88DBB23B667B881B0A9C
:104830009BB2FB657B88DBB2BB653B881B0A9BB2E6
:104840007B653B88DBB23B65FB793B7209237B725E
:104850000323BB721E23FB723B6EDBB23B737B6E8A
:10486000DBB27B73BB6DDBB2BB73FB6DDBB2FB7387
:104870003B6DDBB23B747B6DDBB27B744822002165
:10488000064802F03BFD07F1080301211846FFF737
:1048900093FF00BF6C37BD4690BD00BF3C090010C0
:1048A00080B596B000AF0346FB710023A7F85630E1
:1048B000FB793B7304237B730223BB732423FB73B9
:1048C00002233B74482200210F4802F017FD07F134
:1048D0000C0301211846FFF76FFF0B4B1B79A7F85C
:1048E0005630B7F856301B02A7F85630064BDB7827
:1048F0009AB2B7F856301344A7F85630B7F8563086
:1049000018465837BD4680BD3C09001080B485B0BC
:1049100000AF03460A46FB711346BB71BB79FB60CF
:10492000FB681B02FB60FB79FA681344FB60FB68C1
:1049300018461437BD4680BC7047FFFF80B596B05F
:1049400000AF03463960FB71002387F85730FB79CD
:104950003B7304237B730223BB732423FB73082361
:104960003B7448220021484802F0C8FC07F10C03C0
:1049700001211846FFF720FF434B5B78002B01D144
:1049800000237DE097F857303F4A1344DA7897F8D0
:10499000573001333C490B44DB7819461046FFF78A
:1049A000B5FF03469AB23B685A8097F857300233F6
:1049B000354A1344DA7897F85730033332490B44B9
:1049C000DB7819461046FFF7A1FF03461AB23B6891
:1049D0009A803B68B3F90430B3F5806F12DB3B6813
:1049E000B3F904309BB2A3F2FF339BB21AB23B6817
:1049F0009A803B68B3F904309BB25B429BB21AB217
:104A00003B689A8097F8573004331F4A1344DA788A
:104A100097F8573005331C490B44DB78194610468C
:104A2000FFF774FF03461AB23B68DA803B68B3F9BC
:104A30000630B3F5806F12DB3B68B3F906309BB2EA
:104A4000A3F2FF339BB21AB23B68DA803B68B3F93A
:104A500006309BB25B429BB21AB23B68DA8097F891
:104A600057300633084A1344DA783B685A7497F88B
:104A700057300733044A1344DA783B681A74012329
:104A800018465837BD4680BD3C09001007B548227E
:104A90000021074802F032FC002301220549CDE93C
:104AA000002305484622FCF7DFFB03B05DF804FB5A
:104AB00088090010BEB00100814B010070B50446AA
:104AC000058829B94580284602F0A6F9606070BDC6
:104AD0001420B1FBF0F002F0A3F906466088281A12
:104AE00002F09EF90021054602F08CFB08B105F1A9
:104AF00000453146284602F09BFAA060E7E7FFFF39
:104B00000C23584310B4034C21522044114610BCCE
:104B1000FFF7D4BF880900102DE9F0410446B0F832
:104B20000080404602F07CF9656807462946A66881
:104B300002F086FBB0B12946384602F0BBF8314698
:104B400002F060FB18B1404602F066F903E031461E
:104B5000284602F0B1F86060606802F0A1FB608056
:104B6000BDE8F0813946284602F0A4F8314602F04B
:104B700049FB0028E7D13146284602F09BF8EAE7D6
:104B800073B54FF4FA60FCF715FEFCF7F5FC154D14
:104B9000154C019005F10C061248FFF7BDFF304699
:104BA000FFF7BAFF1148FFF7B7FF1148FFF7B4FF4F
:104BB0001048FFF7B1FF1048FFF7AEFFEB8FC82199
:104BC000E3616B8E01A82362EB8C63626B8B2364C1
:104BD000EB8963646B88A3647F232365FCF7C4FDC2
:104BE000DAE700BF8809001000800140A00900102A
:104BF000AC090010B8090010C409001010B5044633
:104C00004822024902F06CFB204610BD88090010C2
:104C100007B530220021074802F070FB0023022272
:104C20000549CDE9002305489622FCF71DFB03B09A
:104C30005DF804FB34F40720C8B00100414C0100CA
:104C40002DE9F0430A209FB0FCF7B4FDFCF794FC7B
:104C5000654E664D664F1890642118A8FCF784FDD8
:104C6000FEF796FD634CDFF89C812070D8F8142085
:104C7000D8F81430C2F30022C3F3001382F001020B
:104C800083F0010343EA420301336370FDF7FAF94D
:104C90008146FEF7D7FFD8F81430D8F814205B0E01
:104CA000520E02F0080203F00403134343EA09031F
:104CB000514A43EA4003A370D8F81430D8F814E0FE
:104CC000D2F814C050694FEADE7E516FC3F380738F
:104CD00060324FEA1C7C526943EA4E030CF0040C2C
:104CE000800E43EA0C0300F00800490D01F01001AA
:104CF0000343520DDFF810810B4302F020021343EF
:104D000012A8E370FEF772FFC6460DF1480CBCE82E
:104D10000F00AEE80F00DCF800303146CEF800306E
:104D2000D8F8000002F0D0F802F094FA3146A080E2
:104D3000D8F8040002F0C8F802F08CFA2946E080A6
:104D4000D8F80C0002F0C0F802F084FA208168461E
:104D5000FFF754FF48226946284802F0C1FA0023B1
:104D6000264A04F10A0150880133062B21F8020B70
:104D700002F10C02F7D14FF00008DFF8789019A982
:104D80005FFA88F0FFF7DAFD38B1BDF86630A9F8B0
:104D90001630BDF86A30A9F81E3008F10108B8F1E4
:104DA000040F09F10209EAD14FF00008DFF85C9026
:104DB0005FFA88F0FDF7F6FD08F10108B8F1040F7D
:104DC00029F8020BF4D10620FDF7ECFD02F024F8DF
:104DD000394602F079F80A4B2946186002F074F857
:104DE00002F05EFAE08537E7000020410000C8428B
:104DF0009F8EC73B34F4072000C00920E40900104F
:104E00002C0A001020C00920D00900105AF40720F5
:104E10000048704734F40720036823F0E06343EA56
:104E2000016101607047FFFF38B504460C200D4654
:104E300000F0AEF84FF4706363630023094AE36047
:104E40000C20AB802A6000F030F9074B03EB4003E5
:104E50000648B3FBF0F3013BDBB21B0243F4001343
:104E6000236038BD400D0300405DC60080BA8C0150
:104E7000043150F82130002BBDBFC3F30B130120C8
:104E8000138000207047012A09D01AB1022A0AD0E3
:104E900000207047006BC84000F0010070470831E7
:104EA000006BC9B2F7E7036B1B0C14BF0120002095
:104EB0007047012904D9036822B143F000630360FD
:104EC000FFF7AABF23F00063F9E701239A4203FA30
:104ED00001F103681DBF23F0E06303600368194319
:104EE00018BF23EA010101607047036823F0E06303
:104EF0000360036819B923F480330360704743F4F7
:104F00008033FAE708B500F0C7F8014B186008BD18
:104F1000400A0010400100F1804303F57C23D3F8E0
:104F2000802018461143C3F88010AA23C0F88C30A3
:104F30005523C0F88C307047400100F1804303F5E1
:104F40007C23D3F88020184622EA0101C3F88010A0
:104F5000AA23C0F88C305523C0F88C30704798B91C
:104F600041EA02410122400100F1804303F57C2324
:104F7000C3F884101846C3F88020AA23C0F88C30E8
:104F80005523C0F88C30704741EA4211EAE7FFFF31
:104F90000123044A03FA00F0D2F8C4100843C2F80F
:104FA000C400704700C00F40024BD3F88800C0F324
:104FB0004060704700C00F40014BC3F804017047C8
:104FC00000C00F40024BD3F80401C0B2013070475B
:104FD00000C00F40420053090B496A3351F8233097
:104FE00002F01F02D34013F003030AD0012B06D0B6
:104FF000022B04D00D38022894BF0623082318463C
:1050000070470423FBE700BF00C00F40094BD3F8F3
:105010000C3103F00303012B04D043B1022B04D065
:1050200000207047044B18687047044BFBE70448A6
:10503000704700BF00C00F401800001078B2010098
:1050400000093D0008B50B4BD3F8880010F08070C4
:105050000FD0D3F88420D3F88410FFF7D7FFC2F322
:105060000E0202FB0000C1F3074140000131B0FB1A
:10507000F1F008BD00C00F4008B5FFF795FF28B15B
:10508000012807D1BDE80840FFF7DCBFBDE80840B4
:10509000FFF7BCBF002008BD08B5FFF7EDFF0246D3
:1050A000FFF790FFB2FBF0F008BD38B50546FFF7FB
:1050B000F3FF04462846FFF78DFFB4FBF0F038BD40
:1050C0002A4BDA6822F0300242F02002DA60DA6C11
:1050D00022F0300242F08002DA64DA6822F4407290
:1050E00042F40072DA60DA6C22F4407242F4006238
:1050F000DA64DA6822F4406242F40062DA60DA6C60
:1051000022F4406242F40052DA64DA6822F4404247
:1051100042F40042DA60DA6C22F4404242F4003297
:10512000DA64DA6822F4403242F40032DA60DA6C8F
:1051300022F4403242F40022DA64DA6822F44012A7
:1051400042F40012DA60DA6C22F4401242F40002F7
:10515000DA640222A3F5A0335A601422DA60012235
:105160005A617F2298611A65704700BF00C00240F3
:10517000012805D14FF4FC42024BDA6409225A603F
:10518000704700BF00800140C0E900130023826027
:10519000C0E903330120704710B50446C2680069B6
:1051A0006368121A9A420DDAE268013B13402068E4
:1051B000A26802FB030002F093F80120E3680133C8
:1051C000E36010BD0020FCE72DE9F041C3680E4606
:1051D000016944685B1AA342054639DAC36801696C
:1051E000C06804F1FF3C5B1A0CEA000CE31A03EB05
:1051F0000C01A14234BF1C46A4EB0C049442A3EB67
:105200000403A8BF1446101B9842A8BF1846804646
:105210002F68A868314604FB00F20CFB007002F016
:105220005FF8EB682868E218D5E90137013B1340C5
:10523000EA6007FB030008FB07F204FB076102F0CA
:105240004FF8EB6804EB08004344EB60BDE8F081E5
:105250000020FBE710B50446E268236908469A423D
:105260000ED0D4E900132269013B1340A26802FB6F
:10527000031102F035F8012023690133236110BDC9
:105280000020FCE72DE9F0418846C1680369064625
:10529000994234D04468C36831690569601E5B1B5C
:1052A0000140C818A04234BF1C46641A9442A3EBC4
:1052B0000403A8BF1446101B9842A8BF1846054611
:1052C000B368376804FB03F201FB0371404602F048
:1052D00007F83369E118D6E90130013B0B40316131
:1052E000316805FB00F200FB031104FB008001F0B4
:1052F000F7FF336960192B443361BDE8F08100206A
:10530000FBE7C2680069101A70470023C0E9033345
:105310007047FFFF38B5174CD4F88820910103D5AA
:1053200002210020FFF708FED4F88830DA0103D507
:1053300001210020FFF700FE00250E4C0020FFF7A2
:105340003BFE2A462C212846C4F80C51FFF707FEE5
:1053500028460121FFF7DEFD0220FFF72DFED4F8DD
:1053600088305B01FBD5BDE8384002210020FFF703
:10537000D1BD00BF00C00F40314B2DE9F041994233
:105380000BD100222F4B00E001321101CC58844296
:1053900011D0002CF8D1BDE8F0812B4B994210D1EF
:1053A00000222A4B00E001321101CC58844202D085
:1053B000002CF8D1EFE70028EDD00B44DF68D3E9EB
:1053C0000156234CD4F88820930103D502210020F4
:1053D000FFF7B2FDD4F88830D80103D501210020B1
:1053E000FFF7AAFD1A4CD4F8A03159065EBFD4F8D5
:1053F000A03143F02003C4F8A031D4F8A0315A06FC
:10540000FBD54FF001080020FFF7D6FD32462946B4
:105410000020C4F80C81FFF7A2FD41460020FFF7F1
:1054200079FD3846FFF7C8FD094AD2F888305B019C
:10543000FBD5BDE8F04102210020FFF76BBD00BFA6
:10544000001BB700D8B001000024F400C8B101006F
:1054500000C00F40FFF75EBF094B98420BD003F529
:105460000823984209D003F5804398420CBF1720C7
:105470000120FFF78DBD0220FBE71620F9E700BFF2
:1054800000800040002243684260012282600222C4
:1054900042608268002AFCD143607047F0B5012564
:1054A00003279C1C6400C66B9D40A74099403D4368
:1054B00002FA04F326EA05050B432B43C563C363D5
:1054C000F0BDFFFF134B10B5984204461ED003F504
:1054D000082398421CD0104884420CBF1920032096
:1054E000FFF756FD0723A36000230A4A2363944273
:1054F0006360E3602362E3646365236504BF236143
:10550000A3690323E3601023A36210BD0420E7E72F
:105510001820E5E70000014000C009408023036334
:105520007047FFFF38B5134B044698420D461DD017
:1055300003F5082398421BD00F4884420CBF192062
:105540000320FFF7B2FD2901B0FBF1F1E368CAB215
:1055500043F08003E360C1F3072322606360E368E4
:10556000B0FBF1F023F08003E36038BD0420E8E7EE
:105570001820E6E70000014000C0094037B50446A6
:105580000D466369DB0701D403B030BD23680DF11C
:10559000070128468DF80730FFF7FEFDF1E737B524
:1055A00004460D4663699B0605D50DF107012846A3
:1055B000FFF750FE08B903B030BD9DF807302360F7
:1055C000F0E7FFFF436870B50E469907044615469D
:1055D0000AD51146FFF7E3FFEA682B699A4202BF3A
:1055E000636823F00203636031462046FFF7C6FF7D
:1055F000A368DA050CD5236A43F4807323626368D9
:1056000023F480736360084B1A780AB901221A7078
:10561000A3689B0507D5236A43F40073236263687C
:1056200023F40073636070BD300A0010014B1860F2
:10563000704700BF1800001008B50F20FFF7A8FC46
:10564000BDE808400F20FFF7A3BC034600F00F00A1
:1056500040001B0648BF01307047436810229A6023
:1056600019611A68D206FCD5704738B5044615464C
:10567000FFF7F3FF20462946BDE83840FFF7EDBFAE
:1056800038B5044608461546FFF7DFFF010441F42C
:10569000A0612046FFF7E1FF20462946BDE83840DB
:1056A000FFF7DBBF436830229A6019611A689206DF
:1056B000FCD5586970474FF40C707047044A0029B4
:1056C000D0F8C801034908BF4FF48072FFF7CDBF7F
:1056D000000101000005FE00D0F8C83100225B681F
:1056E0009A64D0F8A021D179D96401219964D27942
:1056F000DA641A68D205FCD54FF0FF329A635A6318
:105700009A600C225A6070470346B3F89E31D0F875
:10571000C8019B0703D50249024AFFF7A6BF70479D
:105720000005FE00000101007047FFFF70B509048D
:10573000D0F8C861084D41F4000444F48074304648
:1057400029462246FFF791FF304629462246BDE80A
:105750007040FFF78ABF00BF0005D00093682DE9B5
:10576000F041B3F50C7F8046144633D3566806F1FA
:1057700010026260A3F11002A2606568AA0702D05D
:1057800001356560F9E705F50772A3F50B736260F3
:10579000A360636813F0030702D001336360F8E786
:1057A0002846224600F0E2FF39461022304601F03A
:1057B000A5FD2368B5602846C5F8C8617360FFF78A
:1057C0008BFF28463946FFF7B1FFC8F8005038462E
:1057D000BDE8F0810148BDE8F08100BF0A00040087
:1057E00010B50A4AD0F8C841002908BF4FF48072AA
:1057F00020460749FFF739FF636803225A641A6895
:10580000D205FCD54FF480729A6010BD00010100F2
:105810000005D80038B5054688780C46FFF715FF17
:10582000012102469140D5F8C8315B68586C0143AC
:1058300059649A64A288DA641A68D205FCD54FF4D8
:1058400080729A6038BD704710B504460846FFF76D
:10585000FCFE010441F48001D4F8C80141F4A061C8
:105860004FF48072BDE81040FFF7FFBE10B504464C
:105870000846FFF7EAFE010441F48001D4F8C801AC
:1058800041F4A061024ABDE81040FFF7EEBE00BF40
:105890000001200010B504460846FFF7D6FE0104BB
:1058A00041F48001D4F8C80141F4A0614FF4807242
:1058B000BDE81040FFF7D9BE10B504460846FFF713
:1058C000C4FE010441F48001D4F8C80141F4A06190
:1058D000024ABDE81040FFF7C8BE00BF000101004A
:1058E00010B504460846FFF7B0FE010441F48001FC
:1058F000D4F8C80141F4A0614FF48072BDE81040B3
:10590000FFF7B3BE043A38B51D46D0F8C8410D2A9A
:1059100048D8DFE802F00E0E47474747474747475A
:1059200044074A0A0122002041E04FF4007200209F
:105930003DE00846FFF789FE012303FA00F02368E3
:1059400015B11843206002E023EA000020602268BD
:1059500023682168DB071B4B02F0020201EA030304
:1059600048BF42F004020BB142F020022168164BFE
:105970000B400BB142F0400223681449194009B1B1
:1059800042F0080223681249194009B142F010029E
:10599000120420460F4942F48072FFF766FE00228F
:1059A000104604E000220C4801E008220020616853
:1059B0004B6815B11A434A6038BD23EA02024A60B7
:1059C00038BD00BF200882A0100441500882200882
:1059D000044110040005F30001000400D0F8C801E0
:1059E00001F00F032DE9F0419B00456843F00103EE
:1059F000AB622C6A2605FCD514F480681DD0C4F374
:105A000009085FEA980C25D016460023AF690133D8
:105A1000634546F8047BF9D102EB830204F00304EA
:105A20005CB1AE691444002326FA03F502F8015B69
:105A3000A24203F10803F7D1456841F248230B4124
:105A40000022DB07AA6202D4034AFFF719FE404690
:105A5000BDE8F0814446E3E70005F200704700200E
:105A6000704700207047FFF7B9BFFFFFD0F8C801AB
:105A70002DE9F04101F00F044668A400DF1C44F05A
:105A80000204BF08B4629846736206D0002452F83C
:105A9000045B0134BC42F561F9D10023B362034ACF
:105AA000FFF7EEFD4046BDE8F08100BF0005FA00BB
:105AB0002DE9F047D0F8C8918246D9F80420136840
:105AC00023F004019160516801EA030818F008040A
:105AD00061D118F0040F2BD0166B3EB32746054654
