:020000021000EC
:100000000080001045010100090101000B01010001
:100010000D0101000F0101001101010000000000AD
:10002000000000000000000000000000B10E010010
:100030001301010000000000110F0100550F010025
:100040001501010095240100A92401005924010093
:100050001501010015010100A1320100352D01003B
:100060001501010015010100150101001501010034
:100070001501010015010100150101001501010024
:1000800015010100150101008129010091290100DC
:10009000A1290100B128010015010100150101008D
:1000A00015010100150101001501010015010100F4
:1000B00015010100150101001501010015010100E4
:1000C00015010100150101001501010048B80100EA
:1000D00000000010EC01000048B8010000C007203B
:1000E0000000000048B8010000C807200000000020
:1000F000EC0100107816000000C00720000000008E
:1001000000C80720C83E0000FEE7FEE7FEE7FEE766
:10011000FEE7FEE7FEE70023934209D210B450F851
:10012000044B41F8044B04339342F8D310BC70479E
:10013000704700238B4204D2002240F8042B043382
:10014000F8E7704710B572B60E4B07E003F10C04E8
:100150009A6859681868FFF7DEFF23460A4A9342F7
:10016000F4D306E01C46596854F8080BFFF7E1FF8A
:100170002346064A9342F5D300F0CAFB00F0ACFBDD
:10018000FEE700BFCC000100F00001000801010003
:10019000FEE7FEE7FEE700BFFFFFFFFFFFFFFFFFF9
:1001A000FFFFFFFFFFFFFFFFFFFFFFFFFFFFFFFF5F
:1001B000FFFFFFFFFFFFFFFFFFFFFFFFFFFFFFFF4F
:1001C000FFFFFFFFFFFFFFFFFFFFFFFFFFFFFFFF3F
:1001D000FFFFFFFFFFFFFFFFFFFFFFFFFFFFFFFF2F
:1001E000FFFFFFFFFFFFFFFFFFFFFFFFFFFFFFFF1F
:1001F000FFFFFFFFFFFFFFFFFFFFFFFFFFFFFFFF0F
:10020000FFFFFFFFFFFFFFFFFFFFFFFFFFFFFFFFFE
:10021000FFFFFFFFFFFFFFFFFFFFFFFFFFFFFFFFEE
:10022000FFFFFFFFFFFFFFFFFFFFFFFFFFFFFFFFDE
:10023000FFFFFFFFFFFFFFFFFFFFFFFFFFFFFFFFCE
:10024000FFFFFFFFFFFFFFFFFFFFFFFFFFFFFFFFBE
:10025000FFFFFFFFFFFFFFFFFFFFFFFFFFFFFFFFAE
:10026000FFFFFFFFFFFFFFFFFFFFFFFFFFFFFFFF9E
:10027000FFFFFFFFFFFFFFFFFFFFFFFFFFFFFFFF8E
:10028000FFFFFFFFFFFFFFFFFFFFFFFFFFFFFFFF7E
:10029000FFFFFFFFFFFFFFFFFFFFFFFFFFFFFFFF6E
:1002A000FFFFFFFFFFFFFFFFFFFFFFFFFFFFFFFF5E
:1002B000FFFFFFFFFFFFFFFFFFFFFFFFFFFFFFFF4E
:1002C000FFFFFFFFFFFFFFFFFFFFFFFFFFFFFFFF3E
:1002D000FFFFFFFFFFFFFFFFFFFFFFFFFFFFFFFF2E
:1002E000FFFFFFFFFFFFFFFFFFFFFFFFFFFFFFFF1E
:1002F000FFFFFFFFFFFFFFFFFFFFFFFFFFFFFFFF0E
:100300007047FFFF024A936943F00103936170470E
:1003100040C00920024AD36943F00103D36170470A
:1003200040C00920024AD36943F08003D36170477B
:1003300040C0092008B5234B1A6922F003021A6154
:100340001A6D22F0030242F008021A651A6922F4BB
:1003500040421A611A6D22F4404242F400321A659A
:10036000194B1A6842F001021A601A6842F08002C2
:100370001A60FFF7CFFFFFF7D5FF02F00DFA02F08A
:100380002BF801F0F3FF01F0D1FF05F00DFC02F0B6
:10039000C7FD02F00DFB05F0F1F903F01FF802F0C4
:1003A00053FF03F0D1F903F05FFA03F04FFC04F0C0
:1003B00041FB04F099FB04F0BFFD05F0DDF905F009
:1003C000B5FC08BD00C0024040C0092008B54FF090
:1003D000402006F0E9F84FF0402302225A60002244
:1003E0005A6040F6FF12DA6001225A6008BDFFFF32
:1003F00080B598B002AF734BBB61734BFB61734B1D
:100400003B62012387F82430012387F8253007F168
:100410001803184604F0A8FA6D4B3B606D4B7B60E7
:100420004FF00003BB604FF000033B614FF000034F
:10043000FB603B46184604F0C7FA97F82430012BBE
:1004400040F0D88004F08AFBF86304F083FBB863C3
:10045000FB6B012283F83420FB6B4FF07E529A60D5
:10046000FB6B4FF00002DA60FB6B4FF000021A6189
:10047000FB6B4FF000029A61FB6B574A1A62FB6BF1
:10048000564A5A62FB6B01221A77BB6B012283F832
:100490003420BB6B4FF07E529A60BB6B4FF0000272
:1004A000DA60BB6B4FF000021A61BB6B4FF00002C9
:1004B0009A61BB6B484A1A62BB6B484A5A62BB6B73
:1004C00001221A7704F03EFB786304F03FFB3863A7
:1004D0007B6B012283F834207B6B4FF07E529A6055
:1004E0007B6B4FF00002DA607B6B4FF000021A6109
:1004F0007B6B4FF000029A617B6B394A1A627B6B0F
:10050000384A5A627B6B01221A773B6B012283F8CF
:1005100034203B6B4FF07E529A603B6B4FF00002F1
:10052000DA603B6B4FF000021A613B6B4FF0000248
:100530009A613B6B2A4A1A623B6B2A4A5A623B6BAE
:1005400001221A7704F036FDF86204F037FDB86234
:10055000FB6A012283F83420FB6A4FF07E529A60D6
:10056000FB6A4FF00002DA60FB6A1F4A1A61FB6AFD
:100570004FF000029A61FB6A1C4A1A62FB6A1C4A2D
:100580005A62FB6A00221A77BB6A012283F8342080
:10059000BB6A4FF07E529A60BB6A4FF00002DA608D
:1005A000BB6A114A1A61BB6A4FF000029A61BB6ACA
:1005B0000E4A1A62BB6A0E4A5A62BB6A00221A7756
:1005C000CCE000BF6666E841008CAB457CF230BBF6
:1005D00000007A4300007A440000F0410000F0C1BE
:1005E00000004842000048C20AD7233C00002041D6
:1005F000000020C104F0B2FA786504F0ABFA386567
:100600007B6D012283F834207B6D634A9A607B6D99
:100610004FF00002DA607B6D604A1A617B6D4FF02B
:1006200000029A617B6D5E4A1A627B6D5D4A5A6276
:100630007B6D01221A773B6D012283F834203B6DDC
:10064000554A9A603B6D4FF00002DA603B6D534AA9
:100650001A613B6D4FF000029A613B6D504A1A627D
:100660003B6D504A5A623B6D01221A7704F06AFAD8
:10067000F86404F06BFAB864FB6C012283F8342050
:10068000FB6C4FF07E529A60FB6C474ADA60FB6C61
:10069000464A1A61FB6C4FF000029A61FB6C404ABB
:1006A0001A62FB6C3F4A5A62FB6C01221A77BB6CE0
:1006B000012283F83420BB6C3D4A9A60BB6C3A4AF5
:1006C000DA60BB6C3B4A1A61BB6C4FF000029A6166
:1006D000BB6C334A1A62BB6C324A5A62BB6C012251
:1006E0001A7704F067FC786404F068FC38647B6C6B
:1006F000012283F834207B6C2B4A9A607B6C4FF08C
:100700000002DA607B6C4FF000021A617B6C4FF0E4
:1007100000029A617B6C284A1A627B6C274A5A62F3
:100720007B6C00221A773B6C012283F834203B6CEF
:10073000234A9A603B6C4FF00002DA603B6C214A1E
:100740001A613B6C4FF000029A613B6C1A4A1A62C4
:100750003B6C1A4A5A623B6C00221A7700230193C1
:100760000123009300234FF496721749174801F0B4
:1007700039F84FF07E524FF07E51094804F03EFCAC
:100780004FF080424FF08041054804F03FFC00BF2D
:100790005837BD4680BD00BF7B14AE3DCDCC0C3F6D
:1007A0000000F0410000F0C1CDCC4C3DCDCC4C3C24
:1007B0009A99193FCDCCCC3C00002041000020C1CB
:1007C0000AD7233C6666663F38AE0100D1070100B8
:1007D00000B587B04CF2503001F0FEF9FA23ADF8C5
:1007E00000304FF47A73ADF802304FF4FA72ADF87E
:1007F0000420ADF8063040F2EE22ADF80C204FF4A4
:100800009662ADF80E20ADF80830ADF80A2000234E
:100810008DF8103028238DF811304FF4FA63ADF8BD
:10082000123040F6B833ADF81430684603F05CFD82
:100830000121034803F092F9642001F0CDF9FBE7B0
:100840002006001010B5084C2146084805F03CFE73
:10085000204605F087FF05F0EBFB05F089FF044813
:1008600000F068FA10BD00BF0024F4000020A107CA
:100870000000001010B5174B1A6842F480421A604D
:100880001A6842F400421A601A6842F480321A6010
:10089000DA6942F48032DA61DA6942F40042DA61FC
:1008A000DA6942F48042DA6100240AE0094A936975
:1008B00043F48043936184F0010442F2107001F02C
:1008C0008BF9002CF2D1034AD36943F48043D361FE
:1008D000F1E700BF20C0092010B582B0FFF7B2FFDA
:1008E000FFF728FD002301930124009432220649DA
:1008F000064800F077FFFFF77BFD62B601F006F8CF
:10090000204602B010BD00BF44AE010075080100D2
:1009100008B5034A034B1A6005F044FE08BD00BF4A
:100920000000010008ED00E038B50A46454C464994
:10093000204607F0C3F85A2384F84830FE2384F891
:100940004930022384F89230062384F891302046FF
:1009500007F0D4F83B2832D93B233A4880F890304E
:1009600007F0CCF83B282FD93B22364C214604F126
:10097000930006F02DFC3E2384F84A30402204F117
:10098000900104F14B0006F023FC0A23A4F88C30FC
:1009900004F1480002F00EFF014604F1D0054D229B
:1009A000284606F015FC8022294604F5907006F0D2
:1009B0000FFC0321022002F052FB00230BE0204633
:1009C00007F09CF8C3B2C8E71E4807F097F8024644
:1009D000CBE700BF013340F6B7329342F9DD032184
:1009E000022002F031FB00220FE000BF01330F2B89
:1009F000FBDD164B5B6913F0260F05D100230F2B8F
:100A0000F7DC00BF0133FAE701324C2A07DC0D4B5B
:100A1000134493F820110D4B19600023E7E70023DE
:100A200001E000BF0133632BFBDD0321022002F054
:100A300016FB4FF0280383F31188BFF36F8FBFF3CA
:100A40004F8FFEE70000082054AE01000000014077
:100A50001AB9084206D11046704731EA000303D0A4
:100A600000207047012070470120704710B5182002
:100A700000F0D4F8044620B1002340F8043B00F015
:100A80009BF9204610BDFFFF2DE9F84306460D46B1
:100A900090461F46DDF8209000F070FF34683A461B
:100AA00029462046FFF7D4FF40B1B8F1000F19D016
:100AB00024EA050333604FF0000915E0B9F1000F97
:100AC00012D0B8F1000F0AD100210FB141F08061BE
:100AD0004A462943301D01F0FDF8002404E04FF0A0
:100AE0008071F2E74FF0000900F0D6FFB9F1000F76
:100AF00010D038B9124B4FF080521A60BFF34F8FAD
:100B0000BFF36F8F01F008FA044610F0007F04D0A5
:100B100024F07F442046BDE8F88300F0DBF9346818
:100B20003A4629462046FFF793FF28B1B8F1000F57
:100B300002D024EA0505356000F0DCF9E8E700BFE3
:100B400004ED00E070B505460C4600F0C3F92E68D0
:100B500026EA04042C6000F0CDF9304670BDF8B5EB
:100B600004460D4600F10C0600F008FF20692368DA
:100B70002B43236000270AE0216832EA010105D1F6
:100B800011E0216841F0007101F004F92846B042FB
:100B90000ED04568036823F07F4213F0806FEBD1DD
:100BA00021681142F2D013F0807FEAD01743E8E7C2
:100BB000236823EA0707276000F06EFF2068F8BD6E
:100BC00008B5FFF7CCFF08BD10B4124B1A461B68DE
:100BD0008342FBD351685418844209D041684418B9
:100BE000A3420AD00360904200D0106010BC70474E
:100BF0004068014451601046F0E7074C2468A34266
:100C000006D05B681944416013681B680360EAE71B
:100C10000460E8E704020010EC01001070B505461E
:100C200000F0ACFE274B1B681D4243D135B108359F
:100C300015F0070F02D025F007050835002D3BD031
:100C4000214B1B68AB4239D3204A146801E022468D
:100C50001C466368AB4202D22368002BF7D11C4BC1
:100C60001B68A3422CD0166808362368136063689B
:100C70005B1B102B18D8626813490B689B1A0B601A
:100C8000144909688B4201D212490B600D4B1B6855
:100C900013436360002323600F4A1368013313601A
:100CA00000F0FAFE304670BD601943606560FFF7E2
:100CB0008BFFE0E70026F3E70026F1E70026EFE7E9
:100CC0000026EDE7F0010010F4010010040200100E
:100CD000EC010010F8010010FC01001018B338B549
:100CE0000446A0F1080550F8043C0F4A126813426C
:100CF00002D050F8081C01B138BD23EA020340F8C5
:100D0000043C00F03BFE54F8041C084A13680B44F2
:100D100013602846FFF758FF054A13680133136034
:100D200000F0BAFEE8E77047F0010010F40100108F
:100D300000020010F0B4024600210E4614E0194CE7
:100D400025681344083B23F00703236000245C60FC
:100D50001C6014469F1A5760136005B12A606368CF
:100D60001E44013100EBC102536883B1126812F0D6
:100D7000070F05D0D41D24F00704121B134422468C
:100D80000029DCD1084C226000256560D7E7074BBD
:100D90001E60074B1E60074B4FF000421A60F0BC0C
:100DA000704700BFEC01001004020010F8010010B1
:100DB000F4010010F001001000F1080343604FF04F
:100DC000FF328260C3600361002303607047002329
:100DD0000361704743684B609A688A60516099600C
:100DE0000861036801330360704730B40D68B5F1E2
:100DF000FF3F11D000F108031C465B681A68AA4245
:100E0000FAD963684B6099608C606160086103681F
:100E10000133036030BC70470469F2E7036941683D
:100E200082688A60416851605A68824206D0002216
:100E300002611A68013A1A601868704782685A603D
:100E4000F5E782B0002301934FF0280383F3118864
:100E5000BFF36F8FBFF34F8F019B002BFCD002B00D
:100E60007047FFFF06480068006880F3088862B694
:100E700061B6BFF34F8FBFF36F8F00DF00BF00007D
:100E800008ED00E04FF0807340F8043C21F00101D0
:100E900040F8081C034B40F80C3C40F8202C40382C
:100EA000704700BF430E0100FFFFFFFFFFFFFFFF82
:100EB000074B19680868B0E8F00F80F30988BFF3A2
:100EC0006F8F4FF0000080F311884EF00D0E7047C9
:100ED0005C0200104FF0280383F31188BFF36F8F7B
:100EE000BFF34F8F024A136801331360704700BF8E
:100EF00010000010034A1368013B13600BB983F321
:100F00001188704710000010FFFFFFFFFFFFFFFF79
:100F1000EFF30980BFF36F8F0D4B1A6820E9F00FD4
:100F200010602DE908404FF0280080F3118800F090
:100F30006DFE4FF0000080F31188BDE8084019688D
:100F40000868B0E8F00F80F30988BFF36F8F70472F
:100F50005C02001008B54FF0280383F31188BFF33B
:100F60006F8FBFF34F8F00F017FD18B1034B4FF099
:100F700080521A60002383F3118808BD04ED00E05D
:100F8000054B00221A6005490A60054A43F2FF1129
:100F9000116007221A60704710E000E018E000E0DE
:100FA00014E000E010B50B4B1A6842F478021A60A6
:100FB0001A6842F078421A60FFF7E2FF0024064BFD
:100FC0001C60FFF74FFF00F021FEFFF73AFF2046BD
:100FD00010BD00BF20ED00E01000001010B5044669
:100FE000FFF778FFA26BE36B9A4204D00024FFF76F
:100FF00081FF204610BD0124F9E710B50446FFF734
:1010000069FFA36B23B90124FFF774FF204610BDCD
:101010000024F9E770B504461546866B026C5AB990
:1010200003681BB100200136A66370BD806800F024
:1010300033FF0023A360F6E76DB9406806F0C8F8F7
:10104000226C636813446360A268934219D32368D7
:1010500063602846E7E7C06806F0BAF8226C5142A0
:10106000E3689B1AE3602268934202D2A3680B44B0
:10107000E360022D01D00020D5E726B1013E00201B
:10108000D1E72846CFE70020CDE70346026C6AB1DE
:1010900010B50846D9681144D9609C68A14201D3B3
:1010A0001968D960D96806F093F810BD704738B553
:1010B0000546FFF70FFF95F8454064B203E000F0E6
:1010C000CFFE013C64B2002C08DD6B6A33B105F140
:1010D000240000F023FE0028F3D0F0E7FF2385F87A
:1010E0004530FFF707FFFFF7F5FE95F8444064B27F
:1010F00003E000F0B5FE013C64B2002C08DD2B6972
:1011000033B105F1100000F009FE0028F3D0F0E73C
:10111000FF2385F84430FFF7EDFE38BD38B50446AF
:101120000D46FFF7D7FE2168E26B236C03FB02102C
:10113000A0600020A0636160013A02FB0313E3603A
:10114000FF2384F8443084F84530A5B923691BB9DE
:10115000FFF7D0FE012038BD04F1100000F0DEFDE5
:101160000028F5D0084B4FF080521A60BFF34F8F24
:10117000BFF36F8FECE704F11000FFF71DFE04F1E1
:101180002400FFF719FEE3E704ED00E010B5034685
:1011900002980C4631B90060C36304640121FFF773
:1011A000BDFF10BD0260F7E7F0B583B004460D4601
:1011B000164601FB00F04830FFF730FD074638B116
:1011C0000090334600F1480229462046FFF7DEFF33
:1011D000384603B0F0BDFFFFF0B585B004460F46BA
:1011E00001921D46002639E02A4639462046FFF77F
:1011F00011FF636A6BB938B13C4B4FF080521A60F3
:10120000BFF34F8FBFF36F8FFFF774FE012005B060
:10121000F0BD04F1240000F081FD0028F4D0334B30
:101220004FF080521A60BFF34F8FBFF36F8FEBE721
:10123000FFF760FE0020EAE702A800F0D7FD0126D4
:1012400019E0002384F8443021E0002384F845307D
:1012500023E02046FFF72BFF00F01EFCFFF73AFECD
:10126000A26BE36B9A42BFD3022DBDD0019B002B32
:10127000DED0002EE0D0FFF73DFE00F07FFBFFF751
:1012800029FE94F8442052B2B2F1FF3FD9D094F82D
:10129000452052B2B2F1FF3FD7D0FFF72BFE01A994
:1012A00002A800F0AFFDC8B92046FFF797FE00285E
:1012B000CFD0019904F1100000F0FEFC2046FFF7AA
:1012C000F6FE00F0E9FB0028C8D1084B4FF0805231
:1012D0001A60BFF34F8FBFF36F8FBFE72046FFF752
:1012E000E6FE00F0D9FB002091E700BF04ED00E02E
:1012F000F8B5044616461A46EFF311874FF0280357
:1013000083F31188BFF36F8FBFF34F8F806BE36B55
:10131000984205D3022A03D0002087F31188F8BD34
:1013200094F845506DB2A36B2046FFF773FEB5F1FC
:10133000FF3F05D001356DB284F845500120ECE740
:10134000636A0BB90120E8E704F1240000F0E6FC31
:1013500018B126B101203060DFE70120DDE7012070
:10136000DBE7FFFFF0B585B004460F46019200268B
:101370003CE039462046FFF788FE013DA56323691E
:1013800023B9FFF7B7FD012005B0F0BD04F110004F
:1013900000F0C4FC0028F4D0344B4FF080521A60A7
:1013A000BFF34F8FBFF36F8FEBE7FFF7A3FD002075
:1013B000EAE702A800F01AFD012621E0002384F8E4
:1013C000443029E0002384F845302BE02046FFF725
:1013D0006EFE00F061FB09E02046FFF768FE00F0BA
:1013E0005BFB2046FFF709FE00283DD1FFF772FDA9
:1013F000A56B002DBDD1019B002BD6D0002ED8D0DF
:10140000FFF778FD00F0BAFAFFF764FD94F8443076
:101410005BB2B3F1FF3FD1D094F845305BB2B3F18A
:10142000FF3FCFD0FFF766FD01A902A800F0EAFC5C
:101430000028D1D12046FFF7E0FD0028C6D0019951
:1014400004F1240000F038FC2046FFF730FE00F0E5
:1014500023FB0028CAD1054B4FF080521A60BFF31E
:101460004F8FBFF36F8FC1E700208DE704ED00E0E1
:101470000023092B0CD8074A52F833200AB1013354
:10148000F7E7044A42F8331002EBC3035860704791
:10149000704700BF0C02001070B504460D4616469A
:1014A000FFF718FD94F844305BB2B3F1FF3F0DD065
:1014B00094F845305BB2B3F1FF3F0BD0FFF71AFD54
:1014C000A36B5BB12046FFF7F2FD70BD002384F8EB
:1014D0004430EDE7002384F84530EFE732462946F3
:1014E00004F1240000F008FCECE7FFFF084B1B6848
:1014F0001B6823B9074B4FF0FF321A607047044B4B
:101500001B68DB68DB685A68024B1A60704700BFD3
:10151000600200100C03001010B50446006BFFF7CA
:10152000DDFB2046FFF7DAFB10BD2DE9F0478046D2
:101530000D4617469946089EDDF824A00A9C9200A5
:10154000A521206B05F052FE236B07F18042013A82
:1015500003EB820727F00707A76485B30022132A4D
:1015600007D8A95CA31883F83410AB5C0BB1013227
:10157000F5E7002384F84730042E00D90426E662FC
:10158000E66400252565201DFFF721FC04F1180005
:10159000FFF71DFC2461C6F10506A661646265655E
:1015A00084F858504A4641463846FFF76BFC2060A5
:1015B000BAF1000F01D0CAF80040BDE8F08700235F
:1015C00084F83430D8E7FFFF38B50024042C08D85D
:1015D00004EB840293000E481844FFF7EDFB01343E
:1015E000F4E70C4D2846FFF7E7FB0B4C2046FFF7CE
:1015F000E3FB0A48FFF7E0FB0948FFF7DDFB09487A
:10160000FFF7DAFB084B1D60084B1C6038BD00BFBC
:1016100068020010E0020010F4020010180300102D
:101620004403001030030010600200106402001038
:1016300010B50446FFF74EFC204A136801331360CF
:101640001F4B1B685BB11F4B1B686BB91C4B1B68A6
:10165000DA6AE36A9A4207D8194B1C6004E0184B17
:101660001C601368012B26D0174A136801331360DE
:10167000E06A01238340154A11680B43136000EBB5
:101680008000211D124B03EB8000FFF7A3FBFFF747
:1016900031FC0C4B1B686BB1094B1B68DA6AE36ABF
:1016A0009A4207D20B4B4FF080521A60BFF34F8F14
:1016B000BFF36F8F10BDFFF787FFD5E7CC02001097
:1016C0005C0200102C030010D8020010DC02001095
:1016D0006802001004ED00E00F4B1B68D3B110B599
:1016E000FFF7F8FB0D4BDB68DC68201DFFF796FB6E
:1016F0000B4A1368013B1360074A1368013B1360F0
:10170000FFF7F8FB2046FFF707FF034B1B68002B92
:10171000E6D110BD704700BFD00200104403001096
:10172000CC02001008B5FFF7D7FF064B1B68012B52
:10173000F9D9054B4FF080521A60BFF34F8FBFF3BA
:101740006F8FF0E76802001004ED00E070B504460A
:101750000D461D4B1E681D4B18680430FFF75EFBDD
:1017600050B91A4B1B68DA6A012303FA02F21849CE
:101770000B6823EA02030B60B4F1FF3F0DD0344441
:10178000124B1B685C60A64210D9124B18680F4BB5
:1017900019680431FFF729FB70BD002DEFD00B4B0A
:1017A000196804310C48FFF715FBF5E70B4B186877
:1017B000064B19680431FFF718FB094B1B68A3425D
:1017C000EAD9074B1C60E7E7580300105C020010E1
:1017D000DC020010640200103003001060020010F0
:1017E0000C0300102DE9F04385B0074688461446E7
:1017F0001E469000FFF712FAF0B181465C20FFF719
:101800000DFA0546A0B1C0F83090D5B1002303937E
:1018100002950D9B01930C9B009333462246414653
:101820003846FFF782FE2846FFF702FF012005E059
:101830004846FFF753FAE8E74FF0FF3005B0BDE840
:10184000F0834FF0FF30F9E738B50446FFF742FB6D
:10185000002C33D0251D2846FFF7E0FA68B9E26A6C
:1018600002EB82039B002049CB5833B901239340FC
:101870001E490A6822EA03020A60A36A1BB104F146
:101880001800FFF7CBFA1A4A136801331360194B9B
:101890001B68A34215D0184A1368013B1360204609
:1018A000FFF73AFEFFF722FEFFF724FB134B1B68FE
:1018B0001BB1104B1B68A3420CD038BD0D4B1C68EC
:1018C000C8E729460E48FFF785FA0E4A1368013328
:1018D0001360E9E70C4B4FF080521A60BFF34F8F53
:1018E000BFF36F8FE9E700BF68020010DC02001051
:1018F000D80200105C020010CC0200102C03001073
:1019000044030010D002001004ED00E000B583B0E5
:10191000144B019300230093322213491348FFF71D
:1019200061FF012804D0012805D003B05DF804FB55
:1019300000F060FBF7E74FF0280383F31188BFF353
:101940006F8FBFF34F8F0A4B4FF0FF321A60094B76
:1019500001221A60084B00221A60FEF737FDFFF7DC
:1019600021FBE2E70803001080AE0100251701000B
:101970000C0300102C03001058030010024A1368D7
:1019800001331360704700BFD4020010014B186888
:10199000704700BF58030010F8B5344B1B68002B8C
:1019A0005DD1334B1E6801361E60AEB1314B1B68F2
:1019B000B3424AD90027304B1B68DB6A03EB830331
:1019C0009A002E4B9B58012B00D901272C4B1B68EA
:1019D000002B49D0012747E02A4A11682A4B186892
:1019E00010601960294A136801331360FFF77EFD08
:1019F000DCE70127234B1B681B6843B3214B1B68A3
:101A0000DB68DC6863689E4226D3251D2846FFF705
:101A100005FAA36A1BB104F11800FFF7FFF9E36AA6
:101A200001229A401A49086802430A6003EB8303C3
:101A30009A00294611481044FFF7CCF9E26A0E4B90
:101A40001B68DB6A9A42D4D2D4E70027D2E7094B5D
:101A50004FF0FF321A60AEE7064A1360ABE70D4A5B
:101A600013680133136000273846F8BDD402001014
:101A7000580300100C0300105C02001068020010F4
:101A80005C030010600200106402001010030010DC
:101A9000DC0200101403001038B5FFF71BFA2D4BC1
:101AA0001A68013A1A601B68002B4DD12A4B1B683B
:101AB0000BB9002449E00024284B1B681BB3274BBB
:101AC000DB68DC6804F11800FFF7A8F9251D28463B
:101AD000FFF7A4F9E06A01238340214A11680B4310
:101AE000136000EB800029461E4B03EB8000FFF7DC
:101AF00071F9E26A1C4B1B68DB6A9A42DCD31B4B10
:101B000001221A60D8E70CB1FFF7F0FC184B1C68F3
:101B100074B9164B1C68C4B1164B4FF080521A6052
:101B2000BFF34F8FBFF36F8F01240EE0013C07D04E
:101B3000FFF732FF0028F9D00C4B01221A60F5E7BD
:101B40000B4B00221A60E4E70024FFF7D3F920468C
:101B500038BD00BFD4020010CC02001018030010E2
:101B6000DC020010680200105C0200105C03001030
:101B70001403001004ED00E038B505460C46FFF7ED
:101B8000FDFE134B18682A681444824209D9A24208
:101B900001D82C600EE0A04201D32C600AE02C603A
:101BA00004E0A24201D8A04210D22C600021201AE9
:101BB000FFF7CCFDFFF770FF38B9064B4FF08052AE
:101BC0001A60BFF34F8FBFF36F8F38BD2C60F1E702
:101BD0005803001004ED00E010B540B90A4B4FF077
:101BE00080521A60BFF34F8FBFF36F8F10BD044652
:101BF000FFF7C4FE00212046FFF7A8FDFFF74CFFCA
:101C00000028F3D1EAE700BF04ED00E0254B1B6894
:101C10001BB1254B01221A60704710B5224B0022E0
:101C20001A60224B1B681B6B1A68B2F1A53F03D1E7
:101C30005A68B2F1A53F26D01C4B18681968343198
:101C4000FEF772FE1A4B1B68B3FA83F3DBB2C3F1E3
:101C50001F03184903EB830082000A445068406860
:101C6000506003EB8304A2001446083211448842FA
:101C700012D003EB83039A000E4B13445B68DA68BF
:101C80000A4B1A6010BD9A68B2F1A53FD4D1DB6847
:101C9000B3F1A53FD0D1D5E74068064A2244506051
:101CA000E7E700BFD40200105C0300105C020010E4
:101CB000DC0200106802001010B50C46044B1968D5
:101CC0001831FFF792F801212046FFF73FFD10BDC4
:101CD0005C02001010B51446064B1A6841F0004132
:101CE000916119681831FFF775F801212046FFF757
:101CF0002DFD10BD5C02001038B50D461446064B94
:101D000019681831FFF766F80CB14FF0FF3521461E
:101D10002846FFF71BFD38BD5C02001038B5C368CC
:101D2000DC6804F118052846FFF778F8134B1B68A8
:101D3000E3B9251D2846FFF771F8E06A01238340C7
:101D40000F4A11680B43136000EB800029460D4BCE
:101D500003EB8000FFF73EF8E26A0B4B1B68DB6A7F
:101D60009A4208D90120094B186038BD2946084815
:101D7000FFF730F8F0E70020F7E700BFD4020010CB
:101D8000DC020010680200105C0200105C0300100E
:101D90001803001038B541F000410160C468FFF736
:101DA0003DF8251D2846FFF739F8E06A01238340F6
:101DB0000A4A11680B43136000EB80002946084B68
:101DC00003EB8000FFF706F8E26A064B1B68DB6A4C
:101DD0009A4202D9044B01221A6038BDDC0200107D
:101DE000680200105C0200105C030010034B1B68CB
:101DF0000360034B1B684360704700BF1003001073
:101E000058030010F8B504460D46FFF763F8124B6F
:101E100019686368C81A2A68B2F1FF3F14D02768AE
:101E20000E4E3668B74201D08B4212D9824203D897
:101E300000232B60012408E05B1A13442B6020462A
:101E4000FFF7D4FF002400E00024FFF753F82046FA
:101E5000F8BD0124F9E700BF58030010100300107B
:101E6000014B01221A6070475C030010014B186897
:101E7000704700BF5C020010054B1B6833B1054B77
:101E80001B680BB10020704702207047012070478B
:101E90002C030010D4020010002834D038B50446BA
:101EA000036D013B0365C16AC26C91422DD00BB139
:101EB000002038BD051D2846FEF7B0FF68B9E26A6C
:101EC00002EB82039B001249CB5833B901239340A4
:101ED00010490A6822EA03020A60E06CE062C0F17D
:101EE0000503A361012404FA00F30A4A11680B43B5
:101EF000136000EB80002946054B03EB8000FEF7E2
:101F000069FF2046D5E7002070470020D1E700BFD9
:101F100068020010DC020010044A13689869136814
:101F2000DB6A1268C3F10503936170475C0200101D
:101F3000064B1A6813682BB90123036023B9D368D1
:101F4000186870470023F8E700207047600300100E
:101F500008B54160006191420CD8D21A83699A4257
:101F600001D3012008BD011D094B1868FEF73DFF94
:101F70000020F7E79A4201D2994206D2011D054B93
:101F80001868FEF732FF0020ECE70120EAE700BF07
:101F9000640300106003001038B5FEF79BFF0F4B81
:101FA0001B6813B1FEF7A6FF38BD0D4D2846FEF79E
:101FB00003FF0C4C2046FEF7FFFE0B4B1D600B4B46
:101FC0001C60002210210520FFF7EEF8034B18607B
:101FD0000028E7D00649FFF74BFAE3E79403001027
:101FE000680300107C0300106003001064030010FD
:101FF00088AE010000B583B0FFF7CEFF084B1B6829
:1020000063B1084B01930423009300236422064923
:102010000648FFF7E7FB03B05DF804FB0020FAE792
:10202000940300109803001090AE0100CD2201002F
:1020300030B585B01C46134B1D6805B30091019265
:102040000290052913DCFFF717FF022807D00023B1
:102050001A4669460B480068FFF7BEF80DE00023FA
:10206000089A694607480068FFF7B6F805E00023BC
:10207000224669462846FFF73BF905B030BD0020EF
:10208000FBE700BF9403001070B582B0164B1B68CD
:102090001A6812B3DB681E68DC68251D2846FEF747
:1020A000BDFE236A2046984794F8243013F0040FAD
:1020B000ECD0A36933449E4207D263602461294671
:1020C000094B1868FEF791FEE0E7002100910B46EE
:1020D00032462046FFF7ACFFD8E7044A10680249B1
:1020E0000860136002B070BD60030010640300104C
:1020F00038B50546FFF74AFC0446074B1B68834288
:1021000005D800232B60044B1C60204638BDFFF728
:10211000BBFF01232B60F6E79003001070B582B07F
:1021200006460D46124B1B68DB68DC68201DFEF777
:1021300075FE94F8243013F0040F08D123F0010346
:1021400084F82430236A2046984702B070BDA16904
:1021500033462A4631442046FFF7FAFE0028F1D0E4
:10216000002100910B4632462046FFF761FFE9E768
:102170006003001070B582B006460C46FFF7FEFB08
:1021800001A8FFF7B5FF019B23BB05460CB9B04280
:1021900017D224B1114A12681268CAB90124224622
:1021A000711B0F4B1868FFF777F9FFF775FC98B9AB
:1021B0000C4B4FF080521A60BFF34F8FBFF36F8FFD
:1021C0000AE0FFF769FC29463046FFF7A7FF03E066
:1021D0001C46E4E7FFF760FC02B070BD640300102A
:1021E0009403001004ED00E010B588B006E00799F4
:1021F0000698059B9847049B002B0BDA002204A944
:10220000314B1868FFF7AEF800285BD0049B002B19
:10221000F1DAECE7069C636913B1201DFEF7FEFDC1
:1022200003A8FFF765FF049B092BE7D8DFE803F05D
:10223000050505262D3C0505262D94F8243043F090
:10224000010384F82430059BA16902461944204605
:10225000FFF77EFE0028D1D0236A2046984794F8E5
:10226000243013F0040FC9D0A269002100910B465D
:10227000059802442046FFF7DBFEBFE794F82430C0
:1022800023F0010384F82430B8E794F8243043F0B5
:10229000010384F824300599A161034602460144F4
:1022A0002046FFF755FEA9E794F8243013F0020FFB
:1022B00004D023F0010384F824309FE72046FEF782
:1022C0000DFD9BE708B010BD9403001000B583B06E
:1022D00001A8FFF72DFE0199FFF74CFFFFF784FFE0
:1022E000F6E7FFFF10B584B014461A466FF00103FD
:1022F000009301900291039400236946024800680C
:10230000FEF7F6FF04B010BD9403001028B1064A92
:10231000936943F0006393617047034AD36943F0C4
:102320000063D361704700BF20C0092008B50D4A83
:10233000D36823F44003D360D36C23F4400343F009
:102340000073D364084A136843F0006313600020ED
:10235000FFF7DCFF46F2905003F05EFF012003F030
:10236000B3FF08BD00C0024020C0092080B582B084
:1023700002AF00230093082304220021144800F038
:102380009DF9012304220021124800F0CDF9022317
:10239000009308231C2204210D4800F08FF900232C
:1023A0000093082311220121094800F087F9012335
:1023B00011220121074800F0B7F9022300930823F6
:1023C0001D220421024800F079F900BFBD4680BDFE
:1023D00000C0024000C0092080B500AF1D4804F0D5
:1023E000E3F81C4804F0F6F81A4B00229A61194BE6
:1023F0000022DA61174B4FF4FA621A62154BFF2282
:102400001A600021134800F0B3F90121114800F0CF
:10241000AFF902210F4800F0A1F902210D4800F0A8
:10242000B1F90023012200210A4804F0DFF801235A
:1024300001220021074804F0D9F8064800F088F985
:102440000521032000F026F9032000F0FFF800BF6B
:1024500080BD00BF000009400C4B9A69322A03D9A5
:10246000DA6B42F00102DA63084BDA69322A03D9E7
:10247000DA6B42F00202DA630820044A0449136866
:1024800043F004031360C1F8800170470000094065
:1024900000E100E080B500AF012000F0E3F801208A
:1024A00000F0ECF800BF80BD80B500AF022000F066
:1024B000D9F8022000F0E2F800BF80BD90B587B0E7
:1024C00000AFF8600B467A60FB72786804F01CFC81
:1024D00003467B617B68642B01D964237B607B6846
:1024E000042B01D800237B60134B1B7883F001037E
:1024F000DBB2002B01D000237B60FB681B6A7A688B
:1025000002FB03F3184604F0FFFB03467B610B4913
:10251000786904F005FD03467B6197F90B40786903
:1025200004F036FE0146FB68A21D43F8221000BFEE
:102530001C37BD4690BD00BF9C0300100000C84280
:1025400080B582B000AF03460A46FB711346BB71EB
:10255000FB7904220021064800F0D0F8BB79112253
:102560000121034800F0CAF800BF0837BD4680BD0E
:1025700000C0092080B584B002AF03460A46FB7153
:102580001346BB71294ABB791370FB79002B02D02B
:10259000012B18D02FE0BB79002B08D00223009329
:1025A00008231C220421224800F088F83AE0002386
:1025B000009308231C2204211D4800F07FF81D4BC6
:1025C00000229A612EE0BB79002B08D002230093F1
:1025D00008231D220421164800F070F822E0002391
:1025E000009308231D220421114800F067F8114BC5
:1025F0000022DA6116E00023009308231C22042144
:102600000B4800F05BF80023009308231D220421EF
:10261000074800F053F8074B00229A61054B00224F
:10262000DA6100BF00BF0837BD4680BD9C030010C3
:1026300000C002400000094080B400AF024B1B788C
:102640001846BD4680BC70479C03001000F01F0276
:10265000400901239340024A42F82030704700BFEE
:1026600000E100E000F01F02400901239340203008
:10267000014A42F82030704700E100E000F01F02FC
:102680004009012393406030014A42F820307047EE
:1026900000E100E0002808DBC900C9B200F1604099
:1026A00000F5614080F80013704700F00F00C9008A
:1026B000C9B2014B1954704714ED00E070B402F038
:1026C0000F0464004900C9B201EB1212D2B250F8F3
:1026D00022600325A54026EA05069DF80C10A140BE
:1026E000314340F82210103250F8221021EA05053B
:1026F000A3402B4340F8223070BC70474BB1C9B2A5
:1027000000EB41108369012101FA02F21A43826150
:102710007047C9B200EB4110C369012101FA02F20E
:102720001A43C261704700BF10B443B14901435816
:10273000012404FA02F21A43425010BC70474901C6
:102740004358012404FA02F223EA02024250F4E759
:10275000436843F001034360704700BF436901EBE6
:102760004101012202FA01F10B434361704700BFAE
:10277000436901EB4101012202FA01F123EA01035D
:1027800043617047436901EB41010131012202FAC3
:1027900001F10B4343617047324A136823F0800311
:1027A0001360314B196821F440411960196C21F410
:1027B00040411964116821F040011160196821F449
:1027C00040511960196C21F440511964116821F4C9
:1027D00000711160196821F440211960196C21F40D
:1027E00040211964116821F4807111601A6822F483
:1027F00040321A601A6C22F440321A641B4BC02219
:102800001A601B4B4FF440721A601A4B5A6942F01F
:1028100040025A611A6942F040021A615A6942F054
:1028200080025A611A6942F080021A615A6942F4C0
:1028300000725A611A6942F400721A615A6942F4CC
:1028400080725A611A6942F480721A610022DA6059
:10285000094B082283F815234FF40012C3F8802196
:102860001A60704700C0092000C00240AC0300108D
:10287000B00300108080024000E100E00346034AFC
:1028800092E8030083E8030018467047A403001091
:1028900038B505460C46FFF7CFFE30B1034B18683C
:1028A0002844186059682144596038BDA4030010B9
:1028B00038B52A4B1A68D20700D438BD2849986821
:1028C0005A68096802430A421CD02648D960416907
:1028D0004369254CDB095B00207803F00203C1F358
:1028E00080110B43214D83422B700BD080EA5300A3
:1028F00010F0010F1E48016814BF01F1FF310131D2
:10290000016023701B4B1B681A421DD0134A1549E6
:10291000D3604A694B6918481B0A5B00017803F0D1
:102920000203C2F340221343144C8B4223700BD09A
:1029300081EA530111F0010F0D494A6814BF02F1F9
:10294000FF3201324A600370FFF776FE0028B4D0F0
:10295000074B1A681A605A685A6038BD8080024076
:10296000AC03001000C009209E0300109D0300105E
:10297000A4030010B0030010A00300109F03001078
:102980004FF48022014BC3F88021704700E100E042
:102990004FF40022014BC3F88021704700E100E0B2
:1029A0004FF48012014BC3F88021704700E100E032
:1029B00038B5284CE36823F04073E360E36C23F000
:1029C000407343F00063E364234A136843F0805389
:1029D0001360002000F04EF8236923F04063236168
:1029E000236D23F0406343F0005323651B4A1368B3
:1029F00043F40053136004F5D824204603F01CFE72
:102A00001749204603F03DFE0323E360204603F010
:102A100035FE144D802301222946134803F060FC43
:102A200080230122E918114803F05AFC8723A36090
:102A3000636843F005036360636823F00203636027
:102A400000F0D4F90A4B8022C3F88021302283F8A9
:102A5000072338BD00C0024020C0092040C0092023
:102A600040420F00A00108204C0400106004001038
:102A700000E100E028B1064A936943F08053936176
:102A80007047034AD36943F08053D361704700BF56
:102A900020C0092080B584B000AF78600023FB60BF
:102AA0000023FB7200237B720023BB720BE007F153
:102AB000090319463A4803F077FCBB7A0133BB722D
:102AC000BB7A032B64D87B7AFF2BF0D10023BB7237
:102AD00000237B720BE007F109031946304803F02D
:102AE00063FCBB7A0133BB72BB7A032B52D87B7A6F
:102AF000FF2BF0D12B492A4803F056FC294B1B78B9
:102B00001A46FB681344FB602749254803F04CFC38
:102B1000244B5B781A46FB681344FB60234920482A
:102B200003F042FC1F4B9B781A46FB681344FB6082
:102B30000023FB7215E0FB7A442B2DD8FB7A194A4F
:102B4000134403331946164803F02EFCFB7A154A4A
:102B50001344DB781A46FB681344FB60FB7A0133AD
:102B6000FB72FA7A0F4B5B78023B9A42E3DB07F188
:102B7000090319460A4803F017FCFB68DB43FB60B6
:102B800000234FF0FF3207497868FEF725FB04E089
:102B900000BF02E000BF00E000BF1037BD4680BDAF
:102BA0004C0400100404001005040010060400107A
:102BB00080B584B000AF78600023FB8100237B7375
:102BC0007B7B5A1C7A731A463B4BFF2199547B7BC3
:102BD0005A1C7A731A46384BFF2199547B7B5A1C36
:102BE0007A731A467B681978334B99547B681B7843
:102BF0009AB2FB891344FB817B7B5A1C7A731A4679
:102C00007B6859782C4B99547B685B789AB2FB8926
:102C10001344FB817B7B5A1C7A731A467B68997834
:102C2000254B99547B689B789AB2FB891344FB81AE
:102C30000023BB6019E0BB68442B1DDC7B7B5A1C66
:102C40007A7319467A68BB68134403331A781A4BAF
:102C50005A547A68BB68134403331B789AB2FB89D1
:102C60001344FB81BB680133BB607B685B78023B2C
:102C7000BA689A42DFDB00E000BFFB89DB43FB81DF
:102C80007B68002283F847207B7B5A1C7A731A46A4
:102C9000FB89D9B2084B99547B7B1A4606490748F1
:102CA00003F03EFB7B7B1A460449054800F00AF816
:102CB00000BF1037BD4680BDB40300106004001093
:102CC0000080094080B586B000AFF860B9607A60D6
:102CD00000F066F800F0B7F80FE0FB7C1946F868E2
:102CE00000F019F900BF00E000BFF86800F015F926
:102CF000034603F02603002BF6D007F11303194611
:102D0000B86803F051FB0346002BE6D100237B613A
:102D100000237B6102E07B6901337B617B69C72B08
:102D2000F9DD00F063F800F087F800BF1837BD4602
:102D300080BDFFFF10B582B000230193114C124AF1
:102D40002146124803F0DAFC204603F083FB0528F5
:102D50000FDC019B3BB10E4B4FF080521A60BFF36A
:102D60004F8FBFF36F8F0B4B8022C3F8802102B0CF
:102D700010BD01AB1022084909680848FFF7B2FAF4
:102D8000E7E700BF4C040010600400100080094019
:102D900004ED00E000E100E084050010C10B01003B
:102DA00080B582B002AF01230D2202210D4800F050
:102DB00089F80023009308230B2200210A4800F021
:102DC00061F800230B220021064800F090F801234F
:102DD000009308230A220021034800F053F800BFA3
:102DE000BD4680BD00C0092000C0024080B582B051
:102DF00002AF00230D2202210D4800F063F80023EA
:102E0000009308230A2200210A4800F03BF800231F
:102E10000A220021064800F06AF8012300930823E3
:102E20000B220021034800F02DF800BFBD4680BDF5
:102E300000C0092000C0024080B500AF072000F0AC
:102E400009F800BF80BD80B500AF072000F00EF884
:102E500000BF80BD00F01F02400901239340024AD9
:102E600042F82030704700BF00E100E000F01F0290
:102E70004009012393402030014A42F82030704736
:102E800000E100E070B402F00F0464004900C9B230
:102E900001EB1212D2B250F822600325A54026EAB7
:102EA00005069DF80C10A140314340F82210103265
:102EB00050F8221021EA0505A3402B4340F82230A8
:102EC00070BC70474BB1C9B200EB4110836901215E
:102ED00001FA02F21A4382617047C9B200EB411055
:102EE000C369012101FA02F21A43C261704710B4AA
:102EF00043B149014358012404FA02F21A434250F3
:102F000010BC704749014358012404FA02F223EA35
:102F100002024250F4E70160704740697047FFFFCA
:102F200008B52149214803F015F8214B5A6822F4CD
:102F3000404242F480425A605A6C22F4404242F4C9
:102F400000325A645A6822F4403242F480325A60A5
:102F50005A6C22F4403242F400225A645A6822F435
:102F6000402242F480225A605A6C22F4402242F4F9
:102F700000125A645A6822F4401242F480125A60D5
:102F80005A6C22F4401242F400025A641A6822F089
:102F9000C00242F080021A601A6C22F0C00242F4B1
:102FA00000721A6408BD00BF7404001000400340A2
:102FB00000C00240072840D8DFE800F00404040401
:102FC0000404040410B582B00446012201461C48E2
:102FD00003F011F81B4B1B78FBB10121184803F0DB
:102FE0001AF8184B1B78EBB100222146144802F066
:102FF000E0FF0128F8D10DF106022146104802F049
:10300000CDFF104B1B789BB9002221460C4802F0E3
:10301000F2FFBDF8060002B010BD0021084802F022
:10302000FAFFDEE700220121054802F0D8FFDBE7C6
:103030000021034802F0EFFFE6E70020704700BFE1
:10304000004003407C040010400100F1005000F5F6
:103050001C20836901228A40134383617047400129
:1030600000F1005000F51C20C36901228A4013437F
:10307000C3617047F8B501F00F077F004300DBB272
:1030800003EB1113DBB2124E56F823E0032505FAC9
:1030900007FC2EEA0C0546F82350103356F823504F
:1030A00025EA0C054FF0080C0CFA07F73D4346F8EB
:1030B0002350430103F1005303F51C231A68012533
:1030C00005FA01F414431C60FFF7C9FFF8BD00BF07
:1030D00000C0024080B588B000AFF860B9607A6087
:1030E000FDF710F903210220FFF7AEFF21E0FB7C82
:1030F0001946F86800F056F80023FB6103E000BFB2
:10310000FB690133FB61FB690F2BF8DD09E000234C
:10311000BB6103E000BFBB690133BB61BB690F2B1F
:10312000F8DDF86800F040F8034603F02603002BB2
:10313000EDD007F113031946B86803F035F90346DB
:10314000002BD4D100237B6103E000BF7B690133F6
:103150007B617B69632BF8DD03210220FFF77FFF92
:10316000FDF7D8F800BF2037BD4680BD00B583B05D
:103170004FF0FF33009301231A4680210348006873
:10318000FDF782FC03B05DF804FB00BF840500106E
:1031900008B58021024B1868FDF7E1FC08BD00BFAF
:1031A00084050010016070474069704710B5204BDE
:1031B0001A6822F0404242F080421A601A6C22F0F3
:1031C00040421A645A6822F0030242F001025A6037
:1031D0005A6C22F0030242F008025A6403210220D2
:1031E000FFF748FF134C204603F026FA1249204609
:1031F00003F047FA0323E360204603F03FFA4FF45D
:10320000007301220D490E4803F06AF88723A3607A
:10321000636843F005036360636823F0020363603F
:10322000084B4022C3F88021302283F8062310BDCA
:1032300000C002400000014080841E00A00208205F
:103240005C05001000E100E030B583B0802301226E
:103250000E490F4803F044F8FFF7A8FF00224D2164
:103260000A20FDF7A1FF0B4D28600B4C2146FEF70D
:10327000FFF800230193032300932B68642204F1D9
:1032800014010648FEF7AEFA03B030BDA0040820D2
:1032900070050010D004001098AE010071330100D9
:1032A00010B582B000230193274803F0D3F80A2811
:1032B00002DC264B00221A70234C254A2146254861
:1032C00003F01CFA204603F0C5F80A2802DD1F4B64
:1032D0001B78DBB11C4803F0BDF8FF2821DC1A483D
:1032E00003F0B8F81C4B1B68984227DC019B3BB1EC
:1032F0001A4B4FF080521A60BFF34F8FBFF36F8F9E
:10330000174B4022C3F8802102B010BD01AB04224C
:10331000144909681448FEF7E5FF0C4B01221A70A6
:10332000DDE7124A936943F40043936101AB042241
:103330000C4909680C48FEF7D5FFD0E7024803F0B6
:1033400089F8054B1860D1E75C050010D404001023
:1033500070050010000001405805001004ED00E069
:1033600000E100E084050010C10B010020C009202D
:1033700008B504463220FEF72FFC1AE0134D29460B
:1033800011F8012B124802F0CBFF95F84C30012BBD
:1033900012D00F4D284603F05DF802460D4928462D
:1033A00003F01AF8002209492046FDF7DBFF012847
:1033B000E4D0FFF7DBFEF5E72A7805490648FFF77A
:1033C00089FE0120FEF708FCECE700BF8004001036
:1033D00070050010D80400100000014008B5FDF78A
:1033E00045FB014B186008BD8405001090B587B0FF
:1033F00000AF78607B68FB60FB68002B01D1002385
:103400003BE10023FB720023FB8200237B7500233A
:10341000BB7207F10B031946F86802F0C5FF994B20
:1034200000221A7020E007F10B031946F86802F039
:10343000BBFF0346002B10D0924B1B780133DAB24E
:10344000904B1A708F4B1B78052B0DD98E4B1B6838
:1034500001338D4A136000230FE18B4B1B6801334E
:10346000894A1360002308E1FB7A7E2BDBD103221B
:103470008649F86802F0B0FF844B1B781AB2844B7F
:103480001A80834BB3F900301B021AB2804B1A80AA
:103490007E4B5B789AB27E4BB3F900309BB21344FB
:1034A0009BB21AB27A4B1A80794BB3F900304B2B8E
:1034B00006DD754B1B680133734A13600023DCE0A3
:1034C000724B9B789AB2FB8A13449BB2FB826F4B80
:1034D0009B78892B0BD103226C49F86802F07CFFA2
:1034E000694B1B680133684A13600023C5E0654BD4
:1034F00000221A7013E0634B1B780133DAB2614B80
:103500001A70604B1B78052B06D95F4B1B68013383
:103510005D4A13600023B0E00120FEF75DFBF86810
:1035200002F098FF02465A4BB3F90030013B9A4231
:10353000E1DB06225549F86802F04EFF00233B61AB
:103540000BE0524A3B6913441B789AB2FB8A13443E
:103550009BB2FB823B6901333B613B69032BF0DD8E
:103560004A4B1A794B4B1A704A4B1B789AB2FB8A1A
:1035700013449BB2FB82454B5B795AB2454B5A7060
:10358000444B93F90130DBB29AB2FB8A13449BB2ED
:10359000FB823F4BB3F90030DBB2073BDAB23D4B65
:1035A0009A703C4B9B78402B61D8364B00221A70A6
:1035B00013E0344B1B780133DAB2324B1A70314BC3
:1035C0001B78052B06D9304B1B6801332E4A13603C
:1035D000002352E00120FEF7FFFA2E4B9B781C4699
:1035E000F86802F037FF03469C42E2DA294B9B78E9
:1035F0001A462949F86802F0EFFE00237B750BE0BC
:103600007B7D244A1344DB789AB2FB8A13449BB235
:10361000FB827B7D01337B751E4B9B787A7D9A42C2
:10362000EED307F10A031946F86802F0BDFEFB8AE3
:10363000DBB2FB82FB8ADBB2DB43DBB2FB82B7F996
:103640001630BA7A934208D1144B1B680133134ADF
:103650001360104800F024F80EE00B4B1B68013398
:10366000094A1360012000F07FF9002305E0064BB2
:103670001B680133044A1360002318461C37BD46FB
:1036800090BD00BF880500108C050010B80508200B
:103690008A050010700508207305082090050010A9
:1036A00008B590F90120B2F1FF3F11D00A494B69EA
:1036B00013F4807F0CBF02230023496911F0100F1F
:1036C00008BF43F0010301339A4201D0002008BD36
:1036D00000F0BEFA0120FAE720C0092010B582B040
:1036E0003220FEF779FA104B40221A60002404E0E1
:1036F0000E4C204602F0AEFE88B94FF0FF33009327
:10370000002301220C210A480068FDF7BDF910F0E2
:10371000040FEDD110F0080FEBD00024E9E72046AC
:10372000FFF764FEE5E700BF00E100E05C05001084
:103730008405001008B50321024B1868FDF70FFA45
:1037400008BD00BF8405001000B583B0FFF7F2FF8D
:1037500000230193022200924FF4A072034904480F
:10376000FEF740F803B05DF804FB00BFC0AE0100F7
:10377000DD36010000B583B0009001231A461946DA
:1037800006480068FDF780F910F0010F03D1002012
:1037900003B05DF804FB0120FAE700BF84050010C8
:1037A00008B50121024B1868FDF7D9F908BD00BF23
:1037B0008405001030B41D4A7E2353708378D91DD0
:1037C0000B3313700B0A9370D17001231371537173
:1037D000B0F84430190A9171D37100231372017843
:1037E000517290F90110917284789C4209D903F1C9
:1037F0000A04C218D1780D4A224451700133DBB259
:10380000F2E70022032306E00849194449780A44F4
:1038100012B20133DBB204F109011D469942F3DA19
:10382000D243024805446A7030BC70472005082026
:1038300010B50C46FFF7BEFF094981F84C40002344
:103840004FF4FA7207480068FDF7C6FC20B9044639
:10385000FFF7A6FF204610BDFFF7A2FF0124F9E7FE
:1038600020050820D00400107047FFFFF8B504467B
:103870000E4615461F463220FFF77CFF00B9F8BD03
:10388000374B5A221A70FE225A70364B9E705D706A
:10389000204604F033F980B23A284FD8204604F08D
:1038A0002DF93B281DD93B202E4B1870204604F0E3
:1038B00025F93B281AD93B222A4D2146E81C03F062
:1038C00087FC274C3E23A37040222946E01C03F0CE
:1038D0007FFC0A23A4F8443039462046FFF7A8FFAE
:1038E000CDE7204604F00AF9C0B2DDE7204604F037
:1038F00005F90246E0E7204604F000F9C0B225E0F1
:10390000204604F0FBF80246164E2146F01C03F058
:103910005FFC134D3E23AB7040223146E81C03F0A0
:1039200057FC0023A5F8443039462846FFF780FFAE
:1039300033781C44204604F0E1F880B200289ED081
:10394000204604F0DBF83B28D5D93B20054B187006
:10395000204604F0D3F83B28D2D93B22D4E700BF5D
:10396000040608209405001010B582B0144B5A6963
:1039700012F4807F0CBF022200225B6913F0100F4B
:1039800008BF42F001020F4C236800930E4B1B68E6
:1039900031320E490E4804F091F82368042B07DCFD
:1039A0000123042200210A48FFF760FF02B010BD86
:1039B0000123042202210648FFF758FFF6E700BF63
:1039C00020C009208C05001090050010D4AE010025
:1039D000D405001030B589B005463220FFF7CAFE85
:1039E00008B909B030BD2A4CFD232370FF23637052
:1039F000284A536913F4807F0CBF022300235269C5
:103A000012F0100F08BF43F0010301338DF814309A
:103A1000214B1B680693214B1B6807930C23A37053
:103A2000402205A9E01C03F0D3FB4FF6FF73A4F876
:103A3000443029462046FFF7FBFE194B1B781BB18B
:103A40002846FFF791FFCCE7124B5A6912F4807FAA
:103A50000CBF022200225B6913F0100F08BF42F076
:103A60000102104C104B0293104B0193104B00932A
:103A7000104B31321049204604F020F80123042273
:103A800000212046FFF7F2FE054B01221A70D7E70E
:103A90000406082020C00920900500108C050010A5
:103AA000D2050010D40500102CAF010038AF010082
:103AB00044AF010000AF010004AF010070B505463E
:103AC0000C463220FFF756FE00B970BD094E2A237E
:103AD0003370002373703423B37040222946F01CE6
:103AE00003F076FB0A23A6F8443021463046FFF760
:103AF0009FFEEAE70406082030B583B00C46154A5D
:103B0000536913F4807F0CBF02230023526912F023
:103B1000100F08BF43F0010301338DF804308DF816
:103B200005003220FFF726FE08B903B030BD0A4D6C
:103B300000232B706B700223AB70402201A9E81C9C
:103B400003F046FB0A23A5F8443021462846FFF738
:103B50006FFEEAE720C0092004060820F0B595B002
:103B600006460F4601238DF8043000252B461AE047
:103B7000354C65232370FE2363700A23A4F8443078
:103B80003E23A370402201A9E01C03F021FB39462B
:103B90002046FFF74DFE1420FEF71EF800248DF896
:103BA00004400135234696F8E823AA422DDD05EBB3
:103BB000850106EB4102107A8DF8440036F81110A9
:103BC000ADF846105188ADF848109188ADF84A100C
:103BD000D288ADF84C205C1CE4B203EB830314AA3A
:103BE00002EB430311AA03CA43F84A0C43F8461CEC
:103BF000128823F8422C062CD3D18DF805403220B0
:103C0000FFF7B8FD0028B3D100E00BB915B0F0BD47
:103C10008DF805303220FFF7ADFD0028F6D00A4CB4
:103C200065232370FE2363700A23A4F844303E23E7
:103C3000A370402201A9E01C03F0CAFA39462046CD
:103C4000FFF7F6FDE2E700BF040608207047FFFF1C
:103C500010B504464F48FCF753FB4F4A1368013335
:103C600013602378462B25D80A2B31D30A3B3C2BF3
:103C70002ED8DFE803F0262D2D2D2D2D2D2D2D2DC9
:103C8000312D2D2D2D2D2D2D2D2D392D2D2D2D2D54
:103C90002D2D2D2D41492D2D2D2D2D2D2D2D512D00
:103CA0006159692D2D2D2D2D71792D2D2D2D2D2D18
:103CB0002D2D8100FC2B67D0FE2B09D1FFF768FA70
:103CC00006E0204600F06CF801210420FFF714FF05
:103CD0003248FCF715FB10BD204600F0A7FA012181
:103CE0000020FFF709FFF3E7204600F0F9F9012172
:103CF0000520FFF701FFEBE7204600F043FA012122
:103D00000A20FFF7F9FEE3E702F018F90121FFF7B7
:103D1000D5FEFFF73DFADBE7204600F057FA012118
:103D20000846FFF7E9FED3E7204600F063FA0121D9
:103D30000320FFF7E1FECBE7204600F069FA0121FE
:103D40000220FFF7D9FEC3E7204600F031FA012137
:103D50000620FFF7D1FEBBE7204600F04BF801211B
:103D60000720FFF7C9FEB3E7204600F050F8012115
:103D70000820FFF7C1FEABE7204600F019F901214A
:103D80000920FFF7B9FEA3E70120FFF723FEFFF7A5
:103D9000FFF99DE748AF01001C06001060AF01006D
:103DA00000B587B01822C11C684603F011FA9DF8CF
:103DB000163063B9684601F005F99DF81030062BFE
:103DC00008D09DF8163093B907B05DF804FB01F0F8
:103DD00001F9EFE700F0C2FEBDF90C1000F0BEFBE8
:103DE00000F0B8FEBDF90E1000F0B8FBE9E701F0F5
:103DF00067F9E9E700B585B01022C11C684603F0F9
:103E0000E7F9684600F0B0FD05B05DF804FB30B599
:103E100087B01822C11C684603F0DAF99DF800301B
:103E2000042B42D8DFE803F003436383A30000F0D0
:103E300091FE04469DF8153080F83430019B836074
:103E4000029BC360039B0361BDF9120002F060FF97
:103E5000A0619DF81050284602F056FF206268428B
:103E600002F056FF60629DF81430237700F076FE72
:103E700004469DF8153080F83430019B8360029B26
:103E8000C360039B0361BDF9120002F041FFA06112
:103E90009DF81050284602F037FF2062684202F079
:103EA00037FF60629DF81430237707B030BD00F013
:103EB00049FE04469DF8153080F83430019B83603C
:103EC000029BC360039B0361BDF9120002F020FF57
:103ED000A0619DF81050284602F016FF206268424B
:103EE00002F016FF60629DF814302377DDE700F0E2
:103EF0002DFE04469DF8153080F83430019B836018
:103F0000029BC360039B0361BDF9120002F000FF36
:103F1000A0619DF81050284602F0F6FE206268422B
:103F200002F0F6FE60629DF814302377BDE701F0E1
:103F300041F804469DF8153080F83430019B8360C9
:103F4000029BC360039B0361BDF9120002F0E0FE17
:103F5000A0619DF81050284602F0D6FE206268420B
:103F600002F0D6FE60629DF8143023779DE701F0E1
:103F700025F804469DF8153080F83430019B8360A5
:103F8000029BC360039B0361BDF9120002F0C0FEF7
:103F9000A0619DF81050284602F0B6FE20626842EB
:103FA00002F0B6FE60629DF8143023777DE7FFFFD4
:103FB000F0B585B00C22C11C01A803F009F900F08E
:103FC000EFFC0446BDF8040002F09EFE414902F0F9
:103FD000A7FF414902F0F0FE01462768384602F08B
:103FE000EBFE0546BDF8060002F08EFE394902F0F0
:103FF00097FF384902F094FF384902F0DDFE364958
:1040000002F0DAFE0146384602F0D6FE0646BDF85A
:10401000080002F079FE2F4902F082FF2D4902F0DC
:104020007FFF2E4902F0C8FE2B4902F0C5FE014673
:10403000384602F0C1FE02463146284600F0DEFF57
:10404000BDF80A0002F060FE224902F069FF214932
:1040500002F066FF204902F0AFFE01466668304676
:1040600002F0AAFE0446BDF80C0002F04DFE19490C
:1040700002F056FF174902F053FF164902F050FFB5
:10408000164902F099FE144902F096FE01463046A8
:1040900002F092FE0546BDF80E0002F035FE0D4915
:1040A00002F03EFF0B4902F03BFF0A4902F038FFE5
:1040B0000A4902F081FE084902F07EFE01463046C0
:1040C00002F07AFE02462946204600F09FFF05B026
:1040D000F0BD00BF00007A440000A0400000204175
:1040E00010B590B04022C11C684603F071F800245E
:1040F0000EE004EB440110AB03EB4101BDF80230CC
:1041000031F8382C31F83A1CC0B201F0B3FB01345D
:10411000BDF80030A3422FDD04EB440310AA02EBEC
:10412000430333F83C0C154AA2FB003214494B6997
:1041300013F4807F0CBF02230023496911F0100F94
:1041400008BF43F001030133B3EBD20FDFD1D30833
:1041500003EB8303A0EB430080B20528C9D804EB2E
:10416000440310AA02EB4303BDF8022033F83A1CC3
:10417000C0B201F059FDCAE710B010BDCDCCCCCC17
:1041800020C0092000B583B00122C11C01A803F0A2
:104190001FF89DF80420024B1A7003B05DF804FB71
:1041A0001A060010014B1878704700BF1A0600105D
:1041B00000B583B00122C11C01A803F009F89DF8E5
:1041C000040000F023FC03B05DF804FB00B583B0ED
:1041D0000222C11C01A802F0FBFF9DF80410002080
:1041E000FEF7C8F99DF805100120FEF7C3F903B0EA
:1041F0005DF804FB00B583B00122C11C01A802F0E8
:10420000E7FF9DF80400FEF735FC03B05DF804FB02
:1042100000B583B00122C11C01A802F0D9FF9DF8AE
:104220000400FEF773F803B05DF804FB00B587B037
:104230001822C11C684602F0CBFF684600F0C4FBA0
:1042400007B05DF804FBFFFF2DE9F84307468946F8
:1042500016469846089C21464FF07E5002F0A2FC7C
:104260000546394602F0A8FD0146284602F0A4FDA5
:104270000146284602F0A0FD07461A49484602F0CA
:104280009BFD214602F098FD0146284602F094FD70
:104290000146284602F090FD394602F085FC0746AB
:1042A0001049404602F088FD214602F085FD214676
:1042B00002F082FD0146284602F07EFD394602F0FA
:1042C00073FC05463146204602F076FD214602F099
:1042D00073FD214602F070FD294602F065FCBDE841
:1042E000F88300BF000040402DE9F04F91B0054633
:1042F00000230B930D93B0F9000002F009FD064670
:10430000B5F9120002F004FD04460146304602F001
:1043100007FE8146B5F9020002F0FAFC0746B5F93E
:10432000140002F0F5FC06460146384602F0F8FD9E
:104330008046B5F9040002F0EBFC214602F0F0FDE6
:104340008346B5F9060002F0E3FC314602F0E8FDD1
:104350000390B5F9080002F0DBFC214602F0E0FD15
:104360000490B5F90A0002F0D3FC314602F0D8FD02
:104370000590B5F90E0002F0CBFC314602F0D0FDFD
:104380008246B5F90C0002F0C3FC214602F0C8FDDC
:104390000690687C02F0B8FC01464FF07E5002F0B7
:1043A000BFFD07902B7C002B40F08C8007238DF8FD
:1043B00038301E238DF827304FF47A73ADF824304F
:1043C00005238DF826300998CDF83A00B5F9083064
:1043D000ADF83030B5F90A30ADF832305E4C00231C
:1043E00084F8E833B5F9120002F092FC494602F075
:1043F000E3FC02F0CDFE2080B5F9140002F088FC49
:10440000414602F0D9FC02F0C3FE608001238DF822
:104410003930079C4FF07E51204602F06BFE002899
:1044200054D00094069B049A59464846FFF70CFF67
:104430000646B5F9120002F06BFC314602F0BCFCF6
:10444000074600945346059A03994046FFF7FCFE41
:104450000646B5F9140002F05BFC314602F0ACFCF4
:104460000646384602F06EFEADF82800304602F0EF
:1044700069FEADF82A000AA800F0A4FD364A92F8B9
:10448000E833BDF8280003EB830602EB4606B08054
:10449000BDF82A10F18003EB830602EB46060227E3
:1044A00037720133DBB282F8E83303EB830622F87C
:1044B000160002EB460359800799204602F074FB70
:1044C0000446A7E708238DF8383072E700238DF8FB
:1044D00039304FF07E540094069B049A5946484662
:1044E000FFF7B2FE0646B5F9120002F011FC3146A4
:1044F00002F062FC064600945346059A0399404632
:10450000FFF7A2FE0446B5F9140002F001FC2146B3
:1045100002F052FC0446304602F014FEADF82800CA
:10452000204602F00FFEADF82A000AA800F04AFD6E
:10453000094A92F8E833BDF8280003EB830122F81A
:104540001100BDF82A1003EB830302EB43035980EB
:1045500011B0BDE8F08F00BF2006001010B5044672
:10456000084602F0D5FB206010BD10B50446084691
:1045700002F0CEFB606010BD016201F100414162BA
:1045800070472DE9F041044647683946006802F05B
:1045900009FB05463946A06A02F004FB80466169C2
:1045A000284602F001FB6061A669314602F0C0FDB9
:1045B00000B1666106F100463146606902F09AFD7D
:1045C00000B166610021284602F0B2FD002841D00A
:1045D0000021606902F08EFD002838D1267F29462F
:1045E000A06802F0E9FB05464146206902F0E4FBC1
:1045F0000146284602F0D8FA0546D4F838803046FD
:1046000002F086FB414602F0D7FB0146284602F045
:10461000CBFA05466169E06802F0CEFB294602F05C
:10462000C3FA054694F8343003B90025266A2946B2
:10463000304602F05FFD30B9666A2946304602F026
:1046400077FD00B92E46A663A762BDE8F08100237E
:104650006361C3E70021284602F04CFD0028BDD06D
:104660000021606902F064FD0028B7D00023636177
:10467000B4E738B50446056A2946806B02F058FD58
:1046800000B1A563656A2946A06B02F033FD00B155
:10469000A56338BDF8B5044645682946006802F0B0
:1046A00081FA0646A16A284602F07CFA074661694B
:1046B000304602F079FA054660613146A06802F0A2
:1046C0007BFB06463946206902F076FB314602F054
:1046D0006BFA0646E168284602F06EFB314602F0AE
:1046E00063FA94F8343003B90020A0632046FFF742
:1046F000C0FF6368A362F8BD90B58FB000AFF860EB
:10470000B9607A60BB685B688D4A1360BB681B68E0
:104710008C4A13608A4B1A688A4B1B681344DA0F61
:1047200013445B101A46884B1A60FB681C69844B63
:104730001A68844B1B68D31A184602F0E9FA03463C
:104740001946204602F030FA0346184602F0FAFCF9
:1047500003467E4A13607C4B1A687D4B1B68D31A54
:104760003B637A4B1A687B4B1B68D31AFB62774B0F
:104770001A68784B1B681344DA0F13445B10BB6252
:10478000F86A02F0C5FA02467B685B681946104673
:1047900002F0C6FB03467B62B86A02F0B9FA024631
:1047A0007B685B681946104602F0BAFB03463B6221
:1047B000FB6A002B03D14FF07E537B6315E04FF073
:1047C0008041786A02F0ACFB0346184604F0FEFD17
:1047D00004464FF08041786A02F0A2FB0346194676
:1047E000204602F09DFB03467B63386B02F090FA93
:1047F0000346796B184602F0DFFA03461C46386A16
:1048000004F0A4FD03461946204602F0D5FA0346FB
:10481000FB61386B02F07CFA0346796B184602F0B4
:10482000CBFA03461C46386A04F0D0FD034619460D
:10483000204602F0C1FA0346BB614FF00001B8699F
:1048400002F0BAFA03467B614FF00001F86902F00A
:10485000B3FA03463B617969F86902F0A5F90346AA
:10486000FB613969B86902F09FF90346BB61FB68D7
:104870001C687B681B681946F86902F051FB034607
:104880001946204602F090F903461A46FB681A6062
:10489000FB685C687B681B681946B86902F040FBDE
:1048A00003461946204602F07FF903461A46FB6884
:1048B0005A60FB683A6A9A6009E0FB689B6826497F
:1048C000184602F06FF903461A46FB689A60FB68C7
:1048D0009B682249184602F02BFC0346002BECD1C2
:1048E00009E0FB689B681C49184602F05DF9034625
:1048F0001A46FB689A60FB689B681949184602F0E3
:10490000F9FB0346002BECD1FB689B681549184660
:1049100002F052FA03461149184602F001FB034621
:104920001A46FB68DA60094B1B680A4A1360064B9B
:104930001B68074A136000BF3C37BD4690BD00BFEF
:104940000C0A0010100A0010140A0010180A0010B7
:104950001C0A0010200A0010DB0FC940DB0F494081
:10496000DB0F49C00000344338B50B4C0FC884E856
:104970000F004FF07C51A06802F01EFA04464FF081
:104980007E5102F011F9054D686121464FF07E50CD
:1049900002F008F9286138BD3C0A0010240A001012
:1049A000004870473C0A001070B406460446054DA6
:1049B0000FCD0FC495E8030084E80300304670BCB7
:1049C000704700BF4C0A001070B50D4E35460446C6
:1049D0000FCC0FC594E8030085E80300094B596824
:1049E000B06802F0E9F90446074B58681B68C01A22
:1049F00002F08EF90146204602F0D4F8306170BD15
:104A00004C0A00103C0A0010240A0010014B1873D5
:104A1000704700BF3C0A0010024B187B003818BFDB
:104A2000012070473C0A0010014B1875704700BF09
:104A30004C0A001000B583B0102200210C4802F08F
:104A4000D5FB182200210B4802F0D0FB18220021D0
:104A5000094802F0CBFB0023019304220092A0221C
:104A600006490748FCF7BEFE03B05DF804FB00BF33
:104A70003C0A00104C0A0010240A001074AF010018
:104A8000854A010000B585B0FCF780FF039003E084
:104A9000642103A8FDF770F8104B5B7B032BF7D064
:104AA00001A8FDF7EBFE0E4C6569019802F030F9A4
:104AB000294602F081F902F045FB60602569029801
:104AC00002F026F9294602F077F902F03BFB20605C
:104AD000024A21460348FFF70FFED9E73C0A0010BF
:104AE000240A00104C0A001000B583B03C220021BB
:104AF0000E4802F07BFB3C2200210D4802F076FBC1
:104B00003C2200210B4802F071FB3C2200210A48A4
:104B100002F06CFB002301930322009278220749E4
:104B20000748FCF75FFE03B05DF804FB640A001061
:104B3000A00A0010DC0A0010180B001084AF01005E
:104B4000A54B010000487047640A001000487047F8
:104B5000A00A001000487047DC0A001000487047A7
:104B6000180B001008B501460148FFF7F7FC08BD17
:104B7000640A001008B501460148FFF7EFFC08BDC4
:104B8000A00A001008B501460148FFF7E7FC08BD80
:104B9000DC0A001008B501460148FFF7DFFC08BD3C
:104BA000180B001000B583B00446FCF7EFFE01902F
:104BB00006E0204600F014F9322101A8FCF7DCFFE2
:104BC000FFF7EEFE437B002BF3D0013BDBB2012B62
:104BD00007D8204600F00AF8322101A8FCF7CCFFE4
:104BE000EEE7322101A8FCF7C7FFE9E7F0B583B093
:104BF0006846FDF743FE009870490D68451B019A11
:104C00006F4B1E68961B08601A606E4C2946204642
:104C1000FFF7ABFC2046FFF7B4FC6B4C3146204657
:104C2000FFF7A3FC2046FFF7ACFCA76B216A3846D0
:104C300002F074FA20B9616A384602F065FAF0B100
:104C4000304602F065F804F0BDFB04465E4B186880
:104C500004F0B8FB4FF07C5102F0AEF8014620465C
:104C600002F048FA002800F08E80584C206802F0CC
:104C70004FF8574901F098FF02F064FA2060514B59
:104C80009C6B196A204602F049FA28B94D4B596AC3
:104C9000204602F039FAE8B1284602F039F804F06B
:104CA00091FB0446474B186804F08CFB4FF07C5195
:104CB00002F082F80146204602F01CFA002866D075
:104CC000424C206802F024F8414901F06DFF02F0E7
:104CD00039FA20603D4B1B68B3F5FA6F5BDD0120AC
:104CE000FFF7A2FEFFF798FE002858D1354B9E6BC8
:104CF000354B9D6B3749304602F01AFA00B1354EFC
:104D00003549304602F0F6F900B1334E31492846B4
:104D100002F00EFA00B12F4D2F49284602F0EAF9B1
:104D200000B12D4D284604F04DFB02F031FA024649
:104D30002A4C00212046FDF7C1FB304604F042FB1F
:104D400002F026FA024601212046FDF7B7FB4FF09C
:104D500001040021304602F0E1F908B94FF00004E7
:104D6000E4B284F001044FF001060021284602F06D
:104D7000D5F908B94FF00006214606F00100FDF70D
:104D8000DFFB03B0F0BD114B00221A6077E70F4B39
:104D900000221A609EE70020FFF746FEA2E7094BBB
:104DA0009D6B094B986B02F0CDF90446284602F042
:104DB000C9F92146FDF76CFDE3E700BF580B001071
:104DC000600B0010DC0A0010180B0010540B0010D0
:104DD0000000A0400000C8420000C8C20000094016
:104DE00070B582B06846FDF749FD009E4B480568E6
:104DF000751B019A4A4B1C68141B291906601A601E
:104E0000484E41F34F013046FFF7AFFB3046FFF706
:104E100041FC454E291B3046FFF7A7FB3046FFF704
:104E200039FCFFF7F9FD002855D13E4B9C6BB66B62
:104E30003146204601F0B8FE05463146204601F0D5
:104E4000B1FE04463949284602F072F900B1374DE7
:104E50003749284602F04EF900B1354D3349204616
:104E600002F066F900B1314C3149204602F042F9B6
:104E700000B12F4C204604F0A5FA02F089F9024651
:104E80002C4E00213046FDF719FB284604F09AFA13
:104E900002F07EF9024601213046FDF70FFB4FF08C
:104EA00001060021284602F039F908B94FF0000642
:104EB000F6B286F001064FF001050021204602F00F
:104EC0002DF908B94FF00005314605F00100FDF756
:104ED00037FB02B070BD134B9C6B134B9E6B31467E
:104EE000204601F061FE05463146204601F05AFE9B
:104EF00004464FF07C51284601F05EFF05464FF016
:104F00007C51204601F058FF02F01CF90446284667
:104F100002F018F92146FDF7BBFCDAE75C0B001044
:104F2000640B0010640A0010A00A00100000C842C0
:104F30000000C8C20000094000B583B03C22002137
:104F4000124802F053F93C220021114802F04EF9B8
:104F50000123104A1376104A1376162200210F48B7
:104F600002F044F9802316220D490E4801F0B8F9E9
:104F70000D4B019303230093002364220B490C483B
:104F8000FCF730FC03B05DF804FB00BFB80B001069
:104F9000F40B0010800B00109C0B0010680B00102D
:104FA000300C0010301700104417001094AF0100AF
:104FB000B554010000487047B80B00100048704716
:104FC000F40B001008B50146014801F091F908BD45
:104FD0003017001008B5034801F040FA024B0022D8
:104FE0001A7408BD30170010680B001010B50C467D
:104FF000FFF7B8FD2046FFF7BDFD10BD024B19605D
:105000005A609860704700BF800B001038B50546A5
:105010001046044C2160114601F0C6FD6060A56099
:1050200038BD00BF9C0B0010014BD860704700BF1B
:10503000800B0010014BD860704700BF9C0B001024
:1050400070B50C4615461E46B0F9040001F060FE2E
:10505000164901F065FFA16801F0A4FD0446A87897
:1050600001F052FE114901F05BFF0546204604F0B5
:10507000A9F9294602F048F830B100230C4A13611F
:105080000C4A1361012070BD00252846FFF7CCFFB4
:105090002146706801F090FEFFF7CCFF044B1D61C4
:1050A000044B4FF07E521A610020ECE70000C8422A
:1050B000800B00109C0B001008B501F075F908BDBD
:1050C00008B50249024801F06FF908BD680B0010ED
:1050D0003017001070B50E461D460146104601F00F
:1050E00061FD014601F068FE04463146284601F0A4
:1050F00059FD014601F060FE0146204601F054FDD5
:1051000004F0A4F970BDFFFF70B50E461D460146C0
:10511000104601F047FD04463146284601F042FDA5
:105120000646204601F092FC04460D46304601F04A
:105130008DFC22462B4604F087F901F0DFFC044683
:105140000B4901F0F5FF30B10A49204601F02AFD74
:105150000446204670BD0849204601F0CBFF0028D8
:10516000F7D00449204601F01FFD0446F1E700BFD7
:10517000DB0F4940DB0FC940DB0F49C02DE9F84F79
:1051800005460C4617469846B0F90090B0F9020063
:1051900001F0BEFD0646484601F0BAFD0246334620
:1051A00061682068FFF796FF0646B5F908A0B5F9D3
:1051B0000A0001F0ADFD8146504601F0A9FD02460E
:1051C0004B4661682068FFF785FF8246B5F900B05D
:1051D000B5F9020001F09CFD8146584601F098FDAA
:1051E00002464B4661682068FFF78EFFA16801F018
:1051F000D9FC04467F4901F09BFF002851D07E492D
:10520000204601F0CFFC04462B7C022B55D0082B06
:1052100053D0304604F0D6F88146388801F074FD4A
:10522000764901F07DFE0146484601F063FF002803
:1052300069D00020724B1861FFF7FCFE4FF00109A6
:10524000B9F1000F2AD12B7C073BDBB2012B00D92F
:10525000B2465146D8F8000001F0AEFDFFF7E4FE7B
:105260002146D8F8040001F0A7FDFFF7E3FEF87827
:1052700001F04AFD614901F053FE0546204604F065
:10528000A1F8294601F040FF002840F089805D4BDD
:1052900000221A615A4B4FF07E521A614846BDE80F
:1052A000F88F5949204601F025FF0028ACD052491B
:1052B000204601F079FC0446A6E75449204601F057
:1052C00037FF20B95249204601F014FF08B106F11A
:1052D00000464849204601F067FC0446454901F074
:1052E00027FF20B14449204601F05CFC04464649B2
:1052F000204601F0FFFE00288BD03F49204601F0F8
:1053000053FC044685E7304604F05CF88146388853
:1053100001F0FAFC3F4901F04FFD384901F000FE71
:105320000146484601F0E6FE78B32B7C012B04D001
:10533000022B16D04FF0000982E73449204601F0D5
:10534000F7FE20B93249204601F0D4FE00B306F141
:1053500000462849204601F027FC00244FF00009B0
:105360006EE72A49204601F0E3FE20B9284920468D
:1053700001F0C0FE80B106F100461E49204601F052
:1053800013FC00244FF000095AE74FF0000957E7DB
:1053900000244FF0000953E700244FF000094FE7C5
:1053A000204604F00FF80146284601F0FBFB294691
:1053B00001F0B6FD0646134B18612946204601F060
:1053C000AFFD04460E4B18610021304601F092FEFD
:1053D00058B90021204601F08DFE00283FF45EAF51
:1053E00004F10044064B1C6158E706F10046054BEA
:1053F0001E61EEE7DB0F4940DB0FC9400000C842E9
:105400009C0B0010800B0010DB0F49C0DB0FC93F65
:10541000DB0FC9BF0000404038B505460C4601F01F
:1054200069FE08B9204638BD2846FCE7F8B5037E7A
:10543000002B3CD004460D4616460168406901F039
:10544000B3FB0746E6B1A668A1683846FFF7E4FF5C
:105450003146FFF7E1FF6061E06801F073FE01464D
:105460002846FFF77BF82169606901F0A5FC014639
:105470002846FFF781F82169606901F09DFCF8BDBD
:105480006068014601F090FB06466968E06801F03B
:1054900089FB03F097FF0146304601F08DFC4FF089
:1054A0007C5101F089FC03F0D1FF0646CCE70020D7
:1054B000E5E7FFFF2DE9F0418EB03220FCF78CFBD1
:1054C000FCF764FA0D9045E06846FFF76DFA07AD0A
:1054D0006C460FCC0FC594E8030085E80300FFF786
:1054E0005FFA0346A04800F1120207A9FFF7A8FDE2
:1054F00000284BD000242046FFF796FD2046FFF7FA
:1055000099FD9A4F3C619A4E3461FFF753FD054671
:10551000002201463846FFF789FFFFF74FFD04469A
:10552000002201463046FFF781FF2846FFF729F8A1
:105530002046FFF726F88C498E48FFF7BDFDFFF7A0
:105540002FFA437B012B3FD05AB29AB3023BDBB216
:10555000012B2FD864210DA8FCF70EFB824B1B7C7E
:10556000013B072B40D801A252F823F04956010015
:1055700049560100C9540100555501005555010017
:10558000555501004956010049560100FFF716FD27
:1055900004460021FEF7E9FF734B5A7C214674480C
:1055A000FFF744FFFFF706FDFEF7EBFF2046FEF78F
:1055B000E8FFC4E7FFF702FD806B01F0C3FD014681
:1055C0000020FFF713FDC5E7FFF7F8FC0446806BEA
:1055D00000F1004001F0B6FDFFF7DCFAA06B01F02E
:1055E000B1FDFFF7CFFAB5E700242046FFF71CFD19
:1055F0002046FFF71FFD5D4F3C615D4E3461FFF7B4
:10560000D9FC0546002201463846FFF70FFFFFF799
:10561000D5FC0446002201463046FFF707FF284626
:10562000FEF7AFFF2046FEF7ACFF00210846FFF76C
:10563000DDFC0020FFF7AEFA0020FFF7A3FA4A498D
:105640004C48FFF739FD85E76846FFF7ADF907AD30
:105650006C460FCC0FC594E8030085E80300FFF704
:105660009FF90346404800F1120207A9FFF786FDA3
:10567000002843D000242046FFF7D6FC2046FFF741
:10568000D9FCDFF8E880C8F81040394F3C61FFF7DB
:1056900091FC0546344E727C01464046FFF7C6FE3B
:1056A000FFF78CFC0446727C01463846FFF7BEFECD
:1056B0002846FEF766FF2046FEF763FF31462D4879
:1056C000FFF7FAFCFFF76CF9437B012B34D05AB299
:1056D00022B1023BDBB2012B7FF63CAFFFF76AFC45
:1056E000856BFFF76BFC806B01F02CFD04462846B0
:1056F00001F028FD2146FFF779FC2BE7FFF75AFC64
:1057000005460021FEF731FFFFF758FC0446002153
:10571000FEF72BFF144E727C29461448FFF786FED5
:10572000727C21461248FFF781FE2846FEF729FFCA
:105730002046FEF726FFC5E7FFF73CFC0446866BD4
:10574000FFF73CFC0546816B304601F02BFA01F077
:10575000F9FCFFF71FFAA96BA06B01F025FA01F025
:10576000F1FCFFF70FFAF5E6680B0010800B001054
:105770009C0B0010301700107047FFFF70B582B00F
:10578000002248210220FBF70FFD0E4D28600E4C31
:105790002146FBF76DFE00260196012300932B683E
:1057A000642204F118010948FCF71CF80196022351
:1057B00000932B68642204F124010548FCF712F8D9
:1057C00002B070BD90170010ACAF01002D58010061
:1057D000D557010008B504463220FCF7FDF907E073
:1057E0000F4BDB78B3B920210E4B1868FBF7B7F9E4
:1057F0004FF0FF320A492046FBF7B4FD0028F7D0EE
:10580000074B5B78022BEBD048220549064801F094
:10581000DFFCEDE74021034B1868FBF7A0F9E7E751
:105820004C060820840500104817001000B583B00E
:1058300004463220FCF7D0F994B14FF0FF330093C7
:1058400000230122102109480068FBF71DF90848D0
:1058500000F000FE0028F0D02046FDF71BF9F6E727
:10586000FCF704FBFBF7F0FFE7E700BF840500103F
:105870004C0400102DE9F0410E46174698460538B5
:10588000C4B2204600F09AF8301A01F041FA0D49EE
:1058900001F092FA0546404601F03AFA01462846E0
:1058A00001F03EFB084901F03BFB084901F038FBE1
:1058B00001F06EFC3B4682B23146204600F02EF8E5
:1058C000BDE8F081E17A943E00007A44FA7E2A3FF6
:1058D00030B583B005460C4660210F4B1868FBF7C6
:1058E00031F92846FDF764F90CB903B030BD002446
:1058F0006423009300230122202107480068FBF75E
:10590000C3F80028F1D12846FDF752F90134E4B27A
:10591000032CEDD9E9E700BF8405001090B59BB0DA
:1059200000AF0446084611461A462346FB7103465B
:10593000BB800B467B8013463B80BB881B0A9BB217
:105940007B66BB88DBB23B667B881B0A9BB2FB6530
:105950007B88DBB2BB653B881B0A9BB27B653B88BF
:10596000DBB23B65FB793B7209237B720323BB727D
:105970001E23FB723B6EDBB23B737B6EDBB27B7331
:10598000BB6DDBB2BB73FB6DDBB2FB733B6DDBB29C
:105990003B747B6DDBB27B7448220021064801F02A
:1059A00025FC07F1080301211846FFF791FF00BF0E
:1059B0006C37BD4690BD00BF4817001080B596B04B
:1059C00000AF0346FB710023A7F85630FB793B7309
:1059D00004237B730223BB732423FB7302233B74D6
:1059E000482200210F4801F001FC07F10C030121BE
:1059F0001846FFF76DFF0B4B1B79A7F85630B7F829
:105A000056301B02A7F85630064BDB789AB2B7F82F
:105A100056301344A7F85630B7F856301846583762
:105A2000BD4680BD4817001080B485B000AF034666
:105A30000A46FB711346BB71BB79FB60FB681B0216
:105A4000FB60FB79FA681344FB60FB681846143767
:105A5000BD4680BC7047FFFF80B596B000AF0346DF
:105A60003960FB71002387F85730FB793B730423BF
:105A70007B730223BB732423FB7308233B744822EC
:105A80000021484801F0B2FB07F10C030121184640
:105A9000FFF71EFF434B5B78002B01D100237DE015
:105AA00097F857303F4A1344DA7897F85730013364
:105AB0003C490B44DB7819461046FFF7B5FF034617
:105AC0009AB23B685A8097F857300233354A1344EC
:105AD000DA7897F85730033332490B44DB781946AC
