:020000021000EC
:100000000080001045010100090101000B01010001
:100010000D0101000F0101001101010000000000AD
:10002000000000000000000000000000D10E0100F0
:100030001301010000000000310F0100750F0100E5
:1000400015010100B5240100C92401007924010033
:100050001501010015010100C1320100552D0100FB
:100060001501010015010100150101001501010034
:100070001501010015010100150101001501010024
:100080001501010015010100A1290100B12901009C
:10009000C1290100D128010015010100150101004D
:1000A00015010100150101001501010015010100F4
:1000B00015010100150101001501010015010100E4
:1000C00015010100150101001501010038B30100FF
:1000D00000000010EC01000038B3010000C0072050
:1000E0000000000038B3010000C807200000000035
:1000F000EC010010A408000000C007200000000070
:1001000000C80720C83E0000FEE7FEE7FEE7FEE766
:10011000FEE7FEE7FEE70023934209D210B450F851
:10012000044B41F8044B04339342F8D310BC70479E
:10013000704700238B4204D2002240F8042B043382
:10014000F8E7704710B572B60E4B07E003F10C04E8
:100150009A6859681868FFF7DEFF23460A4A9342F7
:10016000F4D306E01C46596854F8080BFFF7E1FF8A
:100170002346064A9342F5D300F0DAFB00F0BCFBBD
:10018000FEE700BFCC000100F00001000801010003
:10019000FEE7FEE7FEE700BFFFFFFFFFFFFFFFFFF9
:1001A000FFFFFFFFFFFFFFFFFFFFFFFFFFFFFFFF5F
:1001B000FFFFFFFFFFFFFFFFFFFFFFFFFFFFFFFF4F
:1001C000FFFFFFFFFFFFFFFFFFFFFFFFFFFFFFFF3F
:1001D000FFFFFFFFFFFFFFFFFFFFFFFFFFFFFFFF2F
:1001E000FFFFFFFFFFFFFFFFFFFFFFFFFFFFFFFF1F
:1001F000FFFFFFFFFFFFFFFFFFFFFFFFFFFFFFFF0F
:10020000FFFFFFFFFFFFFFFFFFFFFFFFFFFFFFFFFE
:10021000FFFFFFFFFFFFFFFFFFFFFFFFFFFFFFFFEE
:10022000FFFFFFFFFFFFFFFFFFFFFFFFFFFFFFFFDE
:10023000FFFFFFFFFFFFFFFFFFFFFFFFFFFFFFFFCE
:10024000FFFFFFFFFFFFFFFFFFFFFFFFFFFFFFFFBE
:10025000FFFFFFFFFFFFFFFFFFFFFFFFFFFFFFFFAE
:10026000FFFFFFFFFFFFFFFFFFFFFFFFFFFFFFFF9E
:10027000FFFFFFFFFFFFFFFFFFFFFFFFFFFFFFFF8E
:10028000FFFFFFFFFFFFFFFFFFFFFFFFFFFFFFFF7E
:10029000FFFFFFFFFFFFFFFFFFFFFFFFFFFFFFFF6E
:1002A000FFFFFFFFFFFFFFFFFFFFFFFFFFFFFFFF5E
:1002B000FFFFFFFFFFFFFFFFFFFFFFFFFFFFFFFF4E
:1002C000FFFFFFFFFFFFFFFFFFFFFFFFFFFFFFFF3E
:1002D000FFFFFFFFFFFFFFFFFFFFFFFFFFFFFFFF2E
:1002E000FFFFFFFFFFFFFFFFFFFFFFFFFFFFFFFF1E
:1002F000FFFFFFFFFFFFFFFFFFFFFFFFFFFFFFFF0E
:100300007047FFFF024A936943F00103936170470E
:1003100040C00920024AD36943F00103D36170470A
:1003200040C00920024AD36943F08003D36170477B
:1003300040C0092008B5234B1A6922F003021A6154
:100340001A6D22F0030242F008021A651A6922F4BB
:1003500040421A611A6D22F4404242F400321A659A
:10036000194B1A6842F001021A601A6842F08002C2
:100370001A60FFF7CFFFFFF7D5FF02F01DFA02F07A
:100380003BF802F003F801F0E1FF05F0A7F902F0F5
:10039000D7FD02F01DFB04F08BFF03F02FF802F0F5
:1003A00063FF03F0E1F903F06FFA03F047FC04F098
:1003B00073F904F0CBF904F081FB04F077FF05F04A
:1003C0004FFA08BD00C0024040C0092008B54FF0F8
:1003D000402005F067FE4FF0402302225A600022C1
:1003E0005A6040F6FF12DA6001225A6008BDFFFF32
:1003F00080B598B002AF734BBB61734BFB61734B1D
:100400003B62012387F82430002387F8253007F169
:100410001803184604F0E6F86D4B7B606D4BBB602B
:100420004FF00003FB604FF000037B614FF00003CF
:100430003B613B1D184604F003F997F82430012B6B
:1004400040F0D88004F0BCF9F86304F0B5F9B86363
:10045000FB6B012283F83420FB6B4FF07E529A60D5
:10046000FB6B4FF00002DA60FB6B4FF000021A6189
:10047000FB6B4FF000029A61FB6B574A1A62FB6BF1
:10048000564A5A62FB6B01221A77BB6B012283F832
:100490003420BB6B4FF07E529A60BB6B4FF0000272
:1004A000DA60BB6B4FF000021A61BB6B4FF00002C9
:1004B0009A61BB6B484A1A62BB6B484A5A62BB6B73
:1004C00001221A7704F070F9786304F071F9386347
:1004D0007B6B012283F834207B6B4FF07E529A6055
:1004E0007B6B4FF00002DA607B6B4FF000021A6109
:1004F0007B6B4FF000029A617B6B394A1A627B6B0F
:10050000384A5A627B6B01221A773B6B012283F8CF
:1005100034203B6B4FF07E529A603B6B4FF00002F1
:10052000DA603B6B4FF000021A613B6B4FF0000248
:100530009A613B6B2A4A1A623B6B2A4A5A623B6BAE
:1005400001221A7704F0F8FAF86204F0F9FAB862B6
:10055000FB6A012283F83420FB6A4FF07E529A60D6
:10056000FB6A4FF00002DA60FB6A1F4A1A61FB6AFD
:100570004FF000029A61FB6A1C4A1A62FB6A1C4A2D
:100580005A62FB6A00221A77BB6A012283F8342080
:10059000BB6A4FF07E529A60BB6A4FF00002DA608D
:1005A000BB6A114A1A61BB6A4FF000029A61BB6ACA
:1005B0000E4A1A62BB6A0E4A5A62BB6A00221A7756
:1005C000CBE000BF6666E841008CAB457CF230BBF7
:1005D00000007A4300007A440000F0410000F0C1BE
:1005E00000004842000048C20AD7233C00002041D6
:1005F000000020C104F0E4F8786504F0DDF8386507
:100600007B6D012283F834207B6D624A9A607B6D9A
:100610004FF00002DA607B6D5F4A1A617B6D4FF02C
:1006200000029A617B6D5D4A1A627B6D5C4A5A6278
:100630007B6D01221A773B6D012283F834203B6DDC
:10064000544A9A603B6D4FF00002DA603B6D554AA8
:100650001A613B6D4FF000029A613B6D4F4A1A627E
:100660003B6D4F4A5A623B6D01221A7704F09CF8A9
:10067000F86404F09DF8B864FB6C012283F8342020
:10068000FB6C4FF07E529A60FB6C474ADA60FB6C61
:10069000464A1A61FB6C4FF000029A61FB6C3F4ABC
:1006A0001A62FB6C3E4A5A62FB6C00221A77BB6CE2
:1006B000012283F83420BB6C3D4A9A60BB6C3A4AF5
:1006C000DA60BB6C3B4A1A61BB6C4FF000029A6166
:1006D000BB6C324A1A62BB6C314A5A62BB6C012253
:1006E0001A7704F029FA786404F02AFA38647B6CEB
:1006F000012283F834207B6C2F4A9A607B6C4FF088
:100700000002DA607B6C2D4A1A617B6C4FF00002AC
:100710009A617B6C2A4A1A627B6C2A4A5A627B6C09
:1007200000221A773B6C012283F834203B6C264A66
:100730009A603B6C4FF00002DA603B6C1F4A1A6112
:100740003B6C4FF000029A613B6C1D4A1A623B6C95
:100750001C4A5A623B6C00221A774FF07E524FF0CF
:100760007E511A4804F00CFA4FF080424FF080415D
:10077000164804F00DFA002301930123009300238F
:1007800064221349134801F03DF800BF5837BD46B5
:1007900080BD00BF7B14AE3DCDCC0C3F0000F041CE
:1007A0000000F0C1AE47613DCDCC4C3DCDCC4C3CC2
:1007B0009A99193FCDCCCC3C8FC2F53C6666663F1A
:1007C00000002041000020C10AD7233C0000A041C6
:1007D00028A90100D907010010B590B047F23050A8
:1007E00001F00AFA01F0E2F80F9032210FA801F0AF
:1007F000D3F900238DF8043003F0E2FF436802933D
:1008000001248DF80C4003F0D7FF436804930223C2
:100810008DF8143004F090F90368069303238DF8E3
:100820001C3004F089F90368089304238DF8243000
:1008300004F082F943680A9305238DF82C3004F004
:100840007FF903680C9306238DF8343004F078F9AF
:1008500043680E9307238DF800302146684603F065
:100860009DF9C2E710B5084C2146084805F0AAFBDF
:10087000204605F0EFFC05F06FF905F0F1FC0448A7
:1008800000F068FA10BD00BF0024F4000020A107AA
:100890000000001010B5174B1A6842F480421A602D
:1008A0001A6842F400421A601A6842F480321A60F0
:1008B000DA6942F48032DA61DA6942F40042DA61DC
:1008C000DA6942F48042DA6100240AE0094A936955
:1008D00043F48043936184F0010442F2107001F00C
:1008E0008BF9002CF2D1034AD36943F48043D361DE
:1008F000F1E700BF20C0092010B582B0FFF7B2FFBA
:10090000FFF718FD002301930124009432220649C9
:10091000064800F077FFFFF76BFD62B601F006F8BE
:10092000204602B010BD00BF30A9010095080100AB
:1009300008B5034A034B1A6005F0B2FB08BD00BFBF
:100940000000010008ED00E038B50A46454C464974
:10095000204606F02BFE382384F84830FE2384F826
:100960004930022384F89230062384F891302046DF
:1009700006F03CFE3B2832D93B233A4880F89030C1
:1009800006F034FE3B282FD93B22364C214604F199
:10099000930006F095F93E2384F84A30402204F192
:1009A000900104F14B0006F08BF90A23A4F88C3077
:1009B00004F1480002F00EFF014604F1D0054D227B
:1009C000284606F07DF98022294604F5907006F04D
:1009D00077F90321022002F052FB00230BE02046AE
:1009E00006F004FEC3B2C8E71E4806F0FFFD02464B
:1009F000CBE700BF013340F6B7329342F9DD032164
:100A0000022002F031FB00220FE000BF01330F2B68
:100A1000FBDD164B5B6913F0260F05D100230F2B6E
:100A2000F7DC00BF0133FAE701324C2A07DC0D4B3B
:100A3000134493F820110D4B19600023E7E70023BE
:100A400001E000BF0133632BFBDD0321022002F034
:100A500016FB4FF0280383F31188BFF36F8FBFF3AA
:100A60004F8FFEE70000082040A901000000014070
:100A70001AB9084206D11046704731EA000303D084
:100A800000207047012070470120704710B51820E2
:100A900000F0D4F8044620B1002340F8043B00F0F5
:100AA0009BF9204610BDFFFF2DE9F84306460D4691
:100AB00090461F46DDF8209000F070FF34683A46FB
:100AC00029462046FFF7D4FF40B1B8F1000F19D0F6
:100AD00024EA050333604FF0000915E0B9F1000F77
:100AE00012D0B8F1000F0AD100210FB141F080619E
:100AF0004A462943301D01F0FDF8002404E04FF080
:100B00008071F2E74FF0000900F0D6FFB9F1000F55
:100B100010D038B9124B4FF080521A60BFF34F8F8C
:100B2000BFF36F8F01F008FA044610F0007F04D085
:100B300024F07F442046BDE8F88300F0DBF93468F8
:100B40003A4629462046FFF793FF28B1B8F1000F37
:100B500002D024EA0505356000F0DCF9E8E700BFC3
:100B600004ED00E070B505460C4600F0C3F92E68B0
:100B700026EA04042C6000F0CDF9304670BDF8B5CB
:100B800004460D4600F10C0600F008FF20692368BA
:100B90002B43236000270AE0216832EA010105D1D6
:100BA00011E0216841F0007101F004F92846B042DB
:100BB0000ED04568036823F07F4213F0806FEBD1BD
:100BC00021681142F2D013F0807FEAD01743E8E7A2
:100BD000236823EA0707276000F06EFF2068F8BD4E
:100BE00008B5FFF7CCFF08BD10B4124B1A461B68BE
:100BF0008342FBD351685418844209D04168441899
:100C0000A3420AD00360904200D0106010BC70472D
:100C10004068014451601046F0E7074C2468A34245
:100C200006D05B681944416013681B680360EAE7FB
:100C30000460E8E704020010EC01001070B50546FE
:100C400000F0ACFE274B1B681D4243D135B108357F
:100C500015F0070F02D025F007050835002D3BD011
:100C6000214B1B68AB4239D3204A146801E022466D
:100C70001C466368AB4202D22368002BF7D11C4BA1
:100C80001B68A3422CD0166808362368136063687B
:100C90005B1B102B18D8626813490B689B1A0B60FA
:100CA000144909688B4201D212490B600D4B1B6835
:100CB00013436360002323600F4A136801331360FA
:100CC00000F0FAFE304670BD601943606560FFF7C2
:100CD0008BFFE0E70026F3E70026F1E70026EFE7C9
:100CE0000026EDE7F0010010F401001004020010EE
:100CF000EC010010F8010010FC01001018B338B529
:100D00000446A0F1080550F8043C0F4A126813424B
:100D100002D050F8081C01B138BD23EA020340F8A4
:100D2000043C00F03BFE54F8041C084A13680B44D2
:100D300013602846FFF758FF054A13680133136014
:100D400000F0BAFEE8E77047F0010010F40100106F
:100D500000020010F0B4024600210E4614E0194CC7
:100D600025681344083B23F00703236000245C60DC
:100D70001C6014469F1A5760136005B12A606368AF
:100D80001E44013100EBC102536883B1126812F0B6
:100D9000070F05D0D41D24F00704121B134422466C
:100DA0000029DCD1084C226000256560D7E7074B9D
:100DB0001E60074B1E60074B4FF000421A60F0BCEC
:100DC000704700BFEC01001004020010F801001091
:100DD000F4010010F001001000F1080343604FF02F
:100DE000FF328260C3600361002303607047002309
:100DF0000361704743684B609A688A6051609960EC
:100E00000861036801330360704730B40D68B5F1C1
:100E1000FF3F11D000F108031C465B681A68AA4224
:100E2000FAD963684B6099608C60616008610368FF
:100E30000133036030BC70470469F2E7036941681D
:100E400082688A60416851605A68824206D00022F6
:100E500002611A68013A1A601868704782685A601D
:100E6000F5E782B0002301934FF0280383F3118844
:100E7000BFF36F8FBFF34F8F019B002BFCD002B0ED
:100E80007047FFFF06480068006880F3088862B674
:100E900061B6BFF34F8FBFF36F8F00DF00BF00005D
:100EA00008ED00E04FF0807340F8043C21F00101B0
:100EB00040F8081C034B40F80C3C40F8202C40380C
:100EC000704700BF630E0100FFFFFFFFFFFFFFFF42
:100ED000074B19680868B0E8F00F80F30988BFF382
:100EE0006F8F4FF0000080F311884EF00D0E7047A9
:100EF0005C0200104FF0280383F31188BFF36F8F5B
:100F0000BFF34F8F024A136801331360704700BF6D
:100F100010000010034A1368013B13600BB983F300
:100F20001188704710000010FFFFFFFFFFFFFFFF59
:100F3000EFF30980BFF36F8F0D4B1A6820E9F00FB4
:100F400010602DE908404FF0280080F3118800F070
:100F50006DFE4FF0000080F31188BDE8084019686D
:100F60000868B0E8F00F80F30988BFF36F8F70470F
:100F70005C02001008B54FF0280383F31188BFF31B
:100F80006F8FBFF34F8F00F017FD18B1034B4FF079
:100F900080521A60002383F3118808BD04ED00E03D
:100FA000054B00221A6005490A60054A43F2FF1109
:100FB000116007221A60704710E000E018E000E0BE
:100FC00014E000E010B50B4B1A6842F478021A6086
:100FD0001A6842F078421A60FFF7E2FF0024064BDD
:100FE0001C60FFF74FFF00F021FEFFF73AFF20469D
:100FF00010BD00BF20ED00E01000001010B5044649
:10100000FFF778FFA26BE36B9A4204D00024FFF74E
:1010100081FF204610BD0124F9E710B50446FFF713
:1010200069FFA36B23B90124FFF774FF204610BDAD
:101030000024F9E770B504461546866B026C5AB970
:1010400003681BB100200136A66370BD806800F004
:1010500033FF0023A360F6E76DB9406805F030FE6A
:10106000226C636813446360A268934219D32368B7
:1010700063602846E7E7C06805F022FE226C514213
:10108000E3689B1AE3602268934202D2A3680B4490
:10109000E360022D01D00020D5E726B1013E0020FB
:1010A000D1E72846CFE70020CDE70346026C6AB1BE
:1010B00010B50846D9681144D9609C68A14201D393
:1010C0001968D960D96805F0FBFD10BD704738B5C7
:1010D0000546FFF70FFF95F8454064B203E000F0C6
:1010E000CFFE013C64B2002C08DD6B6A33B105F120
:1010F000240000F023FE0028F3D0F0E7FF2385F85A
:101100004530FFF707FFFFF7F5FE95F8444064B25E
:1011100003E000F0B5FE013C64B2002C08DD2B6951
:1011200033B105F1100000F009FE0028F3D0F0E71C
:10113000FF2385F84430FFF7EDFE38BD38B504468F
:101140000D46FFF7D7FE2168E26B236C03FB02100C
:10115000A0600020A0636160013A02FB0313E3601A
:10116000FF2384F8443084F84530A5B923691BB9BE
:10117000FFF7D0FE012038BD04F1100000F0DEFDC5
:101180000028F5D0084B4FF080521A60BFF34F8F04
:10119000BFF36F8FECE704F11000FFF71DFE04F1C1
:1011A0002400FFF719FEE3E704ED00E010B5034665
:1011B00002980C4631B90060C36304640121FFF753
:1011C000BDFF10BD0260F7E7F0B583B004460D46E1
:1011D000164601FB00F04830FFF730FD074638B1F6
:1011E0000090334600F1480229462046FFF7DEFF13
:1011F000384603B0F0BDFFFFF0B585B004460F469A
:1012000001921D46002639E02A4639462046FFF75E
:1012100011FF636A6BB938B13C4B4FF080521A60D2
:10122000BFF34F8FBFF36F8FFFF774FE012005B040
:10123000F0BD04F1240000F081FD0028F4D0334B10
:101240004FF080521A60BFF34F8FBFF36F8FEBE701
:10125000FFF760FE0020EAE702A800F0D7FD0126B4
:1012600019E0002384F8443021E0002384F845305D
:1012700023E02046FFF72BFF00F01EFCFFF73AFEAD
:10128000A26BE36B9A42BFD3022DBDD0019B002B12
:10129000DED0002EE0D0FFF73DFE00F07FFBFFF731
:1012A00029FE94F8442052B2B2F1FF3FD9D094F80D
:1012B000452052B2B2F1FF3FD7D0FFF72BFE01A974
:1012C00002A800F0AFFDC8B92046FFF797FE00283E
:1012D000CFD0019904F1100000F0FEFC2046FFF78A
:1012E000F6FE00F0E9FB0028C8D1084B4FF0805211
:1012F0001A60BFF34F8FBFF36F8FBFE72046FFF732
:10130000E6FE00F0D9FB002091E700BF04ED00E00D
:10131000F8B5044616461A46EFF311874FF0280336
:1013200083F31188BFF36F8FBFF34F8F806BE36B35
:10133000984205D3022A03D0002087F31188F8BD14
:1013400094F845506DB2A36B2046FFF773FEB5F1DC
:10135000FF3F05D001356DB284F845500120ECE720
:10136000636A0BB90120E8E704F1240000F0E6FC11
:1013700018B126B101203060DFE70120DDE7012050
:10138000DBE7FFFFF0B585B004460F46019200266B
:101390003CE039462046FFF788FE013DA5632369FE
:1013A00023B9FFF7B7FD012005B0F0BD04F110002F
:1013B00000F0C4FC0028F4D0344B4FF080521A6087
:1013C000BFF34F8FBFF36F8FEBE7FFF7A3FD002055
:1013D000EAE702A800F01AFD012621E0002384F8C4
:1013E000443029E0002384F845302BE02046FFF705
:1013F0006EFE00F061FB09E02046FFF768FE00F09A
:101400005BFB2046FFF709FE00283DD1FFF772FD88
:10141000A56B002DBDD1019B002BD6D0002ED8D0BE
:10142000FFF778FD00F0BAFAFFF764FD94F8443056
:101430005BB2B3F1FF3FD1D094F845305BB2B3F16A
:10144000FF3FCFD0FFF766FD01A902A800F0EAFC3C
:101450000028D1D12046FFF7E0FD0028C6D0019931
:1014600004F1240000F038FC2046FFF730FE00F0C5
:1014700023FB0028CAD1054B4FF080521A60BFF3FE
:101480004F8FBFF36F8FC1E700208DE704ED00E0C1
:101490000023092B0CD8074A52F833200AB1013334
:1014A000F7E7044A42F8331002EBC3035860704771
:1014B000704700BF0C02001070B504460D4616467A
:1014C000FFF718FD94F844305BB2B3F1FF3F0DD045
:1014D00094F845305BB2B3F1FF3F0BD0FFF71AFD34
:1014E000A36B5BB12046FFF7F2FD70BD002384F8CB
:1014F0004430EDE7002384F84530EFE732462946D3
:1015000004F1240000F008FCECE7FFFF084B1B6827
:101510001B6823B9074B4FF0FF321A607047044B2A
:101520001B68DB68DB685A68024B1A60704700BFB3
:10153000600200100C03001010B50446006BFFF7AA
:10154000DDFB2046FFF7DAFB10BD2DE9F0478046B2
:101550000D4617469946089EDDF824A00A9C920085
:10156000A521206B05F0BAFB236B07F18042013AFD
:1015700003EB820727F00707A76485B30022132A2D
:1015800007D8A95CA31883F83410AB5C0BB1013207
:10159000F5E7002384F84730042E00D90426E662DC
:1015A000E66400252565201DFFF721FC04F11800E5
:1015B000FFF71DFC2461C6F10506A661646265653E
:1015C00084F858504A4641463846FFF76BFC206085
:1015D000BAF1000F01D0CAF80040BDE8F08700233F
:1015E00084F83430D8E7FFFF38B50024042C08D83D
:1015F00004EB840293000E481844FFF7EDFB01341E
:10160000F4E70C4D2846FFF7E7FB0B4C2046FFF7AD
:10161000E3FB0A48FFF7E0FB0948FFF7DDFB094859
:10162000FFF7DAFB084B1D60084B1C6038BD00BF9C
:1016300068020010E0020010F4020010180300100D
:101640004403001030030010600200106402001018
:1016500010B50446FFF74EFC204A136801331360AF
:101660001F4B1B685BB11F4B1B686BB91C4B1B6886
:10167000DA6AE36A9A4207D8194B1C6004E0184BF7
:101680001C601368012B26D0174A136801331360BE
:10169000E06A01238340154A11680B43136000EB95
:1016A0008000211D124B03EB8000FFF7A3FBFFF727
:1016B00031FC0C4B1B686BB1094B1B68DA6AE36A9F
:1016C0009A4207D20B4B4FF080521A60BFF34F8FF4
:1016D000BFF36F8F10BDFFF787FFD5E7CC02001077
:1016E0005C0200102C030010D8020010DC02001075
:1016F0006802001004ED00E00F4B1B68D3B110B579
:10170000FFF7F8FB0D4BDB68DC68201DFFF796FB4D
:101710000B4A1368013B1360074A1368013B1360CF
:10172000FFF7F8FB2046FFF707FF034B1B68002B72
:10173000E6D110BD704700BFD00200104403001076
:10174000CC02001008B5FFF7D7FF064B1B68012B32
:10175000F9D9054B4FF080521A60BFF34F8FBFF39A
:101760006F8FF0E76802001004ED00E070B50446EA
:101770000D461D4B1E681D4B18680430FFF75EFBBD
:1017800050B91A4B1B68DA6A012303FA02F21849AE
:101790000B6823EA02030B60B4F1FF3F0DD0344421
:1017A000124B1B685C60A64210D9124B18680F4B95
:1017B00019680431FFF729FB70BD002DEFD00B4BEA
:1017C000196804310C48FFF715FBF5E70B4B186857
:1017D000064B19680431FFF718FB094B1B68A3423D
:1017E000EAD9074B1C60E7E7580300105C020010C1
:1017F000DC020010640200103003001060020010D0
:101800000C0300102DE9F04385B0074688461446C6
:101810001E469000FFF712FAF0B181465C20FFF7F8
:101820000DFA0546A0B1C0F83090D5B1002303935E
:1018300002950D9B01930C9B009333462246414633
:101840003846FFF782FE2846FFF702FF012005E039
:101850004846FFF753FAE8E74FF0FF3005B0BDE820
:10186000F0834FF0FF30F9E738B50446FFF742FB4D
:10187000002C33D0251D2846FFF7E0FA68B9E26A4C
:1018800002EB82039B002049CB5833B901239340DC
:101890001E490A6822EA03020A60A36A1BB104F126
:1018A0001800FFF7CBFA1A4A136801331360194B7B
:1018B0001B68A34215D0184A1368013B13602046E9
:1018C000FFF73AFEFFF722FEFFF724FB134B1B68DE
:1018D0001BB1104B1B68A3420CD038BD0D4B1C68CC
:1018E000C8E729460E48FFF785FA0E4A1368013308
:1018F0001360E9E70C4B4FF080521A60BFF34F8F33
:10190000BFF36F8FE9E700BF68020010DC02001030
:10191000D80200105C020010CC0200102C03001052
:1019200044030010D002001004ED00E000B583B0C5
:10193000144B019300230093322213491348FFF7FD
:1019400061FF012804D0012805D003B05DF804FB35
:1019500000F060FBF7E74FF0280383F31188BFF333
:101960006F8FBFF34F8F0A4B4FF0FF321A60094B56
:1019700001221A60084B00221A60FEF727FDFFF7CC
:1019800021FBE2E7080300106CA9010045170100E4
:101990000C0300102C03001058030010024A1368B7
:1019A00001331360704700BFD4020010014B186868
:1019B000704700BF58030010F8B5344B1B68002B6C
:1019C0005DD1334B1E6801361E60AEB1314B1B68D2
:1019D000B3424AD90027304B1B68DB6A03EB830311
:1019E0009A002E4B9B58012B00D901272C4B1B68CA
:1019F000002B49D0012747E02A4A11682A4B186872
:101A000010601960294A136801331360FFF77EFDE7
:101A1000DCE70127234B1B681B6843B3214B1B6882
:101A2000DB68DC6863689E4226D3251D2846FFF7E5
:101A300005FAA36A1BB104F11800FFF7FFF9E36A86
:101A400001229A401A49086802430A6003EB8303A3
:101A50009A00294611481044FFF7CCF9E26A0E4B70
:101A60001B68DB6A9A42D4D2D4E70027D2E7094B3D
:101A70004FF0FF321A60AEE7064A1360ABE70D4A3B
:101A800013680133136000273846F8BDD4020010F4
:101A9000580300100C0300105C02001068020010D4
:101AA0005C030010600200106402001010030010BC
:101AB000DC0200101403001038B5FFF71BFA2D4BA1
:101AC0001A68013A1A601B68002B4DD12A4B1B681B
:101AD0000BB9002449E00024284B1B681BB3274B9B
:101AE000DB68DC6804F11800FFF7A8F9251D28461B
:101AF000FFF7A4F9E06A01238340214A11680B43F0
:101B0000136000EB800029461E4B03EB8000FFF7BB
:101B100071F9E26A1C4B1B68DB6A9A42DCD31B4BEF
:101B200001221A60D8E70CB1FFF7F0FC184B1C68D3
:101B300074B9164B1C68C4B1164B4FF080521A6032
:101B4000BFF34F8FBFF36F8F01240EE0013C07D02E
:101B5000FFF732FF0028F9D00C4B01221A60F5E79D
:101B60000B4B00221A60E4E70024FFF7D3F920466C
:101B700038BD00BFD4020010CC02001018030010C2
:101B8000DC020010680200105C0200105C03001010
:101B90001403001004ED00E038B505460C46FFF7CD
:101BA000FDFE134B18682A681444824209D9A242E8
:101BB00001D82C600EE0A04201D32C600AE02C601A
:101BC00004E0A24201D8A04210D22C600021201AC9
:101BD000FFF7CCFDFFF770FF38B9064B4FF080528E
:101BE0001A60BFF34F8FBFF36F8F38BD2C60F1E7E2
:101BF0005803001004ED00E010B540B90A4B4FF057
:101C000080521A60BFF34F8FBFF36F8F10BD044631
:101C1000FFF7C4FE00212046FFF7A8FDFFF74CFFA9
:101C20000028F3D1EAE700BF04ED00E0254B1B6874
:101C30001BB1254B01221A60704710B5224B0022C0
:101C40001A60224B1B681B6B1A68B2F1A53F03D1C7
:101C50005A68B2F1A53F26D01C4B18681968343178
:101C6000FEF772FE1A4B1B68B3FA83F3DBB2C3F1C3
:101C70001F03184903EB830082000A445068406840
:101C8000506003EB8304A2001446083211448842DA
:101C900012D003EB83039A000E4B13445B68DA689F
:101CA0000A4B1A6010BD9A68B2F1A53FD4D1DB6827
:101CB000B3F1A53FD0D1D5E74068064A2244506031
:101CC000E7E700BFD40200105C0300105C020010C4
:101CD000DC0200106802001010B50C46044B1968B5
:101CE0001831FFF792F801212046FFF73FFD10BDA4
:101CF0005C02001010B51446064B1A6841F0004112
:101D0000916119681831FFF775F801212046FFF736
:101D10002DFD10BD5C02001038B50D461446064B73
:101D200019681831FFF766F80CB14FF0FF352146FE
:101D30002846FFF71BFD38BD5C02001038B5C368AC
:101D4000DC6804F118052846FFF778F8134B1B6888
:101D5000E3B9251D2846FFF771F8E06A01238340A7
:101D60000F4A11680B43136000EB800029460D4BAE
:101D700003EB8000FFF73EF8E26A0B4B1B68DB6A5F
:101D80009A4208D90120094B186038BD29460848F5
:101D9000FFF730F8F0E70020F7E700BFD4020010AB
:101DA000DC020010680200105C0200105C030010EE
:101DB0001803001038B541F000410160C468FFF716
:101DC0003DF8251D2846FFF739F8E06A01238340D6
:101DD0000A4A11680B43136000EB80002946084B48
:101DE00003EB8000FFF706F8E26A064B1B68DB6A2C
:101DF0009A4202D9044B01221A6038BDDC0200105D
:101E0000680200105C0200105C030010034B1B68AA
:101E10000360034B1B684360704700BF1003001052
:101E200058030010F8B504460D46FFF763F8124B4F
:101E300019686368C81A2A68B2F1FF3F14D027688E
:101E40000E4E3668B74201D08B4212D9824203D877
:101E500000232B60012408E05B1A13442B6020460A
:101E6000FFF7D4FF002400E00024FFF753F82046DA
:101E7000F8BD0124F9E700BF58030010100300105B
:101E8000014B01221A6070475C030010014B186877
:101E9000704700BF5C020010054B1B6833B1054B57
:101EA0001B680BB10020704702207047012070476B
:101EB0002C030010D4020010002834D038B504469A
:101EC000036D013B0365C16AC26C91422DD00BB119
:101ED000002038BD051D2846FEF7B0FF68B9E26A4C
:101EE00002EB82039B001249CB5833B90123934084
:101EF00010490A6822EA03020A60E06CE062C0F15D
:101F00000503A361012404FA00F30A4A11680B4394
:101F1000136000EB80002946054B03EB8000FEF7C1
:101F200069FF2046D5E7002070470020D1E700BFB9
:101F300068020010DC020010044A136898691368F4
:101F4000DB6A1268C3F10503936170475C020010FD
:101F5000064B1A6813682BB90123036023B9D368B1
:101F6000186870470023F8E70020704760030010EE
:101F700008B54160006191420CD8D21A83699A4237
:101F800001D3012008BD011D094B1868FEF73DFF74
:101F90000020F7E79A4201D2994206D2011D054B73
:101FA0001868FEF732FF0020ECE70120EAE700BFE7
:101FB000640300106003001038B5FEF79BFF0F4B61
:101FC0001B6813B1FEF7A6FF38BD0D4D2846FEF77E
:101FD00003FF0C4C2046FEF7FFFE0B4B1D600B4B26
:101FE0001C60002210210520FFF7EEF8034B18605B
:101FF0000028E7D00649FFF74BFAE3E79403001007
:10200000680300107C0300106003001064030010DC
:1020100074A9010000B583B0FFF7CEFF084B1B6821
:1020200063B1084B01930423009300236422064903
:102030000648FFF7E7FB03B05DF804FB0020FAE772
:1020400094030010980300107CA90100ED22010008
:1020500030B585B01C46134B1D6805B30091019245
:102060000290052913DCFFF717FF022807D0002391
:102070001A4669460B480068FFF7BEF80DE00023DA
:10208000089A694607480068FFF7B6F805E000239C
:10209000224669462846FFF73BF905B030BD0020CF
:1020A000FBE700BF9403001070B582B0164B1B68AD
:1020B0001A6812B3DB681E68DC68251D2846FEF727
:1020C000BDFE236A2046984794F8243013F0040F8D
:1020D000ECD0A36933449E4207D263602461294651
:1020E000094B1868FEF791FEE0E7002100910B46CE
:1020F00032462046FFF7ACFFD8E7044A1068024991
:102100000860136002B070BD60030010640300102B
:1021100038B50546FFF74AFC0446074B1B68834267
:1021200005D800232B60044B1C60204638BDFFF708
:10213000BBFF01232B60F6E79003001070B582B05F
:1021400006460D46124B1B68DB68DC68201DFEF757
:1021500075FE94F8243013F0040F08D123F0010326
:1021600084F82430236A2046984702B070BDA169E4
:1021700033462A4631442046FFF7FAFE0028F1D0C4
:10218000002100910B4632462046FFF761FFE9E748
:102190006003001070B582B006460C46FFF7FEFBE8
:1021A00001A8FFF7B5FF019B23BB05460CB9B04260
:1021B00017D224B1114A12681268CAB90124224602
:1021C000711B0F4B1868FFF777F9FFF775FC98B98B
:1021D0000C4B4FF080521A60BFF34F8FBFF36F8FDD
:1021E0000AE0FFF769FC29463046FFF7A7FF03E046
:1021F0001C46E4E7FFF760FC02B070BD640300100A
:102200009403001004ED00E010B588B006E00799D3
:102210000698059B9847049B002B0BDA002204A923
:10222000314B1868FFF7AEF800285BD0049B002BF9
:10223000F1DAECE7069C636913B1201DFEF7FEFDA1
:1022400003A8FFF765FF049B092BE7D8DFE803F03D
:10225000050505262D3C0505262D94F8243043F070
:10226000010384F82430059BA169024619442046E5
:10227000FFF77EFE0028D1D0236A2046984794F8C5
:10228000243013F0040FC9D0A269002100910B463D
:10229000059802442046FFF7DBFEBFE794F82430A0
:1022A00023F0010384F82430B8E794F8243043F095
:1022B000010384F824300599A161034602460144D4
:1022C0002046FFF755FEA9E794F8243013F0020FDB
:1022D00004D023F0010384F824309FE72046FEF762
:1022E0000DFD9BE708B010BD9403001000B583B04E
:1022F00001A8FFF72DFE0199FFF74CFFFFF784FFC0
:10230000F6E7FFFF10B584B014461A466FF00103DC
:1023100000930190029103940023694602480068EB
:10232000FEF7F6FF04B010BD9403001028B1064A72
:10233000936943F0006393617047034AD36943F0A4
:102340000063D361704700BF20C0092008B50D4A63
:10235000D36823F44003D360D36C23F4400343F0E9
:102360000073D364084A136843F0006313600020CD
:10237000FFF7DCFF46F2905003F0CCFC012003F0A5
:1023800021FD08BD00C0024020C0092080B582B0F8
:1023900002AF00230093082304220021144800F018
:1023A0009DF9012304220021124800F0CDF90223F7
:1023B000009308231C2204210D4800F08FF900230C
:1023C0000093082311220121094800F087F9012315
:1023D00011220121074800F0B7F9022300930823D6
:1023E0001D220421024800F079F900BFBD4680BDDE
:1023F00000C0024000C0092080B500AF1D4803F0B6
:1024000051FE1C4803F064FE1A4B00229A61194BDE
:102410000022DA61174B4FF4FA621A62154BFF2261
:102420001A600021134800F0B3F90121114800F0AF
:10243000AFF902210F4800F0A1F902210D4800F088
:10244000B1F90023012200210A4803F04DFE0123C7
:1024500001220021074803F047FE064800F088F9F2
:102460000521032000F026F9032000F0FFF800BF4B
:1024700080BD00BF000009400C4B9A69322A03D985
:10248000DA6B42F00102DA63084BDA69322A03D9C7
:10249000DA6B42F00202DA630820044A0449136846
:1024A00043F004031360C1F8800170470000094045
:1024B00000E100E080B500AF012000F0E3F801206A
:1024C00000F0ECF800BF80BD80B500AF022000F046
:1024D000D9F8022000F0E2F800BF80BD90B587B0C7
:1024E00000AFF8600B467A60FB72786804F084F9FC
:1024F00003467B617B68642B01D964237B607B6826
:10250000042B01D800237B60134B1B7883F001035D
:10251000DBB2002B01D000237B60FB681B6A7A686A
:1025200002FB03F3184604F067F903467B610B498D
:10253000786904F06DFA03467B6197F90B4078697E
:1025400004F09EFB0146FB68A21D43F8221000BF69
:102550001C37BD4690BD00BF9C0300100000C84260
:1025600080B582B000AF03460A46FB711346BB71CB
:10257000FB7904220021064800F0D0F8BB79112233
:102580000121034800F0CAF800BF0837BD4680BDEE
:1025900000C0092080B584B002AF03460A46FB7133
:1025A0001346BB71294ABB791370FB79002B02D00B
:1025B000012B18D02FE0BB79002B08D00223009309
:1025C00008231C220421224800F088F83AE0002366
:1025D000009308231C2204211D4800F07FF81D4BA6
:1025E00000229A612EE0BB79002B08D002230093D1
:1025F00008231D220421164800F070F822E0002371
:10260000009308231D220421114800F067F8114BA4
:102610000022DA6116E00023009308231C22042123
:102620000B4800F05BF80023009308231D220421CF
:10263000074800F053F8074B00229A61054B00222F
:10264000DA6100BF00BF0837BD4680BD9C030010A3
:1026500000C002400000094080B400AF024B1B786C
:102660001846BD4680BC70479C03001000F01F0256
:10267000400901239340024A42F82030704700BFCE
:1026800000E100E000F01F024009012393402030E8
:10269000014A42F82030704700E100E000F01F02DC
:1026A0004009012393406030014A42F820307047CE
:1026B00000E100E0002808DBC900C9B200F1604079
:1026C00000F5614080F80013704700F00F00C9006A
:1026D000C9B2014B1954704714ED00E070B402F018
:1026E0000F0464004900C9B201EB1212D2B250F8D3
:1026F00022600325A54026EA05069DF80C10A1409E
:10270000314340F82210103250F8221021EA05051A
:10271000A3402B4340F8223070BC70474BB1C9B284
:1027200000EB41108369012101FA02F21A43826130
:102730007047C9B200EB4110C369012101FA02F2EE
:102740001A43C261704700BF10B443B149014358F6
:10275000012404FA02F21A43425010BC70474901A6
:102760004358012404FA02F223EA02024250F4E739
:10277000436843F001034360704700BF436901EBC6
:102780004101012202FA01F10B434361704700BF8E
:10279000436901EB4101012202FA01F123EA01033D
:1027A00043617047436901EB41010131012202FAA3
:1027B00001F10B4343617047324A136823F08003F1
:1027C0001360314B196821F440411960196C21F4F0
:1027D00040411964116821F040011160196821F429
:1027E00040511960196C21F440511964116821F4A9
:1027F00000711160196821F440211960196C21F4ED
:1028000040211964116821F4807111601A6822F462
:1028100040321A601A6C22F440321A641B4BC022F8
:102820001A601B4B4FF440721A601A4B5A6942F0FF
:1028300040025A611A6942F040021A615A6942F034
:1028400080025A611A6942F080021A615A6942F4A0
:1028500000725A611A6942F400721A615A6942F4AC
:1028600080725A611A6942F480721A610022DA6039
:10287000094B082283F815234FF40012C3F8802176
:102880001A60704700C0092000C00240AC0300106D
:10289000B00300108080024000E100E00346034ADC
:1028A00092E8030083E8030018467047A403001071
:1028B00038B505460C46FFF7CFFE30B1034B18681C
:1028C0002844186059682144596038BDA403001099
:1028D00038B52A4B1A68D20700D438BD2849986801
:1028E0005A68096802430A421CD02648D9604169E7
:1028F0004369254CDB095B00207803F00203C1F338
:1029000080110B43214D83422B700BD080EA530082
:1029100010F0010F1E48016814BF01F1FF310131B1
:10292000016023701B4B1B681A421DD0134A1549C6
:10293000D3604A694B6918481B0A5B00017803F0B1
:102940000203C2F340221343144C8B4223700BD07A
:1029500081EA530111F0010F0D494A6814BF02F1D9
:10296000FF3201324A600370FFF776FE0028B4D0D0
:10297000074B1A681A605A685A6038BD8080024056
:10298000AC03001000C009209E0300109D0300103E
:10299000A4030010B0030010A00300109F03001058
:1029A0004FF48022014BC3F88021704700E100E022
:1029B0004FF40022014BC3F88021704700E100E092
:1029C0004FF48012014BC3F88021704700E100E012
:1029D00038B5284CE36823F04073E360E36C23F0E0
:1029E000407343F00063E364234A136843F0805369
:1029F0001360002000F04EF8236923F04063236148
:102A0000236D23F0406343F0005323651B4A136892
:102A100043F40053136004F5D824204603F08AFBE6
:102A20001749204603F0A5FB0323E360204603F08B
:102A30009DFB144D802301222946134803F0CEF953
:102A400080230122E918114803F0C8F98723A36005
:102A5000636843F005036360636823F00203636007
:102A600000F0D4F90A4B8022C3F88021302283F889
:102A7000072338BD00C0024020C0092040C0092003
:102A800040420F00A00108204C0400106004001018
:102A900000E100E028B1064A936943F08053936156
:102AA0007047034AD36943F08053D361704700BF36
:102AB00020C0092080B584B000AF78600023FB609F
:102AC0000023FB7200237B720023BB720BE007F133
:102AD000090319463A4803F0E5F9BB7A0133BB72A2
:102AE000BB7A032B64D87B7AFF2BF0D10023BB7217
:102AF00000237B720BE007F109031946304803F00D
:102B0000D1F9BB7A0133BB72BB7A032B52D87B7AE3
:102B1000FF2BF0D12B492A4803F0C4F9294B1B782D
:102B20001A46FB681344FB602749254803F0BAF9AD
:102B3000244B5B781A46FB681344FB60234920480A
:102B400003F0B0F91F4B9B781A46FB681344FB60F7
:102B50000023FB7215E0FB7A442B2DD8FB7A194A2F
:102B6000134403331946164803F09CF9FB7A154ABF
:102B70001344DB781A46FB681344FB60FB7A01338D
:102B8000FB72FA7A0F4B5B78023B9A42E3DB07F168
:102B9000090319460A4803F085F9FB68DB43FB602B
:102BA00000234FF0FF3207497868FEF725FB04E069
:102BB00000BF02E000BF00E000BF1037BD4680BD8F
:102BC0004C0400100404001005040010060400105A
:102BD00080B584B000AF78600023FB8100237B7355
:102BE0007B7B5A1C7A731A463B4BFF2199547B7BA3
:102BF0005A1C7A731A46384BFF2199547B7B5A1C16
:102C00007A731A467B681978334B99547B681B7822
:102C10009AB2FB891344FB817B7B5A1C7A731A4658
:102C20007B6859782C4B99547B685B789AB2FB8906
:102C30001344FB817B7B5A1C7A731A467B68997814
:102C4000254B99547B689B789AB2FB891344FB818E
:102C50000023BB6019E0BB68442B1DDC7B7B5A1C46
:102C60007A7319467A68BB68134403331A781A4B8F
:102C70005A547A68BB68134403331B789AB2FB89B1
:102C80001344FB81BB680133BB607B685B78023B0C
:102C9000BA689A42DFDB00E000BFFB89DB43FB81BF
:102CA0007B68002283F847207B7B5A1C7A731A4684
:102CB000FB89D9B2084B99547B7B1A4606490748D1
:102CC00003F0ACF87B7B1A460449054800F00AF88B
:102CD00000BF1037BD4680BDB40300106004001073
:102CE0000080094080B586B000AFF860B9607A60B6
:102CF00000F066F800F0B7F80FE0FB7C1946F868C2
:102D000000F019F900BF00E000BFF86800F015F905
:102D1000034603F02603002BF6D007F113031946F0
:102D2000B86803F0BFF80346002BE6D100237B61AF
:102D300000237B6102E07B6901337B617B69C72BE8
:102D4000F9DD00F063F800F087F800BF1837BD46E2
:102D500080BDFFFF10B582B000230193114C124AD1
:102D60002146124803F042FA204603F0F1F8052804
:102D70000FDC019B3BB10E4B4FF080521A60BFF34A
:102D80004F8FBFF36F8F0B4B8022C3F8802102B0AF
:102D900010BD01AB1022084909680848FFF7B2FAD4
:102DA000E7E700BF4C0400106004001000800940F9
:102DB00004ED00E000E100E084050010E10B0100FB
:102DC00080B582B002AF01230D2202210D4800F030
:102DD00089F80023009308230B2200210A4800F001
:102DE00061F800230B220021064800F090F801232F
:102DF000009308230A220021034800F053F800BF83
:102E0000BD4680BD00C0092000C0024080B582B030
:102E100002AF00230D2202210D4800F063F80023C9
:102E2000009308230A2200210A4800F03BF80023FF
:102E30000A220021064800F06AF8012300930823C3
:102E40000B220021034800F02DF800BFBD4680BDD5
:102E500000C0092000C0024080B500AF072000F08C
:102E600009F800BF80BD80B500AF072000F00EF864
:102E700000BF80BD00F01F02400901239340024AB9
:102E800042F82030704700BF00E100E000F01F0270
:102E90004009012393402030014A42F82030704716
:102EA00000E100E070B402F00F0464004900C9B210
:102EB00001EB1212D2B250F822600325A54026EA97
:102EC00005069DF80C10A140314340F82210103245
:102ED00050F8221021EA0505A3402B4340F8223088
:102EE00070BC70474BB1C9B200EB4110836901213E
:102EF00001FA02F21A4382617047C9B200EB411035
:102F0000C369012101FA02F21A43C261704710B489
:102F100043B149014358012404FA02F21A434250D2
:102F200010BC704749014358012404FA02F223EA15
:102F300002024250F4E70160704740697047FFFFAA
:102F400008B52149214802F099FD214B5A6822F425
:102F5000404242F480425A605A6C22F4404242F4A9
:102F600000325A645A6822F4403242F480325A6085
:102F70005A6C22F4403242F400225A645A6822F415
:102F8000402242F480225A605A6C22F4402242F4D9
:102F900000125A645A6822F4401242F480125A60B5
:102FA0005A6C22F4401242F400025A641A6822F069
:102FB000C00242F080021A601A6C22F0C00242F491
:102FC00000721A6408BD00BF740400100040034082
:102FD00000C00240072840D8DFE800F004040404E1
:102FE0000404040410B582B00446012201461C48C2
:102FF00002F095FD1B4B1B78FBB10121184802F034
:103000009EFD184B1B78EBB100222146144802F0BC
:1030100064FD0128F8D10DF106022146104802F0A6
:1030200051FD104B1B789BB9002221460C4802F041
:1030300076FDBDF8060002B010BD0021084802F080
:103040007EFDDEE700220121054802F05CFDDBE7A2
:103050000021034802F073FDE6E70020704700BF3F
:10306000004003407C040010400100F1005000F5D6
:103070001C20836901228A40134383617047400109
:1030800000F1005000F51C20C36901228A4013435F
:10309000C3617047F8B501F00F077F004300DBB252
:1030A00003EB1113DBB2124E56F823E0032505FAA9
:1030B00007FC2EEA0C0546F82350103356F823502F
:1030C00025EA0C054FF0080C0CFA07F73D4346F8CB
:1030D0002350430103F1005303F51C231A68012513
:1030E00005FA01F414431C60FFF7C9FFF8BD00BFE7
:1030F00000C0024080B588B000AFF860B9607A6067
:10310000FDF700F903210220FFF7AEFF21E0FB7C71
:103110001946F86800F056F80023FB6103E000BF91
:10312000FB690133FB61FB690F2BF8DD09E000232C
:10313000BB6103E000BFBB690133BB61BB690F2BFF
:10314000F8DDF86800F040F8034603F02603002B92
:10315000EDD007F113031946B86802F0A3FE034649
:10316000002BD4D100237B6103E000BF7B690133D6
:103170007B617B69632BF8DD03210220FFF77FFF72
:10318000FDF7C8F800BF2037BD4680BD00B583B04D
:103190004FF0FF33009301231A4680210348006853
:1031A000FDF782FC03B05DF804FB00BF840500104E
:1031B00008B58021024B1868FDF7E1FC08BD00BF8F
:1031C00084050010016070474069704710B5204BBE
:1031D0001A6822F0404242F080421A601A6C22F0D3
:1031E00040421A645A6822F0030242F001025A6017
:1031F0005A6C22F0030242F008025A6403210220B2
:10320000FFF748FF134C204602F094FF1249204676
:1032100002F0AFFF0323E360204602F0A7FF4FF464
:10322000007301220D490E4802F0D8FD8723A360E8
:10323000636843F005036360636823F0020363601F
:10324000084B4022C3F88021302283F8062310BDAA
:1032500000C002400000014080841E00A00208203F
:103260005C05001000E100E030B583B0802301224E
:103270000E490F4802F0B2FDFFF7A8FF00224D21D2
:103280000A20FDF7A1FF0B4D28600B4C2146FEF7ED
:10329000FFF800230193032300932B68642204F1B9
:1032A00014010648FEF7AEFA03B030BDA0040820B2
:1032B00070050010D004001084A9010091330100B2
:1032C00010B582B000230193274802F041FE0A287E
:1032D00002DC264B00221A70234C254A2146254841
:1032E00002F084FF204602F033FE0A2802DD1F4B65
:1032F0001B78DBB11C4802F02BFEFF2821DC1A48AA
:1033000002F026FE1C4B1B68984227DC019B3BB158
:103310001A4B4FF080521A60BFF34F8FBFF36F8F7D
:10332000174B4022C3F8802102B010BD01AB04222C
:10333000144909681448FEF7E5FF0C4B01221A7086
:10334000DDE7124A936943F40043936101AB042221
:103350000C4909680C48FEF7D5FFD0E7024802F097
:10336000F7FD054B1860D1E75C050010D404001090
:1033700070050010000001405805001004ED00E049
:1033800000E100E084050010E10B010020C00920ED
:1033900008B504463220FEF72FFC1AE0134D2946EB
:1033A00011F8012B124802F039FD95F84C30012B31
:1033B00012D00F4D284602F0CBFD02460D4928469B
:1033C00002F088FD002209492046FDF7DBFF0128B5
:1033D000E4D0FFF7DBFEF5E72A7805490648FFF75A
:1033E00089FE0120FEF708FCECE700BF8004001016
:1033F00070050010D80400100000014008B5FDF76A
:1034000045FB014B186008BD8405001090B587B0DE
:1034100000AF78607B68FB60FB68002B01D1002364
:103420003BE10023FB720023FB8200237B7500231A
:10343000BB7207F10B031946F86802F033FD994B94
:1034400000221A7020E007F10B031946F86802F019
:1034500029FD0346002B10D0924B1B780133DAB2C2
:10346000904B1A708F4B1B78052B0DD98E4B1B6818
:1034700001338D4A136000230FE18B4B1B6801332E
:10348000894A1360002308E1FB7A7E2BDBD10322FB
:103490008649F86802F01EFD844B1B781AB2844BF3
:1034A0001A80834BB3F900301B021AB2804B1A808A
:1034B0007E4B5B789AB27E4BB3F900309BB21344DB
:1034C0009BB21AB27A4B1A80794BB3F900304B2B6E
:1034D00006DD754B1B680133734A13600023DCE083
:1034E000724B9B789AB2FB8A13449BB2FB826F4B60
:1034F0009B78892B0BD103226C49F86802F0EAFC17
:10350000694B1B680133684A13600023C5E0654BB3
:1035100000221A7013E0634B1B780133DAB2614B5F
:103520001A70604B1B78052B06D95F4B1B68013363
:103530005D4A13600023B0E00120FEF75DFBF868F0
:1035400002F006FD02465A4BB3F90030013B9A42A5
:10355000E1DB06225549F86802F0BCFC00233B6120
:103560000BE0524A3B6913441B789AB2FB8A13441E
:103570009BB2FB823B6901333B613B69032BF0DD6E
:103580004A4B1A794B4B1A704A4B1B789AB2FB8AFA
:1035900013449BB2FB82454B5B795AB2454B5A7040
:1035A000444B93F90130DBB29AB2FB8A13449BB2CD
:1035B000FB823F4BB3F90030DBB2073BDAB23D4B45
:1035C0009A703C4B9B78402B61D8364B00221A7086
:1035D00013E0344B1B780133DAB2324B1A70314BA3
:1035E0001B78052B06D9304B1B6801332E4A13601C
:1035F000002352E00120FEF7FFFA2E4B9B781C4679
:10360000F86802F0A5FC03469C42E2DA294B9B785D
:103610001A462949F86802F05DFC00237B750BE02F
:103620007B7D244A1344DB789AB2FB8A13449BB215
:10363000FB827B7D01337B751E4B9B787A7D9A42A2
:10364000EED307F10A031946F86802F02BFCFB8A57
:10365000DBB2FB82FB8ADBB2DB43DBB2FB82B7F976
:103660001630BA7A934208D1144B1B680133134ABF
:103670001360104800F024F80EE00B4B1B68013378
:10368000094A1360012000F0C1F9002305E0064B50
:103690001B680133044A1360002318461C37BD46DB
:1036A00090BD00BF880500108C050010B8050820EB
:1036B0008A05001070050820730508209005001089
:1036C00008B590F90120B2F1FF3F11D00A494B69CA
:1036D00013F4807F0CBF02230023496911F0100FFF
:1036E00008BF43F0010301339A4201D0002008BD16
:1036F00000F0A6FA0120FAE720C0092010B582B038
:103700003220FEF779FA104B40221A60002404E0C0
:103710000E4C204602F01CFC88B94FF0FF3300939A
:10372000002301220C210A480068FDF7BDF910F0C2
:10373000040FEDD110F0080FEBD00024E9E720468C
:10374000FFF764FEE5E700BF00E100E05C05001064
:103750008405001008B50321024B1868FDF70FFA25
:1037600008BD00BF8405001000B583B0FFF7F2FF6D
:1037700000230193022200924FF4A07203490448EF
:10378000FEF740F803B05DF804FB00BFACA90100F0
:10379000FD36010000B583B0009001231A4619469A
:1037A00006480068FDF780F910F0010F03D10020F2
:1037B00003B05DF804FB0120FAE700BF84050010A8
:1037C00008B50121024B1868FDF7D9F908BD00BF03
:1037D0008405001030B41D4A7E2353708378D91DB0
:1037E0000B3313700B0A9370D17001231371537153
:1037F000B0F84430190A9171D37100231372017823
:10380000517290F90110917284789C4209D903F1A8
:103810000A04C218D1780D4A224451700133DBB238
:10382000F2E70022032306E00849194449780A44D4
:1038300012B20133DBB204F109011D469942F3DAF9
:10384000D243024805446A7030BC70472005082006
:1038500010B50C46FFF7BEFF094981F84C40002324
:103860004FF4FA7207480068FDF7C6FC20B9044619
:10387000FFF7A6FF204610BDFFF7A2FF0124F9E7DE
:1038800020050820D00400107047FFFF84B038B531
:1038900004AC84E80F003220FFF77CFF18B9BDE8C4
:1038A000384004B07047164C0A232370FF2363701E
:1038B0001449049802F0F8FF03F0BCF9124D288077
:1038C0001049059802F0F0FF03F0B4F968800F4941
:1038D000079802F0E9FF03F0ADF9A8800623A37072
:1038E00040222946E01C03F0EBF94FF6FF73A4F8E1
:1038F00044309DF824102046FFF7AAFFCFE700BF11
:103900000406082000002041940500100000C84271
:10391000F8B504460E4615461F463220FFF73AFF1B
:1039200000B9F8BD374B38221A70FE225A70364B58
:103930009E705D70204603F059FE80B23A284FD841
:10394000204603F053FE3B281DD93B202E4B187018
:10395000204603F04BFE3B281AD93B222A4D214634
:10396000E81C03F0ADF9274C3E23A3704022294602
:10397000E01C03F0A5F90A23A4F844303946204698
:10398000FFF766FFCDE7204603F030FEC0B2DDE76B
:10399000204603F02BFE0246E0E7204603F026FE19
:1039A000C0B225E0204603F021FE0246164E214615
:1039B000F01C03F085F9134D3E23AB7040223146D5
:1039C000E81C03F07DF90023A5F844303946284669
:1039D000FFF73EFF33781C44204603F007FE80B219
:1039E00000289ED0204603F001FE3B28D5D93B207D
:1039F000054B1870204603F0F9FD3B28D2D93B2235
:103A0000D4E700BF040608209C05001010B582B062
:103A1000144B5A6912F4807F0CBF022200225B69AA
:103A200013F0100F08BF42F001020F4C23680093FF
:103A30000E4B1B6831320E490E4803F0B7FD236868
:103A4000042B07DC0123042200210A48FFF760FF52
:103A500002B010BD0123042202210648FFF758FFDF
:103A6000F6E700BF20C009208C050010900500106B
:103A7000C0A90100DC05001030B589B00546322030
:103A8000FFF788FE08B909B030BD2A4CFD2323702A
:103A9000FF236370284A536913F4807F0CBF02230D
:103AA0000023526912F0100F08BF43F001030133E5
:103AB0008DF81430214B1B680693214B1B6807932C
:103AC0000C23A370402205A9E01C03F0F9F84FF67F
:103AD000FF73A4F8443029462046FFF7B9FE194B7E
:103AE0001B781BB12846FFF791FFCCE7124B5A69B0
:103AF00012F4807F0CBF022200225B6913F0100FCA
:103B000008BF42F00102104C104B0293104B01937E
:103B1000104B0093104B31321049204603F046FD04
:103B20000123042200212046FFF7F2FE054B01226B
:103B30001A70D7E70406082020C00920900500105D
:103B40008C050010DA050010DC05001018AA010031
:103B500024AA010030AA0100ECA90100F0A901008B
:103B600070B505460C463220FFF714FE00B970BD53
:103B7000094E24233370002373703223B370402224
:103B80002946F01C03F09CF80A23A6F8443021468D
:103B90003046FFF75DFEEAE70406082070B50546EB
:103BA0000C463220FFF7F6FD00B970BD094E3B23ED
:103BB0003370FE2373703C23B37040222946F01CFF
:103BC00003F07EF80A23A6F8443021463046FFF77A
:103BD0003FFEEAE70406082030B583B00C46154ADC
:103BE000536913F4807F0CBF02230023526912F043
:103BF000100F08BF43F0010301338DF804308DF836
:103C000005003220FFF7C6FD08B903B030BD0A4DEC
:103C100000232B706B700223AB70402201A9E81CBB
:103C200003F04EF80A23A5F8443021462846FFF752
:103C30000FFEEAE720C00920040608207047FFFFB6
:103C400010B588B004464B48FCF75AFB4A4A136843
:103C50000133136023782F2B1DD8022B29D3023B6D
:103C60002D2B26D8DFE803F01E2525252525372A0C
:103C7000252525252525252525253F2525252525DA
:103C80002525252525252525474F25255725252566
:103C90005F2525676F77FC2B65D0FE2B09D1FFF7D9
:103CA00087FA06E0204600F06BF801210420FFF7B8
:103CB00093FF3248FCF724FB08B010BD03AC20464C
:103CC00000F0B0FC01230193079B009394E80F00E0
:103CD000FFF7DCFDEDE7204600F070FA012100203F
:103CE000FFF77AFFE5E7204600F0E0F90121052023
:103CF000FFF772FFDDE7204600F028FA01210A20D5
:103D0000FFF76AFFD5E701F0ADFE0121FFF728FFBD
:103D1000FFF74EFACDE7204600F03CFA01210846B5
:103D2000FFF75AFFC5E7204600F026FA01210620DA
:103D3000FFF752FFBDE7204600F04CF801210720B5
:103D4000FFF74AFFB5E7204600F051F801210820AF
:103D5000FFF742FFADE7204600F01AF901210920E4
:103D6000FFF73AFFA5E70120FFF786FEFFF720FAED
:103D70009FE700BF34AA0100240600104CAA0100EE
:103D800000B587B01422C11C01A802F099FF9DF86C
:103D9000163063B901A800F0D7FE9DF81030062B4D
:103DA00008D09DF8163093B907B05DF804FB00F019
:103DB000D3FEEFE700F004FDBDF90C1000F00BFAA4
:103DC00000F0FAFCBDF90E1000F005FAE9E700F08A
:103DD00033FFE9E700B585B01022C11C684602F048
:103DE0006FFF684600F0FEFB05B05DF804FB30B5E0
:103DF00087B01822C11C684602F062FF9DF80030AF
:103E0000042B42D8DFE803F003436383A30000F0F0
:103E1000D3FC04469DF8153080F83430019B836054
:103E2000029BC360039B0361BDF9120002F0E8FC32
:103E3000A0619DF81050284602F0DEFC2062684226
:103E400002F0DEFC60629DF81430237700F0B8FCCD
:103E500004469DF8153080F83430019B8360029B46
:103E6000C360039B0361BDF9120002F0C9FCA061AD
:103E70009DF81050284602F0BFFC2062684202F014
:103E8000BFFC60629DF81430237707B030BD00F0AE
:103E90008BFC04469DF8153080F83430019B83601C
:103EA000029BC360039B0361BDF9120002F0A8FCF2
:103EB000A0619DF81050284602F09EFC20626842E6
:103EC00002F09EFC60629DF814302377DDE700F07D
:103ED0006FFC04469DF8153080F83430019B8360F8
:103EE000029BC360039B0361BDF9120002F088FCD2
:103EF000A0619DF81050284602F07EFC20626842C6
:103F000002F07EFC60629DF814302377BDE700F07C
:103F100013FE04469DF8153080F83430019B836011
:103F2000029BC360039B0361BDF9120002F068FCB1
:103F3000A0619DF81050284602F05EFC20626842A5
:103F400002F05EFC60629DF8143023779DE700F07C
:103F5000F7FD04469DF8153080F83430019B8360EE
:103F6000029BC360039B0361BDF9120002F048FC91
:103F7000A0619DF81050284602F03EFC2062684285
:103F800002F03EFC60629DF8143023777DE7FFFF6E
:103F9000F0B585B00C22C11C01A802F091FE00F022
:103FA0003DFB0446BDF8040002F026FC3C4902F04B
:103FB0002FFD3C4902F078FC01462768384602F0A4
:103FC00073FC0546BDF8060002F016FC344902F009
:103FD0001FFD354902F01CFD324902F065FC3149F4
:103FE00002F062FC0146384602F05EFC0646BDF86F
:103FF000080002F001FC2A4902F00AFD2A4902F0F9
:1040000007FD284902F050FC264902F04DFC01460C
:10401000384602F049FC02463146284600F0B0FD21
:10402000BDF80A0002F0E8FB1D4902F0F1FC1D4951
:1040300002F03AFC0146206802F036FC0546BDF865
:104040000C0002F0D9FB164902F0E2FC164902F01E
:10405000DFFC144902F028FC124902F025FC01465D
:104060006668304602F020FC0446BDF80E0002F0FF
:10407000C3FB0B4902F0CCFC0B4902F0C9FC094917
:1040800002F012FC074902F00FFC0146304602F034
:104090000BFC02462146284600F07AFD05B0F0BD33
:1040A0000000C8420000A04000007A4410B594B05F
:1040B0004C22C11C01A802F003FE00240DE004EB19
:1040C000440114AB03EB4101BDF8063031F8442C38
:1040D00031F8461C01F068F901349DF80430A34220
:1040E0002EDD04EB440314AA02EB430313F8480C3F
:1040F000144AA2FB003214494B6913F4807F0CBFB1
:1041000002230023496911F0100F08BF43F0010397
:104110000133B3EBD20FDFD1D30803EB8303A0EB62
:104120004300C0B20528CAD804EB440314AA02EB2A
:104130004303BDF8062033F8461C01F00FFBCBE724
:1041400014B010BDCDCCCCCC20C0092000B583B0BC
:104150000122C11C01A802F0B3FD9DF80420024B0E
:104160001A7003B05DF804FB22060010014B1878AA
:10417000704700BF2206001000B583B00122C11CA9
:1041800001A802F09DFD9DF8040000F077FA03B04D
:104190005DF804FB00B583B00222C11C01A802F047
:1041A0008FFD9DF804100020FEF7F4F99DF805102E
:1041B0000120FEF7EFF903B05DF804FB00B587B00E
:1041C0001422C11C01A802F07BFD01A800F038FAFE
:1041D00007B05DF804FB10B50446084602F010FB7A
:1041E000206010BD10B50446084602F009FB60606F
:1041F00010BD016201F10041416270472DE9F041BB
:10420000044647683946006802F044FA05463946D4
:10421000A06A02F03FFA80466169284602F03CFA43
:104220006061A669314602F0FBFC00B1666106F1EF
:1042300000463146606902F0D5FC00B1666100219C
:10424000284602F0EDFC002841D00021606902F010
:10425000C9FC002838D1267F2946A06802F024FB3B
:1042600005464146206902F01FFB0146284602F040
:1042700013FA0546D4F83880304602F0C1FA4146B8
:1042800002F012FB0146284602F006FA0546616973
:10429000E06802F009FB294602F0FEF9054694F8B1
:1042A000343003B90025266A2946304602F09AFCCC
:1042B00030B9666A2946304602F0B2FC00B92E4693
:1042C000A663A762BDE8F08100236361C3E7002114
:1042D000284602F087FC0028BDD00021606902F06A
:1042E0009FFC0028B7D000236361B4E738B50446CB
:1042F000056A2946806B02F093FC00B1A563656AEC
:104300002946A06B02F06EFC00B1A56338BDF8B57C
:10431000044645682946006802F0BCF90646A16AD1
:10432000284602F0B7F907466169304602F0B4F951
:10433000054660613146A06802F0B6FA0646394685
:10434000206902F0B1FA314602F0A6F90646E168AA
:10435000284602F0A9FA314602F09EF994F834306A
:1043600003B90020A0632046FFF7C0FF6368A36283
:10437000F8BDFFFF90B58FB000AFF860B9607A600C
:10438000BB685B688D4A1360BB681B688C4A13600E
:104390008A4B1A688A4B1B681344DA0F13445B106C
:1043A0001A46884B1A60FB681C69844B1A68844B58
:1043B0001B68D31A184602F023FA03461946204612
:1043C00002F06AF90346184602F034FC03467E4ABE
:1043D00013607C4B1A687D4B1B68D31A3B637A4B86
:1043E0001A687B4B1B68D31AFB62774B1A68784BB1
:1043F0001B681344DA0F13445B10BB62F86A02F0C7
:10440000FFF902467B685B681946104602F000FB24
:1044100003467B62B86A02F0F3F902467B685B6888
:104420001946104602F0F4FA03463B62FB6A002B81
:1044300003D14FF07E537B6315E04FF08041786AE3
:1044400002F0E6FA0346184604F038FD04464FF041
:104450008041786A02F0DCFA03461946204602F0F1
:10446000D7FA03467B63386B02F0CAF90346796BCF
:10447000184602F019FA03461C46386A04F0DEFCBE
:1044800003461946204602F00FFA0346FB61386BDB
:1044900002F0B6F90346796B184602F005FA0346B6
:1044A0001C46386A04F00AFD03461946204602F00D
:1044B000FBF90346BB614FF00001B86902F0F4F963
:1044C00003467B614FF00001F86902F0EDF9034605
:1044D0003B617969F86902F0DFF80346FB613969ED
:1044E000B86902F0D9F80346BB61FB681C687B68B9
:1044F0001B681946F86902F08BFA034619462046F4
:1045000002F0CAF803461A46FB681A60FB685C684A
:104510007B681B681946B86902F07AFA03461946A7
:10452000204602F0B9F803461A46FB685A60FB6859
:104530003A6A9A6009E0FB689B682649184602F0CF
:10454000A9F803461A46FB689A60FB689B682249F3
:10455000184602F065FB0346002BECD109E0FB682E
:104560009B681C49184602F097F803461A46FB68F8
:104570009A60FB689B681949184602F033FB0346B2
:10458000002BECD1FB689B681549184602F08CF9AA
:1045900003461149184602F03BFA03461A46FB68E7
:1045A000DA60094B1B680A4A1360064B1B68074A0E
:1045B000136000BF3C37BD4690BD00BF2806001009
:1045C0002C060010300600103406001038060010CB
:1045D0003C060010DB0FC940DB0F4940DB0F49C030
:1045E0000000344338B50B4C0FC884E80F004FF07F
:1045F0007C51A06802F058F904464FF07E5102F059
:104600004BF8054D686121464FF07E5002F042F8AC
:10461000286138BD58060010400600100048704759
:104620005806001070B406460446044D0FCD0FC462
:104630002B682360304670BC704700BF68060010CE
:1046400070B50B4E354604460FCC0FC5094B596863
:10465000B06802F029F90446074B58681B68C01A75
:1046600002F0CEF80146204602F014F8306170BD29
:10467000680600105806001040060010014B187321
:10468000704700BF58060010024B187B003818BF57
:10469000012070475806001000B583B01022002199
:1046A0000C4802F01BFB142200210B4802F016FB01
:1046B00018220021094802F011FB00230193042273
:1046C0000092A02206490748FDF79CF803B05DF868
:1046D00004FB00BF580600106806001040060010DA
:1046E00060AA0100E946010000B585B0FDF75EF95A
:1046F000039003E0642103A8FDF74EFA104B5B7BA7
:10470000032BF7D001A8FEF7C9F80E4C6569019894
:1047100002F076F8294602F0C7F802F08BFA6060E2
:104720002569029802F06CF8294602F0BDF802F003
:1047300081FA2060024A21460348FFF71BFED9E7B1
:1047400058060010400600106806001000B583B03F
:104750003C2200210E4802F0C1FA3C2200210D4803
:1047600002F0BCFA3C2200210B4802F0B7FA3C22CE
:1047700000210A4802F0B2FA0023019303220092BA
:10478000782207490748FDF73DF803B05DF804FBC0
:104790007C060010B8060010F40600103007001068
:1047A00070AA010009480100004870477C0600100B
:1047B00000487047B806001000487047F406001023
:1047C000004870473007001008B501460148FFF760
:1047D00002FD08BD7C06001008B501460148FFF740
:1047E000FAFC08BDB806001008B501460148FFF7FD
:1047F000F2FC08BDF406001008B501460148FFF7B9
:10480000EAFC08BD3007001000B583B00446FDF790
:10481000CDF8019006E0204600F0A4F8322101A86E
:10482000FDF7BAF9FFF7FAFE437B002BF3D0013B0B
:10483000DBB2012B07D8204600F00AF8322101A88C
:10484000FDF7AAF9EEE7322101A8FDF7A5F9E9E79E
:1048500070B582B06846FEF721F8009B3A4D296892
:1048600001983A4A1468041B2B601060384D591A9D
:104870002846FFF7B7FC2846FFF7C0FC354D214618
:104880002846FFF7AFFC2846FFF7B8FCFFF7FCFE11
:1048900000284BD12E4B9E6BAD6B2F49304602F05A
:1048A000BFF900B12C4E2D49304602F09BF900B102
:1048B0002A4E2949284602F0B3F900B1264D27496E
:1048C000284602F08FF900B1244D284604F0F2FA90
:1048D00002F0D6F90246224C00212046FDF7FEFDEB
:1048E000304604F0E7FA02F0CBF9024601212046F7
:1048F000FDF7F4FD4FF001040021304602F086F987
:1049000008B94FF00004E4B284F001044FF001064E
:104910000021284602F07AF908B94FF00006214636
:1049200006F00100FDF71CFE02B070BD084B9D6B48
:10493000084B986B02F07EF90446284602F07AF99B
:104940002146FDF7B5FFEFE770070010780700106C
:10495000F4060010300700100000C8420000C8C272
:104960000000094070B582B06846FDF797FF009ED1
:104970004B480568751B019A4A4B1C68141B291982
:1049800006601A60484E41F34F013046FFF72AFC9B
:104990003046FFF7BCFC454E291B3046FFF722FC92
:1049A0003046FFF7B4FCFFF76FFE002855D13E4BB1
:1049B0009C6BB66B3146204601F06EFE05463146D3
:1049C000204601F067FE04463949284602F028F9DE
:1049D00000B1374D3749284602F004F900B1354D92
:1049E0003349204602F01CF900B1314C31492046D0
:1049F00002F0F8F800B12F4C204604F05BFA02F008
:104A00003FF902462C4E00213046FDF767FD28464F
:104A100004F050FA02F034F9024601213046FDF765
:104A20005DFD4FF001060021284602F0EFF808B9BD
:104A30004FF00006F6B286F001064FF001050021A6
:104A4000204602F0E3F808B94FF00005314605F0C2
:104A50000100FDF785FD02B070BD134B9C6B134B3D
:104A60009E6B3146204601F017FE05463146204632
:104A700001F010FE04464FF07C51284601F014FF6F
:104A800005464FF07C51204601F00EFF02F0D2F8AF
:104A90000446284602F0CEF82146FDF709FFDAE782
:104AA0006C070010740700107C060010B806001098
:104AB0000000C8420000C8C20000094000B583B031
:104AC0003C220021124802F009F93C220021114841
:104AD00002F004F90123104A1376104A13761222C9
:104AE00000210F4802F0FAF8102312220D490E4857
:104AF00001F074F90D4B019303230093002364220A
:104B00000B490C48FCF77EFE03B05DF804FB00BFC8
:104B1000C80700100408001090070010AC07001030
:104B20007C07001040080010600900107409001094
:104B300080AA0100E14F010000487047C80700103B
:104B4000004870470408001008B50146014801F00C
:104B50004DF908BD6009001008B5034801F0FCF9E3
:104B6000024B00221A7308BD600900107C07001078
:104B700010B50C46FFF728FE2046FFF72DFE10BDAE
:104B8000024B19605A609860704700BF9007001090
:104B9000024B19605A609860704700BFAC07001064
:104BA000014BD860704700BF90070010014BD860E0
:104BB000704700BFAC07001070B50C4615461E4686
:104BC000B0F9040001F01CFE164901F021FFA168B4
:104BD00001F060FD0446A87801F00EFE114901F0D5
:104BE00017FF0546204604F065F9294602F004F84F
:104BF00030B100230C4A13610C4A1361012070BDCF
:104C000000252846FFF7CCFF2146706801F04CFED6
:104C1000FFF7CCFF044B1D61044B4FF07E521A612D
:104C20000020ECE70000C84290070010AC0700101D
:104C300008B501F037F908BD08B50249024801F08E
:104C400031F908BD7C0700106009001070B50E46F0
:104C50001D460146104601F01DFD014601F024FEEF
:104C600004463146284601F015FD014601F01CFEC0
:104C70000146204601F010FD04F060F970BDFFFF11
:104C800070B50E461D460146104601F003FD044670
:104C90003146284601F0FEFC0646204601F04EFC57
:104CA00004460D46304601F049FC22462B4604F0EE
:104CB00043F901F09BFC04460B4901F0B1FF30B110
:104CC0000A49204601F0E6FC0446204670BD08492A
:104CD000204601F087FF0028F7D00449204601F064
:104CE000DBFC0446F1E700BFDB0F4940DB0FC940A6
:104CF000DB0F49C02DE9F04705460C46174699469B
:104D0000B0F90080B0F9020001F07AFD0646404695
:104D100001F076FD0246334661682068FFF796FF92
:104D20000646B5F900A0B5F9020001F069FD80461C
:104D3000504601F065FD0246434661682068FFF772
:104D40009FFFA16801F0A6FC0446774901F068FFC7
:104D500010B37649204601F09DFC04462B7B022BC4
:104D600026D0304604F0A6F88046388801F044FD8D
:104D70006F4901F04DFE0146404601F033FF002827
:104D80003CD000206B4B1861FFF710FF0125002D70
:104D90007CD02846BDE8F0876749204601F022FF15
:104DA0000028DBD06149204601F076FC0446D5E7B7
:104DB0006249204601F034FF20B96149204601F0E4
:104DC00011FF08B106F100465749204601F064FC86
:104DD0000446554901F024FF20B15449204601F012
:104DE00059FC04465449204601F0FCFE0028B8D086
:104DF0004E49204601F050FC0446B2E7304604F02C
:104E000059F88046388801F0F7FC4E4901F04CFD16
:104E1000474901F0FDFD0146404601F0E3FE68B35D
:104E20002B7B012B04D0022B15D000240025AEE7EC
:104E30004249204601F0F4FE20B94149204601F0E4
:104E4000D1FEE8B106F100463749204601F024FCC6
:104E5000002400259BE73949204601F0E1FE20B9F6
:104E60003749204601F0BEFE68B106F100462E49E2
:104E7000204601F011FC0024002588E7002586E784
:104E80000024002583E70024002580E73146D9F877
:104E9000000001F009FDFFF783FE2146D9F8040068
:104EA00001F002FDFFF782FEF87801F0A5FC204931
:104EB00001F0AEFD0646204603F0FCFF314601F04E
:104EC0009BFE38B9204B00221A611A4B4FF07E52DC
:104ED0001A615EE7204603F0EDFF0146304601F01F
:104EE000D9FB314601F094FD0746174B1861314656
:104EF000204601F08DFD04460E4B18610021384616
:104F000001F070FE58B90021204601F06BFE002828
:104F10003FF43FAF04F10044064B1C6139E707F151
:104F20000047094B1F61EEE7DB0F4940DB0FC9402B
:104F30000000C842AC070010DB0F49C0DB0FC93FBF
:104F4000DB0FC9BF000040409007001038B5054690
:104F50000C4601F047FE08B9204638BD2846FCE75C
:104F6000F8B5037E002B38D004460D46164601687E
:104F7000406901F091FB0746E6B1A668A168384692
:104F8000FFF7E4FF3146FFF7E1FF6061E06801F001
:104F900051FE01462846FFF71EF92169606901F0BC
:104FA00083FC01462846FFF724F92169606901F076
:104FB0007BFCF8BD6068014601F06EFB064669683F
:104FC000E06801F067FB03F075FF0146304601F031
:104FD0006BFC03F0B3FF0646D0E70020E9E7FFFFD4
:104FE0002DE9F0418CB03220FCF706FEFCF7DEFC28
:104FF0000B90002504E0043BDBB2022B00F2DA80C8
:1050000064210BA8FCF7C8FDA44B1B7B032B5BD0D2
:10501000F1D8013BDBB2012B00F2CC806846FFF7F0
:1050200001FB06AE6C460FCC0FC6236833609B4B6A
:105030001B7B013BDBB2012B40F2EE80002D00F028
:10504000F68000242046FFF7ABFD2046FFF7AEFDBB
:10505000DFF85482C8F81040914F3C61FFF76CFDB7
:105060000646002201464046FFF77AFFFFF768FD3B
:105070000446002201463846FFF772FF3046FFF72C
:10508000BDF82046FFF7BAF884498648FFF7D0FDFF
:10509000FFF7C4FA437B012B00F0E7805AB21AB144
:1050A000023BDBB2012BABD9FFF746FD866BFFF766
:1050B00047FD806B01F0BEFD0446304601F0BAFDAD
:1050C0002146FFF755FD9BE76846FFF7ABFA06ADB3
:1050D0006C460FCC0FC523682B60FFF79FFA034681
:1050E0006E4800F10E0206A9FFF766FD054600288E
:1050F0003CD000242046FFF753FD2046FFF756FD25
:10510000DFF8A481C8F81040654F3C61FFF714FD3B
:105110000646002201464046FFF722FFFFF710FD3A
:105120000446002201463846FFF71AFF3046FFF7D3
:1051300065F82046FFF762F858495A48FFF778FDAE
:10514000FFF76CFA437B012B24D05AB222B1023B09
:10515000DBB2012B7FF654AFFFF7F2FC806B01F05E
:1051600069FD01460020FFF703FD49E7FFF7E8FC72
:1051700004460021FFF736F8484B5A7B2146484841
:10518000FFF7EEFEFFF7D8FCFFF738F82046FFF7F1
:1051900035F8D5E7FFF7D4FC0446806B00F10040FA
:1051A00001F048FDFFF728FBA06B01F043FDFFF77E
:1051B0001BFB25E700242046FFF7F2FC2046FFF703
:1051C000F5FCDFF8E480C8F81040354F3C61FFF78C
:1051D000B3FC0646002201464046FFF7C1FEFFF73A
:1051E000AFFC0446002201463846FFF7B9FE3046C0
:1051F000FFF704F82046FFF701F800210846FFF703
:10520000B7FC0020FFF7F8FA0020FFF7EDFA23497A
:105210002448FFF70DFDF3E6FFF700FA03461F48A9
:1052200000F10E0206A9FFF765FD054606E7FFF748
:1052300083FC06460021FEF7D5FFFFF781FC0446FC
:105240000021FEF7CFFF154F7A7B31461648FFF756
:1052500087FE7A7B21461248FFF782FE3046FEF732
:10526000CDFF2046FEF7CAFF12E7FFF765FC0446B4
:10527000876BFFF765FC0646816B384601F00AFA3A
:1052800001F0D8FCFFF7B8FAB16BA06B01F004FA9B
:1052900001F0D0FCFFF7A8FAB2E600BF7C070010CF
:1052A000AC07001060090010900700107047FFFF66
:1052B00070B582B0002248210220FBF785FF0E4D19
:1052C00028600E4C2146FCF7E3F8002601960123E6
:1052D00000932B68642204F118010948FCF792FA44
:1052E0000196022300932B68642204F124010548EF
:1052F000FCF788FA02B070BDC009001098AA01003E
:10530000615301000953010008B504463220FCF73F
:1053100073FC07E00F4BDB78B3B920210E4B186804
:10532000FBF72DFC4FF0FF320A492046FCF72AF824
:105330000028F7D0074B5B78022BEBD048220549B9
:10534000064801F0BDFCEDE74021034B1868FBF770
:1053500016FCE7E74C0608208405001078090010C9
:1053600000B583B004463220FCF746FC94B14FF000
:10537000FF33009300230122102109480068FBF746
:1053800093FB084800F0E4FD0028F0D02046FDF72C
:1053900091FBF6E7FCF77AFDFCF766FAE7E700BF5A
:1053A000840500104C0400102DE9F0410E4617460C
:1053B00098460538C4B2204600F09AF8301A01F039
:1053C0001FFA0D4901F070FA0546404601F018FA3F
:1053D0000146284601F01CFB084901F019FB084969
:1053E00001F016FB01F04CFC3B4682B231462046F0
:1053F00000F02EF8BDE8F081E17A943E00007A4496
:10540000FA7E2A3F30B583B005460C4660210F4B2B
:105410001868FBF7A7FB2846FDF7DAFB0CB903B0C9
:1054200030BD00246423009300230122202107487B
:105430000068FBF739FB0028F1D12846FDF7C8FBCF
:105440000134E4B2032CEDD9E9E700BF8405001074
:1054500090B59BB000AF0446084611461A46234655
:10546000FB710346BB800B467B8013463B80BB88A9
:105470001B0A9BB27B66BB88DBB23B667B881B0A40
:105480009BB2FB657B88DBB2BB653B881B0A9BB28A
:105490007B653B88DBB23B65FB793B7209237B7202
:1054A0000323BB721E23FB723B6EDBB23B737B6E2E
:1054B000DBB27B73BB6DDBB2BB73FB6DDBB2FB732B
:1054C0003B6DDBB23B747B6DDBB27B744822002109
:1054D000064801F003FC07F1080301211846FFF715
:1054E00091FF00BF6C37BD4690BD00BF780900102A
:1054F00080B596B000AF0346FB710023A7F8563085
:10550000FB793B7304237B730223BB732423FB735C
:1055100002233B74482200210F4801F0DFFB07F112
:105520000C0301211846FFF76DFF0B4B1B79A7F801
:105530005630B7F856301B02A7F85630064BDB78CA
:105540009AB2B7F856301344A7F85630B7F8563029
:1055500018465837BD4680BD7809001080B485B024
:1055600000AF03460A46FB711346BB71BB79FB6073
:10557000FB681B02FB60FB79FA681344FB60FB6865
:1055800018461437BD4680BC7047FFFF80B596B003
:1055900000AF03463960FB71002387F85730FB7971
:1055A0003B7304237B730223BB732423FB73082305
:1055B0003B7448220021484801F090FB07F10C039E
:1055C00001211846FFF71EFF434B5B78002B01D1EA
:1055D00000237DE097F857303F4A1344DA7897F874
:1055E000573001333C490B44DB7819461046FFF72E
:1055F000B5FF03469AB23B685A8097F8573002339A
:10560000354A1344DA7897F85730033332490B445C
:10561000DB7819461046FFF7A1FF03461AB23B6834
:105620009A803B68B3F90430B3F5806F12DB3B68B6
:10563000B3F904309BB2A3F2FF339BB21AB23B68BA
:105640009A803B68B3F904309BB25B429BB21AB2BA
:105650003B689A8097F8573004331F4A1344DA782E
:1056600097F8573005331C490B44DB781946104630
:10567000FFF774FF03461AB23B68DA803B68B3F960
:105680000630B3F5806F12DB3B68B3F906309BB28E
:10569000A3F2FF339BB21AB23B68DA803B68B3F9DE
:1056A00006309BB25B429BB21AB23B68DA8097F835
:1056B00057300633084A1344DA783B685A7497F82F
:1056C00057300733044A1344DA783B681A740123CD
:1056D00018465837BD4680BD7809001000B583B024
:1056E00048220021074801F0F9FA00230193012222
:1056F0000092462204490548FCF784F803B05DF89F
:1057000004FB00BFC4090010D0AA0100ED5701003E
:1057100070B5044629B90088608001F06DF86060BA
:1057200070BD0D4BA3FB0130000901F069F806467E
:1057300020886388C01A01F063F80546002101F053
:1057400051FA28B93146284601F062F9A060E7E72E
:1057500005F10045F6E700BFCDCCCCCC10B5054B2C
:1057600000EB400423F82410114603EB8400FFF7FC
:10577000CFFF10BDC4090010F8B5044607883846AD
:1057800001F03EF805466668314601F049FAC0B1BD
:105790003146284600F07EFF0146A568284601F004
:1057A0003FFA40B1384601F027F86060606801F0C8
:1057B00067FA6080F8BD2946304600F06DFF6060F2
:1057C000F4E72946304600F065FF0146A568284603
:1057D00001F026FA20B1384601F00EF86060E5E7E6
:1057E0002946304600F056FF6060DFE710B582B012
:1057F0004FF4FA60FCF700FAFCF7D8F8019013E0D8
:10580000104AD18F104BD961518E1962D18C5962D7
:10581000518B1964D189596452889A647F221A6520
:10582000C82101A8FCF7B8F90024052CE8D804EB3E
:105830004400044B03EB8000FFF79EFF0134E4B209
:10584000F3E700BFC40900100080014010B5044612
:105850004822024901F034FA204610BDC409001064
:1058600000B583B032220021074801F037FA002347
:10587000019302220092962204490548FBF7C2FFD9
:1058800003B05DF804FB00BF94060820DCAA010009
:1058900095580100F0B59FB00A20FCF7ADF9FCF770
:1058A00085F81D9036E0002400E00134032C13DC61
:1058B00018A9E0B2FFF76AFE0028F6D0BDF8621022
:1058C0005E4B04F10C0223F81210BDF9661004F1CE
:1058D000100223F81210E8E7002408E0E0B2FDF718
:1058E00079FB04F11402554B23F812000134032C08
:1058F000F4DD0620FDF76EFB00F07EFF504900F05E
:10590000D3FF504B1860504900F0CEFF01F0B8F9BA
:105910004A4B188664211DA8FCF73EF9FEF726FCC9
:10592000464C2070494E736913F4807F0CBF0223EC
:105930000023726912F0100F08BF43F00103013316
:105940006370FCF789FE0546FEF79EFE45EA4003BC
:105950005BB27569C5F3C06543EA85037269C2F33A
:10596000007243EAC203A3707369C3F38073726960
:10597000D20F43EA4203364A5169C1F3807143EAC8
:1059800081035169C1F3407143EAC1033148416960
:10599000C1F3406143EA01134169C1F3806143EA05
:1059A0004113E3705369C3F380535169C1F340510C
:1059B00043EA41035169C1F3005143EA810352694B
:1059C000C2F3C04243EAC2032371234F12A8FEF779
:1059D00029FE3E4612AD0FCD0FC62B6833601F491E
:1059E000386800F061FF01F025F9E0801B49786814
:1059F00000F05AFF01F01EF920811349F86800F009
:105A000053FF01F017F960816846FFF71FFF482236
:105A10006946134801F054F90023052B3FF743AFC3
:105A200003EB43010E4A02EB81025188181D034A21
:105A300002EB400291800133EFE700BF940608209B
:105A40009F8EC73B680A00100000C84220C0092092
:105A500000C0092060C009200C0A0010000020418D
:105A6000200A00100048704794060820036823F0BD
:105A7000E06343EA016303607047FFFF38B5044603
:105A80000C200D4600F0AEF84FF470636363002302
:105A9000094AE3600C20AB802A6000F030F9074B24
:105AA00003EB40030648B3FBF0F3013BDBB21B0200
:105AB00043F40013236038BD400D0300405DC60071
:105AC00080BA8C01043150F82130002BBDBFC3F3E4
:105AD0000B130120138000207047012A07D0022AEF
