:020000021000EC
:100000000080001085010100FD01010003020100D4
:10001000090201000F0201001502010000000000AA
:1000200000000000000000000000000001140100BA
:100030002102010000000000F11401003915010047
:1000400033020100330201003302010033020100D8
:10005000330201003302010049550100330201005F
:1000600033020100330201003302010033020100B8
:1000700033020100330201003302010033020100A8
:100080003302010033020100330201003302010098
:100090003302010033020100330201003302010088
:1000A000F95501003302010033020100330201005F
:1000B0003302010033020100330201003302010068
:1000C00033020100330201003302010058B801007D
:1000D00000000010F001000058B8010000C0072027
:1000E0000000000058B8010000C807200000000010
:1000F000F00100108052000000C007200000000046
:1001000000C80720AC25000080B489B000AFF860BB
:10011000B9607A60BB68FB61FB68BB6100237B61EF
:100120000AE0BA69131DBB61FB69191DF961126808
:100130001A607B6904337B617A697B689A42F0D3E9
:1001400000BF00BF2437BD4680BC704780B485B077
:1001500000AF786039607B68FB600023BB6007E01C
:10016000FB681A1DFA6000221A60BB680433BB608A
:10017000BA683B689A42F3D300BF00BF1437BD464C
:1001800080BC704780B584B000AF194BFB6013E0B2
:10019000FB681A1DFA601B683B60FB681A1DFA6059
:1001A0001B68BB60FB681A1DFA601B687B607A687D
:1001B000B9683868FFF7A8FFFB680E4A9342E7D397
:1001C0000DE0FB681A1DFA601B68BB60FB681A1D16
:1001D000FA601B687B607968B868FFF7B7FFFB6857
:1001E000054A9342EDD300F01FFB00F0B7F9FEE79C
:1001F000CC000100F00001000801010080B400AF54
:10020000FEE780B400AFFEE780B400AFFEE780B445
:1002100000AFFEE780B400AFFEE780B400AFFEE7BA
:1002200080B400AFFEE780B400AFFEE780B400AF5B
:10023000FEE780B400AFFEE7FFFFFFFFFFFFFFFF19
:10024000FFFFFFFFFFFFFFFFFFFFFFFFFFFFFFFFBE
:10025000FFFFFFFFFFFFFFFFFFFFFFFFFFFFFFFFAE
:10026000FFFFFFFFFFFFFFFFFFFFFFFFFFFFFFFF9E
:10027000FFFFFFFFFFFFFFFFFFFFFFFFFFFFFFFF8E
:10028000FFFFFFFFFFFFFFFFFFFFFFFFFFFFFFFF7E
:10029000FFFFFFFFFFFFFFFFFFFFFFFFFFFFFFFF6E
:1002A000FFFFFFFFFFFFFFFFFFFFFFFFFFFFFFFF5E
:1002B000FFFFFFFFFFFFFFFFFFFFFFFFFFFFFFFF4E
:1002C000FFFFFFFFFFFFFFFFFFFFFFFFFFFFFFFF3E
:1002D000FFFFFFFFFFFFFFFFFFFFFFFFFFFFFFFF2E
:1002E000FFFFFFFFFFFFFFFFFFFFFFFFFFFFFFFF1E
:1002F000FFFFFFFFFFFFFFFFFFFFFFFFFFFFFFFF0E
:1003000080B483B000AF7860084611461A460346B1
:10031000FB700B46BB7013467B707B78002B0ED0B6
:10032000FB785B017A6813449969BB7801229A4093
:10033000FB785B01786803440A439A610DE0FB781F
:100340005B017A681344D969BB7801229A40FB7833
:100350005B01786803440A43DA6100BF0C37BD468D
:1003600080BC704780B584B000AFF860B9601146BA
:100370001A460B46FB711346BB71BB68D9B2BB79F9
:10038000FA79F868FFF7BCFF00BF1037BD4680BDA3
:1003900080B483B000AF78600B46FB701346BB702F
:1003A000FB785B017A6813441968BB7801229A4094
:1003B000FB785B01786803440A431A6000BF0C377E
:1003C000BD4680BC704780B483B000AF78600B46F8
:1003D000FB701346BB70FB785B017A6813441968A5
:1003E000BB78012202FA03F3DA43FB785B017868F9
:1003F00003440A401A6000BF0C37BD4680BC7047FA
:1004000080B582B000AF7860084611461A460346B0
:10041000FB700B46BB7013467B707B78002B06D0BD
:10042000BA78FB7819467868FFF7B2FF05E0BA782A
:10043000FB7819467868FFF7C6FF00BF0837BD464E
:1004400080BD80B582B000AF7860084611461A467C
:100450000346FB700B46BB7013467B707B78BA7803
:10046000F9787868FFF7CCFF00BF0837BD4680BD3C
:1004700080B584B000AF0223FB600023BB60012382
:100480007B604FF0402006F05DFA4FF04022FB68A1
:1004900053604FF04022BB6853604FF0402340F65A
:1004A000FF12DA604FF040227B68536000BF1037C4
:1004B000BD4680BD80B500AF0749084806F0D2F9B7
:1004C000054806F0F9FA05F0FFFF06F0FBFA0448CC
:1004D00000F010FE00BF80BD0024F4000020A10742
:1004E0000000001080B584B000AF78600023FB737B
:1004F00001230E2201211848FFF7A3FF01230F2239
:1005000001211548FFF79DFF012310220121124808
:10051000FFF797FF0023102201210F48FFF722FF6A
:1005200000230F2201210C48FFF71CFF00230E229D
:1005300001210948FFF716FFFB7B0E220121064827
:10054000FFF710FFFB7B83F00103FB7341F2883060
:1005500001F0E2FDF0E700BF00C0092080B582B0E5
:1005600002AFFFF7A7FF00F019F900230193012361
:100570000093002346220649064801F0D1FB00F013
:1005800065F901F0EDFD01231846BD4680BD00BFB1
:1005900034B00100E504010080B483B000AF78609E
:1005A000084611461A460346FB700B46BB701346BD
:1005B0007B707B78002B0ED0FB785B017A6813444C
:1005C0009969BB7801229A40FB785B017868034403
:1005D0000A439A610DE0FB785B017A681344D9699C
:1005E000BB7801229A40FB785B01786803440A4398
:1005F000DA6100BF0C37BD4680BC704780B584B05F
:1006000000AFF860B96011461A460B46FB711346FD
:10061000BB71BB68D9B2BB79FA79F868FFF7BCFF48
:1006200000BF1037BD4680BD80B483B000AF786096
:100630000B46FB701346BB70FB785B017A68134472
:100640005A69BB7822FA03F303F00103002B14BFAD
:1006500001230023DBB218460C37BD4680BC70472F
:1006600080B483B000AF78600B46FB701346BB705C
:10067000FB785B017A6813441968BB7801229A40C1
:10068000FB785B01786803440A431A6000BF0C37AB
:10069000BD4680BC704780B483B000AF78600B4625
:1006A000FB701346BB70FB785B017A6813441968D2
:1006B000BB78012202FA03F3DA43FB785B01786826
:1006C00003440A401A6000BF0C37BD4680BC704727
:1006D00080B582B000AF7860084611461A460346DE
:1006E000FB700B46BB7013467B707B78002B06D0EB
:1006F000BA78FB7819467868FFF7B2FF05E0BA7858
:10070000FB7819467868FFF7C6FF00BF0837BD467B
:1007100080BD80B582B000AF7860084611461A46A9
:100720000346FB700B46BB7013467B707B78BA7830
:10073000F9787868FFF7CCFF00BF0837BD4680BD69
:1007400080B483B000AF786000BF0C37BD4680BC7A
:100750007047FFFF80B500AF01230022022102484D
:10076000FFF74CFF00BF80BD00C0092080B500AF7F
:100770000023002202210248FFF740FF00BF80BD96
:1007800000C0092080B500AF0023072202210248E3
:10079000FFF734FF00BF80BD00C0092080B582B0E4
:1007A00002AF0123002202211448FFF7B2FF012308
:1007B000072202211148FFF7ACFFFFF7D7FFFFF731
:1007C000E1FF04F0B5FF04F033FE03F0E3F802F0BC
:1007D000C5FC04F0D1FF05F0E1FA05F0F9FD00F0E9
:1007E00013F800230193012300930023C822044936
:1007F000044801F095FA00BFBD4680BD00C0092045
:1008000044B001006961010080B500AF0B220221F4
:100810000448FFF709FF03460121184605F0D6FCFE
:1008200000BF80BD00C0092080B582B000AF054B7D
:100830007B60054A7B681A6006F082F800BF0837C3
:10084000BD4680BD08ED00E00000010080B582B02B
:1008500002AF00230193022300930023642208497E
:10086000084801F05DFA002301930223009300235E
:10087000F0220549054801F053FA00BFBD4680BD8E
:1008800054B00100090A01005CB0010091080100A8
:1008900080B584B002AF78600121012005F0C2FC70
:1008A0000121012005F0F2FC44F6206001F034FC47
:1008B0000123494A49494A4805F01EFD0023009397
:1008C000012300224FF4FA714FF4FA7002F02AFD6E
:1008D0004449454808F050FB0123032201214248C6
:1008E00005F09CFB414B00930023012240F61921A7
:1008F00040F2BA6002F094FD3D493B4808F03CFBF1
:10090000012303220121384805F088FB374B00936F
:10091000002301224FF416714FF47A7002F080FD2B
:100920003449314808F028FB0123032201212E48D5
:1009300005F074FB2D4B00930023012240F68C211F
:100940004FF47A7002F06CFD2B49274808F014FB35
:10095000012303220121244805F060FB00230093BA
:100960000123002240F654314FF47A7002F0DAFC91
:1009700022491D4808F000FB0123032201211A48E7
:1009800005F04CFB012300930123002240F68C214B
:100990004FF47A7002F0C6FC1949134808F0ECFADB
:1009A000012303220121104805F038FB0F4B00936F
:1009B000012301224FF416714FF47A7002F030FDDA
:1009C0001049094808F0D8FA0123032201210648FA
:1009D00005F024FB72E700BF0000B44200007A4338
:1009E000000061446CB00100F0010010D538010036
:1009F00084B001009CB00100B4B00100CCB0010093
:100A0000E4B00100FCB0010080B584B000AF7860B4
:100A1000C82001F081FB01F07FFC0346FB6001214F
:100A2000012005F03DFA07F10C03C821184601F03A
:100A300023FBF4E780B483B000AF78600B46FB7013
:100A4000FA787B681A6000BF0C37BD4680BC7047DF
:100A500080B483B000AF78607B685B6918460C3760
:100A6000BD4680BC7047FFFF80B58AB000AF78609C
:100A700039603A685449554808F07EFA544B382298
:100A80001A70534BFE225A70524B02229A70514BED
:100A900006225A704D4808F08FFA03463B2B05D8C2
:100AA0004A4808F089FA0346DBB200E03B23494A92
:100AB0001370464808F080FA03463B2B04D843489D
:100AC00008F07AFA034600E03B231A463F494248C1
:100AD00007F0DCFD3E4B3E229A7040223D493F48E4
:100AE00007F0D4FD3A4B0022A3F84420384804F024
:100AF000CBFE03463A4A104619464D231A4607F0E4
:100B0000C5FD4D233B6180223549364807F0BEFDC7
:100B10000321022004F07CFB00237B6203E000BF82
:100B20007B6A01337B627B6A40F6B7329342F6DD23
:100B30000321022004F058FB00233B6227E0294AEE
:100B40003B6A13441B7819462748FFF773FF0023BD
:100B5000FB6103E000BFFB690133FB61FB690F2B05
:100B6000F8DD09E00023BB6103E000BFBB6901338E
:100B7000BB61BB690F2BF8DD1B48FFF769FF03461C
:100B800003F02603002BEDD03B6A01333B623A6A47
:100B90003B699A42D3DB00237B6103E000BF7B69A2
:100BA00001337B617B69632BF8DD0321022004F0B4
:100BB0002FFB4FF0280383F31188BFF36F8FBFF330
:100BC0004F8FFB6000BFFEE714B1010058C907203A
:100BD00040C8072000C8072003C8072043C80720D3
:100BE00088C80720D8C807200000014080B582B01F
:100BF00000AF182000F052F978607B68002B07D016
:100C00007B6800221A607B680433184600F0FCFA07
:100C10007B6818460837BD4680BDFFFF80B58CB0A5
:100C200000AFF860B9607A603B60FB687B620023CC
:100C3000BB6200233B6201F0D3FA7B6A1B68FB6155
:100C40003A68B968F86900F007F9B861BB69002B28
:100C50000ED0FB69FB620023BB637B68002B28D0AE
:100C60007B6A1A68BB68DB431A407B6A1A6020E023
:100C7000BB6B002B04D1FB69FB6201233B6218E0D4
:100C80007B68002B03D0BB6A43F08073BB623B6878
:100C9000002B03D0BB6A43F08063BB627B6A181DE4
:100CA000BA68BB6A1343BA6B194601F06DFC0023A6
:100CB000FB6201F0A3FA7861BB6B002B31D07B693A
:100CC000002B07D1194B4FF080521A60BFF34F8FA2
:100CD000BFF36F8F01F0D8FEF862FB6A03F0007378
:100CE000002B1AD100F0D0FB7B6A1B68FB623A68CC
:100CF000B968F86A00F0B0F80346002B09D07B68A9
:100D0000002B06D07B6A1A68BB68DB431A407B6AFB
:100D10001A6001233B6200F0D1FBFB6A23F07F43A2
:100D2000FB62FB6A18463037BD4680BD04ED00E02B
:100D300080B584B000AF786039607B68FB6000F0FC
:100D4000A3FBFB681B68BB60FB681A683B68DB435E
:100D50001A40FB681A6000F0B1FBBB6818461037F8
:100D6000BD4680BD80B58CB000AF7860396000238F
:100D7000BB627B683B6200237B623B6A0433FB619E
:100D8000FB690833BB6101F02BFAFB69DB68FB628E
:100D90003B6A1A683B681A433B6A1A603CE0FB6A8C
:100DA0005B687B61FB6A1B683B6100237B623B697C
:100DB00003F07F43FB603B6923F07F433B61FB68AB
:100DC00003F08063002B08D13B6A1A683B6913402B
:100DD000002B0BD001237B6208E03B6A1A683B6959
:100DE00013403A699A4201D101237B627B6A002B4E
:100DF00010D0FB6803F08073002B03D0BA6A3B6904
:100E00001343BB623B6A1B6843F000731946F86AE0
:100E100001F04AFC7B69FB62FA6ABB699A42BED167
:100E20003B6A1A68BB6ADB431A403B6A1A6001F0EE
:100E3000E5F93B6A1B6818463037BD4680BD80B572
:100E400082B000AF7860396039687868FFF78AFF50
:100E500000BF0837BD4680BD80B487B000AFF860E2
:100E6000B9607A6000237B617B68002B07D1FA6848
:100E7000BB681340002B0AD001237B6107E0FA68AE
:100E8000BB681340BA689A4201D101237B617B6938
:100E900018461C37BD4680BC7047FFFF80B586B042
:100EA00000AF78600023FB6001F09AF93F4B1A68AD
:100EB0007B681340002B72D17B68002B0DD0082279
:100EC0007B6813447B607B6803F00703002B04D02E
:100ED0007B6823F0070308337B607B68002B5ED0C0
:100EE000334B1B687A689A4259D8324B3B61314B7D
:100EF0001B687B6104E07B693B617B691B687B61EC
:100F00007B695B687A689A4203D97B691B68002B0E
:100F1000F1D1294B1B687A699A4240D03B691B6822
:100F200008221344FB607B691A683B691A607B697D
:100F30005A687B68D21A08235B009A420FD97A69F3
:100F40007B681344BB607B695A687B68D21ABB68B4
:100F50005A607B697A685A60B86800F073F8144B7D
:100F60001A687B695B68D31A114A1360104B1A68C0
:100F7000124B1B689A4203D20D4B1B680F4A136039
:100F80007B695A68094B1B681A437B695A607B6905
:100F900000221A600A4B1B680133094A136001F0F2
:100FA0002DF9FB6818461837BD4680BD5402001065
:100FB00044020010380200104002001048020010E5
:100FC0004C02001080B584B000AF78607B68FB6095
:100FD0007B68002B2CD008235B42FA681344FB602B
:100FE000FB68BB60BB685A68134B1B681340002B3F
:100FF0001ED0BB681B68002B1AD1BB685A680E4B09
:101000001B68DB431A40BB685A6001F0E9F8BB6813
:101010005A680A4B1B681344084A1360B86800F00A
:1010200011F8074B1B680133054A136001F0E6F81D
:1010300000BF1037BD4680BD5402001044020010AE
:101040005002001080B485B000AF7860274BFB6081
:1010500002E0FB681B68FB60FB681B687A689A42C9
:10106000F7D8FB68BB60FB685B68BA6813447A68B2
:101070009A4208D1FB685A687B685B681A44FB682F
:101080005A60FB687B607B68BB607B685B68BA68A2
:101090001A44FB681B689A4218D1FB681A68144B03
:1010A0001B689A420DD07B685A68FB681B685B68B6
:1010B0001A447B685A60FB681B681A687B681A6070
:1010C00008E00B4B1A687B681A6003E0FB681A683B
:1010D0007B681A60FA687B689A4202D0FB687A687B
:1010E0001A6000BF1437BD4680BC7047380200103C
:1010F0004002001080B48BB000AF786000233B61E9
:1011000000233B620023FB61FB69DB007A68134428
:101110007B615CE07B695B687B627B691B68BB61B0
:10112000BB6903F00703002B0ED0BB690733BB611B
:10113000BB6923F00703BB617B691B681A46BB6967
:10114000D31A7A6A13447B62BB69FB60FB69002B8C
:1011500005D1FB68274A1360264B00225A60264BB4
:101160001B68BB60FA687B6A1344BB610822BB69D9
:101170009B1ABB61BB6923F00703BB61BB691E4AB5
:1011800013601D4B1B6800225A601B4B1B6800221A
:101190001A60FB683B613B69BA69D21A3B695A60C5
:1011A000154B1A683B691A60BB68002B02D0BB68FC
:1011B0003A691A603B695B683A6A13443B62FB69AF
:1011C0000133FB61FB69DB007A6813447B617B6957
:1011D0005B68002B9ED1094A3B6A1360084A3B6A50
:1011E0001360084B4FF000421A6000BF2C37BD4619
:1011F00080BC704738020010400200104802001006
:10120000440200105402001080B483B000AF786034
:101210007B6803F108027B685A607B684FF0FF32FD
:101220009A607B6803F108027B68DA607B6803F1EF
:1012300008027B681A617B6800221A6000BF0C37C5
:10124000BD4680BC704780B483B000AF78607B68D7
:1012500000221A6100BF0C37BD4680BC704780B4C5
:1012600085B000AF786039607B685B68FB603B6885
:10127000FA685A60FB689A683B689A60FB689B68EA
:101280003A685A60FB683A689A603B687A681A6103
:101290007B681B685A1C7B681A6000BF1437BD4608
:1012A00080BC704780B485B000AF786039603B681F
:1012B0001B68BB60BB68B3F1FF3F03D17B681B6950
:1012C000FB600CE07B680833FB6002E0FB685B6856
:1012D000FB60FB685B681B68BA689A42F6D2FB68E1
:1012E0005A683B685A603B685B683A689A603B683A
:1012F000FA689A60FB683A685A603B687A681A61D3
:101300007B681B685A1C7B681A6000BF1437BD4697
:1013100080BC704780B485B000AF78607B681B6983
:10132000FB607B685B687A6892689A607B689B6800
:101330007A6852685A60FB685B687A689A4203D19F
:101340007B689A68FB685A607B6800221A61FB68B8
:101350001B685A1EFB681A60FB681B681846143726
:10136000BD4680BC7047FFFF80B485B000AFF86019
:10137000B9607A60FB68043BFB60FB684FF08072E9
:101380001A60FB68043BFB60BB6823F00102FB684A
:101390001A60FB68043BFB60084AFB681A60FB6844
:1013A000143BFB607A68FB681A60FB68203BFB60BB
:1013B000FB6818461437BD4680BC7047C113010056
:1013C00080B483B000AF00233B604FF0280383F369
:1013D0001188BFF36F8FBFF34F8F7B6000BF00BFDB
:1013E0003B68002BFCD000BF00BF0C37BD4680BC63
:1013F0007047FFFFFFFFFFFFFFFFFFFFFFFFFFFF44
:10140000074B19680868B0E8F00F80F30988BFF34C
:101410006F8F4FF0000080F311884EF00D0E704773
:10142000A802001000BF00BF06480068006880F3F3
:10143000088862B661B6BFF34F8FBFF36F8F00DFCE
:1014400000BF00BF08ED00E080B500AF0C4B1B688B
:101450000B4A43F478031360094B1B68084A43F0B6
:101460007843136000F08AF8064B00221A60FFF7F9
:10147000DBFF01F007F8FFF7A3FF0023184680BD4C
:1014800020ED00E01000001080B483B000AF4FF0FA
:10149000280383F31188BFF36F8FBFF34F8F7B60F7
:1014A00000BF054B1B680133034A136000BF0C37B4
:1014B000BD4680BC704700BF1000001080B483B0F0
:1014C00000AF0A4B1B68013B084A1360074B1B68BF
:1014D000002B05D100237B607B6883F3118800BF5C
:1014E00000BF0C37BD4680BC704700BF1000001025
:1014F000EFF30980BFF36F8F0D4B1A6820E9F00FEF
:1015000010602DE908404FF0280080F3118800F0AA
:10151000B9FF4FF0000080F31188BDE8084019685A
:101520000868B0E8F00F80F30988BFF36F8F704749
:10153000A802001000BF00BF80B582B000AF4FF01E
:10154000280383F31188BFF36F8FBFF34F8F7B6046
:1015500000BF00F0EFFE0346002B03D0064B4FF018
:1015600080521A6000233B603B6883F3118800BF00
:1015700000BF0837BD4680BD04ED00E080B400AF79
:10158000084B00221A60084B00221A60074B43F2F6
:10159000FF121A60034B07221A6000BFBD4680BCD1
:1015A000704700BF10E000E018E000E014E000E049
:1015B00080B584B000AF786039607B68FB60FFF76E
:1015C00063FFFB681A68FB68DB6BF968096C01FB59
:1015D00003F31A44FB689A60FB6800229A63FB6875
:1015E0001A68FB685A60FB681A68FB68DB6B013B92
:1015F000F968096C01FB03F31A44FB68DA60FB68C5
:10160000FF2283F84420FB68FF2283F845203B68D3
:10161000002B14D1FB681B69002B1AD0FB68103318
:10162000184600F0EDFF0346002B12D00C4B4FF094
:1016300080521A60BFF34F8FBFF36F8F09E0FB68D2
:1016400010331846FFF7E0FDFB6824331846FFF718
:10165000DBFDFFF733FF012318461037BD4680BD81
:1016600004ED00E080B58AB002AFF860B9601346BF
:10167000FB71FB68BA6802FB03F3FB61FB6948334B
:101680001846FFF70BFCB861BB69002B0DD0BB6996
:101690007B617B6948337B61FA79BB6900931346B0
:1016A0007A69B968F86800F005F8BB691846203710
:1016B000BD4680BD80B584B000AFF860B9607A6087
:1016C000FB70BB68002B03D1BB69BA691A6002E0EA
:1016D000BB697A681A60BB69FA68DA63BB69BA6881
:1016E0001A640121B869FFF763FF00BF1037BD46D8
:1016F00080BDFFFF80B58AB000AFF860B9607A6046
:101700003B6000237B62FB683B62FFF7BDFE3B6AE8
:101710009A6B3B6ADB6B9A4202D33B68022B29D15E
:101720003A68B968386A00F08FF9F8613B6A5B6A19
:10173000002B10D03B6A2433184600F061FF0346AB
:10174000002B13D03F4B4FF080521A60BFF34F8FE6
:10175000BFF36F8F0AE0FB69002B07D0394B4FF0C6
:1017600080521A60BFF34F8FBFF36F8FFFF7A6FE53
:10177000012363E07B68002B03D1FFF79FFE00236A
:101780005CE07B6A002B06D107F11403184600F0D9
:10179000CDFF01237B62FFF791FE00F021FDFFF7F3
:1017A00073FE3B6A93F844305BB2B3F1FF3F03D161
:1017B0003B6A002283F844203B6A93F845305BB2D1
:1017C000B3F1FF3F03D13B6A002283F84520FFF7C6
:1017D00075FE3A1D07F114031146184600F0BCFFD0
:1017E0000346002B24D1386A00F026FA0346002B6A
:1017F00018D03B6A10337A681146184600F0AEFEE6
:10180000386A00F0B1F900F0F9FC0346002B7FF4D0
:101810007CAF0C4B4FF080521A60BFF34F8FBFF379
:101820006F8F72E7386A00F09FF900F0E7FC6CE711
:10183000386A00F099F900F0E1FC002318462837D7
:10184000BD4680BD04ED00E080B58CB000AFF8600F
:10185000B9607A603B60FB68BB62EFF311824FF0C6
:10186000280383F31188BFF36F8FBFF34F8FBA61E3
:101870007B61BB697B62BB6A9A6BBB6ADB6B9A421A
:1018800002D33B68022B2FD1BB6A93F8453087F80F
:101890002330BB6A9B6BFB613A68B968B86A00F099
:1018A000D3F897F92330B3F1FF3F12D1BB6A5B6ADB
:1018B000002B16D0BB6A2433184600F0A1FE034665
:1018C000002B0ED07B68002B0BD07B6801221A60A6
:1018D00007E097F823300133DBB25AB2BB6A83F8D2
:1018E00045200123FB6201E00023FB627B6A3B6130
:1018F0003B6983F3118800BFFB6A18463037BD4649
:1019000080BDFFFF80B58AB000AFF860B9607A6033
:1019100000237B62FB683B62FFF7B6FD3B6A9B6B73
:10192000FB61FB69002B1FD0B968386A00F0F6F83C
:10193000FB695A1E3B6A9A633B6A1B69002B0FD0F6
:101940003B6A1033184600F05BFE0346002B07D0BD
:101950003C4B4FF080521A60BFF34F8FBFF36F8F35
:10196000FFF7ACFD012369E07B68002B03D1FFF793
:10197000A5FD002362E07B6A002B06D107F114036A
:10198000184600F0D3FE01237B62FFF797FD00F0BD
:1019900027FCFFF779FD3B6A93F844305BB2B3F163
:1019A000FF3F03D13B6A002283F844203B6A93F84F
:1019B00045305BB2B3F1FF3F03D13B6A002283F8AD
:1019C0004520FFF77BFD3A1D07F114031146184629
:1019D00000F0C2FE0346002B23D1386A00F016F94E
:1019E0000346002B17D03B6A24337A681146184609
:1019F00000F0B4FD386A00F0B7F800F0FFFB0346D2
:101A0000002B89D10F4B4FF080521A60BFF34F8FDC
:101A1000BFF36F8F80E7386A00F0A6F800F0EEFBA6
:101A20007AE7386A00F0A0F800F0E8FB386A00F0C6
:101A3000EDF80346002B3FF46FAF0023184628371C
:101A4000BD4680BD04ED00E080B586B000AFF86013
:101A5000B9607A6000237B61FB689B6B3B61FB682C
:101A60001B6C002B0DD1FB681B68002B4DD1FB6854
:101A70009B68184600F0A4FF7861FB6800229A601A
:101A800043E07B68002B19D1FB685868FB681B6C2E
:101A90001A46B96806F0FAFDFB685A68FB681B6CC9
:101AA0001A44FB685A60FB685A68FB689B689A4254
:101AB0002BD3FB681A68FB685A6026E0FB68D8687D
:101AC000FB681B6C1A46B96806F0E0FDFB68DA6833
:101AD000FB681B6C5B421A44FB68DA60FB68DA68DF
:101AE000FB681B689A4207D2FB689A68FB681B6C0C
:101AF0005B421A44FB68DA607B68022B05D13B69C4
:101B0000002B02D03B69013B3B613B695A1CFB68DF
:101B10009A637B6918461837BD4680BD80B582B090
:101B200000AF786039607B681B6C002B18D07B6835
:101B3000DA687B681B6C1A447B68DA607B68DA6859
:101B40007B689B689A4203D37B681A687B68DA607B
:101B50007B68D9687B681B6C1A46386806F096FD6E
:101B600000BF0837BD4680BD80B584B000AF786047
:101B7000FFF78AFC7B6893F84530FB7311E07B68C4
:101B80005B6A002B12D07B682433184600F038FDC6
:101B90000346002B01D000F025FEFB7B013BDBB2AE
:101BA000FB7397F90F30002BE9DC00E000BF7B6886
:101BB000FF2283F84520FFF781FCFFF765FC7B6877
:101BC00093F84430BB7311E07B681B69002B12D083
:101BD0007B681033184600F013FD0346002B01D03C
:101BE00000F000FEBB7B013BDBB2BB7397F90E300C
:101BF000002BE9DC00E000BF7B68FF2283F8442073
:101C0000FFF75CFC00BF1037BD4680BD80B584B0D7
:101C100000AF7860FFF738FC7B689B6B002B02D12C
:101C20000123FB6001E00023FB60FFF747FCFB683A
:101C300018461037BD4680BD80B584B000AF7860CF
:101C4000FFF722FC7B689A6B7B68DB6B9A4202D1C0
:101C50000123FB6001E00023FB60FFF72FFCFB6822
:101C600018461037BD4680BD80B485B000AF78609F
:101C700039600023FB6014E00E4AFB6852F83330F1
:101C8000002B0BD10B49FB683A6841F83320094A15
:101C9000FB68DB0013447A685A6006E0FB68013396
:101CA000FB60FB68092BE7D900BF00BF1437BD46B6
:101CB00080BC70475802001080B586B000AFF86055
:101CC000B9607A60FB687B61FFF7DEFB7B6993F8A4
:101CD00044305BB2B3F1FF3F03D17B69002283F84C
:101CE00044207B6993F845305BB2B3F1FF3F03D1E9
:101CF0007B69002283F84520FFF7E0FB7B699B6B43
:101D0000002B06D17B6924337A68B968184600F045
:101D100059FC7869FFF728FF00BF1837BD4680BD22
:101D200080B58CB004AFF860B9603B601346FB80AF
:101D3000FB889B001846FFF7B1F878617B69002BA0
:101D40000ED05C20FFF7AAF8F861FB69002B03D0E6
:101D5000FB697A691A6305E07869FFF733F901E0F6
:101D60000023FB61FB69002B13D0FA880023039347
:101D7000FB690293FB6A0193BB6A00933B68B968F5
:101D8000F86800F00EF8F86900F08EF80123BB61E6
:101D900002E04FF0FF33BB61BB6918462037BD46F8
:101DA00080BD80B586B000AFF860B9607A603B60F6
:101DB000BB6A186B7B689B001A46A52106F074FC71
:101DC000BB6A1A6B7B6803F18043013B9B001344A1
:101DD0003B613B6923F007033B61BB6A3A699A6444
:101DE000BB68002B1FD000237B6112E0BA687B69BF
:101DF00013441978BA6A7B69134434330A461A705B
:101E0000BA687B6913441B78002B06D07B690133C9
:101E10007B617B69132BE9D900E000BFBB6A00221C
:101E200083F8472003E0BB6A002283F834203B6A32
:101E3000042B01D904233B62BB6A3A6ADA62BB6AAB
:101E40003A6ADA64BB6A00221A65BB6A0433184630
:101E5000FFF7F9F9BB6A18331846FFF7F4F9BB6AC4
:101E6000BA6A1A613B6AC3F10502BB6A9A61BB6A2E
:101E7000BA6A5A62BB6A00225A65BB6A002283F8BA
:101E800058203A68F9683869FFF76EFA0246BB6A6B
:101E90001A607B6A002B02D07B6ABA6A1A6000BFA4
:101EA0001837BD4680BDFFFF80B582B000AF7860B7
:101EB000FFF7EAFA2A4B1B680133294A1360294BC2
:101EC0001B68002B09D1274A7B681360244B1B68D1
:101ED000012B10D100F0AAFC0DE0234B1B68002B56
:101EE00009D1204B1B68DA6A7B68DB6A9A4202D808
:101EF0001C4A7B6813601D4B1B6801331B4A13602F
:101F00007B68DB6A01229A40194B1B681343184A0D
:101F100013607B68DA6A13469B0013449B00154AE2
:101F20001A447B68043319461046FFF798F9FFF707
:101F3000C5FA0D4B1B68002B0ED00A4B1B68DA6AE2
:101F40007B68DB6A9A4207D20B4B4FF080521A60D3
:101F5000BFF34F8FBFF36F8F00BF0837BD4680BD03
:101F600080030010A80200108C0300109C030010D6
:101F700088030010AC02001004ED00E080B584B0CE
:101F800000AF7860FFF780FA7B68002B02D1314BFD
:101F90001B6800E07B68FB60FB6804331846FFF7B2
:101FA000B9F90346002B15D1FB68DA6A2A491346B2
:101FB0009B0013449B000B441B68002B0AD1FB6859
:101FC000DB6A012202FA03F3DA43244B1B68134055
:101FD000224A1360FB689B6A002B04D0FB6818330D
:101FE0001846FFF797F91E4B1B6801331C4A136014
:101FF000184B1B68FA689A420BD1FB6804331946E8
:102000001848FFF72CF9184B1B680133164A136068
:1020100009E0164B1B68013B144A1360F86800F096
:1020200073FC00F081FCFFF749FA114B1B68002B91
:102030000CD0084B1B68FA689A4207D10D4B4FF041
:1020400080521A60BFF34F8FBFF36F8F00BF1037FE
:10205000BD4680BDA8020010AC020010880300102D
:102060009C0300105403001068030010800300104C
:102070008C03001004ED00E080B586B000AF7860FE
:10208000396000237B6100F0ABF8214B1B683B619A
:102090007B681B683A681344FB607B681B683A697D
:1020A0009A420BD27B681B68FA689A4211D2FA688E
:1020B0003B699A420DD901237B610AE07B681B686A
:1020C000FA689A4203D3FA683B699A4201D901231C
:1020D0007B617B68FA681A607B69002B06D0FA681E
:1020E0003B69D31A0021184600F0E6FC00F086F8A0
:1020F000B860BB68002B07D1064B4FF080521A60C6
:10210000BFF34F8FBFF36F8F00BF1837BD4680BD41
:102110008403001004ED00E080B584B000AF786067
:102120000023FB607B68002B08D000F059F80021E9
:10213000786800F0C1FC00F061F8F860FB68002BE3
:1021400007D1064B4FF080521A60BFF34F8FBFF399
:102150006F8F00BF1037BD4680BD00BF04ED00E0AB
:1021600080B584B002AF184B019300230093002385
:102170003C2216491648FFF7D3FD78607B68012B97
:1021800002D100F0FFFC78607B68012B17D14FF083
:10219000280383F31188BFF36F8FBFF34F8F3B602A
:1021A00000BF0C4B4FF0FF321A600B4B01221A603C
:1021B0000A4B00221A60FEF75BF9FFF745F900BFF2
:1021C0000837BD4680BD00BFA403001040B1010028
:1021D000FD270100A00300108C03001084030010F1
:1021E00080B400AF044B1B680133034A136000BF87
:1021F000BD4680BC704700BFA803001080B584B006
:1022000000AF0023FB600023BB60FFF73DF9394BB3
:102210001B68013B374A1360364B1B68002B61D1AA
:10222000354B1B68002B5DD02EE0344BDB68DB6840
:10223000FB60FB6818331846FFF76CF8FB68043343
:102240001846FFF767F8FB68DB6A01229A402C4BBF
:102250001B6813432A4A1360FB68DA6A13469B0023
:1022600013449B00274A1A44FB680433194610465E
:10227000FEF7F5FFFB68DA6A234B1B68DB6A9A42BC
:1022800002D3224B01221A601C4B1B68002BCCD1BD
:10229000FB68002B01D000F047FB1D4B1B687B60E7
:1022A0007B68002B10D000F045F80346002B02D0CD
:1022B000164B01221A607B68013B7B607B68002B18
:1022C000F1D1134B00221A60104B1B68002B09D070
:1022D0000123BB600F4B4FF080521A60BFF34F8F4A
:1022E000BFF36F8FFFF7EAF8BB6818461037BD469B
:1022F00080BD00BFA8030010800300104003001041
:1023000088030010AC020010A80200109403001013
:102310009003001004ED00E080B483B000AF044BE4
:102320001B687B607B6818460C37BD4680BC7047D5
:102330008403001080B586B000AF00237B61464B5C
:102340001B68002B7DD1454B1B6801333B61434A21
:102350003B6913603B69002B10D1414B1B68FB604C
:10236000404B1B683E4A13603E4AFB6813603E4B7D
:102370001B6801333C4A136000F0D6FA3B4B1B68E4
:102380003A699A4248D3364B1B681B68002B04D12C
:10239000364B4FF0FF321A603EE0314B1B68DB6872
:1023A000DB68BB60BB685B687B603A697B689A42AC
:1023B00003D22E4A7B6813602EE0BB6804331846B4
:1023C000FEF7A8FFBB689B6A002B04D0BB681833DC
:1023D0001846FEF79FFFBB68DB6A01229A40244B38
:1023E0001B681343224A1360BB68DA6A13469B00DA
:1023F00013449B001F4A1A44BB6804331946104615
:10240000FEF72DFFBB68DA6A1B4B1B68DB6A9A423A
:10241000B9D301237B61B6E7174B1B68DA6A15490C
:1024200013469B0013449B000B441B68012B01D9EE
:1024300001237B61114B1B68002B07D001237B61BB
:1024400004E00F4B1B6801330D4A13607B6918468B
:102450001837BD4680BD00BFA803001084030010DC
:10246000380300103C03001098030010A003001074
:1024700088030010AC020010A802001094030010A2
:102480009003001080B586B000AF2F4B1B68002B67
:1024900003D02E4B01221A6051E02C4B00221A600F
:1024A0002B4B1B681B6B7B614FF0A5333B617B693A
:1024B0001B683A699A4211D17B6904331B683A69F7
:1024C0009A420BD17B6908331B683A699A4205D15D
:1024D0007B690C331B683A699A4208D01C4B1A6816
:1024E0001B4B1B68343319461046FEF7BDFA194BD7
:1024F0001B687B607B68B3FA83F3FB70FB78C3F1E6
:102500001F03FB60FA6813469B0013449B00124AAA
:102510001344BB60BB685B685A68BB685A60BB68A1
:102520005A68BB6808339A4204D1BB685B685A6832
:10253000BB685A60BB685B68DB68054A136000BF14
:102540001837BD4680BD00BFA803001094030010DB
:10255000A802001088030010AC02001080B582B001
:1025600000AF78603960074B1B68183319467868EC
:10257000FEF798FE0121386800F09EFA00BF083788
:10258000BD4680BDA802001080B584B000AFF860E1
:10259000B9607A600A4B1B68BA6842F000429A61DF
:1025A000074B1B6818331946F868FEF758FE0121DF
:1025B000786800F081FA00BF1037BD4680BD00BFCB
:1025C000A802001080B584B000AFF860B9607A60EE
:1025D0000A4B1B6818331946F868FEF740FE7B6803
:1025E000002B02D04FF0FF33BB607968B86800F071
:1025F00063FA00BF1037BD4680BD00BFA8020010BF
:1026000080B584B000AF78607B68DB68DB68BB6056
:10261000BB6818331846FEF77DFE1D4B1B68002B68
:102620001CD1BB6804331846FEF774FEBB68DB6A36
:1026300001229A40174B1B681343164A1360BB686C
:10264000DA6A13469B0013449B00134A1A44BB6882
:10265000043319461046FEF702FE05E0BB68183346
:1026600019460E48FEF7FBFDBB68DA6A0C4B1B6887
:10267000DB6A9A4205D90123FB600A4B01221A60EA
:1026800001E00023FB60FB6818461037BD4680BDA3
:10269000A803001088030010AC02001040030010D3
:1026A000A80200109403001080B584B000AF7860D9
:1026B00039603B6843F000427B681A607B68DB68E6
:1026C000FB607868FEF726FEFB6804331846FEF7C9
:1026D00021FEFB68DB6A01229A40104B1B68134302
:1026E0000E4A1360FB68DA6A13469B0013449B0092
:1026F0000B4A1A44FB68043319461046FEF7AFFD37
:10270000FB68DA6A074B1B68DB6A9A4202D9064B00
:1027100001221A6000BF1037BD4680BD880300103B
:10272000AC020010A80200109403001080B483B023
:1027300000AF7860064B1A687B681A60054B1A6810
:102740007B685A6000BF0C37BD4680BC704700BF35
:10275000980300108403001080B586B000AF786045
:102760003960FEF791FE1D4B1B683B617B685B681F
:102770003A69D31AFB603B681B68B3F1FF3F02D193
:1027800000237B6123E07B681A68154B1B689A4223
:1027900007D07B685B683A699A4202D301237B6168
:1027A00015E03B681B68FA689A420BD23B681A68CE
:1027B000FB68D21A3B681A607868FFF7B7FF0023FE
:1027C0007B6104E03B6800221A6001237B61FEF715
:1027D00075FE7B6918461837BD4680BD840300101E
:1027E0009803001080B400AF034B01221A6000BFB1
:1027F000BD4680BC704700BF9403001080B582B016
:1028000000AF786000F052F8064B1B68012BF9D935
:10281000054B4FF080521A60BFF34F8FBFF36F8F9D
:10282000F0E700BFAC02001004ED00E080B582B01C
:1028300000AF00237B600CE07A6813469B001344D2
:102840009B00124A13441846FEF7DEFC7B680133F6
:102850007B607B68042BEFD90D48FEF7D5FC0D4853
:10286000FEF7D2FC0C48FEF7CFFC0C48FEF7CCFC80
:102870000B48FEF7C9FC0B4B054A1A600A4B054A88
:102880001A6000BF0837BD4680BD00BFAC02001013
:102890001003001024030010400300105403001024
:1028A0006C030010380300103C03001080B582B0A8
:1028B00000AF19E0FEF7E8FD104BDB68DB687B60DA
:1028C0007B6804331846FEF725FD0D4B1B68013B62
:1028D0000B4A13600B4B1B68013B0A4A1360FEF75F
:1028E000EDFD786800F010F8064B1B68002BE1D175
:1028F00000BF00BF0837BD4680BD00BF54030010B5
:10290000800300106803001080B582B000AF7860CB
:102910007B681B6B1846FEF755FB7868FEF752FB89
:1029200000BF0837BD4680BD80B483B000AF0C4BFC
:102930001B681B68002B04D10A4B4FF0FF321A6052
:1029400008E0074B1B68DB68DB687B607B685B68C3
:10295000044A136000BF0C37BD4680BC704700BFFF
:1029600038030010A003001080B483B000AF044B04
:102970001B687B607B6818460C37BD4680BC70477F
:10298000A802001080B483B000AF0B4B1B68002B73
:1029900002D101237B6008E0084B1B68002B02D1A9
:1029A00002237B6001E000237B607B6818460C37C4
:1029B000BD4680BC704700BF8C030010A803001008
:1029C00080B584B000AF78607B68BB600023FB609B
:1029D0007B68002B4FD0BB681B6D5A1EBB681A6505
:1029E000BB68DA6ABB68DB6C9A4244D0BB681B6D7B
:1029F000002B40D1BB6804331846FEF78BFC03461E
:102A0000002B15D1BB68DA6A1D4913469B0013449D
:102A10009B000B441B68002B0AD1BB68DB6A0122B8
:102A200002FA03F3DA43174B1B681340154A13608D
:102A3000BB68DA6CBB68DA62BB68DB6AC3F10502AB
:102A4000BB689A61BB68DB6A01229A400D4B1B6828
:102A500013430C4A1360BB68DA6A13469B001344A5
:102A60009B00074A1A44BB68043319461046FEF718
:102A7000F6FB0123FB60FB6818461037BD4680BD9E
:102A8000AC0200108803001080B483B000AF094B83
:102A90001B689B697B60074B1B68DA6A054B1B68E8
:102AA000C2F105029A617B6818460C37BD4680BCAE
:102AB000704700BFA802001080B584B000AF7860F6
:102AC0003960294B1B68FB60284B1B680433184690
:102AD000FEF720FC0346002B0BD1244B1B68DB6A5E
:102AE000012202FA03F3DA43214B1B681340204A08
:102AF00013607B68B3F1FF3F0AD13B68002B07D01E
:102B00001A4B1B68043319461A48FEF7A8FB26E047
:102B1000FA687B681344BB60144B1B68BA685A6040
:102B2000BA68FB689A4209D2134B1A680F4B1B68AC
:102B3000043319461046FEF7B5FB10E00F4B1A6838
:102B40000A4B1B68043319461046FEF7ABFB0C4BCF
:102B50001B68BA689A4202D2094ABB68136000BF78
:102B60001037BD4680BD00BF84030010A8020010CE
:102B7000880300106C0300103C03001038030010A1
:102B8000A003001080B584B002AF00237B6000F08A
:102B90008FFA0A4B1B68002B0AD0094B01930423C0
:102BA00000930023642207490748FFF7B9F87860CB
:102BB0007B6818460837BD4680BD00BFDC030010A7
:102BC000E003001048B10100CD2C010080B58AB0AF
:102BD00000AFF860B9607A603B6000237B621A4BFB
:102BE0001B68002B2AD0BB687B617B68BB61FB68DC
:102BF000FB61BB68052B18DCFFF7C4FE0346022B04
:102C000009D1114B186807F1140100233A6BFEF744
:102C100071FD786212E00C4B186807F11401002373
:102C20000022FEF767FD786208E0074B186807F19D
:102C3000140100233A68FEF707FE78627B6A1846A3
:102C40002837BD4680BD00BFDC03001080B586B0CC
:102C500002AF786039601C4B1B68DB68DB68FB6087
:102C6000FB6804331846FEF755FBFB6893F82430E5
:102C700003F00403002B15D0FB689A697B68D11818
:102C80007B683A68F86800F0C3F80346002B12D05E
:102C90000023009300237A680021F868FFF796FF6D
:102CA000B86008E0FB6893F8243023F00103DAB23F
:102CB000FB6883F82420FB681B6AF868984700BF0C
:102CC0001037BD4680BD00BFD403001080B584B06E
:102CD00000AF786007F10803184600F057F8F86075
:102CE000BB681946F86800F003F800F0D3F8F1E784
:102CF00080B584B000AF78603960FFF771FA07F1F2
:102D00000803184600F064F8F860BB68002B30D167
:102D10003B68002B0AD17A68FB689A4206D8FFF715
:102D20006DFAF9687868FFF791FF24E03B68002BA3
:102D300008D0134B1B681B68002B01D1012300E056
:102D400000233B600F4B18687A68FB68D31A3A6817
:102D50001946FEF7B1FFFFF751FA0346002B0AD1DF
:102D6000094B4FF080521A60BFF34F8FBFF36F8F44
:102D700001E0FFF743FA00BF1037BD4680BD00BF3A
:102D8000D8030010DC03001004ED00E080B485B02F
:102D900000AF78600D4B1B681B68002B01D101222E
:102DA00000E000227B681A607B681B68002B05D15D
:102DB000064B1B68DB681B68FB6001E00023FB60BF
:102DC000FB6818461437BD4680BC7047D40300101A
:102DD00080B584B000AF7860FFF79EFAF8600B4BC7
:102DE0001B68FA689A4205D200F00CF97B68012250
:102DF0001A6002E07B6800221A60044AFB681360D4
:102E0000FB6818461037BD4680BD00BFE4030010C4
:102E100080B586B000AFF860B9607A603B6000238F
:102E20007B61FB68BA685A60FB68FA681A61BA6825
:102E30007B689A4212D87A683B68D21AFB689B6911
:102E40009A4202D301237B611BE0104B1A68FB6896
:102E5000043319461046FEF725FA12E07A683B68FB
:102E60009A4206D2BA683B689A4202D301237B6138
:102E700007E0074B1A68FB68043319461046FEF753
:102E800011FA7B6918461837BD4680BDD80300107B
:102E9000D403001080B58CB002AFA0E0BB68002B5B
:102EA0000BDA07F1080304337B627B6A1B687A6ADA
:102EB00050687A6A926811469847BB68002BC0F246
:102EC0008D803B693B623B6A5B69002B04D03B6AA7
:102ED00004331846FEF71EFA3B1D1846FFF778FF2D
:102EE000F861BB68092B7AD801A252F823F000BF21
:102EF000192F0100192F0100192F0100732F010054
:102F0000872F0100B32F0100192F0100192F010095
:102F1000732F0100872F01003B6A93F8243043F0A0
:102F20000103DAB23B6A83F82420FA683B6A9B69A2
:102F3000D118FB68FA69386AFFF76AFF0346002B6D
:102F40004DD03B6A1B6A386A98473B6A93F8243035
:102F500003F00403002B42D0FA683B6A9B691A44D1
:102F60000023009300230021386AFFF72FFEB86189
:102F700035E03B6A93F8243023F00103DAB23B6A70
:102F800083F824202BE03B6A93F8243043F00103BC
:102F9000DAB23B6A83F82420FA683B6A9A613B6A9A
:102FA0009A69FB69D118FB69FA69386AFFF730FF43
:102FB00015E03B6A93F8243003F00203002B03D1A1
:102FC000386AFDF7FFFF0AE03B6A93F8243023F0EC
:102FD0000103DAB23B6A83F8242000E000BF084B0B
:102FE0001B6807F1080100221846FEF78BFC034618
:102FF000002B7FF453AF00BF00BF2837BD4680BD14
:10300000DC03001080B588B002AF3AE0264B1B68A5
:10301000DB681B683B61244B1B68DB68DB68FB607B
:10302000FB6804331846FEF775F9FB681B6AF868FD
:103030009847FB6893F8243003F00403002B20D05A
:10304000FB689B693A691344BB60BA683B699A4262
:103050000ED9FB68BA685A60FB68FA681A61124BAD
:103060001A68FB68043319461046FEF71BF908E09E
:103070000023009300233A690021F868FFF7A6FDBA
:103080007860094B1B681B68002BBFD1064B1B687F
:103090007B61064B1B68044A1360044A7B6913601A
:1030A00000BF1837BD4680BDD4030010D803001000
:1030B00080B500AFFEF7E8F9124B1B68002B1DD15D
:1030C0001148FEF7A1F81148FEF79EF8104B0E4A82
:1030D0001A60104B0D4A1A60002210210520FEF7DD
:1030E000C1FA0346074A1360064B1B68002B05D044
:1030F000044B1B6808491846FEF7B6FDFEF7DEF9DB
:1031000000BF80BDDC030010AC030010C003001042
:10311000D4030010D803001050B1010080B58AB06C
:1031200000AFF860B9607A603B606FF001037B61CB
:10313000FB68BB61BB68FB617B683B62064B186840
:1031400007F1140100233A68FEF77EFB78627B6A80
:1031500018462837BD4680BDDC03001080B500AF9F
:10316000FDF744FD0346024A136000BF80BD00BF67
:10317000E803001080B400AF024B1846BD4680BC87
:10318000704700BFA0C9072090B58BB002AF786030
:1031900019E0254B18680023009301230022022127
:1031A000FDF73CFDF861FB6903F00203002B07D03B
:1031B0001D4B1B6808211846FDF7D4FD00232FE0A6
:1031C000C820FEF7A9FF07F10803184600F012FC1B
:1031D0007B680193BB69009307F108030FCB00F0F4
:1031E00027F803461149184605F064F803461C46C3
:1031F0007B685B891A4613465B001344184605F04A
:1032000005F803461946204605F010FA0346002B40
:10321000BFD1054B1B6804211846FDF7A3FD012310
:1032200018462437BD4690BDE80300100000C84290
:1032300084B080B582B000AF07F1100C8CE80F00AD
:103240007B6AB3F90030184604F0E0FF02463B69A0
:103250001946104604F024FF0346184605F0F0F91D
:103260000346FB807B6AB3F90230184604F0CEFFB8
:1032700002467B691946104604F012FF03461846C1
:1032800005F0DEF90346BB80B7F90630B7F9062032
:1032900002FB03F2B7F90430B7F9041001FB03F3A2
:1032A0001344184604F0B2FF0346184607F0AEFA7E
:1032B000034618460837BD46BDE8804004B0704755
:1032C00090B585B000AF0446084611461A4623461D
:1032D000FB800346BB800B467B8013463B807A888D
:1032E000FB88D31A9BB2FB813A88BB88D31A9BB266
:1032F000BB81B7F90E30B7F90E2002FB03F2B7F924
:103300000C30B7F90C1001FB03F31344184604F01A
:103310007DFF0346184607F079FA0346184614372E
:10332000BD4690BD90B58BB000AF0446084611462F
:103330001A462346FB800346BB800B46FB701346B0
:10334000BB7007F1180300221A605A609A60DA60B5
:1033500007F1080300221A605A609A609A81FFF709
:1033600009FF0346B3F90030B7F906209A4208D1A5
:10337000FFF700FF0346B3F90230B7F904209A4281
:1033800039D0FB883B81BB887B8197F8383083F04C
:103390000103DBB2002B02D001233B7401E00223C6
:1033A0003B7408237B7505233B75C8237B82002370
:1033B0007B7407F1180407F108030FCB07C42380BF
:1033C000FB7887F82630154B1B680F211846FDF750
:1033D000AFFCFFF7CFFE03461C4607F1080307CBFF
:1033E00020606160A2601B88A38107F1180301219E
:1033F000184602F0DFFCBB7883F00103DBB2002B40
:1034000001D0012305E007F108031846FFF7BCFED1
:10341000034618462C37BD4690BD00BFE803001098
:1034200090B593B002AF0446084611461A462346AB
:10343000FB800346BB800B46FB701346BB7007F155
:103440002C0300221A605A609A60DA6007F11C03AC
:1034500000221A605A609A609A81FB88BB83BB88FD
:10346000FB83BB7883F00103DBB2002B03D0012385
:1034700087F8243002E0022387F82430082387F8F5
:103480002930052387F82830C823FB84002387F8D8
:10349000253007F12C0407F11C030FCB07C4238050
:1034A00007F10C0407F12C030FCB84E80F003B6DF0
:1034B000BB60164B1B680F211846FDF739FC07F15E
:1034C0000803134A0192012200924FF4A07211499D
:1034D0001148FEF725FCFB7883F00103DBB2002BDB
:1034E00001D001230EE007F11C031846FFF74CFE44
:1034F000034687F83F30064B1B681846FEF73EFD33
:1035000097F83F3018464437BD4690BDE803001099
:10351000EC03001058B101001D350100F0B5B5B045
:1035200002AF7860FEF7F8FE0346BB637B6807F1E5
:1035300020041D460FCD0FC42B68236007F1100433
:1035400007F124030FCB07C42380B7F910301A46C4
:10355000B7F91230B549B64805F00EFD0123032234
:103560000121B34802F05AFD012387F83230FFF7FA
:1035700001FE03464FF6FF721A80FFF7FBFD03467C
:103580004FF6FF725A8014E1FDF7E4F800F016FCE4
:10359000054600F01DFC064607F13C03184600F006
:1035A00029FAFB6B184605F04BF803461CB207F1ED
:1035B0005003184600F01EFA7B6D184605F040F8DF
:1035C000034619B2B7F91030B7F9122001920093EF
:1035D0000B4622463146284600F070FB3B6A002B22
:1035E00001D03B6A984700F0E9FB044600F0F0FB8D
:1035F00003461946204600F0F5FB0346002B40F336
:103600008D808C4B1B6801211846FDF7ABFB894B65
:103610001B6802211846FDF78BFB00F0CFFB034629
:1036200003F596430C3307F1340218681060FFF776
:10363000A1FD0346B3F90020B7F934309A4209D10D
:10364000FFF798FD0346B3F90220B7F936309A42E6
:1036500000F0A68007F16403184600F0CBF97B6EFA
:10366000184604F0EDFF03461BB23B8107F17803D7
:10367000184600F0BFF9FB6F184604F0E1FF03465F
:103680001BB27B81FFF776FD0346B3F90030BB81A7
:10369000FFF770FD0346B3F90230FB8100F098FBA1
:1036A000024607F108031146184601F08BF803465D
:1036B000002B19D1FFF75EFD0346B3F90030B3F1DB
:1036C000FF3F11D0B7F90800B7F90A10B7F90C207D
:1036D000B7F90E30FFF7F4FD03465749184604F0DA
:1036E00087FF0346002B5BD0B7F93430BB84B7F9B2
:1036F0003630FB8407F1200304330121184602F021
:1037000059FBFFF737FD03461C4607F1240307CB9F
:1037100020606160A2601B88A38141E0454B1B686B
:1037200002211846FDF71EFB424B1B68012118467B
:10373000FDF7FEFA002387F82C3007F1200304334D
:103740000121184602F036FB07F18C03184600F001
:1037500051F9D7F88C30184604F072FF03461BB2BB
:103760001C4607F1A003184600F044F9D7F8A4302E
:10377000184604F065FF03461BB21946B7F910302E
:10378000B7F91220019200930B4622462B49284894
:1037900005F0F2FB012302220221254802F03EFC43
:1037A000FCF7E4FF07F138034FF47A711846FEF78F
:1037B00063FC07F1B403184600F01CF907F110038D
:1037C0000193D7F8C430009307F1B4030FCBFFF790
:1037D0002FFD03461A49184604F06CFD03461C46AB
:1037E0007B8B184604F012FD03461946204604F070
:1037F0001DFF0346002B7FF4C7AEB7F910301A4601
:10380000B7F912300F490A4805F0B6FB012303222D
:103810000121074802F002FCFFF7A6F8034618460C
:10382000FEF7ACFB00BFCC37BD46F0BD68B1010070
:10383000B0C90720E80300100000A04090B10100CB
:103840000000C842C0B1010090B585B004AF00F0DF
:10385000B5FA044600F0BCFA0146012302934FF486
:10386000AF6301934FF4C86300934FF448734FF470
:103870007A72204601F090FA00F0A0FA044600F0B7
:10388000A7FA0146012302934FF49663019340F691
:10389000282300934FF416734FF4FA62204601F088
:1038A0007BFA00F08BFA044600F092FA01460123FD
:1038B000029340F2A463019340F24C43009340F220
:1038C0004C434FF4FA72204601F066FA00BF043709
:1038D000BD4690BD90B585B004AF00F06FFA0446C8
:1038E00000F076FA01460023029340F686330193F6
:1038F000B423009300230022204601F04DFA00F08B
:103900005DFA044600F064FA01460023029340F693
:103910008633019340F29E73009340F604330022F5
:10392000204601F039FA00F049FA044600F050FA56
:10393000014600230293B423019340F29E73009347
:1039400000230022204601F027FA00F037FA04464F
:1039500000F03EFA01460023029340F686330193BD
:1039600040F29E730093002340F21C72204601F047
:1039700013FA00F02DFA40F60433009340F21C7362
:10398000B422B42101F066FAFFF75EFF00BF0437EE
:10399000BD4690BD80B500AFC0220021024804F0B2
:1039A00083FE00BF80BD00BFF8C90720F0B482B01D
:1039B00000AF78607B685B785A1E0D4913465B0048
:1039C00013441B010B447A6814461E4604F1300C64
:1039D00035462346186859689A68DB680FC5103465
:1039E00010366445F4D100BF0837BD46F0BC7047BF
:1039F000F8C90720B0B588B000AF78601C4BB3F9A8
:103A00000430184604F002FC0346FB60FB681949C9
:103A1000184604F003FD0346FB60154BB3F906306E
:103A2000184604F0F3FB03463B613B691149184615
:103A300004F0F4FC03463B610D4BB3F90830184623
:103A400004F0E4FB03467B617B690B49184604F0F4
:103A5000E5FC03467B617B681D4607F10C040FCC37
:103A60000FC523682B6078682037BD46B0BD00BF06
:103A7000F8C90720000020410000C84280B483B08C
:103A800000AF78607A681378022161F30203137043
:103A90007A681378022161F3C503137000BF0C37F5
:103AA000BD4680BC704780B483B000AF78607A6850
:103AB0001378022161F30203137000BF0C37BD4677
:103AC00080BC704780B483B000AF78607A681378A8
:103AD000012161F30203137000BF0C37BD4680BCA7
:103AE000704780B483B000AF78607A68137804219F
:103AF00061F3C50313707B6829229A717B683D22AC
:103B0000DA7100BF0C37BD4680BC704780B483B00B
:103B100000AF78607A681378052161F3C5031370EC
:103B20007B6829229A717B683D22DA7100BF0C37CD
:103B3000BD4680BC704780B483B000AF78607A68BF
:103B40001378032161F3C503137000BF0C37BD4622
:103B500080BC704790B585B000AF0446084611465A
:103B60001A462346FB800346BB800B467B801346E8
:103B70003B807A88FB88D31A9BB2FB813A88BB884A
:103B8000D31A9BB2BB81B7F90E30B7F90E2002FBF6
:103B900003F2B7F90C30B7F90C1001FB03F313442F
:103BA000184604F033FB0346184606F02FFE034682
:103BB0000949184604F07EFB03464FF07F51184632
:103BC00004F078FB0346184604F03AFD03461BB2A6
:103BD00018461437BD4690BD0000204180B483B024
:103BE00000AF03460A46FB801346BB80B7F90620A8
:103BF000B7F904309A4202DAB7F9063001E0B7F9B2
:103C0000043018460C37BD4680BC704780B483B082
:103C100000AF03460A46FB801346BB80B7F9062077
:103C2000B7F904309A4202DDB7F9063001E0B7F97E
:103C3000043018460C37BD4680BC704780B582B052
:103C400000AF0346FB80B7F906304FF4FA6118461F
:103C5000FFF7C4FF034619460020FFF7D7FF0346CE
:103C6000054A82FB03121211DB17D31A1BB2184646
:103C70000837BD4680BD00BF1F85EB5180B582B0BF
:103C800000AF0346FB80B7F9063040F6B83118465E
:103C9000FFF7A4FF034619460020FFF7B7FF0346CE
:103CA000054A82FB03121211DB17D31A1BB2184606
:103CB0000837BD4680BD00BF1F85EB5180B586B07B
:103CC00000AFF860B96011461A460B46FB801346F8
:103CD000BB8044F610320021F86804F0E5FC40F2A5
:103CE0004A320021B86804F0DFFCB7F90630184604
:103CF000FFF7A4FF0346FB75B7F904301846FFF73A
:103D0000BDFF0346BB75B7F920301846FFF796FF95
:103D100003467B75B7F924301846FFF7AFFF03461B
:103D20003B75FA7DB97D13461B019B1A9B000B4422
:103D3000DB00FA6813441846FFF7D3FE7A7D397D1D
:103D400013461B019B1A9B000B44DB00FA681344CB
:103D50001846FFF7DBFEFB6803F59643FA881A80E6
:103D6000FB6803F596430233BA881A80FB6803F5B3
:103D700096430833FA7D1A70FB6803F596430933BE
:103D8000BA7D1A70FB6803F5964304333A8C1A80A7
:103D9000FB6803F596430633BA8C1A80FB6803F57B
:103DA00096430A337A7D1A70FB6803F596430B330A
:103DB0003A7D1A7000BF1837BD4680BD80B400AF91
:103DC000024B1846BD4680BC704700BFF003001090
:103DD00080B400AF024B1846BD4680BC704700BFA0
:103DE000004F0010F0B589B004AF786039607B688F
:103DF00003F5964308331B7819467B6803F5964311
:103E000009331B7818467A680B461B015B1A9B0026
:103E1000034412F83330C3F3C203DBB2022B1CD1CC
:103E200001220221624802F0F9F87B6803F596430B
:103E300008331B7819467B6803F5964309331B78D2
:103E400018467A680B461B015B1A9B00191812F87A
:103E500031306FF3C50302F831307B6803F59643C8
:103E60000A331B7819467B6803F596430B331B789E
:103E700018467A680B461B015B1A9B00034412F834
:103E80003330C3F3C203DBB2022B07D1012202217C
:103E9000484802F0C3F86FF0020385E07B6803F541
:103EA000964308331B781A467B6803F5964309331B
:103EB0001B78194613461B019B1A9B000B44DB0021
:103EC0007A68D0187B6803F5964308331B781A4646
:103ED0007B6803F5964309331B78194613461B018B
:103EE0009B1A9B000B44DB007A68D4187B6803F5AF
:103EF000964308331D787B6803F5964309331B7896
:103F00001AB27B6803F5964308331B7819B27B68B5
:103F100003F5964309331B781BB2002603960293E0
:103F2000019100922B4622460146786800F050FB32
:103F30007B6803F59643083319787B6803F596434D
:103F400009331B781A46786800F055F90023FB7393
:103F50001AE007F10A0207F10C031946786800F02D
:103F6000B7F80346B3F1FF3F02D14FF0FF331BE038
:103F7000B7F90C30DBB2B7F90A20D2B2194678682B
:103F800000F039F90346FB7397F90F30002BE0D0AE
:103F900097F90F30012B05D13968786800F00CF8DB
:103FA000034601E04FF0FF3318461437BD46F0BD1D
:103FB000E8B1010004B2010090B587B000AF7860AD
:103FC00039607B6803F596430A331B781A467B6891
:103FD00003F596430B331B78194613461B019B1AB6
:103FE0009B000B44DB007A681344FB60FB689B7901
:103FF0001A46FB68DB79194613461B019B1A9B0086
:104000000B44DB007A6813447B6100233B6130E0A2
:104010007869FFF790FD7B699B79272B2DD87B6909
:10402000DB793B2B29D87B699A797B6803F596432A
:1040300008331B789A4208D17B69DA797B6803F5EB
:10404000964309331B789A4217D07B69FB60FB6863
:104050009B791A46FB68DB79194613461B019B1AAC
:104060009B000B44DB007A6813447B613B6901339E
:104070003B613B69B3F5166FCADB7B6803F5964479
:104080000C343968786800F024FB03461A46228015
:10409000C3F30F4363807B6803F596430A331B78B1
:1040A00019467B6803F596430B331B7818467A68EC
:1040B0000B461B015B1A9B000344DB0013445B8827
:1040C000C3F30B039BB21BB218461C37BD4690BD11
:1040D00080B48BB000AFF860B9607A6047F6FF73C8
:1040E000FB8447F6FF73BB84002387F8233000234B
:1040F00087F8223000233B840023FB6161E000232A
:10410000BB6158E0FA6913461B019B1A9B00BA6910
:104110001344DB00FA6813447B617B691B7803F06E
:104120000703DBB2012B43D1B7F920309BB2013337
:104130009BB23B847B695B88C3F30B039BB21A463B
:104140007B699B88C3F30B039BB213447B827A8AFF
:10415000B7F926309A420EDA7B8AFB847B699B880A
:10416000C3F30B039BB2BB84FB6987F82330BB69A5
:1041700087F822301CE07A8AB7F926309A4217D1A4
:104180007B699B88C3F30B039BB21A46B7F92430B3
:104190009A420DDA7B8AFB847B699B88C3F30B030D
:1041A0009BB2BB84FB6987F82330BB6987F8223058
:1041B000BB690133BB61BB693B2BA3DDFB690133E9
:1041C000FB61FB69272B9ADD97F823301AB2BB6895
:1041D0001A8097F822301AB27B681A80B7F920301B
:1041E000002B01DD002301E04FF0FF3318462C3790
:1041F000BD4680BC704780B588B004AF78600B4680
:10420000FB701346BB70FA78B97813461B019B1AF2
:104210009B000B44DB007A681344FB600023BB6007
:10422000F868FFF740FCFB78002B3AD0BB783A2BBC
:1042300037D8FB785A1EBB78591C13461B019B1AB2
:104240009B000B44DB007A681344BB60FB781BB215
:10425000BA7812B2F97889B2013989B209B2B8785C
:1042600080B2013080B200B20390029101920093BB
:104270000E23BA68F968786800F0AAF9FB785A1E2C
:10428000BB78581C796813461B019B1A9B0003449A
:1042900011F83330C3F3C203DBB2052B01D1012384
:1042A00092E1BB783A2B32D8FA78BB78591C134686
:1042B0001B019B1A9B000B44DB007A681344BB6014
:1042C000FB781BB2BA7812B2F97809B2B87880B22A
:1042D000013080B200B203900291019200930A2350
:1042E000BA68F968786800F073F9FA78BB78581CF6
:1042F000796813461B019B1A9B00034411F8333065
:10430000C3F3C203DBB2052B01D101235CE1FB78CF
:10431000262B3AD8BB783A2B37D8FB785A1CBB7877
:10432000591C13461B019B1A9B000B44DB007A6847
:104330001344BB60FB781BB2BA7812B2F97889B229
:10434000013189B209B2B87880B2013080B200B2CE
:1043500003900291019200930E23BA68F96878687D
:1043600000F036F9FB785A1CBB78581C7968134664
:104370001B019B1A9B00034411F83330C3F3C203A3
:10438000DBB2052B01D101231EE1FB78262B32D8AD
:10439000FB785A1CB97813461B019B1A9B000B44EF
:1043A000DB007A681344BB60FB781BB2BA7812B2A8
:1043B000F97889B2013189B209B2B87800B20390B4
:1043C0000291019200930A23BA68F968786800F0B4
:1043D000FFF8FB785A1CB878796813461B019B1AC2
:1043E0009B00034411F83330C3F3C203DBB2052B47
:1043F00001D10123E8E0FB78262B3AD8BB78002BCB
:1044000037D0FB785A1CBB78591E13461B019B1AE8
:104410009B000B44DB007A681344BB60FB781BB243
:10442000BA7812B2F97889B2013189B209B2B87892
:1044300080B2013880B200B20390029101920093E1
:104440000E23BA68F968786800F0C2F8FB785A1C45
:10445000BB78581E796813461B019B1A9B000344C6
:1044600011F83330C3F3C203DBB2052B01D10123B2
:10447000AAE0BB78002B32D0FA78BB78591E1346DD
:104480001B019B1A9B000B44DB007A681344BB6042
:10449000FB781BB2BA7812B2F97809B2B87880B258
:1044A000013880B200B203900291019200930A2376
:1044B000BA68F968786800F08BF8FA78BB78581E0B
:1044C000796813461B019B1A9B00034411F8333093
:1044D000C3F3C203DBB2052B01D1012374E0FB78E7
:1044E000002B3AD0BB78002B37D0FB785A1EBB7814
:1044F000591E13461B019B1A9B000B44DB007A6874
:104500001344BB60FB781BB2BA7812B2F97889B257
:10451000013989B209B2B87880B2013880B200B2EC
:1045200003900291019200930E23BA68F9687868AB
:1045300000F04EF8FB785A1EBB78581E7968134677
:104540001B019B1A9B00034411F83330C3F3C203D1
:10455000DBB2052B01D1012336E0FB78002B32D0F2
:10456000FB785A1EB97813461B019B1A9B000B441B
:10457000DB007A681344BB60FB781BB2BA7812B2D6
:10458000F97889B2013989B209B2B87800B20390DA
:104590000291019200930A23BA68F968786800F0E2
:1045A00017F8FB785A1EB878796813461B019B1AD6
:1045B0009B00034411F83330C3F3C203DBB2052B75
:1045C00001D1012300E0002318461037BD4680BD0D
:1045D00080B586B000AFF860B9607A60FB707B6828
:1045E0001B7803F03803DBB2102B01D100236CE001
:1045F0007B681B7803F00703DBB2022B01D1002399
:1046000063E07B681B7803F03803DBB2202B01D119
:1046100001235AE07B681B7803F03803DBB2082BD8
:1046200002D1FB785B00FB70BB685B88C3F30B03B4
:104630009BB21A46FB789BB21344FB827B689B8833
:10464000C3F30B039BB2002B1AD1FB6803F596430F
:104650000A331B781AB2FB6803F596430B331B78B9
:104660001BB2B7F92C10B7F92800FFF773FA03460D
:10467000C3F30B0399B27A68938861F30B039380B9
:104680007B685B88C3F30B039BB21A46FB8A934299
:1046900006D37B681B7803F00703DBB2002B13D132
:1046A000FB8AC3F30B0399B27A68538861F30B0357
:1046B00053803B8CDAB27B689A71BB8CDAB27B6830
:1046C000DA717868FFF7FEF9012318461837BD46FE
:1046D00080BD80B586B000AF786039607B6803F537
:1046E000964207F10803106818607B6803F596434B
:1046F000043307F10C02186810607B6803F59643D9
:104700000A331B781A467B6803F596430B331B78F4
:10471000194613461B019B1A9B000B44DB007A6869
:1047200013447B6130E07B699B799BB21A4692000F
:1047300013441A4691001A460B4613445B009BB281
:1047400019339BB21BB2BB817B69DB799BB21A46E2
:10475000920013441A4691001A460B4613445B001C
:104760009BB219339BB21BB2FB817B699B791A46C2
:104770007B69DB79194613461B019B1A9B000B448E
:10478000DB007A6813447B6107F108033968184637
:1047900000F018F80346002B07D07B699B79292B82
:1047A00003D07B69DB793D2BBDD1FB683B610023E6
:1047B0003A8A62F30F037A8A62F31F431846183766
:1047C000BD4680BD90B587B002AF786039600023E8
:1047D000FB810023FB811FE078687B68191DB7F916
:1047E0000E30DB003A68D418B7F90E30DB003A68B7
:1047F00013441A1D07F1080300931346224600F0E4
:104800001AF80346002B01D0012310E0B7F90E304F
:104810009BB201339BB2FB81B7F90E303A6892F834
:104820004823C2F30602D2B29342D5DB00231846D6
:104830001437BD4690BD90B58DB000AFF860B9603B
:104840007A603B600023FB610023BB6100237B6136
:1048500000233B614FF00003FB624FF00003BB629B
:104860004FF000037B624FF000033B62FB68B3F93B
:1048700000207B68B3F900309A420DD1FB68B3F990
:1048800002207B68B3F902309A4205D13A6CFB688A
:104890001B68136002237BE2FB68B3F900203B68CE
:1048A000B3F900309A420DD1FB68B3F902203B689E
:1048B000B3F902309A4205D13A6CFB681B68136069
:1048C000022365E2BB68B3F900207B68B3F90030CE
:1048D0009A420DD1BB68B3F902207B68B3F902306C
:1048E0009A4205D13A6CBB681B68136002234FE201
:1048F000BB68B3F900203B68B3F900309A420DD190
:10490000BB68B3F902203B68B3F902309A4205D183
:104910003A6CBB681B681360022339E2FB68B3F989
:104920000020BB68B3F900309A420ADBBA6807F18D
:104930001C0310681860FA6807F118031068186003
:1049400009E0FA6807F11C0310681860BA6807F1FB
:104950001803106818607B68B3F900203B68B3F94E
:1049600000309A420ADB3A6807F1140310681860B5
:104970007A6807F110031068186009E07A6807F197
:104980001403106818603A6807F110031068186083
:10499000B7F91C20B7F918309A421AD0B7F91A3073
:1049A0001A46B7F91E30D31A184603F02FFC0446F6
:1049B000B7F918301A46B7F91C30D31A184603F065
:1049C00025FC03461946204603F028FD0346FB62FA
:1049D00002E04FF09F43FB62B7F91420B7F91030A3
:1049E0009A421AD0B7F912301A46B7F91630D31ACC
:1049F000184603F00BFC0446B7F910301A46B7F915
:104A00001430D31A184603F001FC03461946204619
:104A100003F004FD0346BB6202E04FF09F43BB621C
:104A2000B7F91C20B7F918309A422FD1B7F91420E2
:104A3000B7F910309A4229D1B7F91C20B7F91430D0
:104A40009A4201D00023A3E1B7F91E20B7F91A302A
:104A50009A420DDAB7F91620B7F91E309A4215DDE1
:104A6000B7F91620B7F91A309A420FDA01238FE10D
:104A7000B7F91620B7F91E309A4207DAB7F91620AF
:104A8000B7F91A309A4201DD012381E1B96AF86A67
:104A900003F0A4FD0346002B29D0B7F91E20B7F977
:104AA00016309A4201D0002372E1B7F91C20B7F901
:104AB00018309A420DDAB7F91420B7F91C309A422F
:104AC00015DDB7F91420B7F918309A420FDA01232F
:104AD0005EE1B7F91420B7F91C309A4207DAB7F94A
:104AE0001420B7F918309A4201DD012350E1B7F9DB
:104AF0001C20B7F918309A4217D0B7F91E30184663
:104B000003F084FB0446B7F91C30184603F07EFB23
:104B10000346F96A184603F0CDFB034619462046C2
:104B200003F0BEFA03467B6202E04FF09F437B62D4
:104B3000B7F91420B7F910309A4217D0B7F91630E8
:104B4000184603F063FB0446B7F91430184603F027
:104B50005DFB0346B96A184603F0ACFB03461946F1
:104B6000204603F09DFA03463B6202E04FF09F436C
:104B70003B62B7F91C20B7F918309A4234D0B7F924
:104B80001420B7F910309A422ED0796A386A03F0AF
:104B900087FA03461C46B96AF86A03F081FA0346AD
:104BA0001946204603F03AFC0346184603F048FD38
:104BB00003461AB23B6C1A803B6CB3F900301846BE
:104BC00003F024FB0346F96A184603F073FB03461F
:104BD000796A184603F066FA0346184603F030FD7A
:104BE00003461AB23B6C5A80B7F91C20B7F918304B
:104BF0009A4222D1B7F91420B7F910309A423ED028
:104C0000B7F91C203B6C1A803B6CB3F90030184696
:104C100003F0FCFA0346B96A184603F04BFB03465F
:104C2000396A184603F03EFA0346184603F008FDB9
:104C300003461AB23B6C5A8021E0B7F91420B7F949
:104C400010309A421BD1B7F914203B6C1A803B6C90
:104C5000B3F90030184603F0D9FA0346F96A18464A
:104C600003F028FB0346796A184603F01BFA034653
:104C7000184603F0E5FC03461AB23B6C5A80B7F9BC
:104C80001E20B7F91A309A4203D1B7F91E203B6CA7
:104C90005A80B7F91620B7F912309A4203D1B7F902
:104CA00016203B6C5A803B6CB3F90020B7F91C30DE
:104CB0009A426CDB3B6CB3F90020B7F918309A428A
:104CC00065DC3B6CB3F90020B7F914309A425EDB27
:104CD0003B6CB3F90020B7F910309A4257DCFB68FF
:104CE000B3F90220BB68B3F902309A420ADBBA6812
:104CF00007F11C0310681860FA6807F118031068C0
:104D0000186009E0FA6807F11C0310681860BA68B7
:104D100007F11803106818607B68B3F902203B683C
:104D2000B3F902309A420ADB3A6807F114031068BB
:104D300018607A6807F110031068186009E07A6853
:104D400007F11403106818603A6807F1100310683F
:104D500018603B6CB3F90220B7F91E309A4216DB9B
:104D60003B6CB3F90220B7F91A309A420FDC3B6C66
:104D7000B3F90220B7F916309A4208DB3B6CB3F95D
:104D80000220B7F912309A4201DC012300E000232F
:104D900018463437BD4690BD80B58AB002AFF86082
:104DA000B96011461A460B46FB801346BB80B7F923
:104DB00006301846FEF742FF0346FB75B7F904308C
:104DC0001846FEF75BFF0346BB75B7F92830184657
:104DD000FEF734FF03467B75B7F92C301846FEF713
:104DE0004DFF03463B7597F83030002B0CD0B7F9D8
:104DF0002800B7F90420B7F90610B7F92C30009352
:104E00000346B86800F026F8FB7DFB6119E0BB7D26
:104E1000BB610FE0FA6913461B019B1A9B00BA693C
:104E20001344DB00FA6813441846FEF727FEBB69FB
:104E30000133BB613B7DBA699A42EBDDFB6901330B
:104E4000FB617B7DFA699A42E1DD00BF00BF20373C
:104E5000BD4680BD80B487B000AFF86008461146FB
:104E60001A4603467B810B463B811346FB80FB6859
:104E700093F84833C3F30603DBB2642B00F2898056
:104E80007B893B823B897B82FB88BB823B89FB829F
:104E9000FB6893F84833C3F30603D9B24B1C03F005
:104EA0007F03D8B2FA6892F8483360F3060382F8B9
:104EB00048330B46FA68DB00134407F1100203CABB
:104EC00018605960FB883B823B897B82FB88BB82F0
:104ED0003B8CFB82FB6893F84833C3F30603D9B2DB
:104EE0004B1C03F07F03D8B2FA6892F8483360F3A2
:104EF000060382F848330B46FA68DB00134407F1D7
:104F0000100203CA18605960FB883B823B8C7B828D
:104F10007B89BB823B8CFB82FB6893F84833C3F3ED
:104F20000603D9B24B1C03F07F03D8B2FA6892F89B
:104F3000483360F3060382F848330B46FA68DB0017
:104F4000134407F1100203CA186059607B893B8241
:104F50003B8C7B827B89BB823B89FB82FB6893F81D
:104F60004833C3F30603D9B24B1C03F07F03D8B216
:104F7000FA6892F8483360F3060382F848330B4628
:104F8000FA68DB00134407F1100203CA1860596085
:104F900000E000BF1C37BD4680BC704780B487B0BE
:104FA00000AFF8607B600B46FB721346BB72BB7AA6
:104FB00003F00F03DBB25B00FB75FB7A5B00DAB238
:104FC000BB7A1B09DBB21344BB75BA7DFB6853F88F
:104FD0002220FB7D032101FA03F3DB4313403B61F5
:104FE00097F82020FB7D02FA03F31946BA7D3B694E
:104FF0001943FB6843F82210BA7DFB68103253F85E
:105000002220FB7D032101FA03F3DB4313403B61C4
:10501000FB7D7A6802FA03F1BA7D3B691943FB68AC
:10502000103243F8221000BF1C37BD4680BC7047C9
:1050300080B483B000AF7860084611461A46034634
:10504000FB700B46BB7013467B707B78002B0ED039
:10505000FB785B017A6813449969BB7801229A4016
:10506000FB785B01786803440A439A610DE0FB78A2
:105070005B017A681344D969BB7801229A40FB78B6
:105080005B01786803440A43DA6100BF0C37BD4610
:1050900080BC704780B584B000AFF860B96011463D
:1050A0001A460B46FB711346BB71BB68D9B2BB797C
:1050B000FA79F868FFF7BCFF00BF1037BD4680BD26
:1050C00080B483B000AF78600B46FB701346BB70B2
:1050D000FB785B017A6813441968BB7801229A4017
:1050E000FB785B01786803440A431A6000BF0C3701
:1050F000BD4680BC704780B483B000AF78600B467B
:10510000FB701346BB70FB785B017A681344196827
:10511000BB78012202FA03F3DA43FB785B0178687B
:1051200003440A401A6000BF0C37BD4680BC70477C
:1051300080B582B000AF7860084611461A46034633
:10514000FB700B46BB7013467B707B78002B06D040
:10515000BA78FB7819467868FFF7B2FF05E0BA78AD
:10516000FB7819467868FFF7C6FF00BF0837BD46D1
:1051700080BD80B582B000AF7860084611461A46FF
:105180000346FB700B46BB7013467B707B78BA7886
:10519000F9787868FFF7CCFF00BF0837BD4680BDBF
:1051A00080B584B002AF03460A46FB711346BB715B
:1051B000BA79F9790023009308230948FFF7EEFE36
:1051C000BA79F97901230748FFF7D3FFBA79FB7958
:1051D0001146184600F01CF800BF0837BD4680BDD8
:1051E00000C0024000C0092080B582B000AF034675
:1051F0000A46FB711346BB71F979BA79012303485A
:10520000FFF748FF00BF0837BD4680BD00C009203A
:1052100080B582B000AF03460A46FB711346BB71EE
:10522000F979BA7900230348FFF734FF00BF083744
:10523000BD4680BD00C0092080B483B000AF0346E6
:10524000FB71FB7903F01F03012202FA03F1064A06
:1052500097F907305B09203342F8231000BF0C3761
:10526000BD4680BC704700BF00E100E080B483B061
:1052700000AF0346FB71FB7903F01F03012202FA22
:1052800003F1064A97F907305B09603342F82310AF
:1052900000BF0C37BD4680BC704700BF00E100E096
:1052A00080B483B000AF03463960FB7197F90730D3
:1052B000002B0BDA3B68DAB20C49FB7903F00F03E1
:1052C000043BD200D2B20B441A7609E03B68DAB252
:1052D000074997F90730D200D2B20B4483F8002374
:1052E00000BF0C37BD4680BC704700BF00ED00E03A
:1052F00000E100E080B487B000AFF8607B600B464F
:10530000FB721346BB72BB7A03F00F03DBB25B0088
:10531000FB75FB7A5B00DAB2BB7A1B09DBB2134484
:10532000BB75BA7DFB6853F82220FB7D032101FA8F
:1053300003F3DB4313403B6197F82020FB7D02FA27
:1053400003F31946BA7D3B691943FB6843F8221001
:10535000BA7DFB68103253F82220FB7D032101FA4D
:1053600003F3DB4313403B61FB7D7A6802FA03F1F0
:10537000BA7D3B691943FB68103243F8221000BF25
:105380001C37BD4680BC704780B483B000AF7860E6
:105390000B46FB70FA787B681A6000BF0C37BD467D
:1053A00080BC704780B483B000AF786039607B68A0
:1053B0005A683B681A437B685A6000BF0C37BD4689
:1053C00080BC704780B483B000AF786039607B6880
:1053D0005A683B68DB431A407B685A6000BF0C3751
:1053E000BD4680BC704780B483B000AF7860396040
:1053F0007B683A689A6000BF0C37BD4680BC704736
:1054000080B483B000AF786039607B683A68DA6056
:1054100000BF0C37BD4680BC704780B483B000AF7E
:1054200078607B685B6918460C37BD4680BC704766
:1054300080B582B002AF802301221249124801F0E8
:1054400021F900F02BF800F02FF800224D21052063
:10545000FCF708F903460D4A13600C4B1B680C4916
:105460001846FCF701FC094B1B680022019201223F
:105470000092822207490848FCF752FC00BFBD4653
:1054800080BD00BFB8CB07206452001078520010D6
:1054900068B201007CB201002556010080B400AF63
:1054A00000BFBD4680BC704780B582B002AF01230B
:1054B000009308230F2200211E48FFF71BFF012342
:1054C00000930823102200211A48FFF713FF03213D
:1054D0000220FFF765FE0620FFF7AEFE164801F03A
:1054E0005BFA1649144801F076FA03211248FFF7D7
:1054F00087FF114801F06CFA4FF4807301221049C4
:10550000104801F0BFF887210B48FFF76CFF052119
:105510000948FFF747FF02210748FFF753FF06201E
:10552000FFF7A4FE06210620FFF7BAFE00BFBD4626
:1055300080BD00BF00C002400000014080841E000A
:10554000B8CA07205052001080B582B000AF0023C7
:105550007B60224801F050F903460A2B02DC204B05
:1055600000221A701F4A1D491F4801F071FA1B489A
:1055700001F042F903460A2B11DD194B1B7883F029
:105580000103DBB2002B0AD0184B19683B1D042223
:105590001748FDF7C3FD124B01221A700CE00F48AB
:1055A00001F02AF903467F2B06DD104B19683B1DDD
:1055B00004220F48FDF7B2FD7B68002B07D00D4B8E
:1055C0004FF080521A60BFF34F8FBFF36F8F0620EA
:1055D000FFF74CFE00BF0837BD4680BD505200109B
:1055E0007C52001064520010000001405053001023
:1055F0003F0E010004ED00E080B582B000AF002353
:105600007B60064B1B681B68DB68054A1268104606
:10561000984700BF0837BD4680BD00BF140000108A
:105620004C52001080B584B000AF78600023FB734B
:105630003220FCF771FD4FF0FF3214497868FCF717
:1056400061F90346012BF6D1104B1B781A4610491D
:10565000104801F037F80D4B93F84C30012B07D16F
:105660000A4B1B781A460B490B4800F019F809E061
:10567000084801F0C1F803461A460849054801F0F8
:105680007DF800BF0A20FCF747FDD4E780520010E8
:10569000815200106452001000000140D0520010EE
:1056A00080B588B000AFF860B9607A60032102204D
:1056B000FFF79AFD21E0FB7C1946F868FFF764FECE
:1056C0000023FB6103E000BFFB690133FB61FB6961
:1056D0000F2BF8DD09E00023BB6103E000BFBB69CD
:1056E0000133BB61BB690F2BF8DDF868FFF795FE4E
:1056F000034603F02603002BEDD007F113031946F0
:10570000B86801F023F80346002BD4D100237B6155
:1057100003E000BF7B6901337B617B69632BF8DDAC
:1057200003210220FFF774FD00BF2037BD4680BD76
:1057300080B500AFFBF75AFA0346024A136000BF78
:1057400080BD00BF5053001080B483B000AF03464B
:10575000FB71FB7903F01F03012202FA03F1054AF2
:1057600097F907305B0942F8231000BF0C37BD469C
:1057700080BC704700E100E080B582B002AF00F06D
:1057800015F8074B1B680022019202220092642246
:1057900004490548FCF7C4FA00BFBD4680BD00BF00
:1057A0005453001090B201001D5D010080B500AFA0
:1057B000002246210520FBF755FF0346074A1360E8
:1057C000064B1B6806491846FCF74EFA054B1B684A
:1057D00003211846FBF7C6FA00BF80BD54530010E2
:1057E000A4B201005053001080B586B002AF7860BB
:1057F0000A4B18687B680093012301220121FBF703
:105800000DFAF860FB6803F00103002B01D00123BF
:1058100000E0002318461037BD4680BD50530010ED
:1058200080B500AF034B1B6801211846FBF79AFABD
:1058300000BF80BD5053001080B586B002AF7860C5
:105840000A4B18687B680093012301220221FBF7B1
:10585000E5F9F860FB6803F00203002B01D0012397
:1058600000E0002318461037BD4680BD505300109D
:1058700080B500AF034B1B6802211846FBF772FA94
:1058800000BF80BD5053001080B485B000AF786079
:105890003D4B7E225A707B689B780733BB607B68E8
:1058A0009B780B33DAB2384B1A70BB681B12DAB232
:1058B000354B9A70BB68DAB2334BDA70324B012247
:1058C0001A71314B01225A717B68B3F844301B0ABC
:1058D0009BB2DAB22C4B9A717B68B3F84430DAB2DF
:1058E000294BDA71284B00221A720023FB737B6864
:1058F0001A78254B5A727B6893F90130DAB2224B41
:105900009A720023FB730CE0FA7BFB7B0A33796805
:105910000A44D1781C4A13440A465A70FB7B01336F
:10592000FB737B689B78FA7B9A42EDD30023BB81A3
:105930000323FB730BE0FB7B134A13445B789AB29F
:10594000BB8913449BB2BB81FB7B0133FB737B6838
:105950009B7803F10902FB7B9A42ECDABB89DBB24C
:10596000BB81BB89DBB2DB43DBB2BB81FB7BBA898A
:10597000D1B2054A13440A465A70034B18461437ED
:10598000BD4680BC704700BF38CC072080B582B0D0
:1059900000AF78600B46FB707868FFF775FF0C4A24
:1059A000FB7882F84C300B4B1868002364220849BE
:1059B000FBF7A0FE0346002B03D0FFF731FF0123C6
:1059C00002E0FFF72DFF002318460837BD4680BDD3
:1059D00038CC07207852001090B589B000AF7860BD
:1059E00039603B68002B01D100234CE17B68002B20
:1059F00001D1002347E14FF4FA70FFF71DFF0023A8
:105A0000FB730023FB820023FB8300237B770023AF
:105A1000BB7300233B7707F10F031946786800F04A
:105A200095FE20E007F10F031946786800F08EFE1E
:105A30000346002B0ED03B7F01333B773B7F022B8D
:105A400011D9FFF715FF924B1B680133904A136081
:105A5000002318E1FFF70CFF8D4B1B6801338C4AC4
:105A6000136000230FE1FB7B7E2BDBD103228949EE
:105A7000786800F083FE874B1B78FB82B7F91630FD
:105A80001B02FB82834B5B789AB2FB8A13449BB266
:105A9000FB82B7F916304B2B08DDFFF7E9FE7C4B94
:105AA0001B6801337A4A13600023ECE0794B9B7842
:105AB0009AB2FB8B13449BB2FB83764B9B78892B6A
:105AC0000DD103227349786800F058FEFFF7D0FE2D
:105AD0006F4B1B6801336E4A13600023D3E0002331
