:020000021000EC
:1000000000800010A103010091030100930301008F
:10001000950301009703010099030100000000000F
:10002000000000000000000000000000CD0B0100F7
:100030009B03010000000000590C01009D0C010011
:100040009D0301009D0301009D0301009D0301002C
:100050009D0301009D0301009D0301009D0301001C
:100060009D0301009D0301009D0301009D0301000C
:100070009D0301009D0301009D0301009D030100FC
:100080009D0301009D0301009D0301009D030100EC
:100090009D0301009D0301009D0301009D030100DC
:1000A0009D0301009D0301009D0301009D030100CC
:1000B0009D0301009D0301009D0301009D030100BC
:1000C0009D0301009D0301009D030100E81501004F
:1000D0000000001014000000E815010000C0072017
:1000E00000000000140000106446000000C007205B
:1000F000000000002F4B13B5D3F8882012F0407F8A
:100100000FD00122C3F88020AA2155220024C3F871
:100110008C10C3F88C20C3F88040C3F88C10C3F84F
:100120008C20254B042219681A6000229A60E8B1DD
:1001300001283BD11F4B2022C3F8A0211F4B019364
:10014000019B5A1E019223B11A4BD3F8A0315806D5
:10015000F6D5019858B3174B0122C3F80C210022A1
:10016000C3F80421164A174B1A600DE0114B154ACB
:10017000154CC3F80C01C3F804011460D3F8A8208F
:10018000D20558BFC3F8A0010E4B01201A68C8233E
:10019000B2FBF3F2084B013A5A601960054B1A683A
:1001A00022F4704242F480421A6000E0104602B02D
:1001B00010BD00BF00C00F4010E000E0A0860100AD
:1001C000001BB7002845001000093D00F8B50446A3
:1001D0000120FFF78FFF484BD3F80C1111F00301FA
:1001E0000FD0012940F08680002144480B011A58A5
:1001F000A2420BD0002A7DD00131F6E7002A79D047
:1002000001313F480B011A58A242F7D1002C71D09E
:1002100003445A689868D968374BD3F8885015F06A
:10022000407F0FD00125C3F88050AA26552500270E
:10023000C3F88C60C3F88C50C3F88070C3F88C602E
:10024000C3F88C502C4B02EB0042C3F88420AA2048
:1002500055220125C3F88C00C3F88C20C3F88050C8
:10026000C3F88C00C3F88C20D3F88800224A4001E0
:10027000FAD5136823F4704343F4804313600323D7
:10028000C2F80411C2F88030AA23C2F88C3055237A
:10029000C2F88C30184BD3F8882012F0407FF9D088
:1002A000184A944205DD1A6822F4704242F48042F2
:1002B00019E0154A944205DD1A6822F4704242F4AE
:1002C000405210E0114A944205DD1A6822F470424F
:1002D00042F4005207E00E4A94421A6822F4704237
:1002E000C8BF42F480521A600A4B01201C600A4BBE
:1002F0001C60F8BD0020F8BD00C00F40FC130100D9
:10030000EC14010000B4C40400879303005A620295
:10031000002D3101000000102845001010B5012308
:10032000074C2AB18B4054F820201068034305E0A5
:100330008B4054F82020106820EA0303136010BD9E
:10034000AC15010010B50123074C32B18B4054F8B5
:10035000202090690343936110BD8B4054F8202006
:10036000D0690343D36110BDAC15010008B500206E
:1003700016210122FFF7D2FF012002460F21FFF7CD
:10038000CDFFBDE8084001200E210246FFF7C6BFA1
:10039000FEE7FEE7FEE7FEE7FEE7FEE7FEE700001A
:1003A00008B500230B4A0C499818884204D20B491F
:1003B000595899500433F5E709480A494FF00002AB
:1003C0008842B8BF40F8042BFFF6FAAF00F09CFC5F
:1003D000FEE700BF0000001014000010E815010047
:1003E000140000107846001008B5084B1A680AB9C6
:1003F000012200E000221A60002016211A68FFF78F
:10040000A1FFC82000F08CFAEFE700BF1400001035
:100410001FB50A48FFF7DAFEFFF7A8FF0023009395
:1004200001930293039306499622064800F0A6F82A
:1004300000F06AF9012005B05DF804FB0020A10777
:10044000BC150100E90301000D4BD3F8C42042F0B4
:100450000202C3F8C420D3F8A82122F00C0242F013
:100460000402C3F8A8214FF0402302225A60002260
:100470005A6040F6FF12DA6001225A60704700BFEE
:1004800000C00F4000F1080343604FF0FF32C3602B
:10049000036100238260036070470023036170479B
:1004A00043689A684B608A609A68516099600368F3
:1004B000086101330360704730B50C68631C01D1DB
:1004C000036907E000F108035A681568A54201D8DE
:1004D0001346F9E75A684A6091608B605960036877
:1004E00008610133036030BD4168826803698A6036
:1004F000826851605968814208BF5A6000220261D7
:100500001868013818607047064A13681968064B66
:1005100011B94FF0FF3203E01268D268D268526816
:100520001A6070472C000010040000100E4B10B52C
:100530001A68044650600D4A1268904207D2BDE81E
:1005400010400B4A106819680431FFF7B5BF094A1B
:10055000106819680431FFF7AFFF074B1A6894421F
:1005600038BF1C6010BD00BFD0000010E8000010B4
:10057000EC0000102C000010040000102DE9F84FD2
:10058000824644208846154699460A9F0B9EDDF810
:1005900030B000F067FA0446002800F09680584614
:1005A000BBF1000F02D1A80000F05CFA206318B97B
:1005B000204600F0C9FA88E0AD002A46A52100F0E7
:1005C000ADFB236B043D2B4423F0070B002518F8EB
:1005D0000520631983F8342018F8053013B101356C
:1005E0000C2DF4D10023042F34BF3D46042504F123
:1005F000040884F83F30E56225644046FFF74DFF6C
:10060000C5F1050504F11800FFF747FF2461A56156
:100610006462584651464A4600F0CAFA206006B164
:10062000346000F0FDFA2B4B2B4D1A68DFF8D090A8
:1006300001321A602E6816BB2C601B68012B26D174
:1006400009EB06001436FFF71DFF642EF8D1DFF822
:10065000B4A0224E5046FFF715FF3046FFF712FFB9
:100660001F48FFF70FFF1F48FFF70CFF1E48FFF75B
:1006700009FF1E4BC3F800A01D4B1E6007E01D4B79
:100680001B6823B92B68DB6ABB4298BF2C601A4BEE
:1006900014201A6801321A60184AE36A116800FBD4
:1006A00003908B42414688BF1360FFF7F9FE00F0CC
:1006B000C9FA104B1B682BB12B68DB6ABB4201D215
:1006C00000F096FA0120BDE8F88F4FF0FF30BDE84A
:1006D000F88F00BF08010010D00000104C0000107F
:1006E000D400001038000010180000102C0000107A
:1006F000EC00001030000010F00000100C010010A1
:1007000064000010F400001030B5002485B000949F
:100710000194029403940C480C4940222346FFF7AD
:100720002DFF012805460CD100F06EFA084B1D6024
:10073000084B1C60FFF788FE05B0BDE8304000F0B4
:10074000CBBA05B030BD00BF5D090100C615010080
:1007500030000010E8000010024B1A6801321A60E5
:10076000704700BFC8000010334B2DE9F0471B68ED
:10077000002B33D1314B1A6801321A601E685EB902
:100780002F4A304B11681868106019602E4B1A6898
:1007900001321A60FFF7B8FE2C4F00243B68DFF8E7
:1007A000BC809E42DFF8B8900DD3254B1A681268C2
:1007B00012B94FF0FF3305E01B68DB68DD686B683A
:1007C0009E4211D23B60D9F800301422DB6A5343B9
:1007D00058F80330022B28BF012424E01C4B0024CE
:1007E0001A6801321A601EE005F1040A5046FFF74C
:1007F0007BFEAB6A1BB105F11800FFF775FE154AC9
:10080000EB6A116814208B4200FB0380514688BFBD
:100810001360FFF745FED9F80030EA6ADB6A9A42B6
:1008200028BF0124C1E70C4B1B68002B18BF012413
:100830002046BDE8F08700BFC8000010E8000010A7
:100840002C000010EC000010CC0000100400001080
:10085000600000100C010010100100106400001076
:10086000D000001038B500F0DBF9254B1A68013ACA
:100870001A601B680BB100243EE0224B1B68002B62
:10088000F9D0214B1A6802B3DB68DC68251D04F13E
:100890001800FFF729FE2846FFF726FE1B4AE36AE9
:1008A000116814208B4288BF1360194A294600FB47
:1008B0000320FFF7F5FD174BE26A1B68DB6A9A42DB
:1008C000DFD3154B01221A60DBE7144C23687BB998
:1008D000114B1C68012CCED100F08AF90CE0FFF717
:1008E00043FF10B10C4B01221A602368013B2360C7
:1008F0002368002BF3D1EBE700F0A4F9204638BDC4
:10090000C800001008010010D40000100C010010F5
:1009100064000010D00000101001001060000010F2
:1009200010B5044618B9BDE8104000F061B9FFF7F2
:1009300013FF084B1B681C44074B18680430FFF773
:10094000D3FD2046FFF7F2FDFFF78CFF0028EAD029
:1009500010BD00BFE8000010D000001008B5144D15
:100960002B68F3B1134CFFF7F7FE2668FFF77AFF09
:10097000002EF4D000F054F9E368DC68201DFFF786
:10098000B3FD0D4B1A68013A1A602B68013B2B60CE
:1009900000F058F9206B00F0D7F8204600F0D4F8AA
:1009A000DDE7064B1B68012BD9D900F021F9D6E70A
:1009B000340000103800001008010010640000101E
:1009C000114B1A68114B0AB101221AE01A60104A41
:1009D000142310680F495843085818B91368013B8D
:1009E0001360F4E7126803FB02135A6803F108016D
:1009F00052688A425A6004BF52685A605B68DA687B
:100A0000054B1A60704700BFC800001010010010AD
:100A10000C01001064000010D000001010B50F4B46
:100A20001A68824201D21346FAE759685C18844278
:100A300003D1406801445960184641684418944203
:100A400007D1074C2468A24203D05468126821449D
:100A500041608342026018BF186010BD1801001089
:100A600014010010F8B50546FFF776FE304A31480C
:100A700013689646BBB9304A304922F0070281E834
:100A80000C0002F58741703144F2F0344B60135191
:100A90002B4B82E812001A68CEF80010083A1A6050
:100AA0004FF000430360066835423BD1002D3AD039
:100AB00005F108035A071CBF23F007030833002B76
:100AC0002ED01F4F3A6893422CD81C4A1468616894
:100AD000994204D3DEF80000844206D122E0206867
:100AE0000028F7D022460446F1E720681568106018
:100AF000CA1A102A05F1080504D9E018426063609B
:100B0000FFF78CFF0F4962683B6808689B1A8342B5
:100B10003B6038BF0B60164300236660236002E031
:100B20001D4600E00025FFF79DFE2846F8BD00BFEA
:100B300014010010204500102801001018010010B9
:100B40000C0000100800001010B50446E0B10F4A78
:100B500050F8043C12681A4216D050F8081C99B993
:100B600023EA020340F8043CFFF7F6FD084B54F873
:100B7000041C1A68A4F108000A441A60FFF74EFF2B
:100B8000BDE81040FFF76EBE10BD00BF204500104D
:100B90000C00001005480068006880F3088862B601
:100BA000BFF34F8FBFF36F8F00DF00BF08ED00E092
:100BB0004FF0807300E90A00034B40F8202C40F806
:100BC0000C3C4038704700BF190C0100074B1968F6
:100BD0000868B0E8F00F80F30988BFF36F8F4FF01B
:100BE000000080F311884EF00D0E7047D000001009
:100BF000044B4FF080521A60BFF34F8FBFF36F8FDB
:100C0000704700BF04ED00E0EFF311804FF00001EA
:100C100081F311887047002008B5FFF7F5FFFEE764
:100C200008B5FFF7F1FF044B1A6801321A60BFF3F1
:100C30004F8FBFF36F8F08BD1000001080F3118835
:100C400070470000034B18680138186008B9FFF7B7
:100C5000F5BF704710000010EFF30980BFF36F8FEE
:100C60000D4B1A6820E9F00F10602DE908404FF095
:100C7000000080F31188FFF7A3FE4FF0000080F31F
:100C80001188BDE8084019680868B0E8F00F80F3E3
:100C90000988BFF36F8F7047D000001008B5FFF7C9
:100CA000B3FFFFF761FD18B1044B4FF080521A609B
:100CB0000020BDE80840FFF7C1BF00BF04ED00E021
:100CC000034A044B1A60072243F8042C704700BF04
:100CD000FFF3010014E000E008B5094B1A6842F484
:100CE00078021A601A6842F078421A60FFF7E8FF4B
:100CF000044B00221A60FFF74DFFFFF785FFFEE768
:100D000020ED00E01000001008B50020014602466A
:100D100000F006F8BDE80840FFF77ABB00F028BBFA
:100D200010B500214FF4A0722248FFF7F7FFC02052
:100D300000F08CF9204C0021C0222060FFF7EEFF6C
:100D4000206800231B4C2822182102FB034201FBD0
:100D500003010133082B5162F4D1224617490020C8
:100D600000F072F84FF48053204600214FF4806267
:100D700000F028F804F128021149012000F064F87D
:100D80004FF4805304F1280000214FF4806200F0FA
:100D900019F804F150020A49022000F055F804F154
:100DA000500000214FF480624FF48053BDE81040A2
:100DB00000F008B8304500102C450010CB1501009C
:100DC000CD15010070B5C468A50717D0B2F5007F36
:100DD00009D0B2F5806F03D0B2F5807F0ED102E06A
:100DE000416A012303E0064D5E1EAE4206D822434F
:100DF00001610160C361C260002070BD012070BD4F
:100E0000FEFFFF00C368426A23F0200310B552685A
:100E1000C3608369044693420FD000F04AF8E36848
:100E2000626A23F4405323F0100343F01003E3609D
:100E30005368A361236993602360E36823F48043CC
:100E400023F04003E36010BDF8B50E460746104698
:100E5000154600F00BF93378722B07D0772B08D0AA
:100E6000612B23D1082348F2020404E0002301246B
:100E700001E00423022416F8012F2B2A06D0622A4F
:100E800009D144F0040443F00103F4E744F00304FF
:100E900043F00203EFE71B07EC606F61284607D5BC
:100EA0000021022200F030F92846F8BD0020F8BDEC
:100EB000F8BD38B50268436A04460569C068996898
:100EC00020F40023E36000F08203022B02D04FF0F5
:100ED000FF3038BD10F4803016D0914238BF114633
:100EE000A94209D1636A00209D60E368256023F46C
:100EF0008033A060E36038BD2846491B224600F0DD
:100F000005F80028EED0E2E738BD00002DE9F041F9
:100F1000D5688046EB020E461446576905D538461B
:100F200000F048FA45F01005A061134B2B4053B177
:100F30003846A16900F050FA002814DB25F400358A
:100F400025F01005E56032463846414600F050FA7B
:100F5000801B18BF6FF0000020F00043F61AA36951
:100F60003344A36128B1E3684FF0FF3043F08003BE
:100F7000E360BDE8F08100BF10000200F8B52F4B20
:100F8000C51C1C68AD081F46C0B100260FE02368D1
:100F9000B3F1805FA36842D11A68B2F1805F6268E2
:100FA0000ED159680A44033262609A68A260002C2C
:100FB000EDD10C3000F084F9431C33D10020F8BD92
:100FC000AA4208DBE91C914205DB20464FF00053A2
:100FD00040F80C3BF8BD05F10A018A4211D92046C0
:100FE0004FF00051656040F80C1B00EB8501521B6F
:100FF000A160033A4FF0805440F825404A608B606E
:10100000F8BD63B9A0EB820000F05AF90130D5D0E9
:101010004FF0005384E8280004F10C00F8BD264688
:101020001C46C4E74FF0005380E8280084600EB9E6
:10103000386000E0B0600C30F8BD00BF70460010B2
:1010400018B14FF0805340F80C3C704710B5FFF7D3
:1010500095FF044628B90449172200F0C9F900F0A9
:101060009DF9204610BD00BFCF1501002DE9F041CC
:1010700000F10C0595E8A001A90786B00446466A70
:1010800025D02A0716D400F027F8404600F08CF946
:101090002B0502D53846FFF7D3FFAD0DAD0515F191
:1010A000A54F07D101A8216A142200F09BF901A8DD
:1010B00000F0D6F800211822606AFFF72FFE2046C4
:1010C00000212822FFF72AFE6662002001E04FF08F
:1010D000FF3006B0BDE8F08138B5044618B1BDE870
:1010E000384000F00DB905460648204400F008F9E4
:1010F0002834002818BF4FF0FF35B4F5A07FF3D196
:10110000284638BD304500102DE9F843C668404BED
:10111000044633400D469046D0F81490002B72D010
:10112000484600F04DF9074600286CD1B8F1010F90
:1011300006D0B8F1020F08D0B8F1000F63D126E055
:10114000204600F067F8054421E0484600F032F9F7
:10115000B0F1000CE06804DA40F08000E0600127A4
:1011600052E0626A23689168D4F8188099422CBFD3
:10117000884498442169C1EB0803810603D552686D
:101180009342B8BF13466345ACBFED186544002DCC
:1011900039DB16F4005F636A04D0226899689142D3
:1011A00038BF9A60A269954211DB2168986888422D
:1011B00038BF0846216900EB020CC1EB0C0C6545F9
:1011C00005DCD3F80CC002EB0C08454506DB002219
:1011D000A260626046F020065D600EE0AD1AB207C4
:1011E00044BFCCEB0503A360F30702D5081A2844DB
:1011F00060600D44256026F0200626F4032626F0C4
:101200004006E66000E002273846BDE8F88300BFEC
:1012100003001000C3689A0705D1104B21221A6001
:101220004FF0FF30704713F4002F03F020030AD073
:1012300013B1436A586804E0026883690169134482
:10124000581A0138704713B1436A586870470268EA
:10125000836901691344581A704700BF2445001080
:1012600010B5044600F006F801462046BDE81040DF
:1012700000F0ACB810B5411C830705D010F8013B55
:10128000002BF9D1401A10BD024650F8043BA3F1DF
:10129000013424EA030414F0803FF5D013F0FF0F6B
:1012A0000AD013F47F4F05D013F47F0F14BF034609
:1012B000D31C02E0931C00E0531C581A10BD000020
:1012C00038B50C4B1A680AB90B4A1A60C51C1C6861
:1012D00025F003052544284600F034F818B9054BDD
:1012E00020461D6038BD054B0C221A604FF0FF30C0
:1012F00038BD00BF74460010784600102445001029
:10130000C36870B513F00302044619D09B0604D5D8
:10131000436A5D68FFF776FD04E0836905681D4454
:101320000369ED1AE368204623F44053E360FFF7B6
:10133000C0FD0022064629462046FFF7E5FE32465C
:10134000104670BD084A6B46934201D9984206D2B6
:10135000064B33B1984234BF002001207047012072
:1013600070471846704700BF784600100000000024
:101370000346043AC0F00A80C9B241EA012141EAB9
:101380000141043A43F8041BBFF4FBAF043200F000
:101390000480013A99547FF4FCAF7047182001494A
:1013A000ABBE70472600020003B469460220ABBE04
:1013B00002B0704703B469460C20ABBE02B0704760
:1013C00003B469460920ABBE02B0704703B4694656
:1013D0000E20ABBE02B0704703B469460A20ABBE14
:1013E00002B070470FB469460D20ABBE04B0704721
:1013F0000FB469460520ABBE04B0704700449508A1
:101400000B00000000000000010000000020A10708
:101410000F0000000000000002000000000E27077F
:101420000E000000000000000200000000E1F505D1
:10143000630000000500000003000000804A5D0515
:101440000E000000000000000300000000B4C4040F
:10145000630000000500000004000000801D2C0453
:1014600022000000020000000300000040D2DF0361
:101470001A00000000000000040000000087930331
:101480000E000000000000000500000080F0FA02DD
:10149000630000000500000007000000005A62021F
:1014A00063000000050000000900000080C3C901BE
:1014B0000E000000000000000B000000002D3101B4
:1014C0000E0000000000000011000000809698004F
:1014D00022000000020000001B00000000000000CD
:1014E000000000000000000000000000000E2707C0
:1014F0002C000000000000000200000000E1F505E3
:101500004A0000000100000002000000804A5D0562
:1015100059000000010000000300000000B4C404F2
:10152000630000000100000004000000801D2C0486
:101530004500000001000000030000000087930345
:1015400059000000010000000500000080F0FA02D0
:10155000630000000100000007000000005A620262
:1015600063000000010000000900000080C3C90101
:1015700059000000010000000B000000002D3101A7
:1015800045000000010000000D000000809698005A
:1015900045000000010000001B00000000000000EA
:1015A00000000000000000000000000000C0092052
:1015B00020C0092040C0092060C009204861727421
:1015C00020626561740049444C4500720077002A2E
:1015D0002A2A205F437379735F616C6C6F632066A6
:0815E00061696C65640A00FFFB
:1015E80000093D00FFFFFFFFF8430000F84300003B
:0415F800AAAAAAAA47
:04000003100003A145
:00000001FF
