:020000021000EC
:100000000080001045010100090101000B01010001
:100010000D0101000F0101001101010000000000AD
:10002000000000000000000000000000110C0100B2
:100030001301010000000000710C0100B50C01006B
:100040001501010015010100150101001501010054
:100050001501010015010100E53A0100893B01008D
:100060001501010015010100150101001501010034
:100070001501010015010100150101001501010024
:100080001501010015010100150101001501010014
:100090001501010015010100150101001501010004
:1000A0002D3C0100150101001501010015010100A1
:1000B00015010100150101001501010015010100E4
:1000C000150101001501010015010100289F010023
:1000D00000000010F0010000289F010000C0072070
:1000E00000000000289F010000C807200000000059
:1000F000F00100101055000000C0072000000000B3
:1001000000C80720AC360000FEE7FEE7FEE7FEE78A
:10011000FEE7FEE7FEE70023934209D210B450F851
:10012000044B41F8044B04339342F8D310BC70479E
:10013000704700238B4204D2002240F8042B043382
:10014000F8E7704710B50E4B07E003F10C049A680E
:1001500059681868FFF7DFFF23460A4A9342F4D331
:1001600006E01C46596854F8080BFFF7E2FF2346E7
:10017000054A9342F5D300F093F900F01DF9FEE72C
:10018000CC000100F000010008010100FEE7FEE7DD
:10019000FEE700BFFFFFFFFFFFFFFFFFFFFFFFFFC7
:1001A000FFFFFFFFFFFFFFFFFFFFFFFFFFFFFFFF5F
:1001B000FFFFFFFFFFFFFFFFFFFFFFFFFFFFFFFF4F
:1001C000FFFFFFFFFFFFFFFFFFFFFFFFFFFFFFFF3F
:1001D000FFFFFFFFFFFFFFFFFFFFFFFFFFFFFFFF2F
:1001E000FFFFFFFFFFFFFFFFFFFFFFFFFFFFFFFF1F
:1001F000FFFFFFFFFFFFFFFFFFFFFFFFFFFFFFFF0F
:10020000FFFFFFFFFFFFFFFFFFFFFFFFFFFFFFFFFE
:10021000FFFFFFFFFFFFFFFFFFFFFFFFFFFFFFFFEE
:10022000FFFFFFFFFFFFFFFFFFFFFFFFFFFFFFFFDE
:10023000FFFFFFFFFFFFFFFFFFFFFFFFFFFFFFFFCE
:10024000FFFFFFFFFFFFFFFFFFFFFFFFFFFFFFFFBE
:10025000FFFFFFFFFFFFFFFFFFFFFFFFFFFFFFFFAE
:10026000FFFFFFFFFFFFFFFFFFFFFFFFFFFFFFFF9E
:10027000FFFFFFFFFFFFFFFFFFFFFFFFFFFFFFFF8E
:10028000FFFFFFFFFFFFFFFFFFFFFFFFFFFFFFFF7E
:10029000FFFFFFFFFFFFFFFFFFFFFFFFFFFFFFFF6E
:1002A000FFFFFFFFFFFFFFFFFFFFFFFFFFFFFFFF5E
:1002B000FFFFFFFFFFFFFFFFFFFFFFFFFFFFFFFF4E
:1002C000FFFFFFFFFFFFFFFFFFFFFFFFFFFFFFFF3E
:1002D000FFFFFFFFFFFFFFFFFFFFFFFFFFFFFFFF2E
:1002E000FFFFFFFFFFFFFFFFFFFFFFFFFFFFFFFF1E
:1002F000FFFFFFFFFFFFFFFFFFFFFFFFFFFFFFFF0E
:1003000008B54FF0402004F075FE4FF04023022264
:100310005A6000225A6040F6FF12DA6001225A60E9
:1003200008BDFFFF10B5084C2146084804F0F2FD57
:10033000204604F019FF04F01FFC04F01BFF0448E2
:1003400000F0A8FB10BD00BF0024F4000020A107AE
:100350000000001010B5174B1A6842F480421A6072
:100360001A6842F400421A601A6842F480321A6035
:10037000DA6942F48032DA61DA6942F40042DA6121
:10038000DA6942F48042DA6100240AE0094A93699A
:1003900043F48043936184F0010441F2883001F01A
:1003A000CBFA002CF2D1034AD36943F48043D361E2
:1003B000F1E700BF20C0092010B582B0FFF7B2FFFF
:1003C00000F02EF8002301930124009446220549F1
:1003D000054801F0B7F800F06FF801F047F9204642
:1003E00002B010BD24970100550301007047FFFFC4
:1003F000024A936943F001039361704740C00920AA
:10040000024AD36943F00103D361704740C0092019
:10041000024AD36943F08003D361704740C009208A
:1004200000B583B0154B1A6842F001021A601A68D1
:1004300042F080021A60FFF7E3FFFFF7E9FF03F0E5
:10044000DDFC03F083FA02F015F901F00FFE03F072
:10045000DDFC03F099FF04F053FB00F015F803F006
:1004600019FF00230193012200924FF416720449F0
:10047000044801F067F803B05DF804FB40C00920B0
:10048000349701000527010008B5044B5869C0F3F3
:10049000C020012104F042F908BD00BF40C009207E
:1004A00008B5034A034B1A6004F0A2FD08BD00BF63
:1004B0000000010008ED00E080B582B002AF00232B
:1004C0000193022300930023F0220349034801F023
:1004D00039F800BFBD4680BD44970100E10401002A
:1004E00000B585B041F2883001F026FA01210846B6
:1004F00004F030F90121084604F050F944F6206078
:1005000001F01AFA0123594A59495A4804F06CF982
:100510004FF00008CDF80080012342464FF4FA71F5
:10052000084601F021FEDFF85491534D4946284614
:1005300007F09AF8012303221946284604F024F80C
:10054000DFF83CA1CDF800A04346012240F6192176
:1005500040F2BA6001F066FE09F11801284607F082
:1005600083F8012303221946284604F00DF84FF0C2
:100570007E56012402940196009633463246314657
:10058000304604F067FACDF800A0434622464FF407
:1005900016714FF47A7001F045FE09F130012846DA
:1005A00007F062F8234603222146284603F0ECFFB9
:1005B000CDF800A04346224640F68C214FF47A70D5
:1005C00001F030FE09F14801284607F04DF82346B6
:1005D00003222146284603F0D7FF02940196009695
:1005E0003346324631464FF07C5004F033FACDF8B2
:1005F00000802346424640F654314FF47A7001F0B1
:10060000B3FD09F16001284607F02EF823460322C6
:100610002146284603F0B8FF00942346424640F6A0
:100620008C214FF47A7001F09FFD09F17801284682
:1006300007F01AF8234603222146284603F0A4FFB8
:10064000CDF800A0234622464FF416714FF47A707D
:1006500001F0E8FD09F19001284607F005F823466E
:1006600003222146284603F08FFF51E70000B442E1
:1006700000007A4300006144F0010010549701002B
:10068000C725010038B50A46454C04F5AC75454907
:10069000284606F0E9FF382384F84030FE2384F82A
:1006A00041300223A37006236370284606F0FCFF46
:1006B0003B2832D93B233A48037000F5AC7006F072
:1006C000F3FF3B282ED93B22354C04F5AC71E01CDE
:1006D00006F054FB3E2384F842304022214604F1C8
:1006E000430006F04BFB0A23A4F8843004F14000D9
:1006F00003F0E8FB014604F188054D22284606F088
:100700003DFB8022294604F1D80006F037FB032187
:10071000022003F0E0F800230BE0284606F0C4FFB7
:10072000C3B2C8E7204806F0BFFF0246CCE700BFCF
:10073000013340F6B7329342F9DD0321022003F082
:10074000BFF800220FE000BF01330F2BFBDD174B7A
:100750005B6913F0260F05D100230F2BF7DC00BFD8
:100760000133FAE701324C2A07DC0D4B134493F8AE
:10077000D8100E4B19600023E7E7002301E000BF0B
:100780000133632BFBDD0321022003F0A4F84FF0BB
:10079000280383F31188BFF36F8FBFF34F8FFEE7FA
:1007A00000C80720FC97010058C90720000001403D
:1007B0001AB9084206D11046704731EA000303D047
:1007C00000207047012070470120704710B51820A5
:1007D00000F0D4F8044620B1002340F8043B00F0B8
:1007E0009BF9204610BDFFFF2DE9F84306460D4654
:1007F00090461F46DDF8209000F070FF34683A46BE
:1008000029462046FFF7D4FF40B1B8F1000F19D0B8
:1008100024EA050333604FF0000915E0B9F1000F39
:1008200012D0B8F1000F0AD100210FB141F0806160
:100830004A462943301D01F0FDF8002404E04FF042
:100840008071F2E74FF0000900F0D6FFB9F1000F18
:1008500010D038B9124B4FF080521A60BFF34F8F4F
:10086000BFF36F8F01F008FA044610F0007F04D048
:1008700024F07F442046BDE8F88300F0DBF93468BB
:100880003A4629462046FFF793FF28B1B8F1000FFA
:1008900002D024EA0505356000F0DCF9E8E700BF86
:1008A00004ED00E070B505460C4600F0C3F92E6873
:1008B00026EA04042C6000F0CDF9304670BDF8B58E
:1008C00004460D4600F10C0600F008FF206923687D
:1008D0002B43236000270AE0216832EA010105D199
:1008E00011E0216841F0007101F004F92846B0429E
:1008F0000ED04568036823F07F4213F0806FEBD180
:1009000021681142F2D013F0807FEAD01743E8E764
:10091000236823EA0707276000F06EFF2068F8BD10
:1009200008B5FFF7CCFF08BD10B4124B1A461B6880
:100930008342FBD351685418844209D0416844185B
:10094000A3420AD00360904200D0106010BC7047F0
:100950004068014451601046F0E7074C2468A34208
:1009600006D05B681944416013681B680360EAE7BE
:100970000460E8E7500200103802001070B5054628
:1009800000F0ACFE274B1B681D4243D135B1083542
:1009900015F0070F02D025F007050835002D3BD0D4
:1009A000214B1B68AB4239D3204A146801E0224630
:1009B0001C466368AB4202D22368002BF7D11C4B64
:1009C0001B68A3422CD0166808362368136063683E
:1009D0005B1B102B18D8626813490B689B1A0B60BD
:1009E000144909688B4201D212490B600D4B1B68F8
:1009F00013436360002323600F4A136801331360BD
:100A000000F0FAFE304670BD601943606560FFF784
:100A10008BFFE0E70026F3E70026F1E70026EFE78B
:100A20000026EDE73C0200104002001050020010CA
:100A300038020010440200104802001018B338B504
:100A40000446A0F1080550F8043C0F4A126813420E
:100A500002D050F8081C01B138BD23EA020340F867
:100A6000043C00F03BFE54F8041C084A13680B4495
:100A700013602846FFF758FF054A136801331360D7
:100A800000F0BAFEE8E770473C0200104002001098
:100A90004C020010F0B4024600210E4614E0194C3E
:100AA00025681344083B23F00703236000245C609F
:100AB0001C6014469F1A5760136005B12A60636872
:100AC0001E44013100EBC102536883B1126812F079
:100AD000070F05D0D41D24F00704121B134422462F
:100AE0000029DCD1084C226000256560D7E7074B60
:100AF0001E60074B1E60074B4FF000421A60F0BCAF
:100B0000704700BF3802001050020010440200106D
:100B1000400200103C02001000F1080343604FF057
:100B2000FF328260C36003610023036070470023CB
:100B30000361704743684B609A688A6051609960AE
:100B40000861036801330360704730B40D68B5F184
:100B5000FF3F11D000F108031C465B681A68AA42E7
:100B6000FAD963684B6099608C60616008610368C2
:100B70000133036030BC70470469F2E703694168E0
:100B800082688A60416851605A68824206D00022B9
:100B900002611A68013A1A601868704782685A60E0
:100BA000F5E782B0002301934FF0280383F3118807
:100BB000BFF36F8FBFF34F8F019B002BFCD002B0B0
:100BC0007047FFFF06480068006880F3088862B637
:100BD00061B6BFF34F8FBFF36F8F00DF00BF000020
:100BE00008ED00E04FF0807340F8043C21F0010173
:100BF00040F8081C034B40F80C3C40F8202C4038CF
:100C0000704700BFA30B0100FFFFFFFFFFFFFFFFC7
:100C1000074B19680868B0E8F00F80F30988BFF344
:100C20006F8F4FF0000080F311884EF00D0E70476B
:100C3000A80200104FF0280383F31188BFF36F8FD1
:100C4000BFF34F8F024A136801331360704700BF30
:100C500010000010034A1368013B13600BB983F3C3
:100C60001188704710000010FFFFFFFFFFFFFFFF1C
:100C7000EFF30980BFF36F8F0D4B1A6820E9F00F77
:100C800010602DE908404FF0280080F3118800F033
:100C90006DFE4FF0000080F31188BDE80840196830
:100CA0000868B0E8F00F80F30988BFF36F8F7047D2
:100CB000A802001008B54FF0280383F31188BFF392
:100CC0006F8FBFF34F8F00F017FD18B1034B4FF03C
:100CD00080521A60002383F3118808BD04ED00E000
:100CE000054B00221A6005490A60054A43F2FF11CC
:100CF000116007221A60704710E000E018E000E081
:100D000014E000E010B50B4B1A6842F478021A6048
:100D10001A6842F078421A60FFF7E2FF0024064B9F
:100D20001C60FFF74FFF00F021FEFFF73AFF20465F
:100D300010BD00BF20ED00E01000001010B504460B
:100D4000FFF778FFA26BE36B9A4204D00024FFF711
:100D500081FF204610BD0124F9E710B50446FFF7D6
:100D600069FFA36B23B90124FFF774FF204610BD70
:100D70000024F9E770B504461546866B026C5AB933
:100D800003681BB100200136A66370BD806800F0C7
:100D900033FF0023A360F6E76DB9406805F0EEFF6E
:100DA000226C636813446360A268934219D323687A
:100DB00063602846E7E7C06805F0E0FF226C514217
:100DC000E3689B1AE3602268934202D2A3680B4453
:100DD000E360022D01D00020D5E726B1013E0020BE
:100DE000D1E72846CFE70020CDE70346026C6AB181
:100DF00010B50846D9681144D9609C68A14201D356
:100E00001968D960D96805F0B9FF10BD704738B5C9
:100E10000546FFF70FFF95F8454064B203E000F088
:100E2000CFFE013C64B2002C08DD6B6A33B105F1E2
:100E3000240000F023FE0028F3D0F0E7FF2385F81C
:100E40004530FFF707FFFFF7F5FE95F8444064B221
:100E500003E000F0B5FE013C64B2002C08DD2B6914
:100E600033B105F1100000F009FE0028F3D0F0E7DF
:100E7000FF2385F84430FFF7EDFE38BD38B5044652
:100E80000D46FFF7D7FE2168E26B236C03FB0210CF
:100E9000A0600020A0636160013A02FB0313E360DD
:100EA000FF2384F8443084F84530A5B923691BB981
:100EB000FFF7D0FE012038BD04F1100000F0DEFD88
:100EC0000028F5D0084B4FF080521A60BFF34F8FC7
:100ED000BFF36F8FECE704F11000FFF71DFE04F184
:100EE0002400FFF719FEE3E704ED00E010B5034628
:100EF00002980C4631B90060C36304640121FFF716
:100F0000BDFF10BD0260F7E7F0B583B004460D46A3
:100F1000164601FB00F04830FFF730FD074638B1B8
:100F20000090334600F1480229462046FFF7DEFFD5
:100F3000384603B0F0BDFFFFF0B585B004460F465C
:100F400001921D46002639E02A4639462046FFF721
:100F500011FF636A6BB938B13C4B4FF080521A6095
:100F6000BFF34F8FBFF36F8FFFF774FE012005B003
:100F7000F0BD04F1240000F081FD0028F4D0334BD3
:100F80004FF080521A60BFF34F8FBFF36F8FEBE7C4
:100F9000FFF760FE0020EAE702A800F0D7FD012677
:100FA00019E0002384F8443021E0002384F8453020
:100FB00023E02046FFF72BFF00F01EFCFFF73AFE70
:100FC000A26BE36B9A42BFD3022DBDD0019B002BD5
:100FD000DED0002EE0D0FFF73DFE00F07FFBFFF7F4
:100FE00029FE94F8442052B2B2F1FF3FD9D094F8D0
:100FF000452052B2B2F1FF3FD7D0FFF72BFE01A937
:1010000002A800F0AFFDC8B92046FFF797FE002800
:10101000CFD0019904F1100000F0FEFC2046FFF74C
:10102000F6FE00F0E9FB0028C8D1084B4FF08052D3
:101030001A60BFF34F8FBFF36F8FBFE72046FFF7F4
:10104000E6FE00F0D9FB002091E700BF04ED00E0D0
:10105000F8B5044616461A46EFF311874FF02803F9
:1010600083F31188BFF36F8FBFF34F8F806BE36BF8
:10107000984205D3022A03D0002087F31188F8BDD7
:1010800094F845506DB2A36B2046FFF773FEB5F19F
:10109000FF3F05D001356DB284F845500120ECE7E3
:1010A000636A0BB90120E8E704F1240000F0E6FCD4
:1010B00018B126B101203060DFE70120DDE7012013
:1010C000DBE7FFFFF0B585B004460F46019200262E
:1010D0003CE039462046FFF788FE013DA5632369C1
:1010E00023B9FFF7B7FD012005B0F0BD04F11000F2
:1010F00000F0C4FC0028F4D0344B4FF080521A604A
:10110000BFF34F8FBFF36F8FEBE7FFF7A3FD002017
:10111000EAE702A800F01AFD012621E0002384F886
:10112000443029E0002384F845302BE02046FFF7C7
:101130006EFE00F061FB09E02046FFF768FE00F05C
:101140005BFB2046FFF709FE00283DD1FFF772FD4B
:10115000A56B002DBDD1019B002BD6D0002ED8D081
:10116000FFF778FD00F0BAFAFFF764FD94F8443019
:101170005BB2B3F1FF3FD1D094F845305BB2B3F12D
:10118000FF3FCFD0FFF766FD01A902A800F0EAFCFF
:101190000028D1D12046FFF7E0FD0028C6D00199F4
:1011A00004F1240000F038FC2046FFF730FE00F088
:1011B00023FB0028CAD1054B4FF080521A60BFF3C1
:1011C0004F8FBFF36F8FC1E700208DE704ED00E084
:1011D0000023092B0CD8074A52F833200AB10133F7
:1011E000F7E7044A42F8331002EBC3035860704734
:1011F000704700BF5802001070B504460D461646F1
:10120000FFF718FD94F844305BB2B3F1FF3F0DD007
:1012100094F845305BB2B3F1FF3F0BD0FFF71AFDF6
:10122000A36B5BB12046FFF7F2FD70BD002384F88D
:101230004430EDE7002384F84530EFE73246294695
:1012400004F1240000F008FCECE7FFFF084B1B68EA
:101250001B6823B9074B4FF0FF321A607047044BED
:101260001B68DB68DB685A68024B1A60704700BF76
:10127000AC0200105803001010B50446006BFFF7D5
:10128000DDFB2046FFF7DAFB10BD2DE9F047804675
:101290000D4617469946089EDDF824A00A9C920048
:1012A000A521206B05F078FD236B07F18042013A00
:1012B00003EB820727F00707A76485B30022132AF0
:1012C00007D8A95CA31883F83410AB5C0BB10132CA
:1012D000F5E7002384F84730042E00D90426E6629F
:1012E000E66400252565201DFFF721FC04F11800A8
:1012F000FFF71DFC2461C6F10506A6616462656501
:1013000084F858504A4641463846FFF76BFC206047
:10131000BAF1000F01D0CAF80040BDE8F087002301
:1013200084F83430D8E7FFFF38B50024042C08D8FF
:1013300004EB840293000E481844FFF7EDFB0134E0
:10134000F4E70C4D2846FFF7E7FB0B4C2046FFF770
:10135000E3FB0A48FFF7E0FB0948FFF7DDFB09481C
:10136000FFF7DAFB084B1D60084B1C6038BD00BF5F
:10137000B40200102C03001040030010640300109E
:10138000900300107C030010AC020010B0020010AB
:1013900010B50446FFF74EFC204A13680133136072
:1013A0001F4B1B685BB11F4B1B686BB91C4B1B6849
:1013B000DA6AE36A9A4207D8194B1C6004E0184BBA
:1013C0001C601368012B26D0174A13680133136081
:1013D000E06A01238340154A11680B43136000EB58
:1013E0008000211D124B03EB8000FFF7A3FBFFF7EA
:1013F00031FC0C4B1B686BB1094B1B68DA6AE36A62
:101400009A4207D20B4B4FF080521A60BFF34F8FB6
:10141000BFF36F8F10BDFFF787FFD5E718030010EC
:10142000A802001078030010240300102803001005
:10143000B402001004ED00E00F4B1B68D3B110B5EF
:10144000FFF7F8FB0D4BDB68DC68201DFFF796FB10
:101450000B4A1368013B1360074A1368013B136092
:10146000FFF7F8FB2046FFF707FF034B1B68002B35
:10147000E6D110BD704700BF1C03001090030010A0
:101480001803001008B5FFF7D7FF064B1B68012BA8
:10149000F9D9054B4FF080521A60BFF34F8FBFF35D
:1014A0006F8FF0E7B402001004ED00E070B5044661
:1014B0000D461D4B1E681D4B18680430FFF75EFB80
:1014C00050B91A4B1B68DA6A012303FA02F2184971
:1014D0000B6823EA02030B60B4F1FF3F0DD03444E4
:1014E000124B1B685C60A64210D9124B18680F4B58
:1014F00019680431FFF729FB70BD002DEFD00B4BAD
:10150000196804310C48FFF715FBF5E70B4B186819
:10151000064B19680431FFF718FB094B1B68A342FF
:10152000EAD9074B1C60E7E7A4030010A8020010EB
:1015300028030010B00200107C030010AC02001061
:10154000580300102DE9F04385B00746884614463D
:101550001E469000FFF712FAF0B181465C20FFF7BB
:101560000DFA0546A0B1C0F83090D5B10023039321
:1015700002950D9B01930C9B0093334622464146F6
:101580003846FFF782FE2846FFF702FF012005E0FC
:101590004846FFF753FAE8E74FF0FF3005B0BDE8E3
:1015A000F0834FF0FF30F9E738B50446FFF742FB10
:1015B000002C33D0251D2846FFF7E0FA68B9E26A0F
:1015C00002EB82039B002049CB5833B9012393409F
:1015D0001E490A6822EA03020A60A36A1BB104F1E9
:1015E0001800FFF7CBFA1A4A136801331360194B3E
:1015F0001B68A34215D0184A1368013B13602046AC
:10160000FFF73AFEFFF722FEFFF724FB134B1B68A0
:101610001BB1104B1B68A3420CD038BD0D4B1C688E
:10162000C8E729460E48FFF785FA0E4A13680133CA
:101630001360E9E70C4B4FF080521A60BFF34F8FF5
:10164000BFF36F8FE9E700BFB4020010280300105A
:1016500024030010A80200101803001078030010E3
:10166000900300101C03001004ED00E000B583B0EF
:10167000144B0193002300933C2213491348FFF7B6
:1016800061FF012804D0012805D003B05DF804FBF8
:1016900000F060FBF7E74FF0280383F31188BFF3F6
:1016A0006F8FBFF34F8F0A4B4FF0FF321A60094B19
:1016B00001221A60084B00221A60FEF721FEFFF794
:1016C00021FBE2E754030010289801008514010073
:1016D0005803001078030010A4030010024A136896
:1016E00001331360704700BF20030010014B1868DE
:1016F000704700BFA4030010F8B5344B1B68002BE3
:101700005DD1334B1E6801361E60AEB1314B1B6894
:10171000B3424AD90027304B1B68DB6A03EB8303D3
:101720009A002E4B9B58012B00D901272C4B1B688C
:10173000002B49D0012747E02A4A11682A4B186834
:1017400010601960294A136801331360FFF77EFDAA
:10175000DCE70127234B1B681B6843B3214B1B6845
:10176000DB68DC6863689E4226D3251D2846FFF7A8
:1017700005FAA36A1BB104F11800FFF7FFF9E36A49
:1017800001229A401A49086802430A6003EB830366
:101790009A00294611481044FFF7CCF9E26A0E4B33
:1017A0001B68DB6A9A42D4D2D4E70027D2E7094B00
:1017B0004FF0FF321A60AEE7064A1360ABE70D4AFE
:1017C00013680133136000273846F8BD200300106A
:1017D000A403001058030010A8020010B402001067
:1017E000A8030010AC020010B00200105C0300104F
:1017F000280300106003001038B5FFF71BFA2D4BCB
:101800001A68013A1A601B68002B4DD12A4B1B68DD
:101810000BB9002449E00024284B1B681BB3274B5D
:10182000DB68DC6804F11800FFF7A8F9251D2846DD
:10183000FFF7A4F9E06A01238340214A11680B43B2
:10184000136000EB800029461E4B03EB8000FFF77E
:1018500071F9E26A1C4B1B68DB6A9A42DCD31B4BB2
:1018600001221A60D8E70CB1FFF7F0FC184B1C6896
:1018700074B9164B1C68C4B1164B4FF080521A60F5
:10188000BFF34F8FBFF36F8F01240EE0013C07D0F1
:10189000FFF732FF0028F9D00C4B01221A60F5E760
:1018A0000B4B00221A60E4E70024FFF7D3F920462F
:1018B00038BD00BF2003001018030010640300109F
:1018C00028030010B4020010A8020010A8030010A2
:1018D0006003001004ED00E038B505460C46FFF744
:1018E000FDFE134B18682A681444824209D9A242AB
:1018F00001D82C600EE0A04201D32C600AE02C60DD
:1019000004E0A24201D8A04210D22C600021201A8B
:10191000FFF7CCFDFFF770FF38B9064B4FF0805250
:101920001A60BFF34F8FBFF36F8F38BD2C60F1E7A4
:10193000A403001004ED00E010B540B90A4B4FF0CD
:1019400080521A60BFF34F8FBFF36F8F10BD0446F4
:10195000FFF7C4FE00212046FFF7A8FDFFF74CFF6C
:101960000028F3D1EAE700BF04ED00E0254B1B6837
:101970001BB1254B01221A60704710B5224B002283
:101980001A60224B1B681B6B1A68B2F1A53F03D18A
:101990005A68B2F1A53F26D01C4B1868196834313B
:1019A000FEF770FE1A4B1B68B3FA83F3DBB2C3F188
:1019B0001F03184903EB830082000A445068406803
:1019C000506003EB8304A20014460832114488429D
:1019D00012D003EB83039A000E4B13445B68DA6862
:1019E0000A4B1A6010BD9A68B2F1A53FD4D1DB68EA
:1019F000B3F1A53FD0D1D5E74068064A22445060F4
:101A0000E7E700BF20030010A8030010A8020010A1
:101A100028030010B402001010B50C46044B1968DE
:101A20001831FFF792F801212046FFF73FFD10BD66
:101A3000A802001010B51446064B1A6841F0004188
:101A4000916119681831FFF775F801212046FFF7F9
:101A50002DFD10BDA802001038B50D461446064BEA
:101A600019681831FFF766F80CB14FF0FF352146C1
:101A70002846FFF71BFD38BDA802001038B5C36823
:101A8000DC6804F118052846FFF778F8134B1B684B
:101A9000E3B9251D2846FFF771F8E06A012383406A
:101AA0000F4A11680B43136000EB800029460D4B71
:101AB00003EB8000FFF73EF8E26A0B4B1B68DB6A22
:101AC0009A4208D90120094B186038BD29460848B8
:101AD000FFF730F8F0E70020F7E700BF2003001021
:101AE00028030010B4020010A8020010A803001080
:101AF0006403001038B541F000410160C468FFF78D
:101B00003DF8251D2846FFF739F8E06A0123834098
:101B10000A4A11680B43136000EB80002946084B0A
:101B200003EB8000FFF706F8E26A064B1B68DB6AEE
:101B30009A4202D9044B01221A6038BD28030010D2
:101B4000B4020010A8020010A8030010034B1B6889
:101B50000360034B1B684360704700BF5C030010C9
:101B6000A4030010F8B504460D46FFF763F8124BC6
:101B700019686368C81A2A68B2F1FF3F14D0276851
:101B80000E4E3668B74201D08B4212D9824203D83A
:101B900000232B60012408E05B1A13442B602046CD
:101BA000FFF7D4FF002400E00024FFF753F820469D
:101BB000F8BD0124F9E700BFA40300105C03001086
:101BC000014B01221A607047A8030010014B1868EE
:101BD000704700BFA8020010054B1B6833B1054BCE
:101BE0001B680BB10020704702207047012070472E
:101BF0007803001020030010002834D038B50446C4
:101C0000036D013B0365C16AC26C91422DD00BB1DB
:101C1000002038BD051D2846FEF7B0FF68B9E26A0E
:101C200002EB82039B001249CB5833B90123934046
:101C300010490A6822EA03020A60E06CE062C0F11F
:101C40000503A361012404FA00F30A4A11680B4357
:101C5000136000EB80002946054B03EB8000FEF784
:101C600069FF2046D5E7002070470020D1E700BF7C
:101C7000B402001028030010044A1368986913681E
:101C8000DB6A1268C3F1050393617047A802001074
:101C9000064B1A6813682BB90123036023B9D36874
:101CA000186870470023F8E700207047AC03001065
:101CB00008B54160006191420CD8D21A83699A42FA
:101CC00001D3012008BD011D094B1868FEF73DFF37
:101CD0000020F7E79A4201D2994206D2011D054B36
:101CE0001868FEF732FF0020ECE70120EAE700BFAA
:101CF000B0030010AC03001038B5FEF79BFF0F4B8C
:101D00001B6813B1FEF7A6FF38BD0D4D2846FEF740
:101D100003FF0C4C2046FEF7FFFE0B4B1D600B4BE8
:101D20001C60002210210520FFF7EEF8034B18601D
:101D30000028E7D00649FFF74BFAE3E7E00300107D
:101D4000B4030010C8030010AC030010B00300106F
:101D50003098010000B583B0FFF7CEFF084B1B6839
:101D600063B1084B019304230093002364220649C6
:101D70000648FFF7E7FB03B05DF804FB0020FAE735
:101D8000E0030010E4030010389801002D2001004A
:101D900030B585B01C46134B1D6805B30091019208
:101DA0000290052913DCFFF717FF022807D0002354
:101DB0001A4669460B480068FFF7BEF80DE000239D
:101DC000089A694607480068FFF7B6F805E000235F
:101DD000224669462846FFF73BF905B030BD002092
:101DE000FBE700BFE003001070B582B0164B1B6824
:101DF0001A6812B3DB681E68DC68251D2846FEF7EA
:101E0000BDFE236A2046984794F8243013F0040F4F
:101E1000ECD0A36933449E4207D263602461294613
:101E2000094B1868FEF791FEE0E7002100910B4690
:101E300032462046FFF7ACFFD8E7044A1068024953
:101E40000860136002B070BDAC030010B003001056
:101E500038B50546FFF74AFC0446074B1B6883422A
:101E600005D800232B60044B1C60204638BDFFF7CB
:101E7000BBFF01232B60F6E7DC03001070B582B0D6
:101E800006460D46124B1B68DB68DC68201DFEF71A
:101E900075FE94F8243013F0040F08D123F00103E9
:101EA00084F82430236A2046984702B070BDA169A7
:101EB00033462A4631442046FFF7FAFE0028F1D087
:101EC000002100910B4632462046FFF761FFE9E70B
:101ED000AC03001070B582B006460C46FFF7FEFB5F
:101EE00001A8FFF7B5FF019B23BB05460CB9B04223
:101EF00017D224B1114A12681268CAB901242246C5
:101F0000711B0F4B1868FFF777F9FFF775FC98B94D
:101F10000C4B4FF080521A60BFF34F8FBFF36F8F9F
:101F20000AE0FFF769FC29463046FFF7A7FF03E008
:101F30001C46E4E7FFF760FC02B070BDB003001080
:101F4000E003001004ED00E010B588B006E007994A
:101F50000698059B9847049B002B0BDA002204A9E6
:101F6000314B1868FFF7AEF800285BD0049B002BBC
:101F7000F1DAECE7069C636913B1201DFEF7FEFD64
:101F800003A8FFF765FF049B092BE7D8DFE803F000
:101F9000050505262D3C0505262D94F8243043F033
:101FA000010384F82430059BA169024619442046A8
:101FB000FFF77EFE0028D1D0236A2046984794F888
:101FC000243013F0040FC9D0A269002100910B4600
:101FD000059802442046FFF7DBFEBFE794F8243063
:101FE00023F0010384F82430B8E794F8243043F058
:101FF000010384F824300599A16103460246014497
:102000002046FFF755FEA9E794F8243013F0020F9D
:1020100004D023F0010384F824309FE72046FEF724
:102020000DFD9BE708B010BDE003001000B583B0C4
:1020300001A8FFF72DFE0199FFF74CFFFFF784FF82
:10204000F6E7FFFF10B584B014461A466FF001039F
:1020500000930190029103940023694602480068AE
:10206000FEF7F6FF04B010BDE003001008B5FEF760
:10207000ADFB014B186008BDEC0300100048704731
:10208000A0C9072030B589B0054603AC204600F052
:1020900015FB0195079B009394E80F0000F030F8C2
:1020A000154904F05FFC0446688900EB400004F029
:1020B00005FC0146204604F011FEA8B10022009262
:1020C000012302210D480068FEF78EFB10F0020F7D
:1020D00003D1C820FFF730FCD7E70821074B186869
:1020E000FEF7EDFB002005E00421044B1868FEF725
:1020F000E6FB012009B030BD0000C842EC0300102F
:1021000084B038B504AC84E80F00099DB5F900002F
:1021100004F0D4FB049904F01BFB04F0E9FD04B2C5
:10212000B5F9020004F0CAFB059904F011FB04F0B4
:10213000DFFD00B200FB00F004FB040004F0BEFB76
:1021400006F0DCFEBDE8384004B0704708B5101A50
:1021500000B25B1A1BB203FB03F300FB003004F078
:10216000ADFB06F0CBFE08BD2DE9F04788B0064672
:102170000F46914698469DF840A00024049405948B
:1021800006940794009401940294ADF80C40FFF774
:1021900075FF0546B0F90030B34233D0ADF80060AA
:1021A000ADF80270BAF1000F31D101238DF808307B
:1021B00008238DF80D3005238DF80C30C823ADF8B9
:1021C0000A3000238DF8093004AE6C4694E80F0005
:1021D00007C633808DF81E900F21114B1868FEF74B
:1021E00061FB07CC28606960AA602388AB8101216C
:1021F00004A802F0D3F8B8F1000F0CD1012008B008
:10220000BDE8F087B0F90230BB42C7D1F3E7022343
:102210008DF80830CCE76846FFF734FFEFE700BFE2
:10222000EC030010F0B591B005460E4617460022AB
:102230000F920992ADF82000ADF82210002B30D19A
:1022400001238DF8283008238DF82D3005238DF8D3
:102250002C30C823ADF82A3000238DF829300CAC7F
:1022600008AB0FCB07C4238004AC10AB13E90F00FD
:1022700084E80F00169B03930F21174B1868FEF795
:1022800011FB164B01930123009303AB4FF4A07293
:1022900013491448FFF756F93FB90124204611B0FD
:1022A000F0BD02238DF82830CDE708A8FFF7EAFE3D
:1022B00004460D4F33462A460C49384605F0D4F9FA
:1022C000012303221946384602F05EF9034B1868D1
:1022D000FFF76AF9E2E700BFEC030010E803001023
:1022E00040980100F1220100B0C907205098010078
:1022F0002DE9F041B2B00446FFF7F8F90E9008ADB1
:102300000FCC0FC523682B6004AC09AB0FCB07C4FF
:102310002380904CBDF91230BDF910208E49204623
:1023200005F0A2F9012303221946204602F02CF9F8
:1023300001238DF83230FFF7A1FE05464FF6FF73FB
:10234000038043804EE0BDF90E30BDF90C20BDF98D
:102350000A10BDF90800FFF7F9FE804904F0A0FC5F
:10236000002838D0C9E07E4C02212068FEF7A7FA89
:1023700001212068FEF796FA01248DF832400023EF
:102380008DF82C30214609A802F008F823A800F0A7
:1023900095F9239804F0ACFC06B228A800F08EF959
:1023A000299804F0A5FCBDF91030BDF91220694F41
:1023B0000192009303B232466A49384605F054F957
:1023C000234602221146384602F0DEF800F002FBF6
:1023D000032102F063FAFEF713F84FF47A710EA8A6
:1023E000FFF77AFA2DAC204600F068F904AB0193B0
:1023F000319B009394E80F00FFF782FE5A4904F0E6
:10240000B1FA0446BDF81A0004F058FA0146204615
:1024100004F064FC002800F08780FDF7E9FF00F07D
:10242000D9FA044600F0DAFA06460FA800F046F999
:10243000DDF83C8014A800F041F9159804F058FC30
:1024400007B2404604F054FCBDF912300193BDF9C7
:10245000103000933B4602B23146204600F000FAAD
:10246000089B03B1984700F0B5FA044600F0B6FAAD
:102470000146204600F0B6FA00287FF774AF384CCA
:1024800001212068FEF71BFA02212068FEF70AFAF4
:1024900000F0A0FA00F596400C3000680D90B5F9F8
:1024A000003084B2A34205D1B5F90220BDF8363020
:1024B0009A4290D019A800F001F9199804F03EFC56
:1024C000ADF808001EA800F0F9F81F9804F036FCDB
:1024D000ADF80A002B88ADF80C306B88ADF80E30E3
:1024E00000F07CFA014602A800F032FF28B9B5F9E5
:1024F0000030B3F1FF3F7FF426AFADF82440BDF9C3
:102500003630ADF82630012109A801F047FF09ABAC
:1025100007CB28606960AA601B88AB8100F05EFA77
:10252000012102F027FA56E70A4CBDF91230BDF935
:1025300010200E49204605F097F801230322194682
:10254000204602F021F8FFF741FBFFF72DF832B0EB
:10255000BDE8F081B0C90720789801000000A040D4
:10256000EC030010A09801000000C8425098010040
:1025700030B585B000F02EFA044600F02FFA01467F
:10258000012502954FF4AF6301934FF4C8630093A4
:102590004FF448734FF47A72204601F0C9F800F006
:1025A00019FA044600F01AFA0146029540F2A463B3
:1025B000019340F24C4300934FF4FA72204601F02D
:1025C000B7F805B030BD2DE9F04184B000F002FA53
:1025D000064600F003FA01460024029440F68638CD
:1025E000CDF80480B425009523462246304601F0FC
:1025F0009FF800F0EFF9064600F0F0F9014602946A
:10260000CDF8048040F29E77009740F6DC23224606
:10261000304601F08DF800F0DDF9064600F0DEF9F5
:1026200001460294AA23019300972346224630468E
:1026300001F07EF800F0CEF9064600F0CFF9014631
:102640000294CDF804800097234640F21C72304675
:1026500001F06EF800F0C2F940F60433009340F246
:102660001C732A46294601F0DDF8FFF781FF04B00C
:10267000BDE8F08108B5C0220021024804F08CFBBF
:1026800008BD00BFF8C90720F0B44378013B03EB55
:1026900043030546084F07EB031700F130043E469D
:1026A00028686968AA68EB680FC610353746A542E6
:1026B000F5D1F0BC704700BFF8C9072038B5044613
:1026C0000D4DB5F9040004F0F9F80C4904F0FEF9D9
:1026D0002060B5F9060004F0F1F8084904F0F6F9B5
:1026E0006060B5F9080004F0E9F8054904F0EEF976
:1026F000A060204638BD00BFF8C907200000204177
:102700000000C8422DE9F0438DB04FF4FA70FFF796
:1027100013F9DFF8A8C09CF840628DF80C60DFF870
:10272000A090CDF8109000278DF814708DF81570DA
:102730004FF001088DF816800C238DF817308DF8B6
:1027400018708DF8198041F288330793194B08935C
:1027500009970A974FF47A73ADF82C3040F2DC53A6
:10276000ADF82E3006EBC6039C00644403AD0FCDDC
:102770000FC40FCD0FC42B68236006EB08038CF841
:10278000403206EBC606B0004146604401F08CFDC5
:102790000197CDF800803B46C82209F11001064898
:1027A000FEF7D0FEFFF712FAFEF7FEFE0DB0BDE811
:1027B000F08300BFC8A9010089460100F0030010A2
:1027C000D098010080B483B000AF78607A68137845
:1027D000022161F3020313707A681378022161F316
:1027E000C503137000BF0C37BD4680BC704780B472
:1027F00083B000AF78607A681378022161F3020336
:10280000137000BF0C37BD4680BC704780B483B0E6
:1028100000AF78607A681378012161F302031370C6
:1028200000BF0C37BD4680BC7047FFFF08B5101ACB
:1028300000B25B1A1BB203FB03F300FB003004F091
:102840003DF806F05BFB054904F08CF84FF07F5132
:1028500004F088F804F04CFA00B208BD00002041F2
:102860002DE9704F0446894615469B46BDF92080E8
:10287000BDF9246044F61032002104F08DFA40F2D4
:102880004A320021484604F087FAB5F5FA6FC0F2E3
:1028900083804FF4FA634E4A82FB0312D917C1EBCF
:1028A0002211C9B240F6B7339B457BDD40F6B83301
:1028B000474880FB0320DA17C2EB2012D2B2B8F5EA
:1028C000FA6F76DB4FF4FA60414B83FB003CC31791
:1028D000C3EB2C13DBB240F6B730864270DD40F616
:1028E000B83C3B4880FB0C0E4FEAEC70C0EB2E105E
:1028F000C0B2C1EB011C02EB8C0C14F83CE04FF0B1
:10290000040969F3C50E04F83CE004EBCC0C4FF06D
:1029100029098CF80690C1EB011C02EB8C0C04EB2E
:10292000CC0C4FF03D0E8CF807E0C3EB031C00EB22
:102930008C0C14F83CA04FF0050E6EF3C50A04F899
:102940003CA004EBCC0C8CF80690C3EB031C00EB12
:102950008C0C04EBCC0C4FF03D0E8CF807E004F52A
:10296000964CACF8005044F6023524F805B044F615
:102970000835615544F60931625444F6043224F8AE
:10298000028044F60632A65244F60A32A35444F6B4
:102990000B33E054BDE8708F002D01DB2B467AE746
:1029A000002378E7BBF1000F01DB5B4680E70023E3
:1029B0007EE7B8F1000F01DB404685E7002083E7A2
:1029C000002E01DBB4468CE74FF0000C89E700BF16
:1029D0001F85EB510048704784090010004870477C
:1029E00038060010F0B58BB004AF786039607B68B2
:1029F0003B613B68FB603B6903F5964308331B78FA
:102A000019463B6903F5964309331B7818463A6922
:102A10000B461B015B1A9B00034412F83330C3F3CF
:102A2000C203DBB2022B25D17D4B01221A707C4BF5
:102A30001B78002B05D1012302220221794801F0E5
:102A4000A3FD3B6903F5964308331B7819463B69A0
:102A500003F5964309331B7818463A690B461B0168
:102A60005B1A9B00191812F831306FF3C50302F896
:102A7000313002E06A4B00221A703B6903F596433D
:102A80000A331B7819463B6903F596430B331B78D1
:102A900018463A690B461B015B1A9B00034412F867
:102AA0003330C3F3C203DBB2022B08D1012302226D
:102AB00002215D4801F068FD6FF00203ABE03B6965
:102AC00003F5964308331B781A463B6903F5964392
:102AD00009331B78194613461B019B1A9B000B44B4
:102AE000DB003A69D0183B6903F5964308331B783D
:102AF0001A463B6903F5964309331B78194613467A
:102B00001B019B1A9B000B44DB003A69D4183B69FC
:102B100003F5964308331D783B6903F59643093363
:102B20001B781AB23B6903F5964308331B7819B238
:102B30003B6903F5964309331B781BB200260396C5
:102B40000293019100922B4622460146386900F01B
:102B500022FB3B6903F59643083319783B6903F57B
:102B6000964309331B781A46386900F027F9002389
:102B7000FB751AE007F1080207F10A0319463869E4
:102B800000F089F80346B3F1FF3F02D14FF0FF3365
:102B900041E0B7F90A30DBB2B7F90820D2B21946E2
:102BA000386900F00BF90346FB7597F91730002BD5
:102BB000E0D097F91730012B2BD1F968386900F074
:102BC00035F83B6903F596440C34F968386900F030
:102BD00063FB03461A462280C3F30F4363803B69BD
:102BE00003F596430A331B7819463B6903F5964370
:102BF0000B331B7818463A690B461B015B1A9B0086
:102C00000344DB0013445B88C3F30B039BB21BB28A
:102C100001E04FF0FF3318461C37BD46F0BD00BF42
:102C200034060010F09801000C99010030B444F60D
:102C30000A33C15C44F60B33C25CC1EB011302EBF7
:102C4000830300EBC3039C79DB79C4EB041403EB2F
:102C5000840300EBC303002406E0C2EB021201EB85
:102C6000820200EBC2030134B4F5166F11DA1A7850
:102C7000032161F3C5021A709A79272A09D8D979F4
:102C80003B2906D8DD8800F5964308331B889D4212
:102C9000E3D130BC704780B48BB000AFF860B9604E
:102CA0007A6047F6FF73FB8447F6FF73BB8400230B
:102CB00087F82330002387F8223000233B84002349
:102CC000FB6161E00023BB6158E0FA6913461B0118
:102CD0009B1A9B00BA691344DB00FA6813447B61BA
:102CE0007B691B7803F00703DBB2012B43D1B7F9F3
:102CF00020309BB201339BB23B847B695B88C3F37A
:102D00000B039BB21A467B699B88C3F30B039BB2F0
:102D100013447B827A8AB7F926309A420EDA7B8A8C
:102D2000FB847B699B88C3F30B039BB2BB84FB6969
:102D300087F82330BB6987F822301CE07A8AB7F91C
:102D400026309A4217D17B699B88C3F30B039BB251
:102D50001A46B7F924309A420DDA7B8AFB847B69E4
:102D60009B88C3F30B039BB2BB84FB6987F82330BA
:102D7000BB6987F82230BB690133BB61BB693B2B60
:102D8000A3DDFB690133FB61FB69272B9ADD97F813
:102D900023301AB2BB681A8097F822301AB27B68C7
:102DA0001A80B7F92030002B01DD002301E04FF03D
:102DB000FF3318462C37BD4680BC704780B588B0BD
:102DC00004AF78600B46FB701346BB70FA78B97895
:102DD00013461B019B1A9B000B44DB007A681344CB
:102DE000FB600023BB60F868FFF701FDFB78002B58
:102DF0003AD0BB783A2B37D8FB785A1EBB78591C8F
:102E000013461B019B1A9B000B44DB007A6813449A
:102E1000BB60FB781BB2BA7812B2F97889B201397B
:102E200089B209B2B87880B2013080B200B20390A2
:102E30000291019200930E23BA68F968786800F055
:102E4000AAF9FB785A1EBB78581C796813461B01F7
:102E50009B1A9B00034411F83330C3F3C203DBB267
:102E6000052B01D1012392E1BB783A2B32D8FA78B5
:102E7000BB78591C13461B019B1A9B000B44DB00BB
:102E80007A681344BB60FB781BB2BA7812B2F97847
:102E900009B2B87880B2013080B200B203900291DA
:102EA000019200930A23BA68F968786800F073F910
:102EB000FA78BB78581C796813461B019B1A9B0053
:102EC000034411F83330C3F3C203DBB2052B01D145
:102ED00001235CE1FB78262B3AD8BB783A2B37D814
:102EE000FB785A1CBB78591C13461B019B1A9B008C
:102EF0000B44DB007A681344BB60FB781BB2BA78E2
:102F000012B2F97889B2013189B209B2B87880B2C7
:102F1000013080B200B203900291019200930E231F
:102F2000BA68F968786800F036F9FB785A1CBB7803
:102F3000581C796813461B019B1A9B00034411F827
:102F40003330C3F3C203DBB2052B01D101231EE1F1
:102F5000FB78262B32D8FB785A1CB97813461B0114
:102F60009B1A9B000B44DB007A681344BB60FB7820
:102F70001BB2BA7812B2F97889B2013189B209B2BA
:102F8000B87800B203900291019200930A23BA68C4
:102F9000F968786800F0FFF8FB785A1CB87879680F
:102FA00013461B019B1A9B00034411F83330C3F3F3
:102FB000C203DBB2052B01D10123E8E0FB78262B0D
:102FC0003AD8BB78002B37D0FB785A1CBB78591EF7
:102FD00013461B019B1A9B000B44DB007A681344C9
:102FE000BB60FB781BB2BA7812B2F97889B20131B2
:102FF00089B209B2B87880B2013880B200B20390C9
:103000000291019200930E23BA68F968786800F083
:10301000C2F8FB785A1CBB78581E796813461B010E
:103020009B1A9B00034411F83330C3F3C203DBB295
:10303000052B01D10123AAE0BB78002B32D0FA780E
:10304000BB78591E13461B019B1A9B000B44DB00E7
:103050007A681344BB60FB781BB2BA7812B2F97875
:1030600009B2B87880B2013880B200B20390029100
:10307000019200930A23BA68F968786800F08BF827
:10308000FA78BB78581E796813461B019B1A9B007F
:10309000034411F83330C3F3C203DBB2052B01D173
:1030A000012374E0FB78002B3AD0BB78002B37D09B
:1030B000FB785A1EBB78591E13461B019B1A9B00B6
:1030C0000B44DB007A681344BB60FB781BB2BA7810
:1030D00012B2F97889B2013989B209B2B87880B2EE
:1030E000013880B200B203900291019200930E2346
:1030F000BA68F968786800F04EF8FB785A1EBB7819
:10310000581E796813461B019B1A9B00034411F853
:103110003330C3F3C203DBB2052B01D1012336E008
:10312000FB78002B32D0FB785A1EB97813461B016E
:103130009B1A9B000B44DB007A681344BB60FB784E
:103140001BB2BA7812B2F97889B2013989B209B2E0
:10315000B87800B203900291019200930A23BA68F2
:10316000F968786800F017F8FB785A1EB878796823
:1031700013461B019B1A9B00034411F83330C3F321
:10318000C203DBB2052B01D1012300E00023184666
:103190001037BD4680BD80B586B000AFF860B9601D
:1031A0007A60FB707B681B7803F03803DBB2102B6E
:1031B00001D100236CE07B681B7803F00703DBB2CE
:1031C000022B01D1002363E07B681B7803F03803F6
:1031D000DBB2202B01D101235AE07B681B7803F07E
:1031E0003803DBB2082B02D1FB785B00FB70BB68B5
:1031F0005B88C3F30B039BB21A46FB789BB2134464
:10320000FB827B689B88C3F30B039BB2002B1AD114
:10321000FB6803F596430A331B781AB2FB6803F583
:1032200096430B331B781BB2B7F92C10B7F9280063
:10323000FFF7FCFA0346C3F30B0399B27A6893884D
:1032400061F30B0393807B685B88C3F30B039BB232
:103250001A46FB8A934206D37B681B7803F0070368
:10326000DBB2002B13D1FB8AC3F30B0399B27A684C
:10327000538861F30B0353803B8CDAB27B689A71FD
:10328000BB8CDAB27B68DA717868FFF7BFFA01238A
:1032900018461837BD4680BD70B584B005460E4649
:1032A00000F59643186801905868029044F60A3376
:1032B000EB5C44F60B32AC5CC3EB031304EB83030F
:1032C00005EBC30407E0A379E479C3EB031304EB34
:1032D000830305EBC304314601A800F039F838B385
:1032E000A379292B24D0E1793D2921D003EB830355
:1032F00003EB83035A00193292B2ADF8082001EBB8
:10330000810101EB81014B0019339BB2ADF80A300A
:103310001BB212B2BDF90610BDF9040000F033F87B
:103320000A4903F0BDFC0028CDD0029B039301E0C5
:10333000029B03930020BDF80C3063F30F00BDF82F
:103340000E3063F31F4004B070BD00BF0000C842E0
:1033500070B584B006460D46002495F848339C426B
:103360000CDA05EBC40203AB0093131D311D30468C
:1033700000F017F828B9013424B2EEE7002004B0B9
:1033800070BD0120FBE708B5801A00B2CB1A1BB252
:1033900003FB03F300FB003003F090FA05F0AEFDF1
:1033A00008BD2DE9704F8AB005468B46164600933E
:1033B00003881288934200F0FB80009909888B42B1
:1033C00000F00081BBF80000824200F006818142DB
:1033D00000F00F818342C0F01981DBF800000990F2
:1033E000286808908A42C0F01781009B18680790EF
:1033F00030680690BDF82440BDF82080444500F0B8
:103400001181BDF82200BDF82630C01A03F056FA2B
:103410008146A8EB040003F051FA0146484603F048
:1034200055FB0190BDF81C90BDF818A0D14500F0E7
:10343000FD80BDF81A00BDF81E30C01A03F03EFA38
:103440000290AAEB090003F039FA0146029803F052
:103450003DFB0290444500F0ED800299019803F095
:1034600015FC70B1BDF82620BDF81E309A4240F020
:103470004881444580F0FD804C4502D2C84500F2A9
:103480004281444500F0FD80BDF8260003F016FAA5
:103490000390204603F012FA019903F063FA014603
:1034A000039803F055F90390D14500F0EE80BDF884
:1034B0001E0003F003FA0490484603F0FFF9029956
:1034C00003F050FA0146049803F042F90490444591
:1034D0001FD0D1451DD00399049803F039F9059008
:1034E0000299019803F034F90146059803F0EEFAC9
:1034F00003F024FC80B2129B188003F0DFF90199DD
:1035000003F030FA039903F025F903F017FC129B3E
:103510005880444500F0BD80D14500F0CD80BDF815
:103520002630BDF82220934200F0D780BDF81E302F
:10353000BDF81A20934200F0D380129B1B889C4256
:1035400000F2E3809845C0F0E480994500F2E38002
:103550009A45C0F0E2806A88BBF802309A42C0F017
:10356000C280DBF8000009902868089072880099F2
:103570004B889A42C0F0BD8008680790306806907A
:10358000129B5B88BDF826209342C0F0C880BDF82E
:103590002220934200F2C580BDF81E209342C0F065
:1035A000C280BDF81A20934240F2BF800020ADE0F7
:1035B0004088718888427FF400AF2B68129A1360AC
:1035C0000220A3E06C880098408884427FF4FAAE21
:1035D0002B68129A1360022098E0BBF802C074882E
:1035E000A4457FF4F4AEDBF80030129A1360022099
:1035F0008CE0BBF802C0009C6488A4457FF4EAAE6E
:10360000DBF80030129A136002207FE028680990EE
:10361000DBF800000890E5E630680790009B18682A
:103620000690E7E64FF09F430193FBE64FF09F4380
:1036300002930FE7D1457FF410AF4C455FD1BDF841
:103640002630BDF82220934209D2BDF81E108B42CD
:10365000BFF403AF8A427FF600AF012056E0BDF809
:103660001E108B427FF6F9AE8A42BFF4F6AE0120FF
:103670004CE04C457FF605AFC845BFF402AF0120D2
:1036800044E04FF09F4303930EE74FF09F430493B2
:103690001DE7D1453FF443AF129B1C80204603F049
:1036A0000DF9029903F05EF9049903F053F803F061
:1036B00045FB129B588032E7129BA3F800904846C6
:1036C00003F0FCF8019903F04DF9039903F042F877
:1036D00003F034FB129B588021E7129A538025E7B0
:1036E000129A538029E728680990DBF800000890B7
:1036F0003CE730680790009B1868069040E7002080
:1037000004E0002002E0012000E000200AB0BDE853
:10371000708F0020FAE70020F8E70020F6E700208D
:10372000F4E70020F2E70020F0E70120EEE7FFFFDA
:103730002DE9704F82B08046084611461A46BDF901
:103740002830BDF92CC09DF830E0B1F5FA6F3ADBB6
:103750004FF4FA64324E86FB0456E517C5EB261586
:10376000EDB240F6B734A24233DD40F6B8342C4E09
:1037700086FB04964FEAE47ACAEB261A5FFA8AFAC5
:10378000B3F5FA6F2BDB4FF4FA64254E86FB0496F3
:103790004FEAE479C9EB26195FFA89F940F6B734A4
:1037A000A44522DD40F6B8341D4E86FB046BE617B7
:1037B000C6EB2B16F6B2BEF1000F29D0CDF800C033
:1037C00000F030F824E0002901DB0C46C2E70024B9
:1037D000C0E7002A01DB1446C9E70024C7E7002B35
:1037E00001DB1C46D1E70024CFE7BCF1000F01DB71
:1037F0006446D9E70024D7E7C5EB051004EB800049
:1038000008EBC000FEF7DEFF0134A642F4DA013512
:10381000A94501DB5446F8E702B0BDE8708F00BF50
:103820001F85EB512DE9704183B090F84853642D0A
:1038300043D804461FFA81FCADF800C092B2ADF83F
:1038400002209BB2ADF80430ADF806206E1CF6B233
:1038500000EBC508EE46BEE8030044F83500C8F8A2
:103860000410ADF80030BDF820E0ADF806E0751C9E
:10387000EDB204EBC6086B4603CB44F83600C8F83B
:103880000410ADF802E0ADF804C06B1CDBB204EB31
:10389000C50E6E4603CE44F83500CEF80410ADF8E0
:1038A00000C0ADF806205A1C84F8482304EBC30579
:1038B0006A4603CA44F83300696003B0BDE870810A
:1038C000400100F1005000F51C20836901228A406C
:1038D000134383617047400100F1005000F51C2044
:1038E000C36901228A401343C3617047F8B501F0F0
:1038F0000F077F004300DBB203EB1113DBB2124E64
:1039000056F823E0032505FA07FC2EEA0C0546F8D5
:103910002350103356F8235025EA0C054FF0080CBD
:103920000CFA07F73D4346F82350430103F10053D7
:1039300003F51C231A68012505FA01F414431C60E1
:10394000FFF7C9FFF8BD00BF00C0024030B583B02B
:10395000802301220F49104801F0ECF900F024F80F
:1039600000F072F800224D210520FDF7CDFA0B4D35
:1039700028600B4C2146FDF72BFC00230193032309
:1039800000932B68822204F114010648FDF7DAFD4A
:1039900003B030BDB8CC072098550010E854001093
:1039A00070990100493C010070B5214B1A6822F062
:1039B000404242F080421A601A6C22F040421A647F
:1039C0005A6822F0030242F001025A605A6C22F057
:1039D000030242F008025A6403210220FFF786FF27
:1039E000144D4026C5F88060134C204601F02CFB96
:1039F0001249204601F047FB0323E360204601F013
:103A00003FFB4FF4807301220D490E4801F092F9FB
:103A10008723A360636843F005036360636823F052
:103A200002036360C5F88061302385F8063370BDFA
:103A300000C0024000E100E00000014080841E0060
:103A4000B8CA07207055001070B5214B1A6822F4CF
:103A5000401242F480121A601A6C22F4401242F4AE
:103A600000021A641A6822F4400242F480021A60CA
:103A70001A6C22F4400242F000721A64154D80263E
:103A8000C5F88060144C204601F0DEFA4FF4E131B5
:103A9000204601F0F8FA0323E360204601F0F0FA33
:103AA0004FF4807301220D490D4801F043F987233B
:103AB000A360636843F005036360636823F0020357
:103AC0006360C5F88061302385F8073370BD00BF9F
:103AD00000C0024000E100E000800940B8CB0720B0
:103AE0008455001010B582B0002301931E4801F0E8
:103AF000DBF90A2802DC1D4B00221A701A4C1C4A02
:103B000021461C4801F0FCFA204601F0CDF90A28B4
:103B100002DD164B1B78A3B1134801F0C5F97F28CD
:103B20001ADC019B3BB1144B4FF080521A60BFF37B
:103B30004F8FBFF36F8F114B4022C3F8802102B02B
:103B400010BD01AB04220E4909680E48FEF77AFA4F
:103B5000064B01221A70E4E701AB04220849096808
:103B60000848FEF76FFADCE770550010EC540010BF
:103B7000985500100000014004ED00E000E100E075
:103B8000AC5500102109010010B582B0002301934B
:103B90001E4801F089F90A2802DC1D4B00221A7028
:103BA0001A4C1C4A21461C4801F0AAFA204601F092
:103BB0007BF90A2802DD164B1B78A3B1134801F0EC
:103BC00073F97F281ADC019B3BB1144B4FF08052F4
:103BD0001A60BFF34F8FBFF36F8F114B8022C3F872
:103BE000802102B010BD01AB10220E4909680E48B9
:103BF000FEF728FA064B01221A70E4E701AB102207
:103C0000084909680848FEF71DFADCE784550010EA
:103C1000ED540010985500100080094004ED00E0BC
:103C200000E100E0AC5500102109010008B5044B8B
:103C30001B681B68DB68034A1068984708BD00BF13
:103C4000140000109454001038B504463220FDF7DB
:103C500073FE18E01B4D2A781B491C4800F03CF805
:103C60006B78FC2B02D06B7A232B0CD10A20FDF74A
:103C700063FE08E0134B1A781349154800F078F8F2
:103C80000220FDF759FE4FF0FF320E492046FDF7A6
:103C900019FA0128F7D10B4D294611F8012B0A48D2
:103CA00001F068F895F84C30012BD3D0032BE1D00C
:103CB000054D284601F0F8F802460649284601F06D
:103CC000B5F8E0E798540010985500100000014046
:103CD00000800940F054001080B588B000AFF86053
:103CE000B9607A60FCF784FB03210220FFF7E8FD4E
:103CF00021E0FB7C1946F86800F07BF80023FB61AB
:103D000003E000BFFB690133FB61FB690F2BF8DDAA
:103D100009E00023BB6103E000BFBB690133BB6165
:103D2000BB690F2BF8DDF86800F065F8034603F077
:103D30002603002BEDD007F113031946B86801F0F4
:103D40005DF80346002BD4D100237B6103E000BF64
:103D50007B6901337B617B69632BF8DD03210220E2
:103D6000FFF7B9FDFCF74CFB00BF2037BD4680BD17
:103D700080B588B000AFF860B9607A6021E0FB7C64
:103D80001946F86800F035F80023FB6103E000BF36
:103D9000FB690133FB61FB690F2BF8DD09E00023B0
:103DA000BB6103E000BFBB690133BB61BB690F2B83
:103DB000F8DDF86800F01FF8034603F02603002B37
:103DC000EDD007F113031946B86801F017F8034660
:103DD000002BD4D100237B6103E000BF7B6901335A
:103DE0007B617B69632BF8DD00BF00BF2037BD46D8
:103DF00080BD0160704740697047FFFF08B5FCF760
:103E0000E5FC014B186008BDAC55001000B583B04F
:103E100000F010F80023019302220092F0220349DF
:103E20000348FDF78FFB03B05DF804FB9899010090
:103E30002D42010008B50321024B1868FCF73FFD35
:103E400008BD00BFAC55001010B582B00C46009004
:103E500001231A4605480068FCF7C6FC34EA000353
:103E600002D0002002B010BD0120FBE7AC550010CD
:103E700008B50146024B1868FCF721FD08BD00BFDC
:103E8000AC55001000B583B0009001231A46022102
:103E900006480068FCF7A8FC10F0020F03D10020D0
:103EA00003B05DF804FB0120FAE700BFAC55001039
:103EB00008B50221024B1868FCF701FD08BD00BFE0
:103EC000AC55001030B41D4A7E2353708378D91D41
:103ED0000B3313700B0A9370D1700123137153715C
:103EE000B0F84430190A9171D3710023137201782C
:103EF000517290F90110917284789C4209D903F1B2
:103F00000A04C218D1780D4A224451700133DBB241
:103F1000F2E70022032306E00849194449780A44DD
:103F200012B20133DBB204F109011D469942F3DA02
:103F3000D243024805446A7030BC704738CD072030
:103F400038B50D461446FFF7BDFF0A4981F84C50BD
:103F50000023642208480068FCF7EEFF28B90546F4
:103F60002046FFF785FF284638BD2046FFF780FF33
:103F70000125F8E738CD0720E854001090B587B048
:103F800000AF78607B68002B01D1002331E14FF452
:103F9000FA70FFF777FF00237B730023FB81002378
:103FA000FB8200237B7500233B7300233B7507F1E5
:103FB0000D031946786800F021FF20E007F10D039A
:103FC0001946786800F01AFF0346002B0ED03B7D9F
:103FD00001333B753B7D052B11D9FFF769FF874BFB
:103FE0001B680133854A1360002302E1FFF760FF7D
:103FF000824B1B680133814A13600023F9E07B7B0D
:104000007E2BDBD103227E49786800F00FFF7C4BCA
:104010001B78FB81B7F90E301B02FB81784B5B7874
:104020009AB2FB8913449BB2FB81B7F90E304B2B3C
:1040300008DDFFF73DFF714B1B6801336F4A1360CA
:104040000023D6E06E4B9B789AB2FB8A13449BB256
:10405000FB826B4B9B78892B08D1032268497868D7
:1040600000F0E4FEFFF724FF0023C2E000233B75CD
:1040700011E03B7D01333B753B7D052B08D9FFF7F4
:1040800017FF5E4B1B6801335C4A13600023B0E0EE
:104090000120FDF751FC786800F006FF0246B7F9F1
:1040A0000E30013B9A42E4DB06225549786800F065
:1040B000BDFE00233B610BE0514A3B6913441B7872
:1040C0009AB2FB8A13449BB2FB823B6901333B618A
:1040D0003B69032BF0DD4A4B1A794A4B1A70494B66
:1040E0001B789AB2FB8A13449BB2FB82444B5B79E8
:1040F0005AB2444B5A70434B93F90130DBB29AB237
:10410000FB8A13449BB2FB82FB89DBB2073BDAB22A
:104110003C4B9A703B4B9B78402B62D800233B75FD
:1041200011E03B7D01333B753B7D052B08D9FFF743
:10413000BFFE324B1B680133304A1360002358E046
:104140000120FDF7F9FB2F4B9B781C46786800F0A7
:10415000ABFE03469C42E4DA2A4B9B781A462A4976
:10416000786800F063FE00237B750BE07B7D254AB9
:104170001344DB789AB2FB8A13449BB2FB827B7DAB
:1041800001337B751F4B9B787A7D9A42EED307F102
:104190000C031946786800F031FEFB8ADBB2FB8223
:1041A000FB8ADBB2DB43DBB2FB82B7F916303A7B2A
:1041B00093420AD1154B1B680133144A136011480E
:1041C00000F026F8FFF774FE12E0FFF771FE0B4BCC
:1041D0001B680133094A1360012000F0B3F9002382
:1041E00007E0FFF765FE054B1B680133034A1360C8
:1041F000002318461C37BD4690BD00BFB0550010C7
:10420000D0CD072088CD07208BCD0720B4550010D6
:1042100008B590F901300133DBB2012B01D9002040
:1042200008BD00F06FFC0120FAE7FFFF10B582B077
:104230003220FDF781FB134B40221A6080221A6066
:10424000002404E0104C204600F02EFEB0B94FF0E0
:10425000FF330093002301221C210C480068FCF767
:10426000C3FA10F0040FEDD110F0080F04D110F0D4
:10427000100FE8D0064CE6E70024E4E72046FFF7FD
:104280007DFEE0E700E100E070550010AC55001045
:104290008455001008B52021024B1868FCF70FFB6D
:1042A00008BD00BFAC55001070B58EB004460D4679
:1042B00003788DF80430406803F0F6F928283FD9D8
:1042C00028208DF805006668304603F0EDF92828AF
:1042D0003BD9282231460DF1060002F04FFD9DF832
:1042E00005300EAA1344002203F8322CE37A8DF82D
:1042F0003130A37A8DF83030237B8DF83230637BF8
:104300008DF83330237A8DF82E30637A8DF82F3084
:1043100062691B4981FB0203D217C2EBA302ADF80D
:104320003620236981FB0321DB17C3EBA103ADF822
:10433000343020213220FFF787FD58B90EB070BD10
:10434000606803F0B1F9C0B2BBE7606803F0ACF994
:104350000246BFE70B4C33232370FE2363703423E4
:10436000A370402201A9E01C02F008FD4FF6FF7384
:10437000A4F84430202229462046FFF7E1FDDDE77E
:10438000676666661CCE072008B5462200210248F3
:1043900002F002FD08BD00BF64CE0720F0B58FB06B
:1043A00004460D4601213220FFF74EFD08B90FB03B
:1043B000F0BD234E00233370012777701023B370B4
:1043C00040222146F01C02F0D9FC4FF6FF73A6F8FC
:1043D00044303A4629463046FFF7B2FD237ABB42C5
:1043E00026D0022B28D0174B1E6804A8FEF766F9CA
:1043F000049802F07DFC05B209A8FEF75FF90A985F
:1044000002F076FC00B2B4F90030B4F902200E4C90
:104410000292019300902B4632460C49204603F04D
:1044200023F901231A460021204600F0ADF8BEE72B
:10443000044B074A1A60D6E7024B064A1A60D2E7D5
:1044400064CE0720B855001044560010B4990100FE
:10445000AC990100B099010038B505460C46012120
:104460003220FFF7F1FC00B938BD07482323037061
:104470004570002383704FF6FF73A0F8443001228B
:104480002146FFF75DFDEFE764CE072038B505460E
:104490000C4601213220FFF7D7FC00B938BD074890
:1044A000FC2303704570002383704FF6FF73A0F860
:1044B000443001222146FFF743FDEFE764CE072099
:1044C00030B583B0044601213220FFF7BDFC08B9A6
:1044D00003B030BD1748FD230370FF234370002352
:1044E00083704FF6FF73A0F8443001222146FFF796
:1044F00027FD114B1B781BB1204600F023F8E7E79E
:104500000E490F4D01F15803019301F1640300932B
:1045100001F1340301F138023C31284603F0A4F8DC
:10452000012304220021284600F02EF8024B01222C
:104530001A70E1E764CE0720FA550010AC9901002B
:10454000FC55001010B50C4C23680C4A12680C493D
:104550000C4803F089F82368042B06DC01230422AD
:104560000021084800F010F810BD012304220221A8
:10457000044800F009F8F7E7B0550010B4550010F2
:104580001C9A0100FC550010F8B504460E4615466D
:104590001F4601213220FFF757FC00B9F8BD384B08
:1045A00038221A70FE225A70364B9E705D7020467B
:1045B00003F07AF880B23A2851D8204603F074F814
:1045C0003B281ED93B202F4B1870204603F06CF877
:1045D0003B281BD93B222B4D2146E81C02F0CEFB89
:1045E000274C3E23A37040222946E01C02F0C6FB64
:1045F0000A23A4F84430012239462046FFF7A0FCE4
:10460000CCE7204603F050F8C0B2DCE7204603F0C8
:104610004BF80246DFE7204603F046F8C0B226E03A
:10462000204603F041F80246164E2146F01C02F0E7
:10463000A5FB134D3E23AB7040223146E81C02F02F
:104640009DFB0023A5F84430012239462846FFF798
:1046500077FC33781C44204603F026F880B200280B
:104660009CD0204603F020F83B28D4D93B20054BB2
:104670001870204603F018F83B28D1D93B22D3E725
:1046800064CE0720BC55001030B583B0FDF72EF87E
:1046900001904FF47A7101A8FDF71EF90120FFF790
:1046A0000FFF0A2101A8FDF717F9002409E0601C9B
:1046B0000121C0B2FFF7EAFE322101A8FDF70CF993
:1046C0000134032CF3DD4FF47A7101A8FDF704F9EE
:1046D00022E0601C0121C0B2FFF7BEFE322101A81A
:1046E000FDF7FAF80134032CF3DD0135B5F57A7FD7
:1046F00001D00024F7E70120FFF7E2FE002409E0E3
:10470000601C0121C0B2FFF7C1FE322101A8FDF7F4
:10471000E3F80134032CF3DD0025EAE738B505465C
:104720000C4601213220FFF78FFB00B938BD084845
:1047300022230370FF234370012282704FF6FF7320
:10474000A0F84430C5702146FFF7FAFBEEE700BF42
:1047500064CE072070B582B00C468DF804000121AC
:104760003220FFF771FB08B902B070BD0A4D2A2351
:104770002B7001266E70AE70402201A9E81C02F079
:10478000FDFA4FF6FF73A5F844303246214628461D
:10479000FFF7D6FBE8E700BF64CE072070B582B014
:1047A0000C468DF804008DF8050001213220FFF73A
:1047B0004BFB08B902B070BD0A4D26232B700126B1
:1047C0006E700223AB70402201A9E81C02F0D6FAF9
:1047D0004FF6FF73A5F84430324621462846FFF7CE
:1047E000AFFBE7E764CE07202DE9F0438BB0064628
:1047F0000C4615469846059006912349104602F04E
:10480000B1F8224902F062F9079001213220FFF746
:104810001BFB10B90BB0BDE8F0831D4F08233B70A4
:104820004FF0010987F801901423BB7040220DEB73
:104830000301F81C02F0A2FA4FF6FF73A7F8443008
:104840004A4641463846FFF77BFB304601F024FFDD
:1048500006460F46DFF84080284601F01DFFCDE9EF
:104860000201204601F018FFCDE9000132463B4627
:104870000849404602F0F8FE4B464A464946404643
:10488000FFF782FEC6E700BFDB0F4940000034435C
:1048900064CE07203C9A01008C560010F0B591B010
:1048A00005460E4600244EE0C4EB041203EB8202E0
:1048B00015F83220C2F3C202591CC4EB041001EBFC
:1048C000800115F83100C0F3C20003EBD37142EA56
:1048D000001210A800EB610101F83E2C02333B2BC3
:1048E000E2DD00221CE0631CC3EB031102EB81013B
:1048F00015F83110C1F3C201501CC3EB031300EBD8
:10490000830315F83300C0F3C20002EBD2735B10CF
:104910001E3341EA001110A8034403F83E1C023282
:104920003B2AE0DD124F3E23BB7040226946F81C53
:1049300002F024FA012231463846FFF701FB142029
:10494000FCF7FAFF0234272C10DC01213220FFF79C
:104950007BFA58B1064B39221A70FE225A700A228D
:10496000A3F84420ADF800400023B8E711B0F0BD33
:1049700064CE0720F0B593B005460E4601238DF8AE
:104980000430002423461AE0314F3A233B70FE22C4
:104990007A700A22A7F84420BB70402201A9F81CB3
:1049A00002F0ECF9012231463846FFF7C9FA14202B
:1049B000FCF7C2FF00228DF804200134134695F85D
:1049C0004823A24224DD35F83420ADF8402005EB21
:1049D000C4025188ADF842109188ADF84410D288D5
:1049E000ADF846205A1CD2B212A901EBC30310AF96
:1049F00003CF43F8420C43F83E1C072ADDD18DF863
:104A0000052001213220FFF71FFA0028BCD100E069
:104A10000BB913B0F0BD8DF8053001213220FFF73E
:104A200013FA0028F5D00A4C3A232370FE22627054
:104A30000A22A4F84420A370402201A9E01C02F03D
:104A40009DF9012231462046FFF77AFAE1E700BFDF
:104A500064CE072070B584B00C4616461D46264924
:104A600001F080FF02F06AF9ADF8040022493046F7
:104A700001F078FF02F062F9ADF806001E49284601
:104A800001F070FF02F05AF9ADF808001A4920460B
:104A900001F068FF02F052F9ADF80A0016490898D3
:104AA00001F060FF02F04AF9ADF80C0012490998D4
:104AB00001F058FF02F042F9ADF80E00012132205A
:104AC000FFF7C2F908B904B070BD0C4C2F23237056
:104AD000012565700C23A370402201A9E01C02F09F
:104AE0004DF94FF6FF73A4F844302A469DF828107C
:104AF0002046FFF725FAE6E70000C84264CE07200B
:104B00007047FFFF10B504461048FBF76FFC104AD2
:104B10001368013313602378FC2B0FD0FD2B10D0CA
:104B2000242B03D00B48FBF761FC10BD204600F09E
:104B300015F8094A136801331360F3E70120FFF702
:104B4000BFFC054A136801331360EBE76C9A010060
:104B5000D4560010849A0100D856001000B58DB0CC
:104B60003022C11C684602F009F96846FDF78CFD49
:104B70000DB05DF804FBFFFF08B500F0C7F8014B6E
:104B8000186008BDEC560010400100F1804303F5A9
:104B90007C23D3F8802018460A43C3F88020AA2338
:104BA000C0F88C305523C0F88C307047400100F1BC
:104BB000804303F57C23D3F88020184622EA0102C3
:104BC000C3F88020AA23C0F88C305523C0F88C305D
:104BD000704798B941EA02410122400100F1804347
:104BE00003F57C23C3F884101846C3F88020AA2359
:104BF000C0F88C305523C0F88C30704741EA421120
:104C0000EAE7FFFF0123044A8340D2F8C4100B43B4
:104C1000C2F8C430704700BF00C00F40024BD3F849
:104C20008800C0F34060704700C00F40014BC3F8DC
:104C30000401704700C00F40024BD3F80401C0B21A
:104C40000130704700C00F4002460C4913096A3317
:104C500051F82330400000F01F00C34013F0030060
:104C600009D0012808D0022806D00D3A022A94BFA4
:104C70000620082070470420704700BF00C00F4086
:104C8000094BD3F80C3103F00303012B06D0022BA0
:104C900007D0002B054818BF00207047044B186848
:104CA0007047044BFBE700BF00C00F4000093D0008
:104CB00018000010389C010008B50B4BD3F8880091
:104CC00010F080700FD0D3F88410D3F88420FFF751
:104CD000D7FFC1F30E0101FB0000C2F30742400001
:104CE0000132B0FBF2F008BD00C00F4008B5FFF77D
:104CF00095FF28B1012807D1BDE80840FFF7DCBFC8
:104D0000BDE80840FFF7BCBF002008BD08B5FFF7AD
:104D1000EDFF0246FFF790FFB2FBF0F008BD38B59B
:104D20000546FFF7F3FF04462846FFF78DFFB4FB67
:104D3000F0F038BDC0E9001300238260C0E90333FE
:104D40000120704710B50446C26800696368121AF2
:104D50009A420DDAE268013B13402068A26802FB28
:104D6000030002F00BF80120E3680133E36010BD9B
:104D70000020FCE72DE9F041C368884601694468DA
:104D80005B1AA342064637DAC3680569C06804F1B6
:104D9000FF3C5B1B0CEA000CE31A03EB0C01A14285
:104DA00034BF1C46A4EB0C049442A3EB0403A8BF3D
:104DB0001446151B9D42A8BF1D463768B068414682
:104DC00004FB00F20CFB007001F0D8FFF3683068C0
:104DD000E218D6E90137013B134007FB0300F260FC
:104DE00004FB078105FB07F201F0C8FFF3686019B7
:104DF0002B44F360BDE8F0810020FBE710B50446CA
:104E0000E268236908469A420ED0D4E90013226969
:104E1000013B1340A26802FB031101F0AFFF012028
:104E200023690133236110BD0020FCE72DE9F04127
:104E30008846C16803690446994233D04568C3680F
:104E400021690669681E9B1B0140C818A84234BF2F
:104E50001D466D1A9542A3EB0503A8BF1546561BC8
:104E60009E42A8BF1E462768A368404605FB03F282
:104E700001FB037101F082FF2369E918D4E90130D5
:104E8000013B0B402161216806FB00F200FB03118E
:104E900005FB008001F072FF2369A81933442361E8
:104EA000BDE8F0810020FBE7C2680069101A704776
:104EB00038B5174CD4F88820910103D50221002081
:104EC000FFF774FED4F88830DA0103D50121002001
:104ED000FFF76CFE00250E4C0020FFF7A7FE2A46C8
:104EE0002C212846C4F80C51FFF773FE28460121F7
:104EF000FFF74AFE0220FFF799FED4F888305B01E5
:104F0000FBD5BDE8384002210020FFF73DBE00BFC1
:104F100000C00F40314B2DE9F04199420BD10022E6
:104F20002F4B00E001321101CC58844211D0002CEB
:104F3000F8D1BDE8F0812B4B994210D100222A4BC9
:104F400000E001321101CC58844202D0002CF8D18B
:104F5000EFE70028EDD00B44DF68D3E90156234C7E
:104F6000D4F88820930103D502210020FFF71EFE0C
:104F7000D4F88830D80103D501210020FFF716FEB0
:104F80001A4CD4F8A03159065EBFD4F8A03143F0D2
:104F90002003C4F8A031D4F8A0315A06FBD54FF055
:104FA00001080020FFF742FE324629460020C4F8DF
:104FB0000C81FFF70EFE41460020FFF7E5FD384665
:104FC000FFF734FE094AD2F888305B01FBD5BDE813
:104FD000F04102210020FFF7D7BD00BF001BB70042
:104FE000989A01000024F400889B010000C00F4043
:104FF000FFF75EBF094B98420BD003F50823984298
:1050000009D003F5804398420CBF17200120FFF719
:10501000F9BD0220FBE71620F9E700BF0080004041
:10502000084B98420AD003F50823984208D003F5AC
:10503000804398420CBF192003207047042070471A
:10504000182070470000014010B50446FFF7E8FF44
:10505000FFF7D8FD0723A3600023084A2363944287
:105060006360E3602362E3646365236504BF2361D7
:10507000A3690323E3601023A36210BD0000014075
:1050800080230363704738B505460C46FFF7C8FF19
:10509000FFF745FE2101B0FBF1F1EB68CAB243F026
:1050A0008003EB60C1F307232A606B60EB68B0FB01
:1050B000F1F023F08003EB6038BD37B504460D46B0
:1050C0006369DB0701D403B030BD236828460DF1C6
:1050D00007018DF80730FFF735FEF1E737B50446D5
:1050E0000D4663699B0605D528460DF10701FFF7BC
:1050F00085FE08B903B030BD9DF807302360F0E7A6
:10510000436870B50E469907044615460AD5114600
:10511000FFF7E4FFEA682B699A4202BF636823F055
:105120000203636031462046FFF7C7FFA368DA0534
:105130000CD5236A43F480732362636823F480737D
:105140006360084B1A780AB901221A70A3689B059C
:1051500007D5236A43F400732362636823F4007362
:10516000636070BDDC560010014B1860704700BFD3
:105170001800001008B50F20FFF744FDBDE80840F7
:105180000F20FFF73FBD034600F00F0040001B0655
:1051900048BF01307047436810229A6019611A684D
:1051A000D206FCD5704738B504461546FFF7F3FF25
:1051B00020462946BDE83840FFF7EDBF38B5044624
:1051C00008461546FFF7DFFF010441F4A0612046C1
:1051D000FFF7E1FF20462946BDE83840FFF7DBBF77
:1051E000436830229A6019611A689206FCD55869A2
:1051F00070474FF40C707047044A0029D0F8C8017A
:10520000034908BF4FF48072FFF7CDBF00010100D2
:105210000005FE00D0F8C83100225B689A64D0F81F
:10522000A021D179D96401219964D279DA641A680C
:10523000D205FCD54FF0FF329A635A639A600C2274
:105240005A6070470346B3F89E31D0F8C8019B07F7
:1052500003D50249024AFFF7A6BF70470005FE00CA
:10526000000101007047FFFF70B50904D0F8C86164
:10527000084D41F4000444F4807430462946224627
:10528000FFF791FF304629462246BDE87040FFF700
:105290008ABF00BF0005D00093682DE9F041B3F547
:1052A0000C7F8046144633D3566806F110026260C4
:1052B000A3F11002A2606568AA0702D001356560FB
:1052C000F9E705F50772A3F50B736260A3606368E5
:1052D00013F0030702D001336360F8E72846224643
:1052E00000F0E2FF39461022304601F055FD2368F8
:1052F000B5602846C5F8C8617360FFF78BFF284684
:105300003946FFF7B1FFC8F800503846BDE8F081D4
:105310000148BDE8F08100BF0A00040010B50A4A48
:10532000D0F8C841002908BF4FF4807220460749D1
:10533000FFF739FF636803225A641A68D205FCD567
:105340004FF480729A6010BD000101000005D80082
:1053500038B5054688780C46FFF715FF012102464F
:105360009140D5F8C8315B68586C014359649A6420
:10537000A288DA641A68D205FCD54FF480729A606C
:1053800038BD704710B504460846FFF7FCFE01041F
:1053900041F48001D4F8C80141F4A0614FF4807257
:1053A000BDE81040FFF7FFBE10B504460846FFF702
:1053B000EAFE010441F48001D4F8C80141F4A0617F
:1053C000024ABDE81040FFF7EEBE00BF000120001A
:1053D00010B504460846FFF7D6FE010441F48001EB
:1053E000D4F8C80141F4A0614FF48072BDE81040C8
:1053F000FFF7D9BE10B504460846FFF7C4FE010406
:1054000041F48001D4F8C80141F4A061024ABDE82A
:105410001040FFF7C8BE00BF0001010010B50446F0
:105420000846FFF7B0FE010441F48001D4F8C8013A
:1054300041F4A0614FF48072BDE81040FFF7B3BEA5
:10544000043A38B51D46D0F8C8410D2A48D8DFE8DF
:1054500002F00E0E474747474747474744074A0A67
:105460000122002041E04FF4007200203DE0084698
:10547000FFF789FE012303FA00F0236815B11843F2
:10548000206002E023EA000020602268236821688F
:10549000DB071B4B02F0020201EA030348BF42F0A4
:1054A00004020BB142F020022168164B0B400BB1F5
:1054B00042F0400223681449194009B142F0080241
:1054C00023681249194009B142F010021204204623
:1054D0000F4942F48072FFF766FE0022104604E096
:1054E00000220C4801E00822002061684B6815B1D9
:1054F0001A434A6038BD23EA02024A6038BD00BF41
:10550000200882A0100441500882200804411004A1
:105510000005F30001000400D0F8C80101F00F03FA
:105520002DE9F0419B00456843F00103AB622C6A12
:105530002605FCD514F480681DD0C4F309085FEA81
:10554000980C25D016460023AF690133634546F811
:10555000047BF9D102EB830204F003045CB1AE6971
:105560001444002326FA03F502F8015BA24203F17A
:105570000803F7D1456841F248230B410022DB07BD
:10558000AA6202D4034AFFF719FE4046BDE8F08143
:105590004446E3E70005F200704700207047002012
:1055A0007047FFF7B9BFFFFFD0F8C8012DE9F04100
:1055B00001F00F044668A400DF1C44F00204BF0899
:1055C000B4629846736206D0002452F8045B01343A
:1055D000BC42F561F9D10023B362034AFFF7EEFD47
:1055E0004046BDE8F08100BF0005FA002DE9F04714
:1055F000D0F8C8918246D9F80420136823F004013A
:105600009160516801EA030818F0080461D118F0AC
:10561000040F2BD0166B3EB3274605460121A1404F
:10562000314219D00F43916313689806FCD5E30704
:1056300050693DD4002C00F09080AB6D63B1D9F877
:105640000020114201D0C1066DD402225046D5F887
:10565000D8109847D9F804201F2C05D0B74204F180
:10566000010405F10405D9D10423936018F4007FE7
:105670000FD0DAF83C3063B148464049FFF78BFD64
:105680003F494846FFF7ACFDDAF83C30014650464A
:10569000984718F0010F09D0DAF834300BB15046B2
:1056A0009847D9F80C300133C9F80C30BDE8F087C1
:1056B000AB6D002BD0D0D9F80020114201D0C2062A
:1056C00029D403225046D5F8D8109847D9F8042099
:1056D000C2E748462B49FFF75EFD48462A49FFF7D7
:1056E0007FFDC606044626D4A50706D5DAF838306D
:1056F0001BB1504604F00101984704F00903092B3F
:10570000D4D1640724D5DAF82C30002BCED0504603
:105710009847BDE8F08705225046D5F8D81098473D
:10572000D9F8042098E704225046D5F8D8109847B5
:10573000D9F8042090E75046FFF76CFD504600F082
:105740009DFCDAF82830002BCED050469847CBE7A6
:10575000DAF83030002BDAD1A8E743077FF56DAFD8
:10576000DAF85830002B3FF479AF01225046DAF8CE
:10577000D8109847D9F8042070E700BF0005FB0057
:105780000002FB000005FE000002FE0070B54D782F
:105790001646042D1A4618D003D84DB1022D0DD04F
:1057A00027E0222D13D0232D13D0202D21D115E059
:1057B0000BB3036A1BB33168984770BDDBB1846AD1
:1057C000DCB149883268A04770BD036B02E0436BCF
:1057D00000E0836B9BB14988984770BD2BB1C36BC8
:1057E0006BB100F11001984770BD00F110043460F6
:1057F00001E0044870BD104670BD204670BD1846DB
:1058000070BD00BF02000400012A38B504460846F6
:1058100002D0022A2AD04AE094F8143203F07F0220
:10582000212A44D194F81822097E914202D0417E67
:1058300091423CD104F5EA72DB09C4F8CC2104F5AD
:10584000057104F5E67207D1456CA847054678BB9B
:10585000B4F81A3263BB26E0056C04F5E873A84778
:10586000054628BB204600F098FB21E094F814324E
:1058700003F07F03212B1AD194F818320A7E9A4242
:1058800002D04A7E9A4212D1D4F8CC21B4F81A320E
:10589000456CD21AC4F8CC2104F5057104F5E67202
:1058A000A847054620B9204600F0A0FB00E0014DC6
:1058B000284638BD0200040038B54D780446032D53
:1058C00009D0212D14D0012D19D1456A1DB11146E1
:1058D0001A46A84738BDE56A1DB120464988A84741
:1058E00038BD10682946402201F056FA284638BDD6
:1058F00000F11004146007221A80002038BD01480E
:1059000038BD00BF0200040008B50346A12018718D
:1059100001294FF0000059719871D87118725872AE
:105920009872D8720BD007D3202910D102211A7394
:10593000120A99725A730AE00AB101229A71197F08
:105940001A1D18680823FFF72FFE002008BD014824
:1059500008BD00BF030001004C2070472DE9F04155
:105960000C68074614F0030F0D4690468E684B688E
:1059700002D0472B40F28380483B04F14B0223F0D6
:10598000030322F003022A606B60204600214822B4
:1059900001F002FA3B4B276023643B4B63642B6AA4
:1059A00023626B6A6362AB6AA362EB6AE3622B6B8E
:1059B00023636B6B6363AB6BA363EB6BE363737822
:1059C000042B02D03148BDE8F0817379022BF9D164
:1059D0003379012BF6D8B37823763379012B04D0B1
:1059E000EB685A78042AEDD115E033781E443278FA
:1059F000334616445A78052A05D1DA78032AF6D1B7
:105A00009B78237701E0042AF1D1237F002BE7D193
:105A10001F48BDE8F0815A790A2AD3D19A79002A21
:105A2000D0D19978617619781944187982420FD2C9
:105A30000E78084631444678052E07D1C678022EE6
:105A400004D1807806064CBFA076E0760132ECE700
:105A5000A37E002BDCD0E37E002BD9D0696C3846C6
:105A600021B90C49224600F08DFC04E0224600F0EA
:105A700089FC084B6B64C8F80040BDE8F08106481B
:105A8000BDE8F081B95801008D57010008000400FD
:105A900009000400095801000A00040090F81432BB
:105AA00013F01F0305D100F29D12C0F8CC21184657
:105AB00070470148704700BF0100040070477047FD
:105AC00090F8143203F01F03012B06D0022B15D0DF
:105AD000002B37D100F5CF720DE090F89D318BB3DC
