:020000021000EC
:100000000080001039010100090101000B0101000D
:100010000D0101000F0101001101010000000000AD
:100020000000000000000000000000003109010095
:10003000130101000000000091090100D509010031
:100040001501010015010100150101001501010054
:100050001501010015010100151E01001501010027
:100060001501010015010100150101001501010034
:100070001501010015010100150101001501010024
:100080001501010015010100150101001501010014
:100090001501010015010100150101001501010004
:1000A000B11E01001501010015010100150101003B
:1000B00015010100150101001501010015010100E4
:1000C000150101001501010015010100E04B0100BF
:1000D0000000001080000000E04B010000C007207D
:1000E00000000000E04B010000C8072000000000F5
:1000F000800000108403000000C007200000000002
:1001000000C80720B0230000FEE7FEE7FEE7FEE799
:10011000FEE7FEE7FEE7002310B5934200D310BDD3
:100120001C585C500433F8E700231A468B4200D376
:1001300070471A500433F9E738B50D4C0D4DAC42F9
:1001400007D30D4DAC420BD300F090F900F018F935
:10015000FEE7D4E90001A2680C34FFF7DCFFEEE70C
:1001600054F8080B54F8041CFFF7DEFFEAE700BF61
:10017000CC000100F000010008010100FEE7FEE7ED
:10018000FEE700BFFFFFFFFFFFFFFFFFFFFFFFFFD7
:10019000FFFFFFFFFFFFFFFFFFFFFFFFFFFFFFFF6F
:1001A000FFFFFFFFFFFFFFFFFFFFFFFFFFFFFFFF5F
:1001B000FFFFFFFFFFFFFFFFFFFFFFFFFFFFFFFF4F
:1001C000FFFFFFFFFFFFFFFFFFFFFFFFFFFFFFFF3F
:1001D000FFFFFFFFFFFFFFFFFFFFFFFFFFFFFFFF2F
:1001E000FFFFFFFFFFFFFFFFFFFFFFFFFFFFFFFF1F
:1001F000FFFFFFFFFFFFFFFFFFFFFFFFFFFFFFFF0F
:10020000FFFFFFFFFFFFFFFFFFFFFFFFFFFFFFFFFE
:10021000FFFFFFFFFFFFFFFFFFFFFFFFFFFFFFFFEE
:10022000FFFFFFFFFFFFFFFFFFFFFFFFFFFFFFFFDE
:10023000FFFFFFFFFFFFFFFFFFFFFFFFFFFFFFFFCE
:10024000FFFFFFFFFFFFFFFFFFFFFFFFFFFFFFFFBE
:10025000FFFFFFFFFFFFFFFFFFFFFFFFFFFFFFFFAE
:10026000FFFFFFFFFFFFFFFFFFFFFFFFFFFFFFFF9E
:10027000FFFFFFFFFFFFFFFFFFFFFFFFFFFFFFFF8E
:10028000FFFFFFFFFFFFFFFFFFFFFFFFFFFFFFFF7E
:10029000FFFFFFFFFFFFFFFFFFFFFFFFFFFFFFFF6E
:1002A000FFFFFFFFFFFFFFFFFFFFFFFFFFFFFFFF5E
:1002B000FFFFFFFFFFFFFFFFFFFFFFFFFFFFFFFF4E
:1002C000FFFFFFFFFFFFFFFFFFFFFFFFFFFFFFFF3E
:1002D000FFFFFFFFFFFFFFFFFFFFFFFFFFFFFFFF2E
:1002E000FFFFFFFFFFFFFFFFFFFFFFFFFFFFFFFF1E
:1002F000FFFFFFFFFFFFFFFFFFFFFFFFFFFFFFFF0E
:1003000038B50025144C226842F4804222602268ED
:1003100042F400422260226842F480322260E269A4
:1003200042F48032E261E26942F40042E261E26951
:1003300042F48042E26155B1A36943F48043A36172
:1003400041F2883085F0010501F0FCF8F3E7E3693C
:1003500043F48043E361F3E720C0092008B54FF080
:10036000402002F0FDFB4FF0402302225A600022A1
:100370005A6040F6FF12DA6001225A6008BDFFFFA2
:1003800013B5104C1048214602F07AFB204602F0CB
:10039000B1FC02F0A3F902F0B3FC0C4800F00EFA35
:1003A000012400F03DF800234622CDE9004308492E
:1003B000084800F021FE00F063F800F067FF2046D7
:1003C00002B010BD0024F4000020A10700000010BE
:1003D0004C480100010301007047FFFF024A936986
:1003E00043F001039361704740C00920024AD3697A
:1003F00043F00103D361704740C00920024AD3692A
:1004000043F08003D361704740C00920034B0121B2
:100410005869C0F3C02002F0E3B800BF40C0092013
:1004200008B5114B1A6842F001021A601A6842F0CE
:1004300080021A60FFF7DAFFFFF7E0FF01F076FDB8
:1004400001F0BCFC01F0C6FB01F0BCFB01F03CFF7D
:1004500001F0D2FF02F02CF9FFF7D8FFBDE8084009
:10046000012002F071B800BF40C00920024B034ACE
:100470001A6002F073BB00BF08ED00E0000001004D
:1004800080B582B002AF00230193022300930023C2
:10049000B4220349034800F0AFFD00BFBD4680BD54
:1004A0005C480100A904010037B5C82001F04AF8F2
:1004B00000F02AFF174C184D01902368AB421ADD5B
:1004C00001A8C82101F018F8144B01209A6942F4E0
:1004D00080329A61124A116822689142A2BF9A69D9
:1004E00042F400429A6102F02FF801F063F900F043
:1004F0006FFE03B030BDFFF771FF0121084601F028
:1005000083FF23680A21013301A8236000F0F4FF70
:10051000D3E700BF80000010FF083D0020C0092085
:10052000DC0300104FF0280383F31188BFF36F8FB3
:10053000BFF34F8FFEE710B5182000F0B9F804465E
:1005400020B1002340F8043B00F07CF9204610BDA8
:100550002DE9F84306460D4698461746DDF82090EB
:1005600000F0CAFE346804EA0503B8F1000F14D1A4
:10057000ABB9B9F1000F18D0002F0CBF00214FF01C
:100580008071B8F1000F01D041F080614A462943E3
:10059000301D01F047F8002407E09D42E9D13FB348
:1005A0004FF0000924EA0503336000F039FFB9F188
:1005B000000F1AD038B94FF08052124B1A60BFF3B7
:1005C0004F8FBFF36F8F01F043F9830104460AD4C4
:1005D00000F0C0F9346805EA0403B8F1000F09D14E
:1005E00053B900F0C7F924F07F442046BDE8F883F2
:1005F000B946DAE79D42F4D1002FF2D024EA05058E
:100600003560EEE704ED00E02DE9F04104460D46CB
:1006100000F10C0600F070FE236820692B430025D2
:100620002360B042216807D121EA0501216000F072
:10063000F7FE2068BDE8F081D0E9002822F07F4372
:1006400012F0806F03EA010702D11FB94046E8E7C4
:10065000BB42FBD1D20141F0007148BF1D4301F004
:1006600043F8F3E7FFF7D0BF10B50F4B1A461B68EE
:100670008342FBD354681119884201BF4168104678
:1006800009195160446801198B4207D1074909686B
:100690008B421FBF59681B68091941609042036073
:1006A00018BF106010BD00BF9C0000108400001037
:1006B0002DE9F041044600F01FFE244B1F6827423D
:1006C00041D1002C37D004F1080362071CBF23F08E
:1006D00007030833002B36D01D4A166890469E4209
:1006E00031D31C4A15686868984201D2296839BB21
:1006F00019490968A94226D0296814681160C21AEC
:10070000102A04F1080404D9E81842606B60FFF76E
:10071000ABFF00236A681149B61A1743104A0868EC
:100720002B601368864203F10103C8F8006038BFEC
:100730000E606F60136000F073FE2046BDE8F0812C
:100740002A460D46CFE70024F5E700BF88000010D9
:100750008C0000109C00001084000010900000101D
:100760009400001010B5044600B3114A50F8043C40
:10077000126813421AD050F8081CB9B923EA0203D0
:1007800040F8043C00F0B8FD0A4A54F8043C1168F3
:10079000A4F108000B441360FFF766FFBDE81040AA
:1007A000054A13680133136000F03ABE10BD00BF64
:1007B000880000108C0000109800001000232DE924
:1007C000F0431C461D469E46194EDFF874C037683C
:1007D00000F1040858F834205AB903B137604FF0DB
:1007E0000042144B1D60144B1D60144B1A60BDE891
:1007F000F08350F83490A2F1080319F0070F16BFE8
:1008000009F10701494621F007010CB9CCE90014B0
:100810004B4423F007035A1AC3E900EEC1E9003242
:1008200007B139601F46154401230134D2E700BFE8
:1008300084000010900000108C0000108800001050
:100840009C0000104FF0FF3200F10803C0E90223C2
:100850004360036100230360704700230361704716
:1008600043689A684B608A609A685160996003682F
:10087000086101330360704730B50C68631C0AD10E
:1008800003695A684A6091608B6059600368086127
:100890000133036030BD00F1080213465268156849
:1008A000A542FAD9EDE70369D0E901128A605160E7
:1008B0005968814208BF5A60002202611A68013AF1
:1008C0001A6018687047002382B001934FF0280324
:1008D00083F31188BFF36F8FBFF34F8F019B002B02
:1008E000FCD002B07047FFFF06480068006880F344
:1008F000088862B661B6BFF34F8FBFF36F8F00DF1A
:1009000000BF000008ED00E04FF0807340F8043CA9
:10091000054B21F0010140F8081C40F80C3C40F860
:10092000202C4038704700BFC7080100FFFFFFFFC1
:10093000074B19680868B0E8F00F80F30988BFF327
:100940006F8F4FF0000080F311884EF00D0E70474E
:10095000F40000104FF0280383F31188BFF36F8F6A
:10096000BFF34F8F024A136801331360704700BF13
:1009700010000010034A1368013B13600BB983F3A6
:100980001188704710000010FFFFFFFFFFFFFFFFFF
:10099000EFF30980BFF36F8F0D4B1A6820E9F00F5A
:1009A00010602DE908404FF0280080F3118800F016
:1009B000E1FD4FF0000080F31188BDE808401968A0
:1009C0000868B0E8F00F80F30988BFF36F8F7047B5
:1009D000F400001008B54FF0280383F31188BFF32B
:1009E0006F8FBFF34F8F00F095FC18B14FF080521E
:1009F000024B1A60002383F3118808BD04ED00E068
:100A00000022054B05491A600A6043F2FF11044AAF
:100A1000116007221A60704710E000E018E000E063
:100A200014E000E010B500240A4B1A6842F4780282
:100A30001A601A6842F078421A60FFF7E1FF064B2D
:100A40001C60FFF751FF00F095FDFFF73CFF2046CB
:100A500010BD00BF20ED00E01000001010B50446EE
:100A6000FFF778FFA46BFFF785FFB4FA84F0400925
:100A700010BDF8B51546026C0446866B52B907687E
:100A800047BB806800F0ACFE0546A76001362846EB
:100A9000A663F8BD65B9406803F060FA6368226C2C
:100AA0001344A26863609342F0D323686360EDE768
:100AB000C06803F053FA226CE36851429B1A226823
:100AC000E36093423EBFA3685B18E360022D01D14F
:100AD00016B1013E0025D9E73546D7E703461A6C23
:100AE000084610B462B1DC68996814448C4228BF8F
:100AF0001968DC6028BFD960D96810BC03F02EBA31
:100B000010BC704770B50446FFF724FF94F84550B9
:100B100004F124066DB2002D14DCFF2384F8453067
:100B2000FFF728FFFFF716FF94F8445004F1100672
:100B30006DB2002D12DCFF2384F84430BDE8704014
:100B4000FFF718BF636A002BE7D0304600F094FD32
:100B500008B100F029FE013D6DB2DCE72369002BEE
:100B6000E9D0304600F088FD08B100F01DFE013DDF
:100B70006DB2DEE738B504460D46FFF7EBFED4E96B
:100B80000F314B432268D0185B1A1344A060E36016
:100B90000020FF23A063626084F8443084F845306D
:100BA00095B9236963B104F1100000F065FD38B117
:100BB0004FF08052094B1A60BFF34F8FBFF36F8F16
:100BC000FFF7D8FE012038BD04F11000FFF73AFE10
:100BD00004F12400FFF736FEF2E700BF04ED00E069
:100BE00070B50646484348300D46FFF761FD0446A0
:100BF00048B155B100F1480301212046C4E90F6511
:100C00002360FFF7B7FF204670BD0346F4E7FFFF00
:100C10002DE9FF474FF0000804460F461E46C14627
:100C2000DFF8ECA00192FFF795FEA26BE36B9A420E
:100C300001D3022E19D1324639462046FFF719FF5B
:100C4000636A1BB104F1240000F016FD38B14FF0C7
:100C500080522F4B1A60BFF34F8FBFF36F8FFFF798
:100C600089FE012004B0BDE8F087019D1DB9FFF7A2
:100C700081FE0020F6E7B8F1000F02D102A800F0D3
:100C80005FFDFFF777FE00F037FBFFF763FE94F898
:100C90004430FF2B08BF84F8449094F84530FF2B74
:100CA00008BF84F84590FFF765FE01A902A800F08F
:100CB00053FD30BBFFF74EFEA26BE36B9A420FD1A0
:100CC000FFF758FE019904F1100000F09BFC20464C
:100CD000FFF718FF00F0A4FB50B14FF00108A2E7A6
:100CE000FFF748FE2046FFF70DFF00F099FBF4E701
:100CF0004FF08053CAF80030BFF34F8FBFF36F8FB0
:100D0000EBE72046FFF7FEFE00F08AFBB1E700BFED
:100D100004ED00E0F8B5174604461A46EFF31186D5
:100D20004FF0280383F31188BFF36F8FBFF34F8F0A
:100D3000806BE36B984201D3022A1ED194F8455090
:100D400020466DB2A36BFFF794FE6B1C10D1636A53
:100D50000BB9012009E004F1240000F08DFC00280B
:100D6000F7D0002FF5D00120386086F31188F8BD48
:100D700001356DB284F84550EBE70020F5E7FFFF41
:100D80002DE9F043002704460E46B84685B0DFF84B
:100D9000DC900192FFF7DEFDA56BD5B13146204610
:100DA000013DFFF79BFEA563236963B104F11000C9
:100DB00000F062FC38B14FF080522C4B1A60BFF348
:100DC0004F8FBFF36F8FFFF7D5FD012005B0BDE852
:100DD000F083019D1DB9FFF7CDFD0020F6E717B99F
:100DE00002A800F0ADFCFFF7C5FD00F085FAFFF7A3
:100DF000B1FD94F84430FF2B08BF84F8448094F888
:100E00004530FF2B08BF84F84580FFF7B3FD01A9EB
:100E100002A800F0A1FCF0B92046FFF71FFEA0B128
:100E2000019904F1240000F0EDFB2046FFF76AFE73
:100E300000F0F6FA38B94FF08053C9F80030BFF32C
:100E40004F8FBFF36F8F0127A4E72046FFF75AFEAD
:100E500000F0E6FAF7E72046FFF754FE00F0E0FA6C
:100E60002046FFF7FBFD0028EDD0B6E704ED00E0DB
:100E7000002310B5064A52F833402CB942F833101B
:100E800002EBC303586010BD01330A2BF3D1FAE71C
:100E9000A400001070B504460D461646FFF75AFD33
:100EA00094F84430FF2B04BF002384F8443094F8B6
:100EB0004530FF2B04BF002384F84530FFF75AFD6F
:100EC000A36B2BB93246294604F1240000F0BEFB87
:100ED0002046BDE87040FFF715BEFFFF064A1368C5
:100EE0001968064B19B94FF0FF321A607047126843
:100EF000D268D2685268F8E7F8000010A401001028
:100F0000F8B51B4B1B4F1C68054638680E4604306D
:100F1000FFF7C9FC3B4640B939681748CF6A012141
:100F20000268B94022EA010202606A1C07D136B1A8
:100F3000196812480431BDE8F840FFF791BC1A68FF
:100F40006419546007D30E4A10681968BDE8F84068
:100F50000431FFF791BC0B4A106819680431FFF7A0
:100F60008BFC094B1A68A24288BF1C60F8BD00BF09
:100F7000F0010010F400001074010010C80100100E
:100F8000FC000010F8000010A401001080B5DFF88C
:100F90006480144F144C154E236863B9144B1B68BE
:100FA000012BF8D94FF08053C8F80030BFF34F8FB2
:100FB000BFF36F8FEEE7FFF7CDFCFB68DD68281D00
:100FC000FFF771FC3368013B33602368013B23600A
:100FD000FFF7D0FC286BFFF7C5FB2846FFF7C2FBE5
:100FE000DAE700BFDC0100106801001064010010A6
:100FF0000001001004ED00E02DE9F84F4FEA820AED
:10100000064650460D461F46DDF82C90FFF750FB74
:101010008046D0B15C20FFF74BFB044690B15246AE
:10102000C0F83080A521404602F0A6FF236BAAF14C
:10103000040A9A442AF0070AC4F848A045B984F87B
:10104000345014E04046FFF78DFB4FF0FF358EE043
:101050006B1E04F13402133513F8011F02F8011B53
:10106000197809B1AB42F7D1002384F847300A9DC3
:101070004FF0000B042D28BF042504F1040840465E
:10108000E562E564C4F850B0FFF7E7FBC5F105057C
:1010900004F11800FFF7E1FBC4F854B03A463146BA
:1010A00050462461A561646284F858B0FFF72CFCB7
:1010B0002060B9F1000F01D0C9F80040FFF74AFCE9
:1010C000314B324E1A68324F01321A603268002AB0
:1010D00050D134601B68012B25D12E48FFF7B2FB9D
:1010E0002D48FFF7AFFB2D48FFF7ACFBDFF8DC9096
:1010F0002B48FFF7A7FB2B4D2B48FFF7A3FB4846D8
:10110000FFF7A0FB2846FFF79DFB2848FFF79AFB57
:101110002748FFF797FB2748FFF794FB264BC3F8B8
:101120000090264B1D600125254A26491368086852
:1011300001331360E26A05FA02F3034314200B60E3
:10114000144B414600FB0230FFF78AFBFFF712FC0D
:101150003B6863B13368DA6AE36A9A4207D24FF0B8
:101160008052194B1A60BFF34F8FBFF36F8F284621
:10117000BDE8F88F3B68002BD5D13368E26ADB6AA3
:101180009A4228BF3460CEE764010010F4000010DA
:10119000C40100100001001014010010280100100B
:1011A0003C0100108C01001050010010B001001033
:1011B000DC010010C8010010F8000010FC00001055
:1011C000700100107401001004ED00E078010010BF
:1011D000F8B50446244DFFF7BDFB04B92C68261D65
:1011E0003046FFF760FB60B91420E76A1F4B784375
:1011F0001B5833B901221E49BA400B6823EA020387
:101200000B60A36A1BB104F11800FFF74CFB194AED
:101210001368013313602B68A34218D13146164876
:10122000FFF71EFB154A136801331360FFF7A2FB9B
:10123000134B1B6853B12B68A34207D14FF0805268
:10124000104B1A60BFF34F8FBFF36F8FF8BD0E4A7C
:10125000206B1368013B1360FFF784FA2046FFF709
:1012600081FAFFF73BFEE1E7F400001000010010F7
:101270007401001070010010DC0100106801001002
:10128000C401001004ED00E06401001013B5002457
:10129000134B3C2201931349234613480094FFF754
:1012A000ABFE01281AD100F029FB012816D14FF01E
:1012B000280383F31188BFF36F8FBFF34F8F4FF075
:1012C000FF320A4B1A600A4B18600A4B1C60FFF78A
:1012D00045F802B0BDE81040FFF7A4BB02B010BD56
:1012E000A0010010614801008D0F0100A401001051
:1012F000C4010010F0010010024A136801331360AA
:10130000704700BF6C010010014B1868704700BFA8
:10131000F00100102DE9F84F364B1B68002B62D10D
:10132000354B1D6801351D605DB9344A344B116879
:1013300018681060334A1960136801331360FFF7AF
:10134000CDFD314E00243368304F9D4210D2304BDA
:101350001B68DA6A14235343FB58022B2D4B28BF1A
:1013600001241B68002B18BF01242046BDE8F88F1C
:10137000DFF888A0DFF8A490DAF800301B681BB90A
:101380004FF0FF333360E2E7DAF80030DB68D3F880
:101390000CB0DBF80420954201D23260D7E70BF1A4
:1013A00004084046FFF77FFADBF828201AB10BF15A
:1013B0001800FFF778FA0122DBF82C00D9F800308A
:1013C00082401A43C9F800201422414602FB0070F3
:1013D000FFF746FA0E4BDBF82C201968CB6A9A42CD
:1013E00028BF0124C8E70C4A0024136801331360A6
:1013F000BBE700BF6C010010F0010010F800001006
:10140000FC000010A8010010A40100100001001051
:10141000F4000010F4010010AC0100107401001081
:101420002DE9F843FFF796FA2A4B1A68013A1A6039
:101430001C682CB10024FFF79DFA2046BDE8F88314
:10144000254B1B68002BF5D0244D254EDFF8A480DA
:101450001FE0EB680127DC6804F1040904F11800BF
:10146000FFF721FA4846FFF71EFA1420E26A3168B6
:1014700007FA02F30B4300FB028049463360FFF793
:10148000EFF9184BE26A1B68DB6A9A4201D3164BEC
:101490001F602B68002BDCD10CB1FFF71FFD134D33
:1014A0002C6844B10127104EFFF734FF00B13760BC
:1014B000013CF9D12C600C4B1B68002BBAD04FF0CB
:1014C00080520B4B1A60BFF34F8FBFF36F8F012415
:1014D000B1E700BF6C01001064010010B001001002
:1014E00074010010F4000010F4010010AC010010B1
:1014F00004ED00E00001001010B5FFF7FDFE0F4BFA
:1015000004681A6863182CBF01210021944203600B
:101510000CD961B9FFF784FF38B94FF08052084BFE
:101520001A60BFF34F8FBFF36F8F10BD09B99A4296
:10153000F0D20021981AFFF7E3FCEBE7F00100106E
:1015400004ED00E008B540B94FF08052084B1A6036
:10155000BFF34F8FBFF36F8F08BDFFF7CDFE0021A4
:10156000FFF7CEFCFFF75CFF0028EDD0F4E700BFEB
:1015700004ED00E01E4B70B51A681E4B12B101223B
:101580001A6070BD1C4C1A6023681B6B1A68B2F19C
:10159000A53F0BD15A68B2F1A53F07D19A68B2F1C5
:1015A000A53F03D1DB68B3F1A53F04D020682168D3
:1015B0003431FEF7B7FF114B1B68B3FA83F31420E5
:1015C000DBB2C3F11F0300FB03F20D498D186E68F7
:1015D000083276680A44964200FB031308BF72681B
:1015E0006E6008BF6A605B68DB682360C9E700BFA4
:1015F0006C010010F4010010F400001074010010E0
:101600000001001010B50C46054B19681831FFF7A2
:1016100033F92046BDE810400121FFF771BC00BF3F
:10162000F400001010B51446074B41F000411A6851
:10163000916119681831FFF713F92046BDE8104091
:101640000121FFF75DBC00BFF400001038B514465F
:101650000D46084B19681831FFF702F9002C214696
:1016600008BF2846BDE8384018BF4FF0FF30FFF7ED
:1016700047BC00BFF400001038B5C368DC6804F153
:1016800018052846FFF70FF9114B1B68E3B9251D14
:101690002846FFF708F901230E49E26A08689340DB
:1016A000034314200B6029460B4B00FB0230FFF76D
:1016B000D7F80A4BE26A1B68DB6A9A4285BF0120B1
:1016C000074B0020186038BD29460648EFE700BFE9
:1016D0006C0100107401001000010010F4000010F3
:1016E000F4010010B001001070B50125C46841F08C
:1016F00000410160261DFFF7D6F83046FFF7D3F80A
:101700000B49E26A086805FA02F3034314200B60F0
:10171000084B314600FB0230FFF7A2F8064BE26AA5
:101720001B68DB6A9A4284BF044B1D6070BD00BF1A
:101730007401001000010010F4000010F40100100A
:10174000034B1B680360034B1B684360704700BF7B
:10175000A8010010F001001070B50C460546FFF717
:10176000F9F80F4B196823685A1C10D00D482E68E1
:1017700000686A68864201D08A420FD9881A83427B
:101780000AD95B1A134428462360FFF7D9FF0024C7
:10179000FFF7F0F8204670BD002323600124F7E72F
:1017A000F0010010A80100100122014B1A607047DF
:1017B000F4010010014B1868704700BFF4000010DE
:1017C000054B1B6833B1054B1B68002B0CBF022077
:1017D0000020704701207047C40100106C01001008
:1017E000F8B5044608B90020F8BD036DC16AC26CA3
:1017F000013B91420365F6D0002BF4D1061D304623
:10180000FFF751F8104F114A50B91421E06A4143D3
:101810007B582BB901251368854023EA0503136023
:10182000E36C1420C3F10501A161E3620124116896
:1018300004FA03F500FB03700D4331461560FFF712
:101840000FF82046D0E700BF00010010740100101F
:10185000044B1A68196890691A68CB6AC3F10503CA
:1018600093617047F4000010F8B50F4CFFF772F861
:101870002568ADB90D4F0E4E3846FEF7E3FF3046F2
:10188000FEF7E0FF0B4B2A461F600B4B1021052093
:101890001E60FFF7A5F9206010B10849FFF7E8FACC
:1018A000BDE8F840FFF766B82C02001000020010F7
:1018B00014020010F8010010FC010010664801003D
:1018C000914208B5416000610AD8D21A83699A42F0
:1018D0000DD2084B011D1868FEF7CEFF002008BD91
:1018E0009A4201D2994202D2034B011DF3E7012033
:1018F000F5E700BFFC010010F801001007B5FFF785
:10190000B3FF084B186848B1074B642201930423C6
:101910000649009306480023FFF76EFB03B05DF80D
:1019200004FB00BF2C020010300200106B480100C5
:10193000E51901007FB50F4C0546206816461A468A
:1019400080B10529CDE9001602950DDCFFF738FFBF
:101950000023022818BF1A46694608BF089A206863
:10196000FFF756F904B070BD00236946FFF7D2F9BE
:10197000F8E700BF2C0200102DE9F3414FF00008FA
:10198000164D2B681A6832B9154A11681360296020
:1019900002B0BDE8F081DB68DC681E68271D3846B0
:1019A000FEF781FF236A2046984794F824305B07AE
:1019B000E7D5A36933449E4206D23946286863605E
:1019C0002461FEF759FFDCE7002332461946204622
:1019D000CDF80080FFF7AEFFD3E700BFF80100109D
:1019E000FC0100102DE9F04F674E87B0B146336817
:1019F000D3F800B0BBF1000F28D00024DB68D3F887
:101A000000B0FFF779FCFFF77FFC604D82462B6842
:101A1000A84698425E4F1BD3286014B35D4B1B68E9
:101A20001C68B4FA84F4640922463868ABEB0A01F6
:101A3000FFF730FAFFF7F4FC80B94FF08053564AB5
:101A40001360BFF34F8FBFF36F8F07E00124D8E718
:101A5000FFF792FFC5F800A0FFF7E2FC4FF0000B84
:101A60002CE08345E0D8FFF7DBFCD9F80030DB68D9
:101A7000DD68281DFEF717FF95F82430580712D5AA
:101A8000A9695B46524628465944FFF719FF30B111
:101A900023465A46214628460094FFF74BFF284626
:101AA0002B6A9847DAE723F0010385F82430F6E73C
:101AB000039B05999847029B002B0ADA002238689D
:101AC00002A9FFF75DF9002891D0029B0498002B32
:101AD000EEDB049C6369A3B9FFF716FCD8F800306D
:101AE0000546984201D2FFF747FF029BC8F8005015
:101AF000092BE3D8DFE803F00909092A3140090975
:101B00002A31201DFEF7CFFEE6E794F82430A169C4
:101B100043F0010384F82430039B2A4620461944ED
:101B2000FFF7CEFE0028C9D0236A2046984794F8D4
:101B300024305907C2D50023A269039920460A44DC
:101B4000CDF800B01946FFF7F5FEB7E794F824305A
:101B500023F0010384F82430B0E794F8243003998B
:101B600043F0010384F82430A1612B462A46204625
:101B70002944FFF7A5FEA1E794F824309A07E7D49B
:101B80002046FEF7EFFD99E7F8010010280200104B
:101B90002C020010FC01001004ED00E01FB51446FB
:101BA0001A466FF00103CDE900300548CDE9021473
:101BB000002369460068FFF7ADF804B010BD00BF10
:101BC0002C02001008B5FEF7B6FC014B186008BDEA
:101BD00034020010C0220021014802F0CDB900BF3C
:101BE00000C8072030214378054A013B01FB03234D
:101BF000421850F8041B904243F8041BF9D1704777
:101C000000C807200123400100F1005000F51C200E
:101C100082698B401343836170470123400100F1C7
:101C2000005000F51C20C2698B401343C36170470C
:101C30000A0902EB4002D2B2920002F18043032271
:101C4000F0B403F5303301F00F06D3F800C076008E
:101C500002FA06F72CEA07021A601A6C22EA070257
:101C6000082707FA06F632431A640122430103F1FA
:101C7000005303F51C231C688A4022431A60F0BC01
:101C8000FFF7CBBF80B588B000AFF860B9607A606D
:101C900003210220FFF7B6FF21E0FB7C1946F8681C
:101CA00000F038F80023FB6103E000BFFB6901335B
:101CB000FB61FB690F2BF8DD09E00023BB6103E04A
:101CC00000BFBB690133BB61BB690F2BF8DDF8684E
:101CD00000F022F8034603F02603002BEDD007F1B5
:101CE00013031946B86800F03DFE0346002BD4D11B
:101CF00000237B6103E000BF7B6901337B617B696B
:101D0000632BF8DD03210220FFF787FF00BF203798
:101D1000BD4680BD016070474069704770B5402680
:101D2000204B214C1A68214D22F0404242F0804263
:101D30001A601A6C032122F040421A645A68022089
:101D400022F0030242F001025A605A6C22F00302B0
:101D500042F008025A64FFF76BFF2046C5F8806026
:101D600000F014FF1249204600F040FF03232046F4
:101D7000E36000F037FF4FF4807301220D490E48F5
:101D800000F08AFD8723A360636843F00503636066
:101D9000636823F0020363603023C5F8806185F82F
:101DA000063370BD00C002400000014000E100E0C9
:101DB00080841E00C0C807201403001037B580239C
:101DC00001220F490F4800F067FDFFF7A7FF00222F
:101DD0004D210520FEF704FF0B4C0C4D21462860D9
:101DE000FFF746F80123002204F11201CDE9003289
:101DF000074882222B68FFF7FFF803B030BD00BF11
:101E0000C0C9072028030010944801008C0200106C
:101E1000C91E010013B500241D48019400F0F9FD0E
:101E20000A28D8BF1B4B1C4A19491C48D8BF1C7034
:101E300000F02CFF164800F0ECFD0A281BDD154CC5
:101E40002378C3B9164901AB042209681548FFF786
:101E5000A5FE01232370019B3BB14FF08052124B32
:101E60001A60BFF34F8FBFF36F8F40220F4BC3F841
:101E7000802102B010BD064800F0CBFD7F28EADDCE
:101E800007490422096801AB0648FFF787FEE2E72D
:101E900014030010900200102803001000000140FD
:101EA0003C0300106506010004ED00E000E100E0E5
:101EB000034B044A1B6810681B68DB68184700BFA7
:101EC00014000010380200102DE978410646322037
:101ED000FFF738FB114D124C05F101084FF0FF32AE
:101EE00030460E49FEF74CFF0128F7D14146204607
:101EF0002A7800F0F1FC95F84C30012B05D12146F1
:101F00002A780848FFF7BEFEE8E7204600F081FD8A
:101F100005490246204600F03DFDDFE73C02001087
:101F200028030010000001409102001008B5FEF7E0
:101F300002FB014B186008BD3C03001090B589B04E
:101F400000AF786039603B68002B01D100234CE181
:101F50007B68002B01D1002347E14FF4FA7000F0B9
:101F6000E3F90023FB730023FB820023FB830023A0
:101F70007B770023BB7300233B7707F10F031946E0
:101F8000786800F0EFFC20E007F10F03194678684D
:101F900000F0E8FC0346002B0ED03B7F01333B777B
:101FA0003B7F022B11D900F0CFF9924B1B68013314
:101FB000904A1360002318E100F0C6F98D4B1B68AE
:101FC00001338C4A136000230FE1FB7B7E2BDBD1B6
:101FD00003228949786800F0DDFC874B1B78FB827F
:101FE000B7F916301B02FB82834B5B789AB2FB8AEF
:101FF00013449BB2FB82B7F916304B2B08DD00F07F
:10200000A3F97C4B1B6801337A4A13600023ECE090
:10201000794B9B789AB2FB8B13449BB2FB83764B34
:102020009B78892B0DD103227349786800F0B2FCAC
:1020300000F08AF96F4B1B6801336E4A136000236E
:10204000D3E000233B7711E03B7F01333B773B7FBD
:10205000052B08D900F078F9664B1B680133654AF7
:1020600013600023C1E00120FFF76CFA786800F0EC
:10207000D0FC0246B7F91630013B9A42E4DB062257
:102080005D49786800F086FC0023BB610BE05A4A8A
:10209000BB6913441B789AB2FB8B13449BB2FB833E
:1020A000BB690133BB61BB69032BF0DD524B1A796D
:1020B000524B1A70514B1B789AB2FB8B13449BB254
:1020C000FB834D4B5B795AB24C4B5A704B4B93F997
:1020D0000130DBB29AB2FB8B13449BB2FB83FB8AC9
:1020E000DBB2073BDAB2454B9A70444B9B78402BEE
:1020F00073D800233B7711E03B7F01333B773B7F75
:10210000052B08D900F020F93A4B1B680133394AF6
:102110001360002369E00120FFF714FA374B9B7826
:102120001C46786800F075FC03469C42E4DA334BA9
:102130009B781A463249786800F02CFC00237B77A4
:102140000BE07B7F2D4A1344DB789AB2FB8B134460
:102150009BB2FB837B7F01337B77284B9B787A7F15
:102160009A42EED307F10E031946786800F0FAFBA5
:10217000FB8BDBB2FB83FB8BDBB2DB43DBB2FB8392
:10218000B7F91E30BA7B93421ED11E4B1B68013338
:102190001C4A13603968194800F03AF838613B6905
:1021A000002B08D000F0D0F8174B1B680133164AFB
:1021B0001360012319E0154B1B680133134A1360A8
:1021C00000F0C2F8002310E000F0BEF8094B1B68D5
:1021D0000133084A1360002307E000F0B5F8054B0F
:1021E0001B680133034A1360002318462437BD4699
:1021F00090BD00BF44030010D4CA07208ECA072038
:1022000091CA07204C03001048030010400300103F
:1022100010B40446637808460133DBB2012B06D8BC
:10222000214600234FF0FF3210BCFEF7F1BC002026
:1022300010BC70472DE9774105463220FFF782F93F
:102240004022124B1A601DB9FFF7B4FAFEF7C0FF27
:1022500000244FF0FF380E4E002301220C2130687D
:10226000CDF80080FEF774F943070DD410F0080F85
:1022700018BF0024204600F0CCFB0028ECD02946F3
:102280002046FFF75BFEF5E7024CF3E700E100E0D4
:102290003C0300101403001008B50022462105205D
:1022A000FEF79EFC054B06491860FEF7E1FD054B65
:1022B00003211868BDE80840FEF7A6B950030010D6
:1022C000B74801003C03001007B5FFF7E5FF022304
:1022D0000022CDE90032054B64221B680449054801
:1022E000FEF78AFE03B05DF804FB00BF5003001048
:1022F000CC48010035220100012307B500900548B4
:102300001A4619460068FEF723F900F0010003B0F1
:102310005DF804FB3C030010024B01211868FEF736
:1023200073B900BF3C030010012307B500900548B6
:102330001A4602210068FEF70BF9C0F3400003B013
:102340005DF804FB3C030010024B02211868FEF705
:102350005BB900BF3C0300107E2270B5244B0330F4
:102360005A7010F8014C04F10B021A70E21DDA7079
:10237000151201229D701A715A71B0F84120150A88
:10238000DA7100229D711A7210F8035C5D7210F808
:10239000025C9D7203F10B05D6B2B44217D800203F
:1023A00003220934944218DAC0431A445070114889
:1023B00083F84C10642200230D490068FEF728FCC6
:1023C000044688B1FFF7A8FF0124204670BD10F82D
:1023D000016B013205F8016BDEE79D186D78013263
:1023E000284400B2D2B2DDE7FFF796FFEDE700BF69
:1023F00040CA07208C02001046220021014801F04B
:10240000BBBD00BF20CB072038B5054632200C46A7
:10241000FFF772FF70B123230748214603700023A2
:1024200083704FF6FF734570A0F84430BDE8384024
:10243000FFF792BF38BD00BF20CB07202DE9F04742
:1024400004463220894690461F46FFF755FF002874
:1024500040D04FF63863384D384E2046338085F8EB
:10246000029085F8018001F0AFFD80B23A2833D99F
:10247000A94605F1030A06F10308204601F0A4FD70
:102480003B2854D8204601F09FFDC0B2287020465A
:1024900001F09AFD3B284CD8204601F095FD0246FC
:1024A0002146504601F05AFD3E234022494640460F
:1024B000B37001F053FD002339462048A6F844309C
:1024C000FFF74AFF2B781C44204601F07DFD80B2C7
:1024D0000028D2D1BDE8F087204601F075FD3B28E9
:1024E00021D8204601F070FDC0B22870204601F0CE
:1024F0006BFD3B2819D8204601F066FD02462146B7
:102500000F4801F02BFD3E230B4940220D48B370CC
:1025100001F024FD00233946A6F844300748BDE801
:10252000F047FFF719BF3B20DFE73B22E7E73B20FF
:10253000ACE73B22B4E700BF5403001020CB0720D8
:102540005703001023CB072037B505463220FFF78D
:10255000D3FE00282DD04FF6FD73174800240380CA
:102560004FF6FF7329468470A0F84430FFF7F4FE5D
:10257000124B134A0193134B134900931348144B06
:1025800001F002FD2146012304221048FFF756FF07
:10259000104B114A1B68126810490C4801F0F4FCFA
:1025A000012304222146094803B0BDE83040FFF76B
:1025B00045BF03B030BD00BF20CB0720FD48010060
:1025C000E048010006490100E248010092030010C2
:1025D000DD48010044030010DC0300101249010033
:1025E00038B5054632200C46FFF786FE78B14FF627
:1025F0002273074821460380012383704FF6FF733F
:10260000C570A0F84430BDE83840FFF7A5BE38BD1E
:1026100020CB072080B504468CB0002839D0DFF8E5
:1026200088801E4E45461E4FDFF8809008F1030A51
:102630004FF0FF3229462046FEF7A2FB0028F7D0D4
:102640004846FDF7C9FE326898F800300132FC2B8D
:10265000326007D0FD2B08D0242B0AD01148FDF79B
:10266000BBFEE5E70120FFF76FFF3B6801333B60EE
:10267000F4E7FDF7BBFE30225146684601F06EFCE0
:102680006846FFF7AFFA3B6801333B60FDF7AEFEEB
:10269000E4E7FFF78FF8FEF79BFDC0E7D8030010D3
:1026A000DC0300105C49010068CB072044490100AD
:1026B00007B501230022CDE90032054B64221B68D7
:1026C00004490548FEF798FC03B05DF804FB00BF21
:1026D000500300106F4901001526010008B500F0F5
:1026E000C7F8014B186008BDF0030010400100F16D
:1026F000804303F57C23D3F8802018461143C3F8A8
:102700008010AA23C0F88C305523C0F88C30704755
:10271000400100F1804303F57C23D3F88020184664
:1027200022EA0101C3F88010AA23C0F88C30552397
:10273000C0F88C30704798B941EA0241012240014B
:1027400000F1804303F57C23C3F884101846C3F8D6
:102750008020AA23C0F88C305523C0F88C307047F5
:1027600041EA4211EAE7FFFF0123044A03FA00F0BD
:10277000D2F8C4100843C2F8C400704700C00F402C
:10278000024BD3F88800C0F34060704700C00F4090
:10279000014BC3F80401704700C00F40024BD3F84F
:1027A0000401C0B20130704700C00F40420053091D
:1027B0000B496A3351F8233002F01F02D34013F063
:1027C00003030AD0012B06D0022B04D00D380228B7
:1027D00094BF06230823184670470423FBE700BF75
:1027E00000C00F40094BD3F80C3103F00303012B59
:1027F00004D043B1022B04D000207047044B18686A
:102800007047044BFBE70448704700BF00C00F400F
:1028100018000010204B010000093D0008B50B4BCB
:10282000D3F8880010F080700FD0D3F88420D3F84C
:102830008410FFF7D7FFC2F30E0202FB0000C1F3C2
:10284000074140000131B0FBF1F008BD00C00F406E
:1028500008B5FFF795FF28B1012807D1BDE808406A
:10286000FFF7DCBFBDE80840FFF7BCBF002008BD94
:1028700008B5FFF7EDFF0246FFF790FFB2FBF0F05F
:1028800008BD38B50546FFF7F3FF04462846FFF7B5
:102890008DFFB4FBF0F038BDC0E900130023826067
:1028A000C0E903330120704710B50446C2680069CF
:1028B0006368121A9A420DDAE268013B13402068FD
:1028C000A26802FB030001F049FB0120E368013329
:1028D000E36010BD0020FCE72DE9F041C3680E461F
:1028E000016944685B1AA342054639DAC368016985
:1028F000C06804F1FF3C5B1A0CEA000CE31A03EB1E
:102900000C01A14234BF1C46A4EB0C049442A3EB7F
:102910000403A8BF1446101B9842A8BF184680465F
:102920002F68A868314604FB00F20CFB007001F030
:1029300015FBEB682868E218D5E90137013B134025
:10294000EA6007FB030008FB07F204FB076101F0E4
:1029500005FBEB6804EB08004344EB60BDE8F08145
:102960000020FBE710B50446E268236908469A4256
:102970000ED0D4E900132269013B1340A26802FB88
:10298000031101F0EBFA012023690133236110BD2B
:102990000020FCE72DE9F0418846C168036906463E
:1029A000994234D04468C36831690569601E5B1B75
:1029B0000140C818A04234BF1C46641A9442A3EBDD
:1029C0000403A8BF1446101B9842A8BF184605462A
:1029D000B368376804FB03F201FB0371404601F062
:1029E000BDFA3369E118D6E90130013B0B40316192
:1029F000316805FB00F200FB031104FB008001F0CD
:102A0000ADFA336960192B443361BDE8F0810020D1
:102A1000FBE7C2680069101A7047FFFF38B5174C12
:102A2000D4F88820910103D502210020FFF770FE21
:102A3000D4F88830DA0103D501210020FFF768FEC1
:102A400000250E4C0020FFF7A3FE2A462C21284625
:102A5000C4F80C51FFF76FFE28460121FFF746FE30
:102A60000220FFF795FED4F888305B01FBD5BDE866
:102A7000384002210020FFF739BE00BF00C00F40E0
:102A8000314B2DE9F04199420BD100222F4B00E050
:102A900001321101CC58844211D0002CF8D1BDE88C
:102AA000F0812B4B994210D100222A4B00E00132D9
:102AB0001101CC58844202D0002CF8D1EFE7002855
:102AC000EDD00B44DF68D3E90156234CD4F88820BD
:102AD000930103D502210020FFF71AFED4F88830B5
:102AE000D80103D501210020FFF712FE1A4CD4F8BB
:102AF000A03159065EBFD4F8A03143F02003C4F8DA
:102B0000A031D4F8A0315A06FBD54FF001080020BF
:102B1000FFF73EFE324629460020C4F80C81FFF73D
:102B20000AFE41460020FFF7E1FD3846FFF730FE80
:102B3000094AD2F888305B01FBD5BDE8F04102219B
:102B40000020FFF7D3BD00BF001BB7008049010084
:102B50000024F400704A010000C00F40FFF75EBF80
:102B6000094B98420BD003F50823984209D003F58E
:102B7000804398420CBF17200120FFF7F5BD0220CB
:102B8000FBE71620F9E700BF00800040134B10B5AB
:102B9000984204461ED003F5082398421CD01048E2
:102BA00084420CBF19200320FFF7DEFD0723A3603A
:102BB00000230A4A236394426360E3602362E36470
:102BC0006365236504BF2361A3690323E3601023C6
:102BD000A36210BD0420E7E71820E5E700000140EC
:102BE00000C00940802303637047FFFF38B5134BD3
:102BF000044698420D461DD003F5082398421BD089
:102C00000F4884420CBF19200320FFF73AFE290128
:102C1000B0FBF1F1E368CAB243F08003E360C1F3B3
:102C2000072322606360E368B0FBF1F023F08003C8
:102C3000E36038BD0420E8E71820E6E70000014023
:102C400000C0094037B504460D466369DB0701D46F
:102C500003B030BD23680DF1070128468DF8073019
:102C6000FFF722FEF1E737B504460D4663699B0680
:102C700005D50DF107012846FFF774FE08B903B02A
:102C800030BD9DF807302360F0E7FFFF436870B563
:102C90000E469907044615460AD51146FFF7E3FF8D
:102CA000EA682B699A4202BF636823F002036360FB
:102CB00031462046FFF7C6FFA368DA050CD5236A24
:102CC00043F480732362636823F480736360084B6A
:102CD0001A780AB901221A70A3689B0507D5236ADE
:102CE00043F400732362636823F40073636070BD70
:102CF000E0030010014B1860704700BF180000107F
:102D000008B50F20FFF730FDBDE808400F20FFF7A2
:102D10002BBD034600F00F0040001B0648BF0130EA
:102D20007047436810229A6019611A68D206FCD570
:102D3000704738B504461546FFF7F3FF204629468D
:102D4000BDE83840FFF7EDBF38B5044608461546E4
:102D5000FFF7DFFF010441F4A0612046FFF7E1FF28
:102D600020462946BDE83840FFF7DBBF43683022E4
:102D70009A6019611A689206FCD5586970474FF439
:102D80000C707047044A0029D0F8C801034908BFF5
:102D90004FF48072FFF7CDBF000101000005FE0077
:102DA000D0F8C83100225B689A64D0F8A021D179AC
:102DB000D96401219964D279DA641A68D205FCD504
:102DC0004FF0FF329A635A639A600C225A60704740
:102DD0000346B3F89E31D0F8C8019B0703D50249DA
:102DE000024AFFF7A6BF70470005FE000001010080
:102DF0007047FFFF70B50904D0F8C861084D41F471
:102E0000000444F48074304629462246FFF791FFBF
:102E1000304629462246BDE87040FFF78ABF00BF12
:102E20000005D00093682DE9F041B3F50C7F804692
:102E3000144633D3566806F110026260A3F1100203
:102E4000A2606568AA0702D001356560F9E705F55B
:102E50000772A3F50B736260A360636813F0030746
:102E600002D001336360F8E72846224600F0E2FF13
:102E700039461022304601F07FF82368B5602846B5
:102E8000C5F8C8617360FFF78BFF28463946FFF726
:102E9000B1FFC8F800503846BDE8F0810148BDE8F0
:102EA000F08100BF0A00040010B50A4AD0F8C841FA
:102EB000002908BF4FF4807220460749FFF739FF09
:102EC000636803225A641A68D205FCD54FF48072F5
:102ED0009A6010BD000101000005D80038B5054614
:102EE00088780C46FFF715FF012102469140D5F87E
:102EF000C8315B68586C014359649A64A288DA64EB
:102F00001A68D205FCD54FF480729A6038BD7047BC
:102F100010B504460846FFF7FCFE010441F48001A9
:102F2000D4F8C80141F4A0614FF48072BDE81040AC
:102F3000FFF7FFBE10B504460846FFF7EAFE01049E
:102F400041F48001D4F8C80141F4A061024ABDE80F
:102F50001040FFF7EEBE00BF0001200010B5044690
:102F60000846FFF7D6FE010441F48001D4F8C801F9
:102F700041F4A0614FF48072BDE81040FFF7D9BE64
:102F800010B504460846FFF7C4FE010441F4800171
:102F9000D4F8C80141F4A061024ABDE81040FFF72F
:102FA000C8BE00BF0001010010B504460846FFF787
:102FB000B0FE010441F48001D4F8C80141F4A061DD
:102FC0004FF48072BDE81040FFF7B3BE043A38B545
:102FD0001D46D0F8C8410D2A48D8DFE802F00E0E91
:102FE000474747474747474744074A0A01220020C7
:102FF00041E04FF4007200203DE00846FFF789FEF3
:10300000012303FA00F0236815B11843206002E0A1
:1030100023EA00002060226823682168DB071B4B3D
:1030200002F0020201EA030348BF42F004020BB1BE
:1030300042F020022168164B0B400BB142F04002D7
:1030400023681449194009B142F008022368124963
:10305000194009B142F01002120420460F4942F40F
:103060008072FFF766FE0022104604E000220C4842
:1030700001E00822002061684B6815B11A434A60DC
:1030800038BD23EA02024A6038BD00BF200882A092
:103090001004415008822008044110040005F30088
:1030A00001000400D0F8C80101F00F032DE9F04140
:1030B0009B00456843F00103AB622C6A2605FCD5F2
:1030C00014F480681DD0C4F309085FEA980C25D079
:1030D00016460023AF690133634546F8047BF9D1F6
:1030E00002EB830204F003045CB1AE6914440023D4
:1030F00026FA03F502F8015BA24203F10803F7D1B7
:10310000456841F248230B410022DB07AA6202D442
:10311000034AFFF719FE4046BDE8F0814446E3E765
:103120000005F20070470020704700207047FFF74D
:10313000B9BFFFFFD0F8C8012DE9F04101F00F043D
:103140004668A400DF1C44F00204BF08B46298463D
:10315000736206D0002452F8045B0134BC42F5616E
:10316000F9D10023B362034AFFF7EEFD4046BDE804
:10317000F08100BF0005FA002DE9F047D0F8C891B2
:103180008246D9F80420136823F004019160516845
:1031900001EA030818F0080461D118F0040F2BD0DD
:1031A000166B3EB3274605460121A140314219D096
:1031B0000F43916313689806FCD5E30750693DD42B
:1031C000002C00F09080AB6D63B1D9F80020114263
:1031D00001D0C1066DD402225046D5F8D8109847C8
:1031E000D9F804201F2C05D0B74204F1010405F1E1
:1031F0000405D9D10423936018F4007F0FD0DAF8C6
:103200003C3063B148464049FFF78BFD3F49484693
:10321000FFF7ACFDDAF83C3001465046984718F00D
:10322000010F09D0DAF834300BB150469847D9F87D
:103230000C300133C9F80C30BDE8F087AB6D002BC2
:10324000D0D0D9F80020114201D0C20629D40322DF
:103250005046D5F8D8109847D9F80420C2E7484618
:103260002B49FFF75EFD48462A49FFF77FFDC6065A
:10327000044626D4A50706D5DAF838301BB15046E7
:1032800004F00101984704F00903092BD4D1640725
:1032900024D5DAF82C30002BCED050469847BDE824
:1032A000F08705225046D5F8D8109847D9F8042061
:1032B00098E704225046D5F8D8109847D9F804204A
:1032C00090E75046FFF76CFD504600F09DFCDAF8A1
:1032D0002830002BCED050469847CBE7DAF8303074
:1032E000002BDAD1A8E743077FF56DAFDAF8583045
:1032F000002B3FF479AF01225046DAF8D8109847F6
:10330000D9F8042070E700BF0005FB000002FB00B5
:103310000005FE000002FE0070B54D781646042D33
:103320001A4618D003D84DB1022D0DD027E0222D1A
:1033300013D0232D13D0202D21D115E00BB3036A18
:103340001BB33168984770BDDBB1846ADCB1498832
:103350003268A04770BD036B02E0436B00E0836BF3
:103360009BB14988984770BD2BB1C36B6BB100F11D
:103370001001984770BD00F11004346001E004486A
:1033800070BD104670BD204670BD184670BD00BFB0
:1033900002000400012A38B50446084602D0022A79
:1033A0002AD04AE094F8143203F07F02212A44D153
:1033B00094F81822097E914202D0417E91423CD17C
:1033C00004F5EA72DB09C4F8CC2104F5057104F5B3
:1033D000E67207D1456CA847054678BBB4F81A32A7
:1033E00063BB26E0056C04F5E873A847054628BBD7
:1033F000204600F098FB21E094F8143203F07F039C
:10340000212B1AD194F818320A7E9A4202D04A7EB1
:103410009A4212D1D4F8CC21B4F81A32456CD21A9F
:10342000C4F8CC2104F5057104F5E672A8470546F9
:1034300020B9204600F0A0FB00E0014D284638BD31
:103440000200040038B54D780446032D09D0212D23
:1034500014D0012D19D1456A1DB111461A46A8474D
:1034600038BDE56A1DB120464988A84738BD1068B7
:103470002946402200F080FD284638BD00F11004A6
:10348000146007221A80002038BD014838BD00BFF3
:103490000200040008B50346A120187101294FF06D
:1034A000000059719871D871187258729872D87258
:1034B0000BD007D3202910D102211A73120A997256
:1034C0005A730AE00AB101229A71197F1A1D18680D
:1034D0000823FFF72FFE002008BD014808BD00BFEC
:1034E000030001004C2070472DE9F0410C680746AD
:1034F00014F0030F0D4690468E684B6802D0472BA0
:1035000040F28380483B04F14B0223F0030322F096
:1035100003022A606B6020460021482200F02CFD47
:103520003B4B276023643B4B63642B6A23626B6ACB
:103530006362AB6AA362EB6AE3622B6B23636B6B20
:103540006363AB6BA363EB6BE3637378042B02D011
:103550003148BDE8F0817379022BF9D13379012B21
:10356000F6D8B37823763379012B04D0EB685A78F8
:10357000042AEDD115E033781E44327833461644E0
:103580005A78052A05D1DA78032AF6D19B78237771
:1035900001E0042AF1D1237F002BE7D11F48BDE8C9
:1035A000F0815A790A2AD3D19A79002AD0D1997810
:1035B000617619781944187982420FD20E7808463C
:1035C00031444678052E07D1C678022E04D1807882
:1035D00006064CBFA076E0760132ECE7A37E002B16
:1035E000DCD0E37E002BD9D0696C384621B90C4978
:1035F000224600F08DFC04E0224600F089FC084BD6
:103600006B64C8F80040BDE8F0810648BDE8F08171
:1036100045340100193301000800040009000400CA
:10362000953301000A00040090F8143213F01F03D0
:1036300005D100F29D12C0F8CC2118467047014810
:10364000704700BF010004007047704790F81432C3
:1036500003F01F03012B06D0022B15D0002B37D10E
:1036600000F5CF720DE090F89D318BB390F81822E1
:1036700090F89B319A422BD20023A0F8D43100F568
:10368000EA72C0F8CC2121E090F818321A064BBF3C
:103690004FF48031012103F00F0203F08F0201FA91
:1036A00002F290F89D1109B91B0711D1D0F8B4317D
:1036B0001A420DD0D0F8B8311A420CBF00230123B2
:1036C000A0F8D43100F5EA73C0F8CC31002070477F
:1036D000004870470100040010B590F8142212F061
:1036E0001F0237D190F81732022B09D0032B19D0C3
:1036F000012B2FD1D0F8A031C0F8CC31122321E01A
:10370000D0F8AC3190F816128A4205D01C780CB172
:103710005C8823440132F7E71A78DAB1C0F8CC317B
:103720005B880FE0D0F8A43190F81642A24204D092
:10373000197801B10B440132F8E71A7852B1C0F898
:10374000CC311B78B0F8D0219A4288BFA0F8D03194
:10375000002010BD004810BD0100040090F8143294
:1037600003F01F03012B0FD190F89D3163B190F846
:10377000183290F89B219A4206D903F5E07303446E
:10378000C0F8CC31002070470048704701000400A9
:10379000F8B590F81432044613F01F030D4602D01A
:1037A000022B1BD04AE0B0F81632012B0ED1036C6D
:1037B00003B19847B4F89E312DB143F00203A4F849
:1037C0009E310020F8BD23F00203F8E7022B35D12B
:1037D00090F81912BDE8F840FFF7A5BC90F8183230
:1037E0001A0603F08F0105D503F00F024FF480365F
:1037F000964001E001268E4094F89D21F2B11B070E
:103800001CD0D4F8B4311E4218D0B4F81672AFB937
:1038100035B12046FFF7B4FBD4F8B8311E430AE0B7
:10382000D4F8BC311E42CCD12046FFF7BDFBD4F802
:10383000B83123EA0606C4F8B861C2E70048F8BD0B
:1038400001000400F8B590F81472044617F01F0741
:1038500040F0BE8090F81632002B00F08480D0F843
:10386000A851D0F8AC3190F89A21012A08BF1D4622
:103870002B78002B00F0A2806B78042B4ED0052B08
:103880004ED0022B6CD16A7994F81632934243D110
:1038900084F89D312B7984F89B310023E2180133A1
:1038A0000021082B82F8C011F8D1012694F8993133
:1038B0009E4217D20122B240D4F8B4311A4203D04A
:1038C00020463146FFF736FB4FF48032B240D4F841
:1038D000B4311A4204D0204646F08001FFF72AFB9B
:1038E0000136E3E74FF00113C4F8B4310023C4F804
:1038F000B831C4F8BC3120460121FFF7D5FAEB7985
:1039000013F0400FB4F89E3114BF43F0010323F0CD
:103910000103A4F89E3123E06B8822E0EF781FE0DA
:10392000F7B9AB781A0603F08F0606D503F00F033C
:103930004FF4803202FA03F301E00123B340D4F8DC
:10394000B42120461343C4F8B4312946FFF7C6FA20
:1039500020463146FFF7DCFA20463146FFF7FEFAF3
:103960002B781D4484E780F89D31012594F8993126
:103970009D4217D20122AA40D4F8B4311A4203D092
:1039800020462946FFF7D6FA4FF48032AA40D4F8F1
:10399000B4311A4204D0204645F08001FFF7CAFA3C
:1039A0000135E3E700214FF00113C4F8B431C4F846
:1039B000B811C4F8BC112046FFF776FA94F89D01BF
:1039C00094F81622034B904214BF18460020F8BD0D
:1039D0000048F8BD010004002DE9F74F90F81432BB
:1039E000044603F01F03012B40F0918090F89D31B5
:1039F000002B00F08C80D0F8AC31D0F8A85190F8B2
:103A00009A210026012A08BF1D46434BB24637467D
:103A1000B1462A78002A78D06A78042A0AD0052A82
:103A20001CD0022A6ED1697994F89D21914269D007
:103A30006A8868E095F8029094F81822EF7891452A
:103A40005DD194F81622974259D104EB090393F8FB
:103A5000C0A183F8C07100231E4653E094F81822D9
:103A600091454FD195F8028018F0800F08F08F0B28
:103A700006D008F00F084FF4803202FA08F803E08D
:103A80004FF0010808FA0BF894F8162297421BD160
:103A9000D4F8B421204642EA0802C4F8B421D4F88C
:103AA000B821294622EA0802C4F8B8210193FFF799
:103AB00015FA20465946FFF72BFA20465946FFF7DC
:103AC0004DFA46EA080618E057451BD118EA060FDA
:103AD00017D1D4F8B4216FEA080802EA0802C4F842
:103AE000B421D4F8B821204602EA0802C4F8B8216B
:103AF00059460193FFF71EFABA46019B02E00026E1
:103B000000E0BA462A78154483E7184600E00248E8
:103B100003B0BDE8F08F00BF01000400002100F5F4
:103B20000572FFF704BBB0F8D03110B5402B28BFA9
:103B300040238021D0F8CC210446FFF7FBFAD4F8CB
:103B4000CC310344C4F8CC31B4F8D031181AA4F8FD
:103B5000D00110BD10B50021D0F8CC210446FFF7EC
:103B6000A1FAD4F8CC310344C4F8CC31B4F8D03144
:103B7000181AA4F8D00110BD002280211346FFF7C7
:103B8000D9BA002100F5EA72FFF78CBA10B580218E
:103B90000446FFF7F5F90023A4F8D03110BDFFFF6C
:103BA00090F8143213F01F0307D190F8162262F038
:103BB0007F0280F89C21184670470148704700BF7B
:103BC00001000400F8B504460F460546002694F8A7
:103BD00098319E4213D2D5F858316BB12046D5F8B2
:103BE00078113A469847074B984205D0054638B1B8
:103BF0002046FFF7CBFF03E001360435E7E7014D30
:103C00002846F8BD0200040001224FF00111A0F87F
:103C10009E210022C0F8B41180F89C2180F89D21DB
:103C2000C0F8B821C0F8BC210E21FFF7CBBFFFFFC1
:103C300010B50446FFF772FF94F814122046C90924
:103C4000FFF765F9B4F81A322046A4F8D031012103
:103C5000FFF7B8FF374B98426AD194F81432C3F398
:103C6000411313B1022B50D05EE094F815320B2BA8
:103C70005AD8DFE803F0060F5913591E27293133AC
:103C80003C3EE3682046984700284DD12046FFF788
:103C90004AFF4CE0636A2046002102E0636A204646
:103CA0000121984700283FD12046FFF765FFE36CCC
:103CB00027E02046FFF774FF002835D12046FFF7A4
:103CC0005BFF34E02369DDE720460021FFF758F968
:103CD0000023A4F8D0312AE06369D3E7A369204622
:103CE000984708BB2046FFF747FF636C09E0E3698C
:103CF000C8E7236A20469847B0B92046FFF73CFF43
:103D0000A36CA3B12046984711E0A36863B1204695
:103D10000121984740B9B4F81A32002BCED094F85C
:103D20001432DB0903D0B1E72046FFF72FFF002054
:103D300010BD00BF0200040038B590F814320446EC
:103D4000DB0923D1B0F8D03113B3FFF703FFB4F888
:103D5000D031EBB920460221FFF734FF0F4B9842D8
:103D600018D194F81432C3F34113022B0AD1A3687B
:103D700043B1204601219847054618B92046FFF770
:103D8000FBFE08E02046FFF701FF01E0FFF7F9FE28
:103D9000002500E00546284638BD00BF02000400AB
:103DA000013A10B50446062A40D8DFE802F0041DA7
:103DB00021063F3A3C00036817E00421FFF702FFA9
:103DC0001B4B984232D194F814122046C90904D1F1
:103DD000D4F8CC21B4F8D03103E00021D4F8CC21C0
:103DE0000B46FFF7A2F921E04368204698471DE003
:103DF00090F81432DB0909D00321FFF7E3FE0C4BE6
:103E0000984213D12046FFF78EFE0FE090F89C11E8
:103E10000B060BD501F07F0180F89C11FEF7EAFF3D
:103E200004E0002100E08021FFF7BEF8002010BD73
:103E30000200040070B515460E464FF407720021CB
:103E4000044600F099F82A7B254B84F89921A36554
:103E5000C4F8D84012B1E365C4F8DC40214B224AD3
:103E60002360224B6360224BE360224B6362224B50
:103E70002361224B6361224BA361224BE361224BFE
:103E80002362EB6B002B08BF134623651F4A2B6C84
:103E9000002B08BF134663656B6A2364AB6AA36398
:103EA0002B69A3626B69E362AB6923632B6A63636B
:103EB000EB6AE3632B6B63646B6BA364AB6BE364D0
:103EC0003368C4F8A0317368C4F8A431B368C4F887
:103ED000A831F368C4F8AC313369C4F8B03170BDAF
:103EE000A13D0100313C010049360100393D01008E
:103EF0004D36010091370100D93601002936010005
:103F0000453801005D370100D93901004B36010009
:103F100010B590F89831072B0AD800EB83040133D1
:103F2000C4F85811C4F8782180F89831002010BDE9
:103F3000004810BD0B00040010B590F89941B1EB9A
:103F4000440F06D800EB81008265C0F8D83000200D
:103F500010BD014810BD00BF030001000A4491429A
:103F600000F1FF3300D1704710B511F8014B9142B9
:103F700003F8014FF9D110BD03460244934200D12A
:103F8000704703F8011BF9E70EB46FF0004100B56C
:103F90009CB01DAB02900690079104910848094916
:103FA00053F8042B0591006802A9019300F070F802
:103FB0000022029B1A701CB05DF804EB03B070473E
:103FC0001C0000100802FFFF034613F8012B002A13
:103FD000FBD1181A013870472DE9F0478E688246E8
:103FE0009E420C4690461F4638D88A8912F4906F3C
:103FF00032D0256809690133A5EB010965694B4495
:1040000005EB450505EBD5756D109D4238BF1D4686
:10401000530531D5294600F045FB064650B90C231F
:104020004FF0FF30CAF80030A38943F04003A3816A
:10403000BDE8F0874A462169FFF790FFA38923F482
:10404000906343F08003A38126614E4426603E4680
:104050006561A5EB0905A560BE4200D93E46324622
:104060004146206800F0B8FAA36822689B1B3244DE
:104070000020A3602260DBE72A4600F06DFB0646C5
:104080000028E1D15046216900F0C0FAC7E7FFFFE0
:104090002DE9F04F98468B8907461B060D461446BE
:1040A0009DB00ED50B6963B9402100F0FBFA286082
:1040B000286120B90C233B604FF0FF30D1E0402352
:1040C0006B610023099320238DF8293030234FF0B2
:1040D0000109CDF80C80DFF8A4818DF82A30234641
:1040E0009A4613F8012B0AB1252AF9D1BAEB040B31
:1040F0000BD05B46224629463846FFF76DFF01305C
:1041000000F0AA80099A5A4409929AF80030002BCC
:1041100000F0A28000234FF0FF32CDE905230AF121
:10412000010A049307938DF853301A9354460522DD
:1041300014F8011B514800F041FA049AD8B9D0068E
:1041400044BF20238DF85330110744BF2B238DF833
:1041500053309AF800302A2B15D0544600204FF0E7
:104160000A0C079A214611F8013B303B092B4ED926
:10417000B0B1079214E0A0EB080309FA03F313436C
:10418000A2460493D2E7039B191D1B680391002BE1
:10419000BBBF5B4242F0020207930793B8BF049291
:1041A00023782E2B0CD163782A2B35D1039B023434
:1041B0001A1D1B680392002BB8BF4FF0FF33059305
:1041C000DFF8C8A003225046217800F0F7F940B18B
:1041D0004023A0EB0A0003FA00F0049B01340343E0
:1041E000049314F8011B062225488DF8281000F0CE
:1041F000E5F9002838D0234B1BBB039B073323F082
:10420000070308330393099B3344099367E70C467C
:1042100001200CFB0232A5E700234FF00A0C1946DF
:1042200001340593204610F8012B303A092A03D9AE
:10423000002BC5D00591C3E7044601230CFB0121E7
:10424000F0E703AB00932A4638460F4B04A9AFF3BF
:104250000080421C0646D6D1AB895B063FF52CAFE9
:1042600009981DB0BDE8F08F03AB00932A4638468D
:10427000054B04A900F07CF8EBE700BFAC4B010054
:10428000B64B010000000000D93F0100B24B010015
:104290002DE9F047164699468A680B69074693420E
:1042A000B8BF1346336091F843200C46DDF82080F8
:1042B0000AB1013333602368990642BF3368023381
:1042C0003360256815F0060506D104F1190AE36884
:1042D00032689B1AAB4228DC94F84320131E2268F4
:1042E00018BF012392062DD44946384604F14302F3
:1042F000C047013020D02368E56803F00603042B93
:1043000018BF002532684FF00006A36808BFAD1A39
:10431000226908BF25EAE5759342C4BF9B1AED18D0
:104320001A34B5421AD1002008E00123524649460A
:104330003846C047013003D14FF0FF30BDE8F08769
:104340000135C4E73020E11881F843005A1C94F885
:1043500045102244023382F84310C5E70123224668
:1043600049463846C0470130E6D00136D9E7FFFF5D
:104370002DE9FF470C46277E9146782F80469A46C6
:104380000C9904F1430207D8622F0AD8002F00F0DD
:10439000D980582F00F0A48004F1420684F84270BE
:1043A0003AE0A7F16303152BF6D801A050F823F0EB
:1043B000094401001D440100994301009943010093
:1043C00099430100994301001D44010099430100F4
:1043D0009943010099430100994301002B450100D5
:1043E0004D4401000D45010099430100994301002E
:1043F0004D450100994301004D44010099430100DE
:1044000099430100154501000B6804F142061A1D8D
:104410001B680A6084F842300123A4E0256808681C
:104420002E0600F104030AD505680B60002D03DA9F
:104430002D236D4284F843300A235E4819E015F0BD
:10444000400F05680B6018BF2DB2EFE70B682568B9
:10445000181D0860280601D51D6802E06906FBD515
:104460001D886F2F0CBF08230A235248002184F8AF
:1044700043106668002EA8BF2168A660A4BF21F083
:10448000040121600DB9002E4DD01646B5FBF3F1A5
:1044900003FB1157C75D06F8017D2F46BB420D4651
:1044A000F4D9082B0BD12368DF0708D5236961688D
:1044B0009942DEBF302306F8013C06F1FF36921B1D
:1044C00022614B4621464046CDF800A003AAFFF7E3
:1044D000DFFE01304CD14FF0FF3004B0BDE8F08773
:1044E000344884F845700E68236856F8045B1F064C
:1044F0000E6014D5D90744BF43F0200323601DB9D3
:10450000236823F0200323601023AFE7236843F0E0
:10451000200323607823284884F84530E3E75E06CB
:1045200048BFADB2E6E71646BBE70B6826681D1D1F
:1045300060690D6035061B6801D5186002E07106E0
:10454000FBD51880002316462361BAE70B681A1DB5
:104550000A601E6800213046626800F02FF808B13A
:10456000801B606063682361002384F84330A8E700
:104570003246494640462369D0470130ABD02368D4
:104580009B0713D4E068039B9842B8BF1846A4E782
:104590000123324649464046D04701309BD0013581
:1045A000E36803995B1AAB42F2DCEBE7002504F108
:1045B0001906F5E7BD4B0100CE4B0100034610B5CF
:1045C000C9B202449342184601D1002003E00478A6
:1045D00001338C42F6D110BD884210B501EB0204C4
:1045E00002D98442234607D8431EA14208D011F8BD
:1045F000012B03F8012FF8E7014602448A4200D15B
:1046000010BD13F8014D02F8014DF7E738B5054626
:10461000002943D051F8043C0C1F002BB8BFE4180C
:1046200000F0D0F81E4A1368104633B96360146076
:104630002846BDE8384000F0CBB8A3420AD921682B
:104640006218934201BF1A685B6852182260636067
:104650000460EDE71A465B680BB1A342FAD9116812
:104660005018A0420BD120680144501883421160B9
:10467000DED118685B68014411605360D8E702D945
:104680000C232B60D4E7206821188B4201BF1968E6
:104690005B680918216063605460C9E738BD00BFDA
:1046A000E4030010F8B5CD1C25F0030508350C2DEA
:1046B00038BF0C25002D064601DBA94203D90C2387
:1046C00033600020F8BD00F07DF821490A681446E7
:1046D0009CB9204F3B6823B92146304600F062F870
:1046E00038602946304600F05DF8431C23D10C2386
:1046F0003046336000F06CF8E3E723685B1B17D4A7
:104700000B2B03D923601C44256004E06368A2429C
:104710000CBF0B605360304600F05AF804F10B00F8
:10472000231D20F00700C21ACCD01B1AA350C9E7E2
:1047300022466468CCE7C41C24F00304A042E3D002
:10474000211A304600F02EF80130DDD1CFE700BF4E
:10475000E4030010E8030010F8B5074614460E46BF
:1047600021B91146BDE8F840FFF79CBF22B9FFF719
:104770004DFF25462846F8BD00F030F8A0420FD284
:1047800021463846FFF78EFF05460028F2D0314615
:104790002246FFF7E3FB31463846FFF737FFE9E7EC
:1047A0003546E7E738B50023054D044608462B603B
:1047B00000F01EF8431C02D12B6803B1236038BD02
:1047C000F4030010014800F011B800BFFC03001012
:1047D000014800F00CB800BFFC03001051F8043C85
:1047E000181F002BBCBF0B58C0187047704770478C
:1047F00070B50C4D2B680BB90B4B2B60C41C2E688D
:1048000024F003043444204600F010F810B92C6062
:10481000304670BD00F014F80C234FF0FF360360F3
:10482000F6E700BFEC030010040400100346034841
:1048300018B1834234BF00200120704700000000FF
:10484000014B1868704700BF1C000010765461735C
:104850006B5F486172744265617400FF50696E67F6
:104860000049444C4500546D725100546D72205300
:10487000766300FF244B0100804B01000000000024
:104880000000000000000000A04B0100000000003C
:10489000011122025F315F785175655F4D65737359
:1048A0005F53656E64005F305F436F6D5F53656E8D
:1048B000645F44617461005F315F785175655F4D7D
:1048C0006573735F5265636569766500315F436F39
:1048D0006D5F5265636F6D706F5F5278003161007C
:1048E000340049412072656C656173653D20257314
:1048F0002E25733B2025733B2025730A0032303A66
:1049000030313A3231004E6F762031382032303239
:1049100030004941204E62204572726575727320E5
:10492000636F6D6D756E69636174696F6E3D20258F
:104930006C64202F2F20706F6E67733D20256C6490
:104940000A00FFFF44656275745F496E746572709A
:104950007265746174696F6E0000000046696E5F75
:10496000496E746572707265746174696F6E00313E
:104970005F436F6D5F4C6563747572655F5258007D
:10498000004495080B00000000000000010000003A
:104990000020A1070F00000000000000020000003E
:1049A000000E27070E0000000000000002000000BB
:1049B00000E1F505630000000500000003000000B1
:1049C000804A5D050E0000000000000003000000AA
:1049D00000B4C404630000000500000004000000EF
:1049E000801D2C04220000000200000003000000D3
:1049F00040D2DF031A0000000000000004000000A5
:104A0000008793030E000000000000000500000076
:104A100080F0FA02630000000500000007000000BB
:104A2000005A620263000000050000000900000057
:104A300080C3C9010E000000000000000B00000050
:104A4000002D31010E0000000000000011000000E8
:104A50008096980022000000020000001B00000069
:104A60000000000000000000000000000000000046
:104A7000004495080800000000000000010000004C
:104A80000020A1070B000000000000000200000051
:104A9000AABE4F070B00000000000000020000004B
:104AA00000E1F5051800000001000000030000000F
:104AB00000D8B80508000000000000000200000057
:104AC00000B4C4041800000001000000040000004D
:104AD0000090D0030B000000010000000200000065
:104AE000006CDC0208000000010000000200000071
:104AF0000048E8010B000000030000000200000075
:104B00000024F40000000000030000000100000089
:104B10000000000000000000000000000000000095
:104B2000008000007F2D0100252E0100852D010051
:104B300079310100A12D010025310100F12D010085
:104B4000F52D0100A92E0100DD2E01000F2F01001F
:104B5000112F0100352F01005D2F0100812F010071
:104B6000A92F010027310100A53001002B310100E0
:104B70002F31010035310100D12D0100CD2F010071
:104B8000113F0100393F01001D3B0100273B01009F
:104B9000553B0100793B0100833B01008D3B010047
:104BA000E5340100E934010095340100232D302B58
:104BB0002000686C4C00656667454647003031321E
:104BC0003334353637383941424344454600303175
:104BD000323334353637383961626364656600FFD5
:104BE000AECB072000200000000000000000000005
:104BF000AAAAAAAA744801000024F4002000001008
:104C000000000000000000000000000000000000A4
:104C10000000000000000000000000000000000094
:104C20000000000000000000000000000000000084
:104C30000000000000000000000000000000000074
:104C40000000000000000000000000000000000064
:104C50000000000000000000000000000000000054
:0400000310000139AF
:00000001FF
