:020000021000EC
:100000000080001045010100090101000B01010001
:100010000D0101000F0101001101010000000000AD
:10002000000000000000000000000000211001009E
:10003000130101000000000081100100C510010043
:100040001501010015010100150101001501010054
:10005000150101001501010009660100E1660100BA
:100060001501010015010100150101001501010034
:100070001501010015010100150101001501010024
:100080001501010015010100150101001501010014
:100090001501010015010100150101001501010004
:1000A0007D67010015010100150101001501010026
:1000B00015010100150101001501010015010100E4
:1000C000150101001501010015010100D8E0010032
:1000D0000000001000020000D8E0010000C007206E
:1000E00000000000D8E0010000C807200000000068
:1000F00000020010C052000000C0072000000000F5
:1001000000C807204C4A0000FEE7FEE7FEE7FEE7D6
:10011000FEE7FEE7FEE70023934209D210B450F851
:10012000044B41F8044B04339342F8D310BC70479E
:10013000704700238B4204D2002240F8042B043382
:10014000F8E7704710B50E4B07E003F10C049A680E
:1001500059681868FFF7DFFF23460A4A9342F4D331
:1001600006E01C46596854F8080BFFF7E2FF2346E7
:10017000054A9342F5D300F067FA00F0D5F9FEE79F
:10018000CC000100F000010008010100FEE7FEE7DD
:10019000FEE700BFFFFFFFFFFFFFFFFFFFFFFFFFC7
:1001A000FFFFFFFFFFFFFFFFFFFFFFFFFFFFFFFF5F
:1001B000FFFFFFFFFFFFFFFFFFFFFFFFFFFFFFFF4F
:1001C000FFFFFFFFFFFFFFFFFFFFFFFFFFFFFFFF3F
:1001D000FFFFFFFFFFFFFFFFFFFFFFFFFFFFFFFF2F
:1001E000FFFFFFFFFFFFFFFFFFFFFFFFFFFFFFFF1F
:1001F000FFFFFFFFFFFFFFFFFFFFFFFFFFFFFFFF0F
:10020000FFFFFFFFFFFFFFFFFFFFFFFFFFFFFFFFFE
:10021000FFFFFFFFFFFFFFFFFFFFFFFFFFFFFFFFEE
:10022000FFFFFFFFFFFFFFFFFFFFFFFFFFFFFFFFDE
:10023000FFFFFFFFFFFFFFFFFFFFFFFFFFFFFFFFCE
:10024000FFFFFFFFFFFFFFFFFFFFFFFFFFFFFFFFBE
:10025000FFFFFFFFFFFFFFFFFFFFFFFFFFFFFFFFAE
:10026000FFFFFFFFFFFFFFFFFFFFFFFFFFFFFFFF9E
:10027000FFFFFFFFFFFFFFFFFFFFFFFFFFFFFFFF8E
:10028000FFFFFFFFFFFFFFFFFFFFFFFFFFFFFFFF7E
:10029000FFFFFFFFFFFFFFFFFFFFFFFFFFFFFFFF6E
:1002A000FFFFFFFFFFFFFFFFFFFFFFFFFFFFFFFF5E
:1002B000FFFFFFFFFFFFFFFFFFFFFFFFFFFFFFFF4E
:1002C000FFFFFFFFFFFFFFFFFFFFFFFFFFFFFFFF3E
:1002D000FFFFFFFFFFFFFFFFFFFFFFFFFFFFFFFF2E
:1002E000FFFFFFFFFFFFFFFFFFFFFFFFFFFFFFFF1E
:1002F000FFFFFFFFFFFFFFFFFFFFFFFFFFFFFFFF0E
:1003000008B54FF0402007F041FD4FF04023022296
:100310005A6000225A6040F6FF12DA6001225A60E9
:1003200008BDFFFF10B5084C2146084807F0BEFC89
:10033000204607F0E5FD07F0EBFA07F0E7FD04487B
:1003400000F0B4FD10BD00BF0024F4000020A107A0
:100350000000001010B5174B1A6842F480421A6072
:100360001A6842F400421A601A6842F480321A6035
:10037000DA6942F48032DA61DA6942F40042DA6121
:10038000DA6942F48042DA6100240AE0094A93699A
:1003900043F48043936184F0010441F2883002F019
:1003A00009F9002CF2D1034AD36943F48043D361A5
:1003B000F1E700BF20C0092008B5584802F0FAF85C
:1003C000574802F035FC01F067FF42F2107002F06E
:1003D000F1F80321022006F005F800230F2B02DCC0
:1003E00000BF0133FAE700221AE000BF01330F2BF0
:1003F000FBDD4C4B5B6913F0260F01D10023F6E7C0
:10040000484B0A21196003E000BF01330F2BFBDDCD
:10041000444B5B6913F0260F01D10023F6E701324C
:10042000022A03DC3F4B0D211960E2E73D4B4922D4
:100430001A6003E000BF01330F2BFBDD394B5B6912
:1004400013F0260F01D10023F6E7364B41221A6044
:1004500003E000BF01330F2BFBDD324B5B6913F070
:10046000260F01D10023F6E72E4B3A221A6003E053
:1004700000BF01330F2BFBDD2A4B5B6913F0260F06
:1004800001D10023F6E7274B0D221A6003E000BFDD
:1004900001330F2BFBDD234B5B6913F0260F01D1DA
:1004A0000023F6E71F4B0A221A6003E000BF013366
:1004B0000F2BFBDD1B4B5B6913F0260F01D10023D3
:1004C000F6E700230FE000BF01330F2BFBDD154BD8
:1004D0005B6913F0260F05D100230F2BF7DC00BF5B
:1004E0000133FAE71346B3F57A7F06DA5A1C0C4952
:1004F000C95C0C4B19600023E7E70023632B02DC87
:1005000000BF0133FAE70321022005F076FF6420E3
:1005100002F050F801F0C0FEFEE700BFC0C62D009B
:1005200000C807200000014070B582B0FFF7FAFE56
:10053000002004F04BF900F03DF80E4E0024019429
:10054000012500952346462231460B4801F0EDFC7B
:100550000194009523464FF4A07206F1100107485C
:1005600001F0E3FC00F07CF801F04AFE284602B0FE
:1005700070BD00BF2CC5010055030100B903010087
:100580007047FFFF024A936943F00103936170478C
:1005900040C00920024AD36943F00103D361704788
:1005A00040C00920024AD36943F08003D3617047F9
:1005B00040C0092000B583B01C4B1A6842F001020C
:1005C0001A601A6842F080021A601A6842F010023B
:1005D0001A601A6842F020021A601A6842F040025B
:1005E0001A60FFF7D7FFFFF7DDFF06F0B3F905F05C
:1005F0003FFF05F0DDFE04F057FC04F001F906F0C2
:10060000B7F906F0F3FC07F023F900F015F806F04F
:1006100003FC00230193012200924FF41672044957
:10062000044801F082FC03B05DF804FB40C00920DF
:1006300048C501000950010008B504F0A1FC0121E2
:1006400006F0A6FE08BDFFFF08B5034A034B1A607B
:1006500007F09AFB08BD00BF0000010008ED00E0B4
:1006600080B582B002AF00230193022300930023E0
:10067000F0220349034801F058FC00BFBD4680BD8D
:1006800058C501008906010000B585B041F28830E7
:1006900001F090FF0121084606F096FE0121084670
:1006A00006F0B6FE44F6206001F084FF0123594AAB
:1006B00059495A4806F0D2FE4FF00008CDF80080A4
:1006C000012342464FF4FA71084604F01DF9DFF8A1
:1006D0005491534D4946284609F0B2FE01230322A6
:1006E0001946284606F082FDDFF83CA1CDF800A0AF
:1006F0004346012240F6192140F2BA6004F062F943
:1007000009F11801284609F09BFE0123032219462E
:10071000284606F06BFD4FF07E56012402940196A8
:100720000096334632463146304606F0D9FFCDF8C2
:1007300000A0434622464FF416714FF47A7004F03D
:1007400041F909F13001284609F07AFE23460322D7
:100750002146284606F04AFDCDF800A04346224631
:1007600040F64C114FF47A7004F02CF909F148016D
:10077000284609F065FE234603222146284606F056
:1007800035FD0294019600963346324631464FF0CD
:100790007C5006F0A5FFCDF800802346424640F687
:1007A00054314FF47A7004F0AFF809F16001284633
:1007B00009F046FE234603222146284606F016FD90
:1007C00000942346424640F64C114FF47A7004F0F0
:1007D0009BF809F17801284609F032FE23460322EE
:1007E0002146284606F002FDCDF800A02346224609
:1007F0004FF416714FF47A7004F0E4F809F19001A7
:10080000284609F01DFE234603222146284606F00D
:10081000EDFC51E70000B44200007A43000061445F
:100820000002001068C501006D4D010038B50A4690
:10083000454C04F5AC754549284609F001FE3823BE
:1008400084F84030FE2384F841300223A37006234D
:100850006370284609F01CFE3B2832D93B233A48F6
:10086000037000F5AC7009F013FE3B282ED93B2233
:10087000354C04F5AC71E01C09F06CF93E2384F8AA
:1008800042304022214604F1430009F063F90A2373
:10089000A4F8843004F1400006F0C6F8014604F1E3
:1008A00088054D22284609F055F98022294604F191
:1008B000D80009F04FF90321022005F09EFD002326
:1008C0000BE0284609F0E4FDC3B2C8E7204809F070
:1008D000DFFD0246CCE700BF013340F6B73293425A
:1008E000F9DD0321022005F07DFD00220FE000BFAD
:1008F00001330F2BFBDD174B5B6913F0260F05D17E
:1009000000230F2BF7DC00BF0133FAE701324C2A3A
:1009100007DC0D4B134493F8D8100E4B19600023DD
:10092000E7E7002301E000BF0133632BFBDD032178
:10093000022005F062FD4FF0280383F31188BFF316
:100940006F8FBFF34F8FFEE700CC072010C601006A
:1009500058CD0720000001401AB9084206D11046C0
:10096000704731EA000303D0002070470120704730
:100970000120704710B51C2000F000FA0446002842
:100980003CD0002340F8043B00F0D2FA062003F0EC
:1009900017FA81B2204602F0FBFB204B1988204653
:1009A00002F002FC204602F0E9FBC1B2062003F08F
:1009B000B1F802F00FFC02F0A2FB194B1B881840A3
:1009C00080B248B9204602F0D9FB0022C1B206200D
:1009D00003F0B2F9204610BD204602F0D4FB104BC4
:1009E0001B88184080B20028ECD0204602F0C6FBDD
:1009F000C2B20621C22003F04FFDE3E702F0EAFB9A
:100A000002F07DFB064B1B88184080B20028E1D025
:100A10000021C32003F0F6FDDCE700BF1A00001040
:100A20001C0000102DE9F04705460E4690461F4673
:100A3000DDF8209001F030FC2C683A463146204623
:100A4000FFF78AFF70B3B8F1000F6ED024EA0603F7
:100A50002B604FF0000AD14601F0D0FCB9F1000F35
:100A600010D038B9574B4FF080521A60BFF34F8FF8
:100A7000BFF36F8F02F03CF9044610F0007F5BD0AB
:100A800024F07F44BAF1000F7DD002F0A3FB02F006
:100A900036FB4D4B1B88184080B2002860D12046A1
:100AA000BDE8F0878246B9F1000F42D0B8F1000FDF
:100AB0001CD100210FB141F080614A463143281D0D
:100AC00001F044FE02F086FB02F019FB3E4B1B884E
:100AD000184080B268B902F07DFB02F010FB3A4B7F
:100AE0001B88184080B2B8B90024B5E74FF0807178
:100AF000E0E7284602F047FB334B1B88184080B2E2
:100B00000028E8D0284602F039FB3346C2B206215D
:100B1000C62003F017FDDEE702F05CFB02F0EAFA04
:100B2000C0B203F031F9002496E7C2464FF0000945
:100B300092E74FF0010A8FE700F084FA2C683A46FA
:100B400031462046FFF708FF28B1B8F1000F02D068
:100B500024EA06032B6000F085FA4FF0010A8FE7C4
:100B6000284602F010FB184B1B88184080B2002862
:100B700095D0284602F002FB3346C2B20621CD20B2
:100B800003F0E0FC8BE702F025FB02F0B8FA0E4B15
:100B90001B88184080B2002881D0284602F0F3FA62
:100BA000094B1B88184080B200283FF478AF2846D4
:100BB00002F0E4FA3346C2B20621C72003F0C2FCB9
:100BC0006DE700BF04ED00E01C00001070B50546A5
:100BD0000C4600F037FA02F0FDFA02F090FA104BE2
:100BE0001B8803409BB23BB92E6826EA04042C60A4
:100BF00000F038FA304670BD284602F0C4FA084BBF
:100C00001B88184080B20028EED0284602F0B6FAC1
:100C10002346C2B20621C82003F094FCE4E700BFDB
:100C20001C000010F8B504460D4600F10C0601F05A
:100C300033FB02F0CFFA02F062FA214B1B88184016
:100C400080B228B9206921682943216000271DE06E
:100C5000204602F098FA1A4B1B8803409BB2002BE7
:100C6000F0D0204602F08AFA2B46C2B20621CA20F2
:100C700003F068FCE6E7216832EA010105D111E0E2
:100C8000216841F0007101F0FDFD2846B0420ED010
:100C90004568036823F07F4213F0806FEBD1216831
:100CA0001142F2D013F0807FEAD01743E8E72368BF
:100CB00023EA0707276001F0A1FB2068F8BD00BF09
:100CC0001C00001008B5FFF7ADFF08BD70B5044665
:100CD0000D46164602F057FA0C4B1B8803409BB298
:100CE0004BB90B4B01221A6033462A46214609486C
:100CF00002F0E4F970BD204602F040FA2B46C2B281
:100D00000621CE2003F01EFCEBE700BF1C00001004
:100D100000040010C50C010008B180697047002074
:100D2000704781617047FFFF10B4124B1A461B6871
:100D30008342FBD351685418844209D04168441857
:100D4000A3420AD00360904200D0106010BC7047EC
:100D50004068014451601046F0E7074C2468A34204
:100D600006D05B681944416013681B680360EAE7BA
:100D70000460E8E7600200104802001070B5054604
:100D800001F08AFA2A4B1B681D4246D135B108355D
:100D900015F0070F02D025F007050835002D41D0CA
:100DA000244B1B68AB423FD3234A146801E0224620
:100DB0001C466368AB4202D22368002BF7D11F4B5D
:100DC0001B68A34232D01668083623681360636834
:100DD0005B1B102B1BD8626816490B689B1A0B60B3
:100DE000174909688B4201D215490B60104B1B68EB
:100DF0001343636000232360124A136801331360B6
:100E000066B12A463146942003F0EAFA06E06019FA
:100E100043606560FFF788FFDDE7002601F0EEFA2A
:100E2000304670BD0026F9E70026F7E70026F5E713
:100E30004C02001050020010600200104802001026
:100E4000540200105802001040B338B50446A0F117
:100E5000080550F8043C124A1268134202D050F8B8
:100E6000081C01B138BD23EA020340F8043C01F03C
:100E700013FA54F8042C0B490B6813440B605242CC
:100E80002146962003F0ACFA2846FFF74DFF064AAC
:100E900013680133136001F0B1FAE3E7704700BF54
:100EA0004C020010500200105C020010F0B4024628
:100EB00000210E4614E0194C25681344083B23F02A
:100EC0000703236000245C601C6014469F1A57606F
:100ED000136005B12A6063681E44013100EBC10252
:100EE000536883B1126812F0070F05D0D41D24F0A7
:100EF0000704121B134422460029DCD1084C22604F
:100F000000256560D7E7074B1E60074B1E60074B47
:100F10004FF000421A60F0BC704700BF480200105A
:100F20006002001054020010500200104C02001029
:100F300000F1080343604FF0FF328260C360036139
:100F400000230360704700230361704743684B60D0
:100F50009A688A6051609960086103680133036090
:100F6000704730B40D68B5F1FF3F11D000F10803B0
:100F70001C465B681A68AA42FAD963684B6099609C
:100F80008C606160086103680133036030BC7047A6
:100F90000469F2E70369416882688A6041685160C8
:100FA0005A68824206D0002202611A68013A1A6029
:100FB0001868704782685A60F5E782B00023019391
:100FC0004FF0280383F31188BFF36F8FBFF34F8F68
:100FD000019B002BFCD002B07047FFFF0648006861
:100FE000006880F3088862B661B6BFF34F8FBFF325
:100FF0006F8F00DF00BF000008ED00E04FF080734E
:1010000040F8043C21F0010140F8081C034B40F873
:101010000C3C40F8202C4038704700BFBB0F01004B
:10102000074B19680868B0E8F00F80F30988BFF330
:101030006F8F4FF0000080F311884EF00D0E704757
:10104000B80200104FF0280383F31188BFF36F8FAD
:10105000BFF34F8F024A136801331360704700BF1C
:1010600010000010034A1368013B13600BB983F3AF
:101070001188704710000010FFFFFFFFFFFFFFFF08
:10108000EFF30980BFF36F8F0D4B1A6820E9F00F63
:1010900010602DE908404FF0280080F3118801F01E
:1010A000CDFA4FF0000080F31188BDE808401968C0
:1010B0000868B0E8F00F80F30988BFF36F8F7047BE
:1010C000B802001008B54FF0280383F31188BFF36E
:1010D0006F8FBFF34F8F01F0EDF818B1034B4FF056
:1010E00080521A60002383F3118808BD04ED00E0EC
:1010F000054B00221A6005490A60054A43F2FF11B8
:10110000116007221A60704710E000E018E000E06C
:1011100014E000E010B50B4B1A6842F478021A6034
:101120001A6842F078421A60FFF7E2FF0024064B8B
:101130001C60FFF753FF01F081FAFFF73EFF2046E6
:1011400010BD00BF20ED00E01000001010B50446F7
:10115000FFF778FFA26BE36B9A4204D00024FFF7FD
:1011600081FF204610BD0124F9E710B50446FFF7C2
:1011700069FFA36B23B90124FFF774FF204610BD5C
:101180000024F9E770B504461546866B026C5AB91F
:1011900003681BB100200136A66370BD806801F0B2
:1011A000D3FC0023A360F6E76DB9406808F0D2FCD9
:1011B000226C636813446360A268934219D3236866
:1011C00063602846E7E7C06808F0C4FC226C51421F
:1011D000E3689B1AE3602268934202D2A3680B443F
:1011E000E360022D01D00020D5E726B1013E0020AA
:1011F000D1E72846CFE70020CDE70346026C6AB16D
:1012000010B50846D9681144D9609C68A14201D341
:101210001968D960D96808F09DFC10BD704738B5D1
:101220000546FFF70FFF95F8454064B203E001F073
:10123000A1FB013C64B2002C08DD6B6A33B105F1FF
:10124000240001F0D3FA0028F3D0F0E7FF2385F85B
:101250004530FFF707FFFFF7F5FE95F8444064B20D
:1012600003E001F087FB013C64B2002C08DD2B6930
:1012700033B105F1100001F0B9FA0028F3D0F0E71E
:10128000FF2385F84430FFF7EDFE38BD38B504463E
:101290000D46FFF7D7FE2168E26B236C03FB0210BB
:1012A000A0600020A0636160013A02FB0313E360C9
:1012B000FF2384F8443084F84530A5B923691BB96D
:1012C000FFF7D0FE012038BD04F1100001F08EFAC6
:1012D0000028F5D0084B4FF080521A60BFF34F8FB3
:1012E000BFF36F8FECE704F11000FFF721FE04F16C
:1012F0002400FFF71DFEE3E704ED00E070B51D4696
:10130000049C0B4600293AD12460E0632364012148
:101310002046FFF7BBFF84F84C50204601F0E6FE64
:10132000264D285C02F04CFD81B2204601F00EFFF4
:10133000234B1988204601F015FF204601F0D6FE08
:101340002D5C204601F0F8FEC1B2284602F0E2FB17
:1013500001F040FF01F0D3FE1A4B1B88184080B209
:1013600078B9204601F0C2FE144B1D5C204601F006
:10137000E3FE0022C1B2284602F0DEFC70BD22600E
:10138000C3E7204601F0DDFE0E4B1B88184080B2FB
:101390000028E6D0204601F0A9FE084E355C18353D
:1013A000EDB2204601F0A2FE365C204601F0C4FEFC
:1013B000C2B23146284603F06FF8D2E7140000109D
:1013C0001A0000101C000010F0B583B004460D4652
:1013D000174601FB00F05030FFF7D0FC064650B135
:1013E00000903B4600F1500229462046FFF786FF59
:1013F000304603B0F0BD01F0EDFE01F080FE074B7A
:101400001B88184080B20028F2D0054BD85D4030D0
:101410000021C0B203F0F6F8EAE700BF1C0000109C
:10142000140000102DE9F04385B004460F460192E8
:101430001D460026C7E001F0CDFE01F060FE9E4B88
:101440001B8803409BB27BBB204601F04FFEDFF8B8
:10145000709219F80080204601F06EFEC6B2204658
:1014600001F044FE19F80030022B3DD0A26BD2B23D
:101470000132D2B23146404602F05EFC2A4639467D
:101480002046FFF77FFE636A83BB38B18B4B4FF07A
:1014900080521A60BFF34F8FBFF36F8FFFF7E2FDEB
:1014A000012005B0BDE8F083204601F04AFE824BE2
:1014B0001B8803409BB2002BC6D0204601F016FECD
:1014C000DFF8FC8118F800602036F6B2204601F003
:1014D0000DFE18F80080204601F02EFEC2B24146F3
:1014E000304602F0D9FFAFE70022C3E704F1240041
:1014F00001F07CF90028D1D0704B4FF080521A6077
:10150000BFF34F8FBFF36F8FC8E7FFF7ABFD01F05D
:1015100061FE01F0F4FD684B1B8803409BB20BB9E0
:101520000020BEE7204601F00CFE634B1B88034001
:101530009BB2002BF4D0204601F0D8FD604E355C04
:101540004835EDB2204601F0D1FD365C204601F071
:10155000F3FDC2B23146284602F09EFFE0E702A842
:1015600001F0CEF901263DE0002384F8443045E047
:10157000002384F8453047E0204601F0E2FD4E4B61
:101580001B88184080B2002854D0204601F0AEFDE0
:10159000DFF82C9119F8008008F170085FFA88F8DC
:1015A000204601F0A3FD19F80090204601F0C4FD8B
:1015B000C2B24946404602F06FFF3BE02046FFF7CB
:1015C0002EFE00F01BFFFFF73DFDA26BE36B9A427E
:1015D000FFF431AF022D3FF42EAF019B002B94D0CE
:1015E000002EBCD0FFF73EFD00F056FEFFF72AFDAF
:1015F00094F8442052B2B2F1FF3FB5D094F84520A0
:1016000052B2B2F1FF3FB3D0FFF72CFD01A902A8FF
:1016100001F082F918BB2046FFF798FD0028CDD0D5
:1016200001F0D8FD01F06BFD234B1B88184080B200
:101630000028A1D1019904F1100001F079F82046A9
:10164000FFF7EDFD00F0DAFE0028BCD11B4B4FF098
:1016500080521A60BFF34F8FBFF36F8FB3E72046FE
:10166000FFF7DDFD00F0CAFE01F0B4FD01F047FD1B
:10167000114B1B8803409BB20BB9002011E7204699
:1016800001F05FFD0C4B1B8803409BB2002BF4D094
:10169000204601F02BFD0A4E355C4835EDB2204660
:1016A00001F024FD365C204601F046FDC2B2314611
:1016B000284602F0F1FEE0E71C00001004ED00E017
:1016C000140000102DE9F84F04460F4690461E46C0
:1016D000EFF311894FF0280383F31188BFF36F8F65
:1016E000BFF34F8F826BC36B9A4201D3022E55D149
:1016F00094F845506DB2A36B204601F022FD384BA3
:101700001B88184080B200BB204601F0EFFC354B2F
:1017100013F800A0204601F00FFDA26B0132D2B2F7
:10172000C1B2504602F008FB324639462046FFF768
:1017300029FDB5F1FF3F21D001356DB284F8455048
:10174000012089F31188BDE8F88F204601F0CEFC16
:10175000DFF890B01BF800A00AF1300A5FFA8AFAAD
:10176000204601F0C3FC1BF800B0204601F0E4FC69
:10177000C2B25946504602F08FFEC5E7636A0BB904
:101780000120DEE704F1240001F030F820B3B8F1C5
:10179000000F23D00120C8F80000D2E701F0D1FCEF
:1017A0000F4B1B88184080B208B90020C9E72046BB
:1017B00001F09CFC0B4E355C5835EDB2204601F033
:1017C00095FC365C204601F0B7FCC2B23146284693
:1017D00002F062FE0020B4E70120B2E70120B0E78A
:1017E0001C000010140000102DE9F04184B00446E4
:1017F0000F4601920026DBE039462046FFF7FDFC4C
:1018000001F0E8FC01F07BFCA64B1B8803409BB277
:101810001BBB204601F06AFCDFF88C8218F80070D0
:10182000204601F089FCC6B2204601F05FFC18F8A2
:101830000030022B2ED0A26BD2B2013AD2B2314686
:10184000384602F079FA013DA563236943BBFFF7EF
:1018500009FC012004B0BDE8F081204601F071FCD4
:10186000904B1B8803409BB2002BD2D0204601F046
:101870003DFC8D4F3E5C2836F6B2204601F036FC2A
:101880003F5C204601F058FCC2B23946304602F0B7
:1018900003FEBEE701F09EFC01F02CFCC2B2CEE7D5
:1018A00004F1100000F0A2FF0028D0D07F4B4FF0D1
:1018B00080521A60BFF34F8FBFF36F8FC7E7FFF7F8
:1018C000D1FB01F087FC01F01AFC764B1B8803402A
:1018D0009BB20BB90020BDE7204601F032FC714BF2
:1018E0001B8803409BB2002BF4D0204601F0FEFB86
:1018F0006D4E355C5035EDB2204601F0F7FB365C9D
:10190000204601F019FCC2B23146284602F0C4FD5F
:10191000E0E702A800F0F4FF012655E0002384F878
:1019200044305DE0002384F845305FE0204601F05C
:1019300008FC5C4B1B88184080B200286DD0204604
:1019400001F0D4FBDFF8608118F800506835EDB283
:10195000204601F0CBFB18F80080204601F0ECFB9C
:10196000C2B24146284602F097FD56E001F032FC33
:1019700001F0C5FB4B4B1B88184080B2002853D0A8
:1019800001F028FC01F0B6FBC0B202F0FDF94BE01B
:101990002046FFF744FC00F031FD09E02046FFF748
:1019A0003EFC00F02BFD2046FFF7DFFB002850D166
:1019B000FFF748FBA56B002D7FF41EAF019B002BAA
:1019C0003FF47DAF002EA4D0FFF74CFB00F064FC89
:1019D000FFF738FB94F844305BB2B3F1FF3F9DD082
:1019E00094F845305BB2B3F1FF3F9BD0FFF73AFB71
:1019F00001A902A800F090FF0028CFD12046FFF7F0
:101A0000B4FB0028C4D001F0E5FB01F078FB254BC6
:101A10001B88184080B2002888D1204601F066FB60
:101A2000214B1B5C022BA1D1019904F1240000F091
:101A30007FFE2046FFF7F3FB00F0E0FC0028B7D163
:101A40001A4B4FF080521A60BFF34F8FBFF36F8F66
:101A5000AEE701F0BFFB01F052FB124B1B880340C5
:101A60009BB20BB90020F5E6204601F06AFB0D4B56
:101A70001B8803409BB2002BF4D0204601F036FBBC
:101A8000094E355C5035EDB2204601F02FFB365C37
:101A9000204601F051FBC2B23146284602F0FCFC60
:101AA000E0E700BF1C0000101400001004ED00E08F
:101AB000806C70478164704790F84C007047FFFF5E
:101AC00070B504460D460023092B18D80C4A52F86D
:101AD00033200AB10133F7E7094A42F8335002EBE9
:101AE000C3035C60204601F001FB064B1E5C2046F0
:101AF00001F022FB2A46C1B2304602F0FFF970BD68
:101B0000680200101400001070B504460D46164619
:101B1000FFF798FA94F844305BB2B3F1FF3F0DD071
:101B200094F845305BB2B3F1FF3F0BD0FFF79AFA60
:101B3000A36B5BB12046FFF772FB70BD002384F8F6
:101B40004430EDE7002384F84530EFE7324629467C
:101B500004F1240000F00CFEECE700230278A52A33
:101B600002D101300133F9E7C3F38F007047FFFF63
:101B7000084B1B681B6823B9074B4FF0FF321A60F4
:101B80007047044B1B68DB68DB685A68024B1A60BD
:101B9000704700BFBC0200106C03001010B5044673
:101BA000006BFFF751F92046FFF74EF910BD2DE904
:101BB000F04780460D4617469946089EDDF824A05A
:101BC0000A9C9200A521206B07F0D2FF236B07F13E
:101BD0008042013A03EB820727F00707A7648DB321
:101BE0000022132A07D8A95CA31883F83410AB5C31
:101BF0000BB10132F5E7002384F84730042E00D9F9
:101C00000426E66266650025A565201DFFF79BF9A1
:101C100004F11800FFF797F92461C6F10506A661E3
:101C20006462E565256684F864504A464146384654
:101C3000FFF7E4F92060BAF1000F01D0CAF80040C4
:101C4000BDE8F087002384F83430D7E738B50024A6
:101C5000042C08D804EB840293000E481844FFF7C4
:101C600067F90134F4E70C4D2846FFF761F90B4C96
:101C70002046FFF75DF90A48FFF75AF90948FFF7D0
:101C800057F90948FFF754F9084B1D60084B1C60D1
:101C900038BD00BFC4020010400300105403001000
:101CA00078030010A403001090030010BC02001081
:101CB000C002001010B50446FFF7C4F9464A136885
:101CC00001331360454B1B685BB1454B1B686BB917
:101CD000424B1B68DA6AE36A9A4207D83F4B1C60A2
:101CE00004E03E4B1C601368012B59D03D4A136839
:101CF00001331360E3643CB3032002F061F881B266
:101D0000204601F001FA384B1988204601F008FA04
:101D1000204601F0EFF904F13402C1B2032002F0D1
:101D2000EDF8204601F0E6F994F82C20C1B203202A
:101D300001F0AEFF01F04EFA01F0E1F92B4B1B88E8
:101D4000184080B200282ED1204601F0D8F9274B48
:101D50001B88184080B2002837D1E06A01238340F5
:101D6000234A11680B43136000EB8000211D214BB7
:101D700003EB8000FFF7EAF8FFF774F9184B1B68D4
:101D80006BB1164B1B68DA6AE36A9A4207D21A4BA8
:101D90004FF080521A60BFF34F8FBFF36F8F10BDAB
:101DA000FFF754FFA2E7204601F0A9F90F4B1B886B
:101DB000184080B20028C7D0204601F09BF9C2B27B
:101DC00003211B2002F068FBBEE7204601F092F9D8
:101DD000C0B202F0C1FAC0E72C030010B802001034
:101DE0008C030010380300101A0000101C000010B3
:101DF0003C030010C402001004ED00E00F4B1B6810
:101E0000D3B110B5FFF71EF90D4BDB68DC68201D60
:101E1000FFF7C0F80B4A1368013B1360074A1368C9
:101E2000013B1360FFF71EF92046FFF7B7FE034B97
:101E30001B68002BE6D110BD704700BF30030010B7
:101E4000A40300102C03001008B5FFF7D7FF064BC2
:101E50001B68012BF9D9054B4FF080521A60BFF374
:101E60004F8FBFF36F8FF0E7C402001004ED00E066
:101E700070B504460D461D4B1E681D4B1868043096
:101E8000FFF788F850B91A4B1B68DA6A012303FA86
:101E900002F218490B6823EA02030B60B4F1FF3F1A
:101EA0000DD03444124B1B685C60A64210D9124B13
:101EB00018680F4B19680431FFF753F870BD002DF7
:101EC000EFD00B4B196804310C48FFF73FF8F5E7EA
:101ED0000B4B1868064B19680431FFF742F8094BA1
:101EE0001B68A342EAD9074B1C60E7E7B803001060
:101EF000B80200103C030010C00200109003001054
:101F0000BC0200106C03001010B5044608F0B8FACB
:101F1000204608F0BDFA122803D8202323540130AC
:101F2000F9E700232354204410BD2DE9F04385B088
:101F30000746884614461E469000FEF71FFFF0B184
:101F400081466820FEF71AFF0546A0B1C0F8309020
:101F5000D5B10023039302950D9B01930C9B009335
:101F60003346224641463846FFF721FE2846FFF712
:101F7000A1FE012005E04846FEF766FFE8E74FF0C6
:101F8000FF3005B0BDE8F0834FF0FF30F9E7FFFF09
:101F900038B50446FFF756F8002C6DD0251D2846AD
:101FA000FEF7F8FF68B9E26A02EB82039B006B4917
:101FB000CB5833B90123934069490A6822EA0302E6
:101FC0000A60A36A1BB104F11800FEF7E3FF654A3B
:101FD000136801331360644B1B68A3424FD0634AFC
:101FE0001368013B1360EFF31085012383F310881E
:101FF00001F0F0F801F083F85D4B1B88184080B2C7
:10200000002840F08F80204601F074F80322C1B20E
:102010000B2001F0B9FD204601F06CF80322C1B29B
:10202000132001F0E3FD204601F064F894F82C2021
:10203000C1B2032001F02CFE204601F05BF8002223
:10204000C1B2032001F078FE204601F053F8C1B27E
:10205000032001F01FFF85F310882046FFF79EFD47
:10206000FFF786FDFEF7FEFF424B1B681BB13E4BA0
:102070001B68A34269D038BD3B4B1C688EE72946DC
:102080003D48FEF763FF3D4A136801331360EFF3E9
:102090001085012383F3108801F09CF801F02FF8DC
:1020A000334B1B88184080B250BB204601F022F809
:1020B0000322C1B20B2001F067FD204601F01AF89F
:1020C0000322C1B2132001F091FD204601F012F865
:1020D00094F82C20C1B2032001F0DAFD204601F073
:1020E00009F80022C1B2032001F026FE204601F0CB
:1020F00001F8C1B2032001F0CDFE85F31088B1E7ED
:10210000204600F0FCFF1A4B1B88184080B20028C4
:10211000CBD0204600F0EEFFC2B20321832002F0B4
:10212000BBF9C2E7204600F0EAFF114B1B881840BC
:1021300080B200283FF467AF204600F0DBFFC2B258
:102140000321832002F0A8F95DE70D4B4FF0805288
:102150001A60BFF34F8FBFF36F8F8CE7C40200107C
:102160003C03001038030010B80200102C030010CC
:102170001C0000108C030010A4030010300300109A
:1021800004ED00E0F8B5194B1B68834225D00446E6
:10219000FEF758FF6569164B1E68164B1F68FEF761
:1021A00061FFB5421BD0BD421BD0134B9D4205D0F1
:1021B000124B9D4217D075B101200FE0A36A0BB1FD
:1021C00002200BE094F86430DBB2012B01D0032035
:1021D00004E0022002E0042000E00020F8BD02201C
:1021E000FCE70220FAE70420F8E700BFB80200107D
:1021F000BC020010C002001090030010A4030010E5
:1022000000B583B01D4B0193002300933C221C4971
:102210001C48FFF78AFE012804D0012805D003B02E
:102220005DF804FB00F0D2FDF7E74FF0280383F3DD
:102230001188BFF36F8FBFF34F8F134B4FF0FF32F7
:102240001A60124B01221A60114B00221A60FEF72D
:1022500057F800F0BFFF00F052FF0E4B1B881840EC
:1022600080B210B9FEF756FFD9E700F0B3FF00F0D7
:1022700041FFC0B202F00CFAF4E700BF680300109F
:102280003CC60100491E01006C0300108C030010C5
:10229000B80300101C000010024A136801331360D9
:1022A000704700BF34030010014B1868704700BF2F
:1022B000B8030010F8B5444B1B68012B02D0434B08
:1022C0001B6833B9424A136801331360002001F0E0
:1022D00053FE3D4B1A681B68002B6DD13D4B1E68A9
:1022E00001361E60AEB13C4B1B68B34253D9002788
:1022F0003A4B1B68DB6A03EB83039B00384AD358D5
:10230000012B00D90127374B1B68002B59D001271F
:1023100057E0354A1168354B186810601960344A27
:10232000136801331360FFF723FCDCE701272E4B12
:102330001B681B68002B30D02B4B1B68DB68DC68EC
:1023400063689E422ED3251D2846FEF723FEA36A0E
:102350001BB104F11800FEF71DFE204600F0CFFE71
:10236000244B1B88184080B2F8B9E06A01238340EF
:10237000214A11680B43136000EB80002946184B7B
:1023800003EB8000FEF7E2FDE26A144B1B68DB6A98
:102390009A42CBD2CBE70027C9E70F4B4FF0FF3271
:1023A0001A60A5E70C4A1360A2E7204600F0A2FEDF
:1023B000C0B201F0D1FFD8E7044A136801331360BB
:1023C00000273846F8BD00BF340300107403001026
:1023D000D4040010B80300106C030010B802001001
:1023E000C4020010BC030010BC020010C0020010A8
:1023F000700300101C0000103C03001038B5FEF7FD
:1024000021FE354B1A68013A1A601B68002B5DD11A
:10241000324B1B6843B9002459E0204600F06AFEA5
:10242000C0B201F099FF17E000242D4B1B6863B385
:102430002B4BDB68DC6804F11800FEF7ABFD251DB3
:102440002846FEF7A7FD204600F059FE254B1B88C5
:10245000184080B20028E0D1E06A01238340224A7C
:1024600011680B43136000EB800029461F4B03EB00
:102470008000FEF76BFDE26A1D4B1B68DB6A9A4227
:10248000D3D31C4B01221A60CFE70CB1FFF770FBCE
:10249000194B1C6874B9174B1C68C4B1174B4FF02B
:1024A00080521A60BFF34F8FBFF36F8F01240EE08D
:1024B000013C07D0FFF7FEFE0028F9D00D4B0122AA
:1024C0001A60F5E70C4B00221A60E4E70024FEF7DF
:1024D000C9FD204638BD00BF340300102C03001096
:1024E000780300101C0000103C030010C402001010
:1024F000B8020010BC0300107403001004ED00E0EB
:1025000070B505460C46FFF7C7FE264B1E682B68C4
:102510001C44B34209D9A34201D82C6020E0A64252
:1025200001D32C601CE02C6004E0A34201D8A64239
:1025300022D22C601C4B186800F0E1FD1B4B1B885D
:10254000184080B2D0B900F045FE00F0D8FD174B1E
:102550001B88184080B2E8B90021A01BFFF788FC57
:10256000FFF74CFF38B9124B4FF080521A60BFF39F
:102570004F8FBFF36F8F70BD2C60F1E7214688202D
:1025800002F040F8084B186800F0B4FDC0B201F04A
:10259000FBFBD8E700F01EFE00F0ACFDC0B201F07E
:1025A000F3FBD9E7B8030010B80200101C000010BC
:1025B00004ED00E010B540B91D4B4FF080521A6099
:1025C000BFF34F8FBFF36F8F10BD0446FFF764FE5C
:1025D000184B186800F093FD174B1B88184080B209
:1025E00088B900F0F7FD00F08AFD134B1B881840F6
:1025F00080B2A0B900212046FFF73AFCFFF7FEFEAB
:102600000028E1D1D8E72146892001F0FBFF094BE2
:10261000186800F06FFDC0B201F0B6FBE1E700F012
:10262000D9FD00F067FDC0B201F0AEFBE2E700BFEC
:1026300004ED00E0B80200101C00001008B5354B96
:102640001B681BB1344B01221A6008BD324B0022BB
:102650001A604FF040239B68304A1268934205D9B4
:102660002F4908689A1AC16D0A44C2652B4A136043
:102670002B4B1B681B6B1A68B2F1A53F03D15A683C
:10268000B2F1A53F36D0264B186819683431FEF7F1
:10269000CDF8244B1B68B3FA83F3DBB2C3F11F03FD
:1026A000214903EB830201EB8202506840685060CD
:1026B00003EB8302920008320A44904223D003EBDA
:1026C0008303194A02EB83035B68DA68144B1A60D0
:1026D00000F080FD00F013FD144B1B88184080B201
:1026E0000028B2D000F076FD00F004FDC0B201F089
:1026F000CFFFAAE79A68B2F1A53FC4D1DB68B3F176
:10270000A53FC0D1C5E7406803EB830201EB82021D
:102710005060D4E734030010BC03001028030010FD
:10272000B80200103C030010C40200101C0000108E
:1027300010B50C46044B19681831FEF712FC012144
:102740002046FFF795FB10BDB802001010B51446E7
:10275000064B1A6841F00041916119681831FEF783
:10276000F5FB01212046FFF783FB10BDB8020010E6
:1027700038B50D4614461A4B19681831FEF7E6FBBA
:102780000CB14FF0FF35164B186800F0B8FC154B34
:102790001B88184080B268B900F01CFD00F0AFFC47
:1027A000104B1B88184080B290B921462846FFF78D
:1027B0005FFB38BD0C4B19682944882001F022FFCB
:1027C000074B186800F096FCC0B201F0DDFAE3E7B1
:1027D00000F000FD00F08EFCC0B201F0D5FAE4E795
:1027E000B80200101C000010B803001038B5C36810
:1027F000DC6804F118052846FEF7CCFB1A4B1B6871
:102800005BBB251D2846FEF7C5FB204600F077FC84
:10281000164B1B88184080B2C0B9E06A0123834080
:10282000134A11680B43136000EB80002946114BDB
:1028300003EB8000FEF78AFBE26A0F4B1B68DB6A42
:102840009A420FD901200D4B186038BD204600F088
:1028500051FCC0B201F080FDDFE729460848FEF7D1
:1028600075FBE9E70020F0E7340300101C000010BE
:102870003C030010C4020010B8020010BC0300109A
:102880007803001038B541F000410160C468FEF7DC
:1028900081FB251D2846FEF77DFB204600F02FFC1E
:1028A000124B1B88184080B2C0B9E06A01238340F4
:1028B0000F4A11680B43136000EB800029460D4B53
:1028C00003EB8000FEF742FBE26A0B4B1B68DB6AFE
:1028D0009A4202D9094B01221A6038BD204600F005
:1028E00009FCC0B201F038FDDFE700BF1C0000109A
:1028F0003C030010C4020010B8020010BC0300101A
:10290000034B1B680360034B1B684360704700BFA9
:1029100070030010B8030010F8B504460D46FEF72A
:1029200091FB124B19686368C81A2A68B2F1FF3F1D
:1029300014D027680E4E3668B74201D08B4212D9A8
:10294000824203D800232B60012408E05B1A134461
:102950002B602046FFF7D4FF002400E00024FEF7A0
:1029600081FB2046F8BD0124F9E700BFB803001041
:1029700070030010014B01221A607047BC03001065
:1029800008B1006D70470020704700B101657047C5
:1029900070B50C4616460546D0B1256005F13402E7
:1029A0006260EA6A22612A6BE261EA6CA2606A6D87
:1029B0006261EA6DA261052B19D0124A1268AA421F
:1029C00009D02373032B09D0B6B90023238470BD2B
:1029D0000C4A1568E1E700232373F5E7FFF75CFC79
:1029E000AB6A0BB102232373FFF708FDECE728461F
:1029F000FFF7C8FB2073E7E7286BFFF7AEF82084EA
:102A0000E5E700BFB80200102DE9F0470C683CB3C1
:102A100007460D4690464B685B684B6001F108091C
:102A20004B4504D06B68D3F80CA0002412E05B681F
:102A30004B60F7E75B686B606B68DE6804EBC401B2
:102A40004346012207EB81013046FFF7A1FF013425
:102A5000B24505D06B685B686B609945ECD1E9E7DE
:102A60002046BDE8F087FFFFF8B506460C4617463E
:102A7000FFF712FC234B1B68A3423DD80525002419
:102A8000013D04EBC40005EB850101221E4B03EB65
:102A9000810106EB8000FFF7B7FF0444002DEFD162
:102AA00004EBC400194B1968022206EB8000FFF703
:102AB000ABFF044404EBC400154B1968022206EB7B
:102AC0008000FFF7A1FF044404EBC4000422114975
:102AD00006EB8000FFF798FF044404EBC4000322D8
:102AE0000D4906EB8000FFF78FFF04442FB14FF034
:102AF00040239B683B6000E00024FFF77FFC2046FA
:102B0000F8BD00BF2C030010C4020010BC0200106E
:102B1000C0020010A403001090030010014B1868BD
:102B2000704700BFB8020010054B1B6833B1054B5E
:102B30001B680BB1002070470220704701207047CE
:102B40008C03001034030010002867D070B50446D1
:102B5000836D013B8365C16A426D914260D00BB1C8
:102B6000002070BD051D2846FEF714FA68B9E26A18
:102B700002EB82039B002B49CB5833B901239340CE
:102B800029490A6822EA03020A60204600F0B7FADF
:102B9000264B1B88184080B2F0B9636DE362C3F125
:102BA0000503A361204600F0AAFA204B1B881840B9
:102BB00080B260BBE06A012404FA00F31A4A11688B
:102BC0000B43136000EB80002946164B03EB80009B
:102BD000FEF7BCF92046C4E7204600F08BFAC6B2E7
:102BE000204600F087FAC1B2032001F07BF80346CB
:102BF000324603218F2001F0A5FC204600F07AFA2E
:102C000094F85420C1B2032001F042F8C5E72046F1
:102C100000F070FAC0B201F09FFBCBE700207047D4
:102C200000209EE7C40200103C0300101C000010AE
:102C30002DE9F04786B0044600230370284B1D6839
:102C4000186800EBC0008000FEF798F880B180465D
:102C500005AA2946FFF708FF8146059B214AA2FBEA
:102C600003235B090593002B37D14046FEF7ECF8B0
:102C700006B0BDE8F0872B8CAA691B49204607F0F7
:102C8000DFFB204607F004FC044401364E45ECD23D
:102C900006EBC60508EB8505A869059BB0FBF3F0BC
:102CA00006F0F4FC074669682046FFF72DF9044654
:102CB0000021384606F0FEFE0028DCD0D5F818A02A
:102CC0002B8C0293384606F0B3FBCDE90001524647
:102CD0000649204607F0B4FBD3E70026D6E700BF3D
:102CE0002C0300101F85EB5158C6010044C601009B
:102CF000044A136898691368DB6A1268C3F1050314
:102D000093617047B8020010064B1A6813682BB91C
:102D10000123036023B9D368186870470023F8E7DC
:102D200000207047C003001008B541600061914267
:102D30000CD8D21A83699A4201D3012008BD011D23
:102D4000094B1868FEF70DF90020F7E79A4201D207
:102D5000994206D2011D054B1868FEF702F90020C2
:102D6000ECE70120EAE700BFC4030010C003001035
:102D700038B5FEF767F90F4B1B6813B1FEF772F910
:102D800038BD0D4D2846FEF7D3F80C4C2046FEF713
:102D9000CFF80B4B1D600B4B1C600022102105204F
:102DA000FEF712FB034B18600028E7D00649FEF738
:102DB00087FEE3E7F4030010C8030010DC030010F3
:102DC000C0030010C403001068C6010000B583B042
:102DD000FFF7CEFF084B1B6863B1084B0193042338
:102DE00000930023642206490648FFF79EF803B0CB
:102DF0005DF804FB0020FAE7F4030010F80300106C
:102E000070C60100A530010030B585B01C46134BDB
:102E10001D6805B3009101920290052913DCFFF7AC
:102E200083FE022807D000231A4669460B48006833
:102E3000FEF7F8FA0DE00023089A69460748006893
:102E4000FEF7F0FA05E00023224669462846FEF721
:102E500039FC05B030BD0020FBE700BFF4030010D3
:102E600070B582B0164B1B681A6812B3DB681E6817
:102E7000DC68251D2846FEF78DF8236A2046984712
:102E800094F8283013F0040FECD0A36933449E4229
:102E900007D2636024612946094B1868FEF761F880
:102EA000E0E7002100910B4632462046FFF7ACFFD9
:102EB000D8E7044A106802490860136002B070BD88
:102EC000C0030010C403001038B50546FFF7ECF945
:102ED0000446074B1B68834205D800232B60044B34
:102EE0001C60204638BDFFF7BBFF01232B60F6E7CF
:102EF000F003001070B582B006460D46124B1B68F9
:102F0000DB68DC68201DFEF745F894F8283013F0E4
:102F1000040F08D123F0010384F82830236A2046E7
:102F2000984702B070BDA16933462A463144204615
:102F3000FFF7FAFE0028F1D0002100910B4632463F
:102F40002046FFF761FFE9E7C003001070B582B0CB
:102F500006460C46FFF7A0F901A8FFF7B5FF019B55
:102F600023BB05460CB9B04217D224B1114A1268EE
:102F70001268CAB901242246711B0F4B1868FEF76C
:102F8000C3FDFFF73BFA98B90C4B4FF080521A6023
:102F9000BFF34F8FBFF36F8F0AE0FFF72FFA294679
:102FA0003046FFF7A7FF03E01C46E4E7FFF726FAE9
:102FB00002B070BDC4030010F403001004ED00E083
:102FC00010B588B006E007990698059B9847049BC2
:102FD000002B0BDA002204A9314B1868FEF704FC21
:102FE00000285BD0049B002BF1DAECE7069C6369B8
:102FF00013B1201DFDF7CEFF03A8FFF765FF049B6B
:10300000092BE7D8DFE803F0050505262D3C05056B
:10301000262D94F8283043F0010384F82830059BCE
:10302000A169024619442046FFF77EFE0028D1D050
:10303000236A2046984794F8283013F0040FC9D02B
:10304000A269002100910B46059802442046FFF733
:10305000DBFEBFE794F8283023F0010384F8283022
:10306000B8E794F8283043F0010384F82830059934
:10307000A1610346024601442046FFF755FEA9E739
:1030800094F8283013F0020F04D023F0010384F8E1
:1030900028309FE72046FDF7D7FE9BE708B010BD1C
:1030A000F403001000B583B001A8FFF72DFE0199CD
:1030B000FFF74CFFFFF784FFF6E7FFFF10B584B082
:1030C00014461A466FF00103009301900291039495
:1030D0000023694602480068FEF7F4FA04B010BD08
:1030E000F403001008B5FEF7E3FC08BD08B5FEF7D1
:1030F000E3FC08BD08B5FFF743FC80B208BD08B586
:10310000FFF73EFC000C08BD38B504460D46FFF73E
:1031100037FC010C090429432046FFF736FC38BD73
:1031200038B504460D46FFF72BFC80B240EA054156
:103130002046FFF72AFC38BD08B5FFF7D3FF80B261
:1031400008BD08B5FFF7CEFF000C08BD38B5044632
:103150000D46FFF7C7FF010C090429432046FEF77F
:10316000A9FC38BD38B504460D46FFF7BBFF80B259
:1031700040EA05412046FEF79DFC38BD08B5FDF745
:10318000CBFD80B208BD08B5FDF7C6FD000C08BD3B
:1031900038B504460D46FDF7BFFD010C090429436F
:1031A0002046FDF7BEFD38BD38B504460D46FDF797
:1031B000B3FD80B240EA05412046FDF7B2FD38BDBF
:1031C00010B50C46FFF7DAFF2246C1B2062000F028
:1031D00095FE10BD08B5FFF7A1FC08BD324B1B687A
:1031E0000922DA650A2283F8642083F8652083F8CF
:1031F00066200F2283F86720052183F8681083F882
:10320000691083F86A1083F86B1083F86C1083F8E8
:10321000702083F8712083F8722083F8732083F87C
:10322000742083F8752083F8762083F8772083F85C
:103230007820102183F87C1083F87D1083F87E10AD
:10324000132283F87F20112083F8800083F88110F7
:1032500083F8822083F8832083F884200022A3F857
:103260008820A022A3F88A204FF4A072A3F88C2013
:103270004FF4F072A3F88E2040F2FD22A3F89020C4
:1032800040F25232A3F8922040F2A232A3F89420E6
:1032900040F20142A3F896204FF48C62A3F89820E4
:1032A00040F2BF421A66704704040010174B002218
:1032B0005A821A800A229A825A801422DA829A80CA
:1032C0001E221A83DA802D225A831A8132229A838F
:1032D0005A813722DA839A813C221A84DA81412288
:1032E0005A841A8209229A841322DA841D221A85AA
:1032F0002C225A8531229A853622DA853B221A867B
:1033000040225A8645229A86704700BF300400103A
:10331000082816D8DFE800F00B070905170D0F1174
:1033200013000A4870470A4870470A4870470A481D
:1033300070470A4870470A4870470A4870470A4869
:1033400070470A4870470A48704700BF30C90100FB
:10335000F0C6010044C7010090C70100DCC70100AE
:1033600028C801007CC80100D4C8010078C601004B
:10337000A8C6010008B5FFF7D7FBB0FA80F04009F6
:1033800008BD0023934209D210B4CC5CC454CC5C79
:1033900014B101339342F8D310BC70477047FFFF5C
:1033A00008B5054B1B680BB100221A63034B1B6861
:1033B00003B1984708BD00BF04040010D8040010F2
:1033C0002DE9F84F504B1B68002B00F098801B78BC
:1033D000DBB2012B00F091804C4B1B684C4A126809
:1033E00013444C4A1360484C40F67C12002120687C
:1033F00006F0BEFB236841F6A1229A8105229A734A
:103400000022DA7340F67C11196101259D614FF0AD
:10341000F03159659A655A63FFF7E0FE20684FF076
:10342000F133C0F85C354FF44873C0F86035C0F82C
:1034300064554FF0F233C0F810395022364900F687
:103440001410FFF79EFF23684FF0F332C3F864298E
:103450000A2283F870290B2283F871290C2283F841
:1034600072290D2283F873294FF0710283F87429B1
:103470004FF0720183F87519732683F87669742703
:1034800083F877794FF0F10883F878894FF0F209E3
:1034900083F879994FF0F30A83F87AA94FF0F40B87
:1034A00083F87BB9FFF702FF236883F80BB083F83A
:1034B0000AA083F8099083F80880DF719E714FF0AD
:1034C000720159714FF071021A710422DA70236887
:1034D00003229A70236802225A7023681D700F4BD2
:1034E000196851B12068502200F61410FFF749FF07
:1034F0002368C3F80C59FFF753FFBDE8F88F024B60
:10350000074A1A6068E700BF04040010041000E0D6
:10351000FC0300101004001078C90100CC04001056
:10352000A0CD072008B5074B1B681A6B32B15A694A
:1035300001325A61DA690132DA6102B908BDFFF776
:103540002FFFFBE70404001010B504460D4B1B6869
:103550000BB1FFF725FF0C4B1B6803B110BD0A4BE5
:103560001C60084B18680028F8D05022214600F64D
:103570001410FFF706FF034B1B680122C3F80C2948
:10358000ECE700BF04040010CC04001008B5094BA0
:103590001868036B5BB1C36923B99B0003F668131A
:1035A000184408BD0448FFF7CFFF0020F9E70020CA
:1035B000F7E700BF040400108CC9010010B50446F1
:1035C00048B111F0030F0BD0232911D80023635405
:1035D0000131C9B2F5E70848FFF7B6FF002008E05F
:1035E000202907D88B0844F823200431C8B200E012
:1035F000FF2010BDFF20FCE7B4C9010010B5044650
:1036000048B111F0010F0BD0232911D800236354C6
:103610000131C9B2F5E70848FFF796FF002008E03E
:10362000222907D84B0824F813200231C8B200E041
:10363000FF2010BDFF20FCE7E0C9010008B528B15C
:10364000232908D842540131C8B208BD0348FFF706
:103650007BFF0020F9E7FF20F7E700BF0CCA01005D
:1036600038B528B1034639B152B1002401250DE027
:103670000B48FFF769FF11E00A48FFF765FF0DE00F
:103680000948FFF761FF09E00444013513F8010B15
:103690000028F9D104F03F040C70157038BD00BF4C
:1036A00034CA010068CA010098CA01002DE9F0413E
:1036B0001D46244B1B6801F2444133F8114048B1C8
:1036C00016460746CAB92048FFF73EFF00242046A9
:1036D000BDE8F0811D48FFF737FF0024F7E7194BDD
:1036E000186800EB080393F8684508F101010144EC
:1036F00091F8683504EB0324A4B2002CE7D0114BF9
:103700001B68A046A11C194491F86815EAB29142C1
:10371000E5D1E21C1A4492F86825B2EB152FDED1F0
:10372000201D32181A4492F86825002AD7D104F2D5
:103730006C5032463946184406F0B2FE0028CED10D
:10374000C5E700BF0404001008CB0100CCCA01008B
:10375000F8B580B11446074692B1244A1668D6F8E7
:10376000642515190435B5F5487F0ED32048FFF7B9
:10377000EBFE0020F8BD1F48FFF7E6FE0020F9E74A
:103780001D48FFF7E1FE0020F4E701F2444536F85A
:103790001500B11881F86805511C000A314481F800
:1037A0006805911C314481F86835D11C1B0A3144ED
:1037B00081F8683502F26C50224639463044FFF7F2
:1037C000E0FD0A4B1B68D3F864156018021D1A440B
:1037D000002682F8686523F815100530C3F86405E3
:1037E00080B20534E4B2001B80B2C3E704040010C9
:1037F000B4CB010040CB01007CCB010070B582B09E
:1038000000238DF807308DF8063008B30C460546C6
:103810000DF107020DF10601FFF722FFEFF310860D
:10382000012383F31088114A136801331360234680
:103830009DF807209DF806102846FFF737FF60B176
:103840000A4A1368013B136086F3108802B070BD0A
:103850000748FFF779FE0020F8E723469DF8072088
:103860009DF806102846FFF773FFE9E7C40400102F
:10387000FCCB010008B530B1084B1B6843B10021F7
:10388000FFF7BCFF08BD0648FFF75EFE0020F9E722
:103890000448FFF759FE0020F4E700BF04040010BD
:1038A0002CCC010060CC01002DE9F04383B006462A
:1038B000019191461F464FF00008444637E06D489D
:1038C000FFF742FE0020D2E00134A4B2315DA1F145
:1038D0003005EDB2092DF7D92329F5D02E29F3D0E3
:1038E000002900F0C180583920291BD8DFE801F0F9
:1038F0002F1A1A1A1A1A1A1A1A1A9B1A111A461A6F
:10390000801A1A1A581A1A1A1A1A1A391A2F1A1A3F
:103910002F00019B1A1D01921A6839464846FFF78D
:103920004DFE07460134A4B2FF2F00F09880335DAE
:10393000002B00F09980252BF4D108F101085FFAE3
:1039400088F8B8F10F0FBAD80134A4B2BEE7019BD2
:103950001A1D01921A6839464846FFF72FFE07469E
:10396000E0E7019B1A1D01921868FFF783FF0246EA
:1039700039464846FFF742FE0746D3E7019B073327
:1039800023F0070303F108020192D3E9000105F0D7
:10399000A7FD024639464846FFF710FE0746C1E735
:1039A0000134A4B2335D662BBCD1019B073323F0F5
:1039B000070303F108020192D3E9000105F090FD2D
:1039C000024639464846FFF7F9FD0546019B073395
:1039D00023F0070303F108020192D3E9000105F087
:1039E0007FFD024629464846FFF7E8FD074699E76E
:1039F0000134A4B2335D642B0BD0752B92D1019BA3
:103A00001A1D01921A8839464846FFF7F7FD074606
:103A100088E7019B1A1D01921A8839464846FFF72C
:103A2000EDFD07467EE70134A4B2335D642B0CD074
:103A3000752B7FF477AF019B1A1D01921A783946D6
:103A40004846FFF7FBFD07466CE7019B1A1D0192F4
:103A50001A7839464846FFF7F1FD074662E70648FF
:103A6000FFF772FD002002E0F81CC0F3850003B0F0
:103A7000BDE8F083A4CC0100D8CC010038B50446E1
:103A80000D46FF2803D04FF6FF73984203D1AC4296
:103A900005D3284638BD0A48FFF756FDF9E7FFF77A
:103AA00075FD50B10123037025EA0403C3F3072118
:103AB00041701B0C4380FFF735FD2540E9E700BF4F
:103AC00014CD010008B508290CD830B10E4B1B6885
:103AD0005A1892F86420824209D20C48FFF734FD4C
:103AE000002008BD0A48FFF72FFD0020F9E701F18B
:103AF000400203EB42021289194491F87C300138EC
:103B000003FB002080B2ECE70404001090CD01001C
:103B100050CD010008B50B4601461846FFF7D2FF0D
:103B2000034B1B680344012283F89C2008BD00BF9F
:103B30000404001038B50446082814D808460F4B72
:103B40001D682B1993F864308B4211D32146FFF77F
:103B5000B9FF0A4B1B681C4494F870301844284481
:103B600090F89C0038BD0648FFF7EEFC0020F9E70E
:103B70000448FFF7E9FC0020F4E700BF040400104C
:103B8000D0CD010014CE010070B5082A0BD806462E
:103B90000C46134B1D68AB1893F864308B4206D368
:103BA0002B6B43B970BD0F48FFF7CEFCFAE70E4808
:103BB000FFF7CAFCF6E711462046FFF783FF98306F
:103BC000284400210430FFF719FE0546FFF7DEFC0C
:103BD0000028E7D0067044704580FFF7A3FCE1E7BA
:103BE0000404001050CE0100A4CE01002DE9F843DA
:103BF000082A0DD806460D461446224B1B689A1813
:103C000092F864208A4207D31B6B4BB9BDE8F88356
:103C10001D48FFF799FCF9E71C48FFF795FCF5E70D
:103C2000FFF7B4FC07460028F0D0032C15D0DFF8CE
:103C30005490D9F8008021462846FFF743FFD9F871
:103C40000020144494F870301844804498F89C3054
:103C50007B703E70FFF766FCD8E7DFF82890D9F854
:103C6000008021462846FFF72DFFD9F800301C447C
:103C700094F8703003440133434493F89C307B70D4
:103C8000E7E700BF04040010F0CE010048CF0100B8
:103C900070B50446082816D8084615460E4B1E680F
:103CA000331993F864308B4211D32146FFF70AFF92
:103CB000094B1B681C4494F87030184401300644CA
:103CC00086F89C5070BD0548FFF73EFCFAE70448B3
:103CD000FFF73AFCF6E700BF040400109CCF010098
:103CE000E8CF010038B50446082815D808460F4B20
:103CF0001D682B1993F864308B4212D32146FFF7CD
:103D0000E1FE0A4B1B681C4494F8703018440130E3
:103D1000284490F89C0038BD0548FFF715FC0020AA
:103D2000F9E70448FFF710FC0020F4E70404001052
:103D300028D0010074D0010070B50446082815D8B9
:103D4000084615460D4B1E68331993F864308B42B4
:103D500010D32146FFF7B6FE084B1B681C4494F8AD
:103D600070301844064486F89C5070BD0448FFF734
:103D7000EBFBFAE70348FFF7E7FBF6E70404001064
:103D8000B4D00100F8D0010010B50B4B1C6894F8BA
:103D9000673083420CD30321FFF794FE064B1B6868
:103DA00093F8733018440444002384F89C3010BD09
:103DB0000248FFF7C9FBFAE70404001034D1010000
:103DC00038B52F4A1268002A49D0034608284BD834
:103DD000EFF31084012282F310882A490A68013225
:103DE0000A60294931F81020114491F8481059B956
:103DF000254803F1080100EB41014988511AC9B275
:103E00000131104480F848101F490A4492F84800D4
:103E100031F8132003F1100501EB450189888A422E
:103E200027D8013292B2184921F8132003F108056E
:103E300001EB45056D88521B03F1180501EB4501A7
:103E4000C988914204DAD2B20F4901EB4503DA8006
:103E50000C4A1368013B136084F3108838BD0B488B
:103E6000FFF772FB0020F9E70948FFF76DFB002020
:103E7000F4E71846FFF74CFAFFF766FB0020E7E788
:103E800004040010C40400103004001060CC0100D1
:103E90007CD1010010B508281AD8E9B1124B1B6873
:103EA000034493F864308B4216D3104A32F8103032
:103EB00000F1080402EB44025288934210D9013BFE
:103EC0009BB20A4A22F81030134483F8481006E0E7
:103ED0000748FFF739FB02E00648FFF735FB10BD46
:103EE0000548FFF731FBFAE7040400103004001026
:103EF000C4D101000CD2010050D2010038B592B1FA
:103F0000044608461546082C11D8A1B1154B1B686C
:103F1000234493F864308B4211D22046FFF7F8F91E
:103F2000FFF712FB38BD1048FFF70EFBFAE70F480A
:103F3000FFF70AFBF6E70E48FFF706FBF2E721461C
:103F4000FFF7C0FD0B4B1B68002BEBD1054B1B682B
:103F5000983018441C4494F8702029460430FFF728
:103F600010FADFE70404001080D20100B4D201008F
:103F7000E4D20100CC040010104B1B68012B17D0B9
:103F800010B40F4B1A680F4B1B681A440E4B1B687A
:103F9000D31A0E490C68234400240C600C490C68A9
:103FA00023440B6000B10360074B1A6010BC7047DC
:103FB00018B1074B1B68036070477047D0040010AE
:103FC000041000E0FC030010200400102404001082
:103FD0002804001030B583B0054600230193FF2864
:103FE00003D04FF6FF73984228D1324B1B685A6AB0
:103FF0001AB9314A126832B35A6201A8FFF7BCFFFE
:1040000001992E4B1C680C1B19602A4B1B685A6ABD
:104010004AB3A24223D2B4FBF2F1D86A0844D86270
:1040200002FB1141986A01449962996A8A421BD83D
:10403000D86A0130D8628A1A9A6215E02048FFF7E0
:1040400083FA002014E01F4A12681F4909680A44D5
:104050001E4909688A42D0D01D4A5A62CDE7996A42
:1040600021449962E1E79962A54203D304EA05007D
:1040700003B030BDFFF78AFA0028F7D04FF6FF7281
:10408000954209D0FF2D10D1A8220270C4F30F224F
:104090004280220E427005E0A9220270220C42806A
:1040A00000224270FFF73EFAE0E70A48FFF74CFAB9
:1040B000F8E700BF04040010C8040010C00400109A
:1040C00014D30100041000E0FC03001010040010E1
:1040D0000020A10754D3010070B5274B1B68002BAB
:1040E00033D10446EFF31085012383F31088224A6D
:1040F000136801331360214B1B681A6B002A33D0FD
:104100001F4A127882B320B393F86830834224D3D5
:104110004FF6FF70FFF75EFF0646184B1B681B6BE0
:1041200013B3184B93F90030072B1ADC164AD454FA
:104130000133144A1370FFF729FAA8B10422027060
:1041400046804470FFF7EEF90EE01048FFF7FCF9E7
:1041500010E00F48FFF7F8F90CE00E48FFF7F4F90C
:1041600008E00D48FFF7F0F9034A1368013B1360BC
:1041700085F3108870BD00BFC40400100404001053
:10418000080400102C0400101804001078D301005B
:10419000B0D30100F0D3010030D40100F8B5274BB3
:1041A0001B681B6B002B35D0254B1B78002B31D0A7
:1041B000244B1B687BBB244B93F900307BB3EFF39C
:1041C0001084012383F310881E4A1368013313609F
:1041D0001E4B1A68104318601B4A1378013B5BB2F0
:1041E0001370002B1FDD013B194AD65C05274FF6E3
:1041F000FF70FFF7EFFE0546FFF7C8F920B1077023
:1042000046704580FFF78EF90E4A1368013B136034
:1042100084F31088F8BD0F48FFF796F9FAE70E48C7
:10422000FFF792F9F6E718B9054B1E780727DEE786
:10423000FFF7A0F80028E7D0F6E700BF040400105D
:1042400008040010C40400102C0400101404001012
:10425000180400104CD4010084D401002DE9F04171
:104260008AB0D9B1074615468846EFF31086012378
:1042700083F310882D4C2368013323602C4B1B687B
:104280001B6B13B12B4B1B7863B9284A1368013B96
:10429000136086F310880AB0BDE8F0812648FFF766
:1042A00053F9F8E7AA238DF8043004230DEB030239
:1042B00029464046FFF7F8FA044639464046FFF7DC
:1042C0009DFAADF80600FF20FFF784FE8DF805008B
:1042D000174B1B681A6B002AD7D0DA6922449B69F6
:1042E0009A4220D8124B1B681A6B002ACDD0DA698B
:1042F000920002F66810A20001A9184405F02AFCF9
:104300000B4B1A68D369A4F1690002EB830181F8B1
:1043100068092344D36151690C445461002BB4D023
:10432000FFF73EF8B1E7FFF73BF8DBE7C404001006
:104330000404001008040010C8D401000EB400B535
:1043400082B003AA52F8041B0192FFF787FF02B064
:104350005DF804EB03B07047002835D070B5044613
:104360001A4B1B68BBB10F2816D8194B1B68BBB979
:10437000EFF31085012383F31088154A1368013386
:104380001360144B1B681B6B73B9114A1368013B14
:10439000136085F3108870BD0F48FFF7D5F8FAE772
:1043A0000E48FFF7D1F8F6E74FF6FF70FFF712FE61
:1043B0000646FFF7EBF80028E7D00222027046809D
:1043C0004470FFF7AFF8E0E7704700BF200000102F
:1043D000C40400100404001000D5010040D5010001
:1043E0002DE9F843294B1B68DBB104460E46002A31
:1043F00019DB1746EFF31085012383F31088244956
:104400000B6801330B60234B19680A441A601F4B79
:104410001B681B6B4BB91E4A1368013B136085F385
:104420001088BDE8F8835742E4E7FF20FFF7D2FD8C
:104430005FFA80F839464FF6FF70FFF71FFB87B22F
:10444000FFF7A4F881460028E5D080F8018000231A
:1044500003704780FFF766F831464FF6FF70FFF7AD
:104460000DFB86B2FFF792F80028D4D046800022D8
:104470004270E4B2621C027089F80040FFF752F803
:10448000024B1B68034A12681A65C4E70404001053
:10449000C40400100C040010F8B5FE2824D804460B
:1044A0001546082924D8204B1B68194491F864301C
:1044B000934221D31D4B1B6813BB1D4B1B7893B13B
:1044C000EFF31086012383F31088184A1368013331
:1044D0001360154B1B681B6BB3B9144A1368013B7F
:1044E000136086F31088F8BD1248FFF72DF8FAE73D
:1044F0001148FFF729F8F6E71048FFF725F8F2E72B
:104500000F48FFF721F8EEE74FF6FF70FFF762FD67
:104510000746EDB2FFF73AF80028DED04780047076
:104520004570FEF7FFFFD8E704040010C404001034
:104530000804001078D50100B0D50100F8D50100BD
:1045400040D601002DE9F041FE2826D80446164643
:104550001D46082925D8244B1868014491F8643079
:10456000934222D3214B1B681BBBEFF3108701231F
:1045700083F310881D4A1368013313601A4B1B68BC
:104580001B6B13B11A4B1B78BBB9184A1368013B5C
:10459000136087F31088BDE8F0811648FEF7D4FF5A
:1045A000F9E71548FEF7D0FFF5E71448FEF7CCFF12
:1045B000F1E71348FEF7C8FFEDE7FF20FFF70AFD1C
:1045C0005FFA80F82946FF20FFF758FAC5B2F6B225
:1045D000FEF7DCFF0028D8D080F803800470467016
:1045E0008570FEF79FFFD0E704040010C40400109C
:1045F0000804001078D60100B8D6010008D70100E1
:1046000058D70100F8B5FE281BD804460D461B4BB1
:104610001B68D3B9EFF31086012383F31088174A80
:10462000136801331360164B1B681B6B13B1154BDA
:104630001B7873B9114A1368013B136086F3108825
:10464000F8BD1148FEF780FFFAE71048FEF77CFF3F
:10465000F6E7FF20FFF7BEFCC7B229464FF6FF7012
:10466000FFF70CFA85B2FEF791FF0028E2D0477001
:1046700004704580FEF756FFDCE700BFC40400105D
:10468000040400100804001090D70100E8D70100CE
:10469000F8B50F2818D80446EFF31085012383F3EB
:1046A00010881E4A1368013313601D4B1B78834228
:1046B00003D01C4B1B681B6B53B9184A1368013B92
:1046C000136085F31088F8BD1748FEF73DFFFAE741
:1046D000164B00221A604FF6FF70FFF77BFC07466F
:1046E0000F4B1C70FEF752FF06460028E5D00C4B1E
:1046F00019780320FFF71EFA01280CD00623337027
:10470000778074700122064B19780320FFF714FBA1
:10471000FEF708FFD1E707233370F1E7C404001068
:10472000080400100404001020D801001404001034
:1047300038B51F4B1B684BB1186B012805D01D4BBA
:104740001B6843B11A4B1B68186B38BD1A48FEF73B
:10475000FBFE0020F9E7EFF31085012282F31088B9
:1047600016490B6813440B60114B1B681A63FEF764
:10477000D5F9FEF7BFFC10F0FF0409D02046FFF783
:1047800087FF0E4A1368013B136085F31088D9E751
:104790000320FFF715FB0446094A01460320FFF7F3
:1047A000ADFB002221460320FFF772FAE6E700BFC7
:1047B00004040010CC04001068D80100C4040010E8
:1047C000ACD8010008B5FFF7B3FF08BD10B504462B
:1047D000FEF7F6FD012C03D0022C04D03CB910BD2D
:1047E000FFF7F0FFFBE70448FEF7AEFEF7E70348EC
:1047F000FEF7AAFEF3E700BFB8D80100F8D8010021
:1048000008B5FCF7B7F8034B18600349FEF7D8FC6E
:1048100008BD00BFE00400102CD90100004870471B
:104820001CD7072030B589B0054603AC204600F000
:1048300061FB0195079B009394E80F0000F030F8AE
:10484000154904F07BFF0446688900EB400004F042
:1048500021FF0146204605F02DF9A8B10022009263
:10486000012302210D480068FCF7DCF810F0020F6C
:1048700003D1C820FDF79EFED7E70821074B186833
:10488000FCF7D0F9002005E00421044B1868FCF780
:10489000C9F9012009B030BD0000C842E004001091
:1048A00084B038B504AC84E80F00099DB5F9000068
:1048B00004F0F0FE049904F037FE05F005F904B2A7
:1048C000B5F9020004F0E6FE059904F02DFE05F0AE
:1048D000FBF800B200FB00F004FB040004F0DAFE79
:1048E00007F010FABDE8384004B0704708B5101A58
:1048F00000B25B1A1BB203FB03F300FB003004F0B1
:10490000C9FE07F0FFF908BD2DE9F04788B006465B
:104910000F46914698469DF840A0002404940594C3
:1049200006940794009401940294ADF80C40FFF7AC
:1049300075FF0546B0F90030B34233D0ADF80060E2
:10494000ADF80270BAF1000F31D101238DF80830B3
:1049500008238DF80D3005238DF80C30C823ADF8F1
:104960000A3000238DF8093004AE6C4694E80F003D
:1049700007C633808DF81E900F21114B1868FCF785
:1049800025F907CC28606960AA602388AB810121E2
:1049900004A802F035FBB8F1000F0CD1012008B0DB
:1049A000BDE8F087B0F90230BB42C7D1F3E702237C
:1049B0008DF80830CCE76846FFF734FFEFE700BF1B
:1049C000E0040010F0B591B005460E4617460022EF
:1049D0000F920992ADF82000ADF82210002B30D1D3
:1049E00001238DF8283008238DF82D3005238DF80C
:1049F0002C30C823ADF82A3000238DF829300CACB8
:104A000008AB0FCB07C4238004AC10AB13E90F0035
:104A100084E80F00169B03930F21174B1868FCF7CF
:104A2000D5F8164B01930123009303AB4FF4A0720A
:104A300013491448FDF779FA3FB90124204611B013
:104A4000F0BD02238DF82830CDE708A8FFF7EAFE75
:104A500004460D4F33462A460C49384605F0F0FC13
:104A6000012303221946384602F0C0FB034B1868A5
:104A7000FDF78EFAE2E700BFE0040010DC0400104E
:104A800040D90100914A01002CD7072050D90100DC
:104A90002DE9F041B4B00446FDF706FC10900AADD4
:104AA0000FCC0FC523682B6006AC0BAB0FCB07C434
:104AB0002380904CBDF91A30BDF918208E4920464C
:104AC00005F0BEFC012303221946204602F08EFBAE
:104AD00001238DF83A30FFF7A1FE05464FF6FF732C
:104AE000038043804EE0BDF91230BDF91020BDF9BE
:104AF0000E10BDF90C00FFF7F9FE804904F0BCFF71
:104B0000002838D0C9E07E4C02212068FCF78AF8E2
:104B100001212068FCF75AF801248DF83A4000235F
:104B20008DF8343021460BA802F06AFA25A800F06F
:104B3000E1F9259804F0C8FF06B22AA800F0DAF9D6
:104B40002B9804F0C1FFBDF91830BDF91A20694F48
:104B50000192009303B232466A49384605F070FC70
:104B6000234602221146384602F040FB00F074FC56
:104B7000032102F0CDFCFBF70DFD40F2DC5110A843
:104B8000FDF7BEFC2FAC204600F0B4F906AB019354
:104B9000339B009394E80F00FFF782FE5A4904F01C
:104BA000CDFD0446BDF8220004F074FD0146204608
:104BB00004F080FF002800F08780FBF7E3FC00F0A2
:104BC0004BFC044600F04CFC064611A800F092F99C
:104BD000DDF8448016A800F08DF9179804F074FFF2
:104BE00007B2404604F070FFBDF91A300193BDF9D9
:104BF000183000933B4602B23146204600F072FB6B
:104C00000A9B03B1984700F027FC044600F028FCFB
:104C10000146204600F028FC00287FF774AF384C8E
:104C200001212068FBF7FEFF02212068FBF7CEFF81
:104C300000F012FC00F596400E3000680F90B5F9B8
:104C4000003084B2A34205D1B5F90220BDF83E3050
:104C50009A4290D01BA800F04DF91B9804F05AFF1F
:104C6000ADF80C0020A800F045F9219804F052FF9F
:104C7000ADF80E002B88ADF810306B88ADF812300F
:104C800000F0EEFB014603A801F0A4F828B9B5F93D
:104C90000030B3F1FF3F7FF426AFADF82C40BDF9F3
:104CA0003E30ADF82E3001210BA802F0A9F90BAB74
:104CB00007CB28606960AA601B88AB8100F0D0FB3D
:104CC000012102F091FC56E70A4CBDF91A30BDF9FA
:104CD00018200E49204605F0B3FB01230322194694
:104CE000204602F083FAFDF719FFFDF751F934B0C1
:104CF000BDE8F0812CD7072078D901000000A04042
:104D0000E0040010A0D901000000C84250D9010001
:104D100070B584B000F0A0FB044600F0A1FB014692
:104D200003260396012502954FF4AF6301934FF4D8
:104D3000C86300934FF448734FF47A72204601F031
:104D40003FFA00F089FB044600F08AFB0146039617
:104D5000029540F2A463019340F24C4300934FF458
:104D6000FA72204601F02CFA04B070BD2DE9F04330
:104D700085B000F071FB074600F072FB014601248C
:104D800003940025029540F68639CDF80490B426A8
:104D900000962B462A46384601F012FA00F05CFBDA
:104DA000074600F05DFB014603940295CDF80490A0
:104DB00040F29E78CDF8008040F6DC232A46384643
:104DC00001F0FEF900F048FB074600F049FB014600
:104DD00003940295AA230193CDF800802B462A461E
:104DE000384601F0EDF900F037FB074600F038FBDC
:104DF000014603940295CDF80490CDF800802B462F
:104E000040F21C72384601F0DBF900F029FB0194F6
:104E100040F60433009340F21C733246314601F0F1
:104E20005BFA00F019FB054600F01AFB01460394FB
:104E3000029440F6B83301934FF4A063009340F618
:104E400074134FF4A072284601F0BAF900F004FB85
:104E5000054600F005FB01460394029440F29B6373
:104E600001934FF4FA66009640F2C5234FF4BE62F8
:104E7000284601F0A5F900F0EFFA054600F0F0FA37
:104E800001460394029440F6F3030193009640F226
:104E9000757340F28662284601F092F9FFF738FFF9
:104EA00005B0BDE8F083FFFF08B5C8220021024825
:104EB00004F05EFE08BD00BF74D7072070B44378CD
:104EC000013B02460A49322404FB031330301668C2
:104ED00055689468D1681E605D609C60D96010322E
:104EE00010338242F3D112881A8070BC704700BF21
:104EF00074D7072038B504460D4DB5F9060004F007
:104F0000C9FB0C4904F0CEFC2060B5F9080004F0A0
:104F1000C1FB084904F0C6FC6060B5F90A0004F062
:104F2000B9FB054904F0BEFCA060204638BD00BFB7
:104F300074D70720000020410000C84208B50B4686
:104F400011460372012B05D000230373012201F0E7
:104F5000DDFF08BD054B5B6913F4006F02D101232F
:104F60000373F3E702230373F0E700BF40C0092097
:104F700008B5134641720122194601F0C7FF08BD6A
:104F8000024B5869C0F3C020704700BF40C00920E1
:104F9000014B1878704700BF28070010014B1868B4
:104FA000704700BF2C070010024B5869C0F3001077
:104FB000704700BF20C00920024B5869C0F3002091
:104FC000704700BF20C00920024B5869C0F3802001
:104FD000704700BF20C00920024B5869C0F3001081
:104FE000704700BF40C00920024B5869C0F3401011
:104FF000704700BF40C00920024B5869C0F38010C1
:10500000704700BF40C009202DE9F04F8DB04FF42C
:10501000FA70FDF7CFFA874C94F840E28DF80CE077
:10502000854E04964FF000088DF814808DF8158099
:1050300001258DF816504FF00C098DF817908DF85A
:1050400018808DF8195041F2883307937B4B0893F1
:10505000CDF82480CDF828804FF47A73ADF82C3049
:1050600040F2DC53ADF82E300EEBCE039F00274408
:105070000DEB090CBCE80F000FC7BCE80F000FC711
:10508000DCF800303B600EEB050384F840320EEB99
:10509000CE0E4FEA8E002946204401F0C7FE94F858
:1050A00040E28DF80CE006F1100304938DF81690A1
:1050B0002D238DF817300EEBCE039F0027440DEB08
:1050C000090CBCE80F000FC7BCE80F000FC7DCF8E5
:1050D00000303B600EEB050384F840320EEBCE0E41
:1050E0004FEA8E002946204401F0A0FE94F840E2E9
:1050F0008DF80CE006F1200304934FF003098DF8BE
:10510000169004238DF8173042F6E06307934C4B5A
:1051100008930EEBCE039F0027440DF10C0CBCE866
:105120000F000FC7BCE80F000FC7DCF800303B6072
:105130000EEB050384F840320EEBCE0E4FEA8E00E4
:105140002946204401F072FECDF8048000954346C4
:10515000C82206F144013B48FCF7E7FE44F6206014
:10516000FDF728FA06F1540B5A4629462046FFF768
:10517000E5FE06F15C08424629462046FFF7F8FEA8
:1051800044F62060FDF716FA06F1640A5246022141
:105190002046FFF7EDFE44F62060FDF70BFA06F11E
:1051A0006C0202212046FFF7C9FE04F124075A468B
:1051B00029463846FFF7C2FE44F62060FDF7FAF9AB
:1051C000424629463846FFF7D3FE44F62060FDF7F5
:1051D000F1F9524602213846FFF7CAFE44F6206034
:1051E000FDF7E8F9424629463846FFF7C1FE44F686
:1051F0002060FDF7DFF906F1700249463846FFF7F7
:10520000B7FE44F62060FDF7D5F906F16C020221E5
:105210003846FFF793FE06F18402494604F1480040
:10522000FFF78CFEFDF77AFCFCF7B2FE0DB0BDE88F
:10523000F08F00BFE4040010D0D90100C8A901001C
:10524000905F0100ED72010080B483B000AF786020
:105250007A681378022161F3020313707A68137875
:10526000022161F3C503137000BF0C37BD4680BC3B
:10527000704780B483B000AF78607A6813780221F9
:1052800061F30203137000BF0C37BD4680BC70474A
:1052900080B483B000AF78607A681378012161F33D
:1052A0000203137000BF0C37BD4680BC7047FFFF80
:1052B00008B5101A00B25B1A1BB203FB03F300FB24
:1052C000003004F0E7F906F01DFD054904F036FA58
:1052D0004FF07F5104F032FA04F0F6FB00B208BD43
:1052E000000020412DE9704F0446894615469B4633
:1052F000BDF92080BDF9246044F61232002104F08B
:1053000037FC40F21C420021484604F031FCB5F560
:10531000FA6FC0F283804FF4FA634E4A82FB0312A5
:10532000D917C1EB2211C9B240F6B7339B457BDDDB
:1053300040F6B833474880FB0320DA17C2EB20124F
:10534000D2B2B8F5FA6F76DB4FF4FA60414B83FBCB
:10535000003CC317C3EB2C13DBB240F6B7308642D8
:1053600070DD40F6B83C3B4880FB0C0E4FEAEC7019
:10537000C0EB2E10C0B2C1EB011C02EB8C0C14F878
:105380003CE04FF0040969F3C50E04F83CE004EB7F
:10539000CC0C4FF029098CF80690C1EB011C02EBF4
:1053A0008C0C04EBCC0C4FF03D0E8CF807E0C3EBFB
:1053B000031C00EB8C0C14F83CA04FF0050E6EF3B0
:1053C000C50A04F83CA004EBCC0C8CF80690C3EBA7
:1053D000031C00EB8C0C04EBCC0C4FF03D0E8CF856
:1053E00007E004F5964CACF8005044F6023524F87A
:1053F00005B044F60A35615544F60B31625444F663
:10540000043224F8028044F60632A65244F60C32E6
:10541000A35444F60D33E054BDE8708F002D01DB3A
:105420002B467AE7002378E7BBF1000F01DB5B46F0
:1054300080E700237EE7B8F1000F01DB404685E7F7
:10544000002083E7002E01DBB4468CE74FF0000C10
:1054500089E700BF1F85EB510048704734070010F3
:10546000004870473CD80720F0B58BB004AF786097
:1054700039607B683B613B68FB603B6903F59643A1
:105480000A331B7819463B6903F596430B331B78A7
:1054900018463A690B461B015B1A9B00034412F83D
:1054A0003330C3F3C203DBB2022B25D17D4B012283
:1054B0001A707C4B1B78002B05D10123022202219C
:1054C000794801F093FE3B6903F596430A331B7854
:1054D00019463B6903F596430B331B7818463A6926
:1054E0000B461B015B1A9B00191812F831306FF341
:1054F000C50302F8313002E06A4B00221A703B69A2
:1055000003F596430C331B7819463B6903F5964324
:105510000D331B7818463A690B461B015B1A9B003A
:10552000034412F83330C3F3C203DBB2022B08D1B9
:105530000123022202215D4801F058FE6FF00203B0
:10554000ABE03B6903F596430A331B781A463B6987
:1055500003F596430B331B78194613461B019B1A20
:105560009B000B44DB003A69D0183B6903F5964376
:105570000A331B781A463B6903F596430B331B78B5
:10558000194613461B019B1A9B000B44DB003A692A
:10559000D4183B6903F596430A331D783B6903F53C
:1055A00096430B331B781AB23B6903F596430A33D3
:1055B0001B7819B23B6903F596430B331B781BB27A
:1055C000002603960293019100922B462246014643
:1055D000386900F022FB3B6903F596430A331978DA
:1055E0003B6903F596430B331B781A46386900F084
:1055F00027F90023FB751AE007F1080207F10A03F7
:105600001946386900F089F80346B3F1FF3F02D12B
:105610004FF0FF3341E0B7F90A30DBB2B7F90820A9
:10562000D2B21946386900F00BF90346FB7597F9B9
:105630001730002BE0D097F91730012B2BD1F968E8
:10564000386900F035F83B6903F596440E34F96883
:10565000386900F063FB03461A462280C3F30F4308
:1056600063803B6903F596430C331B7819463B690D
:1056700003F596430D331B7818463A690B461B0118
:105680005B1A9B000344DB0013445B88C3F30B03EA
:105690009BB21BB201E04FF0FF3318461C37BD46EA
:1056A000F0BD00BF300700105CDA010078DA0100BD
:1056B00030B444F60C33C15C44F60D33C25CC1EB2C
:1056C000011302EB830300EBC3039C79DB79C4EB8A
:1056D000041403EB840300EBC303002406E0C2EBD5
:1056E000021201EB820200EBC2030134B4F5166F23
:1056F00011DA1A78032161F3C5021A709A79272A00
:1057000009D8D9793B2906D8DD8800F596430A33B4
:105710001B889D42E3D130BC704780B48BB000AF92
:10572000F860B9607A6047F6FF73FB8447F6FF7351
:10573000BB84002387F82330002387F8223000231E
:105740003B840023FB6161E00023BB6158E0FA6900
:1057500013461B019B1A9B00BA691344DB00FA68CD
:1057600013447B617B691B7803F00703DBB2012BD9
:1057700043D1B7F920309BB201339BB23B847B69A4
:105780005B88C3F30B039BB21A467B699B88C3F308
:105790000B039BB213447B827A8AB7F926309A4274
:1057A0000EDA7B8AFB847B699B88C3F30B039BB275
:1057B000BB84FB6987F82330BB6987F822301CE083
:1057C0007A8AB7F926309A4217D17B699B88C3F34E
:1057D0000B039BB21A46B7F924309A420DDA7B8A42
:1057E000FB847B699B88C3F30B039BB2BB84FB697F
:1057F00087F82330BB6987F82230BB690133BB616E
:10580000BB693B2BA3DDFB690133FB61FB69272BE4
:105810009ADD97F823301AB2BB681A8097F82230C5
:105820001AB27B681A80B7F92030002B01DD002303
:1058300001E04FF0FF3318462C37BD4680BC70475F
:1058400080B588B004AF78600B46FB701346BB7020
:10585000FA78B97813461B019B1A9B000B44DB00B6
:105860007A681344FB600023BB60F868FFF701FD12
:10587000FB78002B3AD0BB783A2B37D8FB785A1EEE
:10588000BB78591C13461B019B1A9B000B44DB0081
:105890007A681344BB60FB781BB2BA7812B2F9780D
:1058A00089B2013989B209B2B87880B2013080B2C8
:1058B00000B203900291019200930E23BA68F96836
:1058C000786800F0AAF9FB785A1EBB78581C7968F2
:1058D00013461B019B1A9B00034411F83330C3F39A
:1058E000C203DBB2052B01D1012392E1BB783A2B35
:1058F00032D8FA78BB78591C13461B019B1A9B00BF
:105900000B44DB007A681344BB60FB781BB2BA78A7
:1059100012B2F97809B2B87880B2013080B200B220
:1059200003900291019200930A23BA68F96878689B
:1059300000F073F9FA78BB78581C796813461B019C
:105940009B1A9B00034411F83330C3F3C203DBB24C
:10595000052B01D101235CE1FB78262B3AD8BB78DB
:105960003A2B37D8FB785A1CBB78591C13461B01BD
:105970009B1A9B000B44DB007A681344BB60FB78E6
:105980001BB2BA7812B2F97889B2013189B209B280
:10599000B87880B2013080B200B2039002910192D7
:1059A00000930E23BA68F968786800F036F9FB783E
:1059B0005A1CBB78581C796813461B019B1A9B0024
:1059C000034411F83330C3F3C203DBB2052B01D11A
:1059D00001231EE1FB78262B32D8FB785A1CB978BC
:1059E00013461B019B1A9B000B44DB007A6813448F
:1059F000BB60FB781BB2BA7812B2F97889B2013178
:105A000089B209B2B87800B2039002910192009372
:105A10000A23BA68F968786800F0FFF8FB785A1C26
:105A2000B878796813461B019B1A9B00034411F850
:105A30003330C3F3C203DBB2052B01D10123E8E00D
:105A4000FB78262B3AD8BB78002B37D0FB785A1C32
:105A5000BB78591E13461B019B1A9B000B44DB00AD
:105A60007A681344BB60FB781BB2BA7812B2F9783B
:105A700089B2013189B209B2B87880B2013880B2F6
:105A800000B203900291019200930E23BA68F96864
:105A9000786800F0C2F8FB785A1CBB78581E796809
:105AA00013461B019B1A9B00034411F83330C3F3C8
:105AB000C203DBB2052B01D10123AAE0BB78002B86
:105AC00032D0FA78BB78591E13461B019B1A9B00F3
:105AD0000B44DB007A681344BB60FB781BB2BA78D6
