:020000021000EC
:100000000080001045010100090101000B01010001
:100010000D0101000F0101001101010000000000AD
:10002000000000000000000000000000410A010084
:100030001301010000000000A10A0100E50A01000F
:100040001501010015010100150101001501010054
:1000500015010100150101005D24010011250100B9
:100060001501010015010100150101001501010034
:100070001501010015010100150101001501010024
:100080001501010015010100150101001501010014
:100090001501010015010100150101001501010004
:1000A000B525010015010100150101001501010030
:1000B00015010100150101001501010015010100E4
:1000C000150101001501010015010100D07C01009E
:1000D00000000010EC010000D07C010000C00720EF
:1000E00000000000D07C010000C8072000000000D4
:1000F000EC010010E005000000C007200000000037
:1001000000C807205C380000FEE7FEE7FEE7FEE7D8
:10011000FEE7FEE7FEE70023934209D210B450F851
:10012000044B41F8044B04339342F8D310BC70479E
:10013000704700238B4204D2002240F8042B043382
:10014000F8E7704710B50E4B07E003F10C049A680E
:1001500059681868FFF7DFFF23460A4A9342F4D331
:1001600006E01C46596854F8080BFFF7E2FF2346E7
:10017000054A9342F5D300F095F900F01DF9FEE72A
:10018000CC000100F000010008010100FEE7FEE7DD
:10019000FEE700BFFFFFFFFFFFFFFFFFFFFFFFFFC7
:1001A000FFFFFFFFFFFFFFFFFFFFFFFFFFFFFFFF5F
:1001B000FFFFFFFFFFFFFFFFFFFFFFFFFFFFFFFF4F
:1001C000FFFFFFFFFFFFFFFFFFFFFFFFFFFFFFFF3F
:1001D000FFFFFFFFFFFFFFFFFFFFFFFFFFFFFFFF2F
:1001E000FFFFFFFFFFFFFFFFFFFFFFFFFFFFFFFF1F
:1001F000FFFFFFFFFFFFFFFFFFFFFFFFFFFFFFFF0F
:10020000FFFFFFFFFFFFFFFFFFFFFFFFFFFFFFFFFE
:10021000FFFFFFFFFFFFFFFFFFFFFFFFFFFFFFFFEE
:10022000FFFFFFFFFFFFFFFFFFFFFFFFFFFFFFFFDE
:10023000FFFFFFFFFFFFFFFFFFFFFFFFFFFFFFFFCE
:10024000FFFFFFFFFFFFFFFFFFFFFFFFFFFFFFFFBE
:10025000FFFFFFFFFFFFFFFFFFFFFFFFFFFFFFFFAE
:10026000FFFFFFFFFFFFFFFFFFFFFFFFFFFFFFFF9E
:10027000FFFFFFFFFFFFFFFFFFFFFFFFFFFFFFFF8E
:10028000FFFFFFFFFFFFFFFFFFFFFFFFFFFFFFFF7E
:10029000FFFFFFFFFFFFFFFFFFFFFFFFFFFFFFFF6E
:1002A000FFFFFFFFFFFFFFFFFFFFFFFFFFFFFFFF5E
:1002B000FFFFFFFFFFFFFFFFFFFFFFFFFFFFFFFF4E
:1002C000FFFFFFFFFFFFFFFFFFFFFFFFFFFFFFFF3E
:1002D000FFFFFFFFFFFFFFFFFFFFFFFFFFFFFFFF2E
:1002E000FFFFFFFFFFFFFFFFFFFFFFFFFFFFFFFF1E
:1002F000FFFFFFFFFFFFFFFFFFFFFFFFFFFFFFFF0E
:1003000008B54FF0402003F013FA4FF040230222CB
:100310005A6000225A6040F6FF12DA6001225A60E9
:1003200008BDFFFF10B5084C2146084803F090F9BE
:10033000204603F0B7FA02F0BDFF03F0B9FA044813
:1003400000F0BEFA10BD00BF0024F4000020A10799
:100350000000001010B5174B1A6842F480421A6072
:100360001A6842F400421A601A6842F480321A6035
:10037000DA6942F48032DA61DA6942F40042DA6121
:10038000DA6942F48042DA6100240AE0094A93699A
:1003900043F48043936184F0010441F2883001F01A
:1003A000E3F9002CF2D1034AD36943F48043D361CB
:1003B000F1E700BF20C0092010B582B0FFF7B2FFFF
:1003C00000F026F8002301930124009446220549F9
:1003D000054800F0CFFF00F071F801F05FF820460B
:1003E00002B010BD10760100550301007047FFFFF9
:1003F000024AD36943F00103D361704740C009202A
:10040000024AD36943F08003D361704740C009209A
:1004100000B583B01C4B1A6842F001021A601A68DA
:1004200042F080021A601A6842F010021A601A68DC
:1004300042F020021A601A6842F040021A60FFF788
:10044000D7FFFFF7DDFF02F099F901F03BFF01F064
:10045000D9FE01F02BFD01F021FD02F097F902F029
:10046000C3FC02F0C7FE00F015F802F0D3FB002336
:100470000193012200924FF416720449044800F0DF
:1004800079FF03B05DF804FB40C00920207601002D
:10049000C51F010008B501F051FD012102F02CFE3D
:1004A00008BDFFFF08B5034A034B1A6003F03EF98D
:1004B00008BD00BF0000010008ED00E080B400AFFF
:1004C00000BFBD4680BC704738B50A46454C04F5B0
:1004D000AC754549284605F04BF9382384F840307F
:1004E000FE2384F841300223A3700623637028465C
:1004F00005F05EF93B2832D93B233A48037000F5FA
:10050000AC7005F055F93B282ED93B22354C04F54B
:10051000AC71E01C04F0B6FC3E2384F8423040226B
:10052000214604F1430004F0ADFC0A23A4F8843012
:1005300004F1400002F086F9014604F188054D22DD
:10054000284604F09FFC8022294604F1D80004F0DC
:1005500099FC0321022001F07AFE00230BE02846DB
:1005600005F026F9C3B2C8E7204805F021F9024694
:10057000CCE700BF013340F6B7329342F9DD0321E7
:10058000022001F059FE00220FE000BF01330F2BC3
:10059000FBDD174B5B6913F0260F05D100230F2BF2
:1005A000F7DC00BF0133FAE701324C2A07DC0D4BC0
:1005B000134493F8D8100E4B19600023E7E700238B
:1005C00001E000BF0133632BFBDD0321022001F0BA
:1005D0003EFE4FF0280383F31188BFF36F8FBFF304
:1005E0004F8FFEE700C807203076010058C907206A
:1005F000000001401AB9084206D11046704731EA9E
:10060000000303D00020704701207047012070478D
:1006100010B5182000F0C8F8044620B1002340F8B7
:10062000043B00F08FF9204610BDFFFF2DE9F84391
:1006300006460D4690461F46DDF8209000F066FF06
:1006400034683A4629462046FFF7D4FF40B1B8F156
:10065000000F19D024EA050333604FF0000915E0BC
:10066000B9F1000F12D0B8F1000F0AD100210FB17B
:1006700041F080614A462943301D01F0F3F800241F
:1006800004E04FF08071F2E74FF0000900F0CCFF7A
:10069000B9F1000F10D038B9124B4FF080521A60E8
:1006A000BFF34F8FBFF36F8F01F0FEF9044610F0D8
:1006B000007F04D024F07F442046BDE8F88300F09A
:1006C000D1F934683A4629462046FFF793FF28B10E
:1006D000B8F1000F02D024EA0505356000F0D2F928
:1006E000E8E700BF04ED00E0F8B504460D4600F170
:1006F0000C0600F00BFF206923682B4323600027C2
:100700000AE0216832EA010105D111E0216841F0D7
:10071000007101F007F92846B0420ED04568036821
:1007200023F07F4213F0806FEBD121681142F2D0A9
:1007300013F0807FEAD01743E8E7236823EA07072E
:10074000276000F071FF2068F8BD08B5FFF7CCFF07
:1007500008BDFFFF10B4124B1A461B688342FBD33F
:1007600051685418844209D041684418A3420AD001
:100770000360904200D0106010BC70474068014494
:1007800051601046F0E7074C2468A34206D05B682E
:100790001944416013681B680360EAE70460E8E7F6
:1007A00004020010EC01001070B5054600F0AEFE2A
:1007B000274B1B681D4243D135B1083515F0070F93
:1007C00002D025F007050835002D3BD0214B1B68D2
:1007D000AB4239D3204A146801E022461C466368C4
:1007E000AB4202D22368002BF7D11C4B1B68A342FB
:1007F0002CD0166808362368136063685B1B102BC7
:1008000018D8626813490B689B1A0B601449096871
:100810008B4201D212490B600D4B1B68134363607E
:10082000002323600F4A13680133136000F0FCFEBD
:10083000304670BD601943606560FFF78BFFE0E7ED
:100840000026F3E70026F1E70026EFE70026EDE7B4
:10085000F0010010F401001004020010EC0100107F
:10086000F8010010FC01001018B338B50446A0F1DF
:10087000080550F8043C0F4A1268134202D050F8A1
:10088000081C01B138BD23EA020340F8043C00F023
:100890003DFE54F8041C084A13680B4413602846B4
:1008A000FFF758FF054A13680133136000F0BCFEE0
:1008B000E8E77047F0010010F4010010000200109A
:1008C000F0B4024600210E4614E0194C256813448A
:1008D000083B23F00703236000245C601C6014467F
:1008E0009F1A5760136005B12A6063681E44013186
:1008F00000EBC102536883B1126812F0070F05D0F4
:10090000D41D24F00704121B134422460029DCD115
:10091000084C226000256560D7E7074B1E60074B37
:100920001E60074B4FF000421A60F0BC704700BFDA
:10093000EC01001004020010F8010010F401001096
:10094000F001001000F1080343604FF0FF328260B5
:10095000C360036100230360704700230361704795
:1009600043684B609A688A605160996008610368C7
:1009700001330360704730B40D68B5F1FF3F11D00B
:1009800000F108031C465B681A68AA42FAD963683A
:100990004B6099608C60616008610368013303609B
:1009A00030BC70470469F2E70369416882688A6075
:1009B000416851605A68824206D0002202611A687A
:1009C000013A1A601868704782685A60F5E782B089
:1009D000002301934FF0280383F31188BFF36F8F37
:1009E000BFF34F8F019B002BFCD002B07047FFFF7D
:1009F00006480068006880F3088862B661B6BFF3F5
:100A00004F8FBFF36F8F00DF00BF000008ED00E0E5
:100A10004FF0807340F8043C21F0010140F8081CBD
:100A2000034B40F80C3C40F8202C4038704700BF86
:100A3000CF090100FFFFFFFFFFFFFFFFFFFFFFFFE9
:100A4000074B19680868B0E8F00F80F30988BFF316
:100A50006F8F4FF0000080F311884EF00D0E70473D
:100A60005C0200104FF0280383F31188BFF36F8FEF
:100A7000BFF34F8F024A136801331360704700BF02
:100A800010000010034A1368013B13600BB983F395
:100A90001188704710000010FFFFFFFFFFFFFFFFEE
:100AA000EFF30980BFF36F8F0D4B1A6820E9F00F49
:100AB00010602DE908404FF0280080F3118800F005
:100AC0006DFE4FF0000080F31188BDE80840196802
:100AD0000868B0E8F00F80F30988BFF36F8F7047A4
:100AE0005C02001008B54FF0280383F31188BFF3B0
:100AF0006F8FBFF34F8F00F017FD18B1034B4FF00E
:100B000080521A60002383F3118808BD04ED00E0D1
:100B1000054B00221A6005490A60054A43F2FF119D
:100B2000116007221A60704710E000E018E000E052
:100B300014E000E010B50B4B1A6842F478021A601A
:100B40001A6842F078421A60FFF7E2FF0024064B71
:100B50001C60FFF74DFF00F021FEFFF738FF204635
:100B600010BD00BF20ED00E01000001010B50446DD
:100B7000FFF778FFA26BE36B9A4204D00024FFF7E3
:100B800081FF204610BD0124F9E710B50446FFF7A8
:100B900069FFA36B23B90124FFF774FF204610BD42
:100BA0000024F9E770B504461546866B026C5AB905
:100BB00003681BB100200136A66370BD806800F099
:100BC00033FF0023A360F6E76DB9406804F05AF9DB
:100BD000226C636813446360A268934219D323684C
:100BE00063602846E7E7C06804F04CF9226C514284
:100BF000E3689B1AE3602268934202D2A3680B4425
:100C0000E360022D01D00020D5E726B1013E00208F
:100C1000D1E72846CFE70020CDE70346026C6AB152
:100C200010B50846D9681144D9609C68A14201D327
:100C30001968D960D96804F025F910BD704738B536
:100C40000546FFF70FFF95F8454064B203E000F05A
:100C5000CFFE013C64B2002C08DD6B6A33B105F1B4
:100C6000240000F023FE0028F3D0F0E7FF2385F8EE
:100C70004530FFF707FFFFF7F5FE95F8444064B2F3
:100C800003E000F0B5FE013C64B2002C08DD2B69E6
:100C900033B105F1100000F009FE0028F3D0F0E7B1
:100CA000FF2385F84430FFF7EDFE38BD38B5044624
:100CB0000D46FFF7D7FE2168E26B236C03FB0210A1
:100CC000A0600020A0636160013A02FB0313E360AF
:100CD000FF2384F8443084F84530A5B923691BB953
:100CE000FFF7D0FE012038BD04F1100000F0DEFD5A
:100CF0000028F5D0084B4FF080521A60BFF34F8F99
:100D0000BFF36F8FECE704F11000FFF71BFE04F157
:100D10002400FFF717FEE3E704ED00E010B50346FB
:100D200002980C4631B90060C36304640121FFF7E7
:100D3000BDFF10BD0260F7E7F0B583B004460D4675
:100D4000164601FB00F04830FFF72EFD074638B18C
:100D50000090334600F1480229462046FFF7DEFFA7
:100D6000384603B0F0BDFFFFF0B585B004460F462E
:100D700001921D46002639E02A4639462046FFF7F3
:100D800011FF636A6BB938B13C4B4FF080521A6067
:100D9000BFF34F8FBFF36F8FFFF774FE012005B0D5
:100DA000F0BD04F1240000F081FD0028F4D0334BA5
:100DB0004FF080521A60BFF34F8FBFF36F8FEBE796
:100DC000FFF760FE0020EAE702A800F0D7FD012649
:100DD00019E0002384F8443021E0002384F84530F2
:100DE00023E02046FFF72BFF00F01EFCFFF73AFE42
:100DF000A26BE36B9A42BFD3022DBDD0019B002BA7
:100E0000DED0002EE0D0FFF73DFE00F07FFBFFF7C5
:100E100029FE94F8442052B2B2F1FF3FD9D094F8A1
:100E2000452052B2B2F1FF3FD7D0FFF72BFE01A908
:100E300002A800F0AFFDC8B92046FFF797FE0028D2
:100E4000CFD0019904F1100000F0FEFC2046FFF71E
:100E5000F6FE00F0E9FB0028C8D1084B4FF08052A5
:100E60001A60BFF34F8FBFF36F8FBFE72046FFF7C6
:100E7000E6FE00F0D9FB002091E700BF04ED00E0A2
:100E8000F8B5044616461A46EFF311874FF02803CB
:100E900083F31188BFF36F8FBFF34F8F806BE36BCA
:100EA000984205D3022A03D0002087F31188F8BDA9
:100EB00094F845506DB2A36B2046FFF773FEB5F171
:100EC000FF3F05D001356DB284F845500120ECE7B5
:100ED000636A0BB90120E8E704F1240000F0E6FCA6
:100EE00018B126B101203060DFE70120DDE70120E5
:100EF000DBE7FFFFF0B585B004460F460192002600
:100F00003CE039462046FFF788FE013DA563236992
:100F100023B9FFF7B7FD012005B0F0BD04F11000C3
:100F200000F0C4FC0028F4D0344B4FF080521A601B
:100F3000BFF34F8FBFF36F8FEBE7FFF7A3FD0020E9
:100F4000EAE702A800F01AFD012621E0002384F858
:100F5000443029E0002384F845302BE02046FFF799
:100F60006EFE00F061FB09E02046FFF768FE00F02E
:100F70005BFB2046FFF709FE00283DD1FFF772FD1D
:100F8000A56B002DBDD1019B002BD6D0002ED8D053
:100F9000FFF778FD00F0BAFAFFF764FD94F84430EB
:100FA0005BB2B3F1FF3FD1D094F845305BB2B3F1FF
:100FB000FF3FCFD0FFF766FD01A902A800F0EAFCD1
:100FC0000028D1D12046FFF7E0FD0028C6D00199C6
:100FD00004F1240000F038FC2046FFF730FE00F05A
:100FE00023FB0028CAD1054B4FF080521A60BFF393
:100FF0004F8FBFF36F8FC1E700208DE704ED00E056
:101000000023092B0CD8074A52F833200AB10133C8
:10101000F7E7044A42F8331002EBC3035860704705
:10102000704700BF0C02001070B504460D4616460E
:10103000FFF718FD94F844305BB2B3F1FF3F0DD0D9
:1010400094F845305BB2B3F1FF3F0BD0FFF71AFDC8
:10105000A36B5BB12046FFF7F2FD70BD002384F85F
:101060004430EDE7002384F84530EFE73246294667
:1010700004F1240000F008FCECE7FFFF084B1B68BC
:101080001B6823B9074B4FF0FF321A607047044BBF
:101090001B68DB68DB685A68024B1A60704700BF48
:1010A000600200100C03001010B50446006BFFF73F
:1010B000DBFB2046FFF7D8FB10BD2DE9F04780464B
:1010C0000D4617469946089EDDF824A00A9C92001A
:1010D000A521206B03F0E4FE236B07F18042013A67
:1010E00003EB820727F00707A76485B30022132AC2
:1010F00007D8A95CA31883F83410AB5C0BB101329C
:10110000F5E7002384F84730042E00D90426E66270
:10111000E66400252565201DFFF71FFC04F118007B
:10112000FFF71BFC2461C6F10506A66164626565D4
:1011300084F858504A4641463846FFF769FC20601B
:10114000BAF1000F01D0CAF80040BDE8F0870023D3
:1011500084F83430D8E7FFFF38B50024042C08D8D1
:1011600004EB840293000E481844FFF7EBFB0134B4
:10117000F4E70C4D2846FFF7E5FB0B4C2046FFF744
:10118000E1FB0A48FFF7DEFB0948FFF7DBFB0948F4
:10119000FFF7D8FB084B1D60084B1C6038BD00BF33
:1011A00068020010E0020010F402001018030010A2
:1011B00044030010300300106002001064020010AD
:1011C00010B50446FFF74EFC204A13680133136044
:1011D0001F4B1B685BB11F4B1B686BB91C4B1B681B
:1011E000DA6AE36A9A4207D8194B1C6004E0184B8C
:1011F0001C601368012B26D0174A13680133136053
:10120000E06A01238340154A11680B43136000EB29
:101210008000211D124B03EB8000FFF7A1FBFFF7BD
:1012200031FC0C4B1B686BB1094B1B68DA6AE36A33
:101230009A4207D20B4B4FF080521A60BFF34F8F88
:10124000BFF36F8F10BDFFF787FFD5E7CC0200100B
:101250005C0200102C030010D8020010DC02001009
:101260006802001004ED00E00F4B1B68D3B110B50D
:10127000FFF7F8FB0D4BDB68DC68201DFFF794FBE4
:101280000B4A1368013B1360074A1368013B136064
:10129000FFF7F8FB2046FFF707FF034B1B68002B07
:1012A000E6D110BD704700BFD0020010440300100B
:1012B000CC02001008B5FFF7D7FF064B1B68012BC7
:1012C000F9D9054B4FF080521A60BFF34F8FBFF32F
:1012D0006F8FF0E76802001004ED00E070B504467F
:1012E0000D461D4B1E681D4B18680430FFF75CFB54
:1012F00050B91A4B1B68DA6A012303FA02F2184943
:101300000B6823EA02030B60B4F1FF3F0DD03444B5
:10131000124B1B685C60A64210D9124B18680F4B29
:1013200019680431FFF727FB70BD002DEFD00B4B80
:10133000196804310C48FFF713FBF5E70B4B1868ED
:10134000064B19680431FFF716FB094B1B68A342D3
:10135000EAD9074B1C60E7E7580300105C02001055
:10136000DC02001064020010300300106002001064
:101370000C0300102DE9F04385B00746884614465B
:101380001E469000FFF710FAF0B181465C20FFF78F
:101390000BFA0546A0B1C0F83090D5B100230393F5
:1013A00002950D9B01930C9B0093334622464146C8
:1013B0003846FFF782FE2846FFF702FF012005E0CE
:1013C0004846FFF751FAE8E74FF0FF3005B0BDE8B7
:1013D000F0834FF0FF30F9E738B50446FFF742FBE2
:1013E000002C33D0251D2846FFF7DEFA68B9E26AE3
:1013F00002EB82039B002049CB5833B90123934071
:101400001E490A6822EA03020A60A36A1BB104F1BA
:101410001800FFF7C9FA1A4A136801331360194B11
:101420001B68A34215D0184A1368013B136020467D
:10143000FFF73AFEFFF722FEFFF724FB134B1B6872
:101440001BB1104B1B68A3420CD038BD0D4B1C6860
:10145000C8E729460E48FFF783FA0E4A136801339E
:101460001360E9E70C4B4FF080521A60BFF34F8FC7
:10147000BFF36F8FE9E700BF68020010DC020010C5
:10148000D80200105C020010CC0200102C030010E7
:1014900044030010D002001004ED00E000B583B05A
:1014A000144B0193002300933C2213491348FFF788
:1014B00061FF012804D0012805D003B05DF804FBCA
:1014C00000F060FBF7E74FF0280383F31188BFF3C8
:1014D0006F8FBFF34F8F0A4B4FF0FF321A60094BEB
:1014E00001221A60084B00221A60FEF709FFFFF77D
:1014F00021FBE2E7080300105C760100B512010051
:101500000C0300102C03001058030010024A13684B
:1015100001331360704700BFD4020010014B1868FC
:10152000704700BF58030010F8B5344B1B68002B00
:101530005DD1334B1E6801361E60AEB1314B1B6866
:10154000B3424AD90027304B1B68DB6A03EB8303A5
:101550009A002E4B9B58012B00D901272C4B1B685E
:10156000002B49D0012747E02A4A11682A4B186806
:1015700010601960294A136801331360FFF77EFD7C
:10158000DCE70127234B1B681B6843B3214B1B6817
:10159000DB68DC6863689E4226D3251D2846FFF77A
:1015A00003FAA36A1BB104F11800FFF7FDF9E36A1F
:1015B00001229A401A49086802430A6003EB830338
:1015C0009A00294611481044FFF7CAF9E26A0E4B07
:1015D0001B68DB6A9A42D4D2D4E70027D2E7094BD2
:1015E0004FF0FF321A60AEE7064A1360ABE70D4AD0
:1015F00013680133136000273846F8BDD402001089
:10160000580300100C0300105C0200106802001068
:101610005C03001060020010640200101003001050
:10162000DC0200101403001038B5FFF71BFA2D4B35
:101630001A68013A1A601B68002B4DD12A4B1B68AF
:101640000BB9002449E00024284B1B681BB3274B2F
:10165000DB68DC6804F11800FFF7A6F9251D2846B1
:10166000FFF7A2F9E06A01238340214A11680B4386
:10167000136000EB800029461E4B03EB8000FFF750
:101680006FF9E26A1C4B1B68DB6A9A42DCD31B4B86
:1016900001221A60D8E70CB1FFF7F0FC184B1C6868
:1016A00074B9164B1C68C4B1164B4FF080521A60C7
:1016B000BFF34F8FBFF36F8F01240EE0013C07D0C3
:1016C000FFF732FF0028F9D00C4B01221A60F5E732
:1016D0000B4B00221A60E4E70024FFF7D3F9204601
:1016E00038BD00BFD4020010CC0200101803001057
:1016F000DC020010680200105C0200105C030010A5
:101700001403001004ED00E038B505460C46FFF761
:10171000FDFE134B18682A681444824209D9A2427C
:1017200001D82C600EE0A04201D32C600AE02C60AE
:1017300004E0A24201D8A04210D22C600021201A5D
:10174000FFF7CCFDFFF770FF38B9064B4FF0805222
:101750001A60BFF34F8FBFF36F8F38BD2C60F1E776
:101760005803001004ED00E010B540B90A4B4FF0EB
:1017700080521A60BFF34F8FBFF36F8F10BD0446C6
:10178000FFF7C4FE00212046FFF7A8FDFFF74CFF3E
:101790000028F3D1EAE700BF04ED00E0254B1B6809
:1017A0001BB1254B01221A60704710B5224B002255
:1017B0001A60224B1B681B6B1A68B2F1A53F03D15C
:1017C0005A68B2F1A53F26D01C4B1868196834310D
:1017D000FEF77AFE1A4B1B68B3FA83F3DBB2C3F150
:1017E0001F03184903EB830082000A4450684068D5
:1017F000506003EB8304A20014460832114488426F
:1018000012D003EB83039A000E4B13445B68DA6833
:101810000A4B1A6010BD9A68B2F1A53FD4D1DB68BB
:10182000B3F1A53FD0D1D5E74068064A22445060C5
:10183000E7E700BFD40200105C0300105C02001058
:10184000DC0200106802001010B50C46044B196849
:101850001831FFF790F801212046FFF73FFD10BD3A
:101860005C02001010B51446064B1A6841F00041A6
:10187000916119681831FFF773F801212046FFF7CD
:101880002DFD10BD5C02001038B50D461446064B08
:1018900019681831FFF764F80CB14FF0FF35214695
:1018A0002846FFF71BFD38BD5C02001038B5C36841
:1018B000DC6804F118052846FFF776F8134B1B681F
:1018C000E3B9251D2846FFF76FF8E06A012383403E
:1018D0000F4A11680B43136000EB800029460D4B43
:1018E00003EB8000FFF73CF8E26A0B4B1B68DB6AF6
:1018F0009A4208D90120094B186038BD294608488A
:10190000FFF72EF8F0E70020F7E700BFD402001041
:10191000DC020010680200105C0200105C03001082
:101920001803001038B541F000410160C468FFF7AA
:101930003BF8251D2846FFF737F8E06A012383406E
:101940000A4A11680B43136000EB80002946084BDC
:1019500003EB8000FFF704F8E26A064B1B68DB6AC2
:101960009A4202D9044B01221A6038BDDC020010F1
:10197000680200105C0200105C030010034B1B683F
:101980000360034B1B684360704700BF10030010E7
:1019900058030010F8B504460D46FFF763F8124BE4
:1019A00019686368C81A2A68B2F1FF3F14D0276823
:1019B0000E4E3668B74201D08B4212D9824203D80C
:1019C00000232B60012408E05B1A13442B6020469F
:1019D000FFF7D4FF002400E00024FFF753F820466F
:1019E000F8BD0124F9E700BF5803001010030010F0
:1019F000014B01221A6070475C030010014B18680C
:101A0000704700BF5C020010054B1B6833B1054BEB
:101A10001B680BB1002070470220704701207047FF
:101A20002C030010D4020010002834D038B504462E
:101A3000036D013B0365C16AC26C91422DD00BB1AD
:101A4000002038BD051D2846FEF7AEFF68B9E26AE2
:101A500002EB82039B001249CB5833B90123934018
:101A600010490A6822EA03020A60E06CE062C0F1F1
:101A70000503A361012404FA00F30A4A11680B4329
:101A8000136000EB80002946054B03EB8000FEF756
:101A900067FF2046D5E7002070470020D1E700BF50
:101AA00068020010DC020010044A13689869136889
:101AB000DB6A1268C3F10503936170475C02001092
:101AC000064B1A6813682BB90123036023B9D36846
:101AD000186870470023F8E7002070476003001083
:101AE00008B54160006191420CD8D21A83699A42CC
:101AF00001D3012008BD011D094B1868FEF73BFF0B
:101B00000020F7E79A4201D2994206D2011D054B07
:101B10001868FEF730FF0020ECE70120EAE700BF7D
:101B2000640300106003001038B5FEF79BFF0F4BF5
:101B30001B6813B1FEF7A6FF38BD0D4D2846FEF712
:101B400001FF0C4C2046FEF7FDFE0B4B1D600B4BBE
:101B50001C60002210210520FFF7EEF8034B1860EF
:101B60000028E7D00649FFF74BFAE3E7940300109B
:101B7000680300107C030010600300106403001071
:101B80006476010000B583B0FFF7CEFF084B1B68F9
:101B900063B1084B01930423009300236422064998
:101BA0000648FFF7E7FB03B05DF804FB0020FAE707
:101BB00094030010980300106C7601005D1E010074
:101BC00030B585B01C46134B1D6805B300910192DA
:101BD0000290052913DCFFF717FF022807D0002326
:101BE0001A4669460B480068FFF7BEF80DE000236F
:101BF000089A694607480068FFF7B6F805E0002331
:101C0000224669462846FFF73BF905B030BD002063
:101C1000FBE700BF9403001070B582B0164B1B6841
:101C20001A6812B3DB681E68DC68251D2846FEF7BB
:101C3000BBFE236A2046984794F8243013F0040F23
:101C4000ECD0A36933449E4207D2636024612946E5
:101C5000094B1868FEF78FFEE0E7002100910B4664
:101C600032462046FFF7ACFFD8E7044A1068024925
:101C70000860136002B070BD6003001064030010C0
:101C800038B50546FFF74AFC0446074B1B688342FC
:101C900005D800232B60044B1C60204638BDFFF79D
:101CA000BBFF01232B60F6E79003001070B582B0F4
:101CB00006460D46124B1B68DB68DC68201DFEF7EC
:101CC00073FE94F8243013F0040F08D123F00103BD
:101CD00084F82430236A2046984702B070BDA16979
:101CE00033462A4631442046FFF7FAFE0028F1D059
:101CF000002100910B4632462046FFF761FFE9E7DD
:101D00006003001070B582B006460C46FFF7FEFB7C
:101D100001A8FFF7B5FF019B23BB05460CB9B042F4
:101D200017D224B1114A12681268CAB90124224696
:101D3000711B0F4B1868FFF777F9FFF775FC98B91F
:101D40000C4B4FF080521A60BFF34F8FBFF36F8F71
:101D50000AE0FFF769FC29463046FFF7A7FF03E0DA
:101D60001C46E4E7FFF760FC02B070BD640300109E
:101D70009403001004ED00E010B588B006E0079968
:101D80000698059B9847049B002B0BDA002204A9B8
:101D9000314B1868FFF7AEF800285BD0049B002B8E
:101DA000F1DAECE7069C636913B1201DFEF7FCFD38
:101DB00003A8FFF765FF049B092BE7D8DFE803F0D2
:101DC000050505262D3C0505262D94F8243043F005
:101DD000010384F82430059BA1690246194420467A
:101DE000FFF77EFE0028D1D0236A2046984794F85A
:101DF000243013F0040FC9D0A269002100910B46D2
:101E0000059802442046FFF7DBFEBFE794F8243034
:101E100023F0010384F82430B8E794F8243043F029
:101E2000010384F824300599A16103460246014468
:101E30002046FFF755FEA9E794F8243013F0020F6F
:101E400004D023F0010384F824309FE72046FEF7F6
:101E50000BFD9BE708B010BD9403001000B583B0E4
:101E600001A8FFF72DFE0199FFF74CFFFFF784FF54
:101E7000F6E7FFFF10B584B014461A466FF0010371
:101E80000093019002910394002369460248006880
:101E9000FEF7F6FF04B010BD9403001008B5FEF77E
:101EA000B7FB014B186008BD9C03001008B5C822A1
:101EB0000021024802F0F4FF08BD00BFA0C90720BE
:101EC00070B44378013B02460A49322404FB0313F1
:101ED0003030166855689468D1681E605D609C60FB
:101EE000D960103210338242F3D112881A8070BC4C
:101EF000704700BFA0C9072008B50B461146037202
:101F0000012B05D000230373012200F0FDFE08BD64
:101F1000054B5B6913F4006F02D101230373F3E7F0
:101F200002230373F0E700BF40C0092008B5134641
:101F300041720122194600F0E7FE08BD024B5869C4
:101F4000C0F3C020704700BF40C00920014B187883
:101F5000704700BFE4050010014B1868704700BFD0
:101F6000E8050010024B5869C0F30010704700BF2D
:101F700020C00920024B5869C0F30020704700BF01
:101F800020C00920024B5869C0F38020704700BF71
:101F900020C00920024B5869C0F30010704700BFF1
:101FA00040C00920024B5869C0F34010704700BF81
:101FB00040C00920024B5869C0F38010704700BF31
:101FC00040C009202DE9F04F8DB04FF4FA70FFF7B3
:101FD000CBFB874C94F840E28DF80CE0854E0496DC
:101FE0004FF000088DF814808DF8158001258DF8CC
:101FF00016504FF00C098DF817908DF818808DF859
:10200000195041F2883307937B4B0893CDF8248015
:10201000CDF828804FF47A73ADF82C3040F2DC53C1
:10202000ADF82E300EEBCE039F0027440DEB090CCC
:10203000BCE80F000FC7BCE80F000FC7DCF800308A
:102040003B600EEB050384F840320EEBCE0E4FEAF8
:102050008E002946204400F0E7FD94F840E28DF818
:102060000CE006F1100304938DF816902D238DF8E3
:1020700017300EEBCE039F0027440DEB090CBCE894
:102080000F000FC7BCE80F000FC7DCF800303B6043
:102090000EEB050384F840320EEBCE0E4FEA8E00B5
:1020A0002946204400F0C0FD94F840E28DF80CE091
:1020B00006F1200304934FF003098DF816900423D2
:1020C0008DF8173042F6E06307934C4B08930EEB04
:1020D000CE039F0027440DF10C0CBCE80F000FC786
:1020E000BCE80F000FC7DCF800303B600EEB0503C7
:1020F00084F840320EEBCE0E4FEA8E002946204483
:1021000000F092FDCDF8048000954346C82206F108
:1021100044013B48FFF72EF944F62060FFF724FB0B
:1021200006F1540B5A4629462046FFF7E5FE06F114
:102130005C08424629462046FFF7F8FE44F6206038
:10214000FFF712FB06F1640A524602212046FFF710
:10215000EDFE44F62060FFF707FB06F16C0202215A
:102160002046FFF7C9FE04F124075A46294638469F
:10217000FFF7C2FE44F62060FFF7F6FA4246294612
:102180003846FFF7D3FE44F62060FFF7EDFA5246DB
:1021900002213846FFF7CAFE44F62060FFF7E4FA52
:1021A000424629463846FFF7C1FE44F62060FFF755
:1021B000DBFA06F1700249463846FFF7B7FE44F6EF
:1021C0002060FFF7D1FA06F16C0202213846FFF7D2
:1021D00093FE06F18402494604F14800FFF78CFEA5
:1021E000FFF70CFCFFF7F8F80DB0BDE8F08F00BF6B
:1021F000A003001074760100C8A90100905F0100DF
:102200002D30010008B50949094801F02FF8094AA5
:10221000136823F0300343F020031360136C23F0A2
:10222000300343F08003136408BD00BFEC050010C9
:102230000040034000C00240400100F1005000F5A2
:102240001C20836901228A40134383617047400147
:1022500000F1005000F51C20C36901228A4013439D
:10226000C3617047F8B501F00F077F004300DBB290
:1022700003EB1113DBB2124E56F823E0032505FAE7
:1022800007FC2EEA0C0546F82350103356F823506D
:1022900025EA0C054FF0080C0CFA07F73D4346F809
:1022A0002350430103F1005303F51C231A68012551
:1022B00005FA01F414431C60FFF7C9FFF8BD00BF25
:1022C00000C0024030B583B0802301220F4910487E
:1022D00001F0CEF800F024F800F072F800224D2151
:1022E0000520FEF729FD0B4D28600B4C2146FEF71B
:1022F00087FE00230193032300932B68822204F1BD
:1023000014010648FFF736F803B030BD68CE072049
:10231000F80600104806001020770100D1250100C2
:1023200070B5214B1A6822F0404242F080421A6098
:102330001A6C22F040421A645A6822F0030242F0FA
:1023400001025A605A6C22F0030242F008025A64F9
:1023500003210220FFF786FF144D4026C5F8806058
:10236000134C204601F00EFA1249204601F029FADA
:102370000323E360204601F021FA4FF400730122A9
:102380000D490E4801F074F88723A360636843F099
:1023900005036360636823F002036360C5F880612E
:1023A000302385F8063370BD00C0024000E100E034
:1023B0000000014080841E0068CA0720D00600107B
:1023C00070B5214B1A6822F4401242F480121A6050
:1023D0001A6C22F4401242F400021A641A6822F4C1
:1023E000400242F480021A601A6C22F4400242F069
:1023F00000721A64154D8026C5F88060144C204682
:1024000001F0C0F94FF4E131204601F0DAF903237D
:10241000E360204601F0D2F94FF4007301220D4928
:102420000D4801F025F88723A360636843F0050396
:102430006360636823F002036360C5F88061302342
:1024400085F8073370BD00BF00C0024000E100E026
:102450000080094068CC0720E406001010B582B067
:1024600000230193214801F0BDF80A2802DC204B2B
:1024700000221A701D4C1F4A21461F4801F0DEF948
:10248000204601F0AFF80A2802DD194B1B78A3B1F2
:10249000164801F0A7F8FF281ADC019B3BB1174B47
:1024A0004FF080521A60BFF34F8FBFF36F8F144B02
:1024B0004022C3F8802102B010BD01AB04221149B3
:1024C00009681148FFF7D6FC094B01221A70E4E7AE
:1024D0000E4A936943F40043936101AB0422094916
:1024E00009680948FFF7C6FCD7E700BFD00600100F
:1024F0004C060010F80600100000014004ED00E05A
:1025000000E100E00C0700104B07010020C009208B
:1025100010B582B0002301931E4801F063F80A2829
:1025200002DC1D4B00221A701A4C1C4A21461C4822
:1025300001F084F9204601F055F80A2802DD164B17
:102540001B78A3B1134801F04DF8FF281ADC019B5A
:102550003BB1144B4FF080521A60BFF34F8FBFF363
:102560006F8F114B8022C3F8802102B010BD01ABE8
:1025700010220E4909680E48FFF77CFC064B012229
:102580001A70E4E701AB1022084909680848FFF710
:1025900071FCDCE7E40600104D060010F8060010A0
:1025A0000080094004ED00E000E100E00C070010AD
:1025B0004B07010008B5044B1B681B68DB68034A26
:1025C0001068984708BD00BF14000010F405001003
:1025D00038B504463220FFF7C7F818E01B4D2A78BB
:1025E0001B491C4800F03CF86B78FC2B02D06B7A3E
:1025F000232B0CD11920FFF7B7F808E0134B1A78FA
:102600001349154800F074F80220FFF7ADF84FF0B9
:10261000FF320E492046FEF76DFC0128F7D10B4D25
:10262000294611F8012B0A4800F042FF95F84C307A
:10263000012BD3D0032BE1D0054D284600F0D2FF6B
:1026400002460649284600F08FFFE0E7F805001033
:10265000F8060010000001400080094050060010FC
:1026600080B588B000AFF860B9607A6003210220BD
:10267000FFF7E2FD21E0FB7C1946F86800F079F8ED
:102680000023FB6103E000BFFB690133FB61FB69D1
:102690000F2BF8DD09E00023BB6103E000BFBB693D
:1026A0000133BB61BB690F2BF8DDF86800F063F8FC
:1026B000034603F02603002BEDD007F11303194660
:1026C000B86800F039FF0346002BD4D100237B61AA
:1026D00003E000BF7B6901337B617B69632BF8DD1D
:1026E00003210220FFF7B3FD00BF2037BD4680BDA8
:1026F00080B588B000AFF860B9607A6021E0FB7CFB
:102700001946F86800F035F80023FB6103E000BFCC
:10271000FB690133FB61FB690F2BF8DD09E0002346
:10272000BB6103E000BFBB690133BB61BB690F2B19
:10273000F8DDF86800F01FF8034603F02603002BCD
:10274000EDD007F113031946B86800F0F5FE034613
:10275000002BD4D100237B6103E000BF7B690133F0
:102760007B617B69632BF8DD00BF00BF2037BD466E
:1027700080BD0160704740697047FFFF08B5FDF7F5
:1027800047FF014B186008BD0C07001000B583B06F
:1027900000F010F80023019302220092F022034976
:1027A0000348FEF7E7FD03B05DF804FB487701003E
:1027B000AD2B010008B50321024B1868FDF794FF0B
:1027C00008BD00BF0C07001010B582B00C46009089
:1027D00001231A4605480068FDF728FF34EA000384
:1027E00002D0002002B010BD0120FBE70C07001052
:1027F00008B50146024B1868FDF776FF08BD00BF1B
:102800000C07001000B583B0009001231A46022186
:1028100006480068FDF70AFF10F0020F03D1002000
:1028200003B05DF804FB0120FAE700BF0C070010BD
:1028300008B50221024B1868FDF756FF08BD00BF1E
:102840000C07001030B41D4A7E2353708378D91DC5
:102850000B3313700B0A9370D170012313715371F2
:10286000B0F84430190A9171D371002313720178C2
:10287000517290F90110917284789C4209D903F148
:102880000A04C218D1780D4A224451700133DBB2D8
:10289000F2E70022032306E00849194449780A4474
:1028A00012B20133DBB204F109011D469942F3DA99
:1028B000D243024805446A7030BC7047E8CE072016
:1028C00038B50D461446FFF7BDFF0A4981F84C5054
:1028D0000023642208480068FEF746FA28B9054636
:1028E0002046FFF785FF284638BD2046FFF780FFCA
:1028F0000125F8E7E8CE07204806001090B587B01C
:1029000000AF78607B68002B01D1002331E14FF4E8
:10291000FA70FFF777FF00237B730023FB8100230E
:10292000FB8200237B7500233B7300233B7507F17B
:102930000D031946786800F0FFFD20E007F10D0354
:102940001946786800F0F8FD0346002B0ED03B7D59
:1029500001333B753B7D052B11D9FFF769FF874B91
:102960001B680133854A1360002302E1FFF760FF13
:10297000824B1B680133814A13600023F9E07B7BA3
:102980007E2BDBD103227E49786800F0EDFD7C4B85
:102990001B78FB81B7F90E301B02FB81784B5B780B
:1029A0009AB2FB8913449BB2FB81B7F90E304B2BD3
:1029B00008DDFFF73DFF714B1B6801336F4A136061
:1029C0000023D6E06E4B9B789AB2FB8A13449BB2ED
:1029D000FB826B4B9B78892B08D10322684978686E
:1029E00000F0C2FDFFF724FF0023C2E000233B7587
:1029F00011E03B7D01333B753B7D052B08D9FFF78B
:102A000017FF5E4B1B6801335C4A13600023B0E084
:102A10000120FEF7A9FE786800F0E4FD0246B7F950
:102A20000E30013B9A42E4DB06225549786800F0FB
:102A30009BFD00233B610BE0514A3B6913441B782B
:102A40009AB2FB8A13449BB2FB823B6901333B6120
:102A50003B69032BF0DD4A4B1A794A4B1A70494BFC
:102A60001B789AB2FB8A13449BB2FB82444B5B797E
:102A70005AB2444B5A70434B93F90130DBB29AB2CD
:102A8000FB8A13449BB2FB82FB89DBB2073BDAB2C1
:102A90003C4B9A703B4B9B78402B62D800233B7594
:102AA00011E03B7D01333B753B7D052B08D9FFF7DA
:102AB000BFFE324B1B680133304A1360002358E0DD
:102AC0000120FEF751FE2F4B9B781C46786800F0E2
:102AD00089FD03469C42E4DA2A4B9B781A462A4930
:102AE000786800F041FD00237B750BE07B7D254A73
:102AF0001344DB789AB2FB8A13449BB2FB827B7D42
:102B000001337B751F4B9B787A7D9A42EED307F198
:102B10000C031946786800F00FFDFB8ADBB2FB82DC
:102B2000FB8ADBB2DB43DBB2FB82B7F916303A7BC0
:102B300093420AD1154B1B680133144A13601148A4
:102B400000F026F8FFF774FE12E0FFF771FE0B4B62
:102B50001B680133094A1360012000F0C5F9002306
:102B600007E0FFF765FE054B1B680133034A13605E
:102B7000002318461C37BD4690BD00BF100700104B
:102B800080CF072038CF07203BCF07201407001045
:102B900008B590F901300133DBB2012B01D90020D7
:102BA00008BD00F029FB0120FAE7FFFF10B582B055
:102BB0003220FEF7D9FD134B40221A6080221A60A2
:102BC000002404E0104C204600F00CFDB0B94FF09A
:102BD000FF330093002301221C210C480068FDF7FD
:102BE00025FD10F0040FEDD110F0080F04D110F006
:102BF000100FE8D0064CE6E70024E4E72046FFF794
:102C00007DFEE0E700E100E0D00600100C070010B8
:102C1000E406001008B52021024B1868FDF764FD9A
:102C200008BD00BF0C07001070B58EB004460D46FD
:102C300003788DF80430406802F0BAFD28283FD9A7
:102C400028208DF805006668304602F0B1FD28287E
:102C50003BD9282231460DF1060002F013F99DF808
:102C600005300EAA1344002203F8322CE37A8DF8C3
:102C70003130A37A8DF83030237B8DF83230637B8E
:102C80008DF83330237A8DF82E30637A8DF82F301B
:102C900062691B4981FB0203D217C2EBA302ADF8A4
:102CA0003620236981FB0321DB17C3EBA103ADF8B9
:102CB000343020213220FFF787FD58B90EB070BDA7
:102CC000606802F075FDC0B2BBE7606802F070FD9D
:102CD0000246BFE70B4C33232370FE23637034237B
:102CE000A370402201A9E01C02F0CCF84FF6FF735C
:102CF000A4F84430202229462046FFF7E1FDDDE715
:102D000067666666CCCF072070B58EB004460E4667
:102D1000154603788DF80430084602F049FD28284E
:102D20003FD928208DF80500304602F041FD2828C3
:102D30003CD9282231460DF1060002F0A3F89DF897
:102D400005300EAA1344002203F8322CE37A8DF8E2
:102D50003130A37A8DF83030237B8DF83230637BAD
:102D60008DF83330237A8DF82E30637A8DF82F303A
:102D70006169A2F1993282FB0103C917C1EBA3017A
:102D8000ADF83610236982FB0312DB17C3EBA203F5
:102D9000ADF8343020213220FFF716FD58B90EB0BF
:102DA00070BD304602F004FDC0B2BBE7304602F011
:102DB000FFFC0246BEE70B4C33232370FE236370F7
:102DC0003423A370402201A9E01C02F05BF84FF607
:102DD000FF73A4F84430202229462046FFF770FDF7
:102DE000DDE700BFCCCF072008B54622002102480E
:102DF00002F056F808BD00BF14D0072038B50546CC
:102E00000C4601213220FFF7DFFC00B938BD07482E
:102E1000232303704570002383704FF6FF73A0F8DF
:102E2000443001222146FFF74BFDEFE714D0072085
:102E300038B505460C4601213220FFF7C5FC00B924
:102E400038BD0748FC2303704570002383704FF69C
:102E5000FF73A0F8443001222146FFF731FDEFE770
:102E600014D0072030B583B0044601213220FFF78B
:102E7000ABFC08B903B030BD1748FD230370FF2336
:102E80004370002383704FF6FF73A0F84430012293
:102E90002146FFF715FD114B1B781BB1204600F0B2
:102EA00023F8E7E70E490F4D01F15803019301F1B3
:102EB0006403009301F1340301F138023C312846E8
:102EC00002F056FC012304220021284600F02EF8CF
:102ED000024B01221A70E1E714D0072056070010B8
:102EE0005C7701005807001010B50C4C23680C4AA1
:102EF00012680C490C4802F03BFC2368042B06DCEA
:102F0000012304220021084800F010F810BD01231D
:102F100004220221044800F009F8F7E71007001026
:102F200014070010CC77010058070010F8B50446CC
:102F30000E4615461F4601213220FFF745FC00B919
:102F4000F8BD384B38221A70FE225A70364B9E70EC
:102F50005D70204602F02CFC80B23A2851D8204601
:102F600002F026FC3B281ED93B202F4B1870204630
:102F700002F01EFC3B281BD93B222B4D2146E81CAE
:102F800001F080FF274C3E23A37040222946E01C1D
:102F900001F078FF0A23A4F8443001223946204684
:102FA000FFF78EFCCCE7204602F002FCC0B2DCE763
:102FB000204602F0FDFB0246DFE7204602F0F8FB68
:102FC000C0B226E0204602F0F3FB0246164E214630
:102FD000F01C01F057FF134D3E23AB7040223146E9
:102FE000E81C01F04FFF0023A5F8443001223946C8
:102FF0002846FFF765FC33781C44204602F0D8FBD6
:1030000080B200289CD0204602F0D2FB3B28D4D9C5
:103010003B20054B1870204602F0CAFB3B28D1D953
:103020003B22D3E714D007201807001030B583B037
:10303000FEF774FA01904FF47A7101A8FEF764FB71
:103040000120FFF70FFF0A2101A8FEF75DFB002416
:1030500009E0601C0121C0B2FFF7EAFE282101A8A7
:10306000FEF752FB0134032CF3DD4FF47A7101A813
:10307000FEF74AFB3CE0601C0121C0B2FFF7BEFE38
:10308000282101A8FEF740FB0134032CF3DD0120C9
:1030900000F04EF8282101A8FEF736FB154A82FB06
:1030A0000532EB17C3EB2213322202FB13532BB171
:1030B0000135B5F57A7F0AD00024E6E70121FE202C
:1030C000FFF79CFE282101A8FEF71EFBF0E7012078
:1030D000FFF7C8FE002409E0601C0121C0B2FFF721
:1030E000A7FE282101A8FEF70FFB0134032CF3DD16
:1030F0000025E1E71F85EB5138B505460C46012157
:103100003220FFF761FB00B938BD08482223037065
:10311000FF234370012282704FF6FF73A0F8443002
:10312000C5702146FFF7CCFBEEE700BF14D00720A7
:1031300030B583B0054601213220FFF745FB08B9C1
:1031400003B030BDFEF7FAFE8DF80000FEF7FEFE7C
:103150008DF80100FEF700FF03462448A0FB03237F
:10316000C3F3CF03ADF80230FEF7FCFE8DF8040088
:10317000FEF700FF9DF8043043EA40038DF8043069
:10318000FEF700FF9DF8043043EA80038DF8043019
:10319000FEF700FF9DF8043043EAC0038DF80430C9
:1031A000FEF700FF9DF8043043EA00138DF8043069
:1031B000FEF700FF9DF8043043EA40138DF8043019
:1031C0000B4C25232370FE2363700623A37040223B
:1031D0006946E01C01F056FE0A23A4F8443001229F
:1031E00029462046FFF76CFBAAE700BFCDCCCCCC2C
:1031F00014D007207047FFFF10B504461048FDF7B4
:10320000F5F8104A1368013313602378FC2B0FD0B4
:10321000FD2B10D0242B03D00B48FDF7E7F810BD91
:10322000204600F015F8094A136801331360F3E7EC
:103230000120FFF717FE054A136801331360EBE71F
:103240001C780100A007001034780100A4070010CA
:1032500000B58FB03222C11C01A801F013FE01A8F5
:10326000FEF72EFE0FB05DF804FBFFFF38B50446F5
:103270000C200D4600F064F84FF470636363002384
:10328000094AE3600C20AB802A6000F0E6F8074BA7
:1032900003EB40030648B3FBF0F3013BDBB21B0238
:1032A00043F40013236038BD400D0300405DC600A9
:1032B00080BA8C0108B500F0C7F8014B186008BD52
:1032C000B8070010400100F1804303F57C23D3F8D8
:1032D000802018460A43C3F88020AA23C0F88C3007
:1032E0005523C0F88C307047400100F1804303F54E
:1032F0007C23D3F88020184622EA0102C3F88020FC
:10330000AA23C0F88C305523C0F88C30704798B988
:1033100041EA02410122400100F1804303F57C2390
:10332000C3F884101846C3F88020AA23C0F88C3054
:103330005523C0F88C30704741EA4211EAE7FFFF9D
:103340000123044A8340D2F8C4100B43C2F8C430AE
:10335000704700BF00C00F40024BD3F88800C0F395
:103360004060704700C00F40014BC3F80401704734
:1033700000C00F40024BD3F80401C0B201307047C7
:1033800000C00F4002460C4913096A3351F823303C
:10339000400000F01F00C34013F0030009D00128D3
:1033A00008D0022806D00D3A022A94BF0620082031
:1033B00070470420704700BF00C00F40094BD3F88E
:1033C0000C3103F00303012B06D0022B07D0002B96
:1033D000054818BF00207047044B18687047044B1D
:1033E000FBE700BF00C00F4000093D0018000010BF
:1033F000E879010008B50B4BD3F8880010F0807015
:103400000FD0D3F88410D3F88420FFF7D7FFC1F38F
:103410000E0101FB0000C2F3074240000132B0FB85
:10342000F2F008BD00C00F4008B5FFF795FF28B1C6
:10343000012807D1BDE80840FFF7DCBFBDE8084020
:10344000FFF7BCBF002008BD08B5FFF7EDFF02463F
:10345000FFF790FFB2FBF0F008BD38B50546FFF767
:10346000F3FF04462846FFF78DFFB4FBF0F038BDAC
:10347000C0E9001300238260C0E9033301207047D4
:1034800010B50446C26800696368121A9A420DDAE0
:10349000E268013B13402068A26802FB030001F0D0
:1034A000F1FC0120E3680133E36010BD0020FCE77C
:1034B0002DE9F041C3688846016944685B1AA3425C
:1034C000064637DAC3680569C06804F1FF3C5B1B38
:1034D0000CEA000CE31A03EB0C01A14234BF1C46BA
:1034E000A4EB0C049442A3EB0403A8BF1446151BE1
:1034F0009D42A8BF1D463768B068414604FB00F2F4
:103500000CFB007001F0BEFCF3683068E218D6E9ED
:103510000137013B134007FB0300F26004FB078106
:1035200005FB07F201F0AEFCF36860192B44F36071
:10353000BDE8F0810020FBE710B50446E26823698E
:1035400008469A420ED0D4E900132269013B134089
:10355000A26802FB031101F095FC012023690133ED
:10356000236110BD0020FCE72DE9F0418846C168C9
:1035700003690446994233D04568C36821690669E6
:10358000681E9B1B0140C818A84234BF1D466D1A17
:103590009542A3EB0503A8BF1546561B9E42A8BF44
:1035A0001E462768A368404605FB03F201FB037132
:1035B00001F068FC2369E918D4E90130013B0B40B4
:1035C0002161216806FB00F200FB031105FB00806E
:1035D00001F058FC2369A81933442361BDE8F08148
:1035E0000020FBE7C2680069101A704738B5174C15
:1035F000D4F88820910103D502210020FFF774FE42
:10360000D4F88830DA0103D501210020FFF76CFEE1
:1036100000250E4C0020FFF7A7FE2A462C21284645
:10362000C4F80C51FFF773FE28460121FFF74AFE4C
:103630000220FFF799FED4F888305B01FBD5BDE886
:10364000384002210020FFF73DBE00BF00C00F4000
:10365000314B2DE9F04199420BD100222F4B00E074
:1036600001321101CC58844211D0002CF8D1BDE8B0
:10367000F0812B4B994210D100222A4B00E00132FD
:103680001101CC58844202D0002CF8D1EFE7002879
:10369000EDD00B44DF68D3E90156234CD4F88820E1
:1036A000930103D502210020FFF71EFED4F88830D5
:1036B000D80103D501210020FFF716FE1A4CD4F8DB
:1036C000A03159065EBFD4F8A03143F02003C4F8FE
:1036D000A031D4F8A0315A06FBD54FF001080020E4
:1036E000FFF742FE324629460020C4F80C81FFF75E
:1036F0000EFE41460020FFF7E5FD3846FFF734FE99
:10370000094AD2F888305B01FBD5BDE8F0410221BF
:103710000020FFF7D7BD00BF001BB70048780100AD
:103720000024F4003879010000C00F40FFF75EBFAD
:10373000094B98420BD003F50823984209D003F5B2
:10374000804398420CBF17200120FFF7F9BD0220EB
:10375000FBE71620F9E700BF00800040084B9842C5
:103760000AD003F50823984208D003F58043984215
:103770000CBF1920032070470420704718207047A1
:103780000000014010B50446FFF7E8FFFFF7D8FD41
:103790000723A3600023084A236394426360E36025
:1037A0002362E3646365236504BF2361A369032384
:1037B000E3601023A36210BD000001408023036377
:1037C000704738B505460C46FFF7C8FFFFF745FEC2
:1037D0002101B0FBF1F1EB68CAB243F08003EB606A
:1037E000C1F307232A606B60EB68B0FBF1F023F0B4
:1037F0008003EB6038BD37B504460D466369DB07CF
:1038000001D403B030BD236828460DF107018DF8BF
:103810000730FFF735FEF1E737B504460D4663691B
:103820009B0605D528460DF10701FFF785FE08B96F
:1038300003B030BD9DF807302360F0E7436870B5F2
:103840000E469907044615460AD51146FFF7E4FFD0
:10385000EA682B699A4202BF636823F0020363603F
:1038600031462046FFF7C7FFA368DA050CD5236A67
:1038700043F480732362636823F480736360084BAE
:103880001A780AB901221A70A3689B0507D5236A22
:1038900043F400732362636823F40073636070BDB4
:1038A000A8070010014B1860704700BF18000010F7
:1038B00008B50F20FFF744FDBDE808400F20FFF7D3
:1038C0003FBD034600F00F0040001B0648BF01301B
:1038D0007047436810229A6019611A68D206FCD5B5
:1038E000704738B504461546FFF7F3FF20462946D2
:1038F000BDE83840FFF7EDBF38B504460846154629
:10390000FFF7DFFF010441F4A0612046FFF7E1FF6C
:1039100020462946BDE83840FFF7DBBF4368302228
:103920009A6019611A689206FCD5586970474FF47D
:103930000C707047044A0029D0F8C801034908BF39
:103940004FF48072FFF7CDBF000101000005FE00BB
:10395000D0F8C83100225B689A64D0F8A021D179F0
:10396000D96401219964D279DA641A68D205FCD548
:103970004FF0FF329A635A639A600C225A60704784
:103980000346B3F89E31D0F8C8019B0703D502491E
:10399000024AFFF7A6BF70470005FE0000010100C4
:1039A0007047FFFF70B50904D0F8C861084D41F4B5
:1039B000000444F48074304629462246FFF791FF04
:1039C000304629462246BDE87040FFF78ABF00BF57
:1039D0000005D00093682DE9F041B3F50C7F8046D7
:1039E000144633D3566806F110026260A3F1100248
:1039F000A2606568AA0702D001356560F9E705F5A0
:103A00000772A3F50B736260A360636813F003078A
:103A100002D001336360F8E72846224600F0E2FF57
:103A200039461022304601F03BFA2368B56028463B
:103A3000C5F8C8617360FFF78BFF28463946FFF76A
:103A4000B1FFC8F800503846BDE8F0810148BDE834
:103A5000F08100BF0A00040010B50A4AD0F8C8413E
:103A6000002908BF4FF4807220460749FFF739FF4D
:103A7000636803225A641A68D205FCD54FF4807239
:103A80009A6010BD000101000005D80038B5054658
:103A900088780C46FFF715FF012102469140D5F8C2
:103AA000C8315B68586C014359649A64A288DA642F
:103AB0001A68D205FCD54FF480729A6038BD704701
:103AC00010B504460846FFF7FCFE010441F48001EE
:103AD000D4F8C80141F4A0614FF48072BDE81040F1
:103AE000FFF7FFBE10B504460846FFF7EAFE0104E3
:103AF00041F48001D4F8C80141F4A061024ABDE854
:103B00001040FFF7EEBE00BF0001200010B50446D4
:103B10000846FFF7D6FE010441F48001D4F8C8013D
:103B200041F4A0614FF48072BDE81040FFF7D9BEA8
:103B300010B504460846FFF7C4FE010441F48001B5
:103B4000D4F8C80141F4A061024ABDE81040FFF773
:103B5000C8BE00BF0001010010B504460846FFF7CB
:103B6000B0FE010441F48001D4F8C80141F4A06121
:103B70004FF48072BDE81040FFF7B3BE043A38B589
:103B80001D46D0F8C8410D2A48D8DFE802F00E0ED5
:103B9000474747474747474744074A0A012200200B
:103BA00041E04FF4007200203DE00846FFF789FE37
:103BB000012303FA00F0236815B11843206002E0E6
:103BC00023EA00002060226823682168DB071B4B82
:103BD00002F0020201EA030348BF42F004020BB103
:103BE00042F020022168164B0B400BB142F040021C
:103BF00023681449194009B142F0080223681249A8
:103C0000194009B142F01002120420460F4942F453
:103C10008072FFF766FE0022104604E000220C4886
:103C200001E00822002061684B6815B11A434A6020
:103C300038BD23EA02024A6038BD00BF200882A0D6
:103C40001004415008822008044110040005F300CC
:103C500001000400D0F8C80101F00F032DE9F04184
:103C60009B00456843F00103AB622C6A2605FCD536
:103C700014F480681DD0C4F309085FEA980C25D0BD
:103C800016460023AF690133634546F8047BF9D13A
:103C900002EB830204F003045CB1AE691444002318
:103CA00026FA03F502F8015BA24203F10803F7D1FB
:103CB000456841F248230B410022DB07AA6202D487
:103CC000034AFFF719FE4046BDE8F0814446E3E7AA
:103CD0000005F20070470020704700207047FFF792
:103CE000B9BFFFFFD0F8C8012DE9F04101F00F0482
:103CF0004668A400DF1C44F00204BF08B462984682
:103D0000736206D0002452F8045B0134BC42F561B2
:103D1000F9D10023B362034AFFF7EEFD4046BDE848
:103D2000F08100BF0005FA002DE9F047D0F8C891F6
:103D30008246D9F80420136823F004019160516889
:103D400001EA030818F0080461D118F0040F2BD021
:103D5000166B3EB3274605460121A140314219D0DA
:103D60000F43916313689806FCD5E30750693DD46F
:103D7000002C00F09080AB6D63B1D9F800201142A7
:103D800001D0C1066DD402225046D5F8D81098470C
:103D9000D9F804201F2C05D0B74204F1010405F125
:103DA0000405D9D10423936018F4007F0FD0DAF80A
:103DB0003C3063B148464049FFF78BFD3F494846D8
:103DC000FFF7ACFDDAF83C3001465046984718F052
:103DD000010F09D0DAF834300BB150469847D9F8C2
:103DE0000C300133C9F80C30BDE8F087AB6D002B07
:103DF000D0D0D9F80020114201D0C20629D4032224
:103E00005046D5F8D8109847D9F80420C2E748465C
:103E10002B49FFF75EFD48462A49FFF77FFDC6069E
:103E2000044626D4A50706D5DAF838301BB150462B
:103E300004F00101984704F00903092BD4D1640769
:103E400024D5DAF82C30002BCED050469847BDE868
:103E5000F08705225046D5F8D8109847D9F80420A5
:103E600098E704225046D5F8D8109847D9F804208E
:103E700090E75046FFF76CFD504600F09DFCDAF8E5
:103E80002830002BCED050469847CBE7DAF83030B8
:103E9000002BDAD1A8E743077FF56DAFDAF8583089
:103EA000002B3FF479AF01225046DAF8D81098473A
:103EB000D9F8042070E700BF0005FB000002FB00FA
:103EC0000005FE000002FE0070B54D781646042D78
:103ED0001A4618D003D84DB1022D0DD027E0222D5F
:103EE00013D0232D13D0202D21D115E00BB3036A5D
:103EF0001BB33168984770BDDBB1846ADCB1498877
:103F00003268A04770BD036B02E0436B00E0836B37
:103F10009BB14988984770BD2BB1C36B6BB100F161
:103F20001001984770BD00F11004346001E00448AE
:103F300070BD104670BD204670BD184670BD00BFF4
:103F400002000400012A38B50446084602D0022ABD
:103F50002AD04AE094F8143203F07F02212A44D197
:103F600094F81822097E914202D0417E91423CD1C0
:103F700004F5EA72DB09C4F8CC2104F5057104F5F7
:103F8000E67207D1456CA847054678BBB4F81A32EB
:103F900063BB26E0056C04F5E873A847054628BB1B
:103FA000204600F098FB21E094F8143203F07F03E0
:103FB000212B1AD194F818320A7E9A4202D04A7EF6
:103FC0009A4212D1D4F8CC21B4F81A32456CD21AE4
:103FD000C4F8CC2104F5057104F5E672A84705463E
:103FE00020B9204600F0A0FB00E0014D284638BD76
:103FF0000200040038B54D780446032D09D0212D68
:1040000014D0012D19D1456A1DB111461A46A84791
:1040100038BDE56A1DB120464988A84738BD1068FB
:104020002946402200F03CFF284638BD00F110042C
:10403000146007221A80002038BD014838BD00BF37
:104040000200040008B50346A120187101294FF0B1
:10405000000059719871D871187258729872D8729C
:104060000BD007D3202910D102211A73120A99729A
:104070005A730AE00AB101229A71197F1A1D186851
:104080000823FFF72FFE002008BD014808BD00BF30
:10409000030001004C2070472DE9F0410C680746F1
:1040A00014F0030F0D4690468E684B6802D0472BE4
:1040B00040F28380483B04F14B0223F0030322F0DB
:1040C00003022A606B6020460021482200F0E8FECF
:1040D0003B4B276023643B4B63642B6A23626B6A10
:1040E0006362AB6AA362EB6AE3622B6B23636B6B65
:1040F0006363AB6BA363EB6BE3637378042B02D056
:104100003148BDE8F0817379022BF9D13379012B65
:10411000F6D8B37823763379012B04D0EB685A783C
:10412000042AEDD115E033781E4432783346164424
:104130005A78052A05D1DA78032AF6D19B782377B5
:1041400001E0042AF1D1237F002BE7D11F48BDE80D
:10415000F0815A790A2AD3D19A79002AD0D1997854
:10416000617619781944187982420FD20E78084680
:1041700031444678052E07D1C678022E04D18078C6
:1041800006064CBFA076E0760132ECE7A37E002B5A
:10419000DCD0E37E002BD9D0696C384621B90C49BC
:1041A000224600F08DFC04E0224600F089FC084B1A
:1041B0006B64C8F80040BDE8F0810648BDE8F081B6
:1041C000F53F0100C93E0100080004000900040099
:1041D000453F01000A00040090F8143213F01F0359
:1041E00005D100F29D12C0F8CC2118467047014855
:1041F000704700BF010004007047704790F8143208
:1042000003F01F03012B06D0022B15D0002B37D152
:1042100000F5CF720DE090F89D318BB390F8182225
:1042200090F89B319A422BD20023A0F8D43100F5AC
:10423000EA72C0F8CC2121E090F818321A064BBF80
:104240004FF48031012103F00F0203F08F0201FAD5
:1042500002F290F89D1109B91B0711D1D0F8B431C1
:104260001A420DD0D0F8B8311A420CBF00230123F6
:10427000A0F8D43100F5EA73C0F8CC3100207047C3
:10428000004870470100040010B590F8142212F0A5
:104290001F0237D190F81732022B09D0032B19D007
:1042A000012B2FD1D0F8A031C0F8CC31122321E05E
:1042B000D0F8AC3190F816128A4205D01C780CB1B7
:1042C0005C8823440132F7E71A78DAB1C0F8CC31C0
:1042D0005B880FE0D0F8A43190F81642A24204D0D7
:1042E000197801B10B440132F8E71A7852B1C0F8DD
:1042F000CC311B78B0F8D0219A4288BFA0F8D031D9
:10430000002010BD004810BD0100040090F81432D8
:1043100003F01F03012B0FD190F89D3163B190F88A
:10432000183290F89B219A4206D903F5E0730344B2
:10433000C0F8CC31002070470048704701000400ED
:10434000F8B590F81432044613F01F030D4602D05E
:10435000022B1BD04AE0B0F81632012B0ED1036CB1
:1043600003B19847B4F89E312DB143F00203A4F88D
:104370009E310020F8BD23F00203F8E7022B35D16F
:1043800090F81912BDE8F840FFF7A5BC90F8183274
:104390001A0603F08F0105D503F00F024FF48036A3
:1043A000964001E001268E4094F89D21F2B11B0752
:1043B0001CD0D4F8B4311E4218D0B4F81672AFB97C
:1043C00035B12046FFF7B4FBD4F8B8311E430AE0FC
:1043D000D4F8BC311E42CCD12046FFF7BDFBD4F847
:1043E000B83123EA0606C4F8B861C2E70048F8BD50
:1043F00001000400F8B590F81472044617F01F0786
:1044000040F0BE8090F81632002B00F08480D0F887
:10441000A851D0F8AC3190F89A21012A08BF1D4666
:104420002B78002B00F0A2806B78042B4ED0052B4C
:104430004ED0022B6CD16A7994F81632934243D154
:1044400084F89D312B7984F89B310023E2180133E5
:104450000021082B82F8C011F8D1012694F8993177
:104460009E4217D20122B240D4F8B4311A4203D08E
:1044700020463146FFF736FB4FF48032B240D4F885
:10448000B4311A4204D0204646F08001FFF72AFBDF
:104490000136E3E74FF00113C4F8B4310023C4F848
:1044A000B831C4F8BC3120460121FFF7D5FAEB79C9
:1044B00013F0400FB4F89E3114BF43F0010323F012
:1044C0000103A4F89E3123E06B8822E0EF781FE01F
:1044D000F7B9AB781A0603F08F0606D503F00F0381
:1044E0004FF4803202FA03F301E00123B340D4F821
:1044F000B42120461343C4F8B4312946FFF7C6FA65
:1045000020463146FFF7DCFA20463146FFF7FEFA37
:104510002B781D4484E780F89D31012594F899316A
:104520009D4217D20122AA40D4F8B4311A4203D0D6
:1045300020462946FFF7D6FA4FF48032AA40D4F835
:10454000B4311A4204D0204645F08001FFF7CAFA80
:104550000135E3E700214FF00113C4F8B431C4F88A
:10456000B811C4F8BC112046FFF776FA94F89D0103
:1045700094F81622034B904214BF18460020F8BD51
:104580000048F8BD010004002DE9F74F90F81432FF
:10459000044603F01F03012B40F0918090F89D31F9
:1045A000002B00F08C80D0F8AC31D0F8A85190F8F6
:1045B0009A210026012A08BF1D46434BB2463746C2
:1045C000B1462A78002A78D06A78042A0AD0052AC7
:1045D0001CD0022A6ED1697994F89D21914269D04C
:1045E0006A8868E095F8029094F81822EF7891456F
:1045F0005DD194F81622974259D104EB090393F840
:10460000C0A183F8C07100231E4653E094F818221D
:1046100091454FD195F8028018F0800F08F08F0B6C
:1046200006D008F00F084FF4803202FA08F803E0D1
:104630004FF0010808FA0BF894F8162297421BD1A4
:10464000D4F8B421204642EA0802C4F8B421D4F8D0
:10465000B821294622EA0802C4F8B8210193FFF7DD
:1046600015FA20465946FFF72BFA20465946FFF720
:104670004DFA46EA080618E057451BD118EA060F1E
:1046800017D1D4F8B4216FEA080802EA0802C4F886
:10469000B421D4F8B821204602EA0802C4F8B821AF
:1046A00059460193FFF71EFABA46019B02E0002625
:1046B00000E0BA462A78154483E7184600E002482D
:1046C00003B0BDE8F08F00BF01000400002100F539
:1046D0000572FFF704BBB0F8D03110B5402B28BFEE
:1046E00040238021D0F8CC210446FFF7FBFAD4F810
:1046F000CC310344C4F8CC31B4F8D031181AA4F842
:10470000D00110BD10B50021D0F8CC210446FFF730
:10471000A1FAD4F8CC310344C4F8CC31B4F8D03188
:10472000181AA4F8D00110BD002280211346FFF70B
:10473000D9BA002100F5EA72FFF78CBA10B58021D2
:104740000446FFF7F5F90023A4F8D03110BDFFFFB0
:1047500090F8143213F01F0307D190F8162262F07C
:104760007F0280F89C21184670470148704700BFBF
:1047700001000400F8B504460F460546002694F8EB
:1047800098319E4213D2D5F858316BB12046D5F8F6
:1047900078113A469847074B984205D0054638B1FC
:1047A0002046FFF7CBFF03E001360435E7E7014D74
:1047B0002846F8BD0200040001224FF00111A0F8C4
:1047C0009E210022C0F8B41180F89C2180F89D2120
:1047D000C0F8B821C0F8BC210E21FFF7CBBFFFFF06
:1047E00010B50446FFF772FF94F814122046C90969
:1047F000FFF765F9B4F81A322046A4F8D031012148
:10480000FFF7B8FF374B98426AD194F81432C3F3DC
:10481000411313B1022B50D05EE094F815320B2BEC
:104820005AD8DFE803F0060F5913591E27293133F0
:104830003C3EE3682046984700284DD12046FFF7CC
:104840004AFF4CE0636A2046002102E0636A20468A
:104850000121984700283FD12046FFF765FFE36C10
:1048600027E02046FFF774FF002835D12046FFF7E8
:104870005BFF34E02369DDE720460021FFF758F9AC
:104880000023A4F8D0312AE06369D3E7A369204666
:10489000984708BB2046FFF747FF636C09E0E369D0
:1048A000C8E7236A20469847B0B92046FFF73CFF87
:1048B000A36CA3B12046984711E0A36863B12046DA
:1048C0000121984740B9B4F81A32002BCED094F8A1
:1048D0001432DB0903D0B1E72046FFF72FFF002099
:1048E00010BD00BF0200040038B590F81432044631
:1048F000DB0923D1B0F8D03113B3FFF703FFB4F8CD
:10490000D031EBB920460221FFF734FF0F4B98421C
:1049100018D194F81432C3F34113022B0AD1A368BF
:1049200043B1204601219847054618B92046FFF7B4
:10493000FBFE08E02046FFF701FF01E0FFF7F9FE6C
:10494000002500E00546284638BD00BF02000400EF
:10495000013A10B50446062A40D8DFE802F0041DEB
:1049600021063F3A3C00036817E00421FFF702FFED
:104970001B4B984232D194F814122046C90904D135
:10498000D4F8CC21B4F8D03103E00021D4F8CC2104
:104990000B46FFF7A2F921E04368204698471DE047
:1049A00090F81432DB0909D00321FFF7E3FE0C4B2A
:1049B000984213D12046FFF78EFE0FE090F89C112D
:1049C0000B060BD501F07F0180F89C11FEF7EAFF82
:1049D00004E0002100E08021FFF7BEF8002010BDB8
:1049E0000200040070B515460E464FF40772002110
:1049F000044600F055FA2A7B254B84F89921A365DB
:104A0000C4F8D84012B1E365C4F8DC40214B224A17
:104A10002360224B6360224BE360224B6362224B94
:104A20002361224B6361224BA361224BE361224B42
:104A30002362EB6B002B08BF134623651F4A2B6CC8
:104A4000002B08BF134663656B6A2364AB6AA363DC
:104A50002B69A3626B69E362AB6923632B6A6363AF
:104A6000EB6AE3632B6B63646B6BA364AB6BE36414
:104A70003368C4F8A0317368C4F8A431B368C4F8CB
:104A8000A831F368C4F8AC313369C4F8B03170BDF3
:104A900051490100E1470100F9410100E9480100E5
:104AA000FD4101004143010089420100D94101005B
:104AB000F54301000D43010089450100FB41010060
:104AC00010B590F89831072B0AD800EB8304013316
:104AD000C4F85811C4F8782180F89831002010BD2E
:104AE000004810BD0B00040010B590F89941B1EBDF
:104AF000440F06D800EB81008265C0F8D830002052
:104B000010BD014810BD00BF0300010081F000414D
:104B100002E000BF83F0004330B54FEA41044FEAA2
:104B2000430594EA050F08BF90EA020F1FBF54EA3D
:104B3000000C55EA020C7FEA645C7FEA655C00F0D9
:104B4000E2804FEA5454D4EB5555B8BF6D420CDDAA
:104B50002C4480EA020281EA030382EA000083EA2D
:104B6000010180EA020281EA0303362D88BF30BDCD
:104B700011F0004F4FEA01314FF4801C4CEA113123
:104B800002D0404261EB410113F0004F4FEA033382
:104B90004CEA133302D0524263EB430394EA050F0D
:104BA00000F0A780A4F10104D5F1200E0DDB02FA7C
:104BB0000EFC22FA05F2801841F1000103FA0EF210
:104BC000801843FA05F359410EE0A5F120050EF1D6
:104BD000200E012A03FA0EFC28BF4CF0020C43FA07
:104BE00005F3C01851EBE37101F0004507D54FF014
:104BF000000EDCF1000C7EEB00006EEB0101B1F564
:104C0000801F1BD3B1F5001F0CD349085FEA3000A9
:104C10004FEA3C0C04F101044FEA445212F5800FB4
:104C200080F09A80BCF1004F08BF5FEA500C50F151
:104C3000000041EB045141EA050130BD5FEA4C0C34
:104C4000404141EB0101013C28BFB1F5801FE9D291
:104C500091F0000F04BF01460020B1FA81F308BFB4
:104C60002033A3F10B03B3F120020CDA0C3208DD80
:104C700002F1140CC2F10C0201FA0CF021FA02F15B
:104C80000CE002F11402D8BFC2F1200C01FA02F1CB
:104C900020FA0CFCDCBF41EA0C019040E41AA2BFF0
:104CA00001EB0451294330BD6FEA04041F3C1CDAB8
:104CB0000C340EDC04F11404C4F1200220FA04F0D8
:104CC00001FA02F340EA030021FA04F345EA030182
:104CD00030BDC4F10C04C4F1200220FA02F001FA44
:104CE00004F340EA0300294630BD21FA04F02946C6
:104CF00030BD94F0000F83F4801306BF81F480115F
:104D00000134013D4EE77FEA645C18BF7FEA655CD1
:104D100029D094EA050F08BF90EA020F05D054EAA3
:104D2000000C04BF1946104630BD91EA030F1EBFA8
:104D30000021002030BD5FEA545C05D140004941AC
:104D400028BF41F0004130BD14F580043CBF01F59F
:104D5000801130BD01F0004545F0FE4141F4700185
:104D60004FF0000030BD7FEA645C1ABF1946104660
:104D70007FEA655C1CBF0B46024650EA013406BF61
:104D800052EA033591EA030F41F4002130BD00BF20
:104D900090F0000F04BF0021704730B54FF48064DD
:104DA00004F132044FF000054FF0000150E700BF5E
:104DB00090F0000F04BF0021704730B54FF48064BD
:104DC00004F1320410F0004548BF40424FF00001AA
:104DD0003EE700BF42004FEAE2014FEA31014FEAED
:104DE00002701FBF12F07F4393F07F4F81F060513C
:104DF000704732F07F4208BF704793F07F4F04BF87
:104E000041F40021704730B54FF4607401F0004563
:104E100021F000411CE700BF50EA010208BF7047C3
:104E200030B54FF000050AE050EA010208BF7047B4
:104E300030B511F0004502D5404261EB41014FF41D
:104E4000806404F132045FEA915C3FF4D8AE4FF025
:104E500003025FEADC0C18BF03325FEADC0C18BF08
:104E6000033202EBDC02C2F1200300FA03FC20FA59
:104E700002F001FA03FE40EA0E0021FA02F11444A6
:104E8000BDE600BF0A44914200F1FF3300D17047F4
:104E900010B511F8014B914203F8014FF9D110BD43
:104EA00003460244934200D1704703F8011BF9E71F
:104EB000002B2DE9F0471F46BBBF03F100431F46FF
:104EC00000232D2388B01446129A109D1370149B52
:104ED000DDF84CA023F02008B8F1460F05D0B8F15A
:104EE000450F00D10135022300E0032307AA0492F5
:104EF00006AACDE902A2CDE9003522463B4600F0E4
:104F0000EFFCB8F1470F064602D1119BDB0722D513
:104F1000B8F1460F06EB050910D13378302B0AD1D2
:104F2000002200232046394602F0FCFA18B9C5F1E8
:104F30000105CAF80050DAF8003099440022002335
:104F40002046394602F0EEFA08B1CDF81C90302226
:104F5000079B4B4507D33046079B159A9B1B136055
:104F600008B0BDE8F087591C07911A70F0E70346B6
:104F7000F7B5002903F8022BB6BF2D222B22494298
:104F8000092942702BDD0DF10704A4460A2791FB85
:104F9000F7F60A46A64607FB1615632A05F1300503
:104FA000314604F1FF340EF8015CF0DC3031AEF133
:104FB000020504F8011C2946441C61450AD30DF181
:104FC0000902A2EB0E02654588BF00221344181A9D
:104FD00003B0F0BD11F8012B04F8012FEDE73023E9
:104FE00030318370C170031DF1E7FFFF2DE9F04FF1
:104FF00091B00C46DDF8688016461F46054601F064
:1050000041FA03681846099300F0D2FB00230E937F
:10501000D8F800300A90073323F0070303F10802A1
:1050200094F81890D4F800B0C8F80020D3E9002311
:10503000C4E91223D4E9128A2AF000430B934FF0FB
:10504000FF3240469C4B0B9902F09EFA70BB4FF02A
:10505000FF324046984B0B9902F078FA30BB0022A1
:1050600000234046514602F067FA10B12D2384F820
:105070004330924B9248B9F1470F94BF984680460F
:1050800003234FF0000A23612BF00403236033460F
:105090002146284600970FAA00F0D4F9013040F0CD
:1050A00090804FF0FF3011B0BDE8F08F424653467C
:1050B0004046514602F068FA48B1BAF1000FB8BF55
:1050C0002D238048B8BF84F843307F4BD3E7636813
:1050D00009F0DF015A1C42D10623636000220692C8
:1050E0000EAACDE904920DAA4BF4806303920DF150
:1050F0003302CDE9013223606368424600932846BB
:1051000053460B91FFF7D4FE0B99804647290D9922
:1051100008D1C81C02DB6368994240DDA9F102098D
:105120005FFA89F9B9F1650F1FD84A46013904F1D0
:1051300050000D91FFF71BFF0E9A82461318012AAB
:10514000236102DC2268D20701D5013323619DF877
:105150003330002B9BD02D2384F8433097E7472929
:10516000BCD1002BBAD10123B7E7B9F1660F18D132
:10517000002963680BDD216113B92268D00702D5CD
:1051800001330B4423614FF0000AA165DFE713B937
:105190002268D20701D50233F4E70123F2E74FF08A
:1051A00067090E9B994205DB23682161D807EAD580
:1051B0004B1CE7E70029CCBF0122C1F102021344D6
:1051C000E0E723685A0507D423694246314628465A
:1051D000B84701302BD164E7B9F1650F40F2DD80AB
:1051E000D4E912010022002302F09CF9002833D0F8
:1051F000012331462846354AB84701303FF451AFC4
:10520000DDE90D239A4202DB2368D8070FD5DDE9DB
:10521000092331462846B84701303FF442AF4FF0EA
:10522000000804F11A090E9B013B434509DC236881
:105230009B0700F10281E0680F9B9842B8BF1846B7
:1052400031E701234A4631462846B84701303FF44A
:1052500028AF08F10108E6E70D9B002B38DC01239D
:1052600031462846194AB84701303FF41AAFDDE904
:105270000D23134302D12368D907D8D5DDE90923CB
:1052800031462846B84701303FF40BAF4FF00009D4
:1052900004F11A0A0D9B5B424B4501DC0E9B94E71F
:1052A0000123524631462846B84701303FF4F9AE53
:1052B00009F10109EEE700BFFFFFEF7F747A0100FB
:1052C000787A0100807A01007C7A0100847A0100FA
:1052D0000E9AA36D9A42A8BF1A46002A914637DC5F
:1052E0004FF0000B29EAE97904F11A02D4F858A02A
:1052F000AAEB09035B4533DCDDE90D239A423BDB76
:105300002368DA0738D40E9A0D99A2EB0A03A2EBB0
:1053100001099945A8BF9946B9F1000F34DC4FF057
:10532000000829EAE97904F11A0ADDE90D239B1A3C
:10533000A3EB090343457FF77AAF01235246314679
:105340002846B84701303FF4ACAE08F10108ECE75D
:105350001346314642462846B8470130C0D1A0E640
:105360000123314628460B92B84701303FF499AEED
:105370000B9A0BF1010BB9E73146DDE90923284609
:10538000B8470130BFD18CE64B463146284608EB82
:105390000A02B8470130C2D183E60E9A012A01DC25
:1053A000DB0737D50123424631462846B84701304E
:1053B0003FF477AEDDE9092331462846B84701308E
:1053C0003FF46FAED4E912010022002302F0AAF8E4
:1053D000D8B90E9B08F10102013B31462846B84777
:1053E00001300ED15DE601234A4631462846B847D2
:1053F00001303FF456AE08F101080E9B013B4345D6
:10540000F1DC534604F15002E0E64FF0000804F1ED
:105410001A09F2E701234246DFE701234A463146F3
:105420002846B84701303FF43CAE08F10108E36874
:105430000F995B1A4345F0DCFDE64FF0000804F1DC
:105440001909F4E72DE9F047164699468A680B6971
:1054500007469342B8BF1346336091F843200C4689
:10546000DDF820800AB1013333602368990642BF1A
:10547000336802333360256815F0060506D104F160
:10548000190AE36832689B1AAB4228DC94F843207F
:10549000131E226818BF012392062DD449463846B0
:1054A00004F14302C047013020D02368E56803F0CF
:1054B0000603042B18BF002532684FF00006A368CE
:1054C00008BFAD1A226908BF25EAE5759342C4BF3B
:1054D0009B1AED181A34B5421AD1002008E00123B6
:1054E000524649463846C047013003D14FF0FF309D
:1054F000BDE8F0870135C4E73020E11881F84300AA
:105500005A1C94F845102244023382F84310C5E730
:105510000123224649463846C0470130E6D00136CD
:10552000D9E7FFFF2DE9FF470C46277E9146782FEC
:1055300080469A460C9904F1430207D8622F0AD894
:10554000002F00F0D980582F00F0A48004F142060B
:1055500084F842703AE0A7F16303152BF6D801A056
:1055600050F823F0BD550100D15501004D55010003
:105570004D5501004D5501004D550100D15501001B
:105580004D5501004D5501004D5501004D5501008F
:10559000DF56010001560100C15601004D550100C2
:1055A0004D550100015701004D5501000156010004
:1055B0004D5501004D550100C95601000B6804F11D
:1055C00042061A1D1B680A6084F842300123A4E0D9
:1055D000256808682E0600F104030AD505680B60EB
:1055E000002D03DA2D236D4284F843300A235E48F0
:1055F00019E015F0400F05680B6018BF2DB2EFE7FA
:105600000B682568181D0860280601D51D6802E092
:105610006906FBD51D886F2F0CBF08230A2352484B
:10562000002184F843106668002EA8BF2168A66098
:10563000A4BF21F0040121600DB9002E4DD0164603
:10564000B5FBF3F103FB1157C75D06F8017D2F464B
:10565000BB420D46F4D9082B0BD12368DF0708D5D0
:10566000236961689942DEBF302306F8013C06F1E8
:10567000FF36921B22614B4621464046CDF800A0E2
:1056800003AAFFF7DFFE01304CD14FF0FF3004B02A
:10569000BDE8F087344884F845700E68236856F8F2
:1056A000045B1F060E6014D5D90744BF43F02003E6
:1056B00023601DB9236823F0200323601023AFE784
:1056C000236843F0200323607823284884F845307A
:1056D000E3E75E0648BFADB2E6E71646BBE70B68F8
:1056E00026681D1D60690D6035061B6801D51860B0
:1056F00002E07106FBD51880002316462361BAE745
:105700000B681A1D0A601E6800213046626800F0AE
:10571000C5FE08B1801B606063682361002384F8C4
:105720004330A8E73246494640462369D047013016
:10573000ABD023689B0713D4E068039B9842B8BFA3
:105740001846A4E70123324649464046D047013077
:105750009BD00135E36803995B1AAB42F2DCEBE7BF
:10576000002504F11906F5E7867A0100977A010011
:105770000EB46FF0004100B59CB01DAB02900690D6
:10578000079104910848094953F8042B05910068D2
:1057900002A9019301F0B0FA0022029B1A701CB01A
:1057A0005DF804EB03B070471C0000100802FFFF17
:1057B000034613F8012B002AFBD1181A0138704751
:1057C0002DE9F74F03690C690746A342C0F28380B5
:1057D000013C00F1140501F1140805EB8403019369
:1057E00058F8243055F8242001339A42B2FBF3F6DE
:1057F0004FEA840B08EB840932D34FF0000E404689
:10580000AC46F24650F8042B93B206FB03E3120CAD
:105810004FEA134E06FB02E29BB2AAEB0303DCF84D
:1058200000A04FEA124E1FFA8AFA53441FFA82FA76
:10583000DCF800208145CAEB124202EB23429BB206
:1058400043EA02434FEA224A4CF8043BDAD255F8C5
:105850000B302BB9019B043B9D421A462FD33C6170
:10586000384601F052F8002825DB28464FF0000C9E
:10587000013658F8041BD0F800E08BB2ACEB030300
:105880001FFA8EF213440A0CC2EB1E4202EB2342B3
:105890009BB243EA0243C1454FEA224C40F8043B25
:1058A000E7D255F8242005EB840322B9043B9D423E
:1058B0001A460AD33C61304603B0BDE8F08F126847
:1058C000043B002ACBD1013CC6E71268043B002A06
:1058D000F0D1013CEBE70020EEE7FFFFFFFFFFFF09
:1058E0002DE9F04F16461F46446A99B00546CDE9AA
:1058F0000467DDF894803CB9102000F0C7FDC0E9D2
:10590000014468620460C4606B6A196851B15A68E6
:10591000012393404A608B60284600F001FE00227C
:105920006B6A1A603B1EAFBF0023012223F00043C5
:105930000593A8BFC8F80030DDF81490AC4BB8BF91
:10594000C8F8002033EA090319D142F20F73249AF0
:105950001360C9F31303334300F06C85269B53B9DE
:10596000A44B23E0A44B03930833269A13600398B7
:1059700019B0BDE8F08F9F4B03930333F5E7DDE9E2
:105980000434CDE90C34DDE90C010022002301F0E0
:10599000C9FD804660B10123249A1360269B002B29
:1059A00000F04585954B269A1360013B0393DEE793
:1059B00016AB019317AB00932846DDE90C2301F0E9
:1059C0003BF8C9F30A548346002C7FD0DDE90C0173
:1059D0000D9BA4F2FF34C3F3130343F07F5141F452
:1059E0004011CDF84C800022854BFFF793F87AA345
:1059F000D3E9002301F02EFB79A3D3E90023FFF7BD
:105A00008BF8064620460F46FFF7D2F976A3D3E976
:105A1000002301F01FFB02460B4630463946FFF7D4
:105A20007BF806460F4601F0C5FD002282460023A2
:105A30003046394601F080FD48B15046FFF7B8F9CD
:105A400032463B4601F06EFD08B90AF1FF3ABAF161
:105A5000160F58D8DDE90C016A4B03EBCA03D3E9F2
:105A6000002301F069FD00284FD000230AF1FF3A1E
:105A70000F93169B1C1B631E099349BFC4F10103BE
:105A800000230693002354BF06930993BAF1000F35
:105A90003DDB099BCDF838A05344099300230A93BA
:105AA000229B092B00F2B480052BC4BF043B229338
:105AB000229BC8BF0024A3F10203D8BF0124032BFB
:105AC00000F2B280DFE803F02D7C7AA2DDE9164314
:105AD0001C4404F23243202BC3BFC3F1400304F241
