:100000000020001079010000F1010000F70100005C
:1000100000000000000000000000000000000000E0
:10002000000000000000000000000000330C000091
:100030000000000000000000310D0000790D0000FC
:100040000F0200000F0200000F0200000F0200006C
:100050000F0200000F0200000F0200000F0200005C
:100060000F0200000F02000000000000000000006E
:100070000F020000000000000F0200000F0200004D
:100080000F0200000F0200000F0200000F0200002C
:100090000F020000792C00000F0200000F02000088
:1000A0000F0200000F0200000F0200000F0200000C
:1000B0000F0200000F0200000F020000000000000D
:1000C000003E000000000010AC000000003E0000F8
:1000D0000040002000000000003E00000000002062
:1000E00000000000AC00001084060000004000206A
:1000F00000000000000000200000000080B489B073
:1001000000AFF860B9607A60BB68FB61FB68BB61F7
:1001100000237B610AE0BA69131DBB61FB69191DED
:10012000F96112681A607B6904337B617A697B68C4
:100130009A42F0D300BF00BF2437BD4680BC704751
:1001400080B485B000AF786039607B68FB600023C5
:10015000BB6007E0FB681A1DFA6000221A60BB68EA
:100160000433BB60BA683B689A42F3D300BF00BF58
:100170001437BD4680BC704780B584B000AF194BC2
:10018000FB6013E0FB681A1DFA601B683B60FB68AC
:100190001A1DFA601B68BB60FB681A1DFA601B68B9
:1001A0007B607A68B9683868FFF7A8FFFB680E4A79
:1001B0009342E7D30DE0FB681A1DFA601B68BB6031
:1001C000FB681A1DFA601B687B607968B868FFF7E6
:1001D000B7FFFB68054A9342EDD300F0BBFA00F08D
:1001E0008BFAFEE7C0000000E4000000FC00000005
:1001F00080B400AFFEE780B400AFFEE780B400AF8C
:10020000FEE780B400AFFEE780B400AFFEE780B445
:1002100000AFFEE780B582B000AF78603960044B74
:1002200039687868984700BF0837BD4680BD00BF71
:10023000F11FFF1F80B582B000AF0A4B1B690A4A4D
:1002400023F0604323F07F039360064B1B69043364
:100250007B607B681B683B603B68984700BF083742
:10026000BD4680BD0000001000ED00E080B500AF8D
:100270000A4B35221A60094B04225A60074B0422AC
:100280009A6007490548FFF7C5FF054B1B68002B1F
:1002900001D1002300E00123184680BD6003001057
:1002A0007403001080B485B000AFF860B9601146E7
:1002B0001A460B46FB711346BB71FB79B879F96896
:1002C000BA6852010A44134402461A7000BF143738
:1002D000BD4680BC7047FFFF80B500AF4FF4807211
:1002E000FF21024803F01CFC00BF80BD8803001002
:1002F00080B58AB000AF78607B681B793B737B6800
:100300005B799BB2FB81FB891B029BB2FB81FA8963
:100310007B689B799BB213449BB2FB817B68DB7942
:100320003B7400237B620DE07B6A05337A681344DB
:10033000D97807F111027B6A13440A461A707B6A66
:1003400001337B623B7B1A467B6A9342ECDB7B6A20
:1003500005337A681344DB7887F821300F4B1B781C
:100360000F2201214FF0A040FFF79CFF0B4B1B78A1
:10037000002B14BF01230023DBB283F00103DBB2A7
:1003800003F00103DAB2054B1A7007F10C031846AB
:1003900000F006F800BF2837BD4680BDB40000104D
:1003A00080B584B000AF78607B681B79052B00F2C4
:1003B000868001A252F823F0D10300004D04000012
:1003C0005F040000BF0400008F040000BF040000B1
:1003D0007B685B88BB603C4B1B68002B06D13B4BAA
:1003E0001B681A46BB681344374A13600023FB603E
:1003F00025E0BA68FB681344DBB27968FA680A44FE
:1004000005321178324AD154BA68FB68134401337B
:10041000DBB2002B10D12C4B1B684FF480722C499F
:10042000184600F057F84FF48072FF21284803F077
:1004300077FB254B00221A60FB680133FB607B6869
:100440001B781A46FB689342D3D339E01E4B1B68D6
:100450004FF480721E49184600F03CF830E07B688B
:100460005B791A46194B1A60184B1B681B02174A16
:1004700013607B689B791A46144B1B681344134A1C
:100480001360124B1B681B01104A136018E07B6855
:100490005B791A460D4B1A600C4B1B681B020B4A0A
:1004A00013607B689B791A46084B1B681344074A04
:1004B0001360064B1B681B04044A136000E000BF76
:1004C00000BF1037BD4680BDB0000010AC0000106A
:1004D0008803001080B586B000AFF860B9607A601C
:1004E000FB681B0B7B6172B600BF7969786903F00A
:1004F0000FF90346FB74104B1B687A699A4208D0C7
:100500007969786903F034F90346FB740A4A7B6918
:1005100013607969786903F0FBF80346FB747A6825
:10052000B968F86803F006F90346FB7462B600BFC9
:1005300000BF1837BD4680BDB800001080B500AFC1
:1005400002F088FC02F02AFB02F0C2FC00BF80BD72
:1005500080B584B000AF0223FB600023BB600123A1
:100560007B600A4803F03CFA084AFB685360074A7C
:10057000BB685360054B40F27F72DA60034A7B68C8
:10058000536000BF1037BD4680BD00BF0040014032
:1005900080B483B000AF0346FB71FB7903F01F0307
:1005A000012202FA03F1064A97F907305B0920336A
:1005B00042F8231000BF0C37BD4680BC704700BF17
:1005C00000E100E080B485B000AFF860B96011468A
:1005D0001A460B46FB711346BB71FB79B879F96873
:1005E000BA6852010A44134402461A7000BF143715
:1005F000BD4680BC704780B500AF02F0C5FF02F079
:1006000046FF00BF80BDFFFF80B584B000AF7860BB
:100610000023FB730123072200214FF0A04003F0C9
:100620005DF801230F2201214FF0A04003F056F89E
:100630000123072200214FF0A04003F04FF80023D0
:10064000072200214FF0A040FFF7BCFF00230F223C
:1006500001214FF0A040FFF7B5FF00230722002142
:100660004FF0A040FFF7AEFF144B1B78002B15D0C6
:10067000FB7B072200214FF0A040FFF7A3FFFB7B8D
:100680000F2201214FF0A040FFF79CFFFB7B0722C8
:1006900000214FF0A040FFF795FF06E0FB7B07220B
:1006A00000214FF0A040FFF78DFFFB7B83F001039B
:1006B000FB734FF47A7001F08FF8D5E74400001017
:1006C00080B582B000AF78600A4801F085F8152047
:1006D000FFF75EFF42F2107001F07EF8FFF7C6FDF3
:1006E0000346002B01D0FFF7A5FD00BF0837BD462C
:1006F00080BD00BF905F010080B582B002AFFFF700
:100700007AFFFFF7E9FDFFF719FF002301930123AB
:10071000009300233C220A490A4800F029FF0A4BB3
:1007200001930123009300233C220849084800F06C
:100730001FFF01F0F7F801231846BD4680BD00BF3A
:10074000143D000009060000BC000010243D00001C
:10075000C106000080B500AF02F00AFF00BF80BDF7
:1007600080B582B000AF1C2000F04CF978607B6847
:10077000002B07D07B6800221A607B680433184680
:1007800000F064F97B6818460837BD4680BDFFFF5E
:1007900080B58CB000AFF860B9607A603B60FB68F0
:1007A0007B620023BB6200233B6201F0FBF87B6AA3
:1007B0001B68FB613A68B968F86900F0EDF8B86148
:1007C000BB69002B0ED0FB69FB620023BB637B6817
:1007D000002B28D07B6A1A68BB68DB431A407B6A0F
:1007E0001A6020E0BB6B002B04D1FB69FB62012384
:1007F0003B6218E07B68002B03D0BB6A43F0807338
:10080000BB623B68002B03D0BB6A43F08063BB62D2
:100810007B6A181DBA68BB6A1343BA6B194601F0AC
:100820008DFA0023FB6201F0CBF87861BB6B002BE3
:1008300031D07B69002B07D1194B4FF080521A60E1
:10084000BFF34F8FBFF36F8F01F0EAFCF862FB6AD2
:1008500003F00073002B1AD100F02EFA7B6A1B689C
:10086000FB623A68B968F86A00F096F80346002B14
:1008700009D07B68002B06D07B6A1A68BB68DB4313
:100880001A407B6A1A6001233B6200F033FAFB6A6C
:1008900023F07F43FB62FB6A18463037BD4680BDBC
:1008A00004ED00E080B58CB000AF786039600023C3
:1008B000BB627B683B6200237B623B6A0433FB6163
:1008C000FB690833BB6101F06DF8FB69DB68FB6213
:1008D0003B6A1A683B681A433B6A1A603CE0FB6A51
:1008E0005B687B61FB6A1B683B6100237B623B6941
:1008F00003F07F43FB603B6923F07F433B61FB6870
:1009000003F08063002B08D13B6A1A683B691340EF
:10091000002B0BD001237B6208E03B6A1A683B691D
:1009200013403A699A4201D101237B627B6A002B12
:1009300010D0FB6803F08073002B03D0BA6A3B69C8
:100940001343BB623B6A1B6843F000731946F86AA5
:1009500001F084FA7B69FB62FA6ABB699A42BED1F4
:100960003B6A1A68BB6ADB431A403B6A1A6001F0B3
:1009700027F83B6A1B6818463037BD4680BD80B5F6
:1009800082B000AF7860396039687868FFF78AFF15
:1009900000BF0837BD4680BD80B487B000AFF860A7
:1009A000B9607A6000237B617B68002B07D1FA680D
:1009B000BB681340002B0AD001237B6107E0FA6873
:1009C000BB681340BA689A4201D101237B617B69FD
:1009D00018461C37BD4680BC7047FFFF80B586B007
:1009E00000AFF860B9607A607B68BA68F96804485B
:1009F00001F060FF78617B6918461837BD4680BDFD
:100A00007F09000080B584B000AF786000F0CAFFB5
:100A1000786803F067F80346FB6000F0D1FFFB68DD
:100A200018461037BD4680BD80B582B000AF7860F3
:100A30007B68002B06D000F0B5FF786803F05AF809
:100A400000F0BEFF00BF0837BD4680BD80B483B054
:100A500000AF78607B6803F108027B685A607B68AE
:100A60004FF0FF329A607B6803F108027B68DA601E
:100A70007B6803F108027B681A617B6800221A60B8
:100A800000BF0C37BD4680BC704780B483B000AF58
:100A900078607B6800221A6100BF0C37BD4680BCBD
:100AA000704780B485B000AF786039607B685B6860
:100AB000FB603B68FA685A60FB689A683B689A601A
:100AC000FB689B683A685A60FB683A689A603B68C2
:100AD0007A681A617B681B685A1C7B681A6000BFC1
:100AE0001437BD4680BC704780B485B000AF7860D5
:100AF00039603B681B68BB60BB68B3F1FF3F03D143
:100B00007B681B69FB600CE07B680833FB6002E0DC
:100B1000FB685B68FB60FB685B681B68BA689A42AD
:100B2000F6D2FB685A683B685A603B685B683A6873
:100B30009A603B68FA689A60FB683A685A603B685A
:100B40007A681A617B681B685A1C7B681A6000BF50
:100B50001437BD4680BC704780B485B000AF786064
:100B60007B681B69FB607B685B687A6892689A6047
:100B70007B689B687A6852685A60FB685B687A6831
:100B80009A4203D17B689A68FB685A607B680022AE
:100B90001A61FB681B685A1EFB681A60FB681B68B9
:100BA00018461437BD4680BC7047FFFF80B485B03F
:100BB00000AFF860B9607A60FB68043BFB60FB68DB
:100BC0004FF080721A60FB68043BFB60BA68FB68F8
:100BD0001A60FB68043BFB60084AFB681A60FB680C
:100BE000143BFB607A68FB681A60FB68203BFB6083
:100BF000FB6818461437BD4680BC7047010C0000E6
:100C000080B483B000AF00233B604FF0280383F330
:100C10001188BFF36F8FBFF34F8F7B6000BF00BFA2
:100C20003B68002BFCD000BF00BF0C37BD4680BC2A
:100C3000704780B400AF00BFBD4680BC7047FFFF67
:100C40000B4A13681868203080F30988022080F36B
:100C50001488BFF36F8F3FBCAE4608BC04BC62B6BD
:100C6000184700BFAFF30080AFF30080AFF3008000
:100C7000C000001000BF00BF80B500AF0C4B1B6868
:100C80000B4A43F47F031360094B1B68084A43F087
:100C90007F43136000F096F8064B00221A60FFF7BE
:100CA000CFFF00F0D1FFFFF7ABFF0023184680BD58
:100CB00020ED00E04000001080B483B000AF4FF0A2
:100CC000280383F31188BFF36F8FBFF34F8F7B60CF
:100CD00000BF074B1B680133054A1360BFF34F8FFA
:100CE000BFF36F8F00BF0C37BD4680BC704700BF9D
:100CF0004000001080B483B000AF0A4B1B68013B7A
:100D0000084A1360074B1B68002B05D100237B604A
:100D10007B6883F3118800BF00BF0C37BD4680BCE1
:100D2000704700BF40000010FFFFFFFFFFFFFFFF05
:100D3000EFF309800E4B1A6820381060F0C044466B
:100D40004D4656465F46F0C008B572B600F07CFFCF
:100D500062B60CBC116808681030F0C8A046A946FD
:100D6000B246BB4680F309882038F0C8184700BF58
:100D7000C000001000BF00BF80B584B000AFEFF32B
:100D800011824FF0280383F31188BFF36F8FBFF3F5
:100D90004F8FBA607B60BB68FB6000F0ADFE03461E
:100DA000002B03D0064B4FF080521A60FB683B606B
:100DB0003B6883F3118800BF00BF1037BD4680BD7C
:100DC00004ED00E080B400AF084B00221A60084B2D
:100DD00000221A60074B42F27F521A60034B07222F
:100DE0001A6000BFBD4680BC704700BF10E000E045
:100DF00018E000E014E000E080B584B000AF786057
:100E000039607B68FB60FFF757FFFB681A68FB6877
:100E1000DB6BF968096C01FB03F31A44FB689A6009
:100E2000FB6800229A63FB681A68FB685A60FB68DB
:100E30001A68FB68DB6B013BF968096C01FB03F383
:100E40001A44FB68DA60FB68FF2283F84420FB68E1
:100E5000FF2283F845203B68002B14D1FB681B69F7
:100E6000002B1AD0FB681033184600F0A3FF03468E
:100E7000002B12D00C4B4FF080521A60BFF34F8FF3
:100E8000BFF36F8F09E0FB6810331846FFF7DEFDF4
:100E9000FB6824331846FFF7D9FDFFF72BFF01232A
:100EA00018461037BD4680BD04ED00E080B58AB01D
:100EB00002AFF860B9601346FB71FB68BA6802FBC9
:100EC00003F3FB61FB6950331846FFF79BFDB861E4
:100ED000BB69002B0DD0BB697B617B6950337B61A3
:100EE000FA79BB69009313467A69B968F86800F02B
:100EF00005F8BB6918462037BD4680BD80B584B073
:100F000000AFF860B9607A60FB70BB68002B03D15A
:100F1000BB69BA691A6002E0BB697A681A60BB698A
:100F2000FA68DA63BB69BA681A640121B869FFF725
:100F300063FFBB69FA7883F84C2000BF1037BD46C9
:100F400080BDFFFF80B58AB000AFF860B9607A60FD
:100F50003B6000237B62FB683B62FFF7ADFE3B6AB0
:100F60009A6B3B6ADB6B9A4202D33B68022B29D116
:100F70003A68B968386A00F08FF9F8613B6A5B6AD1
:100F8000002B10D03B6A2433184600F013FF0346B1
:100F9000002B13D03F4B4FF080521A60BFF34F8F9E
:100FA000BFF36F8F0AE0FB69002B07D0394B4FF07E
:100FB00080521A60BFF34F8FBFF36F8FFFF79AFE17
:100FC000012363E07B68002B03D1FFF793FE00232E
:100FD0005CE07B6A002B06D107F11403184600F091
:100FE0007FFF01237B62FFF785FE00F0DBFCFFF74C
:100FF00063FE3B6A93F844305BB2B3F1FF3F03D129
:101000003B6A002283F844203B6A93F845305BB288
:10101000B3F1FF3F03D13B6A002283F84520FFF77D
:1010200069FE3A1D07F114031146184600F06EFFE1
:101030000346002B24D1386A00F026FA0346002B21
:1010400018D03B6A10337A681146184600F060FEEB
:10105000386A00F0B1F900F0B3FC0346002B7FF4CE
:101060007CAF0C4B4FF080521A60BFF34F8FBFF331
:101070006F8F72E7386A00F09FF900F0A1FC6CE70F
:10108000386A00F099F900F09BFC002318462837D5
:10109000BD4680BD04ED00E080B58CB000AFF860C7
:1010A000B9607A603B60FB68BB62EFF311824FF07E
:1010B000280383F31188BFF36F8FBFF34F8FBA619B
:1010C0007B61BB697B62BB6A9A6BBB6ADB6B9A42D2
:1010D00002D33B68022B2FD1BB6A93F8453087F8C7
:1010E0002330BB6A9B6BFB613A68B968B86A00F051
:1010F000D3F897F92330B3F1FF3F12D1BB6A5B6A93
:10110000002B16D0BB6A2433184600F053FE03466A
:10111000002B0ED07B68002B0BD07B6801221A605D
:1011200007E097F823300133DBB25AB2BB6A83F889
:1011300045200123FB6201E00023FB627B6A3B61E7
:101140003B6983F3118800BFFB6A18463037BD4600
:1011500080BDFFFF80B58AB000AFF860B9607A60EB
:1011600000237B62FB683B62FFF7A6FD3B6A9B6B3B
:10117000FB61FB69002B1FD0B968386A00F0F6F8F4
:10118000FB695A1E3B6A9A633B6A1B69002B0FD0AE
:101190003B6A1033184600F00DFE0346002B07D0C3
:1011A0003C4B4FF080521A60BFF34F8FBFF36F8FED
:1011B000FFF7A0FD012369E07B68002B03D1FFF757
:1011C00099FD002362E07B6A002B06D107F114032E
:1011D000184600F085FE01237B62FFF78BFD00F0CF
:1011E000E1FBFFF769FD3B6A93F844305BB2B3F172
:1011F000FF3F03D13B6A002283F844203B6A93F807
:1012000045305BB2B3F1FF3F03D13B6A002283F864
:101210004520FFF76FFD3A1D07F1140311461846EC
:1012200000F074FE0346002B23D1386A00F016F953
:101230000346002B17D03B6A24337A6811461846C0
:1012400000F066FD386A00F0B7F800F0B9FB03461D
:10125000002B89D10F4B4FF080521A60BFF34F8F94
:10126000BFF36F8F80E7386A00F0A6F800F0A8FBA4
:101270007AE7386A00F0A0F800F0A2FB386A00F0C4
:10128000EDF80346002B3FF46FAF002318462837D4
:10129000BD4680BD04ED00E080B586B000AFF860CB
:1012A000B9607A6000237B61FB689B6B3B61FB68E4
:1012B0001B6C002B0DD1FB681B68002B4DD1FB680C
:1012C0009B68184600F048FF7861FB6800229A602E
:1012D00043E07B68002B19D1FB685868FB681B6CE6
:1012E0001A46B96802F00EFCFB685A68FB681B6C72
:1012F0001A44FB685A60FB685A68FB689B689A420C
:101300002BD3FB681A68FB685A6026E0FB68D86834
:10131000FB681B6C1A46B96802F0F4FBFB68DA68DC
:10132000FB681B6C5B421A44FB68DA60FB68DA6896
:10133000FB681B689A4207D2FB689A68FB681B6CC3
:101340005B421A44FB68DA607B68022B05D13B697B
:10135000002B02D03B69013B3B613B695A1CFB6897
:101360009A637B6918461837BD4680BD80B582B048
:1013700000AF786039607B681B6C002B18D07B68ED
:10138000DA687B681B6C1A447B68DA607B68DA6811
:101390007B689B689A4203D37B681A687B68DA6033
:1013A0007B68D9687B681B6C1A46386802F0AAFB18
:1013B00000BF0837BD4680BD80B584B000AF7860FF
:1013C000FFF77AFC7B6893F84530FB7311E07B688C
:1013D0005B6A002B12D07B682433184600F0EAFCCD
:1013E0000346002B01D000F0D7FDFB7B013BDBB2B5
:1013F000FB7397F90F30002BE9DC00E000BF7B683E
:10140000FF2283F84520FFF775FCFFF755FC7B684A
:1014100093F84430BB7311E07B681B69002B12D03A
:101420007B681033184600F0C5FC0346002B01D042
:1014300000F0B2FDBB7B013BDBB2BB7397F90E3012
:10144000002BE9DC00E000BF7B68FF2283F844202A
:10145000FFF750FC00BF1037BD4680BD80B584B09B
:1014600000AF7860FFF728FC7B689B6B002B02D1F4
:101470000123FB6001E00023FB60FFF73BFCFB68FE
:1014800018461037BD4680BD80B584B000AF786087
:10149000FFF712FC7B689A6B7B68DB6B9A4202D188
:1014A0000123FB6001E00023FB60FFF723FCFB68E6
:1014B00018461037BD4680BD80B485B000AF786057
:1014C00039600023FB6014E00E4AFB6852F83330A9
:1014D000002B0BD10B49FB683A6841F83320094ACD
:1014E000FB68DB0013447A685A6006E0FB6801334E
:1014F000FB60FB68092BE7D900BF00BF1437BD466E
:1015000080BC70478804001080B586B000AFF860DA
:10151000B9607A60FB687B61FFF7CEFB7B6993F86B
:1015200044305BB2B3F1FF3F03D17B69002283F803
:1015300044207B6993F845305BB2B3F1FF3F03D1A0
:101540007B69002283F84520FFF7D4FB7B699B6B06
:10155000002B06D17B6924337A68B968184600F0FD
:101560000BFC7869FFF728FF00BF1837BD4680BD28
:1015700080B58CB004AFF860B9603B601346FB8067
:10158000FB889B001846FFF73DFA78617B69002BCA
:101590000ED06820FFF736FAF861FB69002B03D004
:1015A000FB697A691A6305E07869FFF73DFA01E0A3
:1015B0000023FB61FB69002B13D0FA8800230393FF
:1015C000FB690293FB6A0193BB6A00933B68B968AD
:1015D000F86800F00EF8F86900F090F80123BB619C
:1015E00002E04FF0FF33BB61BB6918462037BD46B0
:1015F00080BD80B586B000AFF860B9607A603B60AE
:10160000BB6A186B7B689B001A46A52102F088FA1A
:10161000BB6A1A6B7B6803F18043013B9B00134458
:101620003B613B6923F007033B61BB6A3A699A64FB
:10163000BB68002B1FD000237B6112E0BA687B6976
:1016400013441978BA6A7B69134434330A461A7012
:10165000BA687B6913441B78002B06D07B69013381
:101660007B617B69132BE9D900E000BFBB6A0022D4
:1016700083F8472003E0BB6A002283F834203B6AEA
:10168000042B01D904233B62BB6A3A6ADA62BB6A63
:101690003A6A5A65BB6A00229A65BB6A04331846E7
:1016A000FFF7F3F9BB6A18331846FFF7EEF9BB6A88
:1016B000BA6A1A613B6AC3F10502BB6A9A61BB6AE6
:1016C000BA6A5A62BB6A0022DA65BB6A00221A66ED
:1016D000BB6A002283F864203A68F9683869FFF72A
:1016E00065FA0246BB6A1A607B6A002B02D07B6AED
:1016F000BA6A1A6000BF1837BD4680BD80B582B097
:1017000000AF7860FFF7D8FA2C4B1B6801332B4AE7
:1017100013602B4B1B68002B09D1294A7B6813608F
:10172000264B1B68012B10D100F05AFC0DE0254B15
:101730001B68002B09D1224B1B68DA6A7B68DB6AC5
:101740009A4202D81E4A7B6813601F4B1B68013304
:101750001D4A13601C4B1A687B68DA647B68DB6A7D
:1017600001229A40194B1B681343184A13607B6887
:10177000DA6A13469B0013449B00154A1A447B689F
:10178000043319461046FFF78CF9FFF7B3FA0D4BF7
:101790001B68002B0ED00A4B1B68DA6A7B68DB6A79
:1017A0009A4207D20B4B4FF080521A60BFF34F8F13
:1017B000BFF36F8F00BF0837BD4680BD9801001092
:1017C000C0000010A4010010B4010010A00100101E
:1017D000C400001004ED00E080B584B000AF786074
:1017E0000023FB607B68002B08D000F0DBF80021B1
:1017F000786800F02DFD00F0E3F8F860FB68002B3E
:1018000007D1064B4FF080521A60BFF34F8FBFF3E2
:101810006F8F00BF1037BD4680BD00BF04ED00E0F4
:1018200080B584B000AF7860FFF746FA7B68002B84
:1018300002D1354B1B6800E07B68FB60FB6804331A
:101840001846FFF789F90346002B15D1FB68DA6AC1
:101850002E4913469B0013449B000B441B68002B2E
:101860000AD1FB68DB6A012202FA03F3DA43284B50
:101870001B681340264A1360FB689B6A002B04D048
:10188000FB6818331846FFF767F9FB6804331946FD
:101890002048FFF706F9FB6893F86430DBB2012BB0
:1018A00003D1FB68002283F86420FFF723FA1A4B68
:1018B0001B68002B05D0FFF7FFF900F00FFCFFF7C6
:1018C00019FA114B1B68FA689A4218D1124B1B681F
:1018D000002B08D0114B4FF080521A60BFF34F8F8E
:1018E000BFF36F8F0BE00B4B1A680D4B1B689A42CE
:1018F00003D1054B00221A6001E000F0A5F900BFFA
:101900001037BD4680BD00BFC0000010C4000010ED
:10191000A001001084010010A401001004ED00E0FB
:101920009801001080B584B002AF184B01930023DA
:1019300000930023322216491648FFF719FE7860FB
:101940007B68012B02D100F0E9FC78607B68012BF9
:1019500017D14FF0280383F31188BFF36F8FBFF3C4
:101960004F8F3B6000BF0C4B4FF0FF321A600B4BA8
:1019700001221A600A4B00221A60FEF7E9FDFFF708
:101980007BF900BF0837BD4680BD00BFBC01001019
:10199000383D0000B11F0000B8010010A401001084
:1019A0009C01001080B400AF044B1B680133034A54
:1019B000136000BFBD4680BC704700BFC00100106F
:1019C00080B584B000AF0023FB600023BB60FFF74D
:1019D00073F9394B1B68013B374A1360364B1B6860
:1019E000002B61D1354B1B68002B5DD02EE0344BB2
:1019F000DB68DB68FB60FB6818331846FFF7ACF860
:101A0000FB6804331846FFF7A7F8FB68DB6A01227E
:101A10009A402C4B1B6813432A4A1360FB68DA6A0E
:101A200013469B0013449B00274A1A44FB68043367
:101A300019461046FFF735F8FB68DA6A234B1B6836
:101A4000DB6A9A4202D3224B01221A601C4B1B68AC
:101A5000002BCCD1FB68002B01D000F03FFB1D4BCD
:101A60001B687B607B68002B10D000F045F80346B4
:101A7000002B02D0164B01221A607B68013B7B6071
:101A80007B68002BF1D1134B00221A60104B1B68AE
:101A9000002B09D00123BB600F4B4FF080521A601E
:101AA000BFF34F8FBFF36F8FFFF724F9BB68184662
:101AB0001037BD4680BD00BFC00100109801001066
:101AC00058010010A0010010C4000010C000001058
:101AD000AC010010A801001004ED00E080B483B058
:101AE00000AF044B1B687B607B6818460C37BD4613
:101AF00080BC70479C01001080B586B000AF002309
:101B00007B61464B1B68002B7DD1454B1B68013325
:101B10003B61434A3B6913603B69002B10D1414B49
:101B20001B68FB60404B1B683E4A13603E4AFB68E3
:101B300013603E4B1B6801333C4A136000F0CEFA41
:101B40003B4B1B683A699A4248D3364B1B681B686B
:101B5000002B04D1364B4FF0FF321A603EE0314B80
:101B60001B68DB68DB68BB60BB685B687B603A69ED
:101B70007B689A4203D22E4A7B6813602EE0BB68D2
:101B800004331846FEF7E8FFBB689B6A002B04D0BD
:101B9000BB6818331846FEF7DFFFBB68DB6A01221B
:101BA0009A40244B1B681343224A1360BB68DA6ACD
:101BB00013469B0013449B001F4A1A44BB6804331E
:101BC00019461046FEF76DFFBB68DA6A1B4B1B68AF
:101BD000DB6A9A42B9D301237B61B6E7174B1B68D6
:101BE000DA6A154913469B0013449B000B441B689B
:101BF000012B01D901237B61114B1B68002B07D0FE
:101C000001237B6104E00F4B1B6801330D4A136015
:101C10007B6918461837BD4680BD00BFC001001063
:101C20009C0100105001001054010010B001001080
:101C3000B8010010A0010010C4000010C000001086
:101C4000AC010010A801001080B485B000AF284B93
:101C50001B68002B03D0274B01221A6042E0254B62
:101C600000221A60244B9B68244A1360234B1A6895
:101C7000234B1B689A4209D9224B1B68D96D1F4A16
:101C800010681F4A1268821A0A44DA651B4B1B68E7
:101C90001B4A13601C4B1B687B607B68B3FA83F3A1
:101CA000FB70FB78C3F11F03FB60FA6813469B00CF
:101CB00013449B00154A1344BB60BB685B685A68B9
:101CC000BB685A60BB685A68BB6808339A4204D143
:101CD000BB685B685A68BB685A60BB685B68DB6856
:101CE000084A136000BF1437BD4680BC704700BF70
:101CF000C0010010AC01001000400140C8010010FC
:101D0000C4010010C0000010A0010010C4000010A9
:101D100080B582B000AF78603960074B1B6818331C
:101D200019467868FEF7E0FE0121386800F090FA65
:101D300000BF0837BD4680BDC000001080B584B02C
:101D400000AFF860B9607A600A4B1B68BA6842F06D
:101D500000429A61074B1B6818331946F868FEF772
:101D6000A0FE0121786800F073FA00BF1037BD466D
:101D700080BD00BFC000001080B584B000AFF86027
:101D8000B9607A600A4B1B6818331946F868FEF789
:101D900088FE7B68002B02D04FF0FF33BB60796870
:101DA000B86800F055FA00BF1037BD4680BD00BFCF
:101DB000C000001080B584B000AF78607B68DB683D
:101DC000DB68BB60BB6818331846FEF7C5FE1D4BC9
:101DD0001B68002B1CD1BB6804331846FEF7BCFE01
:101DE000BB68DB6A01229A40174B1B681343164AF3
:101DF0001360BB68DA6A13469B0013449B00134AC6
:101E00001A44BB68043319461046FEF74AFE05E043
:101E1000BB68183319460E48FEF743FEBB68DA6A02
:101E20000C4B1B68DB6A9A4205D90123FB600A4B05
:101E300001221A6001E00023FB60FB68184610379E
:101E4000BD4680BDC0010010A0010010C4000010FC
:101E500058010010C0000010AC01001080B584B023
:101E600000AF786039603B6843F000427B681A60DD
:101E70007B68DB68FB607868FEF76EFEFB68043306
:101E80001846FEF769FEFB68DB6A01229A40104B98
:101E90001B6813430E4A1360FB68DA6A13469B0003
:101EA00013449B000B4A1A44FB680433194610463E
:101EB000FEF7F7FDFB68DA6A074B1B68DB6A9A429C
:101EC00002D9064B01221A6000BF1037BD4680BD03
:101ED000A0010010C4000010C0000010AC010010F0
:101EE00080B483B000AF7860064B1A687B681A60D4
:101EF000054B1A687B685A6000BF0C37BD4680BC32
:101F0000704700BFB00100109C01001080B586B082
:101F100000AF78603960FEF7CFFE1D4B1B683B6158
:101F20007B685B683A69D31AFB603B681B68B3F156
:101F3000FF3F02D100237B6123E07B681A68154BC9
:101F40001B689A4207D07B685B683A699A4202D361
:101F500001237B6115E03B681B68FA689A420BD24B
:101F60003B681A68FB68D21A3B681A607868FFF70A
:101F7000B7FF00237B6104E03B6800221A60012365
:101F80007B61FEF7B7FE7B6918461837BD4680BDFA
:101F90009C010010B001001080B400AF034B01227F
:101FA0001A6000BFBD4680BC704700BFAC01001086
:101FB00080B582B000AF786000F052F8064B1B6825
:101FC000012BF9D9054B4FF080521A60BFF34F8FA8
:101FD000BFF36F8FF0E700BFC400001004ED00E016
:101FE00080B582B000AF00237B600CE07A681346B6
:101FF0009B0013449B00124A13441846FEF726FD2B
:102000007B6801337B607B68042BEFD90D48FEF7BA
:102010001DFD0D48FEF71AFD0C48FEF717FD0C4894
:10202000FEF714FD0B48FEF711FD0B4B054A1A6035
:102030000A4B054A1A6000BF0837BD4680BD00BF85
:10204000C4000010280100103C01001058010010CD
:102050006C010010840100105001001054010010A8
:1020600080B582B000AF19E0FEF726FE104BDB68AA
:10207000DB687B607B6804331846FEF76DFD0D4B13
:102080001B68013B0B4A13600B4B1B68013B0A4A60
:102090001360FEF72FFE786800F010F8064B1B68FF
:1020A000002BE1D100BF00BF0837BD4680BD00BF97
:1020B0006C010010980100108001001080B582B002
:1020C00000AF78607B681B6B1846FEF7ADFC786844
:1020D000FEF7AAFC00BF0837BD4680BD80B483B0C0
:1020E00000AF0C4B1B681B68002B04D10A4B4FF050
:1020F000FF321A6008E0074B1B68DB68DB687B6017
:102100007B685B68044A136000BF0C37BD4680BC27
:10211000704700BF50010010B801001080B483B0B8
:1021200000AF0B4B1B68002B02D101237B6008E042
:10213000084B1B68002B02D102237B6001E00023C7
:102140007B607B6818460C37BD4680BC704700BF7B
:10215000A4010010C001001080B584B000AF786009
:102160007B68BB600023FB607B68002B4FD0BB68A3
:102170009B6D5A1EBB689A65BB68DA6ABB685B6D6B
:102180009A4244D0BB689B6D002B40D1BB6804339E
:102190001846FEF7E1FC0346002B15D1BB68DA6A4E
:1021A0001D4913469B0013449B000B441B68002BE6
:1021B0000AD1BB68DB6A012202FA03F3DA43174B48
:1021C0001B681340154A1360BB685A6DBB68DA621E
:1021D000BB68DB6AC3F10502BB689A61BB68DB6A56
:1021E00001229A400D4B1B6813430C4A1360BB68D5
:1021F000DA6A13469B0013449B00074A1A44BB68E3
:10220000043319461046FEF74CFC0123FB60FB68C3
:1022100018461037BD4680BDC4000010A001001054
:1022200080B483B000AF094B1B689B697B60074B90
:102230001B68DA6A054B1B68C2F105029A617B686C
:1022400018460C37BD4680BC704700BFC000001068
:1022500080B584B000AF78603960294B1B68FB60A3
:10226000284B1B6804331846FEF776FC0346002B08
:102270000BD1244B1B68DB6A012202FA03F3DA4319
:10228000214B1B681340204A13607B68B3F1FF3F6A
:102290000AD13B68002B07D01A4B1B680433194640
:1022A0001A48FEF7FEFB26E0FA687B681344BB6021
:1022B000144B1B68BA685A60BA68FB689A4209D224
:1022C000134B1A680F4B1B68043319461046FEF770
:1022D0000BFC10E00F4B1A680A4B1B6804331946BD
:1022E0001046FEF701FC0C4B1B68BA689A4202D2FA
:1022F000094ABB68136000BF1037BD4680BD00BFF0
:102300009C010010C0000010A0010010840100100A
:102310005401001050010010B801001080B584B0C5
:1023200002AF00237B6000F08FFA0A4B1B68002B82
:102330000AD0094B01930423009300236422074928
:102340000748FFF715F978607B6818460837BD46DF
:1023500080BD00BFFC01001000020010403D0000E5
:102360006524000080B58AB000AFF860B9607A607B
:102370003B6000237B621A4B1B68002B2AD0BB6892
:102380007B617B68BB61FB68FB61BB68052B18DC6C
:10239000FFF7C4FE0346022B09D1114B186807F161
:1023A000140100233A6BFEF7CDFD786212E00C4B6E
:1023B000186807F1140100230022FEF7C3FD7862BC
:1023C00008E0074B186807F1140100233A68FEF78C
:1023D00063FE78627B6A18462837BD4680BD00BF21
:1023E000FC01001080B586B002AF786039601C4BEC
:1023F0001B68DB68DB68FB60FB6804331846FEF78C
:10240000ABFBFB6893F8283003F00403002B15D0D6
:10241000FB689A697B68D1187B683A68F86800F0B5
:10242000C3F80346002B12D00023009300237A68E0
:102430000021F868FFF796FFB86008E0FB6893F8A2
:10244000283023F00103DAB2FB6883F82820FB6808
:102450001B6AF868984700BF1037BD4680BD00BFB3
:10246000F401001080B584B000AF786007F1080374
:10247000184600F057F8F860BB681946F86800F095
:1024800003F800F0D3F8F1E780B584B000AF7860CE
:102490003960FFF787FA07F10803184600F064F87F
:1024A000F860BB68002B30D13B68002B0AD17A68FA
:1024B000FB689A4206D8FFF783FAF9687868FFF755
:1024C00091FF24E03B68002B08D0134B1B681B686E
:1024D000002B01D1012300E000233B600F4B186863
:1024E0007A68FB68D31A3A681946FFF70DF8FFF7C8
:1024F00067FA0346002B0AD1094B4FF080521A604D
:10250000BFF34F8FBFF36F8F01E0FFF759FA00BFA2
:102510001037BD4680BD00BFF8010010FC0100105F
:1025200004ED00E080B485B000AF78600D4B1B680F
:102530001B68002B01D1012200E000227B681A6099
:102540007B681B68002B05D1064B1B68DB681B688A
:10255000FB6001E00023FB60FB6818461437BD46B2
:1025600080BC7047F401001080B584B000AF786083
:10257000FFF7B4FAF8600B4B1B68FA689A4205D271
:1025800000F00CF97B6801221A6002E07B680022EF
:102590001A60044AFB681360FB6818461037BD4692
:1025A00080BD00BF0402001080B586B000AFF860A7
:1025B000B9607A603B6000237B61FB68BA685A604F
:1025C000FB68FA681A61BA687B689A4212D87A681E
:1025D0003B68D21AFB689B699A4202D301237B6154
:1025E0001BE0104B1A68FB68043319461046FEF7CF
:1025F0007BFA12E07A683B689A4206D2BA683B6876
:102600009A4202D301237B6107E0074B1A68FB68FB
:10261000043319461046FEF767FA7B6918461837E7
:10262000BD4680BDF8010010F401001080B58CB0EB
:1026300002AFA0E0BB68002B0BDA07F108030433FC
:102640007B627B6A1B687A6A50687A6A9268114674
:102650009847BB68002BC0F28D803B693B623B6AA8
:102660005B69002B04D03B6A04331846FEF774FA0A
:102670003B1D1846FFF778FFF861BB68092B7AD835
:1026800001A252F823F000BFB1260000B1260000DD
:10269000B12600000B2700001F2700004B27000079
:1026A000B1260000B12600000B2700001F27000004
:1026B0003B6A93F8283043F00103DAB23B6A83F8AF
:1026C0002820FA683B6A9B69D118FB68FA69386A66
:1026D000FFF76AFF0346002B4DD03B6A1B6A386A3E
:1026E00098473B6A93F8283003F00403002B42D04C
:1026F000FA683B6A9B691A44002300930023002177
:10270000386AFFF72FFEB86135E03B6A93F828304E
:1027100023F00103DAB23B6A83F828202BE03B6AFE
:1027200093F8283043F00103DAB23B6A83F828209B
:10273000FA683B6A9A613B6A9A69FB69D118FB693E
:10274000FA69386AFFF730FF15E03B6A93F82830E2
:1027500003F00203002B03D1386AFEF765F90AE0A3
:102760003B6A93F8283023F00103DAB23B6A83F81E
:10277000282000E000BF084B1B6807F10801002279
:102780001846FEF7E7FC0346002B7FF453AF00BF6B
:1027900000BF2837BD4680BDFC01001080B588B061
:1027A00002AF3AE0264B1B68DB681B683B61244B99
:1027B0001B68DB68DB68FB60FB6804331846FEF7C8
:1027C000CBF9FB681B6AF8689847FB6893F82830D8
:1027D00003F00403002B20D0FB689B693A69134483
:1027E000BB60BA683B699A420ED9FB68BA685A6006
:1027F000FB68FA681A61124B1A68FB6804331946C1
:102800001046FEF771F908E00023009300233A69AF
:102810000021F868FFF7A6FD7860094B1B681B686C
:10282000002BBFD1064B1B687B61064B1B68044A1B
:102830001360044A7B69136000BF1837BD4680BD32
:10284000F4010010F801001080B500AFFEF734FA73
:10285000124B1B68002B1DD11148FEF7F7F81148E9
:10286000FEF7F4F8104B0E4A1A60104B0D4A1A602E
:10287000002210210520FEF719FB0346074A1360CA
:10288000064B1B68002B05D0044B1B6808491846F3
:10289000FEF712FEFEF72EFA00BF80BDFC0100100D
:1028A000CC010010E0010010F4010010F80100104C
:1028B000483D000080B58AB000AFF860B9607A602A
:1028C0003B606FF001037B61FB68BB61BB68FB6130
:1028D0007B683B62064B186807F1140100233A68D5
:1028E000FEF7DAFB78627B6A18462837BD4680BD62
:1028F000FC01001080B582B000AF78600846114638
:102900001A460346FB700B46BB7013463B803A8861
:102910003B7C1343BA78F978786800F045FF00BF34
:102920000837BD4680BD80B485B000AFF860B9609F
:1029300011461A460B46FB711346BB71FB79B879F9
:10294000F968BA6852010A44134402461A7000BF7B
:102950001437BD4680BC704780B584B002AF0346D3
:102960000A46FB711346BB71BA79F97900230093CB
:1029700000230A48FFF7BEFFF979BA7901234FF027
:10298000A04000F0ABFEBA79FB791146184600F082
:102990001AF800BF0837BD4680BD00BF00400440A4
:1029A00080B582B000AF03460A46FB711346BB7187
:1029B000F979BA7901234FF0A040FFF7B4FF00BFC7
:1029C0000837BD4680BD80B582B000AF03460A46D9
:1029D000FB711346BB71F979BA7900234FF0A0401F
:1029E000FFF7A1FF00BF0837BD4680BD80B483B0AC
:1029F00000AF0346FB71FB7903F01F03012202FACB
:102A000003F1064A97F907305B09203342F8231097
:102A100000BF0C37BD4680BC704700BF00E100E03E
:102A200080B483B000AF0346FB71FB7903F01F0352
:102A3000012202FA03F1064A97F907305B09603375
:102A400042F8231000BF0C37BD4680BC704700BF62
:102A500000E100E080B483B000AF03463960FB7151
:102A600097F90730002B0BDA3B68DAB20C49FB7997
:102A700003F00F03043B5201D2B20B441A7609E073
:102A80003B68DAB2074997F907305201D2B20B44DA
:102A900083F8002300BF0C37BD4680BC704700BFE1
:102AA00000ED00E000E100E080B483B000AF7860AA
:102AB0007B6880221A6300BF0C37BD4680BC70471C
:102AC00080B483B000AF78600B46FB70FA787B6807
:102AD0001A6000BF0C37BD4680BC704780B483B01D
:102AE00000AF786039607B685A683B681A437B683E
:102AF0005A6000BF0C37BD4680BC704780B483B0BD
:102B000000AF786039607B685A683B68DB431A40E5
:102B10007B685A6000BF0C37BD4680BC704780B4EC
:102B200083B000AF786039607B683A689A6000BF14
:102B30000C37BD4680BC704780B483B000AF78606E
:102B400039607B683A68DA6000BF0C37BD4680BCEC
:102B5000704780B483B000AF78607B685B691846CB
:102B60000C37BD4680BC704780B485B000AFF860BC
:102B7000B96011461A460B46FB711346BB71FB79CF
:102B8000B879F968BA6852010A44134402461A70C7
:102B900000BF1437BD4680BC7047FFFF80B582B0D0
:102BA00002AF802301221149114800F003FE00F01A
:102BB00029F800225D210220FEF778F903460D4A2C
:102BC00013600C4B1B680C491846FEF775FC094B4B
:102BD0001B680022019203220092782207490848CC
:102BE000FEF7C6FC00BFBD4680BD00BFEC04001070
:102BF000D8040010EC050010503D0000643D0000BA
:102C0000352D000080B500AF02210020FFF7A4FEA3
:102C10001520FFF7EBFE144800F002FF134912489D
:102C200000F014FF03211048FFF786FF0E48FFF75E
:102C30003BFF802301220E490E4800F0BBFD872197
:102C40000948FFF76CFF05210748FFF747FF0221FE
:102C50000548FFF753FF1520FFF7E2FE0621152078
:102C6000FFF7F8FE00BF80BD0080004080841E009A
:102C70006C050010F005001080B582B000AF002395
:102C80007B60264800F054FE03460A2B02DC244BEE
:102C900000221A70234A2149234800F0EFFE1F4802
:102CA00000F046FE03460A2B11DD1D4B1B7883F016
:102CB0000103DBB2002B0AD01C4B1B683A1D042118
:102CC0001846FDF78BFE164B01221A7013E01348CD
:102CD00000F02EFE03463F2B0DDD01230F220121C4
:102CE0004FF0A040FFF740FF104B1B683A1D042136
:102CF0001846FDF773FE7B68002B07D00C4B4FF096
:102D000080521A60BFF34F8FBFF36F8F1520FFF70C
:102D100087FE00BF0837BD4680BD00BFF00500102C
:102D200008020010D80400100080004004060010C3
:102D300004ED00E080B582B000AF78603220FEF78D
:102D40004BFD00F069F820E0144B1B781A4614493B
:102D5000144800F051FD114B93F85C30012B0AD15F
:102D60000E4B1B781A460F490F4800F021F801203E
:102D7000FEF732FD09E00B4800F0DAFD03461A4683
:102D80000A49084800F094FD00BF00220349786812
:102D9000FEF7E0F90346012BD6D0D2E70C02001073
:102DA0000D020010D8040010008000406C020010DA
:102DB00080B586B000AFF860B9607A60022100206B
:102DC000FFF7EEFD0DE0FB7C1946F868FFF778FE93
:102DD00000BFF868FFF7BDFE034603F02603002B93
:102DE000F7D007F113031946B86800F049FD034610
:102DF000002BE8D100237B6103E000BF7B69013336
:102E00007B617B69632BF8DD02210020FFF7DBFD8E
:102E100000BF1837BD4680BD80B582B002AF064BFB
:102E200018684FF0FF330093012301228021FDF742
:102E3000AFFC00BFBD4680BD0406001080B500AFEA
:102E4000034B1B6880211846FDF72CFD00BF80BD99
:102E50000406001080B500AFFDF782FC0346024A6D
:102E6000136000BF80BD00BF0406001080B483B0B3
:102E700000AF0346FB71FB7903F01F03012202FA46
:102E800003F1054A97F907305B0942F8231000BFA8
:102E90000C37BD4680BC704700E100E080B483B0D1
:102EA00000AF78600B46FB701346BB70FA78BB78B6
:102EB000796852010A4413441B78DBB2002B14BF1B
:102EC00001230023DBB218460C37BD4680BC704797
:102ED00080B582B002AF00F013F800230193022303
:102EE000009300234FF4BE7203490448FEF740FBF1
:102EF00000BFBD4680BD00BF783D0000A533000087
:102F000080B500AF034B1B6803211846FDF7CAFCD0
:102F100000BF80BD0406001080B485B000AF7860AB
:102F20003D4B7E225A707B689B780733BB607B6881
:102F30009B780B33DAB2384B1A70BB681B12DAB2CB
:102F4000354B9A70BB68DAB2334BDA70324B0122E0
:102F50001A71314B01225A717B68B3F854301B0A45
:102F60009BB2DAB22C4B9A717B68B3F85430DAB268
:102F7000294BDA71284B00221A720023FB737B68FD
:102F80001A78254B5A727B6893F90130DAB2224BDA
:102F90009A720023FB730CE0FA7BFB7B0A3379689F
:102FA0000A44D1781C4A13440A465A70FB7B013309
:102FB000FB737B689B78FA7B9A42EDD30023BB813D
:102FC0000323FB730BE0FB7B134A13445B789AB239
:102FD000BB8913449BB2BB81FB7B0133FB737B68D2
:102FE0009B7803F10902FB7B9A42ECDABB89DBB2E6
:102FF000BB81BB89DBB2DB43DBB2BB81FB7BBA8924
:10300000D1B2054A13440A465A70034B1846143786
:10301000BD4680BC704700BF0806001080B582B076
:1030200000AF78600B46FB707868FFF775FF0B4ABE
:10303000FB7882F85C300A4B186800234FF4FA7270
:103040000649FDF77FFF0346002B01D0012300E076
:10305000002318460837BD4680BD00BF0806001093
:10306000EC05001090B587B000AF78607B68FB601E
:10307000FB68002B01D100235CE10023FB720023DD
:10308000FB8200237B750023BB7207F10B031946FB
:10309000F86800F0F5FB9B4B00221A7020E007F166
:1030A0000B031946F86800F0EBFB0346002B10D029
:1030B000944B1B780133DAB2924B1A70914B1B7808
:1030C000052B0DD9904B1B6801338F4A13600023E9
:1030D00030E18D4B1B6801338B4A1360002329E1DB
:1030E000FB7A7E2BDBD103228849F86800F0E0FBF5
:1030F000864B1B781AB2864B1A80854BB3F9003089
:103100001B021AB2824B1A80804B5B789AB2804BBA
:10311000B3F900309BB213449BB21AB27C4B1A80B5
:103120007B4BB3F900305B2B06DD774B1B6801331B
:10313000754A13600023FDE0744B9B789AB2FB8ABA
:1031400013449BB2FB82714B9B78892B0BD10322DA
:103150006E49F86800F0ACFB6B4B1B6801336A4AA0
:1031600013600023E6E0674B00221A7013E0654B02
:103170001B780133DAB2634B1A70624B1B78052B54
:1031800006D9614B1B6801335F4A13600023D1E00D
:103190000120FEF721FBF86800F0CAFB02465C4BF9
:1031A000B3F90030013B9A42E1DB06225749F86847
:1031B00000F07EFB00233B610BE0544A3B69134463
:1031C0001B789AB2FB8A13449BB2FB823B690133A2
:1031D0003B613B69032BF0DD4C4B1A794D4B1A7068
:1031E0004C4B1B789AB2FB8A13449BB2FB82474B31
:1031F0005B795AB2474B5A70464B93F90130DBB2B8
:103200009AB2FB8A13449BB2FB82414BB3F9003064
:10321000DBB2073BDAB23F4B9A703E4B9B78502BA8
:1032200000F28280374B00221A7013E0354B1B7876
:103230000133DAB2334B1A70324B1B78052B06D9A7
:10324000314B1B680133304A1360002372E00120C8
:10325000FEF7C2FA2F4B9B781C46F86800F068FB1B
:1032600003469C42E2DA2B4B9B781A462A49F868BF
:1032700000F01EFB00237B750BE07B7D254A134489
:10328000DB789AB2FB8A13449BB2FB827B7D0133CD
:103290007B75204B9B787A7D9A42EED307F10A0327
:1032A0001946F86800F0ECFAFB8ADBB2FB82FB8A75
:1032B000DBB2DB43DBB2FB82B7F91630BA7A93425A
:1032C00018D1164B1B78002B0BD0154B1B68002B0D
:1032D00007D0134B1B681846FEF7A2FA0F4B0022CB
:1032E0001A70104B1B6801330E4A1360094800F036
:1032F00027F81EE0044B1B680133034A13600023C8
:1033000018E000BF4A030010F00200106806001029
:103310004C030010F4020010F702001044000010EB
:10332000BC000010EC020010044B1B680133034A80
:103330001360002318461C37BD4690BDF0020010F4
:10334000B0B582B000AF78607B6893F90130B3F11B
:10335000FF3F1CD07B6893F901301D4608220021F5
:103360004FF0A040FFF79AFD034683F00103DBB264
:103370005C00092200214FF0A040FFF78FFD0346BB
:1033800083F00103DBB2234305339D4204D1786807
:1033900000F056F8012300E0002318460837BD4628
:1033A000B0BDFFFF80B586B002AF78600023FB6040
:1033B0003220FEF711FA1520FFF758FD0E4B186862
:1033C0004FF0FF330093002301220C21FDF7E0F9B9
:1033D000B860BB6803F00403002B05D0074BFB600B
:1033E00002E0F868FFF73EFEF86800F0A1FA034635
:1033F000002BF6D1E2E700BF04060010F005001034
:1034000080B582B000AF0346FB710C4BF1221A70FD
:103410000A4BFE225A70094B00229A70074B4FF656
:10342000FF72A3F85420FB7919460448FFF7F6FD14
:10343000FFF704FD00BF0837BD4680BDC40600107D
:1034400080B582B000AF78600A4B1B680133094A2F
:1034500013607B681B78F02B06D17868FCF748FF77
:103460000120FFF7CDFF00E000BF00BF0837BD46D9
:1034700080BD00BF5003001080B500AF01230722BC
:1034800000214FF0A04000F029F900BF80BD80B5B9
:1034900000AF4FF0A04000F017F9FFF7EDFF00BFBD
:1034A00080BDFFFF80B483B000AF0346FB71044AC8
:1034B000FB79136000BF0C37BD4680BC704700BF6E
:1034C0000080044080B483B000AF0346FB71084B1A
:1034D000D3F88030FA79012101FA02F21146044A48
:1034E0000B43C2F8803000BF0C37BD4680BC70472C
:1034F0000080044080B586B000AFF860B9607A60A3
:1035000000237B6115E07B699B00BA68134419783E
:103510007B699B00BA68134458787B699B00BA6842
:1035200013445B880246F86800F03EF97B6901337A
:103530007B617A697B689A42E5D300BF00BF183788
:10354000BD4680BD80B500AF1020FFF7BBFF0C2249
:1035500002490348FFF7CEFF00BF80BD903D000049
:103560000040044080B500AF00F004FA00BF80BD09
:1035700080B500AF0220FFF795FFFFF7E3FFFFF7ED
:10358000F1FF00BF80BDFFFF08B500F051F8014B0F
:10359000186008BD1C070010014B1864704700BF7D
:1035A00000800440014B1867704700BF0080044052
:1035B0001B4A136F03F00303022B05D0032B18D013
:1035C000012B0ED017487047526A174902F01F03AB
:1035D000C2F3431251F8220001335B00B0FBF3F059
:1035E0007047136C13F00303ECD0012B0FD00020B5
:1035F00070479168136C13F003030BD0012BF6D1C5
:103600000A4B01F01F01186801FB00007047074BCF
:1036100018687047034801F01F0101FB0000704764
:1036200000800440001BB700C03D00008C3D00003E
:10363000214A136F03F00303022B09D0032B24D07C
:10364000012B16D01D4B1C4A906FB3FBF0F0704756
:10365000536A1B4A03F01F00C3F3431352F823308D
:1036600001304000B3FBF0F3134A906FB3FBF0F06E
:103670007047136C13F00303E4D0012B13D0002325
:103680000D4A906FB3FBF0F070479068126C12F027
:1036900003020BD0012AF2D10A4B00F01F001B6875
:1036A00000FB0333CFE7074B1B68CCE7034B00F06D
:1036B0001F0000FB0333C6E700800440001BB70077
:1036C000C03D00008C3D0000034AD2F8803043F03A
:1036D0004003C2F8803070470080044053B101239A
:1036E00000EB810000F50050016803FA02F20A4382
:1036F0000260704710B4012400EB810000F5005017
:10370000036804FA02F223EA020210BC0260704766
:1037100000B58BB0322305930690079101A905A847
:10372000034B98479DF804000BB05DF804FB00BF05
:10373000F11FFF1F00B58BB033230593069007914F
:103740000892084B1B68084AA2FB03239B090993B4
:1037500001A905A8054B98479DF804000BB05DF83A
:1037600004FB00BF1C070010D34D6210F11FFF1FA8
:1037700000B58BB03423059306900791074B1B6867
:10378000074AA2FB03239B09089301A905A8054B3F
:1037900098479DF804000BB05DF804FB1C0700106F
:1037A000D34D6210F11FFF1F01B1183240F82230D3
:1037B000704700BF10B40024C0E90132C0E90344DF
:1037C000016010BC0120704738B50446C26800692A
:1037D0006368121A9A4201DB002038BD2068A26893
:1037E000013BE5682B4002FB030000F08BF9E36826
:1037F0000133E360012038BD2DE9F04104468846DD
:10380000C16800696668091AB14236DAE768256955
:103810007F1BF71B06F1FF3CE0680CEA000C07EB8E
:103820000C01B1422CBFA6EB0C063E462368BF1B21
:103830009642A8BF1646951BBD42A8BF3D46A0684C
:1038400006FB00F241460CFB003000F05BF9E36838
:10385000F218E260A7686368013B1340206805FB2B
:1038600007F206FB078107FB030000F04BF9E36852
:103870002B44E3607019BDE8F0810020BDE8F081C1
:1038800038B50446C26803699A420FD008462168D9
:10389000A2686368013B25692B4002FB031100F01D
:1038A00031F9236901332361012038BD002038BD7F
:1038B000F8B50F46C1680369994236D00446C66818
:1038C0000569761B456805F1FF3C01690CEA010CAE
:1038D0000CEB0603AB422CBFA5EB0C053546036889
:1038E000761B9542A8BF1546501B8642A8BF0646C8
:1038F000A16805FB01F20CFB0131384600F002F92A
:103900002369E9182161A0686368013B0B402168C5
:1039100006FB00F200FB031105FB007000F0F2F85B
:10392000236933442361A819F8BD0020F8BD00BF06
:10393000C2680069101A704740F2FF51044AD2F879
:10394000383203430B4043F46843C2F838327047BF
:103950000080044040F2FF51054A0840D2F8383256
:1039600023EA00030B4043F46843C2F8383270473F
:103970000080044010B5202082B0FFF7EBFF002349
:103980000193019BB3F5007F06DA019B013301939C
:10399000019BB3F5007FF8DB0120FFF7FDFD8020E0
:1039A000FFF7CAFF47230C4C8020A360FFF7D2FF2C
:1039B0002246D368DB07FCD5012303200749936720
:1039C0000B6923F0030343F002030B6102B0BDE86F
:1039D0001040FFF7E7BD00BF0080044000C0034077
:1039E0000D4B984214D0A3F5404398420ED003F5F6
:1039F000804398420CBF4FF480704FF40070074A28
:103A0000D2F880301843C2F8800070478020F6E773
:103A10004FF48060F3E700BF008001400080044065
:103A200070B41021012607250324074BD3F880200A
:103A300042F48052C3F88020C3F898608560C46067
:103A4000816270BC704700BF0080044038B50C46EE
:103A50000546FFF7ADFD2101B0FBF1F1EB68CCB2FB
:103A600043F08003C1F30722EB602C606A60EB68CF
:103A7000B0FBF1F023F08003EB6038BDF0B5436894
:103A800004469D070E4683B010D46369DA070BD550
:103A90000DF107052368294630468DF80730FFF7FA
:103AA00093FE6369DB07F5D403B0F0BD43691746A5
:103AB00098060ED50DF1070505E09DF80730236047
:103AC0006369990605D529463846FFF7D9FE0028CF
:103AD000F3D1FA683B699A42D7D1636823F00203B5
:103AE0006360D2E7024B0146186800F06DB800BF72
:103AF00048000010024B0146186800F019B800BFDA
:103B0000480000100A44914200F1FF3300D1704791
:103B100010B511F8014B914203F8014FF9D110BDD6
:103B200003460244934200D1704703F8011BF9E7B2
:103B300038B50546002943D051F8043C0C1F002B32
:103B4000B8BFE41800F0AAF81E4A1368104633B94B
:103B5000636014602846BDE8384000F0A5B8A34271
:103B60000AD921686218934201BF1A685B6852182B
:103B7000226063600460EDE71A465B680BB1A34204
:103B8000FAD911685018A0420BD12068014450188E
:103B900083421160DED118685B6801441160536094
:103BA000D8E702D90C232B60D4E7206821188B4278
:103BB00001BF19685B680918216063605460C9E738
:103BC00038BD00BF54030010F8B5CD1C25F0030527
:103BD00008350C2D38BF0C25002D064601DBA94207
:103BE00003D90C2333600020F8BD00F057F82149B9
:103BF0000A6814469CB9204F3B6823B921463046D9
:103C000000F03CF838602946304600F037F8431C95
:103C100023D10C233046336000F046F8E3E72368F5
:103C20005B1B17D40B2B03D923601C44256004E0D5
:103C30006368A2420CBF0B605360304600F034F85A
:103C400004F10B00231D20F00700C21ACCD01B1A70
:103C5000A350C9E722466468CCE7C41C24F00304DF
:103C6000A042E3D0211A304600F008F80130DDD13F
:103C7000CFE700BF540300105803001038B50023ED
:103C8000054D044608462B6000F016F8431C02D18F
:103C90002B6803B1236038BD20070010014800F0F5
:103CA00009B800BF28070010014800F004B800BFA1
:103CB000280700107047704770B50C4D2B680BB982
:103CC0000B4B2B60C41C2E6824F0030434442046A4
:103CD00000F010F810B92C60304670BD00F014F8F8
:103CE0000C234FF0FF360360F6E700BF5C030010C3
:103CF000300700100346034818B1834234BF002048
:103D00000120704700000000014B1868704700BF99
:103D100048000010765461736B5F486172744265AD
:103D200061740000765461736B5F4C756E63685507
:103D30007365725F4170700049444C4500FFFFFF9E
:103D4000546D722053766300546D725100FFFFFF73
:103D50005F315F785175655F4D6573735F53656E55
:103D6000640000005F305F436F6D5F53656E645F9A
:103D70004461746100FFFFFF315F436F6D5F526507
:103D8000636F6D706F5F527800FFFFFF001BB7001D
:103D90000001810000029100000381000004010283
:103DA0000005010200068100000881000009810071
:103DB000000B02010012810000138100011D81002F
:103DC00000000000C027090090051000C05C15002D
:103DD000F0B31A00200B2000009F2400E0322900DD
:103DE000C0C62D0050973100E067350070383900AB
:103DF00000093D004016400080234300C0304600CB
:103E00000000000000100000002000000030000052
:103E10000040000000500000006000000070000042
:103E2000008000000090000000A0000000B0000032
:103E300000C0000000D0000000E0000000F0000022
:103E4000AAAAAAAA01FFFFFF4C0000100000000070
:103E50000000000000000000000000000000000062
:103E60000000000000000000000000000000000052
:103E70000000000000000000000000000000000042
:103E80000000000000000000000000000000000032
:103E90000000000000000000000000000000000022
:0C3EA00000000000000000000000000016
:04000003000001797F
:00000001FF
