:10000000002000102B010000FD000000FF00000098
:1000100000000000000000000000000000000000E0
:10002000000000000000000000000000F1060000D9
:10003000000000000000000031070000750700000C
:100040000701000007010000070100000701000090
:100050000701000007010000070100000701000080
:100060000701000007010000000000000000000080
:100070000701000000000000070100000701000068
:100080000701000007010000070100000701000050
:1000900007010000911A000007010000070100009D
:1000A0000701000007010000070100000701000030
:1000B0000701000007010000070100000000000028
:1000C000A829000000000010AC000000A8290000D2
:1000D0000040002000000000A829000000000020CF
:1000E00000000000AC000010F806000000400020F6
:1000F000000000000000002000000000FEE7FEE716
:10010000FEE7FEE7FEE7FEE7002310B5934200D3CB
:1001100010BD1C585C500433F8E700231A468B428C
:1001200000D370471A500433F9E738B50C4C0D4D25
:10013000AC4207D30C4DAC420BD300F0A3F900F056
:1001400075F9FEE7D4E90001A2680C34FFF7DCFF83
:10015000EEE754F8080B54F8041CFFF7DEFFEAE75B
:10016000C0000000E4000000FC000000044B054952
:100170001A6922F0604323F07F038B6053681847AD
:100180000000001000ED00E03522042310B5064801
:10019000064CC0E9002383602146054B9847206840
:1001A000003818BF012010BD580300106C03001068
:1001B000F11FFF1F4FF48072FF21014802F08ABA3D
:1001C000800300102DE9F04703790446042B18D86A
:1001D000DFE803F003313F174700254E45883368B9
:1001E0001BB9244B1B682B4433606FF00409DFF804
:1001F0008880671DA9EB0409227809EB07039A425E
:1002000001D8BDE8F087EBB217F8012B013515F0E6
:10021000FF0A08F80320EFD14FF48072414630689E
:1002200000F05EF84FF48072FF21404602F052FA6F
:10023000C6F800A0E0E70E4B4FF48072BDE8F0472F
:1002400018680D4920F4FF7020F00100186000F0DC
:1002500047B84279837903EB02231B01054A1360F7
:10026000CFE74279837903EB02231B04F6E700BF53
:10027000B4000010B00000108003001030B54279C7
:10028000837987B003EB0223ADF80230C37901799B
:100290008DF8043000F10803C0F1FF2000F57F0065
:1002A0008DF800100DF10504F73013F8012BC51877
:1002B000A9420FDC4FF0A0418DF81520074A68468F
:1002C000137881F82F3083F001031370FFF77AFF62
:1002D00007B030BD04F8012BE7E700BFAC00001009
:1002E0002DE9F04105460E461746040B72B6DFF8BD
:1002F00038802146204601F0E5FFD8F80030A342BF
:1003000005D02146204602F00DF8C8F800402146ED
:10031000204601F0D7FF3A463146284601F0E4FF77
:1003200062B6BDE8F08100BFB800001010B5114CF6
:10033000102320460822002102F010F82046102346
:100340000922002102F00AF80023072219464FF083
:10035000A04001F09DFF00230F2201214FF0A0409B
:1003600001F096FF01F016FC01F066FBBDE81040BD
:1003700001F0D2BD0040044010B5074C204602F009
:1003800009F9022363600023636040F2FF43E360E6
:100390000123636010BD00BF0040014008B50A485A
:1003A00000F024FF4FF40012084B42F21070C3F823
:1003B000802000F01BFFFFF7E7FE18B1BDE8084002
:1003C000FFF7D4BE08BD00BF905F010000E100E070
:1003D00070B50123072200214FF0A04001F058FF23
:1003E00001234FF0A045002419460F224FF0A040F2
:1003F00001F04EFF0C4E0123072200214FF0A040D8
:1004000001F046FFEC7185F82F40EC713378EC7108
:1004100013B185F82F40EC714FF47A7084F0010429
:1004200000F0E4FEF2E700BF4400001037B50124FD
:10043000002501F083FE01F004FEFFF7BBFEFFF78D
:1004400075FF2B463C22CDE900450949094800F0DB
:10045000A7FC094B3C22CDE9004308492B4608483C
:1004600000F09EFC00F08CFD204603B030BD00BFC4
:10047000C8280000D1030000BC000010D7280000ED
:100480009D03000001F04EBE10B51C2000F09EF848
:10049000044620B1002340F8043B00F0B0F82046A9
:1004A00010BDFFFF2DE9F84306460D469846174656
:1004B000DDF8209000F09AFD346804EA0503B8F1F5
:1004C000000F14D1ABB9B9F1000F18D0002F0CBF39
:1004D00000214FF08071B8F1000F01D041F0806130
:1004E0004A462943301D00F047FF002407E09D42A3
:1004F000E9D13FB34FF0000924EA0503336000F06F
:1005000009FEB9F1000F1AD038B94FF08052124BE2
:100510001A60BFF34F8FBFF36F8F01F03DF8830177
:1005200004460AD400F0E6F8346805EA0403B8F19A
:10053000000F09D153B900F0F1F824F07F442046B0
:10054000BDE8F883B946DAE79D42F4D1002FF2D036
:1005500024EA05053560EEE704ED00E02DE9F04101
:1005600004460D4600F10C0600F040FD23682069AA
:100570002B4300252360B042216807D121EA050101
:10058000216000F0C7FD2068BDE8F081D0E90028B7
:1005900022F07F4312F0806F03EA010702D11FB9F6
:1005A0004046E8E7BB42FBD1D20141F0007148BFB1
:1005B0001D4300F043FFF3E7FFF7D0BF13460A46A1
:1005C0000146014801F08EB9B905000010B5044696
:1005D00000F00CFD204602F05FF8044600F09AFDA2
:1005E000204610BD10B5044640B100F0FFFC204687
:1005F00002F05AF8BDE8104000F08CBD10BD4FF07D
:10060000FF3200F10803C0E90223436003610023C5
:100610000360704700230361704743689A684B602A
:100620008A609A68516099600368086101330360C9
:10063000704730B50C68631C0AD103695A684A6078
:1006400091608B605960036808610133036030BDBD
:1006500000F10802134652681568A542FAD9EDE781
:100660000369D0E901128A6051605968814208BF6C
:100670005A60002202611A68013A1A6018687047CD
:10068000002382B001934FF0280383F31188BFF356
:100690006F8FBFF34F8F019B002BFCD002B07047D0
:1006A0000B4A13681868203080F30988022080F311
:1006B0001488BFF36F8F3FBCAE4608BC04BC62B663
:1006C000184700BFAFF30080AFF30080AFF30080A6
:1006D000C00000104FF0807340E90213034B40F854
:1006E000202C40F80C3C4038704700BF81060000C9
:1006F0007047FFFF4FF0280383F31188BFF36F8F1C
:10070000BFF34F8F044A136801331360BFF34F8F59
:10071000BFF36F8F704700BF40000010034A13689B
:10072000013B13600BB983F3118870474000001040
:10073000EFF309800E4B1A6820381060F0C0444671
:100740004D4656465F46F0C008B572B600F066FDED
:1007500062B60CBC116808681030F0C8A046A94603
:10076000B246BB4680F309882038F0C8184700BF5E
:10077000C000001010B5EFF311844FF0280383F38D
:100780001188BFF36F8FBFF34F8F00F03DFC18B19E
:100790004FF08052024B1A6084F3118810BD00BFE5
:1007A00004ED00E00022054B05491A600A6041F69D
:1007B000FF01044A116007221A60704710E000E050
:1007C00018E000E014E000E010B500240A4B1A68BD
:1007D00042F47F021A601A6842F07F421A60FFF703
:1007E000E1FF064B1C60FFF75BFF00F017FDFFF712
:1007F00047FF204610BD00BF20ED00E04000001084
:1008000010B50446FFF776FFA46BFFF787FFB4FA35
:1008100084F0400910BDF8B51546026C0446866B9D
:1008200052B9076847BB806800F07EFE0546A760A6
:1008300001362846A663F8BD65B9406801F03CFF63
:100840006368226C1344A26863609342F0D3236808
:100850006360EDE7C06801F02FFF226CE36851424E
:100860009B1A2268E36093423EBFA3685B18E36073
:10087000022D01D116B1013E0025D9E73546D7E753
:1008800003461A6C084610B462B1DC6899681444D7
:100890008C4228BF1968DC6028BFD960D96810BCB9
:1008A00001F00ABF10BC704770B50446FFF722FF85
:1008B00094F8455004F124066DB2002D14DCFF239A
:1008C00084F84530FFF72AFFFFF714FF94F84450EF
:1008D00004F110066DB2002D12DCFF2384F84430C1
:1008E000BDE87040FFF71ABF636A002BE7D03046BF
:1008F00000F06CFD08B100F001FE013D6DB2DCE7D7
:100900002369002BE9D0304600F060FD08B100F00B
:10091000F5FD013D6DB2DEE738B504460D46FFF743
:10092000E9FED4E90F314B432268D0185B1A134417
:10093000A060E3600020FF23A063626084F844307D
:1009400084F8453095B9236963B104F1100000F0D3
:100950003DFD38B14FF08052094B1A60BFF34F8F05
:10096000BFF36F8FFFF7DAFE012038BD04F11000EE
:10097000FFF745FE04F12400FFF741FEF2E700BF58
:1009800004ED00E0F8B50646484350300D461746E2
:10099000FFF71CFE044658B165B100F15003012178
:1009A0002046C4E90F652360FFF7B6FF84F84C705A
:1009B0002046F8BD0346F2E72DE9FF474FF0000857
:1009C00004460F461E46C146DFF8ECA00192FFF731
:1009D00091FEA26BE36B9A4201D3022E19D13246EB
:1009E00039462046FFF717FF636A1BB104F1240064
:1009F00000F0ECFC38B14FF080522F4B1A60BFF37F
:100A00004F8FBFF36F8FFFF789FE012004B0BDE861
:100A1000F087019D1DB9FFF781FE0020F6E7B8F1D0
:100A2000000F02D102A800F035FDFFF777FE00F0BD
:100A3000DDFAFFF75FFE94F84430FF2B08BF84F81F
:100A4000449094F84530FF2B08BF84F84590FFF799
:100A500065FE01A902A800F029FD30BBFFF74AFEA0
:100A6000A26BE36B9A420FD1FFF758FE019904F194
:100A7000100000F071FC2046FFF716FF00F04AFB63
:100A800050B14FF00108A2E7FFF748FE2046FFF7FC
:100A90000BFF00F03FFBF4E74FF08053CAF8003043
:100AA000BFF34F8FBFF36F8FEBE72046FFF7FCFEDE
:100AB00000F030FBB1E700BF04ED00E0F8B51746E9
:100AC00004461A46EFF311864FF0280383F311888A
:100AD000BFF36F8FBFF34F8F806BE36B984201D3EF
:100AE000022A1ED194F8455020466DB2A36BFFF741
:100AF00092FE6B1C10D1636A0BB9012009E004F16E
:100B0000240000F063FC0028F7D0002FF5D001206E
:100B1000386086F31188F8BD01356DB284F8455010
:100B2000EBE70020F5E7FFFF2DE9F043002704463F
:100B30000E46B84685B0DFF8DC900192FFF7DAFD8B
:100B4000A56BD5B131462046013DFFF799FEA5635F
:100B5000236963B104F1100000F038FC38B14FF0A4
:100B600080522C4B1A60BFF34F8FBFF36F8FFFF78C
:100B7000D5FD012005B0BDE8F083019D1DB9FFF74B
:100B8000CDFD0020F6E717B902A800F083FCFFF7BF
:100B9000C5FD00F02BFAFFF7ADFD94F84430FF2BB4
:100BA00008BF84F8448094F84530FF2B08BF84F8D0
:100BB0004580FFF7B3FD01A902A800F077FCF0B96A
:100BC0002046FFF71DFEA0B1019904F1240000F0BA
:100BD000C3FB2046FFF768FE00F09CFA38B94FF0DF
:100BE0008053C9F80030BFF34F8FBFF36F8F0127D9
:100BF000A4E72046FFF758FE00F08CFAF7E72046FE
:100C0000FFF752FE00F086FA2046FFF7F9FD0028B4
:100C1000EDD0B6E704ED00E0002330B5064A52F807
:100C2000335002EBC3041DB942F83310606030BD8D
:100C300001330A2BF3D1FAE78004001070B50446A3
:100C40000D461646FFF756FD94F84430FF2B04BFBF
:100C5000002384F8443094F84530FF2B04BF002370
:100C600084F84530FFF75AFDA36B2BB9324629466D
:100C700004F1240000F094FB2046BDE87040FFF72B
:100C800013BEFFFF064A13681968064B19B94FF0E7
:100C9000FF321A6070471268D268D2685268F8E76B
:100CA000C400001074010010F8B51B4B1B4F1C68EA
:100CB000054638680E460430FFF7D2FC3B4640B983
:100CC00039681748CF6A01210268B94022EA010257
:100CD00002606A1C07D136B1196812480431BDE8B8
:100CE000F840FFF79ABC1A686419546007D30E4A9B
:100CF00010681968BDE8F8400431FFF79ABC0B4A48
:100D0000106819680431FFF794FC094B1A68A24275
:100D100088BF1C60F8BD00BFC0010010C0000010FB
:100D20004401001098010010C8000010C400001019
:100D30007401001080B5DFF86480144F144C154E18
:100D4000236863B9144B1B68012BF8D94FF080530B
:100D5000C8F80030BFF34F8FBFF36F8FEEE7FFF798
:100D6000C9FCFB68DD68281DFFF77AFC3368013B8E
:100D700033602368013B2360FFF7D0FC286BFFF74B
:100D800031FC2846FFF72EFCDAE700BFAC0100106B
:100D90003801001034010010CC00001004ED00E018
:100DA0002DE9F84F4FEA820A064650460D461F4687
:100DB000DDF82C90FFF70AFC8046D0B16820FFF7E1
:100DC00005FC044690B15246C0F83080A52140464B
:100DD00001F080FC236BAAF1040A9A442AF0070A66
:100DE000C4F848A045B984F8345014E04046FFF7F1
:100DF000F9FB4FF0FF3591E06B1E04F1340213351F
:100E000013F8011F02F8011B197809B1AB42F7D1A1
:100E1000002384F847300A9D4FF0000B042D28BFB3
:100E2000042504F104084046E5626565C4F858B03D
:100E3000FFF7F0FBC5F1050504F11800FFF7EAFB29
:100E4000C4F860B03A46314650462461A5616462F8
:100E5000C4F85CB084F864B0FFF73CFC2060B9F1E2
:100E6000000F01D0C9F80040FFF744FC324B334E6D
:100E70001A68334F01321A603268002A51D1346047
:100E80001B68012B25D12F48FFF7B9FB2E48FFF730
:100E9000B6FB2E48FFF7B3FBDFF8E0902C48FFF7D6
:100EA000AEFB2C4D2C48FFF7AAFB4846FFF7A7FBEB
:100EB0002846FFF7A4FB2948FFF7A1FB2848FFF7C6
:100EC0009EFB2848FFF79BFB274BC3F80090274B5E
:100ED0001D600125264A27491368086801331360FD
:100EE000E26AE36405FA02F3034314200B60154B36
:100EF000414600FB0230FFF790FBFFF70FFC3B6819
:100F000063B13368DA6AE36A9A4207D24FF08052DB
:100F1000194B1A60BFF34F8FBFF36F8F2846BDE8A0
:100F2000F88F3B68002BD4D13368E26ADB6A9A42BF
:100F300028BF3460CDE700BF34010010C0000010AE
:100F400094010010CC000010E0000010F40000102C
:100F5000080100105C0100101C010010800100104D
:100F6000AC01001098010010C4000010C80000106F
:100F7000400100104401001004ED00E048010010A1
:100F800013B50024134B322201931349234613480F
:100F90000094FFF705FF01281AD100F053FB012848
:100FA00016D14FF0280383F31188BFF36F8FBFF37F
:100FB0004F8F4FF0FF320A4B1A600A4B18600A4BF2
:100FC0001C60FFF7D9F902B0BDE81040FFF7FCBB89
:100FD00002B010BD70010010EB280000350D0000BC
:100FE0007401001094010010C0010010024A13683F
:100FF00001331360704700BF3C010010014B1868BB
:10100000704700BFC00100102DE9F84F364B1B6838
:10101000002B62D1354B1D6801351D605DB9344A26
:10102000344B116818681060334A19601368013333
:101030001360FFF727FE314E00243368304F9D4286
:1010400010D2304B1B68DA6A14235343FB58022B2F
:101050002D4B28BF01241B68002B18BF01242046FC
:10106000BDE8F88FDFF888A0DFF8A490DAF8003048
:101070001B681BB94FF0FF333360E2E7DAF800304A
:10108000DB68D3F80CB0DBF80420954201D2326063
:10109000D7E70BF104084046FFF7E2FADBF8282017
:1010A0001AB10BF11800FFF7DBFA0122DBF82C0074
:1010B000D9F8003082401A43C9F800201422414672
:1010C00002FB0070FFF7A9FA0E4BDBF82C20196821
:1010D000CB6A9A4228BF0124C8E70C4A002413684F
:1010E00001331360BBE700BF3C010010C0010010DA
:1010F000C4000010C8000010780100107401001036
:10110000CC000010C0000010C40100107C010010D1
:10111000440100102DE9F843FFF7ECFA2A4B1A6856
:10112000013A1A601C682CB10024FFF7F7FA204638
:10113000BDE8F883254B1B68002BF5D0244D254EC8
:10114000DFF8A4801FE0EB680127DC6804F10409E4
:1011500004F11800FFF784FA4846FFF781FA1420DB
:10116000E26A316807FA02F30B4300FB028049464A
:101170003360FFF752FA184BE26A1B68DB6A9A4247
:1011800001D3164B1F602B68002BDCD10CB1FFF78D
:1011900079FD134D2C6844B10127104EFFF734FF41
:1011A00000B13760013CF9D12C600C4B1B68002B5F
:1011B000BAD04FF080520B4B1A60BFF34F8FBFF382
:1011C0006F8F0124B1E700BF3C0100103401001013
:1011D0008001001044010010C0000010C401001084
:1011E0007C01001004ED00E0CC00001008B540B90F
:1011F0004FF08052084B1A60BFF34F8FBFF36F8FD1
:1012000008BDFFF7F3FE0021FFF74EFDFFF782FF59
:101210000028EDD0F4E700BF04ED00E0184B70B5F6
:101220001A68184B12B101221A6070BD1A60164B71
:10123000164A996815681648A94204D90468E36DEE
:101240005B1B0B44E365134B11601B68B3FA83F31C
:101250001424DBB2C3F11F0304FB03F20E498D1803
:101260006E68083276680A44964204FB031308BF8E
:1012700072686E6008BF6A605B68DB680360D4E711
:101280003C010010C401001000400140300100107A
:10129000C000001044010010CC000010F8B5044656
:1012A000264EFFF727FA04B93468251D2846FFF7B4
:1012B000D7F960B91420E76A214B78431B5833B93A
:1012C00001222049BA400B6823EA02030B60A36A9B
:1012D0001BB104F11800FFF7C3F929461A48FFF7BC
:1012E0009CF994F86430194D012B04BF002384F855
:1012F0006430FFF713FA2A682AB1FFF7FBF9FFF70A
:10130000C1FCFFF70BFA3368A34209D12B6843B144
:101310004FF080520E4B1A60BFF34F8FBFF36F8FA9
:10132000F8BD094A11680B4A1268914201D1336035
:10133000F6E7BDE8F840FFF771BF00BFC00000103E
:10134000CC0000104401001098010010940100101E
:1013500004ED00E03401001010B50C46054B19688F
:101360001831FFF766F92046BDE810400121FFF76C
:101370009BBC00BFC000001010B51446074B41F0E5
:1013800000411A68916119681831FFF746F9204643
:10139000BDE810400121FFF787BC00BFC00000106E
:1013A00038B514460D46084B19681831FFF735F962
:1013B000002C214608BF2846BDE8384018BF4FF032
:1013C000FF30FFF771BC00BFC000001038B5C36824
:1013D000DC6804F118052846FFF742F9114B1B6839
:1013E000E3B9251D2846FFF73BF901230E49E26AC0
:1013F00008689340034314200B6029460B4B00FB05
:101400000230FFF70AF90A4BE26A1B68DB6A9A426C
:1014100085BF0120074B0020186038BD29460648CB
:10142000EFE700BF3C01001044010010CC000010A9
:10143000C0000010C40100108001001070B501252B
:10144000C46841F000410160261DFFF709F93046EC
:10145000FFF706F90B49E26A086805FA02F303434D
:1014600014200B60084B314600FB0230FFF7D5F823
:10147000064BE26A1B68DB6A9A4284BF044B1D601C
:1014800070BD00BF44010010CC000010C00000106F
:10149000C4010010034B1B680360034B1B684360CF
:1014A000704700BF78010010C001001070B50C46F5
:1014B0000546FFF71FF90F4B196823685A1C10D017
:1014C0000D482E6800686A68864201D08A420FD9AA
:1014D000881A83420AD95B1A134428462360FFF70F
:1014E000D9FF0024FFF71AF9204670BD00232360BE
:1014F0000124F7E7C0010010780100100122014B20
:101500001A607047C4010010054B1B6833B1054BCE
:101510001B68002B0CBF0220002070470120704781
:10152000940100103C010010F8B5044608B90020F1
:10153000F8BD836DC16A426D013B91428365F6D06F
:10154000002BF4D1061D3046FFF78AF8104F114AE0
:1015500050B91421E06A41437B582BB90125136827
:10156000854023EA05031360636D1420C3F1050170
:10157000A161E3620124116804FA03F500FB037022
:101580000D4331461560FFF748F82046D0E700BF0D
:10159000CC00001044010010044B1A6819689069CF
:1015A0001A68CB6AC3F1050393617047C00000104D
:1015B000F8B50F4CFFF79EF82568ADB90D4F0E4EEC
:1015C0003846FFF71CF83046FFF719F80B4B2A4650
:1015D0001F600B4B102105201E60FFF7D3F9206020
:1015E00010B10849FFF718FBBDE8F840FFF796B8BF
:1015F000FC010010D0010010E4010010C80100102F
:10160000CC010010F0280000914208B54160006153
:101610000AD8D21A83699A420DD2084B011D186864
:10162000FFF707F8002008BD9A4201D2994202D282
:10163000034B011DF3E70120F5E700BFCC010010CB
:10164000C801001007B5FFF7B3FF084B186848B191
:10165000074B6422019304230649009306480023A4
:10166000FFF79EFB03B05DF804FB00BFFC01001018
:1016700000020010F52800002D1700007FB50F4C68
:101680000546206816461A4680B10529CDE90016A0
:1016900002950DDCFFF738FF0023022818BF1A4619
:1016A000694608BF089A2068FFF786F904B070BD44
:1016B00000236946FFF702FAF8E700BFFC010010BB
:1016C0002DE9F3414FF00008164D2B681A6832B926
:1016D000154A11681360296002B0BDE8F081DB682B
:1016E000DC681E68271D3846FEF7BAFF236A2046CD
:1016F000984794F828305B07E7D5A36933449E42A6
:1017000006D23946286863602461FEF792FFDCE761
:101710000023324619462046CDF80080FFF7AEFF81
:10172000D3E700BFC8010010CC0100102DE9F04F35
:10173000674E87B0B1463368D3F800B0BBF1000FF5
:1017400028D00024DB68D3F800B0FFF74FFCFFF788
:1017500055FC604D82462B68A84698425E4F1BD3CD
:10176000286014B35D4B1B681C68B4FA84F46409E8
:1017700022463868ABEB0A01FFF760FAFFF7CAFCB4
:1017800080B94FF08053564A1360BFF34F8FBFF3B9
:101790006F8F07E00124D8E7FFF792FFC5F800A09C
:1017A000FFF7B8FC4FF0000B2CE08345E0D8FFF7C3
:1017B000B1FCD9F80030DB68DD68281DFEF750FF6A
:1017C00095F82830580712D5A9695B465246284635
:1017D0005944FFF719FF30B123465A46214628469F
:1017E0000094FFF74BFF28462B6A9847DAE723F06F
:1017F000010385F82830F6E7039B05999847029B7B
:10180000002B0ADA0022386802A9FFF78DF90028B8
:1018100091D0029B0498002BEEDB049C6369A3B972
:10182000FFF7ECFBD8F800300546984201D2FFF7ED
:1018300047FF029BC8F80050092BE3D8DFE803F00C
:101840000909092A314009092A31201DFEF708FF3C
:10185000E6E794F82830A16943F0010384F82830C2
:10186000039B2A4620461944FFF7CEFE0028C9D024
:10187000236A2046984794F828305907C2D5002398
:10188000A269039920460A44CDF800B01946FFF733
:10189000F5FEB7E794F8283023F0010384F82830E8
:1018A000B0E794F82830039943F0010384F8283016
:1018B000A1612B462A4620462944FFF7A5FEA1E751
:1018C00094F828309A07E7D42046FEF78BFE99E774
:1018D000C8010010F8010010FC010010CC0100103C
:1018E00004ED00E01FB514461A466FF00103CDE980
:1018F00000300548CDE90214002369460068FFF76F
:10190000DDF804B010BD00BFFC01001038B504467E
:101910000D460A4600230146074800F01FFD01233B
:1019200021462A464FF0A04000F0B2FC002364019B
:1019300004F1A044635538BD004004400123400138
:1019400000F1A040435470470023400100F1A04043
:101950004354704780B586B000AFF860B9607A60D4
:1019600002210020FFF7EAFF0FE0FB7C1946F86830
:1019700000F025F800BF00E000BFF86800F021F893
:10198000034603F02603002BF6D007F11303194694
:10199000B86800F04FFD0346002BE6D100237B61C1
:1019A00002E07B6901337B617B69632BF9DD0221F6
:1019B0000020FFF7C9FF00BF1837BD4680BD01609A
:1019C000704740697047FFFF70B54FF40016154C23
:1019D000154D02210020FFF799FF2046C5F88060D1
:1019E00000F0F8FD1149204600F00AFE0323E360F1
:1019F0008023012223630E494FF480730D4800F0C9
:101A0000B3FC8723A360636843F0050363606368E6
:101A100023F002036360C023C5F8806185F81533A5
:101A200070BD00BF0080004000E100E080841E0027
:101A3000640500106806001037B5802301220F49A5
:101A40000F4800F091FCFFF7BFFF00225D2102204C
:101A5000FEF798FF0B4C0C4D21462860FFF7DCF891
:101A60000323002204F11201CDE900320748782255
:101A70002B68FFF795F903B030BD00BFE4040010F8
:101A8000D0040010FD28000064060010311B000087
:101A900013B500241F48019400F024FD0A28D8BF84
:101AA0001D4B1E4A1B491E48D8BF1C7000F0C0FDCC
:101AB000184800F017FD0A281BDD174C2378C3B91E
:101AC000184B0421186801AAFEF778FD0123237042
:101AD000019B3BB14FF08052134B1A60BFF34F8F05
:101AE000BFF36F8F4FF40012104BC3F8802102B088
:101AF00010BD084800F0F6FC7F28E9DD4FF0A04358
:101B0000012283F82F20074B0421186801AAFEF751
:101B100055FDDDE76806001061020010D0040010DA
:101B2000008000407C06001004ED00E000E100E0D1
:101B3000064608B53220FFF759FB124D124C05F14D
:101B400001084FF0FF3230460E49FEF7EDFF012845
:101B5000F7D1414620462A7800F028FC95F85C3001
:101B6000012B05D121462A780848FFF7F3FEE8E764
:101B7000204600F0B7FC06490246204600F072FC01
:101B8000DFE700BF04020010D00400100080004016
:101B90006202001008B5FEF777FC014B186008BD23
:101BA0007C06001090B587B000AF78607B68FB6062
:101BB000FB68002B01D100235CE10023FB720023B2
:101BC000FB8200237B750023BB7207F10B031946D0
:101BD000F86800F02FFC9B4B00221A7020E007F100
:101BE0000B031946F86800F025FC0346002B10D0C3
:101BF000944B1B780133DAB2924B1A70914B1B78DD
:101C0000052B0DD9904B1B6801338F4A13600023BD
:101C100030E18D4B1B6801338B4A1360002329E1AF
:101C2000FB7A7E2BDBD103228849F86800F01AFC8E
:101C3000864B1B781AB2864B1A80854BB3F900305D
:101C40001B021AB2824B1A80804B5B789AB2804B8F
:101C5000B3F900309BB213449BB21AB27C4B1A808A
:101C60007B4BB3F900305B2B06DD774B1B680133F0
:101C7000754A13600023FDE0744B9B789AB2FB8A8F
:101C800013449BB2FB82714B9B78892B0BD10322AF
:101C90006E49F86800F0E6FB6B4B1B6801336A4A3B
:101CA00013600023E6E0674B00221A7013E0654BD7
:101CB0001B780133DAB2634B1A70624B1B78052B29
:101CC00006D9614B1B6801335F4A13600023D1E0E2
:101CD0000120FFF78BFAF86800F004FC02465C4B29
:101CE000B3F90030013B9A42E1DB06225749F8681C
:101CF00000F0B8FB00233B610BE0544A3B691344FE
:101D00001B789AB2FB8A13449BB2FB823B69013376
:101D10003B613B69032BF0DD4C4B1A794D4B1A703C
:101D20004C4B1B789AB2FB8A13449BB2FB82474B05
:101D30005B795AB2474B5A70464B93F90130DBB28C
:101D40009AB2FB8A13449BB2FB82414BB3F9003039
:101D5000DBB2073BDAB23F4B9A703E4B9B78502B7D
:101D600000F28280374B00221A7013E0354B1B784B
:101D70000133DAB2334B1A70324B1B78052B06D97C
:101D8000314B1B680133304A1360002372E001209D
:101D9000FFF72CFA2F4B9B781C46F86800F0A2FB4B
:101DA00003469C42E2DA2B4B9B781A462A49F86894
:101DB00000F058FB00237B750BE07B7D254A134424
:101DC000DB789AB2FB8A13449BB2FB827B7D0133A2
:101DD0007B75204B9B787A7D9A42EED307F10A03FC
:101DE0001946F86800F026FBFB8ADBB2FB82FB8A0F
:101DF000DBB2DB43DBB2FB82B7F91630BA7A93422F
:101E000018D1164B1B78002B0BD0154B1B68002BE1
:101E100007D0134B1B681846FFF740FA0F4B002200
:101E20001A70104B1B6801330E4A1360094800F00A
:101E300027F81EE0044B1B680133034A136000239C
:101E400018E000BFE2020010E8020010DD060010FA
:101E5000E4020010F0020010F30200104400001031
:101E6000BC000010EC020010044B1B680133034A55
:101E70001360002318461C37BD4690BDE8020010D1
:101E800008B590F901104B1C0ED04FF0A0431A7A00
:101E90005B7A003A18BF0122003B18BF012343EAD6
:101EA00042030533994203D100F0AEF8012008BD8A
:101EB0000020FCE72DE977413220FFF797F94FF436
:101EC000001200244FF0FF360C4B0D4DDFF834802C
:101ED0001A60002301220C2128680096FEF7E2FA1E
:101EE00010F0040F18BF4446204600F0FBFA00280B
:101EF000EFD02046FFF756FEF6E700BF00E100E016
:101F00007C06001068060010024B03211868FEF7DB
:101F100025BB00BF7C06001007B5FFF7F5FF0023C7
:101F200002220549CDE900230448F022FEF738FFDC
:101F300003B05DF804FB00BF20290000B51E0000BF
:101F40007E2230B51C4B03305A7010F8014C04F15E
:101F50000B021A70E21DDA701112012299701A71C7
:101F60005A71B0F85120110ADA71002299711A726F
:101F700010F8031C597210F8021C997203F10B013E
:101F8000D5B2AC420AD80022032104F109008842EC
:101F90000ADAD2430B445A70074830BD10F8015B8F
:101FA000013201F8015BEBE75C18647801312244EF
:101FB00012B2C9B2EBE700BF8006001010B50C46A4
:101FC000FFF7BEFF0648074900234FF4FA72006886
:101FD00081F85C40FEF7F0FC003818BF012010BD0E
:101FE00064060010800600104FF6F16201460548B5
:101FF0000280002282704FF6FF72A0F85420FFF793
:10200000DDBF00BF3807001008B5074A1368013369
:1020100013600378F02B06D1FEF730F9BDE80840D5
:102020000120FFF7E1BF08BD4803001080B500AFF5
:102030000123072200214FF0A04000F029F900BF42
:1020400080BD80B500AF4FF0A04000F017F9FFF75A
:10205000EDFF00BF80BDFFFF80B483B000AF03463B
:10206000FB71044AFB79136000BF0C37BD4680BC8E
:10207000704700BF0080044080B483B000AF0346C7
:10208000FB71084BD3F88030FA79012101FA02F292
:102090001146044A0B43C2F8803000BF0C37BD46DE
:1020A00080BC70470080044080B586B000AFF86007
:1020B000B9607A6000237B6115E07B699B00BA6898
:1020C000134419787B699B00BA68134458787B697C
:1020D0009B00BA6813445B880246F86800F03EF93A
:1020E0007B6901337B617A697B689A42E5D300BFE3
:1020F00000BF1837BD4680BD80B500AF1020FFF788
:10210000BBFF0C2202490348FFF7CEFF00BF80BD92
:10211000382900000040044080B500AF00F004FA08
:1021200000BF80BD80B500AF0220FFF795FFFFF72D
:10213000E3FFFFF7F1FF00BF80BDFFFF08B500F030
:1021400051F8014B186008BD90070010014B18644E
:10215000704700BF00800440014B1867704700BF04
:10216000008004401B4A136F03F00303022B05D0C9
:10217000032B18D0012B0ED017487047526A17490D
:1021800002F01F03C2F3431251F8220001335B0037
:10219000B0FBF3F07047136C13F00303ECD0012B8A
:1021A0000FD0002070479168136C13F003030BD01D
:1021B000012BF6D10A4B01F01F01186801FB00004A
:1021C0007047074B18687047034801F01F0101FB77
:1021D0000000704700800440001BB7006829000021
:1021E00034290000214A136F03F00303022B09D0A6
:1021F000032B24D0012B16D01D4B1C4A906FB3FB30
:10220000F0F07047536A1B4A03F01F00C3F34313F7
:1022100052F8233001304000B3FBF0F3134A906FC3
:10222000B3FBF0F07047136C13F00303E4D0012B01
:1022300013D000230D4A906FB3FBF0F07047906805
:10224000126C12F003020BD0012AF2D10A4B00F0FB
:102250001F001B6800FB0333CFE7074B1B68CCE76D
:10226000034B00F01F0000FB0333C6E7008004406F
:10227000001BB7006829000034290000034AD2F887
:10228000803043F04003C2F8803070470080044043
:1022900053B1012300EB810000F50050016803FAFF
:1022A00002F20A430260704710B4012400EB81007F
:1022B00000F50050036804FA02F223EA020210BC9F
:1022C0000260704700B58BB03223059306900791EA
:1022D00001A905A8034B98479DF804000BB05DF8D1
:1022E00004FB00BFF11FFF1F00B58BB03323059324
:1022F000069007910892084B1B68084AA2FB03232B
:102300009B09099301A905A8054B98479DF804006E
:102310000BB05DF804FB00BF90070010D34D6210B6
:10232000F11FFF1F00B58BB0342305930690079172
:10233000074B1B68074AA2FB03239B09089301A9CB
:1023400005A8054B98479DF804000BB05DF804FB09
:1023500090070010D34D6210F11FFF1F01B118321A
:1023600040F82230704700BF10B40024C0E90132A9
:10237000C0E90344016010BC0120704738B5044631
:10238000C26800696368121A9A4201DB002038BDF6
:102390002068A268013BE5682B4002FB030000F0C7
:1023A0008BF9E3680133E360012038BD2DE9F0418A
:1023B00004468846C16800696668091AB14236DA7F
:1023C000E76825697F1BF71B06F1FF3CE0680CEA14
:1023D000000C07EB0C01B1422CBFA6EB0C063E46ED
:1023E0002368BF1B9642A8BF1646951BBD42A8BFD7
:1023F0003D46A06806FB00F241460CFB003000F0B1
:102400005BF9E368F218E260A7686368013B134078
:10241000206805FB07F206FB078107FB030000F0BD
:102420004BF9E3682B44E3607019BDE8F0810020AC
:10243000BDE8F08138B50446C26803699A420FD0FE
:1024400008462168A2686368013B25692B4002FBAE
:10245000031100F031F9236901332361012038BDF4
:10246000002038BDF8B50F46C1680369994236D0DF
:102470000446C6680569761B456805F1FF3C01699D
:102480000CEA010C0CEB0603AB422CBFA5EB0C05D0
:1024900035460368761B9542A8BF1546501B8642F9
:1024A000A8BF0646A16805FB01F20CFB01313846C6
:1024B00000F002F92369E9182161A0686368013B13
:1024C0000B40216806FB00F200FB031105FB0070C6
:1024D00000F0F2F8236933442361A819F8BD002005
:1024E000F8BD00BFC2680069101A704740F2FF5182
:1024F000044AD2F8383203430B4043F46843C2F82D
:10250000383270470080044040F2FF51054A0840CD
:10251000D2F8383223EA00030B4043F46843C2F890
:10252000383270470080044010B5202082B0FFF799
:10253000EBFF00230193019BB3F5007F06DA019BBB
:1025400001330193019BB3F5007FF8DB0120FFF716
:10255000FDFD8020FFF7CAFF43230C4C8020A360C1
:10256000FFF7D2FF2246D368DB07FCD50123032007
:10257000074993670B6923F0030343F002030B61E0
:1025800002B0BDE81040FFF7E7BD00BF0080044087
:1025900000C003400D4B984214D0A3F5404398422D
:1025A0000ED003F5804398420CBF4FF480704FF477
:1025B0000070074AD2F880301843C2F88000704794
:1025C0008020F6E74FF48060F3E700BF0080014011
:1025D0000080044070B41021012607250324074B16
:1025E000D3F8802042F48052C3F88020C3F898606A
:1025F0008560C460816270BC704700BF0080044089
:1026000038B50C460546FFF7ADFD2101B0FBF1F1F1
:10261000EB68CCB243F08003C1F30722EB602C607F
:102620006A60EB68B0FBF1F023F08003EB6038BD2B
:10263000F0B5436804469D070E4683B010D4636925
:10264000DA070BD50DF107052368294630468DF8CA
:102650000730FFF793FE6369DB07F5D403B0F0BDE5
:102660004369174698060ED50DF1070505E09DF85C
:10267000073023606369990605D529463846FFF778
:10268000D9FE0028F3D1FA683B699A42D7D1636832
:1026900023F002036360D2E7024B0146186800F0A2
:1026A0006DB800BF48000010024B0146186800F0EA
:1026B00019B800BF480000100A44914200F1FF33EE
:1026C00000D1704710B511F8014B914203F8014F4A
:1026D000F9D110BD03460244934200D1704703F87C
:1026E000011BF9E738B50546002943D051F8043CF1
:1026F0000C1F002BB8BFE41800F0AAF81E4A13689C
:10270000104633B9636014602846BDE8384000F0D5
:10271000A5B8A3420AD921686218934201BF1A687A
:102720005B685218226063600460EDE71A465B68DC
:102730000BB1A342FAD911685018A0420BD12068FE
:102740000144501883421160DED118685B6801446F
:1027500011605360D8E702D90C232B60D4E72068BE
:1027600021188B4201BF19685B68091821606360FA
:102770005460C9E738BD00BF4C030010F8B5CD1C4C
:1027800025F0030508350C2D38BF0C25002D064615
:1027900001DBA94203D90C2333600020F8BD00F00F
:1027A00057F821490A6814469CB9204F3B6823B961
:1027B0002146304600F03CF838602946304600F0AB
:1027C00037F8431C23D10C233046336000F046F821
:1027D000E3E723685B1B17D40B2B03D923601C444E
:1027E000256004E06368A2420CBF0B605360304672
:1027F00000F034F804F10B00231D20F00700C21A8A
:10280000CCD01B1AA350C9E722466468CCE7C41C8D
:1028100024F00304A042E3D0211A304600F008F867
:102820000130DDD1CFE700BF4C0300105003001092
:1028300038B50023054D044608462B6000F016F815
:10284000431C02D12B6803B1236038BD94070010EC
:10285000014800F009B800BF9C070010014800F0D3
:1028600004B800BF9C0700107047704770B50C4D4E
:102870002B680BB90B4B2B60C41C2E6824F003048F
:102880003444204600F010F810B92C60304670BD7A
:1028900000F014F80C234FF0FF360360F6E700BF9A
:1028A00054030010A40700100346034818B18342E4
:1028B00034BF00200120704700000000014B186861
:1028C000704700BF48000010765461736B5F486129
:1028D00072744265617400765461736B5F4C756EFF
:1028E0006368557365725F4170700049444C4500E0
:1028F000546D725100546D7220537663005F315FE6
:10290000785175655F4D6573735F53656E64005FE5
:10291000305F436F6D5F53656E645F446174610047
:10292000315F436F6D5F5265636F6D706F5F52789B
:1029300000FFFFFF0024F40000018100000291006D
:10294000000381000004010200050102000681006D
:102950000008810000098100000B020100128100C3
:1029600000138100011D810000000000C027090044
:1029700090051000C05C1500F0B31A00200B200079
:10298000009F2400E0322900C0C62D00509731007E
:10299000E06735007038390000093D0040164000FE
:0829A00080234300C030460013
:1029A80000000000001000000020000000300000BF
:1029B80000400000005000000060000000700000AF
:1029C800008000000090000000A0000000B000009F
:1029D80000C0000000D0000000E0000000F000008F
:1029E800AAAAAAAA01FFFFFF4C00001000000000DD
:1029F80000000000000000000000000000000000CF
:102A080000000000000000000000000000000000BE
:102A180000000000000000000000000000000000AE
:102A2800000000000000000000000000000000009E
:102A3800000000000000000000000000000000008E
:0C2A480000000000000000000000000082
:040000030000012BCD
:00000001FF
