:10000000002000102B010000FD000000FF00000098
:1000100000000000000000000000000000000000E0
:10002000000000000000000000000000B106000019
:100030000000000000000000F1060000350700008D
:100040000701000007010000070100000701000090
:100050000701000007010000070100000701000080
:100060000701000007010000000000000000000080
:100070000701000000000000070100000701000068
:100080000701000007010000070100000701000050
:1000900007010000751A00000701000007010000B9
:1000A0000701000007010000070100000701000030
:1000B0000701000007010000070100000000000028
:1000C0006831000000000010E4000000683100000A
:1000D0000040002000000000683100000000002007
:1000E00000000000E4000010FC15000000400020AB
:1000F000000000000000002000000000FEE7FEE716
:10010000FEE7FEE7FEE7FEE7002310B5934200D3CB
:1001100010BD1C585C500433F8E700231A468B428C
:1001200000D370471A500433F9E738B50C4C0D4D25
:10013000AC4207D30C4DAC420BD300F081F900F078
:1001400055F9FEE7D4E90001A2680C34FFF7DCFFA3
:10015000EEE754F8080B54F8041CFFF7DEFFEAE75B
:10016000C0000000E4000000FC000000044B054952
:100170001A6C22F0604323F07F038B6053681847AA
:100180000000001000ED00E03522102310B50648F5
:10019000064CC0E9002383602146054B9847206840
:1001A000003818BF012010BD3403001048030010B0
:1001B000F11FFF1F2DE9F04703790446042B18D8DF
:1001C000DFE803F0033442174A00264DB0F80290EE
:1001D0002B681BB9244B1B684B442B606FF0040A3F
:1001E000224F661DAAEB040A22780AEB06039A4204
:1001F00001D8BDE8F087C9F30B0316F8012B09F10C
:100200000109C9F30B08FA54B8F1000FECD14FF40F
:1002100080523946286800F05DF84FF48052FF2183
:10022000384602F033FEC5F80080DDE70D4B4FF491
:100230008052BDE8F04718680C4920F47F6020F038
:100240000F00186000F046B84279837903EB02236F
:100250001B01054A1360CCE74279837903EB022343
:100260001B04F6E7EC000010E80000105C0300102F
:1002700030B54279837987B003EB0223ADF80230C1
:10028000C37901798DF8043000F10803C0F1FF2033
:1002900000F57F008DF800100DF10504F73013F81C
:1002A000012BC518A9420FDC4FF0A0418DF8152095
:1002B000074A6846137881F82F3083F001031370E2
:1002C000FFF778FF07B030BD04F8012BE7E700BF68
:1002D000E40000102DE9F041A0F58034E40B054660
:1002E0000E461746103472B6DFF834802146204699
:1002F00002F0C8F8D8F80030A34205D021462046C5
:1003000002F002F9C8F800402146204602F0BAF88F
:100310003A463146284602F0CFF862B6BDE8F08191
:10032000F000001008B501F02FFC01F077FB01F0A0
:1003300013FE01F09FFEBDE8084001F0ADBEFFFFD7
:1003400010B5074C204602F011FC02236360002325
:10035000636040F27F73E3600123636010BD00BF00
:100360000040014008B542F2283000F01BFF4FF476
:100370000012074B4FF47A70C3F8802000F012FF90
:10038000FFF702FF18B1BDE80840FFF7EFBE08BD58
:1003900000E100E070B50123072200214FF0A040EA
:1003A00002F027F801234FF0A045002419460F2240
:1003B0004FF0A04002F01DF80B4E01230722002150
:1003C0004FF0A04002F015F8EC7185F82F40EC7169
:1003D0003378EC7113B185F82F40EC71642084F010
:1003E000010400F0DFFEF3E77C00001037B50124C4
:1003F000002501F0F1FE01F072FEFFF793FF2B469E
:100400003222CDE900450949094800F0A9FC094B11
:100410004FF47A72CDE9004307492B46074800F0B4
:100420009FFC00F089FD204603B030BD8030000005
:1004300095030000F40000108F30000065030000F9
:1004400001F0BEBE4FF0280383F31188BFF36F8F16
:10045000BFF34F8FFEE710B5182000F095F8044663
:1004600020B1002340F8043B00F0A7F8204610BD5F
:100470002DE9F84306460D4698461746DDF82090CC
:1004800000F090FD346804EA0503B8F1000F14D1C0
:10049000ABB9B9F1000F18D0002F0CBF00214FF0FD
:1004A0008071B8F1000F01D041F080614A462943C4
:1004B000301D00F045FF002407E09D42E9D13FB325
:1004C0004FF0000924EA0503336000F0FFFDB9F1A5
:1004D000000F1AD038B94FF08052124B1A60BFF398
:1004E0004F8FBFF36F8F01F03BF8830104460AD4AE
:1004F00000F0E0F8346805EA0403B8F1000F09D110
:1005000053B900F0EBF824F07F442046BDE8F883AF
:10051000B946DAE79D42F4D1002FF2D024EA05056E
:100520003560EEE704ED00E02DE9F04104460D46AC
:1005300000F10C0600F036FD236820692B430025EE
:100540002360B042216807D121EA0501216000F053
:10055000BDFD2068BDE8F081D0E9002822F07F438E
:1005600012F0806F03EA010702D11FB94046E8E7A5
:10057000BB42FBD1D20141F0007148BF1D4300F0E6
:1005800041FFF3E7FFF7D0BF10B5044600F00AFDC6
:10059000204602F05DFC044600F098FD204610BDA8
:1005A00010B5044640B100F0FDFC204602F058FCB6
:1005B000BDE8104000F08ABD10BD4FF0FF3200F1E1
:1005C0000803C0E90223436003610023036070470E
:1005D00000230361704743689A684B608A609A6899
:1005E000516099600368086101330360704730B55A
:1005F0000C68631C0AD103695A684A6091608B6079
:100600005960036808610133036030BD00F10802DE
:10061000134652681568A542FAD9EDE70369D0E997
:1006200001128A6051605968814208BF5A600022F5
:1006300002611A68013A1A6018687047002382B094
:1006400001934FF0280383F31188BFF36F8FBFF33B
:100650004F8F019B002BFCD002B07047FFFFFFFFC4
:100660000B4A13681868203080F30988022080F351
:100670001488BFF36F8F3FBCAE4608BC04BC62B6A3
:10068000184700BFAFF30080AFF30080AFF30080E6
:10069000F80000104FF0807340E90213034B40F85C
:1006A000202C40F80C3C4038704700BF3D0600004D
:1006B0007047FFFF4FF0280383F31188BFF36F8F5C
:1006C000BFF34F8F044A136801331360BFF34F8F9A
:1006D000BFF36F8F704700BF78000010034A1368A4
:1006E000013B13600BB983F3118870477800001049
:1006F000EFF309800E4B1A6820381060F0C04446B2
:100700004D4656465F46F0C008B572B600F062FD31
:1007100062B60CBC116808681030F0C8A046A94643
:10072000B246BB4680F309882038F0C8184700BF9E
:10073000F800001010B5EFF311844FF0280383F395
:100740001188BFF36F8FBFF34F8F00F039FC18B1E2
:100750004FF08052024B1A6084F3118810BD00BF25
:1007600004ED00E00022054B05491A600A60054AC5
:100770000549116007221A60704700BF10E000E0D1
:1007800018E000E014E000E0FF76010010B500245E
:100790000A4B1A6842F47F021A601A6842F07F42DC
:1007A0001A60FFF7DFFF064B1C60FFF759FF00F0F0
:1007B00011FDFFF743FF204610BD00BF20ED00E014
:1007C0007800001010B50446FFF774FFA46BFFF724
:1007D00085FFB4FA84F0400910BDF8B51546026CE7
:1007E0000446866B52B9076847BB806800F080FEFC
:1007F0000546A76001362846A663F8BD65B940687E
:1008000002F036FB6368226C1344A2686360934273
:10081000F0D323686360EDE7C06802F029FB226C27
:10082000E36851429B1A2268E36093423EBFA3688B
:100830005B18E360022D01D116B1013E0025D9E716
:100840003546D7E703461A6C084610B462B1DC6837
:10085000996814448C4228BF1968DC6028BFD960AD
:10086000D96810BC02F004BB10BC704770B50446D8
:10087000FFF720FF94F8455004F124066DB2002DD7
:1008800014DCFF2384F84530FFF728FFFFF712FF41
:1008900094F8445004F110066DB2002D12DCFF23D1
:1008A00084F84430BDE87040FFF718BF636A002B3E
:1008B000E7D0304600F06EFD08B100F003FE013DC8
:1008C0006DB2DCE72369002BE9D0304600F062FD11
:1008D00008B100F0F7FD013D6DB2DEE738B5044622
:1008E0000D46FFF7E7FED4E90F314B432268D018DD
:1008F0005B1A1344A060E3600020FF23A0636260E2
:1009000084F8443084F8453095B9236963B104F123
:10091000100000F03FFD38B14FF08052094B1A60D3
:10092000BFF34F8FBFF36F8FFFF7D8FE012038BDA5
:1009300004F11000FFF741FE04F12400FFF73DFE33
:10094000F2E700BF04ED00E070B5064648434830CA
:100950000D46FFF719FE044648B155B100F14803B2
:1009600001212046C4E90F652360FFF7B7FF204649
:1009700070BD0346F4E7FFFF2DE9FF474FF0000885
:1009800004460F461E46C146DFF8ECA00192FFF771
:1009900091FEA26BE36B9A4201D3022E19D132462B
:1009A00039462046FFF719FF636A1BB104F12400A2
:1009B00000F0F0FC38B14FF080522F4B1A60BFF3BB
:1009C0004F8FBFF36F8FFFF789FE012004B0BDE8A2
:1009D000F087019D1DB9FFF781FE0020F6E7B8F111
:1009E000000F02D102A800F039FDFFF777FE00F0FA
:1009F000D9FAFFF75FFE94F84430FF2B08BF84F864
:100A0000449094F84530FF2B08BF84F84590FFF7D9
:100A100065FE01A902A800F02DFD30BBFFF74AFEDC
:100A2000A26BE36B9A420FD1FFF758FE019904F1D4
:100A3000100000F075FC2046FFF718FF00F046FBA1
:100A400050B14FF00108A2E7FFF748FE2046FFF73C
:100A50000DFF00F03BFBF4E74FF08053CAF8003085
:100A6000BFF34F8FBFF36F8FEBE72046FFF7FEFE1C
:100A700000F02CFBB1E700BF04ED00E0F8B517462D
:100A800004461A46EFF311864FF0280383F31188CA
:100A9000BFF36F8FBFF34F8F806BE36B984201D32F
:100AA000022A1ED194F8455020466DB2A36BFFF781
:100AB00094FE6B1C10D1636A0BB9012009E004F1AC
:100AC000240000F067FC0028F7D0002FF5D00120AB
:100AD000386086F31188F8BD01356DB284F8455051
:100AE000EBE70020F5E7FFFF2DE9F0430027044680
:100AF0000E46B84685B0DFF8DC900192FFF7DAFDCC
:100B0000A56BD5B131462046013DFFF79BFEA5639D
:100B1000236963B104F1100000F03CFC38B14FF0E0
:100B200080522C4B1A60BFF34F8FBFF36F8FFFF7CC
:100B3000D5FD012005B0BDE8F083019D1DB9FFF78B
:100B4000CDFD0020F6E717B902A800F087FCFFF7FB
:100B5000C5FD00F027FAFFF7ADFD94F84430FF2BF8
:100B600008BF84F8448094F84530FF2B08BF84F810
:100B70004580FFF7B3FD01A902A800F07BFCF0B9A6
:100B80002046FFF71FFEA0B1019904F1240000F0F8
:100B9000C7FB2046FFF76AFE00F098FA38B94FF01D
:100BA0008053C9F80030BFF34F8FBFF36F8F012719
:100BB000A4E72046FFF75AFE00F088FAF7E7204640
:100BC000FFF754FE00F082FA2046FFF7FBFD0028F5
:100BD000EDD0B6E704ED00E0002330B5064A52F848
:100BE000335002EBC3041DB942F83310606030BDCE
:100BF00001330A2BF3D1FAE75C13001070B50446F9
:100C00000D461646FFF756FD94F84430FF2B04BFFF
:100C1000002384F8443094F84530FF2B04BF0023B0
:100C200084F84530FFF75AFDA36B2BB932462946AD
:100C300004F1240000F098FB2046BDE87040FFF767
:100C400015BEFFFF064A13681968064B19B94FF025
:100C5000FF321A6070471268D268D2685268F8E7AB
:100C6000FC000010A8010010F8B51B4B1B4F1C68BE
:100C7000054638680E460430FFF7D0FC3B4640B9C5
:100C800039681748CF6A01210268B94022EA010297
:100C900002606A1C07D136B1196812480431BDE8F8
:100CA000F840FFF798BC1A686419546007D30E4ADD
:100CB00010681968BDE8F8400431FFF798BC0B4A8A
:100CC000106819680431FFF792FC094B1A68A242B8
:100CD00088BF1C60F8BD00BFF4010010F8000010D0
:100CE00078010010CC01001000010010FC00001081
:100CF000A801001080B5DFF86480144F144C154E25
:100D0000236863B9144B1B68012BF8D94FF080534B
:100D1000C8F80030BFF34F8FBFF36F8FEEE7FFF7D8
:100D2000C9FCFB68DD68281DFFF778FC3368013BD0
:100D300033602368013B2360FFF7D0FC286BFFF78B
:100D40002FFC2846FFF72CFCDAE700BFE00100107B
:100D50006C010010680100100401001004ED00E0B7
:100D60002DE9F84F4FEA820A064650460D461F46C7
:100D7000DDF82C90FFF708FC8046D0B15C20FFF72F
:100D800003FC044690B15246C0F83080A52140468D
:100D900002F07CF8236BAAF1040A9A442AF0070AAD
:100DA000C4F848A045B984F8345014E04046FFF731
:100DB000F7FB4FF0FF358EE06B1E04F13402133564
:100DC00013F8011F02F8011B197809B1AB42F7D1E2
:100DD000002384F847300A9D4FF0000B042D28BFF4
:100DE000042504F104084046E562E564C4F850B007
:100DF000FFF7EEFBC5F1050504F11800FFF7E8FB6E
:100E0000C4F854B03A46314650462461A561646244
:100E100084F858B0FFF73EFC2060B9F1000F01D014
:100E2000C9F80040FFF746FC314B324E1A68324F8A
:100E300001321A603268002A50D134601B68012BDD
:100E400025D12E48FFF7B9FB2D48FFF7B6FB2D48FB
:100E5000FFF7B3FBDFF8DC902B48FFF7AEFB2B4D21
:100E60002B48FFF7AAFB4846FFF7A7FB2846FFF7EA
:100E7000A4FB2848FFF7A1FB2748FFF79EFB274864
:100E8000FFF79BFB264BC3F80090264B1D60012506
:100E9000254A26491368086801331360E26A05FA97
:100EA00002F3034314200B60144B414600FB023055
:100EB000FFF791FBFFF712FC3B6863B13368DA6A16
:100EC000E36A9A4207D24FF08052194B1A60BFF37F
:100ED0004F8FBFF36F8F2846BDE8F88F3B68002B1C
:100EE000D5D13368E26ADB6A9A4228BF3460CEE724
:100EF00068010010F8000010C80100100401001083
:100F0000180100102C010010400100109001001089
:100F100054010010B4010010E0010010CC010010D9
:100F2000FC00001000010010740100107801001096
:100F300004ED00E07C01001013B50024134B3222B5
:100F400001931349234613480094FFF709FF012832
:100F50001AD100F05BFB012816D14FF0280383F370
:100F60001188BFF36F8FBFF34F8F4FF0FF320A4BE3
:100F70001A600A4B18600A4B1C60FFF7E1F902B0D7
:100F8000BDE81040FFF702BC02B010BDA401001084
:100F9000AB300000F50C0000A8010010C8010010E3
:100FA000F4010010024A136801331360704700BF58
:100FB00070010010014B1868704700BFF401001069
:100FC0002DE9F84F364B1B68002B62D1354B1D685D
:100FD00001351D605DB9344A344B116818681060E2
:100FE000334A1960136801331360FFF72BFE314E4B
:100FF00000243368304F9D4210D2304B1B68DA6AB0
:1010000014235343FB58022B2D4B28BF01241B688C
:10101000002B18BF01242046BDE8F88FDFF888A018
:10102000DFF8A490DAF800301B681BB94FF0FF33EB
:101030003360E2E7DAF80030DB68D3F80CB0DBF8B5
:101040000420954201D23260D7E70BF104084046F4
:10105000FFF7E4FADBF828201AB10BF11800FFF7CC
:10106000DDFA0122DBF82C00D9F8003082401A4367
:10107000C9F800201422414602FB0070FFF7ABFACA
:101080000E4BDBF82C201968CB6A9A4228BF01244A
:10109000C8E70C4A0024136801331360BBE700BFA4
:1010A00070010010F4010010FC000010000100109D
:1010B000AC010010A801001004010010F80000109D
:1010C000F8010010B0010010780100102DE9F8437C
:1010D000FFF7F0FA2A4B1A68013A1A601C682CB123
:1010E0000024FFF7FBFA2046BDE8F883254B1B6878
:1010F000002BF5D0244D254EDFF8A4801FE0EB68CF
:101100000127DC6804F1040904F11800FFF786FAEE
:101110004846FFF783FA1420E26A316807FA02F3BF
:101120000B4300FB028049463360FFF754FA184B2B
:10113000E26A1B68DB6A9A4201D3164B1F602B6878
:10114000002BDCD10CB1FFF77DFD134D2C6844B1B1
:101150000127104EFFF734FF00B13760013CF9D191
:101160002C600C4B1B68002BBAD04FF080520B4BFD
:101170001A60BFF34F8FBFF36F8F0124B1E700BF39
:101180007001001068010010B40100107801001017
:10119000F8000010F8010010B001001004ED00E0AC
:1011A0000401001008B540B94FF08052084B1A6096
:1011B000BFF34F8FBFF36F8F08BDFFF7F3FE002122
:1011C000FFF752FDFFF782FF0028EDD0F4E700BFE4
:1011D00004ED00E01E4B70B51A681E4B12B10122DF
:1011E0001A6070BD1C4C1A6023681B6B1A68B2F140
:1011F000A53F0BD15A68B2F1A53F07D19A68B2F169
:10120000A53F03D1DB68B3F1A53F04D02068216876
:101210003431FFF717F9114B1B68B3FA83F314202D
:10122000DBB2C3F11F0300FB03F20D498D186E689A
:10123000083276680A44964200FB031308BF7268BE
:101240006E6008BF6A605B68DB682360C9E700BF47
:1012500070010010F8010010F80000107801001073
:1012600004010010F8B50446264EFFF723FA04B92E
:101270003468251D2846FFF7D1F960B91420E76AC4
:10128000214B78431B5833B901222049BA400B68DF
:1012900023EA02030B60A36A1BB104F11800FFF7F5
:1012A000BDF929461A48FFF796F994F85830194DB8
:1012B000012B04BF002384F85830FFF70FFA2A6887
:1012C0002AB1FFF7F7F9FFF7BDFCFFF707FA33681C
:1012D000A34209D12B6843B14FF080520E4B1A60E4
:1012E000BFF34F8FBFF36F8FF8BD094A11680B4AE8
:1012F0001268914201D13360F6E7BDE8F840FFF78C
:1013000069BF00BFF8000010040100107801001050
:10131000CC010010C801001004ED00E068010010CD
:1013200010B50C46054B19681831FFF760F92046D7
:10133000BDE810400121FFF797BC00BFF800001086
:1013400010B51446074B41F000411A6891611968C5
:101350001831FFF740F92046BDE810400121FFF7A2
:1013600083BC00BFF800001038B514460D46084B8A
:1013700019681831FFF72FF9002C214608BF2846BD
:10138000BDE8384018BF4FF0FF30FFF76DBC00BF1D
:10139000F800001038B5C368DC6804F11805284669
:1013A000FFF73CF9114B1B68E3B9251D2846FFF7F1
:1013B00035F901230E49E26A08689340034314207B
:1013C0000B6029460B4B00FB0230FFF704F90A4B78
:1013D000E26A1B68DB6A9A4285BF0120074B002046
:1013E000186038BD29460648EFE700BF70010010BD
:1013F0007801001004010010F8000010F80100103E
:10140000B401001070B50125C46841F000410160CD
:10141000261DFFF703F93046FFF700F90B49E26A92
:10142000086805FA02F3034314200B60084B3146A9
:1014300000FB0230FFF7CFF8064BE26A1B68DB6A5D
:101440009A4284BF044B1D6070BD00BF780100103C
:1014500004010010F8000010F8010010034B1B6895
:101460000360034B1B684360704700BFAC01001072
:10147000F401001070B50C460546FFF71BF90F4B41
:10148000196823685A1C10D00D482E6800686A68D5
:10149000864201D08A420FD9881A83420AD95B1A40
:1014A000134428462360FFF7D9FF0024FFF716F9FD
:1014B000204670BD002323600124F7E7F4010010EB
:1014C000AC0100100122014B1A607047F8010010B6
:1014D000054B1B6833B1054B1B68002B0CBF02206A
:1014E0000020704701207047C801001070010010F3
:1014F000F8B5044608B90020F8BD036DC16AC26C96
:10150000013B91420365F6D0002BF4D1061D304615
:10151000FFF784F8104F114A50B91421E06A414393
:101520007B582BB901251368854023EA0503136016
:10153000E36C1420C3F10501A161E3620124116889
:1015400004FA03F500FB03700D4331461560FFF705
:1015500042F82046D0E700BF0401001078010010D7
:10156000044B1A68196890691A68CB6AC3F10503BD
:1015700093617047F8000010F8B50F4CFFF79AF828
:101580002568ADB90D4F0E4E3846FFF716F83046B8
:10159000FFF713F80B4B2A461F600B4B1021052059
:1015A0001E60FFF7D1F9206010B10849FFF714FB66
:1015B000BDE8F840FFF792B83002001004020010B6
:1015C00018020010FC01001000020010B0300000F2
:1015D000914208B5416000610AD8D21A83699A42E3
:1015E0000DD2084B011D1868FFF701F8002008BD57
:1015F0009A4201D2994202D2034B011DF3E7012026
:10160000F5E700BF00020010FC01001007B5FFF76E
:10161000B3FF084B186848B1074B642201930423B9
:101620000649009306480023FFF79AFB03B05DF8D4
:1016300004FB00BF3002001034020010B53000007F
:10164000F51600007FB50F4C0546206816461A4671
:1016500080B10529CDE9001602950DDCFFF738FFB2
:101660000023022818BF1A46694608BF089A206856
:10167000FFF782F904B070BD00236946FFF7FEF959
:10168000F8E700BF300200102DE9F3414FF00008E9
:10169000164D2B681A6832B9154A11681360296013
:1016A00002B0BDE8F081DB68DC681E68271D3846A3
:1016B000FEF7B4FF236A2046984794F824305B076E
:1016C000E7D5A36933449E4206D239462868636051
:1016D0002461FEF78CFFDCE70023324619462046E2
:1016E000CDF80080FFF7AEFFD3E700BFFC0100108C
:1016F000000200102DE9F04F674E87B0B146336805
:10170000D3F800B0BBF1000F28D00024DB68D3F879
:1017100000B0FFF747FCFFF74DFC604D82462B6899
:10172000A84698425E4F1BD3286014B35D4B1B68DC
:101730001C68B4FA84F4640922463868ABEB0A01E9
:10174000FFF75CFAFFF7C2FC80B94FF08053564AAE
:101750001360BFF34F8FBFF36F8F07E00124D8E70B
:10176000FFF792FFC5F800A0FFF7B0FC4FF0000BA9
:101770002CE08345E0D8FFF7A9FCD9F80030DB68FE
:10178000DD68281DFEF74AFF95F82430580712D56A
:10179000A9695B46524628465944FFF719FF30B104
:1017A00023465A46214628460094FFF74BFF284619
:1017B0002B6A9847DAE723F0010385F82430F6E72F
:1017C000039B05999847029B002B0ADA0022386890
:1017D00002A9FFF789F9002891D0029B0498002BF9
:1017E000EEDB049C6369A3B9FFF7E4FBD8F8003093
:1017F0000546984201D2FFF747FF029BC8F8005008
:10180000092BE3D8DFE803F00909092A3140090967
:101810002A31201DFEF702FFE6E794F82430A16983
:1018200043F0010384F82430039B2A4620461944E0
:10183000FFF7CEFE0028C9D0236A2046984794F8C7
:1018400024305907C2D50023A269039920460A44CF
:10185000CDF800B01946FFF7F5FEB7E794F824304D
:1018600023F0010384F82430B0E794F8243003997E
:1018700043F0010384F82430A1612B462A46204618
:101880002944FFF7A5FEA1E794F824309A07E7D48E
:101890002046FEF785FE99E7FC0100102C0200109F
:1018A000300200100002001004ED00E01FB51446E5
:1018B0001A466FF00103CDE900300548CDE9021466
:1018C000002369460068FFF7D9F804B010BD00BFD7
:1018D0003002001038B504460D460A460023014682
:1018E000074800F035FE012321462A464FF0A0406C
:1018F00000F07FFD0023640104F1A044635538BD6E
:10190000004004400123400100F1A04043547047CF
:101910000023400100F1A0404354704780B586B0D9
:1019200000AFF860B9607A6002210020FFF7EAFF9B
:101930000DE0FB7C1946F86800F034F800BFF86849
:1019400000F032F8034603F02603002BF7D007F12E
:1019500013031946B86800F03AFF0346002BE8D19C
:1019600000237B6103E000BF7B6901337B617B69FE
:10197000632BF8DD02210020FFF7CAFF00BF1837F4
:10198000BD4680BD4FF0FF3307B5009301230448E7
:101990001A4680210068FEF76BFD03B05DF804FB7A
:1019A00064150010016070474069704770B54FF4CE
:1019B0000016154C154D02210020FFF78BFF204625
:1019C000C5F8806001F09FF91149204601F0B4F993
:1019D0000323E3608023012223630E494FF48073C5
:1019E0000D4800F018FE8723A360636843F00503E9
:1019F0006360636823F002036360C023C5F88061FD
:101A000085F8153370BD00BF0080004000E100E0A4
:101A100080841E00401400104415001037B5802348
:101A200001220F490F4800F0F6FDFFF7BFFF00222B
:101A30005D210520FEF788FF0B4C0C4D21462860E8
:101A4000FFF7CAF80323002204F11201CDE90032A6
:101A5000074882222B68FFF783F903B030BD00BF2F
:101A6000C0130010AC130010BD3000004015001072
:101A70001D1B000013B500242048019400F066FFF0
:101A80000A28D8BF1E4B1F4A1C491F48D8BF1C70CC
:101A900001F0BCF9194800F059FF0A281CDD184C68
:101AA0002378CBB9194901AB042209681848FFF71C
:101AB000FDFE01232370019B3BB14FF08052154B7B
:101AC0001A60BFF34F8FBFF36F8F4FF40012124BAA
:101AD000C3F8802102B010BD084800F037FF7F280E
:101AE000E9DD4FF0A0430122084983F82F2009685F
:101AF000042201AB0648FFF7D9FEDCE744150010CD
:101B000095020010AC130010008000406415001016
:101B10008505000004ED00E000E100E0064608B5A0
:101B20000520FFF73FFB144C144D04F10108FFF7AB
:101B300029FF002230461049FEF7D6FF0128F6D1D2
:101B400041462846227800F0B1FD94F85C30012B24
:101B500008D1294622780A48FFF7E0FE0020FFF767
:101B600021FBE6E7284600F0F1FE0649024628463A
:101B700000F05BFEDDE700BF38020010AC13001080
:101B8000008000409602001008B5FEF764FC074B89
:101B90001860FEF760FC064B1860FEF75CFC054B16
:101BA0001860FEF758FC044B186008BD641500105F
:101BB0005C150010601500105815001090B587B026
:101BC00000AF78607B68FB60FB68002B01D10023CD
:101BD0006FE1322000F0DCF90023FB720023FB826E
:101BE00000237B750023BB7207F10B031946F868CD
:101BF00000F0EDFD9D4B00221A7024E007F10B036D
:101C00001946F86800F0E3FD0346002B12D0974B0D
:101C10001B780133DAB2954B1A70944B1B78052B65
:101C200011D900F0C5F9924B1B680133904A13603B
:101C300000233EE100F0BCF98D4B1B6801338C4A58
:101C40001360002335E1FB7A7E2BD7D1032289492B
:101C5000F86800F0EAFD874B1B781AB2864B1A80B1
:101C6000854BB3F900301B021AB2834B1A80814BAB
:101C70005B789AB2804BB3F900309BB213449BB2AD
:101C80001AB27D4B1A807C4BB3F900305B2B08DD18
:101C900000F08EF9764B1B680133754A1360002300
:101CA00007E1744B9B789AB2FB8A13449BB2FB8288
:101CB000704B9B78892B0DD103226E49F86800F098
:101CC000B4FD00F075F96A4B1B680133684A136074
:101CD0000023EEE0654B00221A7015E0634B1B7881
:101CE0000133DAB2614B1A70604B1B78052B08D9AF
:101CF00000F05EF95E4B1B6801335D4A1360002300
:101D0000D7E00020FFF74EFAF86800F01FFE024609
:101D1000594BB3F90030013B9A42DFDB06225549AB
:101D2000F86800F082FD00233B610BE0514A3B69FB
:101D300013441B789AB2FB8A13449BB2FB823B6923
:101D400001333B613B69032BF0DD4A4B1A794B4B66
:101D50001A704A4B1B789AB2FB8A13449BB2FB82DF
:101D6000444B5B795AB2454B5A70444B93F901305E
:101D7000DBB29AB2FB8A13449BB2FB823E4BB3F9AF
:101D80000030DBB2073BDAB23C4B9A703B4B9B789E
:101D9000502B00F28680354B00221A7015E0334B31
:101DA0001B780133DAB2314B1A70304B1B78052B9C
:101DB00008D900F0FDF82E4B1B6801332C4A136044
:101DC000002376E00020FFF7EDF92C4B9B781C46B2
:101DD000F86800F0BBFD03469C42E0DA274B9B7895
:101DE0001A462749F86800F020FD00237B750BE0B8
:101DF0007B7D224A1344DB789AB2FB8A13449BB260
:101E0000FB827B7D01337B751C4B9B787A7D9A42EC
:101E1000EED307F10A031946F86800F0D8FCFB8AF4
:101E2000DBB2FB82FB8ADBB2DB43DBB2FB82B7F9BE
:101E30001630BA7A93422BD1124B1B78002B0BD061
:101E4000114B1B68002B07D00F4B1B681846FFF780
:101E500009FA0C4B00221A700C4B1B6801330B4A19
:101E60001360064800F02CF822E000BF16030010B3
:101E70001C0300101B16001018030010681500103A
:101E80006B1500107C000010F400001020030010FF
:101E900000F08EF8094B1B680133084A13600023D9
:101EA00007E000F085F8054B1B680133034A136017
:101EB000002318461C37BD4690BD00BF1C03001010
:101EC00010B590F90140631C0ED04FF0A042137A78
:101ED000527AB3FA83F1B2FA82F349095B0943EA11
:101EE000410305339C4203D100F0D8F8012010BD16
:101EF0000020FCE72DE977410520FFF753F94FF467
:101F0000001200244FF0FF360C4B0D4DDFF83480EB
:101F10001A60002301220C2128680096FEF7A8FA17
:101F200010F0040F18BF4446204600F00FFD0028B3
:101F3000EFD02046FFF742FEF6E700BF00E100E0E9
:101F40006415001044150010024B03211868FEF7B9
:101F5000EBBA00BF6415001007B5FFF7F5FF0023CB
:101F600002220549CDE9002304484FF4A072FEF790
:101F7000F7FE03B05DF804FBE0300000F51E000042
:101F8000024B01211868FEF7CFBA00BF641500109C
:101F9000012307B5009005481A4602210068FEF7A4
:101FA00067FAC0F3400003B05DF804FB641500104D
:101FB000024B02211868FEF7B7BA00BF6415001083
:101FC0007E2230B51C4B03305A7010F8014C04F1DE
:101FD0000B021A70E21DDA701112012299701A7147
:101FE0005A71B0F85120110ADA71002299711A72EF
:101FF00010F8031C597210F8021C997203F10B01BE
:10200000D5B2AC420AD80022032104F1090088426B
:102010000ADAD2430B445A70074830BD10F8015B0E
:10202000013201F8015BEBE75C186478013122446E
:1020300012B2C9B2EBE700BFBE15001010B50C46D6
:10204000FFF7BEFF09480A4900233222006881F8E1
:102050005C40FEF791FC044620B1FFF791FF01249C
:10206000204610BDFFF78CFFFAE700BF40150010B7
:10207000BE1500107047FFFF4FF6F162014605489C
:102080000280002282704FF6FF72A0F85420FFF702
:10209000D5BF00BF761600107047FFFF08B5084A8D
:1020A0001368013313600378F02B07D10548FEF75E
:1020B000DFF8BDE808400120FFF7DEBF08BD00BF24
:1020C000240300106815001080B500AF012307221B
:1020D00000214FF0A04000F08CF900BF80BD80B51A
:1020E00000AF4FF0A04000F079F9FFF7EDFF00BF1F
:1020F00080BDFFFF80B483B000AF0346FB71044A8C
:10210000FB79136000BF0C37BD4680BC704700BF31
:102110000080044080B483B000AF0346FB71084BDD
:10212000D3F88030FA79012101FA02F21146044A0B
:102130000B43C2F8803000BF0C37BD4680BC7047EF
:102140000080044080B586B000AFF860B9607A6066
:1021500000237B6115E07B699B00BA681344197802
:102160007B699B00BA68134458787B699B00BA6806
:1021700013445B880246F86800F0EAF97B69013392
:102180007B617A697B689A42E5D300BF00BF18374C
:10219000BD4680BD80B500AF1020FFF7BBFF0C220D
:1021A00002490348FFF7CEFF00BF80BDF8300000B2
:1021B0000040044080B500AF00F064FC00BF80BD6B
:1021C00080B500AF0220FFF795FFFFF7E3FFFFF7B1
:1021D000F1FF00BF80BDFFFF80B500AF00F0D8F871
:1021E0000346024A136000BF80BD00BFCC1600103A
:1021F00080B400AF024B1B681846BD4680BC7047D8
:10220000F430000080B400AF024B1846BD4680BCDD
:10221000704700BF001BB70080B485B000AF786086
:102220007B685B09DBB203F00F03FB737B6803F091
:102230001F03BB60FB7B064A52F82320BB680133B7
:102240005B00B2FBF3F318461437BD4680BC704701
:102250002831000080B485B000AF786039607B68B9
:1022600003F01F030133FB603B68FA6802FB03F3D2
:1022700018461437BD4680BC7047FFFF80B483B05A
:1022800000AF0346FB71044AFB79136400BF0C37AF
:10229000BD4680BC704700BF0080044080B483B05E
:1022A00000AF0346FB71044AFB79136700BF0C378C
:1022B000BD4680BC704700BF0080044080B500AFC1
:1022C000034B5B6A1846FFF7A7FF0346184680BD1D
:1022D0000080044080B582B000AF0C4B1B6CDBB2B9
:1022E00003F00303002B02D0012B04D007E0FFF71B
:1022F00089FF786005E0FFF77BFF786001E000234D
:102300007B607B6818460837BD4680BD008004406E
:1023100098B500AF054B9C68FFF7DCFF03461946F4
:102320002046FFF797FF0346184698BD00800440FB
:1023300080B582B000AF00237B60144B1B6FDBB213
:1023400003F00303032B1BD801A252F823F000BFB4
:10235000612300006923000071230000792300003D
:10236000FFF750FF78600BE0FFF7B4FF786007E0FD
:10237000FFF7A4FF786003E0FFF7CAFF786000BFB3
:102380007B6818460837BD4680BD00BF008004400A
:1023900080B500AFFFF7CCFF0246034B9B6FB2FB4B
:1023A000F3F3184680BD00BF0080044080B483B0C2
:1023B00000AF0346FB71084BD3F88030FA79012156
:1023C00001FA02F21146044A0B43C2F8803000BF02
:1023D0000C37BD4680BC70470080044080B582B099
:1023E00000AF78600620FFF7E1FF00BF0837BD4669
:1023F00080BD80B485B000AFF860B96011461A4660
:102400000B46FB711346BB71BB79002B12D0FB68E6
:10241000BA6802F5006253F82220FB79012101FA23
:1024200003F342EA0301FB68BA6802F5006243F86D
:10243000221012E0FB68BA6802F5006253F822200D
:10244000FB79012101FA03F3DB4302EA0301FB6894
:10245000BA6802F5006243F8221000BF1437BD4687
:1024600080BC704780B582B000AF78603960044BA3
:1024700039687868984700BF0837BD4680BD00BFFF
:10248000F11FFF1F80B58CB000AF78603960322338
:10249000FB617B683B623B687B6207F10C0207F1E2
:1024A0001C0311461846FFF7DDFFFB68DBB2184638
:1024B0003037BD4680BDFFFF80B58EB000AFF860FD
:1024C000B9607A6033237B62FB68BB62BB68FB62E6
:1024D0007B683B630A4B1B680A4AA2FB03239B09E8
:1024E0007B6307F1140207F1240311461846FFF736
:1024F000B9FF7B69DBB218463837BD4680BD00BFE7
:10250000CC160010D34D621080B58CB000AF78604F
:1025100039603423FB617B683B623B687B620A4B1A
:102520001B680A4AA2FB03239B09BB6207F10C024A
:1025300007F11C0311461846FFF794FFFB68DBB256
:1025400018463037BD4680BDCC160010D34D621002
:1025500080B485B000AFF8607B600B46FB72134619
:10256000BB72FB7A002B05D1BA7AFB68796843F815
:10257000221005E0BA7AFB681832796843F8221015
:1025800000BF1437BD4680BC704780B483B000AF35
:1025900078607B680C331A687B6810331B68D31A29
:1025A00018460C37BD4680BC704790B583B000AF6D
:1025B00078607B685C687868FFF7E7FF0346E31A9A
:1025C00018460C37BD4690BD80B582B000AF78602C
:1025D0007868FFF7DAFF02467B685B689A42ACBF17
:1025E00001230023DBB218460837BD4680BD80B406
:1025F00083B000AF78607B680C331A687B68103357
:102600001B689A420CBF01230023DBB218460C372B
:10261000BD4680BC704780B485B000AFF860B9603B
:102620007A603B60FB68BA681A60FB683A685A6077
:10263000FB687A689A60FB6800221A61FB681A6975
:10264000FB68DA60012318461437BD4680BC70472A
:1026500080B584B000AF786039607B681B68FB6030
:102660007868FFF7B1FF0346002B01D0002319E083
:102670007B68DB687A685268013A13407A6892682E
:1026800002FB03F3FA681344FB607B689B681A46FD
:102690003968F86800F0ECFB7B68DB685A1C7B68E3
:1026A000DA60012318461037BD4680BD80B588B07A
:1026B00000AFF860B9607A60FB681B68BB61F868BE
:1026C000FFF782FF0346002B01D000237BE0F86870
:1026D000FFF76BFF78617B69FB61FB68DB68FA6879
:1026E0005268013A1A40FB691344FA6852689342EF
:1026F0000AD3FB685B681946FB68DB68FA685268B6
:10270000013A1340CB1AFB617A69FB69D31A7B61EA
:10271000FA697B689342A8BF1346FB617A68FB693C
:10272000D31A7B607A697B689342A8BF13467B61AA
:102730007A687B69D31A7B60FB68DB68FA68526849
:10274000013A1340FA68926802FB03F3BA69134432
:10275000BB61FB689B68FA6902FB03F31A46B96820
:10276000B86900F085FBFB68DA68FB691A44FB680E
:10277000DA60FB681A68FB68DB68F9684968013948
:102780000B40F968896801FB03F31344BB61FB68E4
:102790009B68FA6902FB03F31A46BB681344BB60EB
:1027A000FB689B687A6902FB03F31A46B968B8694B
:1027B00000F05EFBFB68DA687B691A44FB68DA604C
:1027C000FA697B69134418462037BD4680BD80B541
:1027D00084B000AF786039607B681B68FB60786804
:1027E000FFF705FF0346002B01D0002319E07B68AB
:1027F0001B697A685268013A13407A68926802FB52
:1028000003F3FA681344FB607B689B681A46F96817
:10281000386800F02DFB7B681B695A1C7B681A61C5
:10282000012318461037BD4680BD80B588B000AF83
:10283000F860B9607A60FB681B68BB61F868FFF7F5
:10284000D6FE0346002B01D000237BE0F868FFF79B
:102850009CFE78617B69FB61FB681B69FA685268C2
:10286000013A1A40FB691344FA68526893420AD34A
:10287000FB685B681946FB681B69FA685268013A95
:102880001340CB1AFB617A69FB69D31A7B61FA6941
:102890007B689342A8BF1346FB617A68FB69D31A31
:1028A0007B607A697B689342A8BF13467B617A6834
:1028B0007B69D31A7B60FB681B69FA685268013A2E
:1028C0001340FA68926802FB03F3BA691344BB61D0
:1028D000FB689B68FA6902FB03F31A46B969B8689A
:1028E00000F0C6FAFB681A69FB691A44FB681A61B2
:1028F000FB681A68FB681B69F968496801390B4075
:10290000F968896801FB03F31344BB61FB689B68AA
:10291000FA6902FB03F31A46BB681344BB60FB6809
:102920009B687A6902FB03F31A46B969B86800F03C
:102930009FFAFB681A697B691A44FB681A61FA6995
:102940007B69134418462037BD4680BD80B582B0F0
:1029500000AF78607868FFF718FE0346184608371E
:10296000BD4680BD80B485B000AF78600C4BD3F815
:10297000382240F2FF531340FB607A6840F2FF5365
:102980001340FA681343FB60054AFB6843F468434D
:10299000C2F8383200BF1437BD4680BC704700BF54
:1029A0000080044080B485B000AF78600C4BD3F851
:1029B000382240F2FF531340FB607A6840F2FF5325
:1029C0001340DB43FA681340FB60054AFB6843F49D
:1029D0006843C2F8383200BF1437BD4680BC704728
:1029E0000080044080B483B000AF03460A46FB7108
:1029F0001346BB71FB7903F01F02BB795B0103F047
:102A000060031A43034B9A6000BF0C37BD4680BC7D
:102A1000704700BF0080044080B400AF064BDB6805
:102A200003F00103002B14BF01230023DBB218467F
:102A3000BD4680BC704700BF0080044080B483B0B6
:102A400000AF7860034A7B68936700BF0C37BD46D0
:102A500080BC70470080044080B485B000AF03465E
:102A6000FB71074B1B6923F00303FB60FA790449F0
:102A7000FB6813430B6100BF1437BD4680BC704731
:102A800000C0034080B582B000AF2020FFF78AFF6E
:102A900000237B6002E07B6801337B607B68B3F5D9
:102AA000007FF8DB0120FFF7E9FB8020FFF75AFFEA
:102AB00002210720FFF796FF8020FFF773FF00BF7A
:102AC000FFF7AAFF034683F00103DBB2002BF7D127
:102AD0000120FFF7B3FF0220FFF7BEFF0320FFF73F
:102AE000DDFB00BF0837BD4680BDFFFF80B483B06B
:102AF00000AF0346FB71084BD3F88030FA7901210F
:102B000001FA02F21146044A0B43C2F8803000BFBA
:102B10000C37BD4680BC70470080044080B485B04F
:102B200000AF78607B680E4A934202D10A23FB73A0
:102B30000FE07B680B4A934202D10723FB7308E046
:102B40007B68094A934202D10823FB7301E0092301
:102B5000FB73FB7B18461437BD4680BC704700BF33
:102B60000080014000C000400000014080B582B0FC
:102B700000AF78607868FFF7D1FF03461846FFF78B
:102B8000B5FF00BF0837BD4680BDFFFF80B483B0EE
:102B900000AF0346FB71084BD3F88030FA7901216E
:102BA00001FA02F21146044A0B43C2F8803000BF1A
:102BB0000C37BD4680BC70470080044080B483B0B1
:102BC00000AF7860044A7B68C2F8983000BF0C37C9
:102BD000BD4680BC704700BF0080044080B483B015
:102BE00000AF78607B680C331A687B6810331B6811
:102BF0009A420CBF01230023DBB218460C37BD46B6
:102C000080BC704780B483B000AF78600B46FB7027
:102C1000FA787B681A6000BF0C37BD4680BC7047ED
:102C200080B483B000AF78607B681B68DBB2184665
:102C30000C37BD4680BC704780B483B000AF78606D
:102C400039607B685A683B68DB431A407B685A608E
:102C500000BF0C37BD4680BC704780B483B000AF66
:102C6000786039607B683A689A6000BF0C37BD466F
:102C700080BC704780B483B000AF786039607B68F7
:102C80003A68DA6000BF0C37BD4680BC704780B43C
:102C900083B000AF78607B68DB6843F080027B68BC
:102CA000DA6000BF0C37BD4680BC704780B483B08B
:102CB00000AF78607B68DB6823F080027B68DA60B5
:102CC00000BF0C37BD4680BC704780B483B000AFF6
:102CD00078600B46FB701346BB70FA787B681A600D
:102CE000BA787B685A6000BF0C37BD4680BC70471D
:102CF00080B483B000AF78607B685B6918460C379E
:102D0000BD4680BC704780B582B000AF78600C20B3
:102D1000FFF73CFF0120FFF751FF07217868FFF71D
:102D20009CFF03217868FFF7A5FF7B6810229A6259
:102D300000BF0837BD4680BD80B586B000AF786063
:102D40003960FFF7F5FA78613B681B017A69B2FBDD
:102D5000F3F33B613B691B0AFB60FB681B023A69AA
:102D6000D31ABB607868FFF792FFBB68DBB2FA68E2
:102D7000D2B219467868FFF7A8FF7868FFF796FF88
:102D80007A693B69B2FBF3F318461837BD4680BD3C
:102D900080B584B000AF786039600AE07868FFF7EA
:102DA0003FFF0346FB7307F10F0319463868FFF72F
:102DB0004FFC7868FFF79CFF034603F00103002BEC
:102DC000ECD100BF00BF1037BD4680BD80B584B0D8
:102DD00000AF7860396004E0FB7B19467868FFF744
:102DE00011FF7868FFF784FF034603F02003002BF0
:102DF00008D007F10F0319463868FFF7E8FC0346CF
:102E0000002BE9D100BF1037BD4680BD80B584B02E
:102E100000AFF860B9607A60FB685B6803F002039A
:102E2000002B0DD07968F868FFF7D0FF7868FFF7BE
:102E3000D5FE0346002B03D00221F868FFF7FCFE05
:102E4000B968F868FFF7A4FF00BF1037BD4680BD22
:102E5000024B0146186800F06DB800BF80000010FA
:102E6000024B0146186800F019B800BF800000103E
:102E70000A44914200F1FF3300D1704710B511F8B8
:102E8000014B914203F8014FF9D110BD03460244B2
:102E9000934200D1704703F8011BF9E738B50546A6
:102EA000002943D051F8043C0C1F002BB8BFE41894
:102EB00000F0AAF81E4A1368104633B96360146024
:102EC0002846BDE8384000F0A5B8A3420AD92168D9
:102ED0006218934201BF1A685B68521822606360EF
:102EE0000460EDE71A465B680BB1A342FAD911689A
:102EF0005018A0420BD12068014450188342116041
:102F0000DED118685B68014411605360D8E702D9CC
:102F10000C232B60D4E7206821188B4201BF19686D
:102F20005B680918216063605460C9E738BD00BF61
:102F300028030010F8B5CD1C25F0030508350C2D2D
:102F400038BF0C25002D064601DBA94203D90C230E
:102F500033600020F8BD00F057F821490A68144694
:102F60009CB9204F3B6823B92146304600F03CF81D
:102F700038602946304600F037F8431C23D10C2333
:102F80003046336000F046F8E3E723685B1B17D454
:102F90000B2B03D923601C44256004E06368A24224
:102FA0000CBF0B605360304600F034F804F10B00A6
:102FB000231D20F00700C21ACCD01B1AA350C9E76A
:102FC00022466468CCE7C41C24F00304A042E3D08A
:102FD000211A304600F008F80130DDD1CFE700BFFC
:102FE000280300102C03001038B50023054D0446BB
:102FF00008462B6000F016F8431C02D12B6803B181
:10300000236038BDD0160010014800F009B800BF99
:10301000D8160010014800F004B800BFD816001000
:103020007047704770B50C4D2B680BB90B4B2B607C
:10303000C41C2E6824F003043444204600F010F829
:1030400010B92C60304670BD00F014F80C234FF01E
:10305000FF360360F6E700BF30030010E0160010F3
:103060000346034818B1834234BF00200120704753
:1030700000000000014B1868704700BF800000107E
:10308000765461736B5F4861727442656174007657
:103090005461736B5F4C756E6368557365725F4105
:1030A00070706C69636174696F6E0049444C4500CF
:1030B000546D725100546D7220537663005F315F1E
:1030C000785175655F4D6573735F53656E64005F1E
:1030D000305F436F6D5F53656E645F446174610080
:1030E000315F436F6D5F5265636F6D706F5F5278D4
:1030F00000FFFFFF001BB7000001810000029100EC
:1031000000038100000401020005010200068100A5
:103110000008810000098100000B020100128100FB
:1031200000138100011D810000000000C02709007C
:1031300090051000C05C1500F0B31A00200B2000B1
:10314000009F2400E0322900C0C62D0050973100B6
:10315000E06735007038390000093D004016400036
:0831600080234300C03046004B
:1031680000000000001000000020000000300000F7
:1031780000400000005000000060000000700000E7
:10318800008000000090000000A0000000B00000D7
:1031980000C0000000D0000000E0000000F00000C7
:1031A8000000010000800100000002000080020011
:1031B80000000300008003000000040000800400F9
:1031C80000000500008005000000060000800600E1
:1031D8000000070000800700AAAAAAAA01FFFFFFB3
:1031E8008400001000000000000000000000000043
:1031F80000000000000000000000000000000000C7
:1032080000000000000000000000000000000000B6
:1032180000000000000000000000000000000000A6
:103228000000000000000000000000000000000096
:103238000000000000000000000000000000000086
:043248000000000082
:040000030000012BCD
:00000001FF
